{
	"contracts/GameRoom.sol": {
		"GameRoom": {
			"abi": [
				{
					"inputs": [
						{
							"internalType": "uint256",
							"name": "_gameId",
							"type": "uint256"
						},
						{
							"internalType": "address payable",
							"name": "_stakingVault",
							"type": "address"
						},
						{
							"internalType": "address",
							"name": "_roomOwner",
							"type": "address"
						},
						{
							"components": [
								{
									"internalType": "uint256",
									"name": "minPlayers",
									"type": "uint256"
								},
								{
									"internalType": "uint256",
									"name": "maxPlayers",
									"type": "uint256"
								},
								{
									"internalType": "uint256",
									"name": "minStake",
									"type": "uint256"
								},
								{
									"internalType": "uint256",
									"name": "maxStake",
									"type": "uint256"
								},
								{
									"internalType": "uint256",
									"name": "jokerCount",
									"type": "uint256"
								},
								{
									"internalType": "uint256[10]",
									"name": "cardCounts",
									"type": "uint256[10]"
								}
							],
							"internalType": "struct GameRoom.GameConfig",
							"name": "_config",
							"type": "tuple"
						},
						{
							"internalType": "address",
							"name": "_vrfCoordinator",
							"type": "address"
						},
						{
							"internalType": "uint64",
							"name": "_vrfSubId",
							"type": "uint64"
						},
						{
							"internalType": "bytes32",
							"name": "_vrfKeyHash",
							"type": "bytes32"
						},
						{
							"internalType": "uint32",
							"name": "_vrfCallbackGasLimit",
							"type": "uint32"
						},
						{
							"internalType": "uint16",
							"name": "_vrfRequestConfirmations",
							"type": "uint16"
						},
						{
							"internalType": "address",
							"name": "_ecvrfRelay",
							"type": "address"
						}
					],
					"stateMutability": "nonpayable",
					"type": "constructor"
				},
				{
					"anonymous": false,
					"inputs": [
						{
							"indexed": true,
							"internalType": "address",
							"name": "from",
							"type": "address"
						},
						{
							"indexed": true,
							"internalType": "address",
							"name": "to",
							"type": "address"
						},
						{
							"indexed": false,
							"internalType": "uint8",
							"name": "cardNumber",
							"type": "uint8"
						}
					],
					"name": "CardTaken",
					"type": "event"
				},
				{
					"anonymous": false,
					"inputs": [
						{
							"indexed": true,
							"internalType": "uint256",
							"name": "gameId",
							"type": "uint256"
						},
						{
							"indexed": true,
							"internalType": "address",
							"name": "room",
							"type": "address"
						},
						{
							"indexed": false,
							"internalType": "bytes32",
							"name": "alphaCommitment",
							"type": "bytes32"
						}
					],
					"name": "ECVRFRandomRequested",
					"type": "event"
				},
				{
					"anonymous": false,
					"inputs": [
						{
							"indexed": true,
							"internalType": "uint256",
							"name": "gameId",
							"type": "uint256"
						},
						{
							"indexed": false,
							"internalType": "address[]",
							"name": "losers",
							"type": "address[]"
						},
						{
							"indexed": false,
							"internalType": "address[]",
							"name": "winners",
							"type": "address[]"
						}
					],
					"name": "GameEnded",
					"type": "event"
				},
				{
					"anonymous": false,
					"inputs": [
						{
							"indexed": true,
							"internalType": "uint256",
							"name": "gameId",
							"type": "uint256"
						}
					],
					"name": "GameStarted",
					"type": "event"
				},
				{
					"anonymous": false,
					"inputs": [
						{
							"indexed": true,
							"internalType": "uint256",
							"name": "gameId",
							"type": "uint256"
						},
						{
							"indexed": true,
							"internalType": "address",
							"name": "player",
							"type": "address"
						},
						{
							"indexed": false,
							"internalType": "uint256",
							"name": "stakeAmount",
							"type": "uint256"
						}
					],
					"name": "PlayerJoined",
					"type": "event"
				},
				{
					"anonymous": false,
					"inputs": [
						{
							"indexed": true,
							"internalType": "address",
							"name": "player",
							"type": "address"
						}
					],
					"name": "PlayerOut",
					"type": "event"
				},
				{
					"anonymous": false,
					"inputs": [
						{
							"indexed": true,
							"internalType": "uint256",
							"name": "gameId",
							"type": "uint256"
						},
						{
							"indexed": false,
							"internalType": "uint256",
							"name": "requestId",
							"type": "uint256"
						}
					],
					"name": "VrfRandomRequested",
					"type": "event"
				},
				{
					"inputs": [
						{
							"internalType": "uint256",
							"name": "randomWord",
							"type": "uint256"
						}
					],
					"name": "applyECVRFSeed",
					"outputs": [],
					"stateMutability": "nonpayable",
					"type": "function"
				},
				{
					"inputs": [],
					"name": "config",
					"outputs": [
						{
							"internalType": "uint256",
							"name": "minPlayers",
							"type": "uint256"
						},
						{
							"internalType": "uint256",
							"name": "maxPlayers",
							"type": "uint256"
						},
						{
							"internalType": "uint256",
							"name": "minStake",
							"type": "uint256"
						},
						{
							"internalType": "uint256",
							"name": "maxStake",
							"type": "uint256"
						},
						{
							"internalType": "uint256",
							"name": "jokerCount",
							"type": "uint256"
						}
					],
					"stateMutability": "view",
					"type": "function"
				},
				{
					"inputs": [],
					"name": "currentPlayerIndex",
					"outputs": [
						{
							"internalType": "uint256",
							"name": "",
							"type": "uint256"
						}
					],
					"stateMutability": "view",
					"type": "function"
				},
				{
					"inputs": [],
					"name": "ecvrfRelay",
					"outputs": [
						{
							"internalType": "address",
							"name": "",
							"type": "address"
						}
					],
					"stateMutability": "view",
					"type": "function"
				},
				{
					"inputs": [],
					"name": "gameId",
					"outputs": [
						{
							"internalType": "uint256",
							"name": "",
							"type": "uint256"
						}
					],
					"stateMutability": "view",
					"type": "function"
				},
				{
					"inputs": [],
					"name": "gameState",
					"outputs": [
						{
							"internalType": "enum GameRoom.GameState",
							"name": "",
							"type": "uint8"
						}
					],
					"stateMutability": "view",
					"type": "function"
				},
				{
					"inputs": [],
					"name": "getCurrentTurnPlayer",
					"outputs": [
						{
							"internalType": "address",
							"name": "",
							"type": "address"
						}
					],
					"stateMutability": "view",
					"type": "function"
				},
				{
					"inputs": [
						{
							"internalType": "address",
							"name": "p",
							"type": "address"
						}
					],
					"name": "getPlayerCards",
					"outputs": [
						{
							"internalType": "uint256[10]",
							"name": "",
							"type": "uint256[10]"
						},
						{
							"internalType": "uint256",
							"name": "",
							"type": "uint256"
						}
					],
					"stateMutability": "view",
					"type": "function"
				},
				{
					"inputs": [],
					"name": "getPlayerCount",
					"outputs": [
						{
							"internalType": "uint256",
							"name": "",
							"type": "uint256"
						}
					],
					"stateMutability": "view",
					"type": "function"
				},
				{
					"inputs": [],
					"name": "getPlayers",
					"outputs": [
						{
							"internalType": "address[]",
							"name": "",
							"type": "address[]"
						}
					],
					"stateMutability": "view",
					"type": "function"
				},
				{
					"inputs": [],
					"name": "getTakeTarget",
					"outputs": [
						{
							"internalType": "address",
							"name": "",
							"type": "address"
						}
					],
					"stateMutability": "view",
					"type": "function"
				},
				{
					"inputs": [
						{
							"internalType": "address",
							"name": "",
							"type": "address"
						}
					],
					"name": "handDisplaySeed",
					"outputs": [
						{
							"internalType": "uint256",
							"name": "",
							"type": "uint256"
						}
					],
					"stateMutability": "view",
					"type": "function"
				},
				{
					"inputs": [],
					"name": "joinGame",
					"outputs": [],
					"stateMutability": "payable",
					"type": "function"
				},
				{
					"inputs": [
						{
							"internalType": "address",
							"name": "",
							"type": "address"
						}
					],
					"name": "playerData",
					"outputs": [
						{
							"internalType": "address",
							"name": "addr",
							"type": "address"
						},
						{
							"internalType": "uint256",
							"name": "stakeAmount",
							"type": "uint256"
						},
						{
							"internalType": "bool",
							"name": "isActive",
							"type": "bool"
						},
						{
							"internalType": "bool",
							"name": "isOut",
							"type": "bool"
						},
						{
							"internalType": "uint256",
							"name": "jokerCount",
							"type": "uint256"
						}
					],
					"stateMutability": "view",
					"type": "function"
				},
				{
					"inputs": [
						{
							"internalType": "uint256",
							"name": "",
							"type": "uint256"
						}
					],
					"name": "players",
					"outputs": [
						{
							"internalType": "address",
							"name": "",
							"type": "address"
						}
					],
					"stateMutability": "view",
					"type": "function"
				},
				{
					"inputs": [
						{
							"internalType": "uint256",
							"name": "requestId",
							"type": "uint256"
						},
						{
							"internalType": "uint256[]",
							"name": "randomWords",
							"type": "uint256[]"
						}
					],
					"name": "rawFulfillRandomWords",
					"outputs": [],
					"stateMutability": "nonpayable",
					"type": "function"
				},
				{
					"inputs": [],
					"name": "roomOwner",
					"outputs": [
						{
							"internalType": "address",
							"name": "",
							"type": "address"
						}
					],
					"stateMutability": "view",
					"type": "function"
				},
				{
					"inputs": [],
					"name": "stakingVault",
					"outputs": [
						{
							"internalType": "contract StakingVault",
							"name": "",
							"type": "address"
						}
					],
					"stateMutability": "view",
					"type": "function"
				},
				{
					"inputs": [],
					"name": "startGame",
					"outputs": [],
					"stateMutability": "nonpayable",
					"type": "function"
				},
				{
					"inputs": [
						{
							"internalType": "address",
							"name": "target",
							"type": "address"
						},
						{
							"internalType": "uint8",
							"name": "cardNumber",
							"type": "uint8"
						}
					],
					"name": "takeCard",
					"outputs": [],
					"stateMutability": "nonpayable",
					"type": "function"
				}
			],
			"devdoc": {
				"kind": "dev",
				"methods": {
					"getPlayerCount()": {
						"details": "便于客户端快速显示人数"
					},
					"getPlayers()": {
						"details": "RPC 不支持 eth_getLogs 时，客户端用此函数拉取玩家列表"
					},
					"getTakeTarget()": {
						"details": "下家（顺时针下一位），用于抽牌目标"
					},
					"startGame()": {
						"details": "未满员时，房主可在达到最小人数后手动开局"
					},
					"takeCard(address,uint8)": {
						"params": {
							"cardNumber": "0 = 小丑（不可成对消除，仅转移），1–10 = 数字牌"
						}
					}
				},
				"stateVariables": {
					"handDisplaySeed": {
						"details": "客户端用此种子与当前手牌 multiset 做确定性洗牌，保证所有人看到的扇面顺序一致"
					},
					"roomOwner": {
						"details": "创建房间的钱包地址，可调用 startGame"
					}
				},
				"version": 1
			},
			"evm": {
				"assembly": "    /* \"contracts/GameRoom.sol\":173:12583  contract GameRoom is OptionalVRFConsumer {... */\n  mstore(0x40, 0x01a0)\n  jumpi(tag_29, callvalue)\n  mload(0x40)\n  bytecodeSize\n  codesize\n  dup2\n  swap1\n  sub\n  swap1\n  0x1f\n  dup3\n  add\n  not(0x1f)\n  and\n  dup4\n  add\n  swap1\n  sub(shl(0x40, 0x01), 0x01)\n  dup3\n  gt\n  dup5\n  dup4\n  lt\n  or\n  tag_17\n  jumpi\n  dup3\n  swap2\n  0x40\n  mstore\n  dup4\n  codecopy\n  dup2\n  add\n  dup2\n  dup2\n  sub\n  swap1\n  0x0300\n  dup3\n  slt\n  tag_29\n  jumpi\n  dup3\n  mload\n  0x20\n  dup5\n  add\n  mload\n  sub(shl(0xa0, 0x01), 0x01)\n  dup2\n  and\n  swap1\n  dup2\n  swap1\n  sub\n  tag_29\n  jumpi\n  0x01e0\n  tag_10\n  0x40\n  dup8\n  add\n  tag_1\n  jump\t// in\ntag_10:\n  swap5\n  not(0x5f)\n  add\n  slt\n  tag_29\n  jumpi\n  mload(0x40)\n  0xc0\n  dup2\n  add\n  sub(shl(0x40, 0x01), 0x01)\n  dup2\n  gt\n  dup3\n  dup3\n  lt\n  or\n  tag_17\n  jumpi\n  0x40\n  mstore\n  0x60\n  dup7\n  add\n  mload\n  dup2\n  mstore\n  0x80\n  dup7\n  add\n  mload\n  0x20\n  dup3\n  add\n  swap1\n  dup2\n  mstore\n  0xa0\n  dup8\n  add\n  mload\n  swap2\n  0x40\n  dup2\n  add\n  swap3\n  dup4\n  mstore\n  0xc0\n  dup9\n  add\n  mload\n  swap4\n  0x60\n  dup3\n  add\n  swap5\n  dup6\n  mstore\n  0xe0\n  dup10\n  add\n  mload\n  swap6\n  0x80\n  dup4\n  add\n  swap7\n  dup8\n  mstore\n  dup8\n  0x011f\n  dup12\n  add\n  slt\n  iszero\n  tag_29\n  jumpi\n  mload(0x40)\n  swap8\n  0x0140\n  dup10\n  add\n  sub(shl(0x40, 0x01), 0x01)\n  dup2\n  gt\n  dup11\n  dup3\n  lt\n  or\n  tag_17\n  jumpi\n  0x40\n  mstore\n  dup9\n  0x0240\n  dup13\n  add\n  swap2\n  dup3\n  gt\n  tag_29\n  jumpi\n  0x0100\n  dup13\n  add\n  swap1\ntag_21:\n  dup3\n  dup3\n  lt\n  tag_22\n  jumpi\n  pop\n  pop\n  tag_24\n  swap1\n  0xa0\n  dup6\n  add\n  swap10\n  dup11\n  mstore\n  tag_1\n  jump\t// in\ntag_24:\n  0x0260\n  dup12\n  add\n  mload\n  swap11\n  sub(shl(0x40, 0x01), 0x01)\n  dup13\n  and\n  dup13\n  sub\n  tag_29\n  jumpi\n  0x0280\n  dup2\n  add\n  mload\n  0x02a0\n  dup3\n  add\n  mload\n  swap1\n  0xffffffff\n  dup3\n  and\n  dup3\n  sub\n  tag_29\n  jumpi\n  0x02c0\n  dup4\n  add\n  mload\n  swap3\n  0xffff\n  dup5\n  and\n  dup5\n  sub\n  tag_29\n  jumpi\n  0x02e0\n  tag_31\n  swap2\n  add\n  tag_1\n  jump\t// in\ntag_31:\n    /* \"contracts/vrf/OptionalVRFConsumer.sol\":638:670  vrfCoordinator = _vrfCoordinator */\n  swap14\n  dup5\n    /* \"contracts/GameRoom.sol\":173:12583  contract GameRoom is OptionalVRFConsumer {... */\n  0x80\n    /* \"contracts/vrf/OptionalVRFConsumer.sol\":638:670  vrfCoordinator = _vrfCoordinator */\n  mstore\n    /* \"contracts/GameRoom.sol\":173:12583  contract GameRoom is OptionalVRFConsumer {... */\n  0xa0\n    /* \"contracts/vrf/OptionalVRFConsumer.sol\":680:700  vrfSubId = _vrfSubId */\n  mstore\n    /* \"contracts/GameRoom.sol\":173:12583  contract GameRoom is OptionalVRFConsumer {... */\n  0xc0\n    /* \"contracts/vrf/OptionalVRFConsumer.sol\":710:734  vrfKeyHash = _vrfKeyHash */\n  mstore\n    /* \"contracts/GameRoom.sol\":173:12583  contract GameRoom is OptionalVRFConsumer {... */\n  0xe0\n    /* \"contracts/vrf/OptionalVRFConsumer.sol\":744:786  vrfCallbackGasLimit = _vrfCallbackGasLimit */\n  mstore\n    /* \"contracts/GameRoom.sol\":173:12583  contract GameRoom is OptionalVRFConsumer {... */\n  0x0100\n    /* \"contracts/vrf/OptionalVRFConsumer.sol\":796:846  vrfRequestConfirmations = _vrfRequestConfirmations */\n  mstore\n    /* \"contracts/GameRoom.sol\":2296:2323  _stakingVault != address(0) */\n  dup3\n  iszero\n    /* \"contracts/GameRoom.sol\":173:12583  contract GameRoom is OptionalVRFConsumer {... */\n  tag_32\n  jumpi\n  sub(shl(0xa0, 0x01), 0x01)\n  dup11\n  and\n    /* \"contracts/GameRoom.sol\":2353:2377  _roomOwner != address(0) */\n  iszero\n    /* \"contracts/GameRoom.sol\":173:12583  contract GameRoom is OptionalVRFConsumer {... */\n  tag_34\n  jumpi\n  sub(shl(0xa0, 0x01), 0x01)\n  and\n    /* \"contracts/GameRoom.sol\":2409:2438  _vrfCoordinator != address(0) */\n  iszero\n  iszero\n  dup1\n    /* \"contracts/GameRoom.sol\":2409:2467  _vrfCoordinator != address(0) && _ecvrfRelay != address(0) */\n  tag_36\n  jumpi\n    /* \"contracts/GameRoom.sol\":173:12583  contract GameRoom is OptionalVRFConsumer {... */\ntag_37:\n  tag_38\n  jumpi\n    /* \"contracts/GameRoom.sol\":2499:2515  gameId = _gameId */\n  0x0120\n  mstore\n    /* \"contracts/GameRoom.sol\":173:12583  contract GameRoom is OptionalVRFConsumer {... */\n  0x0140\n    /* \"contracts/GameRoom.sol\":2526:2568  stakingVault = StakingVault(_stakingVault) */\n  mstore\n    /* \"contracts/GameRoom.sol\":173:12583  contract GameRoom is OptionalVRFConsumer {... */\n  mload\n  0x00\n  sstore\n  mload\n  0x01\n  sstore\n  mload\n  0x02\n  sstore\n  mload\n  0x03\n  sstore\n  mload\n  0x04\n  sstore\n  mload\n  0x00\ntag_40:\n  0x0a\n  dup2\n  lt\n  tag_41\n  jumpi\n  pop\n  pop\n  not(0xff)\n    /* \"contracts/GameRoom.sol\":2606:2635  gameState = GameState.PENDING */\n  0x0f\n    /* \"contracts/GameRoom.sol\":173:12583  contract GameRoom is OptionalVRFConsumer {... */\n  sload\n  and\n    /* \"contracts/GameRoom.sol\":2606:2635  gameState = GameState.PENDING */\n  0x0f\n    /* \"contracts/GameRoom.sol\":173:12583  contract GameRoom is OptionalVRFConsumer {... */\n  sstore\n    /* \"contracts/GameRoom.sol\":2646:2668  roomOwner = _roomOwner */\n  0x0160\n  mstore\n    /* \"contracts/GameRoom.sol\":2679:2703  ecvrfRelay = _ecvrfRelay */\n  0x0180\n  mstore\n    /* \"contracts/GameRoom.sol\":173:12583  contract GameRoom is OptionalVRFConsumer {... */\n  mload(0x40)\n  dataSize(sub_0)\n  swap1\n  dup2\n  dataOffset(sub_0)\n  dup3\n  codecopy\n  mload(0x80)\n  dup2\n  assignImmutable(\"0x402da2643d2882cfb54c248cd4dee7c1bffd32cdb3f0ac805147e460c893de46\")\n  mload(0xa0)\n  dup2\n  assignImmutable(\"0xe172843da7b98c81b741b541207c2ddf4bf89aae68613553734f596915c8ec05\")\n  mload(0xc0)\n  dup2\n  assignImmutable(\"0x0ebc877309c1bf2495e19dc89ce6d0394efe88484e138f94a7362d165dc842e1\")\n  mload(0xe0)\n  dup2\n  assignImmutable(\"0xc188f18e75b82a2126438825d5b1474b240600ee888a81fcefa05cf1b4c30b2a\")\n  mload(0x0100)\n  dup2\n  assignImmutable(\"0x0241eee36f58119b9c1050d8921d8de7fb40f4e0b0206ad64824c0b39c768a66\")\n    /* \"contracts/GameRoom.sol\":2499:2515  gameId = _gameId */\n  0x0120\n    /* \"contracts/GameRoom.sol\":173:12583  contract GameRoom is OptionalVRFConsumer {... */\n  mload\n  dup2\n  assignImmutable(\"0x4dfb3440902001bce9b7ebf7be7d95fe9e2056bd5ce309ceb83b32f4e00e21ed\")\n  mload(0x0140)\n  dup2\n  assignImmutable(\"0xc47ece0ffae697632ce145a7086cbcf260f7fa60876ff2606761ea2b7581ee76\")\n    /* \"contracts/GameRoom.sol\":2646:2668  roomOwner = _roomOwner */\n  0x0160\n    /* \"contracts/GameRoom.sol\":173:12583  contract GameRoom is OptionalVRFConsumer {... */\n  mload\n  dup2\n  assignImmutable(\"0x6590fa52fa76f967656340b874bc9ca09733c2fddea9886210ebcbbceee04b35\")\n    /* \"contracts/GameRoom.sol\":2679:2703  ecvrfRelay = _ecvrfRelay */\n  0x0180\n    /* \"contracts/GameRoom.sol\":173:12583  contract GameRoom is OptionalVRFConsumer {... */\n  mload\n  dup2\n  assignImmutable(\"0xe921da22f871c25c63f06c1365385cbb26397f64f79055cdbab32187a9377d16\")\n  return\ntag_41:\n  0x01\n  swap1\n  0x20\n  dup4\n  mload\n  swap4\n  add\n  swap3\n  dup2\n  0x05\n  add\n  sstore\n  add\n  jump(tag_40)\ntag_38:\n  mload(0x40)\n  shl(0xe5, 0x461bcd)\n  dup2\n  mstore\n  0x20\n  0x04\n  dup3\n  add\n  mstore\n  0x0f\n  0x24\n  dup3\n  add\n  mstore\n  shl(0x88, 0x2174776f2072616e646f6d6e657373)\n  0x44\n  dup3\n  add\n  mstore\n  0x64\n  swap1\n  revert\n    /* \"contracts/GameRoom.sol\":2409:2467  _vrfCoordinator != address(0) && _ecvrfRelay != address(0) */\ntag_36:\n  pop\n  sub(shl(0xa0, 0x01), 0x01)\n    /* \"contracts/GameRoom.sol\":173:12583  contract GameRoom is OptionalVRFConsumer {... */\n  dup11\n  and\n    /* \"contracts/GameRoom.sol\":2442:2467  _ecvrfRelay != address(0) */\n  iszero\n  iszero\n    /* \"contracts/GameRoom.sol\":2409:2467  _vrfCoordinator != address(0) && _ecvrfRelay != address(0) */\n  jump(tag_37)\n    /* \"contracts/GameRoom.sol\":173:12583  contract GameRoom is OptionalVRFConsumer {... */\ntag_34:\n  mload(0x40)\n  shl(0xe5, 0x461bcd)\n  dup2\n  mstore\n  0x20\n  0x04\n  dup3\n  add\n  mstore\n  0x06\n  0x24\n  dup3\n  add\n  mstore\n  shl(0xd1, 0x10b7bbb732b9)\n  0x44\n  dup3\n  add\n  mstore\n  0x64\n  swap1\n  revert\ntag_32:\n  mload(0x40)\n  shl(0xe5, 0x461bcd)\n  dup2\n  mstore\n  0x20\n  0x04\n  dup3\n  add\n  mstore\n  0x06\n  0x24\n  dup3\n  add\n  mstore\n  shl(0xd2, 0x085d985d5b1d)\n  0x44\n  dup3\n  add\n  mstore\n  0x64\n  swap1\n  revert\ntag_29:\n  0x00\n  dup1\n  revert\ntag_22:\n  dup2\n  mload\n  dup2\n  mstore\n  0x20\n  swap2\n  dup3\n  add\n  swap2\n  add\n  jump(tag_21)\ntag_17:\n  mstore(0x00, shl(0xe0, 0x4e487b71))\n  mstore(0x04, 0x41)\n  revert(0x00, 0x24)\ntag_1:\n  mload\n  swap1\n  sub(shl(0xa0, 0x01), 0x01)\n  dup3\n  and\n  dup3\n  sub\n  tag_29\n  jumpi\n  jump\t// out\nstop\n\nsub_0: assembly {\n        /* \"contracts/GameRoom.sol\":173:12583  contract GameRoom is OptionalVRFConsumer {... */\n      mstore(0x40, 0x80)\n      jumpi(tag_107, iszero(lt(calldatasize, 0x04)))\n      0x00\n      dup1\n      revert\n    tag_107:\n      shr(0xe0, calldataload(0x00))\n      dup1\n      0x0496561d\n      eq\n      tag_109\n      jumpi\n      dup1\n      0x1fe543e3\n      eq\n      tag_111\n      jumpi\n      dup1\n      0x24e7964a\n      eq\n      tag_113\n      jumpi\n      dup1\n      0x31db047b\n      eq\n      tag_115\n      jumpi\n      dup1\n      0x3588fd80\n      eq\n      tag_117\n      jumpi\n      dup1\n      0x424aeded\n      eq\n      tag_119\n      jumpi\n      dup1\n      0x733d5038\n      eq\n      tag_121\n      jumpi\n      dup1\n      0x79502c55\n      eq\n      tag_123\n      jumpi\n      dup1\n      0x8b5b9ccc\n      eq\n      tag_125\n      jumpi\n      dup1\n      0x999dacb9\n      eq\n      tag_127\n      jumpi\n      dup1\n      0xad5c21d9\n      eq\n      tag_129\n      jumpi\n      dup1\n      0xb0652a88\n      eq\n      tag_131\n      jumpi\n      dup1\n      0xc2e52206\n      eq\n      tag_133\n      jumpi\n      dup1\n      0xd1f9c24d\n      eq\n      tag_135\n      jumpi\n      dup1\n      0xd4f77b1c\n      eq\n      tag_137\n      jumpi\n      dup1\n      0xd65ab5f2\n      eq\n      tag_139\n      jumpi\n      dup1\n      0xd7c81b55\n      eq\n      tag_141\n      jumpi\n      dup1\n      0xe6ec2982\n      eq\n      tag_143\n      jumpi\n      dup1\n      0xf71d96cb\n      eq\n      tag_145\n      jumpi\n      0xfb9bdab4\n      eq\n      tag_147\n      jumpi\n      0x00\n      dup1\n      revert\n    tag_147:\n      tag_40\n      jump\t// in\n    tag_145:\n      tag_39\n      jump\t// in\n    tag_143:\n      tag_35\n      jump\t// in\n    tag_141:\n      tag_34\n      jump\t// in\n    tag_139:\n      tag_33\n      jump\t// in\n    tag_137:\n      tag_32\n      jump\t// in\n    tag_135:\n      tag_31\n      jump\t// in\n    tag_133:\n      tag_29\n      jump\t// in\n    tag_131:\n      tag_28\n      jump\t// in\n    tag_129:\n      tag_27\n      jump\t// in\n    tag_127:\n      tag_25\n      jump\t// in\n    tag_125:\n      tag_24\n      jump\t// in\n    tag_123:\n      tag_21\n      jump\t// in\n    tag_121:\n      tag_20\n      jump\t// in\n    tag_119:\n      tag_19\n      jump\t// in\n    tag_117:\n      tag_15\n      jump\t// in\n    tag_115:\n      tag_14\n      jump\t// in\n    tag_113:\n      tag_13\n      jump\t// in\n    tag_111:\n      tag_11\n      jump\t// in\n    tag_109:\n      tag_6\n      jump\t// in\n    tag_1:\n      calldataload(0x04)\n      swap1\n      sub(shl(0xa0, 0x01), 0x01)\n      dup3\n      and\n      dup3\n      sub\n      tag_149\n      jumpi\n      jump\t// out\n    tag_149:\n      0x00\n      dup1\n      revert\n    tag_6:\n      jumpi(tag_149, callvalue)\n      jumpi(tag_149, slt(add(not(0x03), calldatasize), 0x20))\n      sub(shl(0xa0, 0x01), 0x01)\n      tag_155\n      tag_1\n      jump\t// in\n    tag_155:\n      and\n      0x00\n      mstore\n        /* \"contracts/GameRoom.sol\":1225:1275  mapping(address => uint256) public handDisplaySeed */\n      0x13\n        /* \"contracts/GameRoom.sol\":173:12583  contract GameRoom is OptionalVRFConsumer {... */\n      0x20\n      mstore\n      0x20\n      sload(keccak256(0x00, 0x40))\n      mload(0x40)\n      swap1\n      dup2\n      mstore\n      return\n    tag_8:\n      mstore(0x00, shl(0xe0, 0x4e487b71))\n      mstore(0x04, 0x41)\n      revert(0x00, 0x24)\n    tag_9:\n      swap1\n      0x1f\n      dup1\n      not\n      swap2\n      add\n      and\n      dup2\n      add\n      swap1\n      dup2\n      lt\n      0xffffffffffffffff\n      dup3\n      gt\n      or\n      tag_156\n      jumpi\n      0x40\n      mstore\n      jump\t// out\n    tag_156:\n      tag_8\n      jump\t// in\n    tag_10:\n      0xffffffffffffffff\n      dup2\n      gt\n      tag_156\n      jumpi\n      0x05\n      shl\n      0x20\n      add\n      swap1\n      jump\t// out\n    tag_11:\n      jumpi(tag_149, callvalue)\n      jumpi(tag_149, slt(add(not(0x03), calldatasize), 0x40))\n      calldataload(0x04)\n      calldataload(0x24)\n      0xffffffffffffffff\n      dup2\n      gt\n      tag_149\n      jumpi\n      calldatasize\n      0x23\n      dup3\n      add\n      slt\n      iszero\n      tag_149\n      jumpi\n      dup1\n      0x04\n      add\n      calldataload\n      swap2\n      tag_169\n      dup4\n      tag_10\n      jump\t// in\n    tag_169:\n      swap2\n      tag_170\n      mload(0x40)\n      swap4\n      dup5\n      tag_9\n      jump\t// in\n    tag_170:\n      dup4\n      dup4\n      mstore\n      0x24\n      0x20\n      dup5\n      add\n      swap5\n      0x05\n      shl\n      dup3\n      add\n      add\n      swap1\n      calldatasize\n      dup3\n      gt\n      tag_149\n      jumpi\n      0x24\n      add\n      swap4\n    tag_173:\n      dup2\n      dup6\n      lt\n      tag_174\n      jumpi\n      tag_176\n      dup5\n      dup5\n      tag_41\n      jump\t// in\n    tag_176:\n      stop\n    tag_174:\n      dup5\n      calldataload\n      dup2\n      mstore\n      0x20\n      swap5\n      dup6\n      add\n      swap5\n      add\n      jump(tag_173)\n    tag_12:\n      0x00\n      swap2\n      sub\n      slt\n      tag_149\n      jumpi\n      jump\t// out\n    tag_13:\n      jumpi(tag_149, callvalue)\n      jumpi(tag_149, slt(add(not(0x03), calldatasize), 0x00))\n      mload(0x40)\n        /* \"contracts/GameRoom.sol\":715:757  StakingVault public immutable stakingVault */\n      immutable(\"0xc47ece0ffae697632ce145a7086cbcf260f7fa60876ff2606761ea2b7581ee76\")\n      sub(shl(0xa0, 0x01), 0x01)\n        /* \"contracts/GameRoom.sol\":173:12583  contract GameRoom is OptionalVRFConsumer {... */\n      and\n      dup2\n      mstore\n      0x20\n      swap1\n      return\n    tag_14:\n      jumpi(tag_149, callvalue)\n      jumpi(tag_149, slt(add(not(0x03), calldatasize), 0x20))\n      calldataload(0x04)\n        /* \"contracts/GameRoom.sol\":5096:5106  ecvrfRelay */\n      immutable(\"0xe921da22f871c25c63f06c1365385cbb26397f64f79055cdbab32187a9377d16\")\n      sub(shl(0xa0, 0x01), 0x01)\n        /* \"contracts/GameRoom.sol\":173:12583  contract GameRoom is OptionalVRFConsumer {... */\n      and\n        /* \"contracts/GameRoom.sol\":5082:5092  msg.sender */\n      caller\n        /* \"contracts/GameRoom.sol\":5082:5106  msg.sender == ecvrfRelay */\n      sub\n        /* \"contracts/GameRoom.sol\":173:12583  contract GameRoom is OptionalVRFConsumer {... */\n      tag_188\n      jumpi\n        /* \"contracts/GameRoom.sol\":5344:5354  randomWord */\n      tag_190\n        /* \"contracts/GameRoom.sol\":173:12583  contract GameRoom is OptionalVRFConsumer {... */\n      swap1\n        /* \"contracts/GameRoom.sol\":5128:5179  require(gameState == GameState.DEALING, \"!dealing\") */\n      tag_191\n        /* \"contracts/GameRoom.sol\":5149:5166  GameState.DEALING */\n      0x01\n        /* \"contracts/GameRoom.sol\":173:12583  contract GameRoom is OptionalVRFConsumer {... */\n      tag_192\n        /* \"contracts/GameRoom.sol\":5136:5145  gameState */\n      0x0f\n        /* \"contracts/GameRoom.sol\":173:12583  contract GameRoom is OptionalVRFConsumer {... */\n      sload\n      0xff\n      and\n      swap1\n      jump\n    tag_192:\n      tag_193\n      dup2\n      tag_30\n      jump\t// in\n    tag_193:\n        /* \"contracts/GameRoom.sol\":5136:5166  gameState == GameState.DEALING */\n      eq\n        /* \"contracts/GameRoom.sol\":5128:5179  require(gameState == GameState.DEALING, \"!dealing\") */\n      tag_42\n      jump\t// in\n    tag_191:\n        /* \"contracts/GameRoom.sol\":5190:5223  require(randomWord != 0, \"!zero\") */\n      tag_194\n        /* \"contracts/GameRoom.sol\":5198:5213  randomWord != 0 */\n      dup2\n      iszero\n      iszero\n        /* \"contracts/GameRoom.sol\":5190:5223  require(randomWord != 0, \"!zero\") */\n      tag_43\n      jump\t// in\n    tag_194:\n        /* \"contracts/GameRoom.sol\":5234:5263  gameState = GameState.PLAYING */\n      tag_195\n        /* \"contracts/GameRoom.sol\":5246:5263  GameState.PLAYING */\n      0x02\n        /* \"contracts/GameRoom.sol\":173:12583  contract GameRoom is OptionalVRFConsumer {... */\n      not(0xff)\n        /* \"contracts/GameRoom.sol\":5136:5145  gameState */\n      0x0f\n        /* \"contracts/GameRoom.sol\":173:12583  contract GameRoom is OptionalVRFConsumer {... */\n      sload\n      and\n      or\n        /* \"contracts/GameRoom.sol\":5136:5145  gameState */\n      0x0f\n        /* \"contracts/GameRoom.sol\":173:12583  contract GameRoom is OptionalVRFConsumer {... */\n      sstore\n      jump\n        /* \"contracts/GameRoom.sol\":5234:5263  gameState = GameState.PLAYING */\n    tag_195:\n        /* \"contracts/GameRoom.sol\":5301:5311  randomWord */\n      tag_196\n      dup2\n      tag_83\n      jump\t// in\n    tag_196:\n        /* \"contracts/GameRoom.sol\":5344:5354  randomWord */\n      tag_84\n      jump\t// in\n    tag_190:\n        /* \"contracts/GameRoom.sol\":5383:5389  gameId */\n      immutable(\"0x4dfb3440902001bce9b7ebf7be7d95fe9e2056bd5ce309ceb83b32f4e00e21ed\")\n        /* \"contracts/GameRoom.sol\":5371:5390  GameStarted(gameId) */\n      0x50ad08f58a27f2851d7e3a1b3a6a46b290f2ce677e99642d30ff639721e77790\n      0x00\n      dup1\n      log2\n        /* \"contracts/GameRoom.sol\":173:12583  contract GameRoom is OptionalVRFConsumer {... */\n      stop\n    tag_188:\n      mload(0x40)\n      shl(0xe5, 0x461bcd)\n      dup2\n      mstore\n      0x20\n      0x04\n      dup3\n      add\n      mstore\n      0x06\n      0x24\n      dup3\n      add\n      mstore\n      shl(0xd0, 0x2172656c6179)\n      0x44\n      dup3\n      add\n      mstore\n      0x64\n      swap1\n      revert\n    tag_15:\n      jumpi(tag_149, callvalue)\n      jumpi(tag_149, slt(add(not(0x03), calldatasize), 0x00))\n      0x20\n      tag_201\n      tag_51\n      jump\t// in\n    tag_201:\n      mload(0x40)\n      sub(shl(0xa0, 0x01), 0x01)\n      swap1\n      swap2\n      and\n      dup2\n      mstore\n      return\n    tag_19:\n      jumpi(tag_149, callvalue)\n      jumpi(tag_149, slt(add(not(0x03), calldatasize), 0x20))\n      sub(shl(0xa0, 0x01), 0x01)\n      tag_206\n      tag_1\n      jump\t// in\n    tag_206:\n      and\n      0x00\n      mstore\n        /* \"contracts/GameRoom.sol\":1008:1052  mapping(address => Player) public playerData */\n      0x11\n        /* \"contracts/GameRoom.sol\":173:12583  contract GameRoom is OptionalVRFConsumer {... */\n      0x20\n      mstore\n      keccak256(0x00, 0x40)\n      0x01\n      dup1\n      0xa0\n      shl\n      sub\n      dup2\n      sload\n      and\n        /* \"contracts/GameRoom.sol\":1008:1052  mapping(address => Player) public playerData */\n      0x01\n      dup3\n      add\n        /* \"contracts/GameRoom.sol\":173:12583  contract GameRoom is OptionalVRFConsumer {... */\n      sload\n        /* \"contracts/GameRoom.sol\":1008:1052  mapping(address => Player) public playerData */\n      swap1\n      0x0d\n      0x02\n      dup5\n      add\n        /* \"contracts/GameRoom.sol\":173:12583  contract GameRoom is OptionalVRFConsumer {... */\n      sload\n        /* \"contracts/GameRoom.sol\":1008:1052  mapping(address => Player) public playerData */\n      swap4\n      add\n        /* \"contracts/GameRoom.sol\":173:12583  contract GameRoom is OptionalVRFConsumer {... */\n      sload\n      0xff\n      mload(0x40)\n      swap5\n      dup6\n      swap5\n      0xa0\n      dup7\n      add\n      swap5\n      0x01\n      dup1\n      0xa0\n      shl\n      sub\n      and\n      dup7\n      mstore\n      0x20\n      dup7\n      add\n      mstore\n      dup2\n      dup2\n      and\n      iszero\n      iszero\n      0x40\n      dup7\n      add\n      mstore\n      0x08\n      shr\n      and\n      iszero\n      iszero\n      0x60\n      dup5\n      add\n      mstore\n      0x80\n      dup4\n      add\n      mstore\n      sub\n      swap1\n      return\n    tag_20:\n      jumpi(tag_149, callvalue)\n      jumpi(tag_149, slt(add(not(0x03), calldatasize), 0x00))\n      mload(0x40)\n        /* \"contracts/GameRoom.sol\":933:968  address public immutable ecvrfRelay */\n      immutable(\"0xe921da22f871c25c63f06c1365385cbb26397f64f79055cdbab32187a9377d16\")\n      sub(shl(0xa0, 0x01), 0x01)\n        /* \"contracts/GameRoom.sol\":173:12583  contract GameRoom is OptionalVRFConsumer {... */\n      and\n      dup2\n      mstore\n      0x20\n      swap1\n      return\n    tag_21:\n      jumpi(tag_149, callvalue)\n      jumpi(tag_149, slt(add(not(0x03), calldatasize), 0x00))\n      0xa0\n      sload(0x00)\n        /* \"contracts/GameRoom.sol\":764:788  GameConfig public config */\n      0x01\n        /* \"contracts/GameRoom.sol\":173:12583  contract GameRoom is OptionalVRFConsumer {... */\n      sload\n        /* \"contracts/GameRoom.sol\":764:788  GameConfig public config */\n      0x02\n        /* \"contracts/GameRoom.sol\":173:12583  contract GameRoom is OptionalVRFConsumer {... */\n      sload\n        /* \"contracts/GameRoom.sol\":764:788  GameConfig public config */\n      0x03\n        /* \"contracts/GameRoom.sol\":173:12583  contract GameRoom is OptionalVRFConsumer {... */\n      sload\n      swap1\n      sload(0x04)\n      swap3\n      mload(0x40)\n      swap5\n      dup6\n      mstore\n      0x20\n      dup6\n      add\n      mstore\n      0x40\n      dup5\n      add\n      mstore\n      0x60\n      dup4\n      add\n      mstore\n      0x80\n      dup3\n      add\n      mstore\n      return\n    tag_22:\n      swap1\n      0x20\n      dup1\n      dup4\n      mload\n      swap3\n      dup4\n      dup2\n      mstore\n      add\n      swap3\n      add\n      swap1\n      0x00\n    tag_215:\n      dup2\n      dup2\n      lt\n      tag_216\n      jumpi\n      pop\n      pop\n      pop\n      swap1\n      jump\t// out\n    tag_216:\n      dup3\n      mload\n      sub(shl(0xa0, 0x01), 0x01)\n      and\n      dup5\n      mstore\n      0x20\n      swap4\n      dup5\n      add\n      swap4\n      swap1\n      swap3\n      add\n      swap2\n      0x01\n      add\n      jump(tag_215)\n    tag_23:\n      swap1\n      0x20\n      tag_218\n      swap3\n      dup2\n      dup2\n      mstore\n      add\n      swap1\n      tag_22\n      jump\t// in\n    tag_218:\n      swap1\n      jump\t// out\n    tag_24:\n      jumpi(tag_149, callvalue)\n      jumpi(tag_149, slt(add(not(0x03), calldatasize), 0x00))\n      mload(0x40)\n      dup1\n      0x20\n        /* \"contracts/GameRoom.sol\":12411:12418  players */\n      0x10\n        /* \"contracts/GameRoom.sol\":173:12583  contract GameRoom is OptionalVRFConsumer {... */\n      sload\n      swap2\n      dup3\n      dup2\n      mstore\n      add\n      swap1\n        /* \"contracts/GameRoom.sol\":12411:12418  players */\n      0x10\n        /* \"contracts/GameRoom.sol\":173:12583  contract GameRoom is OptionalVRFConsumer {... */\n      0x00\n      mstore\n      0x00\n      dup1\n      mload\n      0x20\n      data_cf80bc4621d0751d813b5c62e01b0e17c015a240bacef8447cd784f3f77be164\n      dup4\n      codecopy\n      dup2\n      mload\n      swap2\n      mstore\n      swap1\n      0x00\n    tag_223:\n      dup2\n      dup2\n      lt\n      tag_224\n      jumpi\n      tag_226\n      dup6\n      tag_227\n      dup2\n      dup8\n      sub\n      dup3\n      tag_9\n      jump\t// in\n    tag_227:\n      mload(0x40)\n      swap2\n      dup3\n      swap2\n      dup3\n      tag_23\n      jump\t// in\n    tag_226:\n      sub\n      swap1\n      return\n    tag_224:\n      dup3\n      sload\n      sub(shl(0xa0, 0x01), 0x01)\n      and\n      dup5\n      mstore\n      0x20\n      swap1\n      swap4\n      add\n      swap3\n      0x01\n      swap3\n      dup4\n      add\n      swap3\n      add\n      jump(tag_223)\n    tag_25:\n      jumpi(tag_149, callvalue)\n      jumpi(tag_149, slt(add(not(0x03), calldatasize), 0x00))\n      mload(0x40)\n        /* \"contracts/GameRoom.sol\":892:926  address public immutable roomOwner */\n      immutable(\"0x6590fa52fa76f967656340b874bc9ca09733c2fddea9886210ebcbbceee04b35\")\n      sub(shl(0xa0, 0x01), 0x01)\n        /* \"contracts/GameRoom.sol\":173:12583  contract GameRoom is OptionalVRFConsumer {... */\n      and\n      dup2\n      mstore\n      0x20\n      swap1\n      return\n    tag_26:\n      0x0160\n      dup2\n      add\n      swap4\n      swap3\n      swap2\n      0x00\n      dup3\n    tag_232:\n      0x0a\n      dup3\n      lt\n      tag_233\n      jumpi\n      pop\n      pop\n      pop\n      0x0140\n      add\n      mstore\n      jump\t// out\n    tag_233:\n      0x20\n      dup1\n      0x01\n      swap3\n      dup6\n      mload\n      dup2\n      mstore\n      add\n      swap4\n      add\n      swap2\n      add\n      swap1\n      swap2\n      jump(tag_232)\n    tag_27:\n      jumpi(tag_149, callvalue)\n      jumpi(tag_149, slt(add(not(0x03), calldatasize), 0x20))\n      tag_239\n      tag_1\n      jump\t// in\n    tag_239:\n      0x0140\n      swap1\n      dup2\n      mload(0x40)\n      tag_240\n      dup3\n      dup3\n      tag_9\n      jump\t// in\n    tag_240:\n      calldatasize\n      swap1\n      calldatacopy\n      sub(shl(0xa0, 0x01), 0x01)\n      and\n      0x00\n      swap1\n      dup2\n      mstore\n        /* \"contracts/GameRoom.sol\":11702:11712  playerData */\n      0x11\n        /* \"contracts/GameRoom.sol\":173:12583  contract GameRoom is OptionalVRFConsumer {... */\n      0x20\n      mstore\n      0x40\n      dup1\n      dup3\n      keccak256\n        /* \"contracts/GameRoom.sol\":11727:11751  playerData[p].jokerCount */\n      0x0d\n      dup2\n      add\n        /* \"contracts/GameRoom.sol\":173:12583  contract GameRoom is OptionalVRFConsumer {... */\n      sload\n      swap2\n      mload\n      swap2\n      swap4\n      swap2\n      swap3\n        /* \"contracts/GameRoom.sol\":11702:11725  playerData[p].handCards */\n      0x03\n      swap1\n      swap2\n      add\n      swap1\n        /* \"contracts/GameRoom.sol\":173:12583  contract GameRoom is OptionalVRFConsumer {... */\n      dup4\n    tag_241:\n      0x0a\n      dup3\n      lt\n      tag_242\n      jumpi\n      pop\n      pop\n      pop\n      tag_244\n      swap1\n      dup3\n      tag_9\n      jump\t// in\n    tag_244:\n      tag_226\n      mload(0x40)\n      swap3\n      dup4\n      swap3\n      dup4\n      tag_26\n      jump\t// in\n    tag_242:\n      0x01\n      0x20\n      dup2\n      swap3\n      dup6\n      sload\n      dup2\n      mstore\n      add\n      swap4\n      add\n      swap2\n      add\n      swap1\n      swap2\n      jump(tag_241)\n    tag_28:\n      jumpi(tag_149, callvalue)\n      jumpi(tag_149, slt(add(not(0x03), calldatasize), 0x40))\n      tag_250\n      tag_1\n      jump\t// in\n    tag_250:\n      calldataload(0x24)\n      swap1\n      0xff\n      dup3\n      and\n      swap2\n      dup3\n      dup2\n      sub\n      tag_149\n      jumpi\n        /* \"contracts/GameRoom.sol\":8957:9008  require(gameState == GameState.PLAYING, \"!playing\") */\n      tag_253\n        /* \"contracts/GameRoom.sol\":8978:8995  GameState.PLAYING */\n      0x02\n        /* \"contracts/GameRoom.sol\":173:12583  contract GameRoom is OptionalVRFConsumer {... */\n      tag_254\n        /* \"contracts/GameRoom.sol\":8965:8974  gameState */\n      0x0f\n        /* \"contracts/GameRoom.sol\":173:12583  contract GameRoom is OptionalVRFConsumer {... */\n      sload\n      0xff\n      and\n      swap1\n      jump\n    tag_254:\n      tag_255\n      dup2\n      tag_30\n      jump\t// in\n    tag_255:\n        /* \"contracts/GameRoom.sol\":8965:8995  gameState == GameState.PLAYING */\n      eq\n        /* \"contracts/GameRoom.sol\":8957:9008  require(gameState == GameState.PLAYING, \"!playing\") */\n      tag_52\n      jump\t// in\n    tag_253:\n        /* \"contracts/GameRoom.sol\":9019:9078  require(players[currentPlayerIndex] == msg.sender, \"!turn\") */\n      tag_256\n        /* \"contracts/GameRoom.sol\":173:12583  contract GameRoom is OptionalVRFConsumer {... */\n      tag_257\n        /* \"contracts/GameRoom.sol\":9027:9054  players[currentPlayerIndex] */\n      tag_258\n        /* \"contracts/GameRoom.sol\":9035:9053  currentPlayerIndex */\n      0x12\n        /* \"contracts/GameRoom.sol\":173:12583  contract GameRoom is OptionalVRFConsumer {... */\n      sload\n        /* \"contracts/GameRoom.sol\":9027:9054  players[currentPlayerIndex] */\n      tag_37\n      jump\t// in\n    tag_258:\n        /* \"contracts/GameRoom.sol\":173:12583  contract GameRoom is OptionalVRFConsumer {... */\n      swap1\n      sload\n      0x03\n      swap2\n      swap1\n      swap2\n      shl\n      shr\n      sub(shl(0xa0, 0x01), 0x01)\n      and\n      swap1\n      jump\n    tag_257:\n      sub(shl(0xa0, 0x01), 0x01)\n      and\n        /* \"contracts/GameRoom.sol\":9058:9068  msg.sender */\n      caller\n        /* \"contracts/GameRoom.sol\":9027:9068  players[currentPlayerIndex] == msg.sender */\n      eq\n        /* \"contracts/GameRoom.sol\":9019:9078  require(players[currentPlayerIndex] == msg.sender, \"!turn\") */\n      tag_53\n      jump\t// in\n    tag_256:\n        /* \"contracts/GameRoom.sol\":9058:9068  msg.sender */\n      caller\n        /* \"contracts/GameRoom.sol\":173:12583  contract GameRoom is OptionalVRFConsumer {... */\n      0x00\n      swap1\n      dup2\n      mstore\n        /* \"contracts/GameRoom.sol\":9098:9108  playerData */\n      0x11\n        /* \"contracts/GameRoom.sol\":173:12583  contract GameRoom is OptionalVRFConsumer {... */\n      0x20\n      mstore\n      0x40\n      swap1\n      keccak256\n        /* \"contracts/GameRoom.sol\":9089:9134  require(!playerData[msg.sender].isOut, \"out\") */\n      tag_259\n      swap1\n        /* \"contracts/GameRoom.sol\":9097:9126  !playerData[msg.sender].isOut */\n      tag_260\n      swap1\n        /* \"contracts/GameRoom.sol\":9098:9126  playerData[msg.sender].isOut */\n      tag_261\n      swap1\n        /* \"contracts/GameRoom.sol\":8978:8995  GameState.PLAYING */\n      0x02\n        /* \"contracts/GameRoom.sol\":9098:9126  playerData[msg.sender].isOut */\n      add\n        /* \"contracts/GameRoom.sol\":173:12583  contract GameRoom is OptionalVRFConsumer {... */\n      sload\n      0x08\n      shr\n      0xff\n      and\n      swap1\n      jump\n        /* \"contracts/GameRoom.sol\":9098:9126  playerData[msg.sender].isOut */\n    tag_261:\n        /* \"contracts/GameRoom.sol\":9097:9126  !playerData[msg.sender].isOut */\n      iszero\n      swap1\n        /* \"contracts/GameRoom.sol\":173:12583  contract GameRoom is OptionalVRFConsumer {... */\n      jump\n        /* \"contracts/GameRoom.sol\":9097:9126  !playerData[msg.sender].isOut */\n    tag_260:\n        /* \"contracts/GameRoom.sol\":9089:9134  require(!playerData[msg.sender].isOut, \"out\") */\n      tag_54\n      jump\t// in\n    tag_259:\n      sub(shl(0xa0, 0x01), 0x01)\n        /* \"contracts/GameRoom.sol\":173:12583  contract GameRoom is OptionalVRFConsumer {... */\n      dup3\n      and\n      swap3\n        /* \"contracts/GameRoom.sol\":9145:9185  require(target != address(0), \"!target\") */\n      tag_263\n        /* \"contracts/GameRoom.sol\":9153:9173  target != address(0) */\n      dup5\n      iszero\n      iszero\n        /* \"contracts/GameRoom.sol\":9145:9185  require(target != address(0), \"!target\") */\n      tag_55\n      jump\t// in\n    tag_263:\n        /* \"contracts/GameRoom.sol\":9202:9217  cardNumber == 0 */\n      dup1\n      tag_264\n      jumpi\n        /* \"contracts/GameRoom.sol\":9242:9260  playerData[target] */\n      pop\n      pop\n        /* \"contracts/GameRoom.sol\":9303:9321  playerData[target] */\n      tag_266\n        /* \"contracts/GameRoom.sol\":9242:9260  playerData[target] */\n      dup2\n        /* \"contracts/GameRoom.sol\":9234:9288  require(playerData[target].jokerCount > 0, \"no joker\") */\n      tag_267\n        /* \"contracts/GameRoom.sol\":9242:9271  playerData[target].jokerCount */\n      0x0d\n        /* \"contracts/GameRoom.sol\":9242:9260  playerData[target] */\n      tag_268\n      dup2\n      swap6\n        /* \"contracts/GameRoom.sol\":173:12583  contract GameRoom is OptionalVRFConsumer {... */\n      0x01\n      dup1\n      0xa0\n      shl\n      sub\n      and\n      0x00\n      mstore\n        /* \"contracts/GameRoom.sol\":9098:9108  playerData */\n      0x11\n        /* \"contracts/GameRoom.sol\":173:12583  contract GameRoom is OptionalVRFConsumer {... */\n      0x20\n      mstore\n      keccak256(0x00, 0x40)\n      swap1\n      jump\n        /* \"contracts/GameRoom.sol\":9242:9260  playerData[target] */\n    tag_268:\n        /* \"contracts/GameRoom.sol\":9242:9271  playerData[target].jokerCount */\n      add\n        /* \"contracts/GameRoom.sol\":173:12583  contract GameRoom is OptionalVRFConsumer {... */\n      sload\n        /* \"contracts/GameRoom.sol\":9242:9275  playerData[target].jokerCount > 0 */\n      iszero\n      iszero\n        /* \"contracts/GameRoom.sol\":9234:9288  require(playerData[target].jokerCount > 0, \"no joker\") */\n      tag_65\n      jump\t// in\n    tag_267:\n      sub(shl(0xa0, 0x01), 0x01)\n        /* \"contracts/GameRoom.sol\":173:12583  contract GameRoom is OptionalVRFConsumer {... */\n      and\n      0x00\n      swap1\n      dup2\n      mstore\n        /* \"contracts/GameRoom.sol\":9098:9108  playerData */\n      0x11\n        /* \"contracts/GameRoom.sol\":173:12583  contract GameRoom is OptionalVRFConsumer {... */\n      0x20\n      mstore\n      0x40\n      swap1\n      keccak256\n      swap1\n      jump\n        /* \"contracts/GameRoom.sol\":9303:9321  playerData[target] */\n    tag_266:\n        /* \"contracts/GameRoom.sol\":9303:9332  playerData[target].jokerCount */\n      add\n        /* \"contracts/GameRoom.sol\":9303:9334  playerData[target].jokerCount-- */\n      tag_269\n        /* \"contracts/GameRoom.sol\":173:12583  contract GameRoom is OptionalVRFConsumer {... */\n      dup2\n      sload\n        /* \"contracts/GameRoom.sol\":9303:9334  playerData[target].jokerCount-- */\n      tag_61\n      jump\t// in\n    tag_269:\n        /* \"contracts/GameRoom.sol\":173:12583  contract GameRoom is OptionalVRFConsumer {... */\n      swap1\n      sstore\n        /* \"contracts/GameRoom.sol\":9058:9068  msg.sender */\n      caller\n        /* \"contracts/GameRoom.sol\":173:12583  contract GameRoom is OptionalVRFConsumer {... */\n      0x00\n      swap1\n      dup2\n      mstore\n        /* \"contracts/GameRoom.sol\":9098:9108  playerData */\n      0x11\n        /* \"contracts/GameRoom.sol\":173:12583  contract GameRoom is OptionalVRFConsumer {... */\n      0x20\n      mstore\n      0x40\n      swap1\n      keccak256\n        /* \"contracts/GameRoom.sol\":9242:9271  playerData[target].jokerCount */\n      0x0d\n        /* \"contracts/GameRoom.sol\":9349:9382  playerData[msg.sender].jokerCount */\n      add\n        /* \"contracts/GameRoom.sol\":9349:9384  playerData[msg.sender].jokerCount++ */\n      tag_271\n        /* \"contracts/GameRoom.sol\":173:12583  contract GameRoom is OptionalVRFConsumer {... */\n      dup2\n      sload\n        /* \"contracts/GameRoom.sol\":9349:9384  playerData[msg.sender].jokerCount++ */\n      tag_63\n      jump\t// in\n    tag_271:\n        /* \"contracts/GameRoom.sol\":173:12583  contract GameRoom is OptionalVRFConsumer {... */\n      swap1\n      sstore\n      mload(0x40)\n        /* \"contracts/GameRoom.sol\":9171:9172  0 */\n      0x00\n        /* \"contracts/GameRoom.sol\":173:12583  contract GameRoom is OptionalVRFConsumer {... */\n      dup2\n      mstore\n        /* \"contracts/GameRoom.sol\":9058:9068  msg.sender */\n      caller\n      swap2\n      swap1\n        /* \"contracts/GameRoom.sol\":9404:9436  CardTaken(target, msg.sender, 0) */\n      0x345ab5394e10f7b605071092c87ea512b2b9f3a616f8c85b996c2aa8a418c69c\n      swap1\n        /* \"contracts/GameRoom.sol\":173:12583  contract GameRoom is OptionalVRFConsumer {... */\n      0x20\n      swap1\n        /* \"contracts/GameRoom.sol\":9404:9436  CardTaken(target, msg.sender, 0) */\n      log3\n        /* \"contracts/GameRoom.sol\":9198:9864  if (cardNumber == 0) {... */\n    tag_273:\n      tag_274\n      tag_86\n      jump\t// in\n    tag_274:\n        /* \"contracts/GameRoom.sol\":9902:9928  _allPlayersNoNumberCards() */\n      tag_275\n      tag_87\n      jump\t// in\n    tag_275:\n        /* \"contracts/GameRoom.sol\":9898:9940  if (_allPlayersNoNumberCards()) _endGame() */\n      tag_276\n      jumpi\n        /* \"contracts/GameRoom.sol\":173:12583  contract GameRoom is OptionalVRFConsumer {... */\n      stop\n        /* \"contracts/GameRoom.sol\":9898:9940  if (_allPlayersNoNumberCards()) _endGame() */\n    tag_276:\n      tag_176\n      tag_96\n      jump\t// in\n        /* \"contracts/GameRoom.sol\":9198:9864  if (cardNumber == 0) {... */\n    tag_264:\n        /* \"contracts/GameRoom.sol\":9656:9691  playerData[target].handCards[idx]-- */\n      tag_279\n        /* \"contracts/GameRoom.sol\":9656:9689  playerData[target].handCards[idx] */\n      tag_280\n        /* \"contracts/GameRoom.sol\":9787:9790  idx */\n      tag_281\n        /* \"contracts/GameRoom.sol\":9477:9492  cardNumber >= 1 */\n      swap4\n      swap6\n      swap5\n        /* \"contracts/GameRoom.sol\":9469:9526  require(cardNumber >= 1 && cardNumber <= 10, \"card 1-10\") */\n      tag_282\n        /* \"contracts/GameRoom.sol\":9477:9492  cardNumber >= 1 */\n      dup5\n        /* \"contracts/GameRoom.sol\":9491:9492  1 */\n      0x01\n        /* \"contracts/GameRoom.sol\":9656:9674  playerData[target] */\n      tag_290\n        /* \"contracts/GameRoom.sol\":9477:9492  cardNumber >= 1 */\n      swap7\n      lt\n      iszero\n        /* \"contracts/GameRoom.sol\":9477:9512  cardNumber >= 1 && cardNumber <= 10 */\n      swap1\n      dup2\n      tag_284\n      jumpi\n        /* \"contracts/GameRoom.sol\":9198:9864  if (cardNumber == 0) {... */\n    tag_285:\n        /* \"contracts/GameRoom.sol\":9469:9526  require(cardNumber >= 1 && cardNumber <= 10, \"card 1-10\") */\n      pop\n      tag_56\n      jump\t// in\n    tag_282:\n        /* \"contracts/GameRoom.sol\":9590:9618  playerData[target].handCards */\n      0x03\n        /* \"contracts/GameRoom.sol\":9553:9567  cardNumber - 1 */\n      tag_286\n      dup9\n      tag_57\n      jump\t// in\n    tag_286:\n        /* \"contracts/GameRoom.sol\":9590:9608  playerData[target] */\n      swap5\n      dup3\n        /* \"contracts/GameRoom.sol\":9582:9639  require(playerData[target].handCards[idx] > 0, \"no card\") */\n      tag_267\n        /* \"contracts/GameRoom.sol\":173:12583  contract GameRoom is OptionalVRFConsumer {... */\n      tag_288\n        /* \"contracts/GameRoom.sol\":9590:9623  playerData[target].handCards[idx] */\n      tag_289\n        /* \"contracts/GameRoom.sol\":9590:9608  playerData[target] */\n      dup10\n      dup7\n      tag_290\n      dup3\n      swap10\n        /* \"contracts/GameRoom.sol\":173:12583  contract GameRoom is OptionalVRFConsumer {... */\n      0x01\n      dup1\n      0xa0\n      shl\n      sub\n      and\n      0x00\n      mstore\n        /* \"contracts/GameRoom.sol\":9098:9108  playerData */\n      0x11\n        /* \"contracts/GameRoom.sol\":173:12583  contract GameRoom is OptionalVRFConsumer {... */\n      0x20\n      mstore\n      keccak256(0x00, 0x40)\n      swap1\n      jump\n        /* \"contracts/GameRoom.sol\":9590:9608  playerData[target] */\n    tag_290:\n        /* \"contracts/GameRoom.sol\":9590:9618  playerData[target].handCards */\n      add\n        /* \"contracts/GameRoom.sol\":9590:9623  playerData[target].handCards[idx] */\n      tag_59\n      jump\t// in\n    tag_289:\n        /* \"contracts/GameRoom.sol\":173:12583  contract GameRoom is OptionalVRFConsumer {... */\n      swap1\n      sload\n      swap1\n      0x03\n      shl\n      shr\n      swap1\n      jump\n    tag_288:\n        /* \"contracts/GameRoom.sol\":9590:9627  playerData[target].handCards[idx] > 0 */\n      iszero\n      iszero\n        /* \"contracts/GameRoom.sol\":9582:9639  require(playerData[target].handCards[idx] > 0, \"no card\") */\n      tag_60\n      jump\t// in\n        /* \"contracts/GameRoom.sol\":9656:9689  playerData[target].handCards[idx] */\n    tag_280:\n        /* \"contracts/GameRoom.sol\":9656:9691  playerData[target].handCards[idx]-- */\n      tag_291\n        /* \"contracts/GameRoom.sol\":173:12583  contract GameRoom is OptionalVRFConsumer {... */\n      tag_292\n      dup3\n      dup5\n      sload\n      swap1\n      0x03\n      shl\n      shr\n      swap1\n      jump\n    tag_292:\n        /* \"contracts/GameRoom.sol\":9656:9691  playerData[target].handCards[idx]-- */\n      tag_61\n      jump\t// in\n    tag_291:\n        /* \"contracts/GameRoom.sol\":173:12583  contract GameRoom is OptionalVRFConsumer {... */\n      dup3\n      sload\n      not(0x00)\n      0x03\n      swap4\n      swap1\n      swap4\n      shl\n      swap3\n      dup4\n      shl\n      not\n      and\n      swap2\n      shl\n      or\n      swap1\n      sstore\n      jump\n        /* \"contracts/GameRoom.sol\":9656:9691  playerData[target].handCards[idx]-- */\n    tag_279:\n        /* \"contracts/GameRoom.sol\":9058:9068  msg.sender */\n      caller\n        /* \"contracts/GameRoom.sol\":173:12583  contract GameRoom is OptionalVRFConsumer {... */\n      0x00\n      swap1\n      dup2\n      mstore\n        /* \"contracts/GameRoom.sol\":9098:9108  playerData */\n      0x11\n        /* \"contracts/GameRoom.sol\":173:12583  contract GameRoom is OptionalVRFConsumer {... */\n      0x20\n      mstore\n      0x40\n      swap1\n      keccak256\n        /* \"contracts/GameRoom.sol\":9706:9745  playerData[msg.sender].handCards[idx]++ */\n      tag_293\n      swap1\n        /* \"contracts/GameRoom.sol\":9706:9743  playerData[msg.sender].handCards[idx] */\n      tag_294\n      swap1\n        /* \"contracts/GameRoom.sol\":9058:9068  msg.sender */\n      dup4\n      swap1\n        /* \"contracts/GameRoom.sol\":9590:9618  playerData[target].handCards */\n      0x03\n      swap1\n        /* \"contracts/GameRoom.sol\":9706:9728  playerData[msg.sender] */\n      tag_290\n        /* \"contracts/GameRoom.sol\":173:12583  contract GameRoom is OptionalVRFConsumer {... */\n      jump\n        /* \"contracts/GameRoom.sol\":9706:9743  playerData[msg.sender].handCards[idx] */\n    tag_294:\n        /* \"contracts/GameRoom.sol\":9706:9745  playerData[msg.sender].handCards[idx]++ */\n      tag_291\n        /* \"contracts/GameRoom.sol\":173:12583  contract GameRoom is OptionalVRFConsumer {... */\n      tag_297\n      dup3\n      dup5\n      sload\n      swap1\n      0x03\n      shl\n      shr\n      swap1\n      jump\n    tag_297:\n        /* \"contracts/GameRoom.sol\":9706:9745  playerData[msg.sender].handCards[idx]++ */\n      tag_63\n      jump\t// in\n    tag_293:\n        /* \"contracts/GameRoom.sol\":9058:9068  msg.sender */\n      caller\n        /* \"contracts/GameRoom.sol\":9787:9790  idx */\n      tag_85\n      jump\t// in\n    tag_281:\n        /* \"contracts/GameRoom.sol\":173:12583  contract GameRoom is OptionalVRFConsumer {... */\n      mload(0x40)\n      0xff\n      swap3\n      swap1\n      swap3\n      and\n      dup3\n      mstore\n        /* \"contracts/GameRoom.sol\":9058:9068  msg.sender */\n      caller\n      swap2\n        /* \"contracts/GameRoom.sol\":9811:9852  CardTaken(target, msg.sender, cardNumber) */\n      0x345ab5394e10f7b605071092c87ea512b2b9f3a616f8c85b996c2aa8a418c69c\n      swap1\n        /* \"contracts/GameRoom.sol\":173:12583  contract GameRoom is OptionalVRFConsumer {... */\n      0x20\n      swap1\n        /* \"contracts/GameRoom.sol\":9811:9852  CardTaken(target, msg.sender, cardNumber) */\n      log3\n        /* \"contracts/GameRoom.sol\":9198:9864  if (cardNumber == 0) {... */\n      jump(tag_273)\n        /* \"contracts/GameRoom.sol\":9477:9512  cardNumber >= 1 && cardNumber <= 10 */\n    tag_284:\n        /* \"contracts/GameRoom.sol\":9510:9512  10 */\n      0x0a\n        /* \"contracts/GameRoom.sol\":9496:9512  cardNumber <= 10 */\n      swap2\n      pop\n      gt\n      iszero\n        /* \"contracts/GameRoom.sol\":9477:9512  cardNumber >= 1 && cardNumber <= 10 */\n      0x00\n      jump(tag_285)\n        /* \"contracts/GameRoom.sol\":173:12583  contract GameRoom is OptionalVRFConsumer {... */\n    tag_29:\n      jumpi(tag_149, callvalue)\n      jumpi(tag_149, slt(add(not(0x03), calldatasize), 0x00))\n      0x20\n        /* \"contracts/GameRoom.sol\":12558:12565  players */\n      0x10\n        /* \"contracts/GameRoom.sol\":173:12583  contract GameRoom is OptionalVRFConsumer {... */\n      sload\n      mload(0x40)\n      swap1\n      dup2\n      mstore\n      return\n    tag_30:\n      0x04\n      gt\n      iszero\n      tag_303\n      jumpi\n      jump\t// out\n    tag_303:\n      mstore(0x00, shl(0xe0, 0x4e487b71))\n      mstore(0x04, 0x21)\n      revert(0x00, 0x24)\n    tag_31:\n      jumpi(tag_149, callvalue)\n      jumpi(tag_149, slt(add(not(0x03), calldatasize), 0x00))\n      0xff\n        /* \"contracts/GameRoom.sol\":795:821  GameState public gameState */\n      0x0f\n        /* \"contracts/GameRoom.sol\":173:12583  contract GameRoom is OptionalVRFConsumer {... */\n      sload\n      and\n      mload(0x40)\n      0x04\n      dup3\n      lt\n      iszero\n      tag_303\n      jumpi\n      0x20\n      swap2\n      dup2\n      mstore\n      return\n    tag_32:\n      jumpi(tag_149, slt(add(not(0x03), calldatasize), 0x00))\n        /* \"contracts/GameRoom.sol\":2767:2818  require(gameState == GameState.PENDING, \"!pending\") */\n      tag_313\n        /* \"contracts/GameRoom.sol\":173:12583  contract GameRoom is OptionalVRFConsumer {... */\n      tag_314\n        /* \"contracts/GameRoom.sol\":2775:2784  gameState */\n      0x0f\n        /* \"contracts/GameRoom.sol\":173:12583  contract GameRoom is OptionalVRFConsumer {... */\n      sload\n      0xff\n      and\n      swap1\n      jump\n    tag_314:\n      tag_315\n      dup2\n      tag_30\n      jump\t// in\n    tag_315:\n        /* \"contracts/GameRoom.sol\":2775:2805  gameState == GameState.PENDING */\n      iszero\n        /* \"contracts/GameRoom.sol\":2767:2818  require(gameState == GameState.PENDING, \"!pending\") */\n      tag_67\n      jump\t// in\n    tag_313:\n        /* \"contracts/GameRoom.sol\":2849:2859  msg.sender */\n      caller\n        /* \"contracts/GameRoom.sol\":173:12583  contract GameRoom is OptionalVRFConsumer {... */\n      0x00\n      swap1\n      dup2\n      mstore\n        /* \"contracts/GameRoom.sol\":9098:9108  playerData */\n      0x11\n        /* \"contracts/GameRoom.sol\":173:12583  contract GameRoom is OptionalVRFConsumer {... */\n      0x20\n      mstore\n      0x40\n      swap1\n      keccak256\n        /* \"contracts/GameRoom.sol\":2838:2869  playerData[msg.sender].isActive */\n      0x02\n      add\n        /* \"contracts/GameRoom.sol\":173:12583  contract GameRoom is OptionalVRFConsumer {... */\n      sload\n        /* \"contracts/GameRoom.sol\":2829:2880  require(!playerData[msg.sender].isActive, \"joined\") */\n      tag_316\n      swap1\n        /* \"contracts/GameRoom.sol\":173:12583  contract GameRoom is OptionalVRFConsumer {... */\n      0xff\n      and\n        /* \"contracts/GameRoom.sol\":9097:9126  !playerData[msg.sender].isOut */\n      iszero\n        /* \"contracts/GameRoom.sol\":2829:2880  require(!playerData[msg.sender].isActive, \"joined\") */\n      tag_68\n      jump\t// in\n    tag_316:\n        /* \"contracts/GameRoom.sol\":2891:2942  require(players.length < config.maxPlayers, \"full\") */\n      tag_320\n        /* \"contracts/GameRoom.sol\":2899:2906  players */\n      0x10\n        /* \"contracts/GameRoom.sol\":173:12583  contract GameRoom is OptionalVRFConsumer {... */\n      sload\n        /* \"contracts/GameRoom.sol\":2916:2933  config.maxPlayers */\n      0x01\n        /* \"contracts/GameRoom.sol\":173:12583  contract GameRoom is OptionalVRFConsumer {... */\n      sload\n      gt\n        /* \"contracts/GameRoom.sol\":2891:2942  require(players.length < config.maxPlayers, \"full\") */\n      tag_69\n      jump\t// in\n    tag_320:\n        /* \"contracts/GameRoom.sol\":2993:3008  config.maxStake */\n      0x03\n        /* \"contracts/GameRoom.sol\":173:12583  contract GameRoom is OptionalVRFConsumer {... */\n      sload\n        /* \"contracts/GameRoom.sol\":2993:3013  config.maxStake == 0 */\n      dup1\n      tag_321\n      jumpi\n        /* \"contracts/GameRoom.sol\":173:12583  contract GameRoom is OptionalVRFConsumer {... */\n      pop\n        /* \"contracts/GameRoom.sol\":3030:3076  require(val == config.minStake, \"fixed stake\") */\n      tag_323\n        /* \"contracts/GameRoom.sol\":2838:2869  playerData[msg.sender].isActive */\n      0x02\n        /* \"contracts/GameRoom.sol\":173:12583  contract GameRoom is OptionalVRFConsumer {... */\n      sload\n        /* \"contracts/GameRoom.sol\":2969:2978  msg.value */\n      callvalue\n        /* \"contracts/GameRoom.sol\":3038:3060  val == config.minStake */\n      eq\n        /* \"contracts/GameRoom.sol\":3030:3076  require(val == config.minStake, \"fixed stake\") */\n      tag_71\n      jump\t// in\n    tag_323:\n        /* \"contracts/GameRoom.sol\":2849:2859  msg.sender */\n      caller\n        /* \"contracts/GameRoom.sol\":173:12583  contract GameRoom is OptionalVRFConsumer {... */\n      0x00\n      swap1\n      dup2\n      mstore\n        /* \"contracts/GameRoom.sol\":9098:9108  playerData */\n      0x11\n        /* \"contracts/GameRoom.sol\":173:12583  contract GameRoom is OptionalVRFConsumer {... */\n      0x20\n      mstore\n      0x40\n      swap1\n      keccak256\n        /* \"contracts/GameRoom.sol\":3311:3328  p.isActive = true */\n      tag_325\n      swap1\n        /* \"contracts/GameRoom.sol\":2838:2869  playerData[msg.sender].isActive */\n      0x02\n      swap1\n        /* \"contracts/GameRoom.sol\":173:12583  contract GameRoom is OptionalVRFConsumer {... */\n      dup1\n      sload\n      not(sub(shl(0xa0, 0x01), 0x01))\n      and\n        /* \"contracts/GameRoom.sol\":2849:2859  msg.sender */\n      caller\n        /* \"contracts/GameRoom.sol\":173:12583  contract GameRoom is OptionalVRFConsumer {... */\n      or\n      dup2\n      sstore\n        /* \"contracts/GameRoom.sol\":2969:2978  msg.value */\n      callvalue\n        /* \"contracts/GameRoom.sol\":2916:2933  config.maxPlayers */\n      0x01\n        /* \"contracts/GameRoom.sol\":3281:3294  p.stakeAmount */\n      dup3\n      add\n        /* \"contracts/GameRoom.sol\":173:12583  contract GameRoom is OptionalVRFConsumer {... */\n      sstore\n        /* \"contracts/GameRoom.sol\":3311:3321  p.isActive */\n      add\n        /* \"contracts/GameRoom.sol\":2916:2933  config.maxPlayers */\n      0x01\n        /* \"contracts/GameRoom.sol\":173:12583  contract GameRoom is OptionalVRFConsumer {... */\n      not(0xff)\n      dup3\n      sload\n      and\n      or\n      swap1\n      sstore\n      jump\n        /* \"contracts/GameRoom.sol\":3311:3328  p.isActive = true */\n    tag_325:\n        /* \"contracts/GameRoom.sol\":3339:3363  players.push(msg.sender) */\n      tag_328\n        /* \"contracts/GameRoom.sol\":2849:2859  msg.sender */\n      caller\n        /* \"contracts/GameRoom.sol\":3339:3363  players.push(msg.sender) */\n      tag_74\n      jump\t// in\n    tag_328:\n        /* \"contracts/GameRoom.sol\":173:12583  contract GameRoom is OptionalVRFConsumer {... */\n      mload(0x40)\n        /* \"contracts/GameRoom.sol\":2969:2978  msg.value */\n      callvalue\n        /* \"contracts/GameRoom.sol\":173:12583  contract GameRoom is OptionalVRFConsumer {... */\n      dup2\n      mstore\n        /* \"contracts/GameRoom.sol\":2849:2859  msg.sender */\n      caller\n      swap1\n        /* \"contracts/GameRoom.sol\":3394:3400  gameId */\n      immutable(\"0x4dfb3440902001bce9b7ebf7be7d95fe9e2056bd5ce309ceb83b32f4e00e21ed\")\n      swap1\n        /* \"contracts/GameRoom.sol\":3381:3418  PlayerJoined(gameId, msg.sender, val) */\n      0x03dfbe1fcb4e2d61f3b4a0c93d8f814c92250618b3387f396cc9fc9fafe2c203\n      swap1\n        /* \"contracts/GameRoom.sol\":173:12583  contract GameRoom is OptionalVRFConsumer {... */\n      0x20\n      swap1\n        /* \"contracts/GameRoom.sol\":3381:3418  PlayerJoined(gameId, msg.sender, val) */\n      log3\n        /* \"contracts/GameRoom.sol\":2899:2906  players */\n      0x10\n        /* \"contracts/GameRoom.sol\":173:12583  contract GameRoom is OptionalVRFConsumer {... */\n      sload\n        /* \"contracts/GameRoom.sol\":2916:2933  config.maxPlayers */\n      0x01\n        /* \"contracts/GameRoom.sol\":173:12583  contract GameRoom is OptionalVRFConsumer {... */\n      sload\n        /* \"contracts/GameRoom.sol\":3435:3470  players.length == config.maxPlayers */\n      eq\n        /* \"contracts/GameRoom.sol\":3431:3520  if (players.length == config.maxPlayers) {... */\n      tag_330\n      jumpi\n        /* \"contracts/GameRoom.sol\":173:12583  contract GameRoom is OptionalVRFConsumer {... */\n      stop\n        /* \"contracts/GameRoom.sol\":3431:3520  if (players.length == config.maxPlayers) {... */\n    tag_330:\n      tag_176\n      tag_102\n      jump\t// in\n        /* \"contracts/GameRoom.sol\":2989:3187  if (config.maxStake == 0) {... */\n    tag_321:\n        /* \"contracts/GameRoom.sol\":3109:3175  require(val >= config.minStake && val <= config.maxStake, \"range\") */\n      tag_333\n        /* \"contracts/GameRoom.sol\":173:12583  contract GameRoom is OptionalVRFConsumer {... */\n      swap1\n        /* \"contracts/GameRoom.sol\":2838:2869  playerData[msg.sender].isActive */\n      0x02\n        /* \"contracts/GameRoom.sol\":173:12583  contract GameRoom is OptionalVRFConsumer {... */\n      sload\n        /* \"contracts/GameRoom.sol\":2969:2978  msg.value */\n      callvalue\n        /* \"contracts/GameRoom.sol\":3117:3139  val >= config.minStake */\n      lt\n      iszero\n        /* \"contracts/GameRoom.sol\":3117:3165  val >= config.minStake && val <= config.maxStake */\n      swap1\n      dup2\n      tag_334\n      jumpi\n        /* \"contracts/GameRoom.sol\":2989:3187  if (config.maxStake == 0) {... */\n    tag_335:\n        /* \"contracts/GameRoom.sol\":3109:3175  require(val >= config.minStake && val <= config.maxStake, \"range\") */\n      pop\n      tag_70\n      jump\t// in\n    tag_333:\n        /* \"contracts/GameRoom.sol\":2989:3187  if (config.maxStake == 0) {... */\n      jump(tag_323)\n        /* \"contracts/GameRoom.sol\":3117:3165  val >= config.minStake && val <= config.maxStake */\n    tag_334:\n        /* \"contracts/GameRoom.sol\":2969:2978  msg.value */\n      swap1\n      pop\n      callvalue\n        /* \"contracts/GameRoom.sol\":3143:3165  val <= config.maxStake */\n      gt\n      iszero\n        /* \"contracts/GameRoom.sol\":3117:3165  val >= config.minStake && val <= config.maxStake */\n      0x00\n      jump(tag_335)\n        /* \"contracts/GameRoom.sol\":173:12583  contract GameRoom is OptionalVRFConsumer {... */\n    tag_33:\n      jumpi(tag_149, callvalue)\n      jumpi(tag_149, slt(add(not(0x03), calldatasize), 0x00))\n        /* \"contracts/GameRoom.sol\":3673:3682  roomOwner */\n      immutable(\"0x6590fa52fa76f967656340b874bc9ca09733c2fddea9886210ebcbbceee04b35\")\n      sub(shl(0xa0, 0x01), 0x01)\n        /* \"contracts/GameRoom.sol\":173:12583  contract GameRoom is OptionalVRFConsumer {... */\n      and\n        /* \"contracts/GameRoom.sol\":3659:3669  msg.sender */\n      caller\n        /* \"contracts/GameRoom.sol\":3659:3682  msg.sender == roomOwner */\n      sub\n        /* \"contracts/GameRoom.sol\":173:12583  contract GameRoom is OptionalVRFConsumer {... */\n      tag_340\n      jumpi\n        /* \"contracts/GameRoom.sol\":3704:3755  require(gameState == GameState.PENDING, \"!pending\") */\n      tag_342\n        /* \"contracts/GameRoom.sol\":173:12583  contract GameRoom is OptionalVRFConsumer {... */\n      tag_314\n        /* \"contracts/GameRoom.sol\":3712:3721  gameState */\n      0x0f\n        /* \"contracts/GameRoom.sol\":173:12583  contract GameRoom is OptionalVRFConsumer {... */\n      sload\n      0xff\n      and\n      swap1\n      jump\n        /* \"contracts/GameRoom.sol\":3704:3755  require(gameState == GameState.PENDING, \"!pending\") */\n    tag_342:\n        /* \"contracts/GameRoom.sol\":3829:3886  require(players.length < config.maxPlayers, \"!full auto\") */\n      tag_330\n        /* \"contracts/GameRoom.sol\":3774:3781  players */\n      0x10\n        /* \"contracts/GameRoom.sol\":173:12583  contract GameRoom is OptionalVRFConsumer {... */\n      sload\n        /* \"contracts/GameRoom.sol\":3766:3818  require(players.length >= config.minPlayers, \"!min\") */\n      tag_346\n        /* \"contracts/GameRoom.sol\":173:12583  contract GameRoom is OptionalVRFConsumer {... */\n      sload(0x00)\n        /* \"contracts/GameRoom.sol\":3774:3809  players.length >= config.minPlayers */\n      dup3\n      lt\n      iszero\n        /* \"contracts/GameRoom.sol\":3766:3818  require(players.length >= config.minPlayers, \"!min\") */\n      tag_75\n      jump\t// in\n    tag_346:\n        /* \"contracts/GameRoom.sol\":3854:3871  config.maxPlayers */\n      0x01\n        /* \"contracts/GameRoom.sol\":173:12583  contract GameRoom is OptionalVRFConsumer {... */\n      sload\n      gt\n        /* \"contracts/GameRoom.sol\":3829:3886  require(players.length < config.maxPlayers, \"!full auto\") */\n      tag_76\n      jump\t// in\n        /* \"contracts/GameRoom.sol\":173:12583  contract GameRoom is OptionalVRFConsumer {... */\n    tag_340:\n      mload(0x40)\n      shl(0xe5, 0x461bcd)\n      dup2\n      mstore\n      0x20\n      0x04\n      dup3\n      add\n      mstore\n      0x06\n      0x24\n      dup3\n      add\n      mstore\n      shl(0xd1, 0x10b7bbb732b9)\n      0x44\n      dup3\n      add\n      mstore\n      0x64\n      swap1\n      revert\n    tag_34:\n      jumpi(tag_149, callvalue)\n      jumpi(tag_149, slt(add(not(0x03), calldatasize), 0x00))\n      0x20\n      mload(0x40)\n        /* \"contracts/GameRoom.sol\":677:708  uint256 public immutable gameId */\n      immutable(\"0x4dfb3440902001bce9b7ebf7be7d95fe9e2056bd5ce309ceb83b32f4e00e21ed\")\n        /* \"contracts/GameRoom.sol\":173:12583  contract GameRoom is OptionalVRFConsumer {... */\n      dup2\n      mstore\n      return\n    tag_35:\n      jumpi(tag_149, callvalue)\n      jumpi(tag_149, slt(add(not(0x03), calldatasize), 0x00))\n      0x20\n      tag_201\n      tag_77\n      jump\t// in\n    tag_36:\n      mstore(0x00, shl(0xe0, 0x4e487b71))\n      mstore(0x04, 0x32)\n      revert(0x00, 0x24)\n    tag_37:\n        /* \"contracts/GameRoom.sol\":9027:9034  players */\n      0x10\n        /* \"contracts/GameRoom.sol\":173:12583  contract GameRoom is OptionalVRFConsumer {... */\n      sload\n      dup2\n      lt\n      iszero\n      tag_357\n      jumpi\n        /* \"contracts/GameRoom.sol\":9027:9034  players */\n      0x10\n      0x00\n        /* \"contracts/GameRoom.sol\":173:12583  contract GameRoom is OptionalVRFConsumer {... */\n      mstore\n      keccak256(0x00, 0x20)\n      add\n      swap1\n      0x00\n      swap1\n      jump\t// out\n    tag_357:\n      tag_36\n      jump\t// in\n    tag_39:\n      jumpi(tag_149, callvalue)\n      jumpi(tag_149, slt(add(not(0x03), calldatasize), 0x20))\n      calldataload(0x04)\n        /* \"contracts/GameRoom.sol\":977:1001  address[] public players */\n      0x10\n        /* \"contracts/GameRoom.sol\":173:12583  contract GameRoom is OptionalVRFConsumer {... */\n      sload\n        /* \"contracts/GameRoom.sol\":977:1001  address[] public players */\n      dup2\n      lt\n      iszero\n      tag_149\n      jumpi\n      0x10\n      0x00\n        /* \"contracts/GameRoom.sol\":173:12583  contract GameRoom is OptionalVRFConsumer {... */\n      mstore\n      0x00\n      dup1\n      mload\n      0x20\n      data_cf80bc4621d0751d813b5c62e01b0e17c015a240bacef8447cd784f3f77be164\n      dup4\n      codecopy\n      dup2\n      mload\n      swap2\n      mstore\n      add\n      sload\n      mload(0x40)\n      sub(shl(0xa0, 0x01), 0x01)\n      swap1\n      swap2\n      and\n      dup2\n      mstore\n      0x20\n      swap1\n      return\n    tag_40:\n      jumpi(tag_149, callvalue)\n      jumpi(tag_149, slt(add(not(0x03), calldatasize), 0x00))\n      0x20\n        /* \"contracts/GameRoom.sol\":1059:1092  uint256 public currentPlayerIndex */\n      0x12\n        /* \"contracts/GameRoom.sol\":173:12583  contract GameRoom is OptionalVRFConsumer {... */\n      sload\n      mload(0x40)\n      swap1\n      dup2\n      mstore\n      return\n        /* \"contracts/vrf/OptionalVRFConsumer.sol\":859:1104  function rawFulfillRandomWords(uint256 requestId, uint256[] memory randomWords) external virtual {... */\n    tag_41:\n      pop\n        /* \"contracts/vrf/OptionalVRFConsumer.sol\":974:988  vrfCoordinator */\n      immutable(\"0x402da2643d2882cfb54c248cd4dee7c1bffd32cdb3f0ac805147e460c893de46\")\n      sub(shl(0xa0, 0x01), 0x01)\n        /* \"contracts/GameRoom.sol\":173:12583  contract GameRoom is OptionalVRFConsumer {... */\n      and\n        /* \"contracts/vrf/OptionalVRFConsumer.sol\":974:1002  vrfCoordinator != address(0) */\n      dup1\n      iszero\n      iszero\n      swap1\n      dup2\n        /* \"contracts/vrf/OptionalVRFConsumer.sol\":974:1034  vrfCoordinator != address(0) && msg.sender == vrfCoordinator */\n      tag_369\n      jumpi\n        /* \"contracts/vrf/OptionalVRFConsumer.sol\":859:1104  function rawFulfillRandomWords(uint256 requestId, uint256[] memory randomWords) external virtual {... */\n    tag_370:\n        /* \"contracts/GameRoom.sol\":173:12583  contract GameRoom is OptionalVRFConsumer {... */\n      pop\n      iszero\n      tag_371\n      jumpi\n      0xff\n        /* \"contracts/GameRoom.sol\":5510:5519  gameState */\n      0x0f\n        /* \"contracts/GameRoom.sol\":173:12583  contract GameRoom is OptionalVRFConsumer {... */\n      sload\n      and\n      0x04\n      dup2\n      lt\n      iszero\n      tag_303\n      jumpi\n        /* \"contracts/GameRoom.sol\":5731:5745  randomWords[0] */\n      tag_375\n        /* \"contracts/GameRoom.sol\":5510:5540  gameState == GameState.DEALING */\n      swap2\n        /* \"contracts/GameRoom.sol\":5502:5553  require(gameState == GameState.DEALING, \"!dealing\") */\n      tag_376\n        /* \"contracts/GameRoom.sol\":5523:5540  GameState.DEALING */\n      0x01\n        /* \"contracts/GameRoom.sol\":5731:5745  randomWords[0] */\n      tag_377\n        /* \"contracts/GameRoom.sol\":5510:5540  gameState == GameState.DEALING */\n      swap4\n      eq\n        /* \"contracts/GameRoom.sol\":5502:5553  require(gameState == GameState.DEALING, \"!dealing\") */\n      tag_42\n      jump\t// in\n    tag_376:\n        /* \"contracts/GameRoom.sol\":5564:5606  require(randomWords.length >= 1, \"!words\") */\n      tag_378\n        /* \"contracts/GameRoom.sol\":5523:5540  GameState.DEALING */\n      0x01\n        /* \"contracts/GameRoom.sol\":173:12583  contract GameRoom is OptionalVRFConsumer {... */\n      dup3\n      mload\n        /* \"contracts/GameRoom.sol\":5572:5595  randomWords.length >= 1 */\n      lt\n      iszero\n        /* \"contracts/GameRoom.sol\":5564:5606  require(randomWords.length >= 1, \"!words\") */\n      tag_78\n      jump\t// in\n    tag_378:\n        /* \"contracts/GameRoom.sol\":5617:5646  gameState = GameState.PLAYING */\n      tag_379\n        /* \"contracts/GameRoom.sol\":5246:5263  GameState.PLAYING */\n      0x02\n        /* \"contracts/GameRoom.sol\":173:12583  contract GameRoom is OptionalVRFConsumer {... */\n      not(0xff)\n        /* \"contracts/GameRoom.sol\":5136:5145  gameState */\n      0x0f\n        /* \"contracts/GameRoom.sol\":173:12583  contract GameRoom is OptionalVRFConsumer {... */\n      sload\n      and\n      or\n        /* \"contracts/GameRoom.sol\":5136:5145  gameState */\n      0x0f\n        /* \"contracts/GameRoom.sol\":173:12583  contract GameRoom is OptionalVRFConsumer {... */\n      sstore\n      jump\n        /* \"contracts/GameRoom.sol\":5617:5646  gameState = GameState.PLAYING */\n    tag_379:\n        /* \"contracts/GameRoom.sol\":5684:5698  randomWords[0] */\n      tag_380\n      tag_381\n      dup3\n      tag_79\n      jump\t// in\n    tag_381:\n        /* \"contracts/GameRoom.sol\":173:12583  contract GameRoom is OptionalVRFConsumer {... */\n      mload\n        /* \"contracts/GameRoom.sol\":5684:5698  randomWords[0] */\n      tag_83\n      jump\t// in\n    tag_380:\n        /* \"contracts/GameRoom.sol\":5731:5745  randomWords[0] */\n      tag_79\n      jump\t// in\n    tag_377:\n        /* \"contracts/GameRoom.sol\":173:12583  contract GameRoom is OptionalVRFConsumer {... */\n      mload\n        /* \"contracts/GameRoom.sol\":5731:5745  randomWords[0] */\n      tag_84\n      jump\t// in\n    tag_375:\n        /* \"contracts/GameRoom.sol\":5774:5780  gameId */\n      immutable(\"0x4dfb3440902001bce9b7ebf7be7d95fe9e2056bd5ce309ceb83b32f4e00e21ed\")\n        /* \"contracts/GameRoom.sol\":5762:5781  GameStarted(gameId) */\n      0x50ad08f58a27f2851d7e3a1b3a6a46b290f2ce677e99642d30ff639721e77790\n        /* \"contracts/vrf/OptionalVRFConsumer.sol\":1000:1001  0 */\n      0x00\n        /* \"contracts/GameRoom.sol\":5762:5781  GameStarted(gameId) */\n      dup1\n      log2\n        /* \"contracts/vrf/OptionalVRFConsumer.sol\":859:1104  function rawFulfillRandomWords(uint256 requestId, uint256[] memory randomWords) external virtual {... */\n      jump\t// out\n        /* \"contracts/GameRoom.sol\":173:12583  contract GameRoom is OptionalVRFConsumer {... */\n    tag_371:\n      mload(0x40)\n      shl(0xe5, 0x461bcd)\n      dup2\n      mstore\n      0x20\n      0x04\n      dup3\n      add\n      mstore\n      0x06\n      0x24\n      dup3\n      add\n      mstore\n      shl(0xd2, 0x0858dbdbdc99)\n      0x44\n      dup3\n      add\n      mstore\n      0x64\n      swap1\n      revert\n        /* \"contracts/vrf/OptionalVRFConsumer.sol\":974:1034  vrfCoordinator != address(0) && msg.sender == vrfCoordinator */\n    tag_369:\n        /* \"contracts/vrf/OptionalVRFConsumer.sol\":1006:1016  msg.sender */\n      swap1\n      pop\n      caller\n        /* \"contracts/vrf/OptionalVRFConsumer.sol\":1006:1034  msg.sender == vrfCoordinator */\n      eq\n        /* \"contracts/vrf/OptionalVRFConsumer.sol\":974:1034  vrfCoordinator != address(0) && msg.sender == vrfCoordinator */\n      0x00\n      jump(tag_370)\n        /* \"contracts/GameRoom.sol\":173:12583  contract GameRoom is OptionalVRFConsumer {... */\n    tag_42:\n      iszero\n      tag_382\n      jumpi\n      jump\t// out\n    tag_382:\n      mload(0x40)\n      shl(0xe5, 0x461bcd)\n      dup2\n      mstore\n      0x20\n      0x04\n      dup3\n      add\n      mstore\n      0x08\n      0x24\n      dup3\n      add\n      mstore\n      shl(0xc0, 0x216465616c696e67)\n      0x44\n      dup3\n      add\n      mstore\n      0x64\n      swap1\n      revert\n    tag_43:\n      iszero\n      tag_384\n      jumpi\n      jump\t// out\n    tag_384:\n      mload(0x40)\n      shl(0xe5, 0x461bcd)\n      dup2\n      mstore\n      0x20\n      0x04\n      dup3\n      add\n      mstore\n      0x05\n      0x24\n      dup3\n      add\n      mstore\n      shl(0xd8, 0x217a65726f)\n      0x44\n      dup3\n      add\n      mstore\n      0x64\n      swap1\n      revert\n    tag_47:\n      mstore(0x00, shl(0xe0, 0x4e487b71))\n      mstore(0x04, 0x11)\n      revert(0x00, 0x24)\n    tag_48:\n      swap1\n      0x01\n      dup3\n      add\n      dup1\n      swap3\n      gt\n      tag_386\n      jumpi\n      jump\t// out\n    tag_386:\n      tag_47\n      jump\t// in\n    tag_49:\n      swap2\n      swap1\n      dup3\n      add\n      dup1\n      swap3\n      gt\n      tag_386\n      jumpi\n      jump\t// out\n    tag_50:\n      dup2\n      iszero\n      tag_390\n      jumpi\n      mod\n      swap1\n      jump\t// out\n    tag_390:\n      mstore(0x00, shl(0xe0, 0x4e487b71))\n      mstore(0x04, 0x12)\n      revert(0x00, 0x24)\n        /* \"contracts/GameRoom.sol\":12012:12236  function getTakeTarget() external view returns (address) {... */\n    tag_51:\n        /* \"contracts/GameRoom.sol\":12092:12099  players */\n      0x10\n        /* \"contracts/GameRoom.sol\":173:12583  contract GameRoom is OptionalVRFConsumer {... */\n      sload\n        /* \"contracts/GameRoom.sol\":12125:12126  2 */\n      0x02\n        /* \"contracts/GameRoom.sol\":12121:12126  n < 2 */\n      dup2\n      lt\n        /* \"contracts/GameRoom.sol\":12117:12145  if (n < 2) return address(0) */\n      tag_392\n      jumpi\n        /* \"contracts/GameRoom.sol\":12171:12189  currentPlayerIndex */\n      0x12\n        /* \"contracts/GameRoom.sol\":173:12583  contract GameRoom is OptionalVRFConsumer {... */\n      sload\n        /* \"contracts/GameRoom.sol\":12192:12193  1 */\n      0x01\n        /* \"contracts/GameRoom.sol\":173:12583  contract GameRoom is OptionalVRFConsumer {... */\n      dup2\n      add\n      dup1\n      swap2\n      gt\n      tag_386\n      jumpi\n        /* \"contracts/GameRoom.sol\":12170:12198  (currentPlayerIndex + 1) % n */\n      dup2\n      tag_396\n      swap2\n      tag_50\n      jump\t// in\n    tag_396:\n        /* \"contracts/GameRoom.sol\":173:12583  contract GameRoom is OptionalVRFConsumer {... */\n      swap1\n      dup2\n      lt\n      iszero\n      tag_357\n      jumpi\n        /* \"contracts/GameRoom.sol\":12092:12099  players */\n      0x10\n        /* \"contracts/GameRoom.sol\":173:12583  contract GameRoom is OptionalVRFConsumer {... */\n      0x00\n      mstore\n      0x00\n      dup1\n      mload\n      0x20\n      data_cf80bc4621d0751d813b5c62e01b0e17c015a240bacef8447cd784f3f77be164\n      dup4\n      codecopy\n      dup2\n      mload\n      swap2\n      mstore\n      add\n      sload\n      sub(shl(0xa0, 0x01), 0x01)\n      and\n      swap1\n        /* \"contracts/GameRoom.sol\":12012:12236  function getTakeTarget() external view returns (address) {... */\n      jump\t// out\n        /* \"contracts/GameRoom.sol\":12117:12145  if (n < 2) return address(0) */\n    tag_392:\n        /* \"contracts/GameRoom.sol\":12128:12145  return address(0) */\n      pop\n        /* \"contracts/GameRoom.sol\":173:12583  contract GameRoom is OptionalVRFConsumer {... */\n      0x00\n        /* \"contracts/GameRoom.sol\":12128:12145  return address(0) */\n      swap1\n      jump\t// out\n        /* \"contracts/GameRoom.sol\":173:12583  contract GameRoom is OptionalVRFConsumer {... */\n    tag_52:\n      iszero\n      tag_399\n      jumpi\n      jump\t// out\n    tag_399:\n      mload(0x40)\n      shl(0xe5, 0x461bcd)\n      dup2\n      mstore\n      0x20\n      0x04\n      dup3\n      add\n      mstore\n      0x08\n      0x24\n      dup3\n      add\n      mstore\n      shl(0xc0, 0x21706c6179696e67)\n      0x44\n      dup3\n      add\n      mstore\n      0x64\n      swap1\n      revert\n    tag_53:\n      iszero\n      tag_401\n      jumpi\n      jump\t// out\n    tag_401:\n      mload(0x40)\n      shl(0xe5, 0x461bcd)\n      dup2\n      mstore\n      0x20\n      0x04\n      dup3\n      add\n      mstore\n      0x05\n      0x24\n      dup3\n      add\n      mstore\n      shl(0xd9, 0x10ba3ab937)\n      0x44\n      dup3\n      add\n      mstore\n      0x64\n      swap1\n      revert\n    tag_54:\n      iszero\n      tag_403\n      jumpi\n      jump\t// out\n    tag_403:\n      mload(0x40)\n      shl(0xe5, 0x461bcd)\n      dup2\n      mstore\n      0x20\n      0x04\n      dup3\n      add\n      mstore\n      0x03\n      0x24\n      dup3\n      add\n      mstore\n      shl(0xea, 0x1bdd5d)\n      0x44\n      dup3\n      add\n      mstore\n      0x64\n      swap1\n      revert\n    tag_55:\n      iszero\n      tag_405\n      jumpi\n      jump\t// out\n    tag_405:\n      mload(0x40)\n      shl(0xe5, 0x461bcd)\n      dup2\n      mstore\n      0x20\n      0x04\n      dup3\n      add\n      mstore\n      0x07\n      0x24\n      dup3\n      add\n      mstore\n      shl(0xca, 0x085d185c99d95d)\n      0x44\n      dup3\n      add\n      mstore\n      0x64\n      swap1\n      revert\n    tag_56:\n      iszero\n      tag_407\n      jumpi\n      jump\t// out\n    tag_407:\n      mload(0x40)\n      shl(0xe5, 0x461bcd)\n      dup2\n      mstore\n      0x20\n      0x04\n      dup3\n      add\n      mstore\n      0x09\n      0x24\n      dup3\n      add\n      mstore\n      shl(0xbc, 0x06361726420312d313)\n      0x44\n      dup3\n      add\n      mstore\n      0x64\n      swap1\n      revert\n    tag_57:\n      0xff\n      not(0x00)\n      swap2\n      and\n      add\n      swap1\n      0xff\n      dup3\n      gt\n      tag_386\n      jumpi\n      jump\t// out\n    tag_58:\n      0x0a\n      dup2\n      lt\n      iszero\n      tag_357\n      jumpi\n        /* \"contracts/GameRoom.sol\":8481:8498  config.cardCounts */\n      0x05\n        /* \"contracts/GameRoom.sol\":173:12583  contract GameRoom is OptionalVRFConsumer {... */\n      add\n      swap1\n      0x00\n      swap1\n      jump\t// out\n    tag_59:\n      0x0a\n      dup3\n      lt\n      iszero\n      tag_357\n      jumpi\n      add\n      swap1\n      0x00\n      swap1\n      jump\t// out\n    tag_60:\n      iszero\n      tag_415\n      jumpi\n      jump\t// out\n    tag_415:\n      mload(0x40)\n      shl(0xe5, 0x461bcd)\n      dup2\n      mstore\n      0x20\n      0x04\n      dup3\n      add\n      mstore\n      0x07\n      0x24\n      dup3\n      add\n      mstore\n      shl(0xca, 0x1b9bc818d85c99)\n      0x44\n      dup3\n      add\n      mstore\n      0x64\n      swap1\n      revert\n    tag_61:\n      dup1\n      iszero\n      tag_386\n      jumpi\n      not(0x00)\n      add\n      swap1\n      jump\t// out\n    tag_63:\n      not(0x00)\n      dup2\n      eq\n      tag_386\n      jumpi\n      0x01\n      add\n      swap1\n      jump\t// out\n    tag_65:\n      iszero\n      tag_421\n      jumpi\n      jump\t// out\n    tag_421:\n      mload(0x40)\n      shl(0xe5, 0x461bcd)\n      dup2\n      mstore\n      0x20\n      0x04\n      dup3\n      add\n      mstore\n      0x08\n      0x24\n      dup3\n      add\n      mstore\n      shl(0xc1, 0x3737903537b5b2b9)\n      0x44\n      dup3\n      add\n      mstore\n      0x64\n      swap1\n      revert\n    tag_67:\n      iszero\n      tag_423\n      jumpi\n      jump\t// out\n    tag_423:\n      mload(0x40)\n      shl(0xe5, 0x461bcd)\n      dup2\n      mstore\n      0x20\n      0x04\n      dup3\n      add\n      mstore\n      0x08\n      0x24\n      dup3\n      add\n      mstore\n      shl(0xc0, 0x2170656e64696e67)\n      0x44\n      dup3\n      add\n      mstore\n      0x64\n      swap1\n      revert\n    tag_68:\n      iszero\n      tag_425\n      jumpi\n      jump\t// out\n    tag_425:\n      mload(0x40)\n      shl(0xe5, 0x461bcd)\n      dup2\n      mstore\n      0x20\n      0x04\n      dup3\n      add\n      mstore\n      0x06\n      0x24\n      dup3\n      add\n      mstore\n      shl(0xd2, 0x1a9bda5b9959)\n      0x44\n      dup3\n      add\n      mstore\n      0x64\n      swap1\n      revert\n    tag_69:\n      iszero\n      tag_427\n      jumpi\n      jump\t// out\n    tag_427:\n      0x64\n      mload(0x40)\n      shl(0xe5, 0x461bcd)\n      dup2\n      mstore\n      0x20\n      0x04\n      dup3\n      add\n      mstore\n      0x04\n      0x24\n      dup3\n      add\n      mstore\n      shl(0xe2, 0x199d5b1b)\n      0x44\n      dup3\n      add\n      mstore\n      revert\n    tag_70:\n      iszero\n      tag_429\n      jumpi\n      jump\t// out\n    tag_429:\n      mload(0x40)\n      shl(0xe5, 0x461bcd)\n      dup2\n      mstore\n      0x20\n      0x04\n      dup3\n      add\n      mstore\n      0x05\n      0x24\n      dup3\n      add\n      mstore\n      shl(0xd8, 0x72616e6765)\n      0x44\n      dup3\n      add\n      mstore\n      0x64\n      swap1\n      revert\n    tag_71:\n      iszero\n      tag_431\n      jumpi\n      jump\t// out\n    tag_431:\n      mload(0x40)\n      shl(0xe5, 0x461bcd)\n      dup2\n      mstore\n      0x20\n      0x04\n      dup3\n      add\n      mstore\n      0x0b\n      0x24\n      dup3\n      add\n      mstore\n      shl(0xa8, 0x6669786564207374616b65)\n      0x44\n      dup3\n      add\n      mstore\n      0x64\n      swap1\n      revert\n    tag_74:\n        /* \"contracts/GameRoom.sol\":2899:2906  players */\n      0x10\n        /* \"contracts/GameRoom.sol\":173:12583  contract GameRoom is OptionalVRFConsumer {... */\n      sload\n      0x010000000000000000\n      dup2\n      lt\n      iszero\n      tag_156\n      jumpi\n      0x01\n      dup2\n      add\n        /* \"contracts/GameRoom.sol\":2899:2906  players */\n      0x10\n        /* \"contracts/GameRoom.sol\":173:12583  contract GameRoom is OptionalVRFConsumer {... */\n      sstore\n        /* \"contracts/GameRoom.sol\":2899:2906  players */\n      0x10\n        /* \"contracts/GameRoom.sol\":173:12583  contract GameRoom is OptionalVRFConsumer {... */\n      sload\n      dup2\n      lt\n      iszero\n      tag_357\n      jumpi\n        /* \"contracts/GameRoom.sol\":2899:2906  players */\n      0x10\n      0x00\n        /* \"contracts/GameRoom.sol\":173:12583  contract GameRoom is OptionalVRFConsumer {... */\n      mstore\n      0x00\n      dup1\n      mload\n      0x20\n      data_cf80bc4621d0751d813b5c62e01b0e17c015a240bacef8447cd784f3f77be164\n      dup4\n      codecopy\n      dup2\n      mload\n      swap2\n      mstore\n      add\n      dup1\n      sload\n      not(sub(shl(0xa0, 0x01), 0x01))\n      and\n      sub(shl(0xa0, 0x01), 0x01)\n      swap1\n      swap3\n      and\n      swap2\n      swap1\n      swap2\n      or\n      swap1\n      sstore\n      jump\t// out\n    tag_75:\n      iszero\n      tag_437\n      jumpi\n      jump\t// out\n    tag_437:\n      0x64\n      mload(0x40)\n      shl(0xe5, 0x461bcd)\n      dup2\n      mstore\n      0x20\n      0x04\n      dup3\n      add\n      mstore\n      0x04\n      0x24\n      dup3\n      add\n      mstore\n      shl(0xe1, 0x10b6b4b7)\n      0x44\n      dup3\n      add\n      mstore\n      revert\n    tag_76:\n      iszero\n      tag_439\n      jumpi\n      jump\t// out\n    tag_439:\n      mload(0x40)\n      shl(0xe5, 0x461bcd)\n      dup2\n      mstore\n      0x20\n      0x04\n      dup3\n      add\n      mstore\n      0x0a\n      0x24\n      dup3\n      add\n      mstore\n      shl(0xb0, 0x2166756c6c206175746f)\n      0x44\n      dup3\n      add\n      mstore\n      0x64\n      swap1\n      revert\n        /* \"contracts/GameRoom.sol\":11768:11938  function getCurrentTurnPlayer() external view returns (address) {... */\n    tag_77:\n        /* \"contracts/GameRoom.sol\":11847:11854  players */\n      0x10\n        /* \"contracts/GameRoom.sol\":173:12583  contract GameRoom is OptionalVRFConsumer {... */\n      sload\n        /* \"contracts/GameRoom.sol\":11847:11866  players.length == 0 */\n      dup1\n      iszero\n        /* \"contracts/GameRoom.sol\":11843:11885  if (players.length == 0) return address(0) */\n      tag_392\n      jumpi\n        /* \"contracts/GameRoom.sol\":11911:11929  currentPlayerIndex */\n      0x12\n        /* \"contracts/GameRoom.sol\":173:12583  contract GameRoom is OptionalVRFConsumer {... */\n      sload\n      swap1\n      dup2\n      lt\n      iszero\n      tag_357\n      jumpi\n        /* \"contracts/GameRoom.sol\":11847:11854  players */\n      0x10\n        /* \"contracts/GameRoom.sol\":173:12583  contract GameRoom is OptionalVRFConsumer {... */\n      0x00\n      mstore\n      0x00\n      dup1\n      mload\n      0x20\n      data_cf80bc4621d0751d813b5c62e01b0e17c015a240bacef8447cd784f3f77be164\n      dup4\n      codecopy\n      dup2\n      mload\n      swap2\n      mstore\n      add\n      sload\n      sub(shl(0xa0, 0x01), 0x01)\n      and\n      swap1\n        /* \"contracts/GameRoom.sol\":11768:11938  function getCurrentTurnPlayer() external view returns (address) {... */\n      jump\t// out\n        /* \"contracts/GameRoom.sol\":173:12583  contract GameRoom is OptionalVRFConsumer {... */\n    tag_78:\n      iszero\n      tag_445\n      jumpi\n      jump\t// out\n    tag_445:\n      mload(0x40)\n      shl(0xe5, 0x461bcd)\n      dup2\n      mstore\n      0x20\n      0x04\n      dup3\n      add\n      mstore\n      0x06\n      0x24\n      dup3\n      add\n      mstore\n      shl(0xd0, 0x21776f726473)\n      0x44\n      dup3\n      add\n      mstore\n      0x64\n      swap1\n      revert\n    tag_79:\n      dup1\n      mload\n      iszero\n      tag_357\n      jumpi\n      0x20\n      add\n      swap1\n      jump\t// out\n    tag_80:\n      dup1\n      mload\n      dup3\n      lt\n      iszero\n      tag_357\n      jumpi\n      0x20\n      swap2\n      0x05\n      shl\n      add\n      add\n      swap1\n      jump\t// out\n        /* \"contracts/GameRoom.sol\":7412:8319  function _shuffleAndDealFromVrfSeed(uint256 seed) internal {... */\n    tag_83:\n        /* \"contracts/GameRoom.sol\":7499:7506  players */\n      0x10\n        /* \"contracts/GameRoom.sol\":173:12583  contract GameRoom is OptionalVRFConsumer {... */\n      sload\n        /* \"contracts/GameRoom.sol\":7548:7567  _buildDeckOrdered() */\n      tag_451\n      tag_103\n      jump\t// in\n    tag_451:\n        /* \"contracts/GameRoom.sol\":173:12583  contract GameRoom is OptionalVRFConsumer {... */\n      dup1\n      mload\n        /* \"contracts/GameRoom.sol\":7709:7715  gameId */\n      immutable(\"0x4dfb3440902001bce9b7ebf7be7d95fe9e2056bd5ce309ceb83b32f4e00e21ed\")\n      swap2\n        /* \"contracts/GameRoom.sol\":7630:7631  0 */\n      0x00\n        /* \"contracts/GameRoom.sol\":7633:7640  i < len */\n    tag_452:\n      dup3\n      dup2\n      lt\n      tag_453\n      jumpi\n        /* \"contracts/GameRoom.sol\":7825:7835  uint i = 0 */\n      pop\n        /* \"contracts/GameRoom.sol\":7630:7631  0 */\n      0x00\n        /* \"contracts/GameRoom.sol\":7837:7844  i < len */\n    tag_455:\n      dup3\n      dup2\n      lt\n      tag_456\n      jumpi\n        /* \"contracts/GameRoom.sol\":173:12583  contract GameRoom is OptionalVRFConsumer {... */\n      pop\n      pop\n      pop\n        /* \"contracts/GameRoom.sol\":8068:8085  config.jokerCount */\n      0x04\n        /* \"contracts/GameRoom.sol\":173:12583  contract GameRoom is OptionalVRFConsumer {... */\n      sload\n        /* \"contracts/GameRoom.sol\":8101:8111  uint i = 0 */\n      swap3\n        /* \"contracts/GameRoom.sol\":7630:7631  0 */\n      0x00\n        /* \"contracts/GameRoom.sol\":8113:8127  i < jokerTotal */\n    tag_458:\n      dup5\n      dup2\n      lt\n      tag_459\n      jumpi\n        /* \"contracts/GameRoom.sol\":7412:8319  function _shuffleAndDealFromVrfSeed(uint256 seed) internal {... */\n      pop\n      pop\n      pop\n      pop\n      pop\n      jump\t// out\n        /* \"contracts/GameRoom.sol\":8129:8132  i++ */\n    tag_459:\n        /* \"contracts/GameRoom.sol\":173:12583  contract GameRoom is OptionalVRFConsumer {... */\n      0x40\n      dup1\n      mload\n        /* \"contracts/GameRoom.sol\":7686:7734  abi.encodePacked(seed, gameId, address(this), i) */\n      0x20\n        /* \"contracts/GameRoom.sol\":8185:8243  abi.encodePacked(seed, gameId, address(this), i, uint8(1)) */\n      dup2\n      add\n        /* \"contracts/GameRoom.sol\":173:12583  contract GameRoom is OptionalVRFConsumer {... */\n      dup5\n      dup2\n      mstore\n      swap2\n      dup2\n      add\n      dup6\n      swap1\n      mstore\n        /* \"contracts/GameRoom.sol\":7725:7729  this */\n      address\n        /* \"contracts/GameRoom.sol\":173:12583  contract GameRoom is OptionalVRFConsumer {... */\n      0x60\n      swap1\n      dup2\n      shl\n      not(sub(shl(0x60, 0x01), 0x01))\n      and\n      swap1\n      dup3\n      add\n      mstore\n      0x74\n      dup2\n      add\n      dup4\n      swap1\n      mstore\n      shl(0xf8, 0x01)\n      0x94\n      dup3\n      add\n      mstore\n      0x01\n      swap3\n      swap2\n        /* \"contracts/GameRoom.sol\":8270:8295  playerData[to].jokerCount */\n      0x0d\n      swap2\n        /* \"contracts/GameRoom.sol\":8270:8284  playerData[to] */\n      tag_461\n      swap2\n        /* \"contracts/GameRoom.sol\":173:12583  contract GameRoom is OptionalVRFConsumer {... */\n      tag_267\n      swap2\n        /* \"contracts/GameRoom.sol\":8162:8255  players[uint(keccak256(abi.encodePacked(seed, gameId, address(this), i, uint8(1)))) % pCount] */\n      tag_258\n      swap2\n        /* \"contracts/GameRoom.sol\":8170:8254  uint(keccak256(abi.encodePacked(seed, gameId, address(this), i, uint8(1)))) % pCount */\n      tag_464\n      swap2\n        /* \"contracts/GameRoom.sol\":173:12583  contract GameRoom is OptionalVRFConsumer {... */\n      dup12\n      swap2\n        /* \"contracts/GameRoom.sol\":8185:8243  abi.encodePacked(seed, gameId, address(this), i, uint8(1)) */\n      swap1\n      tag_465\n        /* \"contracts/GameRoom.sol\":173:12583  contract GameRoom is OptionalVRFConsumer {... */\n      dup2\n      0x95\n      dup2\n      add\n        /* \"contracts/GameRoom.sol\":8185:8243  abi.encodePacked(seed, gameId, address(this), i, uint8(1)) */\n    tag_466:\n      sub\n        /* \"contracts/GameRoom.sol\":173:12583  contract GameRoom is OptionalVRFConsumer {... */\n      not(0x1f)\n        /* \"contracts/GameRoom.sol\":8185:8243  abi.encodePacked(seed, gameId, address(this), i, uint8(1)) */\n      dup2\n      add\n      dup4\n      mstore\n      dup3\n      tag_9\n      jump\t// in\n    tag_465:\n        /* \"contracts/GameRoom.sol\":173:12583  contract GameRoom is OptionalVRFConsumer {... */\n      mload\n        /* \"contracts/GameRoom.sol\":8175:8244  keccak256(abi.encodePacked(seed, gameId, address(this), i, uint8(1))) */\n      swap1\n      keccak256\n        /* \"contracts/GameRoom.sol\":8170:8254  uint(keccak256(abi.encodePacked(seed, gameId, address(this), i, uint8(1)))) % pCount */\n      tag_50\n      jump\t// in\n    tag_464:\n        /* \"contracts/GameRoom.sol\":8162:8255  players[uint(keccak256(abi.encodePacked(seed, gameId, address(this), i, uint8(1)))) % pCount] */\n      tag_37\n      jump\t// in\n        /* \"contracts/GameRoom.sol\":8270:8284  playerData[to] */\n    tag_461:\n        /* \"contracts/GameRoom.sol\":8270:8295  playerData[to].jokerCount */\n      add\n        /* \"contracts/GameRoom.sol\":8270:8300  playerData[to].jokerCount += 1 */\n      tag_467\n        /* \"contracts/GameRoom.sol\":173:12583  contract GameRoom is OptionalVRFConsumer {... */\n      dup2\n      sload\n        /* \"contracts/GameRoom.sol\":8270:8300  playerData[to].jokerCount += 1 */\n      tag_48\n      jump\t// in\n    tag_467:\n        /* \"contracts/GameRoom.sol\":173:12583  contract GameRoom is OptionalVRFConsumer {... */\n      swap1\n      sstore\n      add\n        /* \"contracts/GameRoom.sol\":8101:8111  uint i = 0 */\n      jump(tag_458)\n        /* \"contracts/GameRoom.sol\":7846:7849  i++ */\n    tag_456:\n        /* \"contracts/GameRoom.sol\":7887:7897  i % pCount */\n      dup1\n        /* \"contracts/GameRoom.sol\":8019:8022  num */\n      tag_468\n        /* \"contracts/GameRoom.sol\":173:12583  contract GameRoom is OptionalVRFConsumer {... */\n      tag_469\n        /* \"contracts/GameRoom.sol\":7879:7898  players[i % pCount] */\n      tag_258\n        /* \"contracts/GameRoom.sol\":7887:7897  i % pCount */\n      tag_464\n      dup10\n        /* \"contracts/GameRoom.sol\":173:12583  contract GameRoom is OptionalVRFConsumer {... */\n      0x01\n        /* \"contracts/GameRoom.sol\":7887:7897  i % pCount */\n      swap7\n      tag_50\n      jump\t// in\n        /* \"contracts/GameRoom.sol\":173:12583  contract GameRoom is OptionalVRFConsumer {... */\n    tag_469:\n        /* \"contracts/GameRoom.sol\":7925:7939  uint8(deck[i]) */\n      tag_472\n        /* \"contracts/GameRoom.sol\":7931:7938  deck[i] */\n      tag_473\n      dup5\n      dup8\n      tag_80\n      jump\t// in\n    tag_473:\n        /* \"contracts/GameRoom.sol\":173:12583  contract GameRoom is OptionalVRFConsumer {... */\n      mload\n      0xff\n      and\n      swap1\n      jump\n        /* \"contracts/GameRoom.sol\":7925:7939  uint8(deck[i]) */\n    tag_472:\n        /* \"contracts/GameRoom.sol\":7954:7968  playerData[to] */\n      swap1\n        /* \"contracts/GameRoom.sol\":7954:7985  playerData[to].handCards[num]++ */\n      tag_474\n        /* \"contracts/GameRoom.sol\":7954:7983  playerData[to].handCards[num] */\n      tag_294\n        /* \"contracts/GameRoom.sol\":7954:7968  playerData[to] */\n      dup4\n        /* \"contracts/GameRoom.sol\":7954:7978  playerData[to].handCards */\n      0x03\n        /* \"contracts/GameRoom.sol\":7954:7968  playerData[to] */\n      tag_290\n      dup6\n        /* \"contracts/GameRoom.sol\":173:12583  contract GameRoom is OptionalVRFConsumer {... */\n      0x01\n      dup1\n      0xa0\n      shl\n      sub\n      and\n      0x00\n      mstore\n        /* \"contracts/GameRoom.sol\":9098:9108  playerData */\n      0x11\n        /* \"contracts/GameRoom.sol\":173:12583  contract GameRoom is OptionalVRFConsumer {... */\n      0x20\n      mstore\n      keccak256(0x00, 0x40)\n      swap1\n      jump\n        /* \"contracts/GameRoom.sol\":7954:7985  playerData[to].handCards[num]++ */\n    tag_474:\n        /* \"contracts/GameRoom.sol\":8019:8022  num */\n      tag_85\n      jump\t// in\n    tag_468:\n        /* \"contracts/GameRoom.sol\":173:12583  contract GameRoom is OptionalVRFConsumer {... */\n      add\n        /* \"contracts/GameRoom.sol\":7825:7835  uint i = 0 */\n      jump(tag_455)\n        /* \"contracts/GameRoom.sol\":7642:7645  i++ */\n    tag_453:\n        /* \"contracts/GameRoom.sol\":173:12583  contract GameRoom is OptionalVRFConsumer {... */\n      0x40\n      dup1\n      mload\n        /* \"contracts/GameRoom.sol\":7686:7734  abi.encodePacked(seed, gameId, address(this), i) */\n      0x20\n      dup2\n      add\n        /* \"contracts/GameRoom.sol\":173:12583  contract GameRoom is OptionalVRFConsumer {... */\n      dup9\n      dup2\n      mstore\n      swap2\n      dup2\n      add\n      dup7\n      swap1\n      mstore\n        /* \"contracts/GameRoom.sol\":7725:7729  this */\n      address\n        /* \"contracts/GameRoom.sol\":173:12583  contract GameRoom is OptionalVRFConsumer {... */\n      0x60\n      swap1\n      dup2\n      shl\n      not(sub(shl(0x60, 0x01), 0x01))\n      and\n      swap1\n      dup3\n      add\n      mstore\n      0x74\n      dup2\n      add\n      dup4\n      swap1\n      mstore\n      0x01\n      swap3\n      swap2\n        /* \"contracts/GameRoom.sol\":7671:7742  uint(keccak256(abi.encodePacked(seed, gameId, address(this), i))) % len */\n      tag_479\n      swap2\n        /* \"contracts/GameRoom.sol\":173:12583  contract GameRoom is OptionalVRFConsumer {... */\n      dup7\n      swap2\n        /* \"contracts/GameRoom.sol\":7686:7734  abi.encodePacked(seed, gameId, address(this), i) */\n      swap1\n      tag_465\n        /* \"contracts/GameRoom.sol\":173:12583  contract GameRoom is OptionalVRFConsumer {... */\n      dup2\n      0x94\n      dup2\n      add\n        /* \"contracts/GameRoom.sol\":7686:7734  abi.encodePacked(seed, gameId, address(this), i) */\n      tag_466\n        /* \"contracts/GameRoom.sol\":173:12583  contract GameRoom is OptionalVRFConsumer {... */\n      jump\n        /* \"contracts/GameRoom.sol\":7671:7742  uint(keccak256(abi.encodePacked(seed, gameId, address(this), i))) % len */\n    tag_479:\n        /* \"contracts/GameRoom.sol\":7779:7786  deck[r] */\n      tag_482\n      dup2\n      dup6\n      tag_80\n      jump\t// in\n    tag_482:\n        /* \"contracts/GameRoom.sol\":173:12583  contract GameRoom is OptionalVRFConsumer {... */\n      mload\n        /* \"contracts/GameRoom.sol\":7788:7795  deck[i] */\n      swap1\n        /* \"contracts/GameRoom.sol\":7757:7796  (deck[i], deck[r]) = (deck[r], deck[i]) */\n      tag_483\n        /* \"contracts/GameRoom.sol\":7788:7795  deck[i] */\n      tag_484\n      dup5\n      dup8\n      tag_80\n      jump\t// in\n    tag_484:\n        /* \"contracts/GameRoom.sol\":173:12583  contract GameRoom is OptionalVRFConsumer {... */\n      mload\n        /* \"contracts/GameRoom.sol\":7757:7796  (deck[i], deck[r]) = (deck[r], deck[i]) */\n      swap2\n      dup7\n      tag_80\n      jump\t// in\n    tag_483:\n        /* \"contracts/GameRoom.sol\":173:12583  contract GameRoom is OptionalVRFConsumer {... */\n      mstore\n        /* \"contracts/GameRoom.sol\":7757:7796  (deck[i], deck[r]) = (deck[r], deck[i]) */\n      tag_485\n      dup3\n      dup6\n      tag_80\n      jump\t// in\n    tag_485:\n        /* \"contracts/GameRoom.sol\":173:12583  contract GameRoom is OptionalVRFConsumer {... */\n      mstore\n      add\n        /* \"contracts/GameRoom.sol\":7621:7631  uint i = 0 */\n      jump(tag_452)\n        /* \"contracts/GameRoom.sol\":5797:6069  function _setHandDisplaySeeds(uint256 entropy) internal {... */\n    tag_84:\n      swap1\n        /* \"contracts/GameRoom.sol\":6039:6043  this */\n      address\n        /* \"contracts/GameRoom.sol\":173:12583  contract GameRoom is OptionalVRFConsumer {... */\n      0x60\n      shl\n      not(sub(shl(0x60, 0x01), 0x01))\n      and\n        /* \"contracts/GameRoom.sol\":6023:6029  gameId */\n      immutable(\"0x4dfb3440902001bce9b7ebf7be7d95fe9e2056bd5ce309ceb83b32f4e00e21ed\")\n        /* \"contracts/GameRoom.sol\":5878:5879  0 */\n      0x00\n        /* \"contracts/GameRoom.sol\":5901:5904  i++ */\n    tag_486:\n        /* \"contracts/GameRoom.sol\":5885:5892  players */\n      0x10\n        /* \"contracts/GameRoom.sol\":173:12583  contract GameRoom is OptionalVRFConsumer {... */\n      sload\n        /* \"contracts/GameRoom.sol\":5881:5899  i < players.length */\n      dup2\n      lt\n      iszero\n      tag_487\n      jumpi\n        /* \"contracts/GameRoom.sol\":5885:5892  players */\n      0x10\n        /* \"contracts/GameRoom.sol\":5878:5879  0 */\n      0x00\n        /* \"contracts/GameRoom.sol\":173:12583  contract GameRoom is OptionalVRFConsumer {... */\n      mstore\n      0x00\n      dup1\n      mload\n      0x20\n      data_cf80bc4621d0751d813b5c62e01b0e17c015a240bacef8447cd784f3f77be164\n      dup4\n      codecopy\n      dup2\n      mload\n      swap2\n      mstore\n      dup2\n      add\n      sload\n      0x40\n      dup1\n      mload\n      0x20\n        /* \"contracts/GameRoom.sol\":5997:6048  abi.encodePacked(entropy, gameId, address(this), p) */\n      dup2\n      add\n        /* \"contracts/GameRoom.sol\":173:12583  contract GameRoom is OptionalVRFConsumer {... */\n      dup9\n      dup2\n      mstore\n      swap2\n      dup2\n      add\n      dup6\n      swap1\n      mstore\n      0x60\n      dup1\n      dup3\n      add\n      dup8\n      swap1\n      mstore\n      dup4\n      swap1\n      shl\n      not(sub(shl(0x60, 0x01), 0x01))\n      and\n      0x74\n      dup3\n      add\n      mstore\n      0x68\n        /* \"contracts/GameRoom.sol\":5997:6048  abi.encodePacked(entropy, gameId, address(this), p) */\n      dup2\n      mstore\n        /* \"contracts/GameRoom.sol\":173:12583  contract GameRoom is OptionalVRFConsumer {... */\n      0x01\n      swap4\n      swap3\n      sub(shl(0xa0, 0x01), 0x01)\n      and\n      swap2\n        /* \"contracts/GameRoom.sol\":5958:5976  handDisplaySeed[p] */\n      tag_489\n      swap2\n        /* \"contracts/GameRoom.sol\":5997:6048  abi.encodePacked(entropy, gameId, address(this), p) */\n      tag_490\n        /* \"contracts/GameRoom.sol\":173:12583  contract GameRoom is OptionalVRFConsumer {... */\n      0x88\n      dup3\n        /* \"contracts/GameRoom.sol\":5997:6048  abi.encodePacked(entropy, gameId, address(this), p) */\n      tag_9\n      jump\t// in\n    tag_490:\n        /* \"contracts/GameRoom.sol\":173:12583  contract GameRoom is OptionalVRFConsumer {... */\n      mload\n        /* \"contracts/GameRoom.sol\":5987:6049  keccak256(abi.encodePacked(entropy, gameId, address(this), p)) */\n      swap1\n      keccak256\n      sub(shl(0xa0, 0x01), 0x01)\n        /* \"contracts/GameRoom.sol\":173:12583  contract GameRoom is OptionalVRFConsumer {... */\n      swap1\n      swap3\n      and\n      0x00\n      swap1\n      dup2\n      mstore\n        /* \"contracts/GameRoom.sol\":5958:5973  handDisplaySeed */\n      0x13\n        /* \"contracts/GameRoom.sol\":173:12583  contract GameRoom is OptionalVRFConsumer {... */\n      0x20\n      mstore\n      0x40\n      swap1\n      keccak256\n      swap1\n      jump\n        /* \"contracts/GameRoom.sol\":5958:5976  handDisplaySeed[p] */\n    tag_489:\n        /* \"contracts/GameRoom.sol\":173:12583  contract GameRoom is OptionalVRFConsumer {... */\n      sstore\n      add\n        /* \"contracts/GameRoom.sol\":5869:5879  uint i = 0 */\n      jump(tag_486)\n        /* \"contracts/GameRoom.sol\":5881:5899  i < players.length */\n    tag_487:\n      pop\n      pop\n      pop\n      swap1\n      pop\n        /* \"contracts/GameRoom.sol\":5797:6069  function _setHandDisplaySeeds(uint256 entropy) internal {... */\n      jump\t// out\n        /* \"contracts/GameRoom.sol\":9956:10147  function _autoEliminate(address player, uint8 idx) internal {... */\n    tag_85:\n        /* \"contracts/GameRoom.sol\":173:12583  contract GameRoom is OptionalVRFConsumer {... */\n      0x01\n      dup1\n      0xa0\n      shl\n      sub\n      and\n      swap1\n      dup2\n      0x00\n      mstore\n        /* \"contracts/GameRoom.sol\":10038:10048  playerData */\n      0x11\n        /* \"contracts/GameRoom.sol\":173:12583  contract GameRoom is OptionalVRFConsumer {... */\n      0x20\n      mstore\n        /* \"contracts/GameRoom.sol\":10038:10071  playerData[player].handCards[idx] */\n      tag_491\n        /* \"contracts/GameRoom.sol\":173:12583  contract GameRoom is OptionalVRFConsumer {... */\n      dup2\n        /* \"contracts/GameRoom.sol\":10038:10066  playerData[player].handCards */\n      0x03\n        /* \"contracts/GameRoom.sol\":173:12583  contract GameRoom is OptionalVRFConsumer {... */\n      keccak256(0x00, 0x40)\n        /* \"contracts/GameRoom.sol\":10038:10066  playerData[player].handCards */\n      add\n        /* \"contracts/GameRoom.sol\":10038:10071  playerData[player].handCards[idx] */\n      tag_59\n      jump\t// in\n    tag_491:\n        /* \"contracts/GameRoom.sol\":173:12583  contract GameRoom is OptionalVRFConsumer {... */\n      swap1\n      sload\n      swap1\n        /* \"contracts/GameRoom.sol\":10038:10066  playerData[player].handCards */\n      0x03\n        /* \"contracts/GameRoom.sol\":173:12583  contract GameRoom is OptionalVRFConsumer {... */\n      shl\n      shr\n        /* \"contracts/GameRoom.sol\":10086:10094  cnt >= 2 */\n      swap1\n        /* \"contracts/GameRoom.sol\":10093:10094  2 */\n      0x02\n        /* \"contracts/GameRoom.sol\":10086:10094  cnt >= 2 */\n      dup3\n      lt\n      iszero\n        /* \"contracts/GameRoom.sol\":10082:10139  if (cnt >= 2) playerData[player].handCards[idx] = cnt % 2 */\n      tag_492\n      jumpi\n        /* \"contracts/GameRoom.sol\":9956:10147  function _autoEliminate(address player, uint8 idx) internal {... */\n      pop\n      pop\n      pop\n      jump\t// out\n        /* \"contracts/GameRoom.sol\":10082:10139  if (cnt >= 2) playerData[player].handCards[idx] = cnt % 2 */\n    tag_492:\n        /* \"contracts/GameRoom.sol\":10096:10129  playerData[player].handCards[idx] */\n      tag_494\n        /* \"contracts/GameRoom.sol\":173:12583  contract GameRoom is OptionalVRFConsumer {... */\n      0x01\n      swap2\n        /* \"contracts/GameRoom.sol\":10096:10139  playerData[player].handCards[idx] = cnt % 2 */\n      tag_495\n        /* \"contracts/GameRoom.sol\":173:12583  contract GameRoom is OptionalVRFConsumer {... */\n      swap5\n      0x00\n      mstore\n        /* \"contracts/GameRoom.sol\":10038:10048  playerData */\n      0x11\n        /* \"contracts/GameRoom.sol\":173:12583  contract GameRoom is OptionalVRFConsumer {... */\n      0x20\n      mstore\n        /* \"contracts/GameRoom.sol\":10038:10066  playerData[player].handCards */\n      0x03\n        /* \"contracts/GameRoom.sol\":173:12583  contract GameRoom is OptionalVRFConsumer {... */\n      keccak256(0x00, 0x40)\n        /* \"contracts/GameRoom.sol\":10096:10124  playerData[player].handCards */\n      add\n        /* \"contracts/GameRoom.sol\":10096:10129  playerData[player].handCards[idx] */\n      tag_59\n      jump\t// in\n    tag_494:\n        /* \"contracts/GameRoom.sol\":173:12583  contract GameRoom is OptionalVRFConsumer {... */\n      swap2\n      swap1\n      swap3\n      and\n      swap1\n      dup3\n      sload\n      swap1\n      0x03\n      shl\n      swap2\n      dup3\n      shl\n      swap2\n      not(0x00)\n      swap1\n      shl\n      not\n      and\n      or\n      swap1\n      sstore\n      jump\n        /* \"contracts/GameRoom.sol\":10096:10139  playerData[player].handCards[idx] = cnt % 2 */\n    tag_495:\n        /* \"contracts/GameRoom.sol\":9956:10147  function _autoEliminate(address player, uint8 idx) internal {... */\n      jump\t// out\n        /* \"contracts/GameRoom.sol\":10155:10308  function _nextTurn() internal {... */\n    tag_86:\n        /* \"contracts/GameRoom.sol\":10200:10207  players */\n      0x10\n        /* \"contracts/GameRoom.sol\":173:12583  contract GameRoom is OptionalVRFConsumer {... */\n      sload\n        /* \"contracts/GameRoom.sol\":10200:10219  players.length == 0 */\n      dup1\n      iszero\n        /* \"contracts/GameRoom.sol\":10196:10228  if (players.length == 0) return; */\n      tag_496\n      jumpi\n        /* \"contracts/GameRoom.sol\":10260:10278  currentPlayerIndex */\n      0x12\n        /* \"contracts/GameRoom.sol\":173:12583  contract GameRoom is OptionalVRFConsumer {... */\n      sload\n      swap1\n        /* \"contracts/GameRoom.sol\":10281:10282  1 */\n      0x01\n        /* \"contracts/GameRoom.sol\":173:12583  contract GameRoom is OptionalVRFConsumer {... */\n      dup3\n      add\n      dup1\n      swap3\n      gt\n      tag_386\n      jumpi\n        /* \"contracts/GameRoom.sol\":10259:10300  (currentPlayerIndex + 1) % players.length */\n      tag_500\n      swap2\n      tag_50\n      jump\t// in\n    tag_500:\n        /* \"contracts/GameRoom.sol\":10260:10278  currentPlayerIndex */\n      0x12\n        /* \"contracts/GameRoom.sol\":173:12583  contract GameRoom is OptionalVRFConsumer {... */\n      sstore\n        /* \"contracts/GameRoom.sol\":10155:10308  function _nextTurn() internal {... */\n      jump\t// out\n        /* \"contracts/GameRoom.sol\":10196:10228  if (players.length == 0) return; */\n    tag_496:\n        /* \"contracts/GameRoom.sol\":10221:10228  return; */\n      pop\n      jump\t// out\n        /* \"contracts/GameRoom.sol\":10430:10754  function _allPlayersNoNumberCards() internal view returns (bool) {... */\n    tag_87:\n        /* \"contracts/GameRoom.sol\":10527:10534  players */\n      0x10\n        /* \"contracts/GameRoom.sol\":173:12583  contract GameRoom is OptionalVRFConsumer {... */\n      sload\n      0x00\n        /* \"contracts/GameRoom.sol\":10523:10541  i < players.length */\n    tag_501:\n      dup2\n      dup2\n      lt\n      tag_502\n      jumpi\n        /* \"contracts/GameRoom.sol\":10735:10746  return true */\n      pop\n      pop\n        /* \"contracts/GameRoom.sol\":173:12583  contract GameRoom is OptionalVRFConsumer {... */\n      0x01\n        /* \"contracts/GameRoom.sol\":10430:10754  function _allPlayersNoNumberCards() internal view returns (bool) {... */\n      swap1\n      jump\t// out\n        /* \"contracts/GameRoom.sol\":10543:10546  i++ */\n    tag_502:\n        /* \"contracts/GameRoom.sol\":173:12583  contract GameRoom is OptionalVRFConsumer {... */\n      tag_504\n        /* \"contracts/GameRoom.sol\":10575:10585  players[i] */\n      tag_258\n      dup3\n      tag_37\n      jump\t// in\n        /* \"contracts/GameRoom.sol\":173:12583  contract GameRoom is OptionalVRFConsumer {... */\n    tag_504:\n      0x00\n        /* \"contracts/GameRoom.sol\":10618:10624  j < 10 */\n    tag_506:\n        /* \"contracts/GameRoom.sol\":10622:10624  10 */\n      0x0a\n        /* \"contracts/GameRoom.sol\":173:12583  contract GameRoom is OptionalVRFConsumer {... */\n      0xff\n      dup3\n      and\n        /* \"contracts/GameRoom.sol\":10618:10624  j < 10 */\n      lt\n      tag_507\n      jumpi\n        /* \"contracts/GameRoom.sol\":10543:10546  i++ */\n      pop\n      pop\n        /* \"contracts/GameRoom.sol\":173:12583  contract GameRoom is OptionalVRFConsumer {... */\n      0x01\n      add\n        /* \"contracts/GameRoom.sol\":10511:10521  uint i = 0 */\n      jump(tag_501)\n        /* \"contracts/GameRoom.sol\":10626:10629  j++ */\n    tag_507:\n        /* \"contracts/GameRoom.sol\":173:12583  contract GameRoom is OptionalVRFConsumer {... */\n      tag_509\n        /* \"contracts/GameRoom.sol\":10654:10680  playerData[p].handCards[j] */\n      tag_289\n        /* \"contracts/GameRoom.sol\":10654:10667  playerData[p] */\n      dup3\n        /* \"contracts/GameRoom.sol\":10654:10677  playerData[p].handCards */\n      0x03\n        /* \"contracts/GameRoom.sol\":10654:10667  playerData[p] */\n      tag_290\n      dup7\n        /* \"contracts/GameRoom.sol\":173:12583  contract GameRoom is OptionalVRFConsumer {... */\n      0x01\n      dup1\n      0xa0\n      shl\n      sub\n      and\n      0x00\n      mstore\n        /* \"contracts/GameRoom.sol\":9098:9108  playerData */\n      0x11\n        /* \"contracts/GameRoom.sol\":173:12583  contract GameRoom is OptionalVRFConsumer {... */\n      0x20\n      mstore\n      keccak256(0x00, 0x40)\n      swap1\n      jump\n    tag_509:\n        /* \"contracts/GameRoom.sol\":10650:10698  if (playerData[p].handCards[j] > 0) return false */\n      tag_512\n      jumpi\n        /* \"contracts/GameRoom.sol\":173:12583  contract GameRoom is OptionalVRFConsumer {... */\n      0x01\n      add\n      0xff\n      and\n        /* \"contracts/GameRoom.sol\":10605:10616  uint8 j = 0 */\n      jump(tag_506)\n        /* \"contracts/GameRoom.sol\":10650:10698  if (playerData[p].handCards[j] > 0) return false */\n    tag_512:\n        /* \"contracts/GameRoom.sol\":10686:10698  return false */\n      pop\n      pop\n      pop\n      pop\n        /* \"contracts/GameRoom.sol\":173:12583  contract GameRoom is OptionalVRFConsumer {... */\n      0x00\n        /* \"contracts/GameRoom.sol\":10686:10698  return false */\n      swap1\n      jump\t// out\n        /* \"contracts/GameRoom.sol\":173:12583  contract GameRoom is OptionalVRFConsumer {... */\n    tag_88:\n      swap1\n      tag_514\n      dup3\n      tag_10\n      jump\t// in\n    tag_514:\n      tag_515\n      mload(0x40)\n      swap2\n      dup3\n      tag_9\n      jump\t// in\n    tag_515:\n      dup3\n      dup2\n      mstore\n      dup1\n      swap3\n      tag_516\n      not(0x1f)\n      swap2\n      tag_10\n      jump\t// in\n    tag_516:\n      add\n      swap1\n      0x20\n      calldatasize\n      swap2\n      add\n      calldatacopy\n      jump\t// out\n    tag_90:\n      iszero\n      tag_517\n      jumpi\n      jump\t// out\n    tag_517:\n      mload(0x40)\n      shl(0xe5, 0x461bcd)\n      dup2\n      mstore\n      0x20\n      0x04\n      dup3\n      add\n      mstore\n      0x08\n      0x24\n      dup3\n      add\n      mstore\n      shl(0xc0, 0x2177696e6e657273)\n      0x44\n      dup3\n      add\n      mstore\n      0x64\n      swap1\n      revert\n    tag_91:\n      jumpi(tag_519, iszero(returndatasize))\n      returndatasize\n      swap1\n      0xffffffffffffffff\n      dup3\n      gt\n      tag_156\n      jumpi\n      mload(0x40)\n      swap2\n      tag_523\n      0x1f\n      dup3\n      add\n      not(0x1f)\n      and\n      0x20\n      add\n      dup5\n      tag_9\n      jump\t// in\n    tag_523:\n      dup3\n      mstore\n      returndatasize\n      0x00\n      0x20\n      dup5\n      add\n      returndatacopy\n      jump\t// out\n    tag_519:\n      0x60\n      swap1\n      jump\t// out\n    tag_92:\n      iszero\n      tag_525\n      jumpi\n      jump\t// out\n    tag_525:\n      mload(0x40)\n      shl(0xe5, 0x461bcd)\n      dup2\n      mstore\n      0x20\n      0x04\n      dup3\n      add\n      mstore\n      0x09\n      0x24\n      dup3\n      add\n      mstore\n      shl(0xb9, 0x10ba3930b739b332b9)\n      0x44\n      dup3\n      add\n      mstore\n      0x64\n      swap1\n      revert\n    tag_93:\n      swap2\n      tag_527\n      swap1\n      tag_218\n      swap5\n      swap3\n      dup5\n      mstore\n      0x60\n      0x20\n      dup6\n      add\n      mstore\n      0x60\n      dup5\n      add\n      swap1\n      tag_22\n      jump\t// in\n    tag_527:\n      swap2\n      0x40\n      dup2\n      dup5\n      sub\n      swap2\n      add\n      mstore\n      tag_22\n      jump\t// in\n    tag_94:\n      mload(0x40)\n      returndatasize\n      0x00\n      dup3\n      returndatacopy\n      returndatasize\n      swap1\n      revert\n    tag_95:\n      swap1\n      swap2\n      tag_529\n      tag_218\n      swap4\n      0x40\n      dup5\n      mstore\n      0x40\n      dup5\n      add\n      swap1\n      tag_22\n      jump\t// in\n    tag_529:\n      swap2\n      0x20\n      dup2\n      dup5\n      sub\n      swap2\n      add\n      mstore\n      tag_22\n      jump\t// in\n        /* \"contracts/GameRoom.sol\":10762:11588  function _endGame() internal {... */\n    tag_96:\n        /* \"contracts/GameRoom.sol\":10802:10829  gameState = GameState.ENDED */\n      tag_531\n        /* \"contracts/GameRoom.sol\":10814:10829  GameState.ENDED */\n      0x03\n        /* \"contracts/GameRoom.sol\":173:12583  contract GameRoom is OptionalVRFConsumer {... */\n      not(0xff)\n        /* \"contracts/GameRoom.sol\":10802:10829  gameState = GameState.ENDED */\n      0x0f\n        /* \"contracts/GameRoom.sol\":173:12583  contract GameRoom is OptionalVRFConsumer {... */\n      sload\n      and\n      or\n        /* \"contracts/GameRoom.sol\":10802:10829  gameState = GameState.ENDED */\n      0x0f\n        /* \"contracts/GameRoom.sol\":173:12583  contract GameRoom is OptionalVRFConsumer {... */\n      sstore\n      jump\n        /* \"contracts/GameRoom.sol\":10802:10829  gameState = GameState.ENDED */\n    tag_531:\n        /* \"contracts/GameRoom.sol\":10882:10889  players */\n      0x10\n        /* \"contracts/GameRoom.sol\":173:12583  contract GameRoom is OptionalVRFConsumer {... */\n      sload\n        /* \"contracts/GameRoom.sol\":10868:10897  new address[](players.length) */\n      tag_532\n      dup2\n      tag_88\n      jump\t// in\n    tag_532:\n        /* \"contracts/GameRoom.sol\":10935:10964  new address[](players.length) */\n      swap1\n      tag_533\n      dup2\n      tag_88\n      jump\t// in\n    tag_533:\n        /* \"contracts/GameRoom.sol\":10975:10981  uint l */\n      swap1\n      0x00\n      dup1\n        /* \"contracts/GameRoom.sol\":11016:11026  uint i = 0 */\n      swap2\n      0x00\n        /* \"contracts/GameRoom.sol\":11028:11046  i < players.length */\n    tag_534:\n      dup2\n      dup2\n      lt\n      tag_535\n      jumpi\n      pop\n      pop\n        /* \"contracts/GameRoom.sol\":11214:11298  assembly {... */\n      dup4\n      mstore\n      dup1\n      dup3\n      mstore\n        /* \"contracts/GameRoom.sol\":11310:11336  require(w > 0, \"!winners\") */\n      tag_537\n      swap1\n        /* \"contracts/GameRoom.sol\":11318:11323  w > 0 */\n      iszero\n      iszero\n        /* \"contracts/GameRoom.sol\":11310:11336  require(w > 0, \"!winners\") */\n      tag_90\n      jump\t// in\n    tag_537:\n        /* \"contracts/GameRoom.sol\":11373:11385  stakingVault */\n      immutable(\"0xc47ece0ffae697632ce145a7086cbcf260f7fa60876ff2606761ea2b7581ee76\")\n      sub(shl(0xa0, 0x01), 0x01)\n        /* \"contracts/GameRoom.sol\":173:12583  contract GameRoom is OptionalVRFConsumer {... */\n      and\n      swap1\n        /* \"contracts/GameRoom.sol\":11436:11462  require(sent, \"!transfer\") */\n      tag_538\n      0x00\n      dup1\n      dup1\n      dup1\n        /* \"contracts/GameRoom.sol\":11399:11420  address(this).balance */\n      selfbalance\n        /* \"contracts/GameRoom.sol\":173:12583  contract GameRoom is OptionalVRFConsumer {... */\n      dup8\n        /* \"contracts/GameRoom.sol\":11365:11425  address(stakingVault).call{value: address(this).balance}(\"\") */\n      gas\n      call\n      tag_539\n      tag_91\n      jump\t// in\n    tag_539:\n      pop\n        /* \"contracts/GameRoom.sol\":11436:11462  require(sent, \"!transfer\") */\n      tag_92\n      jump\t// in\n    tag_538:\n        /* \"contracts/GameRoom.sol\":11506:11512  gameId */\n      immutable(\"0x4dfb3440902001bce9b7ebf7be7d95fe9e2056bd5ce309ceb83b32f4e00e21ed\")\n        /* \"contracts/GameRoom.sol\":11475:11530  stakingVault.distributeRewards(gameId, winners, losers) */\n      swap3\n      dup3\n      extcodesize\n      iszero\n      tag_149\n      jumpi\n      0x00\n        /* \"contracts/GameRoom.sol\":173:12583  contract GameRoom is OptionalVRFConsumer {... */\n      mload(0x40)\n      dup1\n      swap5\n      shl(0xe1, 0x39511141)\n        /* \"contracts/GameRoom.sol\":11475:11530  stakingVault.distributeRewards(gameId, winners, losers) */\n      dup3\n      mstore\n      dup2\n      dup4\n      dup2\n      tag_542\n      dup8\n      dup10\n      dup13\n      0x04\n      dup6\n      add\n      tag_93\n      jump\t// in\n    tag_542:\n      sub\n      swap3\n      gas\n      call\n      swap3\n      dup4\n      iszero\n      tag_543\n      jumpi\n        /* \"contracts/GameRoom.sol\":11546:11580  GameEnded(gameId, losers, winners) */\n      0xec9076d3d1e4910861e8852ef3e8820904b6868d2e5c85563e5c82f45c776d1f\n        /* \"contracts/GameRoom.sol\":11475:11530  stakingVault.distributeRewards(gameId, winners, losers) */\n      swap4\n      tag_545\n      jumpi\n        /* \"contracts/GameRoom.sol\":11011:11202  for (uint i = 0; i < players.length; i++) {... */\n    tag_546:\n        /* \"contracts/GameRoom.sol\":173:12583  contract GameRoom is OptionalVRFConsumer {... */\n      pop\n        /* \"contracts/GameRoom.sol\":11546:11580  GameEnded(gameId, losers, winners) */\n      tag_547\n        /* \"contracts/GameRoom.sol\":173:12583  contract GameRoom is OptionalVRFConsumer {... */\n      mload(0x40)\n        /* \"contracts/GameRoom.sol\":11546:11580  GameEnded(gameId, losers, winners) */\n      swap3\n      dup4\n      swap3\n      dup4\n      tag_95\n      jump\t// in\n    tag_547:\n      sub\n      swap1\n      log2\n        /* \"contracts/GameRoom.sol\":10762:11588  function _endGame() internal {... */\n      jump\t// out\n        /* \"contracts/GameRoom.sol\":11475:11530  stakingVault.distributeRewards(gameId, winners, losers) */\n    tag_545:\n      dup1\n      tag_548\n      0x00\n      tag_549\n      swap4\n      tag_9\n      jump\t// in\n    tag_548:\n      dup1\n      tag_12\n      jump\t// in\n    tag_549:\n      0x00\n      jump(tag_546)\n    tag_543:\n      tag_94\n      jump\t// in\n        /* \"contracts/GameRoom.sol\":11048:11051  i++ */\n    tag_535:\n        /* \"contracts/GameRoom.sol\":11080:11090  players[i] */\n      dup1\n        /* \"contracts/GameRoom.sol\":173:12583  contract GameRoom is OptionalVRFConsumer {... */\n      tag_550\n        /* \"contracts/GameRoom.sol\":11080:11090  players[i] */\n      tag_258\n        /* \"contracts/GameRoom.sol\":173:12583  contract GameRoom is OptionalVRFConsumer {... */\n      0x01\n        /* \"contracts/GameRoom.sol\":11080:11090  players[i] */\n      swap4\n      tag_37\n      jump\t// in\n        /* \"contracts/GameRoom.sol\":173:12583  contract GameRoom is OptionalVRFConsumer {... */\n    tag_550:\n      sub(shl(0xa0, 0x01), 0x01)\n      dup2\n      and\n      0x00\n      swap1\n      dup2\n      mstore\n        /* \"contracts/GameRoom.sol\":9098:9108  playerData */\n      0x11\n        /* \"contracts/GameRoom.sol\":173:12583  contract GameRoom is OptionalVRFConsumer {... */\n      0x20\n      mstore\n      0x40\n      swap1\n      keccak256\n        /* \"contracts/GameRoom.sol\":11109:11133  playerData[p].jokerCount */\n      0x0d\n      add\n        /* \"contracts/GameRoom.sol\":173:12583  contract GameRoom is OptionalVRFConsumer {... */\n      sload\n        /* \"contracts/GameRoom.sol\":11109:11137  playerData[p].jokerCount > 0 */\n      iszero\n        /* \"contracts/GameRoom.sol\":11109:11133  playerData[p].jokerCount */\n      tag_553\n      jumpi\n        /* \"contracts/GameRoom.sol\":11139:11154  losers[l++] = p */\n      tag_555\n        /* \"contracts/GameRoom.sol\":11146:11149  l++ */\n      swap1\n        /* \"contracts/GameRoom.sol\":11139:11154  losers[l++] = p */\n      tag_556\n        /* \"contracts/GameRoom.sol\":11146:11149  l++ */\n      tag_557\n      dup8\n      tag_63\n      jump\t// in\n    tag_557:\n        /* \"contracts/GameRoom.sol\":11139:11154  losers[l++] = p */\n      swap7\n      dup11\n      tag_80\n      jump\t// in\n    tag_556:\n      sub(shl(0xa0, 0x01), 0x01)\n        /* \"contracts/GameRoom.sol\":173:12583  contract GameRoom is OptionalVRFConsumer {... */\n      swap1\n      swap2\n      and\n      swap1\n      mstore\n      jump\n        /* \"contracts/GameRoom.sol\":11139:11154  losers[l++] = p */\n    tag_555:\n        /* \"contracts/GameRoom.sol\":173:12583  contract GameRoom is OptionalVRFConsumer {... */\n      add\n        /* \"contracts/GameRoom.sol\":11016:11026  uint i = 0 */\n      jump(tag_534)\n        /* \"contracts/GameRoom.sol\":11105:11190  if (playerData[p].jokerCount > 0) losers[l++] = p;... */\n    tag_553:\n        /* \"contracts/GameRoom.sol\":11174:11190  winners[w++] = p */\n      tag_559\n        /* \"contracts/GameRoom.sol\":11182:11185  w++ */\n      swap1\n        /* \"contracts/GameRoom.sol\":11174:11190  winners[w++] = p */\n      tag_556\n        /* \"contracts/GameRoom.sol\":11182:11185  w++ */\n      tag_561\n      dup9\n      tag_63\n      jump\t// in\n    tag_561:\n        /* \"contracts/GameRoom.sol\":11174:11190  winners[w++] = p */\n      swap8\n      dup10\n      tag_80\n      jump\t// in\n    tag_559:\n        /* \"contracts/GameRoom.sol\":11105:11190  if (playerData[p].jokerCount > 0) losers[l++] = p;... */\n      jump(tag_555)\n        /* \"contracts/GameRoom.sol\":173:12583  contract GameRoom is OptionalVRFConsumer {... */\n    tag_97:\n      iszero\n      tag_562\n      jumpi\n      jump\t// out\n    tag_562:\n      mload(0x40)\n      shl(0xe5, 0x461bcd)\n      dup2\n      mstore\n      0x20\n      0x04\n      dup3\n      add\n      mstore\n      0x07\n      0x24\n      dup3\n      add\n      mstore\n      shl(0xcb, 0x042cadcdeeaced)\n      0x44\n      dup3\n      add\n      mstore\n      0x64\n      swap1\n      revert\n    tag_100:\n      swap1\n      dup2\n      0x20\n      swap2\n      sub\n      slt\n      tag_149\n      jumpi\n      mload\n      swap1\n      jump\t// out\n        /* \"contracts/GameRoom.sol\":3934:5002  function _beginStartSequence() internal {... */\n    tag_102:\n        /* \"contracts/GameRoom.sol\":3985:4040  require(players.length >= config.minPlayers, \"!enough\") */\n      tag_566\n        /* \"contracts/GameRoom.sol\":3993:4000  players */\n      0x10\n        /* \"contracts/GameRoom.sol\":173:12583  contract GameRoom is OptionalVRFConsumer {... */\n      sload\n        /* \"contracts/GameRoom.sol\":4011:4017  config */\n      0x00\n        /* \"contracts/GameRoom.sol\":173:12583  contract GameRoom is OptionalVRFConsumer {... */\n      sload\n      gt\n        /* \"contracts/GameRoom.sol\":3993:4028  players.length >= config.minPlayers */\n      iszero\n        /* \"contracts/GameRoom.sol\":3985:4040  require(players.length >= config.minPlayers, \"!enough\") */\n      tag_97\n      jump\t// in\n    tag_566:\n        /* \"contracts/GameRoom.sol\":4055:4069  vrfCoordinator */\n      immutable(\"0x402da2643d2882cfb54c248cd4dee7c1bffd32cdb3f0ac805147e460c893de46\")\n      sub(shl(0xa0, 0x01), 0x01)\n        /* \"contracts/GameRoom.sol\":173:12583  contract GameRoom is OptionalVRFConsumer {... */\n      and\n        /* \"contracts/GameRoom.sol\":4055:4083  vrfCoordinator != address(0) */\n      dup1\n      iszero\n        /* \"contracts/GameRoom.sol\":173:12583  contract GameRoom is OptionalVRFConsumer {... */\n      tag_567\n      jumpi\n        /* \"contracts/GameRoom.sol\":4100:4129  gameState = GameState.DEALING */\n      tag_569\n        /* \"contracts/GameRoom.sol\":4519:4536  GameState.DEALING */\n      0x01\n        /* \"contracts/GameRoom.sol\":173:12583  contract GameRoom is OptionalVRFConsumer {... */\n      not(0xff)\n        /* \"contracts/GameRoom.sol\":4507:4536  gameState = GameState.DEALING */\n      0x0f\n        /* \"contracts/GameRoom.sol\":173:12583  contract GameRoom is OptionalVRFConsumer {... */\n      sload\n      and\n      or\n        /* \"contracts/GameRoom.sol\":4507:4536  gameState = GameState.DEALING */\n      0x0f\n        /* \"contracts/GameRoom.sol\":173:12583  contract GameRoom is OptionalVRFConsumer {... */\n      sstore\n      jump\n        /* \"contracts/GameRoom.sol\":4100:4129  gameState = GameState.DEALING */\n    tag_569:\n        /* \"contracts/GameRoom.sol\":173:12583  contract GameRoom is OptionalVRFConsumer {... */\n      mload(0x40)\n      shl(0xe4, 0x05d3b1d3)\n        /* \"contracts/GameRoom.sol\":4164:4387  IVRFCoordinatorV2(vrfCoordinator).requestRandomWords(... */\n      dup2\n      mstore\n        /* \"contracts/GameRoom.sol\":4235:4245  vrfKeyHash */\n      immutable(\"0x0ebc877309c1bf2495e19dc89ce6d0394efe88484e138f94a7362d165dc842e1\")\n        /* \"contracts/GameRoom.sol\":4164:4387  IVRFCoordinatorV2(vrfCoordinator).requestRandomWords(... */\n      0x04\n      dup3\n      add\n        /* \"contracts/GameRoom.sol\":173:12583  contract GameRoom is OptionalVRFConsumer {... */\n      mstore\n        /* \"contracts/GameRoom.sol\":4264:4272  vrfSubId */\n      immutable(\"0xe172843da7b98c81b741b541207c2ddf4bf89aae68613553734f596915c8ec05\")\n        /* \"contracts/GameRoom.sol\":173:12583  contract GameRoom is OptionalVRFConsumer {... */\n      0xffffffffffffffff\n      and\n      0x24\n      dup3\n      add\n      mstore\n        /* \"contracts/GameRoom.sol\":4291:4314  vrfRequestConfirmations */\n      immutable(\"0x0241eee36f58119b9c1050d8921d8de7fb40f4e0b0206ad64824c0b39c768a66\")\n        /* \"contracts/GameRoom.sol\":173:12583  contract GameRoom is OptionalVRFConsumer {... */\n      0xffff\n      and\n      0x44\n      dup3\n      add\n      mstore\n        /* \"contracts/GameRoom.sol\":4333:4352  vrfCallbackGasLimit */\n      immutable(\"0xc188f18e75b82a2126438825d5b1474b240600ee888a81fcefa05cf1b4c30b2a\")\n        /* \"contracts/GameRoom.sol\":173:12583  contract GameRoom is OptionalVRFConsumer {... */\n      0xffffffff\n      and\n      0x64\n      dup3\n      add\n      mstore\n        /* \"contracts/GameRoom.sol\":4112:4129  GameState.DEALING */\n      0x01\n        /* \"contracts/GameRoom.sol\":173:12583  contract GameRoom is OptionalVRFConsumer {... */\n      0x84\n      dup3\n      add\n      mstore\n      swap1\n        /* \"contracts/GameRoom.sol\":4164:4387  IVRFCoordinatorV2(vrfCoordinator).requestRandomWords(... */\n      0x20\n      swap1\n        /* \"contracts/GameRoom.sol\":173:12583  contract GameRoom is OptionalVRFConsumer {... */\n      dup3\n      swap1\n      0xa4\n      swap1\n      dup3\n      swap1\n      0x00\n      swap1\n        /* \"contracts/GameRoom.sol\":4164:4387  IVRFCoordinatorV2(vrfCoordinator).requestRandomWords(... */\n      gas\n      call\n      swap1\n      dup2\n      iszero\n      tag_543\n      jumpi\n        /* \"contracts/GameRoom.sol\":4011:4017  config */\n      0x00\n        /* \"contracts/GameRoom.sol\":4164:4387  IVRFCoordinatorV2(vrfCoordinator).requestRandomWords(... */\n      swap2\n      tag_573\n      jumpi\n        /* \"contracts/GameRoom.sol\":4051:4995  if (vrfCoordinator != address(0)) {... */\n    tag_574:\n      pop\n        /* \"contracts/GameRoom.sol\":173:12583  contract GameRoom is OptionalVRFConsumer {... */\n      mload(0x40)\n      swap1\n      dup2\n      mstore\n        /* \"contracts/GameRoom.sol\":4426:4432  gameId */\n      immutable(\"0x4dfb3440902001bce9b7ebf7be7d95fe9e2056bd5ce309ceb83b32f4e00e21ed\")\n      swap1\n        /* \"contracts/GameRoom.sol\":4407:4444  VrfRandomRequested(gameId, requestId) */\n      0xebd9e8fb61fd5a6473b57d787d7ea3595ba98407bd8c0d74d9b0a5d666aa8d8a\n      swap1\n        /* \"contracts/GameRoom.sol\":173:12583  contract GameRoom is OptionalVRFConsumer {... */\n      dup1\n      0x20\n      dup2\n      add\n        /* \"contracts/GameRoom.sol\":4407:4444  VrfRandomRequested(gameId, requestId) */\n      tag_547\n        /* \"contracts/GameRoom.sol\":173:12583  contract GameRoom is OptionalVRFConsumer {... */\n      jump\n        /* \"contracts/GameRoom.sol\":4164:4387  IVRFCoordinatorV2(vrfCoordinator).requestRandomWords(... */\n    tag_573:\n      tag_577\n      swap2\n      pop\n      0x20\n      jumpi(tag_578, gt(0x20, returndatasize))\n    tag_579:\n      tag_580\n      dup2\n      dup4\n      tag_9\n      jump\t// in\n    tag_580:\n      dup2\n      add\n      swap1\n      tag_100\n      jump\t// in\n    tag_577:\n      0x00\n      jump(tag_574)\n    tag_578:\n      pop\n      returndatasize\n      jump(tag_579)\n        /* \"contracts/GameRoom.sol\":4051:4995  if (vrfCoordinator != address(0)) {... */\n    tag_567:\n      pop\n        /* \"contracts/GameRoom.sol\":4466:4476  ecvrfRelay */\n      immutable(\"0xe921da22f871c25c63f06c1365385cbb26397f64f79055cdbab32187a9377d16\")\n      sub(shl(0xa0, 0x01), 0x01)\n        /* \"contracts/GameRoom.sol\":173:12583  contract GameRoom is OptionalVRFConsumer {... */\n      and\n        /* \"contracts/GameRoom.sol\":4466:4490  ecvrfRelay != address(0) */\n      iszero\n        /* \"contracts/GameRoom.sol\":173:12583  contract GameRoom is OptionalVRFConsumer {... */\n      tag_581\n      jumpi\n        /* \"contracts/GameRoom.sol\":4507:4536  gameState = GameState.DEALING */\n      tag_583\n        /* \"contracts/GameRoom.sol\":4519:4536  GameState.DEALING */\n      0x01\n        /* \"contracts/GameRoom.sol\":173:12583  contract GameRoom is OptionalVRFConsumer {... */\n      not(0xff)\n        /* \"contracts/GameRoom.sol\":4507:4536  gameState = GameState.DEALING */\n      0x0f\n        /* \"contracts/GameRoom.sol\":173:12583  contract GameRoom is OptionalVRFConsumer {... */\n      sload\n      and\n      or\n        /* \"contracts/GameRoom.sol\":4507:4536  gameState = GameState.DEALING */\n      0x0f\n        /* \"contracts/GameRoom.sol\":173:12583  contract GameRoom is OptionalVRFConsumer {... */\n      sstore\n      jump\n        /* \"contracts/GameRoom.sol\":4507:4536  gameState = GameState.DEALING */\n    tag_583:\n        /* \"contracts/GameRoom.sol\":173:12583  contract GameRoom is OptionalVRFConsumer {... */\n      0x40\n      dup1\n      mload\n        /* \"contracts/GameRoom.sol\":4589:4595  gameId */\n      immutable(\"0x4dfb3440902001bce9b7ebf7be7d95fe9e2056bd5ce309ceb83b32f4e00e21ed\")\n        /* \"contracts/GameRoom.sol\":4578:4611  abi.encode(gameId, address(this)) */\n      0x20\n      dup3\n      add\n        /* \"contracts/GameRoom.sol\":173:12583  contract GameRoom is OptionalVRFConsumer {... */\n      dup2\n      dup2\n      mstore\n        /* \"contracts/GameRoom.sol\":4605:4609  this */\n      address\n        /* \"contracts/GameRoom.sol\":173:12583  contract GameRoom is OptionalVRFConsumer {... */\n      swap4\n      dup4\n      add\n      swap4\n      swap1\n      swap4\n      mstore\n        /* \"contracts/GameRoom.sol\":4589:4595  gameId */\n      swap2\n        /* \"contracts/GameRoom.sol\":4578:4611  abi.encode(gameId, address(this)) */\n      swap1\n      tag_584\n        /* \"contracts/GameRoom.sol\":173:12583  contract GameRoom is OptionalVRFConsumer {... */\n      dup2\n      0x60\n      dup2\n      add\n        /* \"contracts/GameRoom.sol\":4578:4611  abi.encode(gameId, address(this)) */\n      tag_466\n        /* \"contracts/GameRoom.sol\":173:12583  contract GameRoom is OptionalVRFConsumer {... */\n      jump\n        /* \"contracts/GameRoom.sol\":4578:4611  abi.encode(gameId, address(this)) */\n    tag_584:\n        /* \"contracts/GameRoom.sol\":173:12583  contract GameRoom is OptionalVRFConsumer {... */\n      mload\n        /* \"contracts/GameRoom.sol\":4568:4612  keccak256(abi.encode(gameId, address(this))) */\n      swap1\n      keccak256\n        /* \"contracts/GameRoom.sol\":173:12583  contract GameRoom is OptionalVRFConsumer {... */\n      mload(0x40)\n      swap1\n      dup2\n      mstore\n        /* \"contracts/GameRoom.sol\":4605:4609  this */\n      address\n      swap2\n      swap1\n        /* \"contracts/GameRoom.sol\":4632:4683  ECVRFRandomRequested(gameId, address(this), commit) */\n      0x95c8b02c7934a4bb418d4b844ca008175046665e9ddfb7903dda0ce4dd450cf0\n      swap1\n        /* \"contracts/GameRoom.sol\":173:12583  contract GameRoom is OptionalVRFConsumer {... */\n      0x20\n      swap1\n        /* \"contracts/GameRoom.sol\":4632:4683  ECVRFRandomRequested(gameId, address(this), commit) */\n      log3\n        /* \"contracts/GameRoom.sol\":3934:5002  function _beginStartSequence() internal {... */\n      jump\t// out\n        /* \"contracts/GameRoom.sol\":4462:4995  if (ecvrfRelay != address(0)) {... */\n    tag_581:\n        /* \"contracts/GameRoom.sol\":4716:4745  gameState = GameState.PLAYING */\n      tag_588\n        /* \"contracts/GameRoom.sol\":5246:5263  GameState.PLAYING */\n      0x02\n        /* \"contracts/GameRoom.sol\":173:12583  contract GameRoom is OptionalVRFConsumer {... */\n      not(0xff)\n        /* \"contracts/GameRoom.sol\":5136:5145  gameState */\n      0x0f\n        /* \"contracts/GameRoom.sol\":173:12583  contract GameRoom is OptionalVRFConsumer {... */\n      sload\n      and\n      or\n        /* \"contracts/GameRoom.sol\":5136:5145  gameState */\n      0x0f\n        /* \"contracts/GameRoom.sol\":173:12583  contract GameRoom is OptionalVRFConsumer {... */\n      sstore\n      jump\n        /* \"contracts/GameRoom.sol\":4716:4745  gameState = GameState.PLAYING */\n    tag_588:\n        /* \"contracts/GameRoom.sol\":173:12583  contract GameRoom is OptionalVRFConsumer {... */\n      0x40\n      dup1\n      mload\n        /* \"contracts/GameRoom.sol\":4813:4828  block.timestamp */\n      timestamp\n        /* \"contracts/GameRoom.sol\":4796:4852  abi.encodePacked(block.timestamp, gameId, address(this)) */\n      0x20\n      dup3\n      add\n        /* \"contracts/GameRoom.sol\":173:12583  contract GameRoom is OptionalVRFConsumer {... */\n      swap1\n      dup2\n      mstore\n        /* \"contracts/GameRoom.sol\":4830:4836  gameId */\n      immutable(\"0x4dfb3440902001bce9b7ebf7be7d95fe9e2056bd5ce309ceb83b32f4e00e21ed\")\n        /* \"contracts/GameRoom.sol\":173:12583  contract GameRoom is OptionalVRFConsumer {... */\n      swap3\n      dup3\n      add\n      dup4\n      swap1\n      mstore\n        /* \"contracts/GameRoom.sol\":4846:4850  this */\n      address\n        /* \"contracts/GameRoom.sol\":173:12583  contract GameRoom is OptionalVRFConsumer {... */\n      0x60\n      swap1\n      dup2\n      shl\n      not(sub(shl(0x60, 0x01), 0x01))\n      and\n      swap1\n      dup4\n      add\n      mstore\n        /* \"contracts/GameRoom.sol\":4936:4943  entropy */\n      tag_589\n      swap2\n        /* \"contracts/GameRoom.sol\":4796:4852  abi.encodePacked(block.timestamp, gameId, address(this)) */\n      tag_590\n        /* \"contracts/GameRoom.sol\":173:12583  contract GameRoom is OptionalVRFConsumer {... */\n      dup2\n      0x74\n      dup2\n      add\n        /* \"contracts/GameRoom.sol\":4796:4852  abi.encodePacked(block.timestamp, gameId, address(this)) */\n      tag_466\n        /* \"contracts/GameRoom.sol\":173:12583  contract GameRoom is OptionalVRFConsumer {... */\n      jump\n        /* \"contracts/GameRoom.sol\":4796:4852  abi.encodePacked(block.timestamp, gameId, address(this)) */\n    tag_590:\n        /* \"contracts/GameRoom.sol\":173:12583  contract GameRoom is OptionalVRFConsumer {... */\n      mload\n        /* \"contracts/GameRoom.sol\":4786:4853  keccak256(abi.encodePacked(block.timestamp, gameId, address(this))) */\n      swap1\n      keccak256\n        /* \"contracts/GameRoom.sol\":4760:4854  uint256 entropy = uint256(keccak256(abi.encodePacked(block.timestamp, gameId, address(this)))) */\n      tag_196\n      tag_105\n      jump\t// in\n        /* \"contracts/GameRoom.sol\":4936:4943  entropy */\n    tag_589:\n        /* \"contracts/GameRoom.sol\":4964:4983  GameStarted(gameId) */\n      0x50ad08f58a27f2851d7e3a1b3a6a46b290f2ce677e99642d30ff639721e77790\n        /* \"contracts/GameRoom.sol\":4011:4017  config */\n      0x00\n        /* \"contracts/GameRoom.sol\":4964:4983  GameStarted(gameId) */\n      dup1\n      log2\n        /* \"contracts/GameRoom.sol\":9956:10147  function _autoEliminate(address player, uint8 idx) internal {... */\n      jump\t// out\n        /* \"contracts/GameRoom.sol\":8327:8782  function _buildDeckOrdered() internal view returns (uint256[] memory) {... */\n    tag_103:\n      0x00\n      dup1\n        /* \"contracts/GameRoom.sol\":8454:8460  i < 10 */\n    tag_593:\n        /* \"contracts/GameRoom.sol\":8458:8460  10 */\n      0x0a\n        /* \"contracts/GameRoom.sol\":8454:8460  i < 10 */\n      dup3\n      lt\n      tag_594\n      jumpi\n        /* \"contracts/GameRoom.sol\":8538:8563  new uint256[](totalCards) */\n      tag_596\n      swap2\n      pop\n      tag_88\n      jump\t// in\n    tag_596:\n      0x00\n        /* \"contracts/GameRoom.sol\":8598:8611  uint8 num = 0 */\n      swap2\n      0x00\n        /* \"contracts/GameRoom.sol\":8623:8628  num++ */\n    tag_597:\n        /* \"contracts/GameRoom.sol\":173:12583  contract GameRoom is OptionalVRFConsumer {... */\n      0xff\n      dup2\n      and\n        /* \"contracts/GameRoom.sol\":8458:8460  10 */\n      0x0a\n        /* \"contracts/GameRoom.sol\":8613:8621  num < 10 */\n      dup2\n      lt\n      iszero\n      tag_598\n      jumpi\n        /* \"contracts/GameRoom.sol\":173:12583  contract GameRoom is OptionalVRFConsumer {... */\n      tag_600\n        /* \"contracts/GameRoom.sol\":8656:8678  config.cardCounts[num] */\n      tag_289\n      dup4\n      tag_58\n      jump\t// in\n        /* \"contracts/GameRoom.sol\":173:12583  contract GameRoom is OptionalVRFConsumer {... */\n    tag_600:\n        /* \"contracts/GameRoom.sol\":8698:8708  uint i = 0 */\n      swap1\n      0x00\n        /* \"contracts/GameRoom.sol\":8710:8717  i < cnt */\n    tag_602:\n      dup3\n      dup2\n      lt\n      tag_603\n      jumpi\n      pop\n      pop\n      pop\n        /* \"contracts/GameRoom.sol\":173:12583  contract GameRoom is OptionalVRFConsumer {... */\n      0x01\n      add\n      0xff\n      and\n        /* \"contracts/GameRoom.sol\":8598:8611  uint8 num = 0 */\n      jump(tag_597)\n        /* \"contracts/GameRoom.sol\":8719:8722  i++ */\n    tag_603:\n        /* \"contracts/GameRoom.sol\":173:12583  contract GameRoom is OptionalVRFConsumer {... */\n      0x01\n        /* \"contracts/GameRoom.sol\":8729:8734  idx++ */\n      swap1\n      dup3\n        /* \"contracts/GameRoom.sol\":8724:8741  deck[idx++] = num */\n      tag_605\n        /* \"contracts/GameRoom.sol\":8729:8734  idx++ */\n      tag_606\n      dup11\n      tag_63\n      jump\t// in\n    tag_606:\n        /* \"contracts/GameRoom.sol\":8724:8741  deck[idx++] = num */\n      swap10\n      dup10\n      tag_80\n      jump\t// in\n    tag_605:\n        /* \"contracts/GameRoom.sol\":173:12583  contract GameRoom is OptionalVRFConsumer {... */\n      mstore\n      add\n        /* \"contracts/GameRoom.sol\":8698:8708  uint i = 0 */\n      jump(tag_602)\n        /* \"contracts/GameRoom.sol\":8613:8621  num < 10 */\n    tag_598:\n      pop\n      pop\n      swap2\n      pop\n        /* \"contracts/GameRoom.sol\":8327:8782  function _buildDeckOrdered() internal view returns (uint256[] memory) {... */\n      swap1\n      jump\t// out\n        /* \"contracts/GameRoom.sol\":8462:8465  i++ */\n    tag_594:\n        /* \"contracts/GameRoom.sol\":8467:8501  totalCards += config.cardCounts[i] */\n      tag_607\n        /* \"contracts/GameRoom.sol\":173:12583  contract GameRoom is OptionalVRFConsumer {... */\n      0x01\n        /* \"contracts/GameRoom.sol\":8481:8501  config.cardCounts[i] */\n      swap2\n        /* \"contracts/GameRoom.sol\":173:12583  contract GameRoom is OptionalVRFConsumer {... */\n      tag_608\n        /* \"contracts/GameRoom.sol\":8481:8501  config.cardCounts[i] */\n      tag_289\n      dup6\n      tag_58\n      jump\t// in\n        /* \"contracts/GameRoom.sol\":173:12583  contract GameRoom is OptionalVRFConsumer {... */\n    tag_608:\n        /* \"contracts/GameRoom.sol\":8467:8501  totalCards += config.cardCounts[i] */\n      swap1\n      tag_49\n      jump\t// in\n    tag_607:\n        /* \"contracts/GameRoom.sol\":8462:8465  i++ */\n      swap2\n        /* \"contracts/GameRoom.sol\":173:12583  contract GameRoom is OptionalVRFConsumer {... */\n      add\n        /* \"contracts/GameRoom.sol\":8442:8452  uint i = 0 */\n      swap1\n      jump(tag_593)\n        /* \"contracts/GameRoom.sol\":6077:6727  function _shuffleAndDealAllCardsLegacy() internal {... */\n    tag_105:\n        /* \"contracts/GameRoom.sol\":6155:6162  players */\n      0x10\n        /* \"contracts/GameRoom.sol\":173:12583  contract GameRoom is OptionalVRFConsumer {... */\n      sload\n        /* \"contracts/GameRoom.sol\":6204:6229  _generateFullDeckLegacy() */\n      swap1\n      tag_610\n      tag_106\n      jump\t// in\n    tag_610:\n        /* \"contracts/GameRoom.sol\":6247:6257  uint i = 0 */\n      swap2\n        /* \"contracts/GameRoom.sol\":6256:6257  0 */\n      0x00\n        /* \"contracts/GameRoom.sol\":6276:6279  i++ */\n    tag_611:\n        /* \"contracts/GameRoom.sol\":173:12583  contract GameRoom is OptionalVRFConsumer {... */\n      dup4\n      mload\n        /* \"contracts/GameRoom.sol\":6259:6274  i < deck.length */\n      dup2\n      lt\n      iszero\n      tag_612\n      jumpi\n        /* \"contracts/GameRoom.sol\":6317:6327  i % pCount */\n      dup1\n        /* \"contracts/GameRoom.sol\":6449:6452  num */\n      tag_614\n        /* \"contracts/GameRoom.sol\":173:12583  contract GameRoom is OptionalVRFConsumer {... */\n      tag_615\n        /* \"contracts/GameRoom.sol\":6309:6328  players[i % pCount] */\n      tag_258\n        /* \"contracts/GameRoom.sol\":6317:6327  i % pCount */\n      tag_464\n      dup7\n        /* \"contracts/GameRoom.sol\":173:12583  contract GameRoom is OptionalVRFConsumer {... */\n      0x01\n        /* \"contracts/GameRoom.sol\":6317:6327  i % pCount */\n      swap7\n      tag_50\n      jump\t// in\n        /* \"contracts/GameRoom.sol\":173:12583  contract GameRoom is OptionalVRFConsumer {... */\n    tag_615:\n        /* \"contracts/GameRoom.sol\":6355:6369  uint8(deck[i]) */\n      tag_472\n        /* \"contracts/GameRoom.sol\":6361:6368  deck[i] */\n      tag_473\n      dup5\n      dup10\n      tag_80\n      jump\t// in\n        /* \"contracts/GameRoom.sol\":6449:6452  num */\n    tag_614:\n        /* \"contracts/GameRoom.sol\":173:12583  contract GameRoom is OptionalVRFConsumer {... */\n      add\n        /* \"contracts/GameRoom.sol\":6247:6257  uint i = 0 */\n      jump(tag_611)\n        /* \"contracts/GameRoom.sol\":6259:6274  i < deck.length */\n    tag_612:\n      pop\n        /* \"contracts/GameRoom.sol\":6498:6515  config.jokerCount */\n      0x04\n        /* \"contracts/GameRoom.sol\":173:12583  contract GameRoom is OptionalVRFConsumer {... */\n      sload\n        /* \"contracts/GameRoom.sol\":6259:6274  i < deck.length */\n      swap2\n      swap3\n      pop\n        /* \"contracts/GameRoom.sol\":6256:6257  0 */\n      0x00\n        /* \"contracts/GameRoom.sol\":6543:6557  i < jokerTotal */\n    tag_625:\n      dup3\n      dup2\n      lt\n      tag_626\n      jumpi\n        /* \"contracts/GameRoom.sol\":6077:6727  function _shuffleAndDealAllCardsLegacy() internal {... */\n      pop\n      pop\n      pop\n      jump\t// out\n        /* \"contracts/GameRoom.sol\":6559:6562  i++ */\n    tag_626:\n        /* \"contracts/GameRoom.sol\":173:12583  contract GameRoom is OptionalVRFConsumer {... */\n      0x01\n      swap1\n        /* \"contracts/GameRoom.sol\":6678:6703  playerData[to].jokerCount */\n      0x0d\n        /* \"contracts/GameRoom.sol\":6678:6692  playerData[to] */\n      tag_628\n        /* \"contracts/GameRoom.sol\":173:12583  contract GameRoom is OptionalVRFConsumer {... */\n      tag_267\n        /* \"contracts/GameRoom.sol\":6592:6663  players[uint(keccak256(abi.encodePacked(block.timestamp, i))) % pCount] */\n      tag_258\n        /* \"contracts/GameRoom.sol\":6600:6662  uint(keccak256(abi.encodePacked(block.timestamp, i))) % pCount */\n      tag_464\n        /* \"contracts/GameRoom.sol\":173:12583  contract GameRoom is OptionalVRFConsumer {... */\n      dup8\n      mload(0x40)\n        /* \"contracts/GameRoom.sol\":6615:6651  abi.encodePacked(block.timestamp, i) */\n      0x20\n      dup2\n      add\n        /* \"contracts/GameRoom.sol\":6632:6647  block.timestamp */\n      swap1\n        /* \"contracts/GameRoom.sol\":6615:6651  abi.encodePacked(block.timestamp, i) */\n      tag_465\n        /* \"contracts/GameRoom.sol\":6632:6647  block.timestamp */\n      dup2\n        /* \"contracts/GameRoom.sol\":6615:6651  abi.encodePacked(block.timestamp, i) */\n      tag_466\n        /* \"contracts/GameRoom.sol\":6632:6647  block.timestamp */\n      dup12\n      timestamp\n        /* \"contracts/GameRoom.sol\":6615:6651  abi.encodePacked(block.timestamp, i) */\n      dup7\n        /* \"contracts/GameRoom.sol\":173:12583  contract GameRoom is OptionalVRFConsumer {... */\n      swap1\n      swap2\n      0x40\n      swap3\n      dup3\n      mstore\n      0x20\n      dup3\n      add\n      mstore\n      add\n      swap1\n      jump\n        /* \"contracts/GameRoom.sol\":6678:6692  playerData[to] */\n    tag_628:\n        /* \"contracts/GameRoom.sol\":6678:6703  playerData[to].jokerCount */\n      add\n        /* \"contracts/GameRoom.sol\":6678:6708  playerData[to].jokerCount += 1 */\n      tag_634\n        /* \"contracts/GameRoom.sol\":173:12583  contract GameRoom is OptionalVRFConsumer {... */\n      dup2\n      sload\n        /* \"contracts/GameRoom.sol\":6678:6708  playerData[to].jokerCount += 1 */\n      tag_48\n      jump\t// in\n    tag_634:\n        /* \"contracts/GameRoom.sol\":173:12583  contract GameRoom is OptionalVRFConsumer {... */\n      swap1\n      sstore\n      add\n        /* \"contracts/GameRoom.sol\":6531:6541  uint i = 0 */\n      jump(tag_625)\n        /* \"contracts/GameRoom.sol\":6735:7404  function _generateFullDeckLegacy() internal view returns (uint256[] memory) {... */\n    tag_106:\n      0x00\n      dup1\n        /* \"contracts/GameRoom.sol\":6868:6874  i < 10 */\n    tag_635:\n        /* \"contracts/GameRoom.sol\":6872:6874  10 */\n      0x0a\n        /* \"contracts/GameRoom.sol\":6868:6874  i < 10 */\n      dup3\n      lt\n      tag_636\n      jumpi\n        /* \"contracts/GameRoom.sol\":6952:6977  new uint256[](totalCards) */\n      tag_638\n      swap2\n      pop\n      tag_88\n      jump\t// in\n    tag_638:\n      0x00\n        /* \"contracts/GameRoom.sol\":7012:7025  uint8 num = 0 */\n      swap2\n      0x00\n        /* \"contracts/GameRoom.sol\":7037:7042  num++ */\n    tag_639:\n        /* \"contracts/GameRoom.sol\":173:12583  contract GameRoom is OptionalVRFConsumer {... */\n      0xff\n      dup2\n      and\n        /* \"contracts/GameRoom.sol\":6872:6874  10 */\n      0x0a\n        /* \"contracts/GameRoom.sol\":7027:7035  num < 10 */\n      dup2\n      lt\n      iszero\n      tag_640\n      jumpi\n        /* \"contracts/GameRoom.sol\":173:12583  contract GameRoom is OptionalVRFConsumer {... */\n      tag_642\n        /* \"contracts/GameRoom.sol\":7070:7092  config.cardCounts[num] */\n      tag_289\n      dup4\n      tag_58\n      jump\t// in\n        /* \"contracts/GameRoom.sol\":173:12583  contract GameRoom is OptionalVRFConsumer {... */\n    tag_642:\n        /* \"contracts/GameRoom.sol\":7112:7122  uint i = 0 */\n      swap1\n      0x00\n        /* \"contracts/GameRoom.sol\":7124:7131  i < cnt */\n    tag_644:\n      dup3\n      dup2\n      lt\n      tag_645\n      jumpi\n      pop\n      pop\n      pop\n        /* \"contracts/GameRoom.sol\":173:12583  contract GameRoom is OptionalVRFConsumer {... */\n      0x01\n      add\n      0xff\n      and\n        /* \"contracts/GameRoom.sol\":7012:7025  uint8 num = 0 */\n      jump(tag_639)\n        /* \"contracts/GameRoom.sol\":7133:7136  i++ */\n    tag_645:\n        /* \"contracts/GameRoom.sol\":173:12583  contract GameRoom is OptionalVRFConsumer {... */\n      0x01\n        /* \"contracts/GameRoom.sol\":7143:7148  idx++ */\n      swap1\n      dup3\n        /* \"contracts/GameRoom.sol\":7138:7155  deck[idx++] = num */\n      tag_647\n        /* \"contracts/GameRoom.sol\":7143:7148  idx++ */\n      tag_606\n      dup11\n      tag_63\n      jump\t// in\n        /* \"contracts/GameRoom.sol\":7138:7155  deck[idx++] = num */\n    tag_647:\n        /* \"contracts/GameRoom.sol\":173:12583  contract GameRoom is OptionalVRFConsumer {... */\n      mstore\n      add\n        /* \"contracts/GameRoom.sol\":7112:7122  uint i = 0 */\n      jump(tag_644)\n        /* \"contracts/GameRoom.sol\":7027:7035  num < 10 */\n    tag_640:\n      pop\n      pop\n      swap2\n      pop\n      0x00\n        /* \"contracts/GameRoom.sol\":7213:7216  i++ */\n    tag_649:\n        /* \"contracts/GameRoom.sol\":173:12583  contract GameRoom is OptionalVRFConsumer {... */\n      dup2\n      mload\n        /* \"contracts/GameRoom.sol\":7196:7211  i < deck.length */\n      dup2\n      lt\n      iszero\n      tag_650\n      jumpi\n        /* \"contracts/GameRoom.sol\":173:12583  contract GameRoom is OptionalVRFConsumer {... */\n      0x01\n      swap1\n        /* \"contracts/GameRoom.sol\":7242:7309  uint(keccak256(abi.encodePacked(block.timestamp, i))) % deck.length */\n      tag_652\n        /* \"contracts/GameRoom.sol\":173:12583  contract GameRoom is OptionalVRFConsumer {... */\n      mload(0x40)\n        /* \"contracts/GameRoom.sol\":7257:7293  abi.encodePacked(block.timestamp, i) */\n      0x20\n      dup2\n      add\n        /* \"contracts/GameRoom.sol\":7274:7289  block.timestamp */\n      swap1\n        /* \"contracts/GameRoom.sol\":7257:7293  abi.encodePacked(block.timestamp, i) */\n      tag_653\n        /* \"contracts/GameRoom.sol\":7274:7289  block.timestamp */\n      dup2\n        /* \"contracts/GameRoom.sol\":7257:7293  abi.encodePacked(block.timestamp, i) */\n      tag_466\n        /* \"contracts/GameRoom.sol\":7274:7289  block.timestamp */\n      dup7\n      timestamp\n        /* \"contracts/GameRoom.sol\":7257:7293  abi.encodePacked(block.timestamp, i) */\n      dup7\n        /* \"contracts/GameRoom.sol\":173:12583  contract GameRoom is OptionalVRFConsumer {... */\n      swap1\n      swap2\n      0x40\n      swap3\n      dup3\n      mstore\n      0x20\n      dup3\n      add\n      mstore\n      add\n      swap1\n      jump\n        /* \"contracts/GameRoom.sol\":7257:7293  abi.encodePacked(block.timestamp, i) */\n    tag_653:\n        /* \"contracts/GameRoom.sol\":173:12583  contract GameRoom is OptionalVRFConsumer {... */\n      mload\n        /* \"contracts/GameRoom.sol\":7247:7294  keccak256(abi.encodePacked(block.timestamp, i)) */\n      swap1\n      keccak256\n        /* \"contracts/GameRoom.sol\":173:12583  contract GameRoom is OptionalVRFConsumer {... */\n      dup5\n      mload\n        /* \"contracts/GameRoom.sol\":7242:7309  uint(keccak256(abi.encodePacked(block.timestamp, i))) % deck.length */\n      swap1\n      tag_50\n      jump\t// in\n    tag_652:\n        /* \"contracts/GameRoom.sol\":7346:7353  deck[r] */\n      tag_655\n      dup2\n      dup6\n      tag_80\n      jump\t// in\n    tag_655:\n        /* \"contracts/GameRoom.sol\":173:12583  contract GameRoom is OptionalVRFConsumer {... */\n      mload\n        /* \"contracts/GameRoom.sol\":7355:7362  deck[i] */\n      swap1\n        /* \"contracts/GameRoom.sol\":7324:7363  (deck[i], deck[r]) = (deck[r], deck[i]) */\n      tag_656\n        /* \"contracts/GameRoom.sol\":7355:7362  deck[i] */\n      tag_484\n      dup5\n      dup8\n      tag_80\n      jump\t// in\n        /* \"contracts/GameRoom.sol\":7324:7363  (deck[i], deck[r]) = (deck[r], deck[i]) */\n    tag_656:\n        /* \"contracts/GameRoom.sol\":173:12583  contract GameRoom is OptionalVRFConsumer {... */\n      mstore\n        /* \"contracts/GameRoom.sol\":7324:7363  (deck[i], deck[r]) = (deck[r], deck[i]) */\n      tag_658\n      dup3\n      dup6\n      tag_80\n      jump\t// in\n    tag_658:\n        /* \"contracts/GameRoom.sol\":173:12583  contract GameRoom is OptionalVRFConsumer {... */\n      mstore\n      add\n        /* \"contracts/GameRoom.sol\":7184:7194  uint i = 0 */\n      jump(tag_649)\n        /* \"contracts/GameRoom.sol\":7196:7211  i < deck.length */\n    tag_650:\n      pop\n        /* \"contracts/GameRoom.sol\":6735:7404  function _generateFullDeckLegacy() internal view returns (uint256[] memory) {... */\n      swap1\n      jump\t// out\n        /* \"contracts/GameRoom.sol\":6876:6879  i++ */\n    tag_636:\n        /* \"contracts/GameRoom.sol\":6881:6915  totalCards += config.cardCounts[i] */\n      tag_659\n        /* \"contracts/GameRoom.sol\":173:12583  contract GameRoom is OptionalVRFConsumer {... */\n      0x01\n        /* \"contracts/GameRoom.sol\":6895:6915  config.cardCounts[i] */\n      swap2\n        /* \"contracts/GameRoom.sol\":173:12583  contract GameRoom is OptionalVRFConsumer {... */\n      tag_608\n        /* \"contracts/GameRoom.sol\":6895:6915  config.cardCounts[i] */\n      tag_289\n      dup6\n      tag_58\n      jump\t// in\n        /* \"contracts/GameRoom.sol\":6881:6915  totalCards += config.cardCounts[i] */\n    tag_659:\n        /* \"contracts/GameRoom.sol\":6876:6879  i++ */\n      swap2\n        /* \"contracts/GameRoom.sol\":173:12583  contract GameRoom is OptionalVRFConsumer {... */\n      add\n        /* \"contracts/GameRoom.sol\":6856:6866  uint i = 0 */\n      swap1\n      jump(tag_635)\n    stop\n    data_cf80bc4621d0751d813b5c62e01b0e17c015a240bacef8447cd784f3f77be164 1b6847dc741a1b0cd08d278845f9d819d87b734759afb55fe2de5cb82a9ae672\n\n    auxdata: 0xa264697066735822122025cb79cd837462dcaf862d04e799aeae0d8cc2940819618eee8dd797af60a0c164736f6c634300081a0033\n}\n",
				"bytecode": {
					"linkReferences": {},
					"object": "6101a06040523461036e576040516122c03881900390601f8201601f19168301906001600160401b038211848310176103825782916040528339810181810390610300821261036e57825160208401516001600160a01b0381169081900361036e576101e061007060408701610396565b94605f19011261036e5760405160c081016001600160401b03811182821017610382576040526060860151815260808601516020820190815260a0870151916040810192835260c0880151936060820194855260e089015195608083019687528761011f8b01121561036e576040519761014089016001600160401b0381118a82101761038257604052886102408c0191821161036e576101008c01905b8282106103725750506101279060a08501998a52610396565b6102608b01519a6001600160401b038c168c0361036e576102808101516102a08201519063ffffffff8216820361036e576102c08301519261ffff8416840361036e576102e06101779101610396565b9d8460805260a05260c05260e052610100528215610340576001600160a01b038a1615610312576001600160a01b0316151580610300575b6102c9576101205261014052515f5551600155516002555160035551600455515f5b600a81106102b457505060ff19600f5416600f556101605261018052604051611f1590816103ab8239608051818181610cad01526119b2015260a05181611a27015260c05181611a01015260e05181611a8101526101005181611a5701526101205181818161036f01528181610aa601528181610bd801528181610d46015281816112fb015281816114ad0152818161183601528181611ad801528181611b9b0152611c2c0152610140518181816102ab01526117f20152610160518181816105f00152610b3a0152610180518181816102f0015281816104a40152611b560152f35b600190602083519301928160050155016101d1565b60405162461bcd60e51b815260206004820152600f60248201526e2174776f2072616e646f6d6e65737360881b6044820152606490fd5b506001600160a01b038a1615156101af565b60405162461bcd60e51b815260206004820152600660248201526510b7bbb732b960d11b6044820152606490fd5b60405162461bcd60e51b8152602060048201526006602482015265085d985d5b1d60d21b6044820152606490fd5b5f80fd5b815181526020918201910161010e565b634e487b7160e01b5f52604160045260245ffd5b51906001600160a01b038216820361036e5756fe60806040526004361015610011575f80fd5b5f3560e01c80630496561d146101545780631fe543e31461014f57806324e7964a1461014a57806331db047b146101455780633588fd8014610140578063424aeded1461013b578063733d50381461013657806379502c55146101315780638b5b9ccc1461012c578063999dacb914610127578063ad5c21d914610122578063b0652a881461011d578063c2e5220614610118578063d1f9c24d14610113578063d4f77b1c1461010e578063d65ab5f214610109578063d7c81b5514610104578063e6ec2982146100ff578063f71d96cb146100fa5763fb9bdab4146100f5575f80fd5b610c8d565b610c46565b610bfb565b610bc1565b610b28565b6109ed565b6109c4565b610989565b6106e4565b610652565b6105db565b610561565b6104d3565b61048f565b61040e565b6103e2565b6102da565b610296565b6101fe565b610173565b600435906001600160a01b038216820361016f57565b5f80fd5b3461016f57602036600319011261016f576001600160a01b03610194610159565b165f526013602052602060405f2054604051908152f35b634e487b7160e01b5f52604160045260245ffd5b90601f8019910116810190811067ffffffffffffffff8211176101e157604052565b6101ab565b67ffffffffffffffff81116101e15760051b60200190565b3461016f57604036600319011261016f5760043560243567ffffffffffffffff811161016f573660238201121561016f5780600401359161023e836101e6565b9161024c60405193846101bf565b8383526024602084019460051b8201019036821161016f57602401935b81851061027c5761027a8484610caa565b005b8435815260209485019401610269565b5f91031261016f57565b3461016f575f36600319011261016f576040517f00000000000000000000000000000000000000000000000000000000000000006001600160a01b03168152602090f35b3461016f57602036600319011261016f576004357f00000000000000000000000000000000000000000000000000000000000000006001600160a01b031633036103b45761036d906103426001610333600f5460ff1690565b61033c816109a6565b14610dc3565b61034d811515610dfa565b61035f600260ff19600f541617600f55565b610368816112ec565b61149c565b7f00000000000000000000000000000000000000000000000000000000000000007f50ad08f58a27f2851d7e3a1b3a6a46b290f2ce677e99642d30ff639721e777905f80a2005b60405162461bcd60e51b81526020600482015260066024820152652172656c617960d01b6044820152606490fd5b3461016f575f36600319011261016f5760206103fc610e80565b6040516001600160a01b039091168152f35b3461016f57602036600319011261016f576001600160a01b0361042f610159565b165f52601160205260405f2060018060a01b03815416600182015490600d600284015493015460ff60405194859460a086019460018060a01b0316865260208601528181161515604086015260081c161515606084015260808301520390f35b3461016f575f36600319011261016f576040517f00000000000000000000000000000000000000000000000000000000000000006001600160a01b03168152602090f35b3461016f575f36600319011261016f5760a05f5460015460025460035490600454926040519485526020850152604084015260608301526080820152f35b90602080835192838152019201905f5b81811061052e5750505090565b82516001600160a01b0316845260209384019390920191600101610521565b90602061055e928181520190610511565b90565b3461016f575f36600319011261016f5760405180602060105491828152019060105f525f80516020611ec0833981519152905f5b8181106105bc576105b8856105ac818703826101bf565b6040519182918261054d565b0390f35b82546001600160a01b0316845260209093019260019283019201610595565b3461016f575f36600319011261016f576040517f00000000000000000000000000000000000000000000000000000000000000006001600160a01b03168152602090f35b61016081019392915f825b600a821061063c575050506101400152565b602080600192855181520193019101909161062a565b3461016f57602036600319011261016f5761066b610159565b610140908160405161067d82826101bf565b3690376001600160a01b03165f90815260116020526040808220600d810154915191939192600390910190835b600a82106106ce575050506106bf90826101bf565b6105b86040519283928361061f565b60016020819285548152019301910190916106aa565b3461016f57604036600319011261016f576106fd610159565b6024359060ff82169182810361016f5761072d600261071e600f5460ff1690565b610727816109a6565b14610ed0565b61076361075361073e601254610c29565b905460039190911b1c6001600160a01b031690565b6001600160a01b03163314610f07565b335f9081526011602052604090206107939061078e9061078a906002015460081c60ff1690565b1590565b610f3b565b6001600160a01b038216926107a9841515610f6d565b8061086e5750506107f6816107dd600d6107d4819560018060a01b03165f52601160205260405f2090565b0154151561105d565b6001600160a01b03165f90815260116020526040902090565b016108018154611043565b9055335f908152601160205260409020600d0161081e815461104f565b90556040515f81523391907f345ab5394e10f7b605071092c87ea512b2b9f3a616f8c85b996c2aa8a418c69c90602090a35b6108586115d5565b6108606115fe565b61086657005b61027a6117a9565b6109096108dd6109459395946108938460016108c6961015908161097d575b50610fa3565b600361089e88610fdb565b94826107dd6108d66108cc89866108c6829960018060a01b03165f52601160205260405f2090565b01610ffe565b90549060031b1c90565b151561100d565b6108f36108ee8284549060031b1c90565b611043565b82545f1960039390931b92831b1916911b179055565b335f90815260116020526040902061093f906109299083906003906108c6565b6108f361093a8284549060031b1c90565b61104f565b33611565565b60405160ff92909216825233917f345ab5394e10f7b605071092c87ea512b2b9f3a616f8c85b996c2aa8a418c69c90602090a3610850565b600a915011155f61088d565b3461016f575f36600319011261016f576020601054604051908152f35b600411156109b057565b634e487b7160e01b5f52602160045260245ffd5b3461016f575f36600319011261016f5760ff600f541660405160048210156109b0576020918152f35b5f36600319011261016f57610a16610a07600f5460ff1690565b610a10816109a6565b15611094565b335f90815260116020526040902060020154610a359060ff16156110cb565b610a4460105460015411611100565b60035480610b015750610a5a6002543414611166565b335f908152601160205260409020610a939060029080546001600160a01b0319163317815534600182015501600160ff19825416179055565b610a9c336111a0565b60405134815233907f0000000000000000000000000000000000000000000000000000000000000000907f03dfbe1fcb4e2d61f3b4a0c93d8f814c92250618b3387f396cc9fc9fafe2c20390602090a360105460015414610af957005b61027a6119a1565b610b18906002543410159081610b1d575b50611132565b610a5a565b90503411155f610b12565b3461016f575f36600319011261016f577f00000000000000000000000000000000000000000000000000000000000000006001600160a01b03163303610b9357610b77610a07600f5460ff1690565b610af9601054610b8a5f548210156111f7565b60015411611229565b60405162461bcd60e51b815260206004820152600660248201526510b7bbb732b960d11b6044820152606490fd5b3461016f575f36600319011261016f5760206040517f00000000000000000000000000000000000000000000000000000000000000008152f35b3461016f575f36600319011261016f5760206103fc611262565b634e487b7160e01b5f52603260045260245ffd5b601054811015610c415760105f5260205f2001905f90565b610c15565b3461016f57602036600319011261016f5760043560105481101561016f5760105f525f80516020611ec083398151915201546040516001600160a01b039091168152602090f35b3461016f575f36600319011261016f576020601254604051908152f35b507f00000000000000000000000000000000000000000000000000000000000000006001600160a01b03168015159081610db9575b5015610d8b5760ff600f541660048110156109b057610d4491610d076001610d3e9314610dc3565b610d15600182511015611296565b610d27600260ff19600f541617600f55565b610d39610d33826112cb565b516112ec565b6112cb565b5161149c565b7f00000000000000000000000000000000000000000000000000000000000000007f50ad08f58a27f2851d7e3a1b3a6a46b290f2ce677e99642d30ff639721e777905f80a2565b60405162461bcd60e51b81526020600482015260066024820152650858dbdbdc9960d21b6044820152606490fd5b905033145f610cdf565b15610dca57565b60405162461bcd60e51b8152602060048201526008602482015267216465616c696e6760c01b6044820152606490fd5b15610e0157565b60405162461bcd60e51b8152602060048201526005602482015264217a65726f60d81b6044820152606490fd5b634e487b7160e01b5f52601160045260245ffd5b9060018201809211610e5057565b610e2e565b91908201809211610e5057565b8115610e6c570690565b634e487b7160e01b5f52601260045260245ffd5b60105460028110610ecb5760125460018101809111610e505781610ea391610e62565b90811015610c415760105f525f80516020611ec083398151915201546001600160a01b031690565b505f90565b15610ed757565b60405162461bcd60e51b815260206004820152600860248201526721706c6179696e6760c01b6044820152606490fd5b15610f0e57565b60405162461bcd60e51b815260206004820152600560248201526410ba3ab93760d91b6044820152606490fd5b15610f4257565b60405162461bcd60e51b81526020600482015260036024820152621bdd5d60ea1b6044820152606490fd5b15610f7457565b60405162461bcd60e51b8152602060048201526007602482015266085d185c99d95d60ca1b6044820152606490fd5b15610faa57565b60405162461bcd60e51b815260206004820152600960248201526806361726420312d31360bc1b6044820152606490fd5b60ff5f199116019060ff8211610e5057565b600a811015610c4157600501905f90565b600a821015610c415701905f90565b1561101457565b60405162461bcd60e51b81526020600482015260076024820152661b9bc818d85c9960ca1b6044820152606490fd5b8015610e50575f190190565b5f198114610e505760010190565b1561106457565b60405162461bcd60e51b81526020600482015260086024820152673737903537b5b2b960c11b6044820152606490fd5b1561109b57565b60405162461bcd60e51b81526020600482015260086024820152672170656e64696e6760c01b6044820152606490fd5b156110d257565b60405162461bcd60e51b81526020600482015260066024820152651a9bda5b995960d21b6044820152606490fd5b1561110757565b606460405162461bcd60e51b8152602060048201526004602482015263199d5b1b60e21b6044820152fd5b1561113957565b60405162461bcd60e51b815260206004820152600560248201526472616e676560d81b6044820152606490fd5b1561116d57565b60405162461bcd60e51b815260206004820152600b60248201526a6669786564207374616b6560a81b6044820152606490fd5b601054680100000000000000008110156101e15760018101601055601054811015610c415760105f525f80516020611ec08339815191520180546001600160a01b0319166001600160a01b03909216919091179055565b156111fe57565b606460405162461bcd60e51b815260206004820152600460248201526310b6b4b760e11b6044820152fd5b1561123057565b60405162461bcd60e51b815260206004820152600a6024820152692166756c6c206175746f60b01b6044820152606490fd5b6010548015610ecb5760125490811015610c415760105f525f80516020611ec083398151915201546001600160a01b031690565b1561129d57565b60405162461bcd60e51b815260206004820152600660248201526521776f72647360d01b6044820152606490fd5b805115610c415760200190565b8051821015610c415760209160051b010190565b6010546112f7611ca7565b80517f0000000000000000000000000000000000000000000000000000000000000000915f5b82811061142557505f5b8281106113cc57505050600454925f5b848110611345575050505050565b604080516020810184815291810185905230606090811b6001600160601b0319169082015260748101839052600160f81b609482015260019291600d916113b9916107dd9161073e916113b4918b91906113ac81609581015b03601f1981018352826101bf565b519020610e62565b610c29565b016113c48154610e42565b905501611337565b8061141f6113e261073e6113b489600196610e62565b6113f66113ef84876112d8565b5160ff1690565b9061141a6109298360036108c68560018060a01b03165f52601160205260405f2090565b611565565b01611327565b604080516020810188815291810186905230606090811b6001600160601b031916908201526074810183905260019291611469918691906113ac816094810161139e565b61147381856112d8565b519061148a61148284876112d8565b5191866112d8565b5261149582856112d8565b520161131d565b903060601b6001600160601b0319167f00000000000000000000000000000000000000000000000000000000000000005f5b60105481101561155e5760105f525f80516020611ec08339815191528101546040805160208101888152918101859052606080820187905283901b6001600160601b031916607482015260688152600193926001600160a01b031691611557916115396088826101bf565b5190206001600160a01b039092165f90815260136020526040902090565b55016114ce565b5050509050565b60018060a01b031690815f52601160205261158681600360405f2001610ffe565b90549060031b1c90600282101561159c57505050565b6115b96001916115d3945f526011602052600360405f2001610ffe565b919092169082549060031b91821b915f19901b1916179055565b565b60105480156115fb576012549060018201809211610e50576115f691610e62565b601255565b50565b6010545f5b818110611611575050600190565b61161d61073e82610c29565b5f5b600a60ff821610611634575050600101611603565b6116576108cc8260036108c68660018060a01b03165f52601160205260405f2090565b6116665760010160ff1661161f565b505050505f90565b90611678826101e6565b61168560405191826101bf565b8281528092611696601f19916101e6565b0190602036910137565b156116a757565b60405162461bcd60e51b81526020600482015260086024820152672177696e6e65727360c01b6044820152606490fd5b3d15611711573d9067ffffffffffffffff82116101e15760405191611706601f8201601f1916602001846101bf565b82523d5f602084013e565b606090565b1561171d57565b60405162461bcd60e51b815260206004820152600960248201526810ba3930b739b332b960b91b6044820152606490fd5b9161176b9061055e94928452606060208501526060840190610511565b916040818403910152610511565b6040513d5f823e3d90fd5b909161179b61055e93604084526040840190610511565b916020818403910152610511565b6117bb600360ff19600f541617600f55565b6010546117c78161166e565b906117d18161166e565b905f80915f5b8181106118e557505083528082526117f09015156116a0565b7f00000000000000000000000000000000000000000000000000000000000000006001600160a01b0316906118345f80808047875af161182e6116d7565b50611716565b7f000000000000000000000000000000000000000000000000000000000000000092823b1561016f575f6040518094633951114160e11b825281838161187f87898c6004850161174e565b03925af19283156118e0577fec9076d3d1e4910861e8852ef3e8820904b6868d2e5c85563e5c82f45c776d1f936118c6575b506118c160405192839283611784565b0390a2565b806118d45f6118da936101bf565b8061028c565b5f6118b1565b611779565b806118f461073e600193610c29565b6001600160a01b0381165f908152601160205260409020600d0154156119405761193a9061192b6119248761104f565b968a6112d8565b6001600160a01b039091169052565b016117d7565b6119579061192b6119508861104f565b97896112d8565b61193a565b1561196357565b60405162461bcd60e51b8152602060048201526007602482015266042cadcdeeaced60cb1b6044820152606490fd5b9081602091031261016f575190565b6119b06010545f54111561195c565b7f00000000000000000000000000000000000000000000000000000000000000006001600160a01b03168015611b53576119f2600160ff19600f541617600f55565b6040516305d3b1d360e41b81527f000000000000000000000000000000000000000000000000000000000000000060048201527f000000000000000000000000000000000000000000000000000000000000000067ffffffffffffffff1660248201527f000000000000000000000000000000000000000000000000000000000000000061ffff1660448201527f000000000000000000000000000000000000000000000000000000000000000063ffffffff1660648201526001608482015290602090829060a49082905f905af19081156118e0575f91611b24575b506040519081527f0000000000000000000000000000000000000000000000000000000000000000907febd9e8fb61fd5a6473b57d787d7ea3595ba98407bd8c0d74d9b0a5d666aa8d8a9080602081016118c1565b611b46915060203d602011611b4c575b611b3e81836101bf565b810190611992565b5f611acf565b503d611b34565b507f00000000000000000000000000000000000000000000000000000000000000006001600160a01b031615611c0c57611b95600160ff19600f541617600f55565b604080517f00000000000000000000000000000000000000000000000000000000000000006020820181815230938301939093529190611bd8816060810161139e565b5190206040519081523091907f95c8b02c7934a4bb418d4b844ca008175046665e9ddfb7903dda0ce4dd450cf090602090a3565b611c1e600260ff19600f541617600f55565b6040805142602082019081527f000000000000000000000000000000000000000000000000000000000000000092820183905230606090811b6001600160601b03191690830152611c8191611c76816074810161139e565b519020610368611d36565b7f50ad08f58a27f2851d7e3a1b3a6a46b290f2ce677e99642d30ff639721e777905f80a2565b5f805b600a8210611d1657611cbc915061166e565b5f915f5b60ff8116600a811015611d0f57611cd96108cc83610fed565b905f5b828110611cf15750505060010160ff16611cc0565b60019082611d08611d018a61104f565b99896112d8565b5201611cdc565b5050915090565b611d2e600191611d286108cc85610fed565b90610e55565b910190611caa565b60105490611d42611dd3565b915f5b8351811015611d775780611d71611d6461073e6113b486600196610e62565b6113f66113ef84896112d8565b01611d45565b506004549192505f5b828110611d8c57505050565b600190600d611dc06107dd61073e6113b48760405160208101906113ac8161139e8b42869091604092825260208201520190565b01611dcb8154610e42565b905501611d80565b5f805b600a8210611ea557611de8915061166e565b5f915f5b60ff8116600a811015611e3457611e056108cc83610fed565b905f5b828110611e1d5750505060010160ff16611dec565b60019082611e2d611d018a61104f565b5201611e08565b505091505f5b8151811015611ea157600190611e766040516020810190611e6b8161139e8642869091604092825260208201520190565b519020845190610e62565b611e8081856112d8565b5190611e8f61148284876112d8565b52611e9a82856112d8565b5201611e3a565b5090565b611eb7600191611d286108cc85610fed565b910190611dd656fe1b6847dc741a1b0cd08d278845f9d819d87b734759afb55fe2de5cb82a9ae672a264697066735822122025cb79cd837462dcaf862d04e799aeae0d8cc2940819618eee8dd797af60a0c164736f6c634300081a0033",
					"opcodes": "PUSH2 0x1A0 PUSH1 0x40 MSTORE CALLVALUE PUSH2 0x36E JUMPI PUSH1 0x40 MLOAD PUSH2 0x22C0 CODESIZE DUP2 SWAP1 SUB SWAP1 PUSH1 0x1F DUP3 ADD PUSH1 0x1F NOT AND DUP4 ADD SWAP1 PUSH1 0x1 PUSH1 0x1 PUSH1 0x40 SHL SUB DUP3 GT DUP5 DUP4 LT OR PUSH2 0x382 JUMPI DUP3 SWAP2 PUSH1 0x40 MSTORE DUP4 CODECOPY DUP2 ADD DUP2 DUP2 SUB SWAP1 PUSH2 0x300 DUP3 SLT PUSH2 0x36E JUMPI DUP3 MLOAD PUSH1 0x20 DUP5 ADD MLOAD PUSH1 0x1 PUSH1 0x1 PUSH1 0xA0 SHL SUB DUP2 AND SWAP1 DUP2 SWAP1 SUB PUSH2 0x36E JUMPI PUSH2 0x1E0 PUSH2 0x70 PUSH1 0x40 DUP8 ADD PUSH2 0x396 JUMP JUMPDEST SWAP5 PUSH1 0x5F NOT ADD SLT PUSH2 0x36E JUMPI PUSH1 0x40 MLOAD PUSH1 0xC0 DUP2 ADD PUSH1 0x1 PUSH1 0x1 PUSH1 0x40 SHL SUB DUP2 GT DUP3 DUP3 LT OR PUSH2 0x382 JUMPI PUSH1 0x40 MSTORE PUSH1 0x60 DUP7 ADD MLOAD DUP2 MSTORE PUSH1 0x80 DUP7 ADD MLOAD PUSH1 0x20 DUP3 ADD SWAP1 DUP2 MSTORE PUSH1 0xA0 DUP8 ADD MLOAD SWAP2 PUSH1 0x40 DUP2 ADD SWAP3 DUP4 MSTORE PUSH1 0xC0 DUP9 ADD MLOAD SWAP4 PUSH1 0x60 DUP3 ADD SWAP5 DUP6 MSTORE PUSH1 0xE0 DUP10 ADD MLOAD SWAP6 PUSH1 0x80 DUP4 ADD SWAP7 DUP8 MSTORE DUP8 PUSH2 0x11F DUP12 ADD SLT ISZERO PUSH2 0x36E JUMPI PUSH1 0x40 MLOAD SWAP8 PUSH2 0x140 DUP10 ADD PUSH1 0x1 PUSH1 0x1 PUSH1 0x40 SHL SUB DUP2 GT DUP11 DUP3 LT OR PUSH2 0x382 JUMPI PUSH1 0x40 MSTORE DUP9 PUSH2 0x240 DUP13 ADD SWAP2 DUP3 GT PUSH2 0x36E JUMPI PUSH2 0x100 DUP13 ADD SWAP1 JUMPDEST DUP3 DUP3 LT PUSH2 0x372 JUMPI POP POP PUSH2 0x127 SWAP1 PUSH1 0xA0 DUP6 ADD SWAP10 DUP11 MSTORE PUSH2 0x396 JUMP JUMPDEST PUSH2 0x260 DUP12 ADD MLOAD SWAP11 PUSH1 0x1 PUSH1 0x1 PUSH1 0x40 SHL SUB DUP13 AND DUP13 SUB PUSH2 0x36E JUMPI PUSH2 0x280 DUP2 ADD MLOAD PUSH2 0x2A0 DUP3 ADD MLOAD SWAP1 PUSH4 0xFFFFFFFF DUP3 AND DUP3 SUB PUSH2 0x36E JUMPI PUSH2 0x2C0 DUP4 ADD MLOAD SWAP3 PUSH2 0xFFFF DUP5 AND DUP5 SUB PUSH2 0x36E JUMPI PUSH2 0x2E0 PUSH2 0x177 SWAP2 ADD PUSH2 0x396 JUMP JUMPDEST SWAP14 DUP5 PUSH1 0x80 MSTORE PUSH1 0xA0 MSTORE PUSH1 0xC0 MSTORE PUSH1 0xE0 MSTORE PUSH2 0x100 MSTORE DUP3 ISZERO PUSH2 0x340 JUMPI PUSH1 0x1 PUSH1 0x1 PUSH1 0xA0 SHL SUB DUP11 AND ISZERO PUSH2 0x312 JUMPI PUSH1 0x1 PUSH1 0x1 PUSH1 0xA0 SHL SUB AND ISZERO ISZERO DUP1 PUSH2 0x300 JUMPI JUMPDEST PUSH2 0x2C9 JUMPI PUSH2 0x120 MSTORE PUSH2 0x140 MSTORE MLOAD PUSH0 SSTORE MLOAD PUSH1 0x1 SSTORE MLOAD PUSH1 0x2 SSTORE MLOAD PUSH1 0x3 SSTORE MLOAD PUSH1 0x4 SSTORE MLOAD PUSH0 JUMPDEST PUSH1 0xA DUP2 LT PUSH2 0x2B4 JUMPI POP POP PUSH1 0xFF NOT PUSH1 0xF SLOAD AND PUSH1 0xF SSTORE PUSH2 0x160 MSTORE PUSH2 0x180 MSTORE PUSH1 0x40 MLOAD PUSH2 0x1F15 SWAP1 DUP2 PUSH2 0x3AB DUP3 CODECOPY PUSH1 0x80 MLOAD DUP2 DUP2 DUP2 PUSH2 0xCAD ADD MSTORE PUSH2 0x19B2 ADD MSTORE PUSH1 0xA0 MLOAD DUP2 PUSH2 0x1A27 ADD MSTORE PUSH1 0xC0 MLOAD DUP2 PUSH2 0x1A01 ADD MSTORE PUSH1 0xE0 MLOAD DUP2 PUSH2 0x1A81 ADD MSTORE PUSH2 0x100 MLOAD DUP2 PUSH2 0x1A57 ADD MSTORE PUSH2 0x120 MLOAD DUP2 DUP2 DUP2 PUSH2 0x36F ADD MSTORE DUP2 DUP2 PUSH2 0xAA6 ADD MSTORE DUP2 DUP2 PUSH2 0xBD8 ADD MSTORE DUP2 DUP2 PUSH2 0xD46 ADD MSTORE DUP2 DUP2 PUSH2 0x12FB ADD MSTORE DUP2 DUP2 PUSH2 0x14AD ADD MSTORE DUP2 DUP2 PUSH2 0x1836 ADD MSTORE DUP2 DUP2 PUSH2 0x1AD8 ADD MSTORE DUP2 DUP2 PUSH2 0x1B9B ADD MSTORE PUSH2 0x1C2C ADD MSTORE PUSH2 0x140 MLOAD DUP2 DUP2 DUP2 PUSH2 0x2AB ADD MSTORE PUSH2 0x17F2 ADD MSTORE PUSH2 0x160 MLOAD DUP2 DUP2 DUP2 PUSH2 0x5F0 ADD MSTORE PUSH2 0xB3A ADD MSTORE PUSH2 0x180 MLOAD DUP2 DUP2 DUP2 PUSH2 0x2F0 ADD MSTORE DUP2 DUP2 PUSH2 0x4A4 ADD MSTORE PUSH2 0x1B56 ADD MSTORE RETURN JUMPDEST PUSH1 0x1 SWAP1 PUSH1 0x20 DUP4 MLOAD SWAP4 ADD SWAP3 DUP2 PUSH1 0x5 ADD SSTORE ADD PUSH2 0x1D1 JUMP JUMPDEST PUSH1 0x40 MLOAD PUSH3 0x461BCD PUSH1 0xE5 SHL DUP2 MSTORE PUSH1 0x20 PUSH1 0x4 DUP3 ADD MSTORE PUSH1 0xF PUSH1 0x24 DUP3 ADD MSTORE PUSH15 0x2174776F2072616E646F6D6E657373 PUSH1 0x88 SHL PUSH1 0x44 DUP3 ADD MSTORE PUSH1 0x64 SWAP1 REVERT JUMPDEST POP PUSH1 0x1 PUSH1 0x1 PUSH1 0xA0 SHL SUB DUP11 AND ISZERO ISZERO PUSH2 0x1AF JUMP JUMPDEST PUSH1 0x40 MLOAD PUSH3 0x461BCD PUSH1 0xE5 SHL DUP2 MSTORE PUSH1 0x20 PUSH1 0x4 DUP3 ADD MSTORE PUSH1 0x6 PUSH1 0x24 DUP3 ADD MSTORE PUSH6 0x10B7BBB732B9 PUSH1 0xD1 SHL PUSH1 0x44 DUP3 ADD MSTORE PUSH1 0x64 SWAP1 REVERT JUMPDEST PUSH1 0x40 MLOAD PUSH3 0x461BCD PUSH1 0xE5 SHL DUP2 MSTORE PUSH1 0x20 PUSH1 0x4 DUP3 ADD MSTORE PUSH1 0x6 PUSH1 0x24 DUP3 ADD MSTORE PUSH6 0x85D985D5B1D PUSH1 0xD2 SHL PUSH1 0x44 DUP3 ADD MSTORE PUSH1 0x64 SWAP1 REVERT JUMPDEST PUSH0 DUP1 REVERT JUMPDEST DUP2 MLOAD DUP2 MSTORE PUSH1 0x20 SWAP2 DUP3 ADD SWAP2 ADD PUSH2 0x10E JUMP JUMPDEST PUSH4 0x4E487B71 PUSH1 0xE0 SHL PUSH0 MSTORE PUSH1 0x41 PUSH1 0x4 MSTORE PUSH1 0x24 PUSH0 REVERT JUMPDEST MLOAD SWAP1 PUSH1 0x1 PUSH1 0x1 PUSH1 0xA0 SHL SUB DUP3 AND DUP3 SUB PUSH2 0x36E JUMPI JUMP INVALID PUSH1 0x80 PUSH1 0x40 MSTORE PUSH1 0x4 CALLDATASIZE LT ISZERO PUSH2 0x11 JUMPI PUSH0 DUP1 REVERT JUMPDEST PUSH0 CALLDATALOAD PUSH1 0xE0 SHR DUP1 PUSH4 0x496561D EQ PUSH2 0x154 JUMPI DUP1 PUSH4 0x1FE543E3 EQ PUSH2 0x14F JUMPI DUP1 PUSH4 0x24E7964A EQ PUSH2 0x14A JUMPI DUP1 PUSH4 0x31DB047B EQ PUSH2 0x145 JUMPI DUP1 PUSH4 0x3588FD80 EQ PUSH2 0x140 JUMPI DUP1 PUSH4 0x424AEDED EQ PUSH2 0x13B JUMPI DUP1 PUSH4 0x733D5038 EQ PUSH2 0x136 JUMPI DUP1 PUSH4 0x79502C55 EQ PUSH2 0x131 JUMPI DUP1 PUSH4 0x8B5B9CCC EQ PUSH2 0x12C JUMPI DUP1 PUSH4 0x999DACB9 EQ PUSH2 0x127 JUMPI DUP1 PUSH4 0xAD5C21D9 EQ PUSH2 0x122 JUMPI DUP1 PUSH4 0xB0652A88 EQ PUSH2 0x11D JUMPI DUP1 PUSH4 0xC2E52206 EQ PUSH2 0x118 JUMPI DUP1 PUSH4 0xD1F9C24D EQ PUSH2 0x113 JUMPI DUP1 PUSH4 0xD4F77B1C EQ PUSH2 0x10E JUMPI DUP1 PUSH4 0xD65AB5F2 EQ PUSH2 0x109 JUMPI DUP1 PUSH4 0xD7C81B55 EQ PUSH2 0x104 JUMPI DUP1 PUSH4 0xE6EC2982 EQ PUSH2 0xFF JUMPI DUP1 PUSH4 0xF71D96CB EQ PUSH2 0xFA JUMPI PUSH4 0xFB9BDAB4 EQ PUSH2 0xF5 JUMPI PUSH0 DUP1 REVERT JUMPDEST PUSH2 0xC8D JUMP JUMPDEST PUSH2 0xC46 JUMP JUMPDEST PUSH2 0xBFB JUMP JUMPDEST PUSH2 0xBC1 JUMP JUMPDEST PUSH2 0xB28 JUMP JUMPDEST PUSH2 0x9ED JUMP JUMPDEST PUSH2 0x9C4 JUMP JUMPDEST PUSH2 0x989 JUMP JUMPDEST PUSH2 0x6E4 JUMP JUMPDEST PUSH2 0x652 JUMP JUMPDEST PUSH2 0x5DB JUMP JUMPDEST PUSH2 0x561 JUMP JUMPDEST PUSH2 0x4D3 JUMP JUMPDEST PUSH2 0x48F JUMP JUMPDEST PUSH2 0x40E JUMP JUMPDEST PUSH2 0x3E2 JUMP JUMPDEST PUSH2 0x2DA JUMP JUMPDEST PUSH2 0x296 JUMP JUMPDEST PUSH2 0x1FE JUMP JUMPDEST PUSH2 0x173 JUMP JUMPDEST PUSH1 0x4 CALLDATALOAD SWAP1 PUSH1 0x1 PUSH1 0x1 PUSH1 0xA0 SHL SUB DUP3 AND DUP3 SUB PUSH2 0x16F JUMPI JUMP JUMPDEST PUSH0 DUP1 REVERT JUMPDEST CALLVALUE PUSH2 0x16F JUMPI PUSH1 0x20 CALLDATASIZE PUSH1 0x3 NOT ADD SLT PUSH2 0x16F JUMPI PUSH1 0x1 PUSH1 0x1 PUSH1 0xA0 SHL SUB PUSH2 0x194 PUSH2 0x159 JUMP JUMPDEST AND PUSH0 MSTORE PUSH1 0x13 PUSH1 0x20 MSTORE PUSH1 0x20 PUSH1 0x40 PUSH0 KECCAK256 SLOAD PUSH1 0x40 MLOAD SWAP1 DUP2 MSTORE RETURN JUMPDEST PUSH4 0x4E487B71 PUSH1 0xE0 SHL PUSH0 MSTORE PUSH1 0x41 PUSH1 0x4 MSTORE PUSH1 0x24 PUSH0 REVERT JUMPDEST SWAP1 PUSH1 0x1F DUP1 NOT SWAP2 ADD AND DUP2 ADD SWAP1 DUP2 LT PUSH8 0xFFFFFFFFFFFFFFFF DUP3 GT OR PUSH2 0x1E1 JUMPI PUSH1 0x40 MSTORE JUMP JUMPDEST PUSH2 0x1AB JUMP JUMPDEST PUSH8 0xFFFFFFFFFFFFFFFF DUP2 GT PUSH2 0x1E1 JUMPI PUSH1 0x5 SHL PUSH1 0x20 ADD SWAP1 JUMP JUMPDEST CALLVALUE PUSH2 0x16F JUMPI PUSH1 0x40 CALLDATASIZE PUSH1 0x3 NOT ADD SLT PUSH2 0x16F JUMPI PUSH1 0x4 CALLDATALOAD PUSH1 0x24 CALLDATALOAD PUSH8 0xFFFFFFFFFFFFFFFF DUP2 GT PUSH2 0x16F JUMPI CALLDATASIZE PUSH1 0x23 DUP3 ADD SLT ISZERO PUSH2 0x16F JUMPI DUP1 PUSH1 0x4 ADD CALLDATALOAD SWAP2 PUSH2 0x23E DUP4 PUSH2 0x1E6 JUMP JUMPDEST SWAP2 PUSH2 0x24C PUSH1 0x40 MLOAD SWAP4 DUP5 PUSH2 0x1BF JUMP JUMPDEST DUP4 DUP4 MSTORE PUSH1 0x24 PUSH1 0x20 DUP5 ADD SWAP5 PUSH1 0x5 SHL DUP3 ADD ADD SWAP1 CALLDATASIZE DUP3 GT PUSH2 0x16F JUMPI PUSH1 0x24 ADD SWAP4 JUMPDEST DUP2 DUP6 LT PUSH2 0x27C JUMPI PUSH2 0x27A DUP5 DUP5 PUSH2 0xCAA JUMP JUMPDEST STOP JUMPDEST DUP5 CALLDATALOAD DUP2 MSTORE PUSH1 0x20 SWAP5 DUP6 ADD SWAP5 ADD PUSH2 0x269 JUMP JUMPDEST PUSH0 SWAP2 SUB SLT PUSH2 0x16F JUMPI JUMP JUMPDEST CALLVALUE PUSH2 0x16F JUMPI PUSH0 CALLDATASIZE PUSH1 0x3 NOT ADD SLT PUSH2 0x16F JUMPI PUSH1 0x40 MLOAD PUSH32 0x0 PUSH1 0x1 PUSH1 0x1 PUSH1 0xA0 SHL SUB AND DUP2 MSTORE PUSH1 0x20 SWAP1 RETURN JUMPDEST CALLVALUE PUSH2 0x16F JUMPI PUSH1 0x20 CALLDATASIZE PUSH1 0x3 NOT ADD SLT PUSH2 0x16F JUMPI PUSH1 0x4 CALLDATALOAD PUSH32 0x0 PUSH1 0x1 PUSH1 0x1 PUSH1 0xA0 SHL SUB AND CALLER SUB PUSH2 0x3B4 JUMPI PUSH2 0x36D SWAP1 PUSH2 0x342 PUSH1 0x1 PUSH2 0x333 PUSH1 0xF SLOAD PUSH1 0xFF AND SWAP1 JUMP JUMPDEST PUSH2 0x33C DUP2 PUSH2 0x9A6 JUMP JUMPDEST EQ PUSH2 0xDC3 JUMP JUMPDEST PUSH2 0x34D DUP2 ISZERO ISZERO PUSH2 0xDFA JUMP JUMPDEST PUSH2 0x35F PUSH1 0x2 PUSH1 0xFF NOT PUSH1 0xF SLOAD AND OR PUSH1 0xF SSTORE JUMP JUMPDEST PUSH2 0x368 DUP2 PUSH2 0x12EC JUMP JUMPDEST PUSH2 0x149C JUMP JUMPDEST PUSH32 0x0 PUSH32 0x50AD08F58A27F2851D7E3A1B3A6A46B290F2CE677E99642D30FF639721E77790 PUSH0 DUP1 LOG2 STOP JUMPDEST PUSH1 0x40 MLOAD PUSH3 0x461BCD PUSH1 0xE5 SHL DUP2 MSTORE PUSH1 0x20 PUSH1 0x4 DUP3 ADD MSTORE PUSH1 0x6 PUSH1 0x24 DUP3 ADD MSTORE PUSH6 0x2172656C6179 PUSH1 0xD0 SHL PUSH1 0x44 DUP3 ADD MSTORE PUSH1 0x64 SWAP1 REVERT JUMPDEST CALLVALUE PUSH2 0x16F JUMPI PUSH0 CALLDATASIZE PUSH1 0x3 NOT ADD SLT PUSH2 0x16F JUMPI PUSH1 0x20 PUSH2 0x3FC PUSH2 0xE80 JUMP JUMPDEST PUSH1 0x40 MLOAD PUSH1 0x1 PUSH1 0x1 PUSH1 0xA0 SHL SUB SWAP1 SWAP2 AND DUP2 MSTORE RETURN JUMPDEST CALLVALUE PUSH2 0x16F JUMPI PUSH1 0x20 CALLDATASIZE PUSH1 0x3 NOT ADD SLT PUSH2 0x16F JUMPI PUSH1 0x1 PUSH1 0x1 PUSH1 0xA0 SHL SUB PUSH2 0x42F PUSH2 0x159 JUMP JUMPDEST AND PUSH0 MSTORE PUSH1 0x11 PUSH1 0x20 MSTORE PUSH1 0x40 PUSH0 KECCAK256 PUSH1 0x1 DUP1 PUSH1 0xA0 SHL SUB DUP2 SLOAD AND PUSH1 0x1 DUP3 ADD SLOAD SWAP1 PUSH1 0xD PUSH1 0x2 DUP5 ADD SLOAD SWAP4 ADD SLOAD PUSH1 0xFF PUSH1 0x40 MLOAD SWAP5 DUP6 SWAP5 PUSH1 0xA0 DUP7 ADD SWAP5 PUSH1 0x1 DUP1 PUSH1 0xA0 SHL SUB AND DUP7 MSTORE PUSH1 0x20 DUP7 ADD MSTORE DUP2 DUP2 AND ISZERO ISZERO PUSH1 0x40 DUP7 ADD MSTORE PUSH1 0x8 SHR AND ISZERO ISZERO PUSH1 0x60 DUP5 ADD MSTORE PUSH1 0x80 DUP4 ADD MSTORE SUB SWAP1 RETURN JUMPDEST CALLVALUE PUSH2 0x16F JUMPI PUSH0 CALLDATASIZE PUSH1 0x3 NOT ADD SLT PUSH2 0x16F JUMPI PUSH1 0x40 MLOAD PUSH32 0x0 PUSH1 0x1 PUSH1 0x1 PUSH1 0xA0 SHL SUB AND DUP2 MSTORE PUSH1 0x20 SWAP1 RETURN JUMPDEST CALLVALUE PUSH2 0x16F JUMPI PUSH0 CALLDATASIZE PUSH1 0x3 NOT ADD SLT PUSH2 0x16F JUMPI PUSH1 0xA0 PUSH0 SLOAD PUSH1 0x1 SLOAD PUSH1 0x2 SLOAD PUSH1 0x3 SLOAD SWAP1 PUSH1 0x4 SLOAD SWAP3 PUSH1 0x40 MLOAD SWAP5 DUP6 MSTORE PUSH1 0x20 DUP6 ADD MSTORE PUSH1 0x40 DUP5 ADD MSTORE PUSH1 0x60 DUP4 ADD MSTORE PUSH1 0x80 DUP3 ADD MSTORE RETURN JUMPDEST SWAP1 PUSH1 0x20 DUP1 DUP4 MLOAD SWAP3 DUP4 DUP2 MSTORE ADD SWAP3 ADD SWAP1 PUSH0 JUMPDEST DUP2 DUP2 LT PUSH2 0x52E JUMPI POP POP POP SWAP1 JUMP JUMPDEST DUP3 MLOAD PUSH1 0x1 PUSH1 0x1 PUSH1 0xA0 SHL SUB AND DUP5 MSTORE PUSH1 0x20 SWAP4 DUP5 ADD SWAP4 SWAP1 SWAP3 ADD SWAP2 PUSH1 0x1 ADD PUSH2 0x521 JUMP JUMPDEST SWAP1 PUSH1 0x20 PUSH2 0x55E SWAP3 DUP2 DUP2 MSTORE ADD SWAP1 PUSH2 0x511 JUMP JUMPDEST SWAP1 JUMP JUMPDEST CALLVALUE PUSH2 0x16F JUMPI PUSH0 CALLDATASIZE PUSH1 0x3 NOT ADD SLT PUSH2 0x16F JUMPI PUSH1 0x40 MLOAD DUP1 PUSH1 0x20 PUSH1 0x10 SLOAD SWAP2 DUP3 DUP2 MSTORE ADD SWAP1 PUSH1 0x10 PUSH0 MSTORE PUSH0 DUP1 MLOAD PUSH1 0x20 PUSH2 0x1EC0 DUP4 CODECOPY DUP2 MLOAD SWAP2 MSTORE SWAP1 PUSH0 JUMPDEST DUP2 DUP2 LT PUSH2 0x5BC JUMPI PUSH2 0x5B8 DUP6 PUSH2 0x5AC DUP2 DUP8 SUB DUP3 PUSH2 0x1BF JUMP JUMPDEST PUSH1 0x40 MLOAD SWAP2 DUP3 SWAP2 DUP3 PUSH2 0x54D JUMP JUMPDEST SUB SWAP1 RETURN JUMPDEST DUP3 SLOAD PUSH1 0x1 PUSH1 0x1 PUSH1 0xA0 SHL SUB AND DUP5 MSTORE PUSH1 0x20 SWAP1 SWAP4 ADD SWAP3 PUSH1 0x1 SWAP3 DUP4 ADD SWAP3 ADD PUSH2 0x595 JUMP JUMPDEST CALLVALUE PUSH2 0x16F JUMPI PUSH0 CALLDATASIZE PUSH1 0x3 NOT ADD SLT PUSH2 0x16F JUMPI PUSH1 0x40 MLOAD PUSH32 0x0 PUSH1 0x1 PUSH1 0x1 PUSH1 0xA0 SHL SUB AND DUP2 MSTORE PUSH1 0x20 SWAP1 RETURN JUMPDEST PUSH2 0x160 DUP2 ADD SWAP4 SWAP3 SWAP2 PUSH0 DUP3 JUMPDEST PUSH1 0xA DUP3 LT PUSH2 0x63C JUMPI POP POP POP PUSH2 0x140 ADD MSTORE JUMP JUMPDEST PUSH1 0x20 DUP1 PUSH1 0x1 SWAP3 DUP6 MLOAD DUP2 MSTORE ADD SWAP4 ADD SWAP2 ADD SWAP1 SWAP2 PUSH2 0x62A JUMP JUMPDEST CALLVALUE PUSH2 0x16F JUMPI PUSH1 0x20 CALLDATASIZE PUSH1 0x3 NOT ADD SLT PUSH2 0x16F JUMPI PUSH2 0x66B PUSH2 0x159 JUMP JUMPDEST PUSH2 0x140 SWAP1 DUP2 PUSH1 0x40 MLOAD PUSH2 0x67D DUP3 DUP3 PUSH2 0x1BF JUMP JUMPDEST CALLDATASIZE SWAP1 CALLDATACOPY PUSH1 0x1 PUSH1 0x1 PUSH1 0xA0 SHL SUB AND PUSH0 SWAP1 DUP2 MSTORE PUSH1 0x11 PUSH1 0x20 MSTORE PUSH1 0x40 DUP1 DUP3 KECCAK256 PUSH1 0xD DUP2 ADD SLOAD SWAP2 MLOAD SWAP2 SWAP4 SWAP2 SWAP3 PUSH1 0x3 SWAP1 SWAP2 ADD SWAP1 DUP4 JUMPDEST PUSH1 0xA DUP3 LT PUSH2 0x6CE JUMPI POP POP POP PUSH2 0x6BF SWAP1 DUP3 PUSH2 0x1BF JUMP JUMPDEST PUSH2 0x5B8 PUSH1 0x40 MLOAD SWAP3 DUP4 SWAP3 DUP4 PUSH2 0x61F JUMP JUMPDEST PUSH1 0x1 PUSH1 0x20 DUP2 SWAP3 DUP6 SLOAD DUP2 MSTORE ADD SWAP4 ADD SWAP2 ADD SWAP1 SWAP2 PUSH2 0x6AA JUMP JUMPDEST CALLVALUE PUSH2 0x16F JUMPI PUSH1 0x40 CALLDATASIZE PUSH1 0x3 NOT ADD SLT PUSH2 0x16F JUMPI PUSH2 0x6FD PUSH2 0x159 JUMP JUMPDEST PUSH1 0x24 CALLDATALOAD SWAP1 PUSH1 0xFF DUP3 AND SWAP2 DUP3 DUP2 SUB PUSH2 0x16F JUMPI PUSH2 0x72D PUSH1 0x2 PUSH2 0x71E PUSH1 0xF SLOAD PUSH1 0xFF AND SWAP1 JUMP JUMPDEST PUSH2 0x727 DUP2 PUSH2 0x9A6 JUMP JUMPDEST EQ PUSH2 0xED0 JUMP JUMPDEST PUSH2 0x763 PUSH2 0x753 PUSH2 0x73E PUSH1 0x12 SLOAD PUSH2 0xC29 JUMP JUMPDEST SWAP1 SLOAD PUSH1 0x3 SWAP2 SWAP1 SWAP2 SHL SHR PUSH1 0x1 PUSH1 0x1 PUSH1 0xA0 SHL SUB AND SWAP1 JUMP JUMPDEST PUSH1 0x1 PUSH1 0x1 PUSH1 0xA0 SHL SUB AND CALLER EQ PUSH2 0xF07 JUMP JUMPDEST CALLER PUSH0 SWAP1 DUP2 MSTORE PUSH1 0x11 PUSH1 0x20 MSTORE PUSH1 0x40 SWAP1 KECCAK256 PUSH2 0x793 SWAP1 PUSH2 0x78E SWAP1 PUSH2 0x78A SWAP1 PUSH1 0x2 ADD SLOAD PUSH1 0x8 SHR PUSH1 0xFF AND SWAP1 JUMP JUMPDEST ISZERO SWAP1 JUMP JUMPDEST PUSH2 0xF3B JUMP JUMPDEST PUSH1 0x1 PUSH1 0x1 PUSH1 0xA0 SHL SUB DUP3 AND SWAP3 PUSH2 0x7A9 DUP5 ISZERO ISZERO PUSH2 0xF6D JUMP JUMPDEST DUP1 PUSH2 0x86E JUMPI POP POP PUSH2 0x7F6 DUP2 PUSH2 0x7DD PUSH1 0xD PUSH2 0x7D4 DUP2 SWAP6 PUSH1 0x1 DUP1 PUSH1 0xA0 SHL SUB AND PUSH0 MSTORE PUSH1 0x11 PUSH1 0x20 MSTORE PUSH1 0x40 PUSH0 KECCAK256 SWAP1 JUMP JUMPDEST ADD SLOAD ISZERO ISZERO PUSH2 0x105D JUMP JUMPDEST PUSH1 0x1 PUSH1 0x1 PUSH1 0xA0 SHL SUB AND PUSH0 SWAP1 DUP2 MSTORE PUSH1 0x11 PUSH1 0x20 MSTORE PUSH1 0x40 SWAP1 KECCAK256 SWAP1 JUMP JUMPDEST ADD PUSH2 0x801 DUP2 SLOAD PUSH2 0x1043 JUMP JUMPDEST SWAP1 SSTORE CALLER PUSH0 SWAP1 DUP2 MSTORE PUSH1 0x11 PUSH1 0x20 MSTORE PUSH1 0x40 SWAP1 KECCAK256 PUSH1 0xD ADD PUSH2 0x81E DUP2 SLOAD PUSH2 0x104F JUMP JUMPDEST SWAP1 SSTORE PUSH1 0x40 MLOAD PUSH0 DUP2 MSTORE CALLER SWAP2 SWAP1 PUSH32 0x345AB5394E10F7B605071092C87EA512B2B9F3A616F8C85B996C2AA8A418C69C SWAP1 PUSH1 0x20 SWAP1 LOG3 JUMPDEST PUSH2 0x858 PUSH2 0x15D5 JUMP JUMPDEST PUSH2 0x860 PUSH2 0x15FE JUMP JUMPDEST PUSH2 0x866 JUMPI STOP JUMPDEST PUSH2 0x27A PUSH2 0x17A9 JUMP JUMPDEST PUSH2 0x909 PUSH2 0x8DD PUSH2 0x945 SWAP4 SWAP6 SWAP5 PUSH2 0x893 DUP5 PUSH1 0x1 PUSH2 0x8C6 SWAP7 LT ISZERO SWAP1 DUP2 PUSH2 0x97D JUMPI JUMPDEST POP PUSH2 0xFA3 JUMP JUMPDEST PUSH1 0x3 PUSH2 0x89E DUP9 PUSH2 0xFDB JUMP JUMPDEST SWAP5 DUP3 PUSH2 0x7DD PUSH2 0x8D6 PUSH2 0x8CC DUP10 DUP7 PUSH2 0x8C6 DUP3 SWAP10 PUSH1 0x1 DUP1 PUSH1 0xA0 SHL SUB AND PUSH0 MSTORE PUSH1 0x11 PUSH1 0x20 MSTORE PUSH1 0x40 PUSH0 KECCAK256 SWAP1 JUMP JUMPDEST ADD PUSH2 0xFFE JUMP JUMPDEST SWAP1 SLOAD SWAP1 PUSH1 0x3 SHL SHR SWAP1 JUMP JUMPDEST ISZERO ISZERO PUSH2 0x100D JUMP JUMPDEST PUSH2 0x8F3 PUSH2 0x8EE DUP3 DUP5 SLOAD SWAP1 PUSH1 0x3 SHL SHR SWAP1 JUMP JUMPDEST PUSH2 0x1043 JUMP JUMPDEST DUP3 SLOAD PUSH0 NOT PUSH1 0x3 SWAP4 SWAP1 SWAP4 SHL SWAP3 DUP4 SHL NOT AND SWAP2 SHL OR SWAP1 SSTORE JUMP JUMPDEST CALLER PUSH0 SWAP1 DUP2 MSTORE PUSH1 0x11 PUSH1 0x20 MSTORE PUSH1 0x40 SWAP1 KECCAK256 PUSH2 0x93F SWAP1 PUSH2 0x929 SWAP1 DUP4 SWAP1 PUSH1 0x3 SWAP1 PUSH2 0x8C6 JUMP JUMPDEST PUSH2 0x8F3 PUSH2 0x93A DUP3 DUP5 SLOAD SWAP1 PUSH1 0x3 SHL SHR SWAP1 JUMP JUMPDEST PUSH2 0x104F JUMP JUMPDEST CALLER PUSH2 0x1565 JUMP JUMPDEST PUSH1 0x40 MLOAD PUSH1 0xFF SWAP3 SWAP1 SWAP3 AND DUP3 MSTORE CALLER SWAP2 PUSH32 0x345AB5394E10F7B605071092C87EA512B2B9F3A616F8C85B996C2AA8A418C69C SWAP1 PUSH1 0x20 SWAP1 LOG3 PUSH2 0x850 JUMP JUMPDEST PUSH1 0xA SWAP2 POP GT ISZERO PUSH0 PUSH2 0x88D JUMP JUMPDEST CALLVALUE PUSH2 0x16F JUMPI PUSH0 CALLDATASIZE PUSH1 0x3 NOT ADD SLT PUSH2 0x16F JUMPI PUSH1 0x20 PUSH1 0x10 SLOAD PUSH1 0x40 MLOAD SWAP1 DUP2 MSTORE RETURN JUMPDEST PUSH1 0x4 GT ISZERO PUSH2 0x9B0 JUMPI JUMP JUMPDEST PUSH4 0x4E487B71 PUSH1 0xE0 SHL PUSH0 MSTORE PUSH1 0x21 PUSH1 0x4 MSTORE PUSH1 0x24 PUSH0 REVERT JUMPDEST CALLVALUE PUSH2 0x16F JUMPI PUSH0 CALLDATASIZE PUSH1 0x3 NOT ADD SLT PUSH2 0x16F JUMPI PUSH1 0xFF PUSH1 0xF SLOAD AND PUSH1 0x40 MLOAD PUSH1 0x4 DUP3 LT ISZERO PUSH2 0x9B0 JUMPI PUSH1 0x20 SWAP2 DUP2 MSTORE RETURN JUMPDEST PUSH0 CALLDATASIZE PUSH1 0x3 NOT ADD SLT PUSH2 0x16F JUMPI PUSH2 0xA16 PUSH2 0xA07 PUSH1 0xF SLOAD PUSH1 0xFF AND SWAP1 JUMP JUMPDEST PUSH2 0xA10 DUP2 PUSH2 0x9A6 JUMP JUMPDEST ISZERO PUSH2 0x1094 JUMP JUMPDEST CALLER PUSH0 SWAP1 DUP2 MSTORE PUSH1 0x11 PUSH1 0x20 MSTORE PUSH1 0x40 SWAP1 KECCAK256 PUSH1 0x2 ADD SLOAD PUSH2 0xA35 SWAP1 PUSH1 0xFF AND ISZERO PUSH2 0x10CB JUMP JUMPDEST PUSH2 0xA44 PUSH1 0x10 SLOAD PUSH1 0x1 SLOAD GT PUSH2 0x1100 JUMP JUMPDEST PUSH1 0x3 SLOAD DUP1 PUSH2 0xB01 JUMPI POP PUSH2 0xA5A PUSH1 0x2 SLOAD CALLVALUE EQ PUSH2 0x1166 JUMP JUMPDEST CALLER PUSH0 SWAP1 DUP2 MSTORE PUSH1 0x11 PUSH1 0x20 MSTORE PUSH1 0x40 SWAP1 KECCAK256 PUSH2 0xA93 SWAP1 PUSH1 0x2 SWAP1 DUP1 SLOAD PUSH1 0x1 PUSH1 0x1 PUSH1 0xA0 SHL SUB NOT AND CALLER OR DUP2 SSTORE CALLVALUE PUSH1 0x1 DUP3 ADD SSTORE ADD PUSH1 0x1 PUSH1 0xFF NOT DUP3 SLOAD AND OR SWAP1 SSTORE JUMP JUMPDEST PUSH2 0xA9C CALLER PUSH2 0x11A0 JUMP JUMPDEST PUSH1 0x40 MLOAD CALLVALUE DUP2 MSTORE CALLER SWAP1 PUSH32 0x0 SWAP1 PUSH32 0x3DFBE1FCB4E2D61F3B4A0C93D8F814C92250618B3387F396CC9FC9FAFE2C203 SWAP1 PUSH1 0x20 SWAP1 LOG3 PUSH1 0x10 SLOAD PUSH1 0x1 SLOAD EQ PUSH2 0xAF9 JUMPI STOP JUMPDEST PUSH2 0x27A PUSH2 0x19A1 JUMP JUMPDEST PUSH2 0xB18 SWAP1 PUSH1 0x2 SLOAD CALLVALUE LT ISZERO SWAP1 DUP2 PUSH2 0xB1D JUMPI JUMPDEST POP PUSH2 0x1132 JUMP JUMPDEST PUSH2 0xA5A JUMP JUMPDEST SWAP1 POP CALLVALUE GT ISZERO PUSH0 PUSH2 0xB12 JUMP JUMPDEST CALLVALUE PUSH2 0x16F JUMPI PUSH0 CALLDATASIZE PUSH1 0x3 NOT ADD SLT PUSH2 0x16F JUMPI PUSH32 0x0 PUSH1 0x1 PUSH1 0x1 PUSH1 0xA0 SHL SUB AND CALLER SUB PUSH2 0xB93 JUMPI PUSH2 0xB77 PUSH2 0xA07 PUSH1 0xF SLOAD PUSH1 0xFF AND SWAP1 JUMP JUMPDEST PUSH2 0xAF9 PUSH1 0x10 SLOAD PUSH2 0xB8A PUSH0 SLOAD DUP3 LT ISZERO PUSH2 0x11F7 JUMP JUMPDEST PUSH1 0x1 SLOAD GT PUSH2 0x1229 JUMP JUMPDEST PUSH1 0x40 MLOAD PUSH3 0x461BCD PUSH1 0xE5 SHL DUP2 MSTORE PUSH1 0x20 PUSH1 0x4 DUP3 ADD MSTORE PUSH1 0x6 PUSH1 0x24 DUP3 ADD MSTORE PUSH6 0x10B7BBB732B9 PUSH1 0xD1 SHL PUSH1 0x44 DUP3 ADD MSTORE PUSH1 0x64 SWAP1 REVERT JUMPDEST CALLVALUE PUSH2 0x16F JUMPI PUSH0 CALLDATASIZE PUSH1 0x3 NOT ADD SLT PUSH2 0x16F JUMPI PUSH1 0x20 PUSH1 0x40 MLOAD PUSH32 0x0 DUP2 MSTORE RETURN JUMPDEST CALLVALUE PUSH2 0x16F JUMPI PUSH0 CALLDATASIZE PUSH1 0x3 NOT ADD SLT PUSH2 0x16F JUMPI PUSH1 0x20 PUSH2 0x3FC PUSH2 0x1262 JUMP JUMPDEST PUSH4 0x4E487B71 PUSH1 0xE0 SHL PUSH0 MSTORE PUSH1 0x32 PUSH1 0x4 MSTORE PUSH1 0x24 PUSH0 REVERT JUMPDEST PUSH1 0x10 SLOAD DUP2 LT ISZERO PUSH2 0xC41 JUMPI PUSH1 0x10 PUSH0 MSTORE PUSH1 0x20 PUSH0 KECCAK256 ADD SWAP1 PUSH0 SWAP1 JUMP JUMPDEST PUSH2 0xC15 JUMP JUMPDEST CALLVALUE PUSH2 0x16F JUMPI PUSH1 0x20 CALLDATASIZE PUSH1 0x3 NOT ADD SLT PUSH2 0x16F JUMPI PUSH1 0x4 CALLDATALOAD PUSH1 0x10 SLOAD DUP2 LT ISZERO PUSH2 0x16F JUMPI PUSH1 0x10 PUSH0 MSTORE PUSH0 DUP1 MLOAD PUSH1 0x20 PUSH2 0x1EC0 DUP4 CODECOPY DUP2 MLOAD SWAP2 MSTORE ADD SLOAD PUSH1 0x40 MLOAD PUSH1 0x1 PUSH1 0x1 PUSH1 0xA0 SHL SUB SWAP1 SWAP2 AND DUP2 MSTORE PUSH1 0x20 SWAP1 RETURN JUMPDEST CALLVALUE PUSH2 0x16F JUMPI PUSH0 CALLDATASIZE PUSH1 0x3 NOT ADD SLT PUSH2 0x16F JUMPI PUSH1 0x20 PUSH1 0x12 SLOAD PUSH1 0x40 MLOAD SWAP1 DUP2 MSTORE RETURN JUMPDEST POP PUSH32 0x0 PUSH1 0x1 PUSH1 0x1 PUSH1 0xA0 SHL SUB AND DUP1 ISZERO ISZERO SWAP1 DUP2 PUSH2 0xDB9 JUMPI JUMPDEST POP ISZERO PUSH2 0xD8B JUMPI PUSH1 0xFF PUSH1 0xF SLOAD AND PUSH1 0x4 DUP2 LT ISZERO PUSH2 0x9B0 JUMPI PUSH2 0xD44 SWAP2 PUSH2 0xD07 PUSH1 0x1 PUSH2 0xD3E SWAP4 EQ PUSH2 0xDC3 JUMP JUMPDEST PUSH2 0xD15 PUSH1 0x1 DUP3 MLOAD LT ISZERO PUSH2 0x1296 JUMP JUMPDEST PUSH2 0xD27 PUSH1 0x2 PUSH1 0xFF NOT PUSH1 0xF SLOAD AND OR PUSH1 0xF SSTORE JUMP JUMPDEST PUSH2 0xD39 PUSH2 0xD33 DUP3 PUSH2 0x12CB JUMP JUMPDEST MLOAD PUSH2 0x12EC JUMP JUMPDEST PUSH2 0x12CB JUMP JUMPDEST MLOAD PUSH2 0x149C JUMP JUMPDEST PUSH32 0x0 PUSH32 0x50AD08F58A27F2851D7E3A1B3A6A46B290F2CE677E99642D30FF639721E77790 PUSH0 DUP1 LOG2 JUMP JUMPDEST PUSH1 0x40 MLOAD PUSH3 0x461BCD PUSH1 0xE5 SHL DUP2 MSTORE PUSH1 0x20 PUSH1 0x4 DUP3 ADD MSTORE PUSH1 0x6 PUSH1 0x24 DUP3 ADD MSTORE PUSH6 0x858DBDBDC99 PUSH1 0xD2 SHL PUSH1 0x44 DUP3 ADD MSTORE PUSH1 0x64 SWAP1 REVERT JUMPDEST SWAP1 POP CALLER EQ PUSH0 PUSH2 0xCDF JUMP JUMPDEST ISZERO PUSH2 0xDCA JUMPI JUMP JUMPDEST PUSH1 0x40 MLOAD PUSH3 0x461BCD PUSH1 0xE5 SHL DUP2 MSTORE PUSH1 0x20 PUSH1 0x4 DUP3 ADD MSTORE PUSH1 0x8 PUSH1 0x24 DUP3 ADD MSTORE PUSH8 0x216465616C696E67 PUSH1 0xC0 SHL PUSH1 0x44 DUP3 ADD MSTORE PUSH1 0x64 SWAP1 REVERT JUMPDEST ISZERO PUSH2 0xE01 JUMPI JUMP JUMPDEST PUSH1 0x40 MLOAD PUSH3 0x461BCD PUSH1 0xE5 SHL DUP2 MSTORE PUSH1 0x20 PUSH1 0x4 DUP3 ADD MSTORE PUSH1 0x5 PUSH1 0x24 DUP3 ADD MSTORE PUSH5 0x217A65726F PUSH1 0xD8 SHL PUSH1 0x44 DUP3 ADD MSTORE PUSH1 0x64 SWAP1 REVERT JUMPDEST PUSH4 0x4E487B71 PUSH1 0xE0 SHL PUSH0 MSTORE PUSH1 0x11 PUSH1 0x4 MSTORE PUSH1 0x24 PUSH0 REVERT JUMPDEST SWAP1 PUSH1 0x1 DUP3 ADD DUP1 SWAP3 GT PUSH2 0xE50 JUMPI JUMP JUMPDEST PUSH2 0xE2E JUMP JUMPDEST SWAP2 SWAP1 DUP3 ADD DUP1 SWAP3 GT PUSH2 0xE50 JUMPI JUMP JUMPDEST DUP2 ISZERO PUSH2 0xE6C JUMPI MOD SWAP1 JUMP JUMPDEST PUSH4 0x4E487B71 PUSH1 0xE0 SHL PUSH0 MSTORE PUSH1 0x12 PUSH1 0x4 MSTORE PUSH1 0x24 PUSH0 REVERT JUMPDEST PUSH1 0x10 SLOAD PUSH1 0x2 DUP2 LT PUSH2 0xECB JUMPI PUSH1 0x12 SLOAD PUSH1 0x1 DUP2 ADD DUP1 SWAP2 GT PUSH2 0xE50 JUMPI DUP2 PUSH2 0xEA3 SWAP2 PUSH2 0xE62 JUMP JUMPDEST SWAP1 DUP2 LT ISZERO PUSH2 0xC41 JUMPI PUSH1 0x10 PUSH0 MSTORE PUSH0 DUP1 MLOAD PUSH1 0x20 PUSH2 0x1EC0 DUP4 CODECOPY DUP2 MLOAD SWAP2 MSTORE ADD SLOAD PUSH1 0x1 PUSH1 0x1 PUSH1 0xA0 SHL SUB AND SWAP1 JUMP JUMPDEST POP PUSH0 SWAP1 JUMP JUMPDEST ISZERO PUSH2 0xED7 JUMPI JUMP JUMPDEST PUSH1 0x40 MLOAD PUSH3 0x461BCD PUSH1 0xE5 SHL DUP2 MSTORE PUSH1 0x20 PUSH1 0x4 DUP3 ADD MSTORE PUSH1 0x8 PUSH1 0x24 DUP3 ADD MSTORE PUSH8 0x21706C6179696E67 PUSH1 0xC0 SHL PUSH1 0x44 DUP3 ADD MSTORE PUSH1 0x64 SWAP1 REVERT JUMPDEST ISZERO PUSH2 0xF0E JUMPI JUMP JUMPDEST PUSH1 0x40 MLOAD PUSH3 0x461BCD PUSH1 0xE5 SHL DUP2 MSTORE PUSH1 0x20 PUSH1 0x4 DUP3 ADD MSTORE PUSH1 0x5 PUSH1 0x24 DUP3 ADD MSTORE PUSH5 0x10BA3AB937 PUSH1 0xD9 SHL PUSH1 0x44 DUP3 ADD MSTORE PUSH1 0x64 SWAP1 REVERT JUMPDEST ISZERO PUSH2 0xF42 JUMPI JUMP JUMPDEST PUSH1 0x40 MLOAD PUSH3 0x461BCD PUSH1 0xE5 SHL DUP2 MSTORE PUSH1 0x20 PUSH1 0x4 DUP3 ADD MSTORE PUSH1 0x3 PUSH1 0x24 DUP3 ADD MSTORE PUSH3 0x1BDD5D PUSH1 0xEA SHL PUSH1 0x44 DUP3 ADD MSTORE PUSH1 0x64 SWAP1 REVERT JUMPDEST ISZERO PUSH2 0xF74 JUMPI JUMP JUMPDEST PUSH1 0x40 MLOAD PUSH3 0x461BCD PUSH1 0xE5 SHL DUP2 MSTORE PUSH1 0x20 PUSH1 0x4 DUP3 ADD MSTORE PUSH1 0x7 PUSH1 0x24 DUP3 ADD MSTORE PUSH7 0x85D185C99D95D PUSH1 0xCA SHL PUSH1 0x44 DUP3 ADD MSTORE PUSH1 0x64 SWAP1 REVERT JUMPDEST ISZERO PUSH2 0xFAA JUMPI JUMP JUMPDEST PUSH1 0x40 MLOAD PUSH3 0x461BCD PUSH1 0xE5 SHL DUP2 MSTORE PUSH1 0x20 PUSH1 0x4 DUP3 ADD MSTORE PUSH1 0x9 PUSH1 0x24 DUP3 ADD MSTORE PUSH9 0x6361726420312D313 PUSH1 0xBC SHL PUSH1 0x44 DUP3 ADD MSTORE PUSH1 0x64 SWAP1 REVERT JUMPDEST PUSH1 0xFF PUSH0 NOT SWAP2 AND ADD SWAP1 PUSH1 0xFF DUP3 GT PUSH2 0xE50 JUMPI JUMP JUMPDEST PUSH1 0xA DUP2 LT ISZERO PUSH2 0xC41 JUMPI PUSH1 0x5 ADD SWAP1 PUSH0 SWAP1 JUMP JUMPDEST PUSH1 0xA DUP3 LT ISZERO PUSH2 0xC41 JUMPI ADD SWAP1 PUSH0 SWAP1 JUMP JUMPDEST ISZERO PUSH2 0x1014 JUMPI JUMP JUMPDEST PUSH1 0x40 MLOAD PUSH3 0x461BCD PUSH1 0xE5 SHL DUP2 MSTORE PUSH1 0x20 PUSH1 0x4 DUP3 ADD MSTORE PUSH1 0x7 PUSH1 0x24 DUP3 ADD MSTORE PUSH7 0x1B9BC818D85C99 PUSH1 0xCA SHL PUSH1 0x44 DUP3 ADD MSTORE PUSH1 0x64 SWAP1 REVERT JUMPDEST DUP1 ISZERO PUSH2 0xE50 JUMPI PUSH0 NOT ADD SWAP1 JUMP JUMPDEST PUSH0 NOT DUP2 EQ PUSH2 0xE50 JUMPI PUSH1 0x1 ADD SWAP1 JUMP JUMPDEST ISZERO PUSH2 0x1064 JUMPI JUMP JUMPDEST PUSH1 0x40 MLOAD PUSH3 0x461BCD PUSH1 0xE5 SHL DUP2 MSTORE PUSH1 0x20 PUSH1 0x4 DUP3 ADD MSTORE PUSH1 0x8 PUSH1 0x24 DUP3 ADD MSTORE PUSH8 0x3737903537B5B2B9 PUSH1 0xC1 SHL PUSH1 0x44 DUP3 ADD MSTORE PUSH1 0x64 SWAP1 REVERT JUMPDEST ISZERO PUSH2 0x109B JUMPI JUMP JUMPDEST PUSH1 0x40 MLOAD PUSH3 0x461BCD PUSH1 0xE5 SHL DUP2 MSTORE PUSH1 0x20 PUSH1 0x4 DUP3 ADD MSTORE PUSH1 0x8 PUSH1 0x24 DUP3 ADD MSTORE PUSH8 0x2170656E64696E67 PUSH1 0xC0 SHL PUSH1 0x44 DUP3 ADD MSTORE PUSH1 0x64 SWAP1 REVERT JUMPDEST ISZERO PUSH2 0x10D2 JUMPI JUMP JUMPDEST PUSH1 0x40 MLOAD PUSH3 0x461BCD PUSH1 0xE5 SHL DUP2 MSTORE PUSH1 0x20 PUSH1 0x4 DUP3 ADD MSTORE PUSH1 0x6 PUSH1 0x24 DUP3 ADD MSTORE PUSH6 0x1A9BDA5B9959 PUSH1 0xD2 SHL PUSH1 0x44 DUP3 ADD MSTORE PUSH1 0x64 SWAP1 REVERT JUMPDEST ISZERO PUSH2 0x1107 JUMPI JUMP JUMPDEST PUSH1 0x64 PUSH1 0x40 MLOAD PUSH3 0x461BCD PUSH1 0xE5 SHL DUP2 MSTORE PUSH1 0x20 PUSH1 0x4 DUP3 ADD MSTORE PUSH1 0x4 PUSH1 0x24 DUP3 ADD MSTORE PUSH4 0x199D5B1B PUSH1 0xE2 SHL PUSH1 0x44 DUP3 ADD MSTORE REVERT JUMPDEST ISZERO PUSH2 0x1139 JUMPI JUMP JUMPDEST PUSH1 0x40 MLOAD PUSH3 0x461BCD PUSH1 0xE5 SHL DUP2 MSTORE PUSH1 0x20 PUSH1 0x4 DUP3 ADD MSTORE PUSH1 0x5 PUSH1 0x24 DUP3 ADD MSTORE PUSH5 0x72616E6765 PUSH1 0xD8 SHL PUSH1 0x44 DUP3 ADD MSTORE PUSH1 0x64 SWAP1 REVERT JUMPDEST ISZERO PUSH2 0x116D JUMPI JUMP JUMPDEST PUSH1 0x40 MLOAD PUSH3 0x461BCD PUSH1 0xE5 SHL DUP2 MSTORE PUSH1 0x20 PUSH1 0x4 DUP3 ADD MSTORE PUSH1 0xB PUSH1 0x24 DUP3 ADD MSTORE PUSH11 0x6669786564207374616B65 PUSH1 0xA8 SHL PUSH1 0x44 DUP3 ADD MSTORE PUSH1 0x64 SWAP1 REVERT JUMPDEST PUSH1 0x10 SLOAD PUSH9 0x10000000000000000 DUP2 LT ISZERO PUSH2 0x1E1 JUMPI PUSH1 0x1 DUP2 ADD PUSH1 0x10 SSTORE PUSH1 0x10 SLOAD DUP2 LT ISZERO PUSH2 0xC41 JUMPI PUSH1 0x10 PUSH0 MSTORE PUSH0 DUP1 MLOAD PUSH1 0x20 PUSH2 0x1EC0 DUP4 CODECOPY DUP2 MLOAD SWAP2 MSTORE ADD DUP1 SLOAD PUSH1 0x1 PUSH1 0x1 PUSH1 0xA0 SHL SUB NOT AND PUSH1 0x1 PUSH1 0x1 PUSH1 0xA0 SHL SUB SWAP1 SWAP3 AND SWAP2 SWAP1 SWAP2 OR SWAP1 SSTORE JUMP JUMPDEST ISZERO PUSH2 0x11FE JUMPI JUMP JUMPDEST PUSH1 0x64 PUSH1 0x40 MLOAD PUSH3 0x461BCD PUSH1 0xE5 SHL DUP2 MSTORE PUSH1 0x20 PUSH1 0x4 DUP3 ADD MSTORE PUSH1 0x4 PUSH1 0x24 DUP3 ADD MSTORE PUSH4 0x10B6B4B7 PUSH1 0xE1 SHL PUSH1 0x44 DUP3 ADD MSTORE REVERT JUMPDEST ISZERO PUSH2 0x1230 JUMPI JUMP JUMPDEST PUSH1 0x40 MLOAD PUSH3 0x461BCD PUSH1 0xE5 SHL DUP2 MSTORE PUSH1 0x20 PUSH1 0x4 DUP3 ADD MSTORE PUSH1 0xA PUSH1 0x24 DUP3 ADD MSTORE PUSH10 0x2166756C6C206175746F PUSH1 0xB0 SHL PUSH1 0x44 DUP3 ADD MSTORE PUSH1 0x64 SWAP1 REVERT JUMPDEST PUSH1 0x10 SLOAD DUP1 ISZERO PUSH2 0xECB JUMPI PUSH1 0x12 SLOAD SWAP1 DUP2 LT ISZERO PUSH2 0xC41 JUMPI PUSH1 0x10 PUSH0 MSTORE PUSH0 DUP1 MLOAD PUSH1 0x20 PUSH2 0x1EC0 DUP4 CODECOPY DUP2 MLOAD SWAP2 MSTORE ADD SLOAD PUSH1 0x1 PUSH1 0x1 PUSH1 0xA0 SHL SUB AND SWAP1 JUMP JUMPDEST ISZERO PUSH2 0x129D JUMPI JUMP JUMPDEST PUSH1 0x40 MLOAD PUSH3 0x461BCD PUSH1 0xE5 SHL DUP2 MSTORE PUSH1 0x20 PUSH1 0x4 DUP3 ADD MSTORE PUSH1 0x6 PUSH1 0x24 DUP3 ADD MSTORE PUSH6 0x21776F726473 PUSH1 0xD0 SHL PUSH1 0x44 DUP3 ADD MSTORE PUSH1 0x64 SWAP1 REVERT JUMPDEST DUP1 MLOAD ISZERO PUSH2 0xC41 JUMPI PUSH1 0x20 ADD SWAP1 JUMP JUMPDEST DUP1 MLOAD DUP3 LT ISZERO PUSH2 0xC41 JUMPI PUSH1 0x20 SWAP2 PUSH1 0x5 SHL ADD ADD SWAP1 JUMP JUMPDEST PUSH1 0x10 SLOAD PUSH2 0x12F7 PUSH2 0x1CA7 JUMP JUMPDEST DUP1 MLOAD PUSH32 0x0 SWAP2 PUSH0 JUMPDEST DUP3 DUP2 LT PUSH2 0x1425 JUMPI POP PUSH0 JUMPDEST DUP3 DUP2 LT PUSH2 0x13CC JUMPI POP POP POP PUSH1 0x4 SLOAD SWAP3 PUSH0 JUMPDEST DUP5 DUP2 LT PUSH2 0x1345 JUMPI POP POP POP POP POP JUMP JUMPDEST PUSH1 0x40 DUP1 MLOAD PUSH1 0x20 DUP2 ADD DUP5 DUP2 MSTORE SWAP2 DUP2 ADD DUP6 SWAP1 MSTORE ADDRESS PUSH1 0x60 SWAP1 DUP2 SHL PUSH1 0x1 PUSH1 0x1 PUSH1 0x60 SHL SUB NOT AND SWAP1 DUP3 ADD MSTORE PUSH1 0x74 DUP2 ADD DUP4 SWAP1 MSTORE PUSH1 0x1 PUSH1 0xF8 SHL PUSH1 0x94 DUP3 ADD MSTORE PUSH1 0x1 SWAP3 SWAP2 PUSH1 0xD SWAP2 PUSH2 0x13B9 SWAP2 PUSH2 0x7DD SWAP2 PUSH2 0x73E SWAP2 PUSH2 0x13B4 SWAP2 DUP12 SWAP2 SWAP1 PUSH2 0x13AC DUP2 PUSH1 0x95 DUP2 ADD JUMPDEST SUB PUSH1 0x1F NOT DUP2 ADD DUP4 MSTORE DUP3 PUSH2 0x1BF JUMP JUMPDEST MLOAD SWAP1 KECCAK256 PUSH2 0xE62 JUMP JUMPDEST PUSH2 0xC29 JUMP JUMPDEST ADD PUSH2 0x13C4 DUP2 SLOAD PUSH2 0xE42 JUMP JUMPDEST SWAP1 SSTORE ADD PUSH2 0x1337 JUMP JUMPDEST DUP1 PUSH2 0x141F PUSH2 0x13E2 PUSH2 0x73E PUSH2 0x13B4 DUP10 PUSH1 0x1 SWAP7 PUSH2 0xE62 JUMP JUMPDEST PUSH2 0x13F6 PUSH2 0x13EF DUP5 DUP8 PUSH2 0x12D8 JUMP JUMPDEST MLOAD PUSH1 0xFF AND SWAP1 JUMP JUMPDEST SWAP1 PUSH2 0x141A PUSH2 0x929 DUP4 PUSH1 0x3 PUSH2 0x8C6 DUP6 PUSH1 0x1 DUP1 PUSH1 0xA0 SHL SUB AND PUSH0 MSTORE PUSH1 0x11 PUSH1 0x20 MSTORE PUSH1 0x40 PUSH0 KECCAK256 SWAP1 JUMP JUMPDEST PUSH2 0x1565 JUMP JUMPDEST ADD PUSH2 0x1327 JUMP JUMPDEST PUSH1 0x40 DUP1 MLOAD PUSH1 0x20 DUP2 ADD DUP9 DUP2 MSTORE SWAP2 DUP2 ADD DUP7 SWAP1 MSTORE ADDRESS PUSH1 0x60 SWAP1 DUP2 SHL PUSH1 0x1 PUSH1 0x1 PUSH1 0x60 SHL SUB NOT AND SWAP1 DUP3 ADD MSTORE PUSH1 0x74 DUP2 ADD DUP4 SWAP1 MSTORE PUSH1 0x1 SWAP3 SWAP2 PUSH2 0x1469 SWAP2 DUP7 SWAP2 SWAP1 PUSH2 0x13AC DUP2 PUSH1 0x94 DUP2 ADD PUSH2 0x139E JUMP JUMPDEST PUSH2 0x1473 DUP2 DUP6 PUSH2 0x12D8 JUMP JUMPDEST MLOAD SWAP1 PUSH2 0x148A PUSH2 0x1482 DUP5 DUP8 PUSH2 0x12D8 JUMP JUMPDEST MLOAD SWAP2 DUP7 PUSH2 0x12D8 JUMP JUMPDEST MSTORE PUSH2 0x1495 DUP3 DUP6 PUSH2 0x12D8 JUMP JUMPDEST MSTORE ADD PUSH2 0x131D JUMP JUMPDEST SWAP1 ADDRESS PUSH1 0x60 SHL PUSH1 0x1 PUSH1 0x1 PUSH1 0x60 SHL SUB NOT AND PUSH32 0x0 PUSH0 JUMPDEST PUSH1 0x10 SLOAD DUP2 LT ISZERO PUSH2 0x155E JUMPI PUSH1 0x10 PUSH0 MSTORE PUSH0 DUP1 MLOAD PUSH1 0x20 PUSH2 0x1EC0 DUP4 CODECOPY DUP2 MLOAD SWAP2 MSTORE DUP2 ADD SLOAD PUSH1 0x40 DUP1 MLOAD PUSH1 0x20 DUP2 ADD DUP9 DUP2 MSTORE SWAP2 DUP2 ADD DUP6 SWAP1 MSTORE PUSH1 0x60 DUP1 DUP3 ADD DUP8 SWAP1 MSTORE DUP4 SWAP1 SHL PUSH1 0x1 PUSH1 0x1 PUSH1 0x60 SHL SUB NOT AND PUSH1 0x74 DUP3 ADD MSTORE PUSH1 0x68 DUP2 MSTORE PUSH1 0x1 SWAP4 SWAP3 PUSH1 0x1 PUSH1 0x1 PUSH1 0xA0 SHL SUB AND SWAP2 PUSH2 0x1557 SWAP2 PUSH2 0x1539 PUSH1 0x88 DUP3 PUSH2 0x1BF JUMP JUMPDEST MLOAD SWAP1 KECCAK256 PUSH1 0x1 PUSH1 0x1 PUSH1 0xA0 SHL SUB SWAP1 SWAP3 AND PUSH0 SWAP1 DUP2 MSTORE PUSH1 0x13 PUSH1 0x20 MSTORE PUSH1 0x40 SWAP1 KECCAK256 SWAP1 JUMP JUMPDEST SSTORE ADD PUSH2 0x14CE JUMP JUMPDEST POP POP POP SWAP1 POP JUMP JUMPDEST PUSH1 0x1 DUP1 PUSH1 0xA0 SHL SUB AND SWAP1 DUP2 PUSH0 MSTORE PUSH1 0x11 PUSH1 0x20 MSTORE PUSH2 0x1586 DUP2 PUSH1 0x3 PUSH1 0x40 PUSH0 KECCAK256 ADD PUSH2 0xFFE JUMP JUMPDEST SWAP1 SLOAD SWAP1 PUSH1 0x3 SHL SHR SWAP1 PUSH1 0x2 DUP3 LT ISZERO PUSH2 0x159C JUMPI POP POP POP JUMP JUMPDEST PUSH2 0x15B9 PUSH1 0x1 SWAP2 PUSH2 0x15D3 SWAP5 PUSH0 MSTORE PUSH1 0x11 PUSH1 0x20 MSTORE PUSH1 0x3 PUSH1 0x40 PUSH0 KECCAK256 ADD PUSH2 0xFFE JUMP JUMPDEST SWAP2 SWAP1 SWAP3 AND SWAP1 DUP3 SLOAD SWAP1 PUSH1 0x3 SHL SWAP2 DUP3 SHL SWAP2 PUSH0 NOT SWAP1 SHL NOT AND OR SWAP1 SSTORE JUMP JUMPDEST JUMP JUMPDEST PUSH1 0x10 SLOAD DUP1 ISZERO PUSH2 0x15FB JUMPI PUSH1 0x12 SLOAD SWAP1 PUSH1 0x1 DUP3 ADD DUP1 SWAP3 GT PUSH2 0xE50 JUMPI PUSH2 0x15F6 SWAP2 PUSH2 0xE62 JUMP JUMPDEST PUSH1 0x12 SSTORE JUMP JUMPDEST POP JUMP JUMPDEST PUSH1 0x10 SLOAD PUSH0 JUMPDEST DUP2 DUP2 LT PUSH2 0x1611 JUMPI POP POP PUSH1 0x1 SWAP1 JUMP JUMPDEST PUSH2 0x161D PUSH2 0x73E DUP3 PUSH2 0xC29 JUMP JUMPDEST PUSH0 JUMPDEST PUSH1 0xA PUSH1 0xFF DUP3 AND LT PUSH2 0x1634 JUMPI POP POP PUSH1 0x1 ADD PUSH2 0x1603 JUMP JUMPDEST PUSH2 0x1657 PUSH2 0x8CC DUP3 PUSH1 0x3 PUSH2 0x8C6 DUP7 PUSH1 0x1 DUP1 PUSH1 0xA0 SHL SUB AND PUSH0 MSTORE PUSH1 0x11 PUSH1 0x20 MSTORE PUSH1 0x40 PUSH0 KECCAK256 SWAP1 JUMP JUMPDEST PUSH2 0x1666 JUMPI PUSH1 0x1 ADD PUSH1 0xFF AND PUSH2 0x161F JUMP JUMPDEST POP POP POP POP PUSH0 SWAP1 JUMP JUMPDEST SWAP1 PUSH2 0x1678 DUP3 PUSH2 0x1E6 JUMP JUMPDEST PUSH2 0x1685 PUSH1 0x40 MLOAD SWAP2 DUP3 PUSH2 0x1BF JUMP JUMPDEST DUP3 DUP2 MSTORE DUP1 SWAP3 PUSH2 0x1696 PUSH1 0x1F NOT SWAP2 PUSH2 0x1E6 JUMP JUMPDEST ADD SWAP1 PUSH1 0x20 CALLDATASIZE SWAP2 ADD CALLDATACOPY JUMP JUMPDEST ISZERO PUSH2 0x16A7 JUMPI JUMP JUMPDEST PUSH1 0x40 MLOAD PUSH3 0x461BCD PUSH1 0xE5 SHL DUP2 MSTORE PUSH1 0x20 PUSH1 0x4 DUP3 ADD MSTORE PUSH1 0x8 PUSH1 0x24 DUP3 ADD MSTORE PUSH8 0x2177696E6E657273 PUSH1 0xC0 SHL PUSH1 0x44 DUP3 ADD MSTORE PUSH1 0x64 SWAP1 REVERT JUMPDEST RETURNDATASIZE ISZERO PUSH2 0x1711 JUMPI RETURNDATASIZE SWAP1 PUSH8 0xFFFFFFFFFFFFFFFF DUP3 GT PUSH2 0x1E1 JUMPI PUSH1 0x40 MLOAD SWAP2 PUSH2 0x1706 PUSH1 0x1F DUP3 ADD PUSH1 0x1F NOT AND PUSH1 0x20 ADD DUP5 PUSH2 0x1BF JUMP JUMPDEST DUP3 MSTORE RETURNDATASIZE PUSH0 PUSH1 0x20 DUP5 ADD RETURNDATACOPY JUMP JUMPDEST PUSH1 0x60 SWAP1 JUMP JUMPDEST ISZERO PUSH2 0x171D JUMPI JUMP JUMPDEST PUSH1 0x40 MLOAD PUSH3 0x461BCD PUSH1 0xE5 SHL DUP2 MSTORE PUSH1 0x20 PUSH1 0x4 DUP3 ADD MSTORE PUSH1 0x9 PUSH1 0x24 DUP3 ADD MSTORE PUSH9 0x10BA3930B739B332B9 PUSH1 0xB9 SHL PUSH1 0x44 DUP3 ADD MSTORE PUSH1 0x64 SWAP1 REVERT JUMPDEST SWAP2 PUSH2 0x176B SWAP1 PUSH2 0x55E SWAP5 SWAP3 DUP5 MSTORE PUSH1 0x60 PUSH1 0x20 DUP6 ADD MSTORE PUSH1 0x60 DUP5 ADD SWAP1 PUSH2 0x511 JUMP JUMPDEST SWAP2 PUSH1 0x40 DUP2 DUP5 SUB SWAP2 ADD MSTORE PUSH2 0x511 JUMP JUMPDEST PUSH1 0x40 MLOAD RETURNDATASIZE PUSH0 DUP3 RETURNDATACOPY RETURNDATASIZE SWAP1 REVERT JUMPDEST SWAP1 SWAP2 PUSH2 0x179B PUSH2 0x55E SWAP4 PUSH1 0x40 DUP5 MSTORE PUSH1 0x40 DUP5 ADD SWAP1 PUSH2 0x511 JUMP JUMPDEST SWAP2 PUSH1 0x20 DUP2 DUP5 SUB SWAP2 ADD MSTORE PUSH2 0x511 JUMP JUMPDEST PUSH2 0x17BB PUSH1 0x3 PUSH1 0xFF NOT PUSH1 0xF SLOAD AND OR PUSH1 0xF SSTORE JUMP JUMPDEST PUSH1 0x10 SLOAD PUSH2 0x17C7 DUP2 PUSH2 0x166E JUMP JUMPDEST SWAP1 PUSH2 0x17D1 DUP2 PUSH2 0x166E JUMP JUMPDEST SWAP1 PUSH0 DUP1 SWAP2 PUSH0 JUMPDEST DUP2 DUP2 LT PUSH2 0x18E5 JUMPI POP POP DUP4 MSTORE DUP1 DUP3 MSTORE PUSH2 0x17F0 SWAP1 ISZERO ISZERO PUSH2 0x16A0 JUMP JUMPDEST PUSH32 0x0 PUSH1 0x1 PUSH1 0x1 PUSH1 0xA0 SHL SUB AND SWAP1 PUSH2 0x1834 PUSH0 DUP1 DUP1 DUP1 SELFBALANCE DUP8 GAS CALL PUSH2 0x182E PUSH2 0x16D7 JUMP JUMPDEST POP PUSH2 0x1716 JUMP JUMPDEST PUSH32 0x0 SWAP3 DUP3 EXTCODESIZE ISZERO PUSH2 0x16F JUMPI PUSH0 PUSH1 0x40 MLOAD DUP1 SWAP5 PUSH4 0x39511141 PUSH1 0xE1 SHL DUP3 MSTORE DUP2 DUP4 DUP2 PUSH2 0x187F DUP8 DUP10 DUP13 PUSH1 0x4 DUP6 ADD PUSH2 0x174E JUMP JUMPDEST SUB SWAP3 GAS CALL SWAP3 DUP4 ISZERO PUSH2 0x18E0 JUMPI PUSH32 0xEC9076D3D1E4910861E8852EF3E8820904B6868D2E5C85563E5C82F45C776D1F SWAP4 PUSH2 0x18C6 JUMPI JUMPDEST POP PUSH2 0x18C1 PUSH1 0x40 MLOAD SWAP3 DUP4 SWAP3 DUP4 PUSH2 0x1784 JUMP JUMPDEST SUB SWAP1 LOG2 JUMP JUMPDEST DUP1 PUSH2 0x18D4 PUSH0 PUSH2 0x18DA SWAP4 PUSH2 0x1BF JUMP JUMPDEST DUP1 PUSH2 0x28C JUMP JUMPDEST PUSH0 PUSH2 0x18B1 JUMP JUMPDEST PUSH2 0x1779 JUMP JUMPDEST DUP1 PUSH2 0x18F4 PUSH2 0x73E PUSH1 0x1 SWAP4 PUSH2 0xC29 JUMP JUMPDEST PUSH1 0x1 PUSH1 0x1 PUSH1 0xA0 SHL SUB DUP2 AND PUSH0 SWAP1 DUP2 MSTORE PUSH1 0x11 PUSH1 0x20 MSTORE PUSH1 0x40 SWAP1 KECCAK256 PUSH1 0xD ADD SLOAD ISZERO PUSH2 0x1940 JUMPI PUSH2 0x193A SWAP1 PUSH2 0x192B PUSH2 0x1924 DUP8 PUSH2 0x104F JUMP JUMPDEST SWAP7 DUP11 PUSH2 0x12D8 JUMP JUMPDEST PUSH1 0x1 PUSH1 0x1 PUSH1 0xA0 SHL SUB SWAP1 SWAP2 AND SWAP1 MSTORE JUMP JUMPDEST ADD PUSH2 0x17D7 JUMP JUMPDEST PUSH2 0x1957 SWAP1 PUSH2 0x192B PUSH2 0x1950 DUP9 PUSH2 0x104F JUMP JUMPDEST SWAP8 DUP10 PUSH2 0x12D8 JUMP JUMPDEST PUSH2 0x193A JUMP JUMPDEST ISZERO PUSH2 0x1963 JUMPI JUMP JUMPDEST PUSH1 0x40 MLOAD PUSH3 0x461BCD PUSH1 0xE5 SHL DUP2 MSTORE PUSH1 0x20 PUSH1 0x4 DUP3 ADD MSTORE PUSH1 0x7 PUSH1 0x24 DUP3 ADD MSTORE PUSH7 0x42CADCDEEACED PUSH1 0xCB SHL PUSH1 0x44 DUP3 ADD MSTORE PUSH1 0x64 SWAP1 REVERT JUMPDEST SWAP1 DUP2 PUSH1 0x20 SWAP2 SUB SLT PUSH2 0x16F JUMPI MLOAD SWAP1 JUMP JUMPDEST PUSH2 0x19B0 PUSH1 0x10 SLOAD PUSH0 SLOAD GT ISZERO PUSH2 0x195C JUMP JUMPDEST PUSH32 0x0 PUSH1 0x1 PUSH1 0x1 PUSH1 0xA0 SHL SUB AND DUP1 ISZERO PUSH2 0x1B53 JUMPI PUSH2 0x19F2 PUSH1 0x1 PUSH1 0xFF NOT PUSH1 0xF SLOAD AND OR PUSH1 0xF SSTORE JUMP JUMPDEST PUSH1 0x40 MLOAD PUSH4 0x5D3B1D3 PUSH1 0xE4 SHL DUP2 MSTORE PUSH32 0x0 PUSH1 0x4 DUP3 ADD MSTORE PUSH32 0x0 PUSH8 0xFFFFFFFFFFFFFFFF AND PUSH1 0x24 DUP3 ADD MSTORE PUSH32 0x0 PUSH2 0xFFFF AND PUSH1 0x44 DUP3 ADD MSTORE PUSH32 0x0 PUSH4 0xFFFFFFFF AND PUSH1 0x64 DUP3 ADD MSTORE PUSH1 0x1 PUSH1 0x84 DUP3 ADD MSTORE SWAP1 PUSH1 0x20 SWAP1 DUP3 SWAP1 PUSH1 0xA4 SWAP1 DUP3 SWAP1 PUSH0 SWAP1 GAS CALL SWAP1 DUP2 ISZERO PUSH2 0x18E0 JUMPI PUSH0 SWAP2 PUSH2 0x1B24 JUMPI JUMPDEST POP PUSH1 0x40 MLOAD SWAP1 DUP2 MSTORE PUSH32 0x0 SWAP1 PUSH32 0xEBD9E8FB61FD5A6473B57D787D7EA3595BA98407BD8C0D74D9B0A5D666AA8D8A SWAP1 DUP1 PUSH1 0x20 DUP2 ADD PUSH2 0x18C1 JUMP JUMPDEST PUSH2 0x1B46 SWAP2 POP PUSH1 0x20 RETURNDATASIZE PUSH1 0x20 GT PUSH2 0x1B4C JUMPI JUMPDEST PUSH2 0x1B3E DUP2 DUP4 PUSH2 0x1BF JUMP JUMPDEST DUP2 ADD SWAP1 PUSH2 0x1992 JUMP JUMPDEST PUSH0 PUSH2 0x1ACF JUMP JUMPDEST POP RETURNDATASIZE PUSH2 0x1B34 JUMP JUMPDEST POP PUSH32 0x0 PUSH1 0x1 PUSH1 0x1 PUSH1 0xA0 SHL SUB AND ISZERO PUSH2 0x1C0C JUMPI PUSH2 0x1B95 PUSH1 0x1 PUSH1 0xFF NOT PUSH1 0xF SLOAD AND OR PUSH1 0xF SSTORE JUMP JUMPDEST PUSH1 0x40 DUP1 MLOAD PUSH32 0x0 PUSH1 0x20 DUP3 ADD DUP2 DUP2 MSTORE ADDRESS SWAP4 DUP4 ADD SWAP4 SWAP1 SWAP4 MSTORE SWAP2 SWAP1 PUSH2 0x1BD8 DUP2 PUSH1 0x60 DUP2 ADD PUSH2 0x139E JUMP JUMPDEST MLOAD SWAP1 KECCAK256 PUSH1 0x40 MLOAD SWAP1 DUP2 MSTORE ADDRESS SWAP2 SWAP1 PUSH32 0x95C8B02C7934A4BB418D4B844CA008175046665E9DDFB7903DDA0CE4DD450CF0 SWAP1 PUSH1 0x20 SWAP1 LOG3 JUMP JUMPDEST PUSH2 0x1C1E PUSH1 0x2 PUSH1 0xFF NOT PUSH1 0xF SLOAD AND OR PUSH1 0xF SSTORE JUMP JUMPDEST PUSH1 0x40 DUP1 MLOAD TIMESTAMP PUSH1 0x20 DUP3 ADD SWAP1 DUP2 MSTORE PUSH32 0x0 SWAP3 DUP3 ADD DUP4 SWAP1 MSTORE ADDRESS PUSH1 0x60 SWAP1 DUP2 SHL PUSH1 0x1 PUSH1 0x1 PUSH1 0x60 SHL SUB NOT AND SWAP1 DUP4 ADD MSTORE PUSH2 0x1C81 SWAP2 PUSH2 0x1C76 DUP2 PUSH1 0x74 DUP2 ADD PUSH2 0x139E JUMP JUMPDEST MLOAD SWAP1 KECCAK256 PUSH2 0x368 PUSH2 0x1D36 JUMP JUMPDEST PUSH32 0x50AD08F58A27F2851D7E3A1B3A6A46B290F2CE677E99642D30FF639721E77790 PUSH0 DUP1 LOG2 JUMP JUMPDEST PUSH0 DUP1 JUMPDEST PUSH1 0xA DUP3 LT PUSH2 0x1D16 JUMPI PUSH2 0x1CBC SWAP2 POP PUSH2 0x166E JUMP JUMPDEST PUSH0 SWAP2 PUSH0 JUMPDEST PUSH1 0xFF DUP2 AND PUSH1 0xA DUP2 LT ISZERO PUSH2 0x1D0F JUMPI PUSH2 0x1CD9 PUSH2 0x8CC DUP4 PUSH2 0xFED JUMP JUMPDEST SWAP1 PUSH0 JUMPDEST DUP3 DUP2 LT PUSH2 0x1CF1 JUMPI POP POP POP PUSH1 0x1 ADD PUSH1 0xFF AND PUSH2 0x1CC0 JUMP JUMPDEST PUSH1 0x1 SWAP1 DUP3 PUSH2 0x1D08 PUSH2 0x1D01 DUP11 PUSH2 0x104F JUMP JUMPDEST SWAP10 DUP10 PUSH2 0x12D8 JUMP JUMPDEST MSTORE ADD PUSH2 0x1CDC JUMP JUMPDEST POP POP SWAP2 POP SWAP1 JUMP JUMPDEST PUSH2 0x1D2E PUSH1 0x1 SWAP2 PUSH2 0x1D28 PUSH2 0x8CC DUP6 PUSH2 0xFED JUMP JUMPDEST SWAP1 PUSH2 0xE55 JUMP JUMPDEST SWAP2 ADD SWAP1 PUSH2 0x1CAA JUMP JUMPDEST PUSH1 0x10 SLOAD SWAP1 PUSH2 0x1D42 PUSH2 0x1DD3 JUMP JUMPDEST SWAP2 PUSH0 JUMPDEST DUP4 MLOAD DUP2 LT ISZERO PUSH2 0x1D77 JUMPI DUP1 PUSH2 0x1D71 PUSH2 0x1D64 PUSH2 0x73E PUSH2 0x13B4 DUP7 PUSH1 0x1 SWAP7 PUSH2 0xE62 JUMP JUMPDEST PUSH2 0x13F6 PUSH2 0x13EF DUP5 DUP10 PUSH2 0x12D8 JUMP JUMPDEST ADD PUSH2 0x1D45 JUMP JUMPDEST POP PUSH1 0x4 SLOAD SWAP2 SWAP3 POP PUSH0 JUMPDEST DUP3 DUP2 LT PUSH2 0x1D8C JUMPI POP POP POP JUMP JUMPDEST PUSH1 0x1 SWAP1 PUSH1 0xD PUSH2 0x1DC0 PUSH2 0x7DD PUSH2 0x73E PUSH2 0x13B4 DUP8 PUSH1 0x40 MLOAD PUSH1 0x20 DUP2 ADD SWAP1 PUSH2 0x13AC DUP2 PUSH2 0x139E DUP12 TIMESTAMP DUP7 SWAP1 SWAP2 PUSH1 0x40 SWAP3 DUP3 MSTORE PUSH1 0x20 DUP3 ADD MSTORE ADD SWAP1 JUMP JUMPDEST ADD PUSH2 0x1DCB DUP2 SLOAD PUSH2 0xE42 JUMP JUMPDEST SWAP1 SSTORE ADD PUSH2 0x1D80 JUMP JUMPDEST PUSH0 DUP1 JUMPDEST PUSH1 0xA DUP3 LT PUSH2 0x1EA5 JUMPI PUSH2 0x1DE8 SWAP2 POP PUSH2 0x166E JUMP JUMPDEST PUSH0 SWAP2 PUSH0 JUMPDEST PUSH1 0xFF DUP2 AND PUSH1 0xA DUP2 LT ISZERO PUSH2 0x1E34 JUMPI PUSH2 0x1E05 PUSH2 0x8CC DUP4 PUSH2 0xFED JUMP JUMPDEST SWAP1 PUSH0 JUMPDEST DUP3 DUP2 LT PUSH2 0x1E1D JUMPI POP POP POP PUSH1 0x1 ADD PUSH1 0xFF AND PUSH2 0x1DEC JUMP JUMPDEST PUSH1 0x1 SWAP1 DUP3 PUSH2 0x1E2D PUSH2 0x1D01 DUP11 PUSH2 0x104F JUMP JUMPDEST MSTORE ADD PUSH2 0x1E08 JUMP JUMPDEST POP POP SWAP2 POP PUSH0 JUMPDEST DUP2 MLOAD DUP2 LT ISZERO PUSH2 0x1EA1 JUMPI PUSH1 0x1 SWAP1 PUSH2 0x1E76 PUSH1 0x40 MLOAD PUSH1 0x20 DUP2 ADD SWAP1 PUSH2 0x1E6B DUP2 PUSH2 0x139E DUP7 TIMESTAMP DUP7 SWAP1 SWAP2 PUSH1 0x40 SWAP3 DUP3 MSTORE PUSH1 0x20 DUP3 ADD MSTORE ADD SWAP1 JUMP JUMPDEST MLOAD SWAP1 KECCAK256 DUP5 MLOAD SWAP1 PUSH2 0xE62 JUMP JUMPDEST PUSH2 0x1E80 DUP2 DUP6 PUSH2 0x12D8 JUMP JUMPDEST MLOAD SWAP1 PUSH2 0x1E8F PUSH2 0x1482 DUP5 DUP8 PUSH2 0x12D8 JUMP JUMPDEST MSTORE PUSH2 0x1E9A DUP3 DUP6 PUSH2 0x12D8 JUMP JUMPDEST MSTORE ADD PUSH2 0x1E3A JUMP JUMPDEST POP SWAP1 JUMP JUMPDEST PUSH2 0x1EB7 PUSH1 0x1 SWAP2 PUSH2 0x1D28 PUSH2 0x8CC DUP6 PUSH2 0xFED JUMP JUMPDEST SWAP2 ADD SWAP1 PUSH2 0x1DD6 JUMP INVALID SHL PUSH9 0x47DC741A1B0CD08D27 DUP9 GASLIMIT 0xF9 0xD8 NOT 0xD8 PUSH28 0x734759AFB55FE2DE5CB82A9AE672A264697066735822122025CB79CD DUP4 PUSH21 0x62DCAF862D04E799AEAE0D8CC2940819618EEE8DD7 SWAP8 0xAF PUSH1 0xA0 0xC1 PUSH5 0x736F6C6343 STOP ADDMOD BYTE STOP CALLER "
				},
				"gasEstimates": {
					"creation": {
						"codeDepositCost": "1591400",
						"executionCost": "infinite",
						"totalCost": "infinite"
					},
					"external": {
						"applyECVRFSeed(uint256)": "infinite",
						"config()": "10891",
						"currentPlayerIndex()": "2675",
						"ecvrfRelay()": "infinite",
						"gameId()": "infinite",
						"gameState()": "2588",
						"getCurrentTurnPlayer()": "infinite",
						"getPlayerCards(address)": "infinite",
						"getPlayerCount()": "2524",
						"getPlayers()": "infinite",
						"getTakeTarget()": "infinite",
						"handDisplaySeed(address)": "2410",
						"joinGame()": "infinite",
						"playerData(address)": "9003",
						"players(uint256)": "infinite",
						"rawFulfillRandomWords(uint256,uint256[])": "infinite",
						"roomOwner()": "infinite",
						"stakingVault()": "infinite",
						"startGame()": "infinite",
						"takeCard(address,uint8)": "infinite"
					},
					"internal": {
						"_allPlayersNoNumberCards()": "infinite",
						"_autoEliminate(address,uint8)": "infinite",
						"_beginStartSequence()": "infinite",
						"_buildDeckOrdered()": "infinite",
						"_endGame()": "infinite",
						"_generateFullDeckLegacy()": "infinite",
						"_nextTurn()": "26425",
						"_setHandDisplaySeeds(uint256)": "infinite",
						"_shuffleAndDealAllCardsLegacy()": "infinite",
						"_shuffleAndDealFromVrfSeed(uint256)": "infinite",
						"fulfillRandomWords(uint256,uint256[] memory)": "infinite"
					}
				},
				"methodIdentifiers": {
					"applyECVRFSeed(uint256)": "31db047b",
					"config()": "79502c55",
					"currentPlayerIndex()": "fb9bdab4",
					"ecvrfRelay()": "733d5038",
					"gameId()": "d7c81b55",
					"gameState()": "d1f9c24d",
					"getCurrentTurnPlayer()": "e6ec2982",
					"getPlayerCards(address)": "ad5c21d9",
					"getPlayerCount()": "c2e52206",
					"getPlayers()": "8b5b9ccc",
					"getTakeTarget()": "3588fd80",
					"handDisplaySeed(address)": "0496561d",
					"joinGame()": "d4f77b1c",
					"playerData(address)": "424aeded",
					"players(uint256)": "f71d96cb",
					"rawFulfillRandomWords(uint256,uint256[])": "1fe543e3",
					"roomOwner()": "999dacb9",
					"stakingVault()": "24e7964a",
					"startGame()": "d65ab5f2",
					"takeCard(address,uint8)": "b0652a88"
				}
			},
			"storageLayout": {
				"storage": [
					{
						"astId": 49,
						"contract": "contracts/GameRoom.sol:GameRoom",
						"label": "config",
						"offset": 0,
						"slot": "0",
						"type": "t_struct(GameConfig)26_storage"
					},
					{
						"astId": 52,
						"contract": "contracts/GameRoom.sol:GameRoom",
						"label": "gameState",
						"offset": 0,
						"slot": "15",
						"type": "t_enum(GameState)11"
					},
					{
						"astId": 60,
						"contract": "contracts/GameRoom.sol:GameRoom",
						"label": "players",
						"offset": 0,
						"slot": "16",
						"type": "t_array(t_address)dyn_storage"
					},
					{
						"astId": 65,
						"contract": "contracts/GameRoom.sol:GameRoom",
						"label": "playerData",
						"offset": 0,
						"slot": "17",
						"type": "t_mapping(t_address,t_struct(Player)41_storage)"
					},
					{
						"astId": 67,
						"contract": "contracts/GameRoom.sol:GameRoom",
						"label": "currentPlayerIndex",
						"offset": 0,
						"slot": "18",
						"type": "t_uint256"
					},
					{
						"astId": 72,
						"contract": "contracts/GameRoom.sol:GameRoom",
						"label": "handDisplaySeed",
						"offset": 0,
						"slot": "19",
						"type": "t_mapping(t_address,t_uint256)"
					}
				],
				"types": {
					"t_address": {
						"encoding": "inplace",
						"label": "address",
						"numberOfBytes": "20"
					},
					"t_array(t_address)dyn_storage": {
						"base": "t_address",
						"encoding": "dynamic_array",
						"label": "address[]",
						"numberOfBytes": "32"
					},
					"t_array(t_uint256)10_storage": {
						"base": "t_uint256",
						"encoding": "inplace",
						"label": "uint256[10]",
						"numberOfBytes": "320"
					},
					"t_bool": {
						"encoding": "inplace",
						"label": "bool",
						"numberOfBytes": "1"
					},
					"t_enum(GameState)11": {
						"encoding": "inplace",
						"label": "enum GameRoom.GameState",
						"numberOfBytes": "1"
					},
					"t_mapping(t_address,t_struct(Player)41_storage)": {
						"encoding": "mapping",
						"key": "t_address",
						"label": "mapping(address => struct GameRoom.Player)",
						"numberOfBytes": "32",
						"value": "t_struct(Player)41_storage"
					},
					"t_mapping(t_address,t_uint256)": {
						"encoding": "mapping",
						"key": "t_address",
						"label": "mapping(address => uint256)",
						"numberOfBytes": "32",
						"value": "t_uint256"
					},
					"t_struct(GameConfig)26_storage": {
						"encoding": "inplace",
						"label": "struct GameRoom.GameConfig",
						"members": [
							{
								"astId": 13,
								"contract": "contracts/GameRoom.sol:GameRoom",
								"label": "minPlayers",
								"offset": 0,
								"slot": "0",
								"type": "t_uint256"
							},
							{
								"astId": 15,
								"contract": "contracts/GameRoom.sol:GameRoom",
								"label": "maxPlayers",
								"offset": 0,
								"slot": "1",
								"type": "t_uint256"
							},
							{
								"astId": 17,
								"contract": "contracts/GameRoom.sol:GameRoom",
								"label": "minStake",
								"offset": 0,
								"slot": "2",
								"type": "t_uint256"
							},
							{
								"astId": 19,
								"contract": "contracts/GameRoom.sol:GameRoom",
								"label": "maxStake",
								"offset": 0,
								"slot": "3",
								"type": "t_uint256"
							},
							{
								"astId": 21,
								"contract": "contracts/GameRoom.sol:GameRoom",
								"label": "jokerCount",
								"offset": 0,
								"slot": "4",
								"type": "t_uint256"
							},
							{
								"astId": 25,
								"contract": "contracts/GameRoom.sol:GameRoom",
								"label": "cardCounts",
								"offset": 0,
								"slot": "5",
								"type": "t_array(t_uint256)10_storage"
							}
						],
						"numberOfBytes": "480"
					},
					"t_struct(Player)41_storage": {
						"encoding": "inplace",
						"label": "struct GameRoom.Player",
						"members": [
							{
								"astId": 28,
								"contract": "contracts/GameRoom.sol:GameRoom",
								"label": "addr",
								"offset": 0,
								"slot": "0",
								"type": "t_address"
							},
							{
								"astId": 30,
								"contract": "contracts/GameRoom.sol:GameRoom",
								"label": "stakeAmount",
								"offset": 0,
								"slot": "1",
								"type": "t_uint256"
							},
							{
								"astId": 32,
								"contract": "contracts/GameRoom.sol:GameRoom",
								"label": "isActive",
								"offset": 0,
								"slot": "2",
								"type": "t_bool"
							},
							{
								"astId": 34,
								"contract": "contracts/GameRoom.sol:GameRoom",
								"label": "isOut",
								"offset": 1,
								"slot": "2",
								"type": "t_bool"
							},
							{
								"astId": 38,
								"contract": "contracts/GameRoom.sol:GameRoom",
								"label": "handCards",
								"offset": 0,
								"slot": "3",
								"type": "t_array(t_uint256)10_storage"
							},
							{
								"astId": 40,
								"contract": "contracts/GameRoom.sol:GameRoom",
								"label": "jokerCount",
								"offset": 0,
								"slot": "13",
								"type": "t_uint256"
							}
						],
						"numberOfBytes": "448"
					},
					"t_uint256": {
						"encoding": "inplace",
						"label": "uint256",
						"numberOfBytes": "32"
					}
				}
			},
			"userdoc": {
				"kind": "user",
				"methods": {},
				"version": 1
			}
		}
	}
}