{
	"contracts/mocks/MockGameRoomEcvrf.sol": {
		"MockGameRoomEcvrf": {
			"abi": [
				{
					"inputs": [
						{
							"internalType": "uint256",
							"name": "_gameId",
							"type": "uint256"
						},
						{
							"internalType": "address",
							"name": "_relay",
							"type": "address"
						}
					],
					"stateMutability": "nonpayable",
					"type": "constructor"
				},
				{
					"inputs": [
						{
							"internalType": "uint256",
							"name": "randomWord",
							"type": "uint256"
						}
					],
					"name": "applyECVRFSeed",
					"outputs": [],
					"stateMutability": "nonpayable",
					"type": "function"
				},
				{
					"inputs": [],
					"name": "dealing",
					"outputs": [
						{
							"internalType": "bool",
							"name": "",
							"type": "bool"
						}
					],
					"stateMutability": "view",
					"type": "function"
				},
				{
					"inputs": [],
					"name": "ecvrfRelay",
					"outputs": [
						{
							"internalType": "address",
							"name": "",
							"type": "address"
						}
					],
					"stateMutability": "view",
					"type": "function"
				},
				{
					"inputs": [],
					"name": "gameId",
					"outputs": [
						{
							"internalType": "uint256",
							"name": "",
							"type": "uint256"
						}
					],
					"stateMutability": "view",
					"type": "function"
				},
				{
					"inputs": [],
					"name": "lastSeed",
					"outputs": [
						{
							"internalType": "uint256",
							"name": "",
							"type": "uint256"
						}
					],
					"stateMutability": "view",
					"type": "function"
				}
			],
			"devdoc": {
				"details": "用于测试 ECVRFRelay：行为上仅校验 msg.sender == ecvrfRelay，并记录种子。",
				"kind": "dev",
				"methods": {},
				"version": 1
			},
			"evm": {
				"assembly": "    /* \"contracts/mocks/MockGameRoomEcvrf.sol\":162:736  contract MockGameRoomEcvrf {... */\n  0xc0\n  jumpi(tag_7, callvalue)\n  0x1f\n  bytecodeSize\n  codesize\n  dup2\n  swap1\n  sub\n  swap2\n  dup3\n  add\n  not(0x1f)\n  and\n  dup4\n  add\n  swap2\n  sub(shl(0x40, 0x01), 0x01)\n  dup4\n  gt\n  dup5\n  dup5\n  lt\n  or\n  tag_3\n  jumpi\n  dup1\n  dup5\n  swap3\n  0x40\n  swap5\n  dup6\n  mstore\n  dup4\n  codecopy\n  dup2\n  add\n  sub\n  slt\n  tag_7\n  jumpi\n  dup1\n  mload\n  0x20\n  swap1\n  swap2\n  add\n  mload\n  swap1\n  sub(shl(0xa0, 0x01), 0x01)\n  dup3\n  and\n  dup3\n  sub\n  tag_7\n  jumpi\n    /* \"contracts/mocks/MockGameRoomEcvrf.sol\":390:406  gameId = _gameId */\n  0x80\n  mstore\n    /* \"contracts/mocks/MockGameRoomEcvrf.sol\":417:436  ecvrfRelay = _relay */\n  0xa0\n  mstore\n    /* \"contracts/mocks/MockGameRoomEcvrf.sol\":162:736  contract MockGameRoomEcvrf {... */\n  0x01\n  not(0xff)\n  dup2\n  sload\n  and\n  or\n  0x01\n  sstore\n  mload(0x40)\n  dataSize(sub_0)\n  swap1\n  dup2\n  dataOffset(sub_0)\n  dup3\n  codecopy\n    /* \"contracts/mocks/MockGameRoomEcvrf.sol\":390:406  gameId = _gameId */\n  0x80\n    /* \"contracts/mocks/MockGameRoomEcvrf.sol\":162:736  contract MockGameRoomEcvrf {... */\n  mload\n  dup2\n  assignImmutable(\"0x13600b294191fc92924bb3ce4b969c1e7e2bab8f4c93c3fc6d0a51733df3c060\")\n    /* \"contracts/mocks/MockGameRoomEcvrf.sol\":417:436  ecvrfRelay = _relay */\n  0xa0\n    /* \"contracts/mocks/MockGameRoomEcvrf.sol\":162:736  contract MockGameRoomEcvrf {... */\n  mload\n  dup2\n  assignImmutable(\"0xe455bf8ea6e7463a1046a0b52804526e119b4bf5136279614e0b1e8e296a4e2d\")\n  return\ntag_7:\n  0x00\n  dup1\n  revert\ntag_3:\n  mstore(0x00, shl(0xe0, 0x4e487b71))\n  mstore(0x04, 0x41)\n  revert(0x00, 0x24)\nstop\n\nsub_0: assembly {\n        /* \"contracts/mocks/MockGameRoomEcvrf.sol\":162:736  contract MockGameRoomEcvrf {... */\n      0x80\n      dup1\n      0x40\n      mstore\n      jumpi(tag_1, iszero(lt(calldatasize, 0x04)))\n      0x00\n      dup1\n      revert\n    tag_1:\n      shr(0xe0, calldataload(0x00))\n      swap1\n      dup2\n      0x31db047b\n      eq\n      tag_3\n      jumpi\n      pop\n      dup1\n      0x733d5038\n      eq\n      tag_5\n      jumpi\n      dup1\n      0x76c63a89\n      eq\n      tag_7\n      jumpi\n      dup1\n      0xd070b0fa\n      eq\n      tag_9\n      jumpi\n      0xd7c81b55\n      eq\n      tag_11\n      jumpi\n      0x00\n      dup1\n      revert\n    tag_11:\n      jumpi(tag_15, callvalue)\n      jumpi(tag_15, slt(add(not(0x03), calldatasize), 0x00))\n      0x20\n      mload(0x40)\n        /* \"contracts/mocks/MockGameRoomEcvrf.sol\":196:227  uint256 public immutable gameId */\n      immutable(\"0x13600b294191fc92924bb3ce4b969c1e7e2bab8f4c93c3fc6d0a51733df3c060\")\n        /* \"contracts/mocks/MockGameRoomEcvrf.sol\":162:736  contract MockGameRoomEcvrf {... */\n      dup2\n      mstore\n      return\n    tag_15:\n      0x00\n      dup1\n      revert\n    tag_9:\n      jumpi(tag_15, callvalue)\n      jumpi(tag_15, slt(add(not(0x03), calldatasize), 0x00))\n      0x20\n      sload(0x00)\n      mload(0x40)\n      swap1\n      dup2\n      mstore\n      return\n    tag_7:\n      jumpi(tag_15, callvalue)\n      jumpi(tag_15, slt(add(not(0x03), calldatasize), 0x00))\n      0x20\n      0xff\n        /* \"contracts/mocks/MockGameRoomEcvrf.sol\":306:325  bool public dealing */\n      0x01\n        /* \"contracts/mocks/MockGameRoomEcvrf.sol\":162:736  contract MockGameRoomEcvrf {... */\n      sload\n      and\n      mload(0x40)\n      swap1\n      iszero\n      iszero\n      dup2\n      mstore\n      return\n    tag_5:\n      jumpi(tag_15, callvalue)\n      jumpi(tag_15, slt(add(not(0x03), calldatasize), 0x00))\n      mload(0x40)\n        /* \"contracts/mocks/MockGameRoomEcvrf.sol\":234:269  address public immutable ecvrfRelay */\n      immutable(\"0xe455bf8ea6e7463a1046a0b52804526e119b4bf5136279614e0b1e8e296a4e2d\")\n      sub(shl(0xa0, 0x01), 0x01)\n        /* \"contracts/mocks/MockGameRoomEcvrf.sol\":162:736  contract MockGameRoomEcvrf {... */\n      and\n      dup2\n      mstore\n      0x20\n      swap1\n      return\n    tag_3:\n      jumpi(tag_15, callvalue)\n      jumpi(tag_15, slt(add(not(0x03), calldatasize), 0x20))\n      calldataload(0x04)\n      swap1\n        /* \"contracts/mocks/MockGameRoomEcvrf.sol\":563:573  ecvrfRelay */\n      immutable(\"0xe455bf8ea6e7463a1046a0b52804526e119b4bf5136279614e0b1e8e296a4e2d\")\n      sub(shl(0xa0, 0x01), 0x01)\n        /* \"contracts/mocks/MockGameRoomEcvrf.sol\":162:736  contract MockGameRoomEcvrf {... */\n      and\n        /* \"contracts/mocks/MockGameRoomEcvrf.sol\":549:559  msg.sender */\n      caller\n        /* \"contracts/mocks/MockGameRoomEcvrf.sol\":549:573  msg.sender == ecvrfRelay */\n      sub\n        /* \"contracts/mocks/MockGameRoomEcvrf.sol\":162:736  contract MockGameRoomEcvrf {... */\n      tag_33\n      jumpi\n      pop\n      sload(0x01)\n      swap1\n      0xff\n      dup3\n      and\n      iszero\n      tag_35\n      jumpi\n        /* \"contracts/mocks/MockGameRoomEcvrf.sol\":642:657  randomWord != 0 */\n      dup1\n      iszero\n        /* \"contracts/mocks/MockGameRoomEcvrf.sol\":162:736  contract MockGameRoomEcvrf {... */\n      tag_37\n      jumpi\n      0x00\n      sstore\n      not(0xff)\n      and\n      0x01\n      sstore\n      stop\n    tag_37:\n      mload(0x40)\n      shl(0xe5, 0x461bcd)\n      dup2\n      mstore\n      0x20\n      0x04\n      dup3\n      add\n      mstore\n      0x05\n      0x24\n      dup3\n      add\n      mstore\n      shl(0xd8, 0x217a65726f)\n      0x44\n      dup3\n      add\n      mstore\n      0x64\n      swap1\n      revert\n    tag_35:\n      mload(0x40)\n      shl(0xe5, 0x461bcd)\n      dup2\n      mstore\n      0x20\n      0x04\n      dup3\n      add\n      mstore\n      0x08\n      0x24\n      dup3\n      add\n      mstore\n      shl(0xc0, 0x216465616c696e67)\n      0x44\n      dup3\n      add\n      mstore\n      0x64\n      swap1\n      revert\n    tag_33:\n      shl(0xe5, 0x461bcd)\n      dup2\n      mstore\n      0x20\n      0x04\n      dup3\n      add\n      mstore\n      0x06\n      0x24\n      dup3\n      add\n      mstore\n      shl(0xd0, 0x2172656c6179)\n      0x44\n      dup3\n      add\n      mstore\n      0x64\n      swap1\n      revert\n\n    auxdata: 0xa26469706673582212208a567069baed14f5bb2ff17a5693532dd731f1bcff23775b5836a82f62b3eb6964736f6c634300081a0033\n}\n",
				"bytecode": {
					"linkReferences": {},
					"object": "60c034608a57601f6102d838819003918201601f19168301916001600160401b03831184841017608e578084926040948552833981010312608a578051602090910151906001600160a01b0382168203608a5760805260a052600160ff198154161760015560405161023590816100a3823960805181606a015260a05181818160e4015261012a0152f35b5f80fd5b634e487b7160e01b5f52604160045260245ffdfe6080806040526004361015610012575f80fd5b5f3560e01c90816331db047b1461011357508063733d5038146100cf57806376c63a89146100ad578063d070b0fa146100915763d7c81b5514610053575f80fd5b3461008d575f36600319011261008d5760206040517f00000000000000000000000000000000000000000000000000000000000000008152f35b5f80fd5b3461008d575f36600319011261008d5760205f54604051908152f35b3461008d575f36600319011261008d57602060ff600154166040519015158152f35b3461008d575f36600319011261008d576040517f00000000000000000000000000000000000000000000000000000000000000006001600160a01b03168152602090f35b3461008d57602036600319011261008d57600435907f00000000000000000000000000000000000000000000000000000000000000006001600160a01b031633036101d457506001549060ff8216156101a4578015610177575f5560ff1916600155005b60405162461bcd60e51b8152602060048201526005602482015264217a65726f60d81b6044820152606490fd5b60405162461bcd60e51b8152602060048201526008602482015267216465616c696e6760c01b6044820152606490fd5b62461bcd60e51b81526020600482015260066024820152652172656c617960d01b6044820152606490fdfea26469706673582212208a567069baed14f5bb2ff17a5693532dd731f1bcff23775b5836a82f62b3eb6964736f6c634300081a0033",
					"opcodes": "PUSH1 0xC0 CALLVALUE PUSH1 0x8A JUMPI PUSH1 0x1F PUSH2 0x2D8 CODESIZE DUP2 SWAP1 SUB SWAP2 DUP3 ADD PUSH1 0x1F NOT AND DUP4 ADD SWAP2 PUSH1 0x1 PUSH1 0x1 PUSH1 0x40 SHL SUB DUP4 GT DUP5 DUP5 LT OR PUSH1 0x8E JUMPI DUP1 DUP5 SWAP3 PUSH1 0x40 SWAP5 DUP6 MSTORE DUP4 CODECOPY DUP2 ADD SUB SLT PUSH1 0x8A JUMPI DUP1 MLOAD PUSH1 0x20 SWAP1 SWAP2 ADD MLOAD SWAP1 PUSH1 0x1 PUSH1 0x1 PUSH1 0xA0 SHL SUB DUP3 AND DUP3 SUB PUSH1 0x8A JUMPI PUSH1 0x80 MSTORE PUSH1 0xA0 MSTORE PUSH1 0x1 PUSH1 0xFF NOT DUP2 SLOAD AND OR PUSH1 0x1 SSTORE PUSH1 0x40 MLOAD PUSH2 0x235 SWAP1 DUP2 PUSH2 0xA3 DUP3 CODECOPY PUSH1 0x80 MLOAD DUP2 PUSH1 0x6A ADD MSTORE PUSH1 0xA0 MLOAD DUP2 DUP2 DUP2 PUSH1 0xE4 ADD MSTORE PUSH2 0x12A ADD MSTORE RETURN JUMPDEST PUSH0 DUP1 REVERT JUMPDEST PUSH4 0x4E487B71 PUSH1 0xE0 SHL PUSH0 MSTORE PUSH1 0x41 PUSH1 0x4 MSTORE PUSH1 0x24 PUSH0 REVERT INVALID PUSH1 0x80 DUP1 PUSH1 0x40 MSTORE PUSH1 0x4 CALLDATASIZE LT ISZERO PUSH2 0x12 JUMPI PUSH0 DUP1 REVERT JUMPDEST PUSH0 CALLDATALOAD PUSH1 0xE0 SHR SWAP1 DUP2 PUSH4 0x31DB047B EQ PUSH2 0x113 JUMPI POP DUP1 PUSH4 0x733D5038 EQ PUSH2 0xCF JUMPI DUP1 PUSH4 0x76C63A89 EQ PUSH2 0xAD JUMPI DUP1 PUSH4 0xD070B0FA EQ PUSH2 0x91 JUMPI PUSH4 0xD7C81B55 EQ PUSH2 0x53 JUMPI PUSH0 DUP1 REVERT JUMPDEST CALLVALUE PUSH2 0x8D JUMPI PUSH0 CALLDATASIZE PUSH1 0x3 NOT ADD SLT PUSH2 0x8D JUMPI PUSH1 0x20 PUSH1 0x40 MLOAD PUSH32 0x0 DUP2 MSTORE RETURN JUMPDEST PUSH0 DUP1 REVERT JUMPDEST CALLVALUE PUSH2 0x8D JUMPI PUSH0 CALLDATASIZE PUSH1 0x3 NOT ADD SLT PUSH2 0x8D JUMPI PUSH1 0x20 PUSH0 SLOAD PUSH1 0x40 MLOAD SWAP1 DUP2 MSTORE RETURN JUMPDEST CALLVALUE PUSH2 0x8D JUMPI PUSH0 CALLDATASIZE PUSH1 0x3 NOT ADD SLT PUSH2 0x8D JUMPI PUSH1 0x20 PUSH1 0xFF PUSH1 0x1 SLOAD AND PUSH1 0x40 MLOAD SWAP1 ISZERO ISZERO DUP2 MSTORE RETURN JUMPDEST CALLVALUE PUSH2 0x8D JUMPI PUSH0 CALLDATASIZE PUSH1 0x3 NOT ADD SLT PUSH2 0x8D JUMPI PUSH1 0x40 MLOAD PUSH32 0x0 PUSH1 0x1 PUSH1 0x1 PUSH1 0xA0 SHL SUB AND DUP2 MSTORE PUSH1 0x20 SWAP1 RETURN JUMPDEST CALLVALUE PUSH2 0x8D JUMPI PUSH1 0x20 CALLDATASIZE PUSH1 0x3 NOT ADD SLT PUSH2 0x8D JUMPI PUSH1 0x4 CALLDATALOAD SWAP1 PUSH32 0x0 PUSH1 0x1 PUSH1 0x1 PUSH1 0xA0 SHL SUB AND CALLER SUB PUSH2 0x1D4 JUMPI POP PUSH1 0x1 SLOAD SWAP1 PUSH1 0xFF DUP3 AND ISZERO PUSH2 0x1A4 JUMPI DUP1 ISZERO PUSH2 0x177 JUMPI PUSH0 SSTORE PUSH1 0xFF NOT AND PUSH1 0x1 SSTORE STOP JUMPDEST PUSH1 0x40 MLOAD PUSH3 0x461BCD PUSH1 0xE5 SHL DUP2 MSTORE PUSH1 0x20 PUSH1 0x4 DUP3 ADD MSTORE PUSH1 0x5 PUSH1 0x24 DUP3 ADD MSTORE PUSH5 0x217A65726F PUSH1 0xD8 SHL PUSH1 0x44 DUP3 ADD MSTORE PUSH1 0x64 SWAP1 REVERT JUMPDEST PUSH1 0x40 MLOAD PUSH3 0x461BCD PUSH1 0xE5 SHL DUP2 MSTORE PUSH1 0x20 PUSH1 0x4 DUP3 ADD MSTORE PUSH1 0x8 PUSH1 0x24 DUP3 ADD MSTORE PUSH8 0x216465616C696E67 PUSH1 0xC0 SHL PUSH1 0x44 DUP3 ADD MSTORE PUSH1 0x64 SWAP1 REVERT JUMPDEST PUSH3 0x461BCD PUSH1 0xE5 SHL DUP2 MSTORE PUSH1 0x20 PUSH1 0x4 DUP3 ADD MSTORE PUSH1 0x6 PUSH1 0x24 DUP3 ADD MSTORE PUSH6 0x2172656C6179 PUSH1 0xD0 SHL PUSH1 0x44 DUP3 ADD MSTORE PUSH1 0x64 SWAP1 REVERT INVALID LOG2 PUSH5 0x6970667358 0x22 SLT KECCAK256 DUP11 JUMP PUSH17 0x69BAED14F5BB2FF17A5693532DD731F1BC SELFDESTRUCT 0x23 PUSH24 0x5B5836A82F62B3EB6964736F6C634300081A003300000000 "
				},
				"gasEstimates": {
					"creation": {
						"codeDepositCost": "113000",
						"executionCost": "infinite",
						"totalCost": "infinite"
					},
					"external": {
						"applyECVRFSeed(uint256)": "infinite",
						"dealing()": "2312",
						"ecvrfRelay()": "infinite",
						"gameId()": "infinite",
						"lastSeed()": "2321"
					}
				},
				"methodIdentifiers": {
					"applyECVRFSeed(uint256)": "31db047b",
					"dealing()": "76c63a89",
					"ecvrfRelay()": "733d5038",
					"gameId()": "d7c81b55",
					"lastSeed()": "d070b0fa"
				}
			},
			"storageLayout": {
				"storage": [
					{
						"astId": 8,
						"contract": "contracts/mocks/MockGameRoomEcvrf.sol:MockGameRoomEcvrf",
						"label": "lastSeed",
						"offset": 0,
						"slot": "0",
						"type": "t_uint256"
					},
					{
						"astId": 10,
						"contract": "contracts/mocks/MockGameRoomEcvrf.sol:MockGameRoomEcvrf",
						"label": "dealing",
						"offset": 0,
						"slot": "1",
						"type": "t_bool"
					}
				],
				"types": {
					"t_bool": {
						"encoding": "inplace",
						"label": "bool",
						"numberOfBytes": "1"
					},
					"t_uint256": {
						"encoding": "inplace",
						"label": "uint256",
						"numberOfBytes": "32"
					}
				}
			},
			"userdoc": {
				"kind": "user",
				"methods": {},
				"version": 1
			}
		}
	}
}