{
	"contracts/GameRoom.sol": {
		"GameRoom": {
			"abi": [
				{
					"inputs": [
						{
							"internalType": "uint256",
							"name": "_gameId",
							"type": "uint256"
						},
						{
							"internalType": "address payable",
							"name": "_stakingVault",
							"type": "address"
						},
						{
							"components": [
								{
									"internalType": "uint256",
									"name": "minPlayers",
									"type": "uint256"
								},
								{
									"internalType": "uint256",
									"name": "maxPlayers",
									"type": "uint256"
								},
								{
									"internalType": "uint256",
									"name": "minStake",
									"type": "uint256"
								},
								{
									"internalType": "uint256",
									"name": "maxStake",
									"type": "uint256"
								},
								{
									"internalType": "uint256",
									"name": "jokerCount",
									"type": "uint256"
								},
								{
									"internalType": "uint256[10]",
									"name": "cardCounts",
									"type": "uint256[10]"
								}
							],
							"internalType": "struct GameRoom.GameConfig",
							"name": "_config",
							"type": "tuple"
						}
					],
					"stateMutability": "nonpayable",
					"type": "constructor"
				},
				{
					"anonymous": false,
					"inputs": [
						{
							"indexed": true,
							"internalType": "address",
							"name": "from",
							"type": "address"
						},
						{
							"indexed": true,
							"internalType": "address",
							"name": "to",
							"type": "address"
						},
						{
							"indexed": false,
							"internalType": "uint8",
							"name": "cardNumber",
							"type": "uint8"
						}
					],
					"name": "CardTaken",
					"type": "event"
				},
				{
					"anonymous": false,
					"inputs": [
						{
							"indexed": true,
							"internalType": "uint256",
							"name": "gameId",
							"type": "uint256"
						},
						{
							"indexed": false,
							"internalType": "address[]",
							"name": "losers",
							"type": "address[]"
						},
						{
							"indexed": false,
							"internalType": "address[]",
							"name": "winners",
							"type": "address[]"
						}
					],
					"name": "GameEnded",
					"type": "event"
				},
				{
					"anonymous": false,
					"inputs": [
						{
							"indexed": true,
							"internalType": "uint256",
							"name": "gameId",
							"type": "uint256"
						}
					],
					"name": "GameStarted",
					"type": "event"
				},
				{
					"anonymous": false,
					"inputs": [
						{
							"indexed": true,
							"internalType": "uint256",
							"name": "gameId",
							"type": "uint256"
						},
						{
							"indexed": true,
							"internalType": "address",
							"name": "player",
							"type": "address"
						},
						{
							"indexed": false,
							"internalType": "uint256",
							"name": "stakeAmount",
							"type": "uint256"
						}
					],
					"name": "PlayerJoined",
					"type": "event"
				},
				{
					"anonymous": false,
					"inputs": [
						{
							"indexed": true,
							"internalType": "address",
							"name": "player",
							"type": "address"
						}
					],
					"name": "PlayerOut",
					"type": "event"
				},
				{
					"inputs": [],
					"name": "config",
					"outputs": [
						{
							"internalType": "uint256",
							"name": "minPlayers",
							"type": "uint256"
						},
						{
							"internalType": "uint256",
							"name": "maxPlayers",
							"type": "uint256"
						},
						{
							"internalType": "uint256",
							"name": "minStake",
							"type": "uint256"
						},
						{
							"internalType": "uint256",
							"name": "maxStake",
							"type": "uint256"
						},
						{
							"internalType": "uint256",
							"name": "jokerCount",
							"type": "uint256"
						}
					],
					"stateMutability": "view",
					"type": "function"
				},
				{
					"inputs": [],
					"name": "currentPlayerIndex",
					"outputs": [
						{
							"internalType": "uint256",
							"name": "",
							"type": "uint256"
						}
					],
					"stateMutability": "view",
					"type": "function"
				},
				{
					"inputs": [],
					"name": "gameId",
					"outputs": [
						{
							"internalType": "uint256",
							"name": "",
							"type": "uint256"
						}
					],
					"stateMutability": "view",
					"type": "function"
				},
				{
					"inputs": [],
					"name": "gameState",
					"outputs": [
						{
							"internalType": "enum GameRoom.GameState",
							"name": "",
							"type": "uint8"
						}
					],
					"stateMutability": "view",
					"type": "function"
				},
				{
					"inputs": [
						{
							"internalType": "address",
							"name": "p",
							"type": "address"
						}
					],
					"name": "getPlayerCards",
					"outputs": [
						{
							"internalType": "uint256[10]",
							"name": "",
							"type": "uint256[10]"
						},
						{
							"internalType": "uint256",
							"name": "",
							"type": "uint256"
						}
					],
					"stateMutability": "view",
					"type": "function"
				},
				{
					"inputs": [],
					"name": "host",
					"outputs": [
						{
							"internalType": "address",
							"name": "",
							"type": "address"
						}
					],
					"stateMutability": "view",
					"type": "function"
				},
				{
					"inputs": [],
					"name": "joinGame",
					"outputs": [],
					"stateMutability": "payable",
					"type": "function"
				},
				{
					"inputs": [
						{
							"internalType": "address",
							"name": "",
							"type": "address"
						}
					],
					"name": "playerData",
					"outputs": [
						{
							"internalType": "address",
							"name": "addr",
							"type": "address"
						},
						{
							"internalType": "uint256",
							"name": "stakeAmount",
							"type": "uint256"
						},
						{
							"internalType": "bool",
							"name": "isActive",
							"type": "bool"
						},
						{
							"internalType": "bool",
							"name": "isOut",
							"type": "bool"
						},
						{
							"internalType": "uint256",
							"name": "jokerCount",
							"type": "uint256"
						}
					],
					"stateMutability": "view",
					"type": "function"
				},
				{
					"inputs": [
						{
							"internalType": "uint256",
							"name": "",
							"type": "uint256"
						}
					],
					"name": "players",
					"outputs": [
						{
							"internalType": "address",
							"name": "",
							"type": "address"
						}
					],
					"stateMutability": "view",
					"type": "function"
				},
				{
					"inputs": [],
					"name": "stakingVault",
					"outputs": [
						{
							"internalType": "contract StakingVault",
							"name": "",
							"type": "address"
						}
					],
					"stateMutability": "view",
					"type": "function"
				},
				{
					"inputs": [
						{
							"internalType": "address",
							"name": "target",
							"type": "address"
						},
						{
							"internalType": "uint8",
							"name": "cardNumber",
							"type": "uint8"
						}
					],
					"name": "takeCard",
					"outputs": [],
					"stateMutability": "nonpayable",
					"type": "function"
				}
			],
			"devdoc": {
				"kind": "dev",
				"methods": {
					"takeCard(address,uint8)": {
						"params": {
							"cardNumber": "0 = 小丑，1–10 = 数字牌（与手牌下标 0–9 对应）"
						}
					}
				},
				"version": 1
			},
			"evm": {
				"assembly": "    /* \"contracts/GameRoom.sol\":93:7207  contract GameRoom {... */\n  mstore(0x40, 0xe0)\n    /* \"contracts/GameRoom.sol\":1233:1595  constructor(... */\n  callvalue\n  dup1\n  iszero\n  tag_1\n  jumpi\n  0x00\n  dup1\n  revert\ntag_1:\n  pop\n  mload(0x40)\n  sub(codesize, bytecodeSize)\n  dup1\n  bytecodeSize\n  dup4\n  codecopy\n  dup2\n  dup2\n  add\n  0x40\n  mstore\n  dup2\n  add\n  swap1\n  tag_2\n  swap2\n  swap1\n  tag_3\n  jump\t// in\ntag_2:\n    /* \"contracts/GameRoom.sol\":1399:1400  0 */\n  0x00\n    /* \"contracts/GameRoom.sol\":1374:1401  _stakingVault != address(0) */\n  0xffffffffffffffffffffffffffffffffffffffff\n  and\n    /* \"contracts/GameRoom.sol\":1374:1387  _stakingVault */\n  dup3\n    /* \"contracts/GameRoom.sol\":1374:1401  _stakingVault != address(0) */\n  0xffffffffffffffffffffffffffffffffffffffff\n  and\n  sub\n    /* \"contracts/GameRoom.sol\":1366:1412  require(_stakingVault != address(0), \"!vault\") */\n  tag_6\n  jumpi\n  mload(0x40)\n  0x08c379a000000000000000000000000000000000000000000000000000000000\n  dup2\n  mstore\n  0x04\n  add\n  tag_7\n  swap1\n  tag_8\n  jump\t// in\ntag_7:\n  mload(0x40)\n  dup1\n  swap2\n  sub\n  swap1\n  revert\ntag_6:\n    /* \"contracts/GameRoom.sol\":1432:1439  _gameId */\n  dup3\n    /* \"contracts/GameRoom.sol\":1423:1439  gameId = _gameId */\n  0x80\n  dup2\n  dup2\n  mstore\n  pop\n  pop\n    /* \"contracts/GameRoom.sol\":1478:1491  _stakingVault */\n  dup2\n    /* \"contracts/GameRoom.sol\":1450:1492  stakingVault = StakingVault(_stakingVault) */\n  0xffffffffffffffffffffffffffffffffffffffff\n  and\n  0xa0\n  dup2\n  0xffffffffffffffffffffffffffffffffffffffff\n  and\n  dup2\n  mstore\n  pop\n  pop\n    /* \"contracts/GameRoom.sol\":1512:1519  _config */\n  dup1\n    /* \"contracts/GameRoom.sol\":1503:1509  config */\n  0x00\n    /* \"contracts/GameRoom.sol\":1503:1519  config = _config */\n  dup1\n  dup3\n  add\n  mload\n  dup2\n  0x00\n  add\n  sstore\n  0x20\n  dup3\n  add\n  mload\n  dup2\n  0x01\n  add\n  sstore\n  0x40\n  dup3\n  add\n  mload\n  dup2\n  0x02\n  add\n  sstore\n  0x60\n  dup3\n  add\n  mload\n  dup2\n  0x03\n  add\n  sstore\n  0x80\n  dup3\n  add\n  mload\n  dup2\n  0x04\n  add\n  sstore\n  0xa0\n  dup3\n  add\n  mload\n  dup2\n  0x05\n  add\n  swap1\n  0x0a\n  tag_9\n  swap3\n  swap2\n  swap1\n  tag_10\n  jump\t// in\ntag_9:\n  pop\n  swap1\n  pop\n  pop\n    /* \"contracts/GameRoom.sol\":1542:1559  GameState.PENDING */\n  0x00\n    /* \"contracts/GameRoom.sol\":1530:1539  gameState */\n  0x0f\n  0x00\n    /* \"contracts/GameRoom.sol\":1530:1559  gameState = GameState.PENDING */\n  0x0100\n  exp\n  dup2\n  sload\n  dup2\n  0xff\n  mul\n  not\n  and\n  swap1\n  dup4\n  0x02\n  dup2\n  gt\n  iszero\n  tag_11\n  jumpi\n  tag_12\n  tag_13\n  jump\t// in\ntag_12:\ntag_11:\n  mul\n  or\n  swap1\n  sstore\n  pop\n    /* \"contracts/GameRoom.sol\":1577:1587  msg.sender */\n  caller\n    /* \"contracts/GameRoom.sol\":1570:1587  host = msg.sender */\n  0xffffffffffffffffffffffffffffffffffffffff\n  and\n  0xc0\n  dup2\n  0xffffffffffffffffffffffffffffffffffffffff\n  and\n  dup2\n  mstore\n  pop\n  pop\n    /* \"contracts/GameRoom.sol\":1233:1595  constructor(... */\n  pop\n  pop\n  pop\n    /* \"contracts/GameRoom.sol\":93:7207  contract GameRoom {... */\n  jump(tag_14)\ntag_10:\n  dup3\n  0x0a\n  dup2\n  add\n  swap3\n  dup3\n  iszero\n  tag_15\n  jumpi\n  swap2\n  0x20\n  mul\n  dup3\n  add\ntag_16:\n  dup3\n  dup2\n  gt\n  iszero\n  tag_17\n  jumpi\n  dup3\n  mload\n  dup3\n  sstore\n  swap2\n  0x20\n  add\n  swap2\n  swap1\n  0x01\n  add\n  swap1\n  jump(tag_16)\ntag_17:\ntag_15:\n  pop\n  swap1\n  pop\n  tag_18\n  swap2\n  swap1\n  tag_19\n  jump\t// in\ntag_18:\n  pop\n  swap1\n  jump\t// out\ntag_19:\ntag_20:\n  dup1\n  dup3\n  gt\n  iszero\n  tag_21\n  jumpi\n  0x00\n  dup2\n  0x00\n  swap1\n  sstore\n  pop\n  0x01\n  add\n  jump(tag_20)\ntag_21:\n  pop\n  swap1\n  jump\t// out\n    /* \"#utility.yul\":7:82   */\ntag_22:\n    /* \"#utility.yul\":40:46   */\n  0x00\n    /* \"#utility.yul\":73:75   */\n  0x40\n    /* \"#utility.yul\":67:76   */\n  mload\n    /* \"#utility.yul\":57:76   */\n  swap1\n  pop\n    /* \"#utility.yul\":7:82   */\n  swap1\n  jump\t// out\n    /* \"#utility.yul\":88:205   */\ntag_23:\n    /* \"#utility.yul\":197:198   */\n  0x00\n    /* \"#utility.yul\":194:195   */\n  dup1\n    /* \"#utility.yul\":187:199   */\n  revert\n    /* \"#utility.yul\":334:411   */\ntag_25:\n    /* \"#utility.yul\":371:378   */\n  0x00\n    /* \"#utility.yul\":400:405   */\n  dup2\n    /* \"#utility.yul\":389:405   */\n  swap1\n  pop\n    /* \"#utility.yul\":334:411   */\n  swap2\n  swap1\n  pop\n  jump\t// out\n    /* \"#utility.yul\":417:539   */\ntag_26:\n    /* \"#utility.yul\":490:514   */\n  tag_53\n    /* \"#utility.yul\":508:513   */\n  dup2\n    /* \"#utility.yul\":490:514   */\n  tag_25\n  jump\t// in\ntag_53:\n    /* \"#utility.yul\":483:488   */\n  dup2\n    /* \"#utility.yul\":480:515   */\n  eq\n    /* \"#utility.yul\":470:533   */\n  tag_54\n  jumpi\n    /* \"#utility.yul\":529:530   */\n  0x00\n    /* \"#utility.yul\":526:527   */\n  dup1\n    /* \"#utility.yul\":519:531   */\n  revert\n    /* \"#utility.yul\":470:533   */\ntag_54:\n    /* \"#utility.yul\":417:539   */\n  pop\n  jump\t// out\n    /* \"#utility.yul\":545:688   */\ntag_27:\n    /* \"#utility.yul\":602:607   */\n  0x00\n    /* \"#utility.yul\":633:639   */\n  dup2\n    /* \"#utility.yul\":627:640   */\n  mload\n    /* \"#utility.yul\":618:640   */\n  swap1\n  pop\n    /* \"#utility.yul\":649:682   */\n  tag_56\n    /* \"#utility.yul\":676:681   */\n  dup2\n    /* \"#utility.yul\":649:682   */\n  tag_26\n  jump\t// in\ntag_56:\n    /* \"#utility.yul\":545:688   */\n  swap3\n  swap2\n  pop\n  pop\n  jump\t// out\n    /* \"#utility.yul\":694:820   */\ntag_28:\n    /* \"#utility.yul\":731:738   */\n  0x00\n    /* \"#utility.yul\":771:813   */\n  0xffffffffffffffffffffffffffffffffffffffff\n    /* \"#utility.yul\":764:769   */\n  dup3\n    /* \"#utility.yul\":760:814   */\n  and\n    /* \"#utility.yul\":749:814   */\n  swap1\n  pop\n    /* \"#utility.yul\":694:820   */\n  swap2\n  swap1\n  pop\n  jump\t// out\n    /* \"#utility.yul\":826:930   */\ntag_29:\n    /* \"#utility.yul\":871:878   */\n  0x00\n    /* \"#utility.yul\":900:924   */\n  tag_59\n    /* \"#utility.yul\":918:923   */\n  dup3\n    /* \"#utility.yul\":900:924   */\n  tag_28\n  jump\t// in\ntag_59:\n    /* \"#utility.yul\":889:924   */\n  swap1\n  pop\n    /* \"#utility.yul\":826:930   */\n  swap2\n  swap1\n  pop\n  jump\t// out\n    /* \"#utility.yul\":936:1074   */\ntag_30:\n    /* \"#utility.yul\":1017:1049   */\n  tag_61\n    /* \"#utility.yul\":1043:1048   */\n  dup2\n    /* \"#utility.yul\":1017:1049   */\n  tag_29\n  jump\t// in\ntag_61:\n    /* \"#utility.yul\":1010:1015   */\n  dup2\n    /* \"#utility.yul\":1007:1050   */\n  eq\n    /* \"#utility.yul\":997:1068   */\n  tag_62\n  jumpi\n    /* \"#utility.yul\":1064:1065   */\n  0x00\n    /* \"#utility.yul\":1061:1062   */\n  dup1\n    /* \"#utility.yul\":1054:1066   */\n  revert\n    /* \"#utility.yul\":997:1068   */\ntag_62:\n    /* \"#utility.yul\":936:1074   */\n  pop\n  jump\t// out\n    /* \"#utility.yul\":1080:1239   */\ntag_31:\n    /* \"#utility.yul\":1145:1150   */\n  0x00\n    /* \"#utility.yul\":1176:1182   */\n  dup2\n    /* \"#utility.yul\":1170:1183   */\n  mload\n    /* \"#utility.yul\":1161:1183   */\n  swap1\n  pop\n    /* \"#utility.yul\":1192:1233   */\n  tag_64\n    /* \"#utility.yul\":1227:1232   */\n  dup2\n    /* \"#utility.yul\":1192:1233   */\n  tag_30\n  jump\t// in\ntag_64:\n    /* \"#utility.yul\":1080:1239   */\n  swap3\n  swap2\n  pop\n  pop\n  jump\t// out\n    /* \"#utility.yul\":1245:1362   */\ntag_32:\n    /* \"#utility.yul\":1354:1355   */\n  0x00\n    /* \"#utility.yul\":1351:1352   */\n  dup1\n    /* \"#utility.yul\":1344:1356   */\n  revert\n    /* \"#utility.yul\":1368:1470   */\ntag_33:\n    /* \"#utility.yul\":1409:1415   */\n  0x00\n    /* \"#utility.yul\":1460:1462   */\n  0x1f\n    /* \"#utility.yul\":1456:1463   */\n  not\n    /* \"#utility.yul\":1451:1453   */\n  0x1f\n    /* \"#utility.yul\":1444:1449   */\n  dup4\n    /* \"#utility.yul\":1440:1454   */\n  add\n    /* \"#utility.yul\":1436:1464   */\n  and\n    /* \"#utility.yul\":1426:1464   */\n  swap1\n  pop\n    /* \"#utility.yul\":1368:1470   */\n  swap2\n  swap1\n  pop\n  jump\t// out\n    /* \"#utility.yul\":1476:1656   */\ntag_34:\n    /* \"#utility.yul\":1524:1601   */\n  0x4e487b7100000000000000000000000000000000000000000000000000000000\n    /* \"#utility.yul\":1521:1522   */\n  0x00\n    /* \"#utility.yul\":1514:1602   */\n  mstore\n    /* \"#utility.yul\":1621:1625   */\n  0x41\n    /* \"#utility.yul\":1618:1619   */\n  0x04\n    /* \"#utility.yul\":1611:1626   */\n  mstore\n    /* \"#utility.yul\":1645:1649   */\n  0x24\n    /* \"#utility.yul\":1642:1643   */\n  0x00\n    /* \"#utility.yul\":1635:1650   */\n  revert\n    /* \"#utility.yul\":1662:1943   */\ntag_35:\n    /* \"#utility.yul\":1745:1772   */\n  tag_69\n    /* \"#utility.yul\":1767:1771   */\n  dup3\n    /* \"#utility.yul\":1745:1772   */\n  tag_33\n  jump\t// in\ntag_69:\n    /* \"#utility.yul\":1737:1743   */\n  dup2\n    /* \"#utility.yul\":1733:1773   */\n  add\n    /* \"#utility.yul\":1875:1881   */\n  dup2\n    /* \"#utility.yul\":1863:1873   */\n  dup2\n    /* \"#utility.yul\":1860:1882   */\n  lt\n    /* \"#utility.yul\":1839:1857   */\n  0xffffffffffffffff\n    /* \"#utility.yul\":1827:1837   */\n  dup3\n    /* \"#utility.yul\":1824:1858   */\n  gt\n    /* \"#utility.yul\":1821:1883   */\n  or\n    /* \"#utility.yul\":1818:1906   */\n  iszero\n  tag_70\n  jumpi\n    /* \"#utility.yul\":1886:1904   */\n  tag_71\n  tag_34\n  jump\t// in\ntag_71:\n    /* \"#utility.yul\":1818:1906   */\ntag_70:\n    /* \"#utility.yul\":1926:1936   */\n  dup1\n    /* \"#utility.yul\":1922:1924   */\n  0x40\n    /* \"#utility.yul\":1915:1937   */\n  mstore\n    /* \"#utility.yul\":1705:1943   */\n  pop\n    /* \"#utility.yul\":1662:1943   */\n  pop\n  pop\n  jump\t// out\n    /* \"#utility.yul\":1949:2078   */\ntag_36:\n    /* \"#utility.yul\":1983:1989   */\n  0x00\n    /* \"#utility.yul\":2010:2030   */\n  tag_73\n  tag_22\n  jump\t// in\ntag_73:\n    /* \"#utility.yul\":2000:2030   */\n  swap1\n  pop\n    /* \"#utility.yul\":2039:2072   */\n  tag_74\n    /* \"#utility.yul\":2067:2071   */\n  dup3\n    /* \"#utility.yul\":2059:2065   */\n  dup3\n    /* \"#utility.yul\":2039:2072   */\n  tag_35\n  jump\t// in\ntag_74:\n    /* \"#utility.yul\":1949:2078   */\n  swap2\n  swap1\n  pop\n  jump\t// out\n    /* \"#utility.yul\":2207:2324   */\ntag_38:\n    /* \"#utility.yul\":2316:2317   */\n  0x00\n    /* \"#utility.yul\":2313:2314   */\n  dup1\n    /* \"#utility.yul\":2306:2318   */\n  revert\n    /* \"#utility.yul\":2330:2580   */\ntag_39:\n    /* \"#utility.yul\":2406:2410   */\n  0x00\n    /* \"#utility.yul\":2496:2514   */\n  0xffffffffffffffff\n    /* \"#utility.yul\":2488:2494   */\n  dup3\n    /* \"#utility.yul\":2485:2515   */\n  gt\n    /* \"#utility.yul\":2482:2538   */\n  iszero\n  tag_78\n  jumpi\n    /* \"#utility.yul\":2518:2536   */\n  tag_79\n  tag_34\n  jump\t// in\ntag_79:\n    /* \"#utility.yul\":2482:2538   */\ntag_78:\n    /* \"#utility.yul\":2568:2572   */\n  0x20\n    /* \"#utility.yul\":2560:2566   */\n  dup3\n    /* \"#utility.yul\":2556:2573   */\n  mul\n    /* \"#utility.yul\":2548:2573   */\n  swap1\n  pop\n    /* \"#utility.yul\":2330:2580   */\n  swap2\n  swap1\n  pop\n  jump\t// out\n    /* \"#utility.yul\":2586:2703   */\ntag_40:\n    /* \"#utility.yul\":2695:2696   */\n  0x00\n    /* \"#utility.yul\":2692:2693   */\n  dup1\n    /* \"#utility.yul\":2685:2697   */\n  revert\n    /* \"#utility.yul\":2728:3395   */\ntag_41:\n    /* \"#utility.yul\":2834:2839   */\n  0x00\n    /* \"#utility.yul\":2859:2939   */\n  tag_82\n    /* \"#utility.yul\":2875:2938   */\n  tag_83\n    /* \"#utility.yul\":2931:2937   */\n  dup5\n    /* \"#utility.yul\":2875:2938   */\n  tag_39\n  jump\t// in\ntag_83:\n    /* \"#utility.yul\":2859:2939   */\n  tag_36\n  jump\t// in\ntag_82:\n    /* \"#utility.yul\":2850:2939   */\n  swap1\n  pop\n    /* \"#utility.yul\":2959:2964   */\n  dup1\n    /* \"#utility.yul\":3012:3016   */\n  0x20\n    /* \"#utility.yul\":3004:3010   */\n  dup5\n    /* \"#utility.yul\":3000:3017   */\n  mul\n    /* \"#utility.yul\":2992:2998   */\n  dup4\n    /* \"#utility.yul\":2988:3018   */\n  add\n    /* \"#utility.yul\":3041:3044   */\n  dup6\n    /* \"#utility.yul\":3033:3039   */\n  dup2\n    /* \"#utility.yul\":3030:3045   */\n  gt\n    /* \"#utility.yul\":3027:3149   */\n  iszero\n  tag_84\n  jumpi\n    /* \"#utility.yul\":3060:3139   */\n  tag_85\n  tag_40\n  jump\t// in\ntag_85:\n    /* \"#utility.yul\":3027:3149   */\ntag_84:\n    /* \"#utility.yul\":3175:3181   */\n  dup4\n    /* \"#utility.yul\":3158:3389   */\ntag_86:\n    /* \"#utility.yul\":3192:3198   */\n  dup2\n    /* \"#utility.yul\":3187:3190   */\n  dup2\n    /* \"#utility.yul\":3184:3199   */\n  lt\n    /* \"#utility.yul\":3158:3389   */\n  iszero\n  tag_88\n  jumpi\n    /* \"#utility.yul\":3267:3270   */\n  dup1\n    /* \"#utility.yul\":3296:3344   */\n  tag_89\n    /* \"#utility.yul\":3340:3343   */\n  dup9\n    /* \"#utility.yul\":3328:3338   */\n  dup3\n    /* \"#utility.yul\":3296:3344   */\n  tag_27\n  jump\t// in\ntag_89:\n    /* \"#utility.yul\":3291:3294   */\n  dup5\n    /* \"#utility.yul\":3284:3345   */\n  mstore\n    /* \"#utility.yul\":3374:3378   */\n  0x20\n    /* \"#utility.yul\":3369:3372   */\n  dup5\n    /* \"#utility.yul\":3365:3379   */\n  add\n    /* \"#utility.yul\":3358:3379   */\n  swap4\n  pop\n    /* \"#utility.yul\":3234:3389   */\n  pop\n    /* \"#utility.yul\":3218:3222   */\n  0x20\n    /* \"#utility.yul\":3213:3216   */\n  dup2\n    /* \"#utility.yul\":3209:3223   */\n  add\n    /* \"#utility.yul\":3202:3223   */\n  swap1\n  pop\n    /* \"#utility.yul\":3158:3389   */\n  jump(tag_86)\ntag_88:\n    /* \"#utility.yul\":3162:3183   */\n  pop\n    /* \"#utility.yul\":2840:3395   */\n  pop\n  pop\n    /* \"#utility.yul\":2728:3395   */\n  swap4\n  swap3\n  pop\n  pop\n  pop\n  jump\t// out\n    /* \"#utility.yul\":3420:3783   */\ntag_42:\n    /* \"#utility.yul\":3501:3506   */\n  0x00\n    /* \"#utility.yul\":3550:3553   */\n  dup3\n    /* \"#utility.yul\":3543:3547   */\n  0x1f\n    /* \"#utility.yul\":3535:3541   */\n  dup4\n    /* \"#utility.yul\":3531:3548   */\n  add\n    /* \"#utility.yul\":3527:3554   */\n  slt\n    /* \"#utility.yul\":3517:3639   */\n  tag_91\n  jumpi\n    /* \"#utility.yul\":3558:3637   */\n  tag_92\n  tag_38\n  jump\t// in\ntag_92:\n    /* \"#utility.yul\":3517:3639   */\ntag_91:\n    /* \"#utility.yul\":3662:3666   */\n  0x0a\n    /* \"#utility.yul\":3684:3777   */\n  tag_93\n    /* \"#utility.yul\":3773:3776   */\n  dup5\n    /* \"#utility.yul\":3765:3771   */\n  dup3\n    /* \"#utility.yul\":3757:3763   */\n  dup6\n    /* \"#utility.yul\":3684:3777   */\n  tag_41\n  jump\t// in\ntag_93:\n    /* \"#utility.yul\":3675:3777   */\n  swap2\n  pop\n    /* \"#utility.yul\":3507:3783   */\n  pop\n    /* \"#utility.yul\":3420:3783   */\n  swap3\n  swap2\n  pop\n  pop\n  jump\t// out\n    /* \"#utility.yul\":3823:5179   */\ntag_43:\n    /* \"#utility.yul\":3909:3914   */\n  0x00\n    /* \"#utility.yul\":3953:3959   */\n  0x01e0\n    /* \"#utility.yul\":3941:3950   */\n  dup3\n    /* \"#utility.yul\":3936:3939   */\n  dup5\n    /* \"#utility.yul\":3932:3951   */\n  sub\n    /* \"#utility.yul\":3928:3960   */\n  slt\n    /* \"#utility.yul\":3925:4044   */\n  iszero\n  tag_95\n  jumpi\n    /* \"#utility.yul\":3963:4042   */\n  tag_96\n  tag_32\n  jump\t// in\ntag_96:\n    /* \"#utility.yul\":3925:4044   */\ntag_95:\n    /* \"#utility.yul\":4062:4083   */\n  tag_97\n    /* \"#utility.yul\":4078:4082   */\n  0xc0\n    /* \"#utility.yul\":4062:4083   */\n  tag_36\n  jump\t// in\ntag_97:\n    /* \"#utility.yul\":4053:4083   */\n  swap1\n  pop\n    /* \"#utility.yul\":4148:4149   */\n  0x00\n    /* \"#utility.yul\":4188:4248   */\n  tag_98\n    /* \"#utility.yul\":4244:4247   */\n  dup5\n    /* \"#utility.yul\":4235:4241   */\n  dup3\n    /* \"#utility.yul\":4224:4233   */\n  dup6\n    /* \"#utility.yul\":4220:4242   */\n  add\n    /* \"#utility.yul\":4188:4248   */\n  tag_27\n  jump\t// in\ntag_98:\n    /* \"#utility.yul\":4181:4185   */\n  0x00\n    /* \"#utility.yul\":4174:4179   */\n  dup4\n    /* \"#utility.yul\":4170:4186   */\n  add\n    /* \"#utility.yul\":4163:4249   */\n  mstore\n    /* \"#utility.yul\":4093:4260   */\n  pop\n    /* \"#utility.yul\":4325:4327   */\n  0x20\n    /* \"#utility.yul\":4366:4426   */\n  tag_99\n    /* \"#utility.yul\":4422:4425   */\n  dup5\n    /* \"#utility.yul\":4413:4419   */\n  dup3\n    /* \"#utility.yul\":4402:4411   */\n  dup6\n    /* \"#utility.yul\":4398:4420   */\n  add\n    /* \"#utility.yul\":4366:4426   */\n  tag_27\n  jump\t// in\ntag_99:\n    /* \"#utility.yul\":4359:4363   */\n  0x20\n    /* \"#utility.yul\":4352:4357   */\n  dup4\n    /* \"#utility.yul\":4348:4364   */\n  add\n    /* \"#utility.yul\":4341:4427   */\n  mstore\n    /* \"#utility.yul\":4270:4438   */\n  pop\n    /* \"#utility.yul\":4501:4503   */\n  0x40\n    /* \"#utility.yul\":4542:4602   */\n  tag_100\n    /* \"#utility.yul\":4598:4601   */\n  dup5\n    /* \"#utility.yul\":4589:4595   */\n  dup3\n    /* \"#utility.yul\":4578:4587   */\n  dup6\n    /* \"#utility.yul\":4574:4596   */\n  add\n    /* \"#utility.yul\":4542:4602   */\n  tag_27\n  jump\t// in\ntag_100:\n    /* \"#utility.yul\":4535:4539   */\n  0x40\n    /* \"#utility.yul\":4528:4533   */\n  dup4\n    /* \"#utility.yul\":4524:4540   */\n  add\n    /* \"#utility.yul\":4517:4603   */\n  mstore\n    /* \"#utility.yul\":4448:4614   */\n  pop\n    /* \"#utility.yul\":4677:4679   */\n  0x60\n    /* \"#utility.yul\":4718:4778   */\n  tag_101\n    /* \"#utility.yul\":4774:4777   */\n  dup5\n    /* \"#utility.yul\":4765:4771   */\n  dup3\n    /* \"#utility.yul\":4754:4763   */\n  dup6\n    /* \"#utility.yul\":4750:4772   */\n  add\n    /* \"#utility.yul\":4718:4778   */\n  tag_27\n  jump\t// in\ntag_101:\n    /* \"#utility.yul\":4711:4715   */\n  0x60\n    /* \"#utility.yul\":4704:4709   */\n  dup4\n    /* \"#utility.yul\":4700:4716   */\n  add\n    /* \"#utility.yul\":4693:4779   */\n  mstore\n    /* \"#utility.yul\":4624:4790   */\n  pop\n    /* \"#utility.yul\":4855:4858   */\n  0x80\n    /* \"#utility.yul\":4897:4957   */\n  tag_102\n    /* \"#utility.yul\":4953:4956   */\n  dup5\n    /* \"#utility.yul\":4944:4950   */\n  dup3\n    /* \"#utility.yul\":4933:4942   */\n  dup6\n    /* \"#utility.yul\":4929:4951   */\n  add\n    /* \"#utility.yul\":4897:4957   */\n  tag_27\n  jump\t// in\ntag_102:\n    /* \"#utility.yul\":4890:4894   */\n  0x80\n    /* \"#utility.yul\":4883:4888   */\n  dup4\n    /* \"#utility.yul\":4879:4895   */\n  add\n    /* \"#utility.yul\":4872:4958   */\n  mstore\n    /* \"#utility.yul\":4800:4969   */\n  pop\n    /* \"#utility.yul\":5034:5037   */\n  0xa0\n    /* \"#utility.yul\":5076:5160   */\n  tag_103\n    /* \"#utility.yul\":5156:5159   */\n  dup5\n    /* \"#utility.yul\":5147:5153   */\n  dup3\n    /* \"#utility.yul\":5136:5145   */\n  dup6\n    /* \"#utility.yul\":5132:5154   */\n  add\n    /* \"#utility.yul\":5076:5160   */\n  tag_42\n  jump\t// in\ntag_103:\n    /* \"#utility.yul\":5069:5073   */\n  0xa0\n    /* \"#utility.yul\":5062:5067   */\n  dup4\n    /* \"#utility.yul\":5058:5074   */\n  add\n    /* \"#utility.yul\":5051:5161   */\n  mstore\n    /* \"#utility.yul\":4979:5172   */\n  pop\n    /* \"#utility.yul\":3823:5179   */\n  swap3\n  swap2\n  pop\n  pop\n  jump\t// out\n    /* \"#utility.yul\":5185:5917   */\ntag_3:\n    /* \"#utility.yul\":5307:5313   */\n  0x00\n    /* \"#utility.yul\":5315:5321   */\n  dup1\n    /* \"#utility.yul\":5323:5329   */\n  0x00\n    /* \"#utility.yul\":5372:5375   */\n  0x0220\n    /* \"#utility.yul\":5360:5369   */\n  dup5\n    /* \"#utility.yul\":5351:5358   */\n  dup7\n    /* \"#utility.yul\":5347:5370   */\n  sub\n    /* \"#utility.yul\":5343:5376   */\n  slt\n    /* \"#utility.yul\":5340:5460   */\n  iszero\n  tag_105\n  jumpi\n    /* \"#utility.yul\":5379:5458   */\n  tag_106\n  tag_23\n  jump\t// in\ntag_106:\n    /* \"#utility.yul\":5340:5460   */\ntag_105:\n    /* \"#utility.yul\":5499:5500   */\n  0x00\n    /* \"#utility.yul\":5524:5588   */\n  tag_107\n    /* \"#utility.yul\":5580:5587   */\n  dup7\n    /* \"#utility.yul\":5571:5577   */\n  dup3\n    /* \"#utility.yul\":5560:5569   */\n  dup8\n    /* \"#utility.yul\":5556:5578   */\n  add\n    /* \"#utility.yul\":5524:5588   */\n  tag_27\n  jump\t// in\ntag_107:\n    /* \"#utility.yul\":5514:5588   */\n  swap4\n  pop\n    /* \"#utility.yul\":5470:5598   */\n  pop\n    /* \"#utility.yul\":5637:5639   */\n  0x20\n    /* \"#utility.yul\":5663:5735   */\n  tag_108\n    /* \"#utility.yul\":5727:5734   */\n  dup7\n    /* \"#utility.yul\":5718:5724   */\n  dup3\n    /* \"#utility.yul\":5707:5716   */\n  dup8\n    /* \"#utility.yul\":5703:5725   */\n  add\n    /* \"#utility.yul\":5663:5735   */\n  tag_31\n  jump\t// in\ntag_108:\n    /* \"#utility.yul\":5653:5735   */\n  swap3\n  pop\n    /* \"#utility.yul\":5608:5745   */\n  pop\n    /* \"#utility.yul\":5784:5786   */\n  0x40\n    /* \"#utility.yul\":5810:5900   */\n  tag_109\n    /* \"#utility.yul\":5892:5899   */\n  dup7\n    /* \"#utility.yul\":5883:5889   */\n  dup3\n    /* \"#utility.yul\":5872:5881   */\n  dup8\n    /* \"#utility.yul\":5868:5890   */\n  add\n    /* \"#utility.yul\":5810:5900   */\n  tag_43\n  jump\t// in\ntag_109:\n    /* \"#utility.yul\":5800:5900   */\n  swap2\n  pop\n    /* \"#utility.yul\":5755:5910   */\n  pop\n    /* \"#utility.yul\":5185:5917   */\n  swap3\n  pop\n  swap3\n  pop\n  swap3\n  jump\t// out\n    /* \"#utility.yul\":5923:6092   */\ntag_44:\n    /* \"#utility.yul\":6007:6018   */\n  0x00\n    /* \"#utility.yul\":6041:6047   */\n  dup3\n    /* \"#utility.yul\":6036:6039   */\n  dup3\n    /* \"#utility.yul\":6029:6048   */\n  mstore\n    /* \"#utility.yul\":6081:6085   */\n  0x20\n    /* \"#utility.yul\":6076:6079   */\n  dup3\n    /* \"#utility.yul\":6072:6086   */\n  add\n    /* \"#utility.yul\":6057:6086   */\n  swap1\n  pop\n    /* \"#utility.yul\":5923:6092   */\n  swap3\n  swap2\n  pop\n  pop\n  jump\t// out\n    /* \"#utility.yul\":6098:6254   */\ntag_45:\n    /* \"#utility.yul\":6238:6246   */\n  0x217661756c740000000000000000000000000000000000000000000000000000\n    /* \"#utility.yul\":6234:6235   */\n  0x00\n    /* \"#utility.yul\":6226:6232   */\n  dup3\n    /* \"#utility.yul\":6222:6236   */\n  add\n    /* \"#utility.yul\":6215:6247   */\n  mstore\n    /* \"#utility.yul\":6098:6254   */\n  pop\n  jump\t// out\n    /* \"#utility.yul\":6260:6625   */\ntag_46:\n    /* \"#utility.yul\":6402:6405   */\n  0x00\n    /* \"#utility.yul\":6423:6489   */\n  tag_113\n    /* \"#utility.yul\":6487:6488   */\n  0x06\n    /* \"#utility.yul\":6482:6485   */\n  dup4\n    /* \"#utility.yul\":6423:6489   */\n  tag_44\n  jump\t// in\ntag_113:\n    /* \"#utility.yul\":6416:6489   */\n  swap2\n  pop\n    /* \"#utility.yul\":6498:6591   */\n  tag_114\n    /* \"#utility.yul\":6587:6590   */\n  dup3\n    /* \"#utility.yul\":6498:6591   */\n  tag_45\n  jump\t// in\ntag_114:\n    /* \"#utility.yul\":6616:6618   */\n  0x20\n    /* \"#utility.yul\":6611:6614   */\n  dup3\n    /* \"#utility.yul\":6607:6619   */\n  add\n    /* \"#utility.yul\":6600:6619   */\n  swap1\n  pop\n    /* \"#utility.yul\":6260:6625   */\n  swap2\n  swap1\n  pop\n  jump\t// out\n    /* \"#utility.yul\":6631:7050   */\ntag_8:\n    /* \"#utility.yul\":6797:6801   */\n  0x00\n    /* \"#utility.yul\":6835:6837   */\n  0x20\n    /* \"#utility.yul\":6824:6833   */\n  dup3\n    /* \"#utility.yul\":6820:6838   */\n  add\n    /* \"#utility.yul\":6812:6838   */\n  swap1\n  pop\n    /* \"#utility.yul\":6884:6893   */\n  dup2\n    /* \"#utility.yul\":6878:6882   */\n  dup2\n    /* \"#utility.yul\":6874:6894   */\n  sub\n    /* \"#utility.yul\":6870:6871   */\n  0x00\n    /* \"#utility.yul\":6859:6868   */\n  dup4\n    /* \"#utility.yul\":6855:6872   */\n  add\n    /* \"#utility.yul\":6848:6895   */\n  mstore\n    /* \"#utility.yul\":6912:7043   */\n  tag_116\n    /* \"#utility.yul\":7038:7042   */\n  dup2\n    /* \"#utility.yul\":6912:7043   */\n  tag_46\n  jump\t// in\ntag_116:\n    /* \"#utility.yul\":6904:7043   */\n  swap1\n  pop\n    /* \"#utility.yul\":6631:7050   */\n  swap2\n  swap1\n  pop\n  jump\t// out\n    /* \"#utility.yul\":7056:7236   */\ntag_13:\n    /* \"#utility.yul\":7104:7181   */\n  0x4e487b7100000000000000000000000000000000000000000000000000000000\n    /* \"#utility.yul\":7101:7102   */\n  0x00\n    /* \"#utility.yul\":7094:7182   */\n  mstore\n    /* \"#utility.yul\":7201:7205   */\n  0x21\n    /* \"#utility.yul\":7198:7199   */\n  0x04\n    /* \"#utility.yul\":7191:7206   */\n  mstore\n    /* \"#utility.yul\":7225:7229   */\n  0x24\n    /* \"#utility.yul\":7222:7223   */\n  0x00\n    /* \"#utility.yul\":7215:7230   */\n  revert\n    /* \"contracts/GameRoom.sol\":93:7207  contract GameRoom {... */\ntag_14:\n  mload(0x80)\n  mload(0xa0)\n  mload(0xc0)\n  codecopy(0x00, dataOffset(sub_0), dataSize(sub_0))\n  0x00\n  assignImmutable(\"0x59c0d2b7af0a8e6d3d8e710a078764bd67b7223777026c424cdb4f599824bb79\")\n  0x00\n  assignImmutable(\"0x6bcaf047ba4c8ac400fca43393035242dd1aabda2d6068a0c51242b97224de8d\")\n  0x00\n  assignImmutable(\"0xd67d834462ca31eaef1f30157e31659f60355143b7441e6fc7d9eae1fa79f3f8\")\n  return(0x00, dataSize(sub_0))\nstop\n\nsub_0: assembly {\n        /* \"contracts/GameRoom.sol\":93:7207  contract GameRoom {... */\n      mstore(0x40, 0x80)\n      jumpi(tag_1, lt(calldatasize, 0x04))\n      shr(0xe0, calldataload(0x00))\n      dup1\n      0xd1f9c24d\n      gt\n      tag_13\n      jumpi\n      dup1\n      0xd1f9c24d\n      eq\n      tag_7\n      jumpi\n      dup1\n      0xd4f77b1c\n      eq\n      tag_8\n      jumpi\n      dup1\n      0xd7c81b55\n      eq\n      tag_9\n      jumpi\n      dup1\n      0xf437bc59\n      eq\n      tag_10\n      jumpi\n      dup1\n      0xf71d96cb\n      eq\n      tag_11\n      jumpi\n      dup1\n      0xfb9bdab4\n      eq\n      tag_12\n      jumpi\n      jump(tag_1)\n    tag_13:\n      dup1\n      0x24e7964a\n      eq\n      tag_2\n      jumpi\n      dup1\n      0x424aeded\n      eq\n      tag_3\n      jumpi\n      dup1\n      0x79502c55\n      eq\n      tag_4\n      jumpi\n      dup1\n      0xad5c21d9\n      eq\n      tag_5\n      jumpi\n      dup1\n      0xb0652a88\n      eq\n      tag_6\n      jumpi\n    tag_1:\n      0x00\n      dup1\n      revert\n        /* \"contracts/GameRoom.sol\":603:645  StakingVault public immutable stakingVault */\n    tag_2:\n      callvalue\n      dup1\n      iszero\n      tag_14\n      jumpi\n      0x00\n      dup1\n      revert\n    tag_14:\n      pop\n      tag_15\n      tag_16\n      jump\t// in\n    tag_15:\n      mload(0x40)\n      tag_17\n      swap2\n      swap1\n      tag_18\n      jump\t// in\n    tag_17:\n      mload(0x40)\n      dup1\n      swap2\n      sub\n      swap1\n      return\n        /* \"contracts/GameRoom.sol\":785:829  mapping(address => Player) public playerData */\n    tag_3:\n      callvalue\n      dup1\n      iszero\n      tag_19\n      jumpi\n      0x00\n      dup1\n      revert\n    tag_19:\n      pop\n      tag_20\n      0x04\n      dup1\n      calldatasize\n      sub\n      dup2\n      add\n      swap1\n      tag_21\n      swap2\n      swap1\n      tag_22\n      jump\t// in\n    tag_21:\n      tag_23\n      jump\t// in\n    tag_20:\n      mload(0x40)\n      tag_24\n      swap6\n      swap5\n      swap4\n      swap3\n      swap2\n      swap1\n      tag_25\n      jump\t// in\n    tag_24:\n      mload(0x40)\n      dup1\n      swap2\n      sub\n      swap1\n      return\n        /* \"contracts/GameRoom.sol\":652:676  GameConfig public config */\n    tag_4:\n      callvalue\n      dup1\n      iszero\n      tag_26\n      jumpi\n      0x00\n      dup1\n      revert\n    tag_26:\n      pop\n      tag_27\n      tag_28\n      jump\t// in\n    tag_27:\n      mload(0x40)\n      tag_29\n      swap6\n      swap5\n      swap4\n      swap3\n      swap2\n      swap1\n      tag_30\n      jump\t// in\n    tag_29:\n      mload(0x40)\n      dup1\n      swap2\n      sub\n      swap1\n      return\n        /* \"contracts/GameRoom.sol\":7040:7204  function getPlayerCards(address p) external view returns (uint256[10] memory, uint256) {... */\n    tag_5:\n      callvalue\n      dup1\n      iszero\n      tag_31\n      jumpi\n      0x00\n      dup1\n      revert\n    tag_31:\n      pop\n      tag_32\n      0x04\n      dup1\n      calldatasize\n      sub\n      dup2\n      add\n      swap1\n      tag_33\n      swap2\n      swap1\n      tag_22\n      jump\t// in\n    tag_33:\n      tag_34\n      jump\t// in\n    tag_32:\n      mload(0x40)\n      tag_35\n      swap3\n      swap2\n      swap1\n      tag_36\n      jump\t// in\n    tag_35:\n      mload(0x40)\n      dup1\n      swap2\n      sub\n      swap1\n      return\n        /* \"contracts/GameRoom.sol\":4044:5238  function takeCard(address target, uint8 cardNumber) external {... */\n    tag_6:\n      callvalue\n      dup1\n      iszero\n      tag_37\n      jumpi\n      0x00\n      dup1\n      revert\n    tag_37:\n      pop\n      tag_38\n      0x04\n      dup1\n      calldatasize\n      sub\n      dup2\n      add\n      swap1\n      tag_39\n      swap2\n      swap1\n      tag_40\n      jump\t// in\n    tag_39:\n      tag_41\n      jump\t// in\n    tag_38:\n      stop\n        /* \"contracts/GameRoom.sol\":683:709  GameState public gameState */\n    tag_7:\n      callvalue\n      dup1\n      iszero\n      tag_42\n      jumpi\n      0x00\n      dup1\n      revert\n    tag_42:\n      pop\n      tag_43\n      tag_44\n      jump\t// in\n    tag_43:\n      mload(0x40)\n      tag_45\n      swap2\n      swap1\n      tag_46\n      jump\t// in\n    tag_45:\n      mload(0x40)\n      dup1\n      swap2\n      sub\n      swap1\n      return\n        /* \"contracts/GameRoom.sol\":1603:2402  function joinGame() external payable {... */\n    tag_8:\n      tag_47\n      tag_48\n      jump\t// in\n    tag_47:\n      stop\n        /* \"contracts/GameRoom.sol\":565:596  uint256 public immutable gameId */\n    tag_9:\n      callvalue\n      dup1\n      iszero\n      tag_49\n      jumpi\n      0x00\n      dup1\n      revert\n    tag_49:\n      pop\n      tag_50\n      tag_51\n      jump\t// in\n    tag_50:\n      mload(0x40)\n      tag_52\n      swap2\n      swap1\n      tag_53\n      jump\t// in\n    tag_52:\n      mload(0x40)\n      dup1\n      swap2\n      sub\n      swap1\n      return\n        /* \"contracts/GameRoom.sol\":716:745  address public immutable host */\n    tag_10:\n      callvalue\n      dup1\n      iszero\n      tag_54\n      jumpi\n      0x00\n      dup1\n      revert\n    tag_54:\n      pop\n      tag_55\n      tag_56\n      jump\t// in\n    tag_55:\n      mload(0x40)\n      tag_57\n      swap2\n      swap1\n      tag_58\n      jump\t// in\n    tag_57:\n      mload(0x40)\n      dup1\n      swap2\n      sub\n      swap1\n      return\n        /* \"contracts/GameRoom.sol\":754:778  address[] public players */\n    tag_11:\n      callvalue\n      dup1\n      iszero\n      tag_59\n      jumpi\n      0x00\n      dup1\n      revert\n    tag_59:\n      pop\n      tag_60\n      0x04\n      dup1\n      calldatasize\n      sub\n      dup2\n      add\n      swap1\n      tag_61\n      swap2\n      swap1\n      tag_62\n      jump\t// in\n    tag_61:\n      tag_63\n      jump\t// in\n    tag_60:\n      mload(0x40)\n      tag_64\n      swap2\n      swap1\n      tag_58\n      jump\t// in\n    tag_64:\n      mload(0x40)\n      dup1\n      swap2\n      sub\n      swap1\n      return\n        /* \"contracts/GameRoom.sol\":836:869  uint256 public currentPlayerIndex */\n    tag_12:\n      callvalue\n      dup1\n      iszero\n      tag_65\n      jumpi\n      0x00\n      dup1\n      revert\n    tag_65:\n      pop\n      tag_66\n      tag_67\n      jump\t// in\n    tag_66:\n      mload(0x40)\n      tag_68\n      swap2\n      swap1\n      tag_53\n      jump\t// in\n    tag_68:\n      mload(0x40)\n      dup1\n      swap2\n      sub\n      swap1\n      return\n        /* \"contracts/GameRoom.sol\":603:645  StakingVault public immutable stakingVault */\n    tag_16:\n      immutable(\"0x6bcaf047ba4c8ac400fca43393035242dd1aabda2d6068a0c51242b97224de8d\")\n      dup2\n      jump\t// out\n        /* \"contracts/GameRoom.sol\":785:829  mapping(address => Player) public playerData */\n    tag_23:\n      mstore(0x20, 0x11)\n      dup1\n      0x00\n      mstore\n      keccak256(0x00, 0x40)\n      0x00\n      swap2\n      pop\n      swap1\n      pop\n      dup1\n      0x00\n      add\n      0x00\n      swap1\n      sload\n      swap1\n      0x0100\n      exp\n      swap1\n      div\n      0xffffffffffffffffffffffffffffffffffffffff\n      and\n      swap1\n      dup1\n      0x01\n      add\n      sload\n      swap1\n      dup1\n      0x02\n      add\n      0x00\n      swap1\n      sload\n      swap1\n      0x0100\n      exp\n      swap1\n      div\n      0xff\n      and\n      swap1\n      dup1\n      0x02\n      add\n      0x01\n      swap1\n      sload\n      swap1\n      0x0100\n      exp\n      swap1\n      div\n      0xff\n      and\n      swap1\n      dup1\n      0x0d\n      add\n      sload\n      swap1\n      pop\n      dup6\n      jump\t// out\n        /* \"contracts/GameRoom.sol\":652:676  GameConfig public config */\n    tag_28:\n      0x00\n      dup1\n      0x00\n      add\n      sload\n      swap1\n      dup1\n      0x01\n      add\n      sload\n      swap1\n      dup1\n      0x02\n      add\n      sload\n      swap1\n      dup1\n      0x03\n      add\n      sload\n      swap1\n      dup1\n      0x04\n      add\n      sload\n      swap1\n      pop\n      dup6\n      jump\t// out\n        /* \"contracts/GameRoom.sol\":7040:7204  function getPlayerCards(address p) external view returns (uint256[10] memory, uint256) {... */\n    tag_34:\n        /* \"contracts/GameRoom.sol\":7098:7116  uint256[10] memory */\n      tag_69\n      tag_70\n      jump\t// in\n    tag_69:\n        /* \"contracts/GameRoom.sol\":7118:7125  uint256 */\n      0x00\n        /* \"contracts/GameRoom.sol\":7146:7156  playerData */\n      0x11\n        /* \"contracts/GameRoom.sol\":7146:7159  playerData[p] */\n      0x00\n        /* \"contracts/GameRoom.sol\":7157:7158  p */\n      dup5\n        /* \"contracts/GameRoom.sol\":7146:7159  playerData[p] */\n      0xffffffffffffffffffffffffffffffffffffffff\n      and\n      0xffffffffffffffffffffffffffffffffffffffff\n      and\n      dup2\n      mstore\n      0x20\n      add\n      swap1\n      dup2\n      mstore\n      0x20\n      add\n      0x00\n      keccak256\n        /* \"contracts/GameRoom.sol\":7146:7169  playerData[p].handCards */\n      0x03\n      add\n        /* \"contracts/GameRoom.sol\":7171:7181  playerData */\n      0x11\n        /* \"contracts/GameRoom.sol\":7171:7184  playerData[p] */\n      0x00\n        /* \"contracts/GameRoom.sol\":7182:7183  p */\n      dup6\n        /* \"contracts/GameRoom.sol\":7171:7184  playerData[p] */\n      0xffffffffffffffffffffffffffffffffffffffff\n      and\n      0xffffffffffffffffffffffffffffffffffffffff\n      and\n      dup2\n      mstore\n      0x20\n      add\n      swap1\n      dup2\n      mstore\n      0x20\n      add\n      0x00\n      keccak256\n        /* \"contracts/GameRoom.sol\":7171:7195  playerData[p].jokerCount */\n      0x0d\n      add\n      sload\n        /* \"contracts/GameRoom.sol\":7138:7196  return (playerData[p].handCards, playerData[p].jokerCount) */\n      dup2\n      0x0a\n      dup1\n      0x20\n      mul\n      mload(0x40)\n      swap1\n      dup2\n      add\n      0x40\n      mstore\n      dup1\n      swap3\n      swap2\n      swap1\n      dup3\n      0x0a\n      dup1\n      iszero\n      tag_72\n      jumpi\n      0x20\n      mul\n      dup3\n      add\n      swap2\n    tag_73:\n      dup2\n      sload\n      dup2\n      mstore\n      0x20\n      add\n      swap1\n      0x01\n      add\n      swap1\n      dup1\n      dup4\n      gt\n      tag_73\n      jumpi\n    tag_72:\n      pop\n      pop\n      pop\n      pop\n      pop\n      swap2\n      pop\n      swap2\n      pop\n      swap2\n      pop\n        /* \"contracts/GameRoom.sol\":7040:7204  function getPlayerCards(address p) external view returns (uint256[10] memory, uint256) {... */\n      swap2\n      pop\n      swap2\n      jump\t// out\n        /* \"contracts/GameRoom.sol\":4044:5238  function takeCard(address target, uint8 cardNumber) external {... */\n    tag_41:\n        /* \"contracts/GameRoom.sol\":4137:4154  GameState.PLAYING */\n      0x01\n        /* \"contracts/GameRoom.sol\":4124:4154  gameState == GameState.PLAYING */\n      0x02\n      dup2\n      gt\n      iszero\n      tag_75\n      jumpi\n      tag_76\n      tag_77\n      jump\t// in\n    tag_76:\n    tag_75:\n        /* \"contracts/GameRoom.sol\":4124:4133  gameState */\n      0x0f\n      0x00\n      swap1\n      sload\n      swap1\n      0x0100\n      exp\n      swap1\n      div\n      0xff\n      and\n        /* \"contracts/GameRoom.sol\":4124:4154  gameState == GameState.PLAYING */\n      0x02\n      dup2\n      gt\n      iszero\n      tag_78\n      jumpi\n      tag_79\n      tag_77\n      jump\t// in\n    tag_79:\n    tag_78:\n      eq\n        /* \"contracts/GameRoom.sol\":4116:4167  require(gameState == GameState.PLAYING, \"!playing\") */\n      tag_80\n      jumpi\n      mload(0x40)\n      0x08c379a000000000000000000000000000000000000000000000000000000000\n      dup2\n      mstore\n      0x04\n      add\n      tag_81\n      swap1\n      tag_82\n      jump\t// in\n    tag_81:\n      mload(0x40)\n      dup1\n      swap2\n      sub\n      swap1\n      revert\n    tag_80:\n        /* \"contracts/GameRoom.sol\":4217:4227  msg.sender */\n      caller\n        /* \"contracts/GameRoom.sol\":4186:4227  players[currentPlayerIndex] == msg.sender */\n      0xffffffffffffffffffffffffffffffffffffffff\n      and\n        /* \"contracts/GameRoom.sol\":4186:4193  players */\n      0x10\n        /* \"contracts/GameRoom.sol\":4194:4212  currentPlayerIndex */\n      sload(0x12)\n        /* \"contracts/GameRoom.sol\":4186:4213  players[currentPlayerIndex] */\n      dup2\n      sload\n      dup2\n      lt\n      tag_83\n      jumpi\n      tag_84\n      tag_85\n      jump\t// in\n    tag_84:\n    tag_83:\n      swap1\n      0x00\n      mstore\n      keccak256(0x00, 0x20)\n      add\n      0x00\n      swap1\n      sload\n      swap1\n      0x0100\n      exp\n      swap1\n      div\n      0xffffffffffffffffffffffffffffffffffffffff\n      and\n        /* \"contracts/GameRoom.sol\":4186:4227  players[currentPlayerIndex] == msg.sender */\n      0xffffffffffffffffffffffffffffffffffffffff\n      and\n      eq\n        /* \"contracts/GameRoom.sol\":4178:4237  require(players[currentPlayerIndex] == msg.sender, \"!turn\") */\n      tag_87\n      jumpi\n      mload(0x40)\n      0x08c379a000000000000000000000000000000000000000000000000000000000\n      dup2\n      mstore\n      0x04\n      add\n      tag_88\n      swap1\n      tag_89\n      jump\t// in\n    tag_88:\n      mload(0x40)\n      dup1\n      swap2\n      sub\n      swap1\n      revert\n    tag_87:\n        /* \"contracts/GameRoom.sol\":4257:4267  playerData */\n      0x11\n        /* \"contracts/GameRoom.sol\":4257:4279  playerData[msg.sender] */\n      0x00\n        /* \"contracts/GameRoom.sol\":4268:4278  msg.sender */\n      caller\n        /* \"contracts/GameRoom.sol\":4257:4279  playerData[msg.sender] */\n      0xffffffffffffffffffffffffffffffffffffffff\n      and\n      0xffffffffffffffffffffffffffffffffffffffff\n      and\n      dup2\n      mstore\n      0x20\n      add\n      swap1\n      dup2\n      mstore\n      0x20\n      add\n      0x00\n      keccak256\n        /* \"contracts/GameRoom.sol\":4257:4285  playerData[msg.sender].isOut */\n      0x02\n      add\n      0x01\n      swap1\n      sload\n      swap1\n      0x0100\n      exp\n      swap1\n      div\n      0xff\n      and\n        /* \"contracts/GameRoom.sol\":4256:4285  !playerData[msg.sender].isOut */\n      iszero\n        /* \"contracts/GameRoom.sol\":4248:4293  require(!playerData[msg.sender].isOut, \"out\") */\n      tag_90\n      jumpi\n      mload(0x40)\n      0x08c379a000000000000000000000000000000000000000000000000000000000\n      dup2\n      mstore\n      0x04\n      add\n      tag_91\n      swap1\n      tag_92\n      jump\t// in\n    tag_91:\n      mload(0x40)\n      dup1\n      swap2\n      sub\n      swap1\n      revert\n    tag_90:\n        /* \"contracts/GameRoom.sol\":4330:4331  0 */\n      0x00\n        /* \"contracts/GameRoom.sol\":4312:4332  target != address(0) */\n      0xffffffffffffffffffffffffffffffffffffffff\n      and\n        /* \"contracts/GameRoom.sol\":4312:4318  target */\n      dup3\n        /* \"contracts/GameRoom.sol\":4312:4332  target != address(0) */\n      0xffffffffffffffffffffffffffffffffffffffff\n      and\n      sub\n        /* \"contracts/GameRoom.sol\":4304:4344  require(target != address(0), \"!target\") */\n      tag_93\n      jumpi\n      mload(0x40)\n      0x08c379a000000000000000000000000000000000000000000000000000000000\n      dup2\n      mstore\n      0x04\n      add\n      tag_94\n      swap1\n      tag_95\n      jump\t// in\n    tag_94:\n      mload(0x40)\n      dup1\n      swap2\n      sub\n      swap1\n      revert\n    tag_93:\n        /* \"contracts/GameRoom.sol\":4375:4376  0 */\n      0x00\n        /* \"contracts/GameRoom.sol\":4361:4371  cardNumber */\n      dup2\n        /* \"contracts/GameRoom.sol\":4361:4376  cardNumber == 0 */\n      0xff\n      and\n      sub\n        /* \"contracts/GameRoom.sol\":4357:5023  if (cardNumber == 0) {... */\n      tag_96\n      jumpi\n        /* \"contracts/GameRoom.sol\":4433:4434  0 */\n      0x00\n        /* \"contracts/GameRoom.sol\":4401:4411  playerData */\n      0x11\n        /* \"contracts/GameRoom.sol\":4401:4419  playerData[target] */\n      0x00\n        /* \"contracts/GameRoom.sol\":4412:4418  target */\n      dup5\n        /* \"contracts/GameRoom.sol\":4401:4419  playerData[target] */\n      0xffffffffffffffffffffffffffffffffffffffff\n      and\n      0xffffffffffffffffffffffffffffffffffffffff\n      and\n      dup2\n      mstore\n      0x20\n      add\n      swap1\n      dup2\n      mstore\n      0x20\n      add\n      0x00\n      keccak256\n        /* \"contracts/GameRoom.sol\":4401:4430  playerData[target].jokerCount */\n      0x0d\n      add\n      sload\n        /* \"contracts/GameRoom.sol\":4401:4434  playerData[target].jokerCount > 0 */\n      gt\n        /* \"contracts/GameRoom.sol\":4393:4447  require(playerData[target].jokerCount > 0, \"no joker\") */\n      tag_97\n      jumpi\n      mload(0x40)\n      0x08c379a000000000000000000000000000000000000000000000000000000000\n      dup2\n      mstore\n      0x04\n      add\n      tag_98\n      swap1\n      tag_99\n      jump\t// in\n    tag_98:\n      mload(0x40)\n      dup1\n      swap2\n      sub\n      swap1\n      revert\n    tag_97:\n        /* \"contracts/GameRoom.sol\":4462:4472  playerData */\n      0x11\n        /* \"contracts/GameRoom.sol\":4462:4480  playerData[target] */\n      0x00\n        /* \"contracts/GameRoom.sol\":4473:4479  target */\n      dup4\n        /* \"contracts/GameRoom.sol\":4462:4480  playerData[target] */\n      0xffffffffffffffffffffffffffffffffffffffff\n      and\n      0xffffffffffffffffffffffffffffffffffffffff\n      and\n      dup2\n      mstore\n      0x20\n      add\n      swap1\n      dup2\n      mstore\n      0x20\n      add\n      0x00\n      keccak256\n        /* \"contracts/GameRoom.sol\":4462:4491  playerData[target].jokerCount */\n      0x0d\n      add\n      0x00\n        /* \"contracts/GameRoom.sol\":4462:4493  playerData[target].jokerCount-- */\n      dup2\n      sload\n      dup1\n      swap3\n      swap2\n      swap1\n      tag_100\n      swap1\n      tag_101\n      jump\t// in\n    tag_100:\n      swap2\n      swap1\n      pop\n      sstore\n      pop\n        /* \"contracts/GameRoom.sol\":4508:4518  playerData */\n      0x11\n        /* \"contracts/GameRoom.sol\":4508:4530  playerData[msg.sender] */\n      0x00\n        /* \"contracts/GameRoom.sol\":4519:4529  msg.sender */\n      caller\n        /* \"contracts/GameRoom.sol\":4508:4530  playerData[msg.sender] */\n      0xffffffffffffffffffffffffffffffffffffffff\n      and\n      0xffffffffffffffffffffffffffffffffffffffff\n      and\n      dup2\n      mstore\n      0x20\n      add\n      swap1\n      dup2\n      mstore\n      0x20\n      add\n      0x00\n      keccak256\n        /* \"contracts/GameRoom.sol\":4508:4541  playerData[msg.sender].jokerCount */\n      0x0d\n      add\n      0x00\n        /* \"contracts/GameRoom.sol\":4508:4543  playerData[msg.sender].jokerCount++ */\n      dup2\n      sload\n      dup1\n      swap3\n      swap2\n      swap1\n      tag_102\n      swap1\n      tag_103\n      jump\t// in\n    tag_102:\n      swap2\n      swap1\n      pop\n      sstore\n      pop\n        /* \"contracts/GameRoom.sol\":4581:4591  msg.sender */\n      caller\n        /* \"contracts/GameRoom.sol\":4563:4595  CardTaken(target, msg.sender, 0) */\n      0xffffffffffffffffffffffffffffffffffffffff\n      and\n        /* \"contracts/GameRoom.sol\":4573:4579  target */\n      dup3\n        /* \"contracts/GameRoom.sol\":4563:4595  CardTaken(target, msg.sender, 0) */\n      0xffffffffffffffffffffffffffffffffffffffff\n      and\n      0x345ab5394e10f7b605071092c87ea512b2b9f3a616f8c85b996c2aa8a418c69c\n        /* \"contracts/GameRoom.sol\":4593:4594  0 */\n      0x00\n        /* \"contracts/GameRoom.sol\":4563:4595  CardTaken(target, msg.sender, 0) */\n      mload(0x40)\n      tag_104\n      swap2\n      swap1\n      tag_105\n      jump\t// in\n    tag_104:\n      mload(0x40)\n      dup1\n      swap2\n      sub\n      swap1\n      log3\n        /* \"contracts/GameRoom.sol\":4357:5023  if (cardNumber == 0) {... */\n      jump(tag_106)\n    tag_96:\n        /* \"contracts/GameRoom.sol\":4650:4651  1 */\n      0x01\n        /* \"contracts/GameRoom.sol\":4636:4646  cardNumber */\n      dup2\n        /* \"contracts/GameRoom.sol\":4636:4651  cardNumber >= 1 */\n      0xff\n      and\n      lt\n      iszero\n        /* \"contracts/GameRoom.sol\":4636:4671  cardNumber >= 1 && cardNumber <= 10 */\n      dup1\n      iszero\n      tag_107\n      jumpi\n      pop\n        /* \"contracts/GameRoom.sol\":4669:4671  10 */\n      0x0a\n        /* \"contracts/GameRoom.sol\":4655:4665  cardNumber */\n      dup2\n        /* \"contracts/GameRoom.sol\":4655:4671  cardNumber <= 10 */\n      0xff\n      and\n      gt\n      iszero\n        /* \"contracts/GameRoom.sol\":4636:4671  cardNumber >= 1 && cardNumber <= 10 */\n    tag_107:\n        /* \"contracts/GameRoom.sol\":4628:4685  require(cardNumber >= 1 && cardNumber <= 10, \"card 1-10\") */\n      tag_108\n      jumpi\n      mload(0x40)\n      0x08c379a000000000000000000000000000000000000000000000000000000000\n      dup2\n      mstore\n      0x04\n      add\n      tag_109\n      swap1\n      tag_110\n      jump\t// in\n    tag_109:\n      mload(0x40)\n      dup1\n      swap2\n      sub\n      swap1\n      revert\n    tag_108:\n        /* \"contracts/GameRoom.sol\":4700:4709  uint8 idx */\n      0x00\n        /* \"contracts/GameRoom.sol\":4725:4726  1 */\n      0x01\n        /* \"contracts/GameRoom.sol\":4712:4722  cardNumber */\n      dup3\n        /* \"contracts/GameRoom.sol\":4712:4726  cardNumber - 1 */\n      tag_111\n      swap2\n      swap1\n      tag_112\n      jump\t// in\n    tag_111:\n        /* \"contracts/GameRoom.sol\":4700:4726  uint8 idx = cardNumber - 1 */\n      swap1\n      pop\n        /* \"contracts/GameRoom.sol\":4785:4786  0 */\n      0x00\n        /* \"contracts/GameRoom.sol\":4749:4759  playerData */\n      0x11\n        /* \"contracts/GameRoom.sol\":4749:4767  playerData[target] */\n      0x00\n        /* \"contracts/GameRoom.sol\":4760:4766  target */\n      dup6\n        /* \"contracts/GameRoom.sol\":4749:4767  playerData[target] */\n      0xffffffffffffffffffffffffffffffffffffffff\n      and\n      0xffffffffffffffffffffffffffffffffffffffff\n      and\n      dup2\n      mstore\n      0x20\n      add\n      swap1\n      dup2\n      mstore\n      0x20\n      add\n      0x00\n      keccak256\n        /* \"contracts/GameRoom.sol\":4749:4777  playerData[target].handCards */\n      0x03\n      add\n        /* \"contracts/GameRoom.sol\":4778:4781  idx */\n      dup3\n        /* \"contracts/GameRoom.sol\":4749:4782  playerData[target].handCards[idx] */\n      0xff\n      and\n      0x0a\n      dup2\n      lt\n      tag_113\n      jumpi\n      tag_114\n      tag_85\n      jump\t// in\n    tag_114:\n    tag_113:\n      add\n      sload\n        /* \"contracts/GameRoom.sol\":4749:4786  playerData[target].handCards[idx] > 0 */\n      gt\n        /* \"contracts/GameRoom.sol\":4741:4798  require(playerData[target].handCards[idx] > 0, \"no card\") */\n      tag_116\n      jumpi\n      mload(0x40)\n      0x08c379a000000000000000000000000000000000000000000000000000000000\n      dup2\n      mstore\n      0x04\n      add\n      tag_117\n      swap1\n      tag_118\n      jump\t// in\n    tag_117:\n      mload(0x40)\n      dup1\n      swap2\n      sub\n      swap1\n      revert\n    tag_116:\n        /* \"contracts/GameRoom.sol\":4815:4825  playerData */\n      0x11\n        /* \"contracts/GameRoom.sol\":4815:4833  playerData[target] */\n      0x00\n        /* \"contracts/GameRoom.sol\":4826:4832  target */\n      dup5\n        /* \"contracts/GameRoom.sol\":4815:4833  playerData[target] */\n      0xffffffffffffffffffffffffffffffffffffffff\n      and\n      0xffffffffffffffffffffffffffffffffffffffff\n      and\n      dup2\n      mstore\n      0x20\n      add\n      swap1\n      dup2\n      mstore\n      0x20\n      add\n      0x00\n      keccak256\n        /* \"contracts/GameRoom.sol\":4815:4843  playerData[target].handCards */\n      0x03\n      add\n        /* \"contracts/GameRoom.sol\":4844:4847  idx */\n      dup2\n        /* \"contracts/GameRoom.sol\":4815:4848  playerData[target].handCards[idx] */\n      0xff\n      and\n      0x0a\n      dup2\n      lt\n      tag_119\n      jumpi\n      tag_120\n      tag_85\n      jump\t// in\n    tag_120:\n    tag_119:\n      add\n      0x00\n        /* \"contracts/GameRoom.sol\":4815:4850  playerData[target].handCards[idx]-- */\n      dup2\n      sload\n      dup1\n      swap3\n      swap2\n      swap1\n      tag_122\n      swap1\n      tag_101\n      jump\t// in\n    tag_122:\n      swap2\n      swap1\n      pop\n      sstore\n      pop\n        /* \"contracts/GameRoom.sol\":4865:4875  playerData */\n      0x11\n        /* \"contracts/GameRoom.sol\":4865:4887  playerData[msg.sender] */\n      0x00\n        /* \"contracts/GameRoom.sol\":4876:4886  msg.sender */\n      caller\n        /* \"contracts/GameRoom.sol\":4865:4887  playerData[msg.sender] */\n      0xffffffffffffffffffffffffffffffffffffffff\n      and\n      0xffffffffffffffffffffffffffffffffffffffff\n      and\n      dup2\n      mstore\n      0x20\n      add\n      swap1\n      dup2\n      mstore\n      0x20\n      add\n      0x00\n      keccak256\n        /* \"contracts/GameRoom.sol\":4865:4897  playerData[msg.sender].handCards */\n      0x03\n      add\n        /* \"contracts/GameRoom.sol\":4898:4901  idx */\n      dup2\n        /* \"contracts/GameRoom.sol\":4865:4902  playerData[msg.sender].handCards[idx] */\n      0xff\n      and\n      0x0a\n      dup2\n      lt\n      tag_123\n      jumpi\n      tag_124\n      tag_85\n      jump\t// in\n    tag_124:\n    tag_123:\n      add\n      0x00\n        /* \"contracts/GameRoom.sol\":4865:4904  playerData[msg.sender].handCards[idx]++ */\n      dup2\n      sload\n      dup1\n      swap3\n      swap2\n      swap1\n      tag_126\n      swap1\n      tag_103\n      jump\t// in\n    tag_126:\n      swap2\n      swap1\n      pop\n      sstore\n      pop\n        /* \"contracts/GameRoom.sol\":4919:4950  _autoEliminate(msg.sender, idx) */\n      tag_127\n        /* \"contracts/GameRoom.sol\":4934:4944  msg.sender */\n      caller\n        /* \"contracts/GameRoom.sol\":4946:4949  idx */\n      dup3\n        /* \"contracts/GameRoom.sol\":4919:4933  _autoEliminate */\n      tag_128\n        /* \"contracts/GameRoom.sol\":4919:4950  _autoEliminate(msg.sender, idx) */\n      jump\t// in\n    tag_127:\n        /* \"contracts/GameRoom.sol\":4988:4998  msg.sender */\n      caller\n        /* \"contracts/GameRoom.sol\":4970:5011  CardTaken(target, msg.sender, cardNumber) */\n      0xffffffffffffffffffffffffffffffffffffffff\n      and\n        /* \"contracts/GameRoom.sol\":4980:4986  target */\n      dup4\n        /* \"contracts/GameRoom.sol\":4970:5011  CardTaken(target, msg.sender, cardNumber) */\n      0xffffffffffffffffffffffffffffffffffffffff\n      and\n      0x345ab5394e10f7b605071092c87ea512b2b9f3a616f8c85b996c2aa8a418c69c\n        /* \"contracts/GameRoom.sol\":5000:5010  cardNumber */\n      dup5\n        /* \"contracts/GameRoom.sol\":4970:5011  CardTaken(target, msg.sender, cardNumber) */\n      mload(0x40)\n      tag_129\n      swap2\n      swap1\n      tag_130\n      jump\t// in\n    tag_129:\n      mload(0x40)\n      dup1\n      swap2\n      sub\n      swap1\n      log3\n        /* \"contracts/GameRoom.sol\":4613:5023  {... */\n      pop\n        /* \"contracts/GameRoom.sol\":4357:5023  if (cardNumber == 0) {... */\n    tag_106:\n        /* \"contracts/GameRoom.sol\":5039:5062  _isAllClear(msg.sender) */\n      tag_131\n        /* \"contracts/GameRoom.sol\":5051:5061  msg.sender */\n      caller\n        /* \"contracts/GameRoom.sol\":5039:5050  _isAllClear */\n      tag_132\n        /* \"contracts/GameRoom.sol\":5039:5062  _isAllClear(msg.sender) */\n      jump\t// in\n    tag_131:\n        /* \"contracts/GameRoom.sol\":5035:5167  if (_isAllClear(msg.sender)) {... */\n      iszero\n      tag_133\n      jumpi\n        /* \"contracts/GameRoom.sol\":5110:5114  true */\n      0x01\n        /* \"contracts/GameRoom.sol\":5079:5089  playerData */\n      0x11\n        /* \"contracts/GameRoom.sol\":5079:5101  playerData[msg.sender] */\n      0x00\n        /* \"contracts/GameRoom.sol\":5090:5100  msg.sender */\n      caller\n        /* \"contracts/GameRoom.sol\":5079:5101  playerData[msg.sender] */\n      0xffffffffffffffffffffffffffffffffffffffff\n      and\n      0xffffffffffffffffffffffffffffffffffffffff\n      and\n      dup2\n      mstore\n      0x20\n      add\n      swap1\n      dup2\n      mstore\n      0x20\n      add\n      0x00\n      keccak256\n        /* \"contracts/GameRoom.sol\":5079:5107  playerData[msg.sender].isOut */\n      0x02\n      add\n      0x01\n        /* \"contracts/GameRoom.sol\":5079:5114  playerData[msg.sender].isOut = true */\n      0x0100\n      exp\n      dup2\n      sload\n      dup2\n      0xff\n      mul\n      not\n      and\n      swap1\n      dup4\n      iszero\n      iszero\n      mul\n      or\n      swap1\n      sstore\n      pop\n        /* \"contracts/GameRoom.sol\":5144:5154  msg.sender */\n      caller\n        /* \"contracts/GameRoom.sol\":5134:5155  PlayerOut(msg.sender) */\n      0xffffffffffffffffffffffffffffffffffffffff\n      and\n      0xe6dd6074e48f46e9dd6d19c1a3fc9866c5663e7b916849845c35059410b37b28\n      mload(0x40)\n      mload(0x40)\n      dup1\n      swap2\n      sub\n      swap1\n      log2\n        /* \"contracts/GameRoom.sol\":5035:5167  if (_isAllClear(msg.sender)) {... */\n    tag_133:\n        /* \"contracts/GameRoom.sol\":5179:5190  _nextTurn() */\n      tag_134\n        /* \"contracts/GameRoom.sol\":5179:5188  _nextTurn */\n      tag_135\n        /* \"contracts/GameRoom.sol\":5179:5190  _nextTurn() */\n      jump\t// in\n    tag_134:\n        /* \"contracts/GameRoom.sol\":5205:5218  _isGameOver() */\n      tag_136\n        /* \"contracts/GameRoom.sol\":5205:5216  _isGameOver */\n      tag_137\n        /* \"contracts/GameRoom.sol\":5205:5218  _isGameOver() */\n      jump\t// in\n    tag_136:\n        /* \"contracts/GameRoom.sol\":5201:5230  if (_isGameOver()) _endGame() */\n      iszero\n      tag_138\n      jumpi\n        /* \"contracts/GameRoom.sol\":5220:5230  _endGame() */\n      tag_139\n        /* \"contracts/GameRoom.sol\":5220:5228  _endGame */\n      tag_140\n        /* \"contracts/GameRoom.sol\":5220:5230  _endGame() */\n      jump\t// in\n    tag_139:\n        /* \"contracts/GameRoom.sol\":5201:5230  if (_isGameOver()) _endGame() */\n    tag_138:\n        /* \"contracts/GameRoom.sol\":4044:5238  function takeCard(address target, uint8 cardNumber) external {... */\n      pop\n      pop\n      jump\t// out\n        /* \"contracts/GameRoom.sol\":683:709  GameState public gameState */\n    tag_44:\n      0x0f\n      0x00\n      swap1\n      sload\n      swap1\n      0x0100\n      exp\n      swap1\n      div\n      0xff\n      and\n      dup2\n      jump\t// out\n        /* \"contracts/GameRoom.sol\":1603:2402  function joinGame() external payable {... */\n    tag_48:\n        /* \"contracts/GameRoom.sol\":1672:1689  GameState.PENDING */\n      0x00\n        /* \"contracts/GameRoom.sol\":1659:1689  gameState == GameState.PENDING */\n      0x02\n      dup2\n      gt\n      iszero\n      tag_142\n      jumpi\n      tag_143\n      tag_77\n      jump\t// in\n    tag_143:\n    tag_142:\n        /* \"contracts/GameRoom.sol\":1659:1668  gameState */\n      0x0f\n      0x00\n      swap1\n      sload\n      swap1\n      0x0100\n      exp\n      swap1\n      div\n      0xff\n      and\n        /* \"contracts/GameRoom.sol\":1659:1689  gameState == GameState.PENDING */\n      0x02\n      dup2\n      gt\n      iszero\n      tag_144\n      jumpi\n      tag_145\n      tag_77\n      jump\t// in\n    tag_145:\n    tag_144:\n      eq\n        /* \"contracts/GameRoom.sol\":1651:1702  require(gameState == GameState.PENDING, \"!pending\") */\n      tag_146\n      jumpi\n      mload(0x40)\n      0x08c379a000000000000000000000000000000000000000000000000000000000\n      dup2\n      mstore\n      0x04\n      add\n      tag_147\n      swap1\n      tag_148\n      jump\t// in\n    tag_147:\n      mload(0x40)\n      dup1\n      swap2\n      sub\n      swap1\n      revert\n    tag_146:\n        /* \"contracts/GameRoom.sol\":1722:1732  playerData */\n      0x11\n        /* \"contracts/GameRoom.sol\":1722:1744  playerData[msg.sender] */\n      0x00\n        /* \"contracts/GameRoom.sol\":1733:1743  msg.sender */\n      caller\n        /* \"contracts/GameRoom.sol\":1722:1744  playerData[msg.sender] */\n      0xffffffffffffffffffffffffffffffffffffffff\n      and\n      0xffffffffffffffffffffffffffffffffffffffff\n      and\n      dup2\n      mstore\n      0x20\n      add\n      swap1\n      dup2\n      mstore\n      0x20\n      add\n      0x00\n      keccak256\n        /* \"contracts/GameRoom.sol\":1722:1753  playerData[msg.sender].isActive */\n      0x02\n      add\n      0x00\n      swap1\n      sload\n      swap1\n      0x0100\n      exp\n      swap1\n      div\n      0xff\n      and\n        /* \"contracts/GameRoom.sol\":1721:1753  !playerData[msg.sender].isActive */\n      iszero\n        /* \"contracts/GameRoom.sol\":1713:1764  require(!playerData[msg.sender].isActive, \"joined\") */\n      tag_149\n      jumpi\n      mload(0x40)\n      0x08c379a000000000000000000000000000000000000000000000000000000000\n      dup2\n      mstore\n      0x04\n      add\n      tag_150\n      swap1\n      tag_151\n      jump\t// in\n    tag_150:\n      mload(0x40)\n      dup1\n      swap2\n      sub\n      swap1\n      revert\n    tag_149:\n        /* \"contracts/GameRoom.sol\":1800:1806  config */\n      0x00\n        /* \"contracts/GameRoom.sol\":1800:1817  config.maxPlayers */\n      0x01\n      add\n      sload\n        /* \"contracts/GameRoom.sol\":1783:1790  players */\n      0x10\n        /* \"contracts/GameRoom.sol\":1783:1797  players.length */\n      dup1\n      sload\n      swap1\n      pop\n        /* \"contracts/GameRoom.sol\":1783:1817  players.length < config.maxPlayers */\n      lt\n        /* \"contracts/GameRoom.sol\":1775:1826  require(players.length < config.maxPlayers, \"full\") */\n      tag_152\n      jumpi\n      mload(0x40)\n      0x08c379a000000000000000000000000000000000000000000000000000000000\n      dup2\n      mstore\n      0x04\n      add\n      tag_153\n      swap1\n      tag_154\n      jump\t// in\n    tag_153:\n      mload(0x40)\n      dup1\n      swap2\n      sub\n      swap1\n      revert\n    tag_152:\n        /* \"contracts/GameRoom.sol\":1839:1850  uint256 val */\n      0x00\n        /* \"contracts/GameRoom.sol\":1853:1862  msg.value */\n      callvalue\n        /* \"contracts/GameRoom.sol\":1839:1862  uint256 val = msg.value */\n      swap1\n      pop\n        /* \"contracts/GameRoom.sol\":1896:1897  0 */\n      0x00\n        /* \"contracts/GameRoom.sol\":1877:1883  config */\n      dup1\n        /* \"contracts/GameRoom.sol\":1877:1892  config.maxStake */\n      0x03\n      add\n      sload\n        /* \"contracts/GameRoom.sol\":1877:1897  config.maxStake == 0 */\n      sub\n        /* \"contracts/GameRoom.sol\":1873:2071  if (config.maxStake == 0) {... */\n      tag_155\n      jumpi\n        /* \"contracts/GameRoom.sol\":1929:1935  config */\n      0x00\n        /* \"contracts/GameRoom.sol\":1929:1944  config.minStake */\n      0x02\n      add\n      sload\n        /* \"contracts/GameRoom.sol\":1922:1925  val */\n      dup2\n        /* \"contracts/GameRoom.sol\":1922:1944  val == config.minStake */\n      eq\n        /* \"contracts/GameRoom.sol\":1914:1960  require(val == config.minStake, \"fixed stake\") */\n      tag_156\n      jumpi\n      mload(0x40)\n      0x08c379a000000000000000000000000000000000000000000000000000000000\n      dup2\n      mstore\n      0x04\n      add\n      tag_157\n      swap1\n      tag_158\n      jump\t// in\n    tag_157:\n      mload(0x40)\n      dup1\n      swap2\n      sub\n      swap1\n      revert\n    tag_156:\n        /* \"contracts/GameRoom.sol\":1873:2071  if (config.maxStake == 0) {... */\n      jump(tag_159)\n    tag_155:\n        /* \"contracts/GameRoom.sol\":2008:2014  config */\n      0x00\n        /* \"contracts/GameRoom.sol\":2008:2023  config.minStake */\n      0x02\n      add\n      sload\n        /* \"contracts/GameRoom.sol\":2001:2004  val */\n      dup2\n        /* \"contracts/GameRoom.sol\":2001:2023  val >= config.minStake */\n      lt\n      iszero\n        /* \"contracts/GameRoom.sol\":2001:2049  val >= config.minStake && val <= config.maxStake */\n      dup1\n      iszero\n      tag_160\n      jumpi\n      pop\n        /* \"contracts/GameRoom.sol\":2034:2040  config */\n      0x00\n        /* \"contracts/GameRoom.sol\":2034:2049  config.maxStake */\n      0x03\n      add\n      sload\n        /* \"contracts/GameRoom.sol\":2027:2030  val */\n      dup2\n        /* \"contracts/GameRoom.sol\":2027:2049  val <= config.maxStake */\n      gt\n      iszero\n        /* \"contracts/GameRoom.sol\":2001:2049  val >= config.minStake && val <= config.maxStake */\n    tag_160:\n        /* \"contracts/GameRoom.sol\":1993:2059  require(val >= config.minStake && val <= config.maxStake, \"range\") */\n      tag_161\n      jumpi\n      mload(0x40)\n      0x08c379a000000000000000000000000000000000000000000000000000000000\n      dup2\n      mstore\n      0x04\n      add\n      tag_162\n      swap1\n      tag_163\n      jump\t// in\n    tag_162:\n      mload(0x40)\n      dup1\n      swap2\n      sub\n      swap1\n      revert\n    tag_161:\n        /* \"contracts/GameRoom.sol\":1873:2071  if (config.maxStake == 0) {... */\n    tag_159:\n        /* \"contracts/GameRoom.sol\":2083:2099  Player storage p */\n      0x00\n        /* \"contracts/GameRoom.sol\":2102:2112  playerData */\n      0x11\n        /* \"contracts/GameRoom.sol\":2102:2124  playerData[msg.sender] */\n      0x00\n        /* \"contracts/GameRoom.sol\":2113:2123  msg.sender */\n      caller\n        /* \"contracts/GameRoom.sol\":2102:2124  playerData[msg.sender] */\n      0xffffffffffffffffffffffffffffffffffffffff\n      and\n      0xffffffffffffffffffffffffffffffffffffffff\n      and\n      dup2\n      mstore\n      0x20\n      add\n      swap1\n      dup2\n      mstore\n      0x20\n      add\n      0x00\n      keccak256\n        /* \"contracts/GameRoom.sol\":2083:2124  Player storage p = playerData[msg.sender] */\n      swap1\n      pop\n        /* \"contracts/GameRoom.sol\":2144:2154  msg.sender */\n      caller\n        /* \"contracts/GameRoom.sol\":2135:2136  p */\n      dup2\n        /* \"contracts/GameRoom.sol\":2135:2141  p.addr */\n      0x00\n      add\n      0x00\n        /* \"contracts/GameRoom.sol\":2135:2154  p.addr = msg.sender */\n      0x0100\n      exp\n      dup2\n      sload\n      dup2\n      0xffffffffffffffffffffffffffffffffffffffff\n      mul\n      not\n      and\n      swap1\n      dup4\n      0xffffffffffffffffffffffffffffffffffffffff\n      and\n      mul\n      or\n      swap1\n      sstore\n      pop\n        /* \"contracts/GameRoom.sol\":2181:2184  val */\n      dup2\n        /* \"contracts/GameRoom.sol\":2165:2166  p */\n      dup2\n        /* \"contracts/GameRoom.sol\":2165:2178  p.stakeAmount */\n      0x01\n      add\n        /* \"contracts/GameRoom.sol\":2165:2184  p.stakeAmount = val */\n      dup2\n      swap1\n      sstore\n      pop\n        /* \"contracts/GameRoom.sol\":2208:2212  true */\n      0x01\n        /* \"contracts/GameRoom.sol\":2195:2196  p */\n      dup2\n        /* \"contracts/GameRoom.sol\":2195:2205  p.isActive */\n      0x02\n      add\n      0x00\n        /* \"contracts/GameRoom.sol\":2195:2212  p.isActive = true */\n      0x0100\n      exp\n      dup2\n      sload\n      dup2\n      0xff\n      mul\n      not\n      and\n      swap1\n      dup4\n      iszero\n      iszero\n      mul\n      or\n      swap1\n      sstore\n      pop\n        /* \"contracts/GameRoom.sol\":2223:2230  players */\n      0x10\n        /* \"contracts/GameRoom.sol\":2236:2246  msg.sender */\n      caller\n        /* \"contracts/GameRoom.sol\":2223:2247  players.push(msg.sender) */\n      swap1\n      dup1\n      0x01\n      dup2\n      sload\n      add\n      dup1\n      dup3\n      sstore\n      dup1\n      swap2\n      pop\n      pop\n      0x01\n      swap1\n      sub\n      swap1\n      0x00\n      mstore\n      keccak256(0x00, 0x20)\n      add\n      0x00\n      swap1\n      swap2\n      swap1\n      swap2\n      swap1\n      swap2\n      0x0100\n      exp\n      dup2\n      sload\n      dup2\n      0xffffffffffffffffffffffffffffffffffffffff\n      mul\n      not\n      and\n      swap1\n      dup4\n      0xffffffffffffffffffffffffffffffffffffffff\n      and\n      mul\n      or\n      swap1\n      sstore\n      pop\n        /* \"contracts/GameRoom.sol\":2286:2296  msg.sender */\n      caller\n        /* \"contracts/GameRoom.sol\":2265:2302  PlayerJoined(gameId, msg.sender, val) */\n      0xffffffffffffffffffffffffffffffffffffffff\n      and\n        /* \"contracts/GameRoom.sol\":2278:2284  gameId */\n      immutable(\"0xd67d834462ca31eaef1f30157e31659f60355143b7441e6fc7d9eae1fa79f3f8\")\n        /* \"contracts/GameRoom.sol\":2265:2302  PlayerJoined(gameId, msg.sender, val) */\n      0x03dfbe1fcb4e2d61f3b4a0c93d8f814c92250618b3387f396cc9fc9fafe2c203\n        /* \"contracts/GameRoom.sol\":2298:2301  val */\n      dup5\n        /* \"contracts/GameRoom.sol\":2265:2302  PlayerJoined(gameId, msg.sender, val) */\n      mload(0x40)\n      tag_165\n      swap2\n      swap1\n      tag_53\n      jump\t// in\n    tag_165:\n      mload(0x40)\n      dup1\n      swap2\n      sub\n      swap1\n      log3\n        /* \"contracts/GameRoom.sol\":2337:2343  config */\n      0x00\n        /* \"contracts/GameRoom.sol\":2337:2354  config.maxPlayers */\n      0x01\n      add\n      sload\n        /* \"contracts/GameRoom.sol\":2319:2326  players */\n      0x10\n        /* \"contracts/GameRoom.sol\":2319:2333  players.length */\n      dup1\n      sload\n      swap1\n      pop\n        /* \"contracts/GameRoom.sol\":2319:2354  players.length == config.maxPlayers */\n      sub\n        /* \"contracts/GameRoom.sol\":2315:2395  if (players.length == config.maxPlayers) {... */\n      tag_166\n      jumpi\n        /* \"contracts/GameRoom.sol\":2371:2383  _startGame() */\n      tag_167\n        /* \"contracts/GameRoom.sol\":2371:2381  _startGame */\n      tag_168\n        /* \"contracts/GameRoom.sol\":2371:2383  _startGame() */\n      jump\t// in\n    tag_167:\n        /* \"contracts/GameRoom.sol\":2315:2395  if (players.length == config.maxPlayers) {... */\n    tag_166:\n        /* \"contracts/GameRoom.sol\":1640:2402  {... */\n      pop\n      pop\n        /* \"contracts/GameRoom.sol\":1603:2402  function joinGame() external payable {... */\n      jump\t// out\n        /* \"contracts/GameRoom.sol\":565:596  uint256 public immutable gameId */\n    tag_51:\n      immutable(\"0xd67d834462ca31eaef1f30157e31659f60355143b7441e6fc7d9eae1fa79f3f8\")\n      dup2\n      jump\t// out\n        /* \"contracts/GameRoom.sol\":716:745  address public immutable host */\n    tag_56:\n      immutable(\"0x59c0d2b7af0a8e6d3d8e710a078764bd67b7223777026c424cdb4f599824bb79\")\n      dup2\n      jump\t// out\n        /* \"contracts/GameRoom.sol\":754:778  address[] public players */\n    tag_63:\n      0x10\n      dup2\n      dup2\n      sload\n      dup2\n      lt\n      tag_169\n      jumpi\n      0x00\n      dup1\n      revert\n    tag_169:\n      swap1\n      0x00\n      mstore\n      keccak256(0x00, 0x20)\n      add\n      0x00\n      swap2\n      pop\n      sload\n      swap1\n      0x0100\n      exp\n      swap1\n      div\n      0xffffffffffffffffffffffffffffffffffffffff\n      and\n      dup2\n      jump\t// out\n        /* \"contracts/GameRoom.sol\":836:869  uint256 public currentPlayerIndex */\n    tag_67:\n      sload(0x12)\n      dup2\n      jump\t// out\n        /* \"contracts/GameRoom.sol\":5246:5437  function _autoEliminate(address player, uint8 idx) internal {... */\n    tag_128:\n        /* \"contracts/GameRoom.sol\":5317:5325  uint cnt */\n      0x00\n        /* \"contracts/GameRoom.sol\":5328:5338  playerData */\n      0x11\n        /* \"contracts/GameRoom.sol\":5328:5346  playerData[player] */\n      0x00\n        /* \"contracts/GameRoom.sol\":5339:5345  player */\n      dup5\n        /* \"contracts/GameRoom.sol\":5328:5346  playerData[player] */\n      0xffffffffffffffffffffffffffffffffffffffff\n      and\n      0xffffffffffffffffffffffffffffffffffffffff\n      and\n      dup2\n      mstore\n      0x20\n      add\n      swap1\n      dup2\n      mstore\n      0x20\n      add\n      0x00\n      keccak256\n        /* \"contracts/GameRoom.sol\":5328:5356  playerData[player].handCards */\n      0x03\n      add\n        /* \"contracts/GameRoom.sol\":5357:5360  idx */\n      dup3\n        /* \"contracts/GameRoom.sol\":5328:5361  playerData[player].handCards[idx] */\n      0xff\n      and\n      0x0a\n      dup2\n      lt\n      tag_172\n      jumpi\n      tag_173\n      tag_85\n      jump\t// in\n    tag_173:\n    tag_172:\n      add\n      sload\n        /* \"contracts/GameRoom.sol\":5317:5361  uint cnt = playerData[player].handCards[idx] */\n      swap1\n      pop\n        /* \"contracts/GameRoom.sol\":5383:5384  2 */\n      0x02\n        /* \"contracts/GameRoom.sol\":5376:5379  cnt */\n      dup2\n        /* \"contracts/GameRoom.sol\":5376:5384  cnt >= 2 */\n      lt\n        /* \"contracts/GameRoom.sol\":5372:5429  if (cnt >= 2) playerData[player].handCards[idx] = cnt % 2 */\n      tag_175\n      jumpi\n        /* \"contracts/GameRoom.sol\":5428:5429  2 */\n      0x02\n        /* \"contracts/GameRoom.sol\":5422:5425  cnt */\n      dup2\n        /* \"contracts/GameRoom.sol\":5422:5429  cnt % 2 */\n      tag_176\n      swap2\n      swap1\n      tag_177\n      jump\t// in\n    tag_176:\n        /* \"contracts/GameRoom.sol\":5386:5396  playerData */\n      0x11\n        /* \"contracts/GameRoom.sol\":5386:5404  playerData[player] */\n      0x00\n        /* \"contracts/GameRoom.sol\":5397:5403  player */\n      dup6\n        /* \"contracts/GameRoom.sol\":5386:5404  playerData[player] */\n      0xffffffffffffffffffffffffffffffffffffffff\n      and\n      0xffffffffffffffffffffffffffffffffffffffff\n      and\n      dup2\n      mstore\n      0x20\n      add\n      swap1\n      dup2\n      mstore\n      0x20\n      add\n      0x00\n      keccak256\n        /* \"contracts/GameRoom.sol\":5386:5414  playerData[player].handCards */\n      0x03\n      add\n        /* \"contracts/GameRoom.sol\":5415:5418  idx */\n      dup4\n        /* \"contracts/GameRoom.sol\":5386:5419  playerData[player].handCards[idx] */\n      0xff\n      and\n      0x0a\n      dup2\n      lt\n      tag_178\n      jumpi\n      tag_179\n      tag_85\n      jump\t// in\n    tag_179:\n    tag_178:\n      add\n        /* \"contracts/GameRoom.sol\":5386:5429  playerData[player].handCards[idx] = cnt % 2 */\n      dup2\n      swap1\n      sstore\n      pop\n        /* \"contracts/GameRoom.sol\":5372:5429  if (cnt >= 2) playerData[player].handCards[idx] = cnt % 2 */\n    tag_175:\n        /* \"contracts/GameRoom.sol\":5306:5437  {... */\n      pop\n        /* \"contracts/GameRoom.sol\":5246:5437  function _autoEliminate(address player, uint8 idx) internal {... */\n      pop\n      pop\n      jump\t// out\n        /* \"contracts/GameRoom.sol\":5445:5724  function _isAllClear(address player) internal view returns (bool) {... */\n    tag_132:\n        /* \"contracts/GameRoom.sol\":5505:5509  bool */\n      0x00\n        /* \"contracts/GameRoom.sol\":5558:5559  0 */\n      dup1\n        /* \"contracts/GameRoom.sol\":5526:5536  playerData */\n      0x11\n        /* \"contracts/GameRoom.sol\":5526:5544  playerData[player] */\n      0x00\n        /* \"contracts/GameRoom.sol\":5537:5543  player */\n      dup5\n        /* \"contracts/GameRoom.sol\":5526:5544  playerData[player] */\n      0xffffffffffffffffffffffffffffffffffffffff\n      and\n      0xffffffffffffffffffffffffffffffffffffffff\n      and\n      dup2\n      mstore\n      0x20\n      add\n      swap1\n      dup2\n      mstore\n      0x20\n      add\n      0x00\n      keccak256\n        /* \"contracts/GameRoom.sol\":5526:5555  playerData[player].jokerCount */\n      0x0d\n      add\n      sload\n        /* \"contracts/GameRoom.sol\":5526:5559  playerData[player].jokerCount > 0 */\n      gt\n        /* \"contracts/GameRoom.sol\":5522:5573  if (playerData[player].jokerCount > 0) return false */\n      iszero\n      tag_182\n      jumpi\n        /* \"contracts/GameRoom.sol\":5568:5573  false */\n      0x00\n        /* \"contracts/GameRoom.sol\":5561:5573  return false */\n      swap1\n      pop\n      jump(tag_181)\n        /* \"contracts/GameRoom.sol\":5522:5573  if (playerData[player].jokerCount > 0) return false */\n    tag_182:\n        /* \"contracts/GameRoom.sol\":5589:5596  uint8 i */\n      0x00\n        /* \"contracts/GameRoom.sol\":5584:5695  for (uint8 i = 0; i < 10; i++) {... */\n    tag_183:\n        /* \"contracts/GameRoom.sol\":5606:5608  10 */\n      0x0a\n        /* \"contracts/GameRoom.sol\":5602:5603  i */\n      dup2\n        /* \"contracts/GameRoom.sol\":5602:5608  i < 10 */\n      0xff\n      and\n      lt\n        /* \"contracts/GameRoom.sol\":5584:5695  for (uint8 i = 0; i < 10; i++) {... */\n      iszero\n      tag_184\n      jumpi\n        /* \"contracts/GameRoom.sol\":5668:5669  0 */\n      0x00\n        /* \"contracts/GameRoom.sol\":5634:5644  playerData */\n      0x11\n        /* \"contracts/GameRoom.sol\":5634:5652  playerData[player] */\n      0x00\n        /* \"contracts/GameRoom.sol\":5645:5651  player */\n      dup6\n        /* \"contracts/GameRoom.sol\":5634:5652  playerData[player] */\n      0xffffffffffffffffffffffffffffffffffffffff\n      and\n      0xffffffffffffffffffffffffffffffffffffffff\n      and\n      dup2\n      mstore\n      0x20\n      add\n      swap1\n      dup2\n      mstore\n      0x20\n      add\n      0x00\n      keccak256\n        /* \"contracts/GameRoom.sol\":5634:5662  playerData[player].handCards */\n      0x03\n      add\n        /* \"contracts/GameRoom.sol\":5663:5664  i */\n      dup3\n        /* \"contracts/GameRoom.sol\":5634:5665  playerData[player].handCards[i] */\n      0xff\n      and\n      0x0a\n      dup2\n      lt\n      tag_186\n      jumpi\n      tag_187\n      tag_85\n      jump\t// in\n    tag_187:\n    tag_186:\n      add\n      sload\n        /* \"contracts/GameRoom.sol\":5634:5669  playerData[player].handCards[i] > 0 */\n      gt\n        /* \"contracts/GameRoom.sol\":5630:5683  if (playerData[player].handCards[i] > 0) return false */\n      iszero\n      tag_189\n      jumpi\n        /* \"contracts/GameRoom.sol\":5678:5683  false */\n      0x00\n        /* \"contracts/GameRoom.sol\":5671:5683  return false */\n      swap2\n      pop\n      pop\n      jump(tag_181)\n        /* \"contracts/GameRoom.sol\":5630:5683  if (playerData[player].handCards[i] > 0) return false */\n    tag_189:\n        /* \"contracts/GameRoom.sol\":5610:5613  i++ */\n      dup1\n      dup1\n      0x01\n      add\n      swap2\n      pop\n      pop\n        /* \"contracts/GameRoom.sol\":5584:5695  for (uint8 i = 0; i < 10; i++) {... */\n      jump(tag_183)\n    tag_184:\n      pop\n        /* \"contracts/GameRoom.sol\":5712:5716  true */\n      0x01\n        /* \"contracts/GameRoom.sol\":5705:5716  return true */\n      swap1\n      pop\n        /* \"contracts/GameRoom.sol\":5445:5724  function _isAllClear(address player) internal view returns (bool) {... */\n    tag_181:\n      swap2\n      swap1\n      pop\n      jump\t// out\n        /* \"contracts/GameRoom.sol\":5732:5996  function _nextTurn() internal {... */\n    tag_135:\n        /* \"contracts/GameRoom.sol\":5773:5785  uint nextIdx */\n      0x00\n        /* \"contracts/GameRoom.sol\":5815:5822  players */\n      0x10\n        /* \"contracts/GameRoom.sol\":5815:5829  players.length */\n      dup1\n      sload\n      swap1\n      pop\n        /* \"contracts/GameRoom.sol\":5810:5811  1 */\n      0x01\n        /* \"contracts/GameRoom.sol\":5789:5807  currentPlayerIndex */\n      sload(0x12)\n        /* \"contracts/GameRoom.sol\":5789:5811  currentPlayerIndex + 1 */\n      tag_191\n      swap2\n      swap1\n      tag_192\n      jump\t// in\n    tag_191:\n        /* \"contracts/GameRoom.sol\":5788:5829  (currentPlayerIndex + 1) % players.length */\n      tag_193\n      swap2\n      swap1\n      tag_177\n      jump\t// in\n    tag_193:\n        /* \"contracts/GameRoom.sol\":5773:5829  uint nextIdx = (currentPlayerIndex + 1) % players.length */\n      swap1\n      pop\n        /* \"contracts/GameRoom.sol\":5840:5950  while (playerData[players[nextIdx]].isOut) {... */\n    tag_194:\n        /* \"contracts/GameRoom.sol\":5847:5857  playerData */\n      0x11\n        /* \"contracts/GameRoom.sol\":5847:5875  playerData[players[nextIdx]] */\n      0x00\n        /* \"contracts/GameRoom.sol\":5858:5865  players */\n      0x10\n        /* \"contracts/GameRoom.sol\":5866:5873  nextIdx */\n      dup4\n        /* \"contracts/GameRoom.sol\":5858:5874  players[nextIdx] */\n      dup2\n      sload\n      dup2\n      lt\n      tag_196\n      jumpi\n      tag_197\n      tag_85\n      jump\t// in\n    tag_197:\n    tag_196:\n      swap1\n      0x00\n      mstore\n      keccak256(0x00, 0x20)\n      add\n      0x00\n      swap1\n      sload\n      swap1\n      0x0100\n      exp\n      swap1\n      div\n      0xffffffffffffffffffffffffffffffffffffffff\n      and\n        /* \"contracts/GameRoom.sol\":5847:5875  playerData[players[nextIdx]] */\n      0xffffffffffffffffffffffffffffffffffffffff\n      and\n      0xffffffffffffffffffffffffffffffffffffffff\n      and\n      dup2\n      mstore\n      0x20\n      add\n      swap1\n      dup2\n      mstore\n      0x20\n      add\n      0x00\n      keccak256\n        /* \"contracts/GameRoom.sol\":5847:5881  playerData[players[nextIdx]].isOut */\n      0x02\n      add\n      0x01\n      swap1\n      sload\n      swap1\n      0x0100\n      exp\n      swap1\n      div\n      0xff\n      and\n        /* \"contracts/GameRoom.sol\":5840:5950  while (playerData[players[nextIdx]].isOut) {... */\n      iszero\n      tag_195\n      jumpi\n        /* \"contracts/GameRoom.sol\":5924:5931  players */\n      0x10\n        /* \"contracts/GameRoom.sol\":5924:5938  players.length */\n      dup1\n      sload\n      swap1\n      pop\n        /* \"contracts/GameRoom.sol\":5919:5920  1 */\n      0x01\n        /* \"contracts/GameRoom.sol\":5909:5916  nextIdx */\n      dup3\n        /* \"contracts/GameRoom.sol\":5909:5920  nextIdx + 1 */\n      tag_199\n      swap2\n      swap1\n      tag_192\n      jump\t// in\n    tag_199:\n        /* \"contracts/GameRoom.sol\":5908:5938  (nextIdx + 1) % players.length */\n      tag_200\n      swap2\n      swap1\n      tag_177\n      jump\t// in\n    tag_200:\n        /* \"contracts/GameRoom.sol\":5898:5938  nextIdx = (nextIdx + 1) % players.length */\n      swap1\n      pop\n        /* \"contracts/GameRoom.sol\":5840:5950  while (playerData[players[nextIdx]].isOut) {... */\n      jump(tag_194)\n    tag_195:\n        /* \"contracts/GameRoom.sol\":5981:5988  nextIdx */\n      dup1\n        /* \"contracts/GameRoom.sol\":5960:5978  currentPlayerIndex */\n      0x12\n        /* \"contracts/GameRoom.sol\":5960:5988  currentPlayerIndex = nextIdx */\n      dup2\n      swap1\n      sstore\n      pop\n        /* \"contracts/GameRoom.sol\":5762:5996  {... */\n      pop\n        /* \"contracts/GameRoom.sol\":5732:5996  function _nextTurn() internal {... */\n      jump\t// out\n        /* \"contracts/GameRoom.sol\":6004:6237  function _isGameOver() internal view returns (bool) {... */\n    tag_137:\n        /* \"contracts/GameRoom.sol\":6050:6054  bool */\n      0x00\n        /* \"contracts/GameRoom.sol\":6067:6078  uint active */\n      dup1\n        /* \"contracts/GameRoom.sol\":6094:6100  uint i */\n      0x00\n        /* \"contracts/GameRoom.sol\":6089:6201  for (uint i = 0; i < players.length; i++) {... */\n    tag_202:\n        /* \"contracts/GameRoom.sol\":6110:6117  players */\n      0x10\n        /* \"contracts/GameRoom.sol\":6110:6124  players.length */\n      dup1\n      sload\n      swap1\n      pop\n        /* \"contracts/GameRoom.sol\":6106:6107  i */\n      dup2\n        /* \"contracts/GameRoom.sol\":6106:6124  i < players.length */\n      lt\n        /* \"contracts/GameRoom.sol\":6089:6201  for (uint i = 0; i < players.length; i++) {... */\n      iszero\n      tag_203\n      jumpi\n        /* \"contracts/GameRoom.sol\":6151:6161  playerData */\n      0x11\n        /* \"contracts/GameRoom.sol\":6151:6173  playerData[players[i]] */\n      0x00\n        /* \"contracts/GameRoom.sol\":6162:6169  players */\n      0x10\n        /* \"contracts/GameRoom.sol\":6170:6171  i */\n      dup4\n        /* \"contracts/GameRoom.sol\":6162:6172  players[i] */\n      dup2\n      sload\n      dup2\n      lt\n      tag_205\n      jumpi\n      tag_206\n      tag_85\n      jump\t// in\n    tag_206:\n    tag_205:\n      swap1\n      0x00\n      mstore\n      keccak256(0x00, 0x20)\n      add\n      0x00\n      swap1\n      sload\n      swap1\n      0x0100\n      exp\n      swap1\n      div\n      0xffffffffffffffffffffffffffffffffffffffff\n      and\n        /* \"contracts/GameRoom.sol\":6151:6173  playerData[players[i]] */\n      0xffffffffffffffffffffffffffffffffffffffff\n      and\n      0xffffffffffffffffffffffffffffffffffffffff\n      and\n      dup2\n      mstore\n      0x20\n      add\n      swap1\n      dup2\n      mstore\n      0x20\n      add\n      0x00\n      keccak256\n        /* \"contracts/GameRoom.sol\":6151:6179  playerData[players[i]].isOut */\n      0x02\n      add\n      0x01\n      swap1\n      sload\n      swap1\n      0x0100\n      exp\n      swap1\n      div\n      0xff\n      and\n        /* \"contracts/GameRoom.sol\":6146:6189  if (!playerData[players[i]].isOut) active++ */\n      tag_208\n      jumpi\n        /* \"contracts/GameRoom.sol\":6181:6189  active++ */\n      dup2\n      dup1\n      tag_209\n      swap1\n      tag_103\n      jump\t// in\n    tag_209:\n      swap3\n      pop\n      pop\n        /* \"contracts/GameRoom.sol\":6146:6189  if (!playerData[players[i]].isOut) active++ */\n    tag_208:\n        /* \"contracts/GameRoom.sol\":6126:6129  i++ */\n      dup1\n      dup1\n      0x01\n      add\n      swap2\n      pop\n      pop\n        /* \"contracts/GameRoom.sol\":6089:6201  for (uint i = 0; i < players.length; i++) {... */\n      jump(tag_202)\n    tag_203:\n      pop\n        /* \"contracts/GameRoom.sol\":6228:6229  1 */\n      0x01\n        /* \"contracts/GameRoom.sol\":6218:6224  active */\n      dup2\n        /* \"contracts/GameRoom.sol\":6218:6229  active <= 1 */\n      gt\n      iszero\n        /* \"contracts/GameRoom.sol\":6211:6229  return active <= 1 */\n      swap2\n      pop\n      pop\n        /* \"contracts/GameRoom.sol\":6004:6237  function _isGameOver() internal view returns (bool) {... */\n      swap1\n      jump\t// out\n        /* \"contracts/GameRoom.sol\":6245:7032  function _endGame() internal {... */\n    tag_140:\n        /* \"contracts/GameRoom.sol\":6297:6312  GameState.ENDED */\n      0x02\n        /* \"contracts/GameRoom.sol\":6285:6294  gameState */\n      0x0f\n      0x00\n        /* \"contracts/GameRoom.sol\":6285:6312  gameState = GameState.ENDED */\n      0x0100\n      exp\n      dup2\n      sload\n      dup2\n      0xff\n      mul\n      not\n      and\n      swap1\n      dup4\n      0x02\n      dup2\n      gt\n      iszero\n      tag_211\n      jumpi\n      tag_212\n      tag_77\n      jump\t// in\n    tag_212:\n    tag_211:\n      mul\n      or\n      swap1\n      sstore\n      pop\n        /* \"contracts/GameRoom.sol\":6325:6348  address[] memory losers */\n      0x00\n        /* \"contracts/GameRoom.sol\":6365:6372  players */\n      0x10\n        /* \"contracts/GameRoom.sol\":6365:6379  players.length */\n      dup1\n      sload\n      swap1\n      pop\n        /* \"contracts/GameRoom.sol\":6351:6380  new address[](players.length) */\n      0xffffffffffffffff\n      dup2\n      gt\n      iszero\n      tag_213\n      jumpi\n      tag_214\n      tag_215\n      jump\t// in\n    tag_214:\n    tag_213:\n      mload(0x40)\n      swap1\n      dup1\n      dup3\n      mstore\n      dup1\n      0x20\n      mul\n      0x20\n      add\n      dup3\n      add\n      0x40\n      mstore\n      dup1\n      iszero\n      tag_216\n      jumpi\n      dup2\n      0x20\n      add\n      0x20\n      dup3\n      mul\n      dup1\n      calldatasize\n      dup4\n      calldatacopy\n      dup1\n      dup3\n      add\n      swap2\n      pop\n      pop\n      swap1\n      pop\n    tag_216:\n      pop\n        /* \"contracts/GameRoom.sol\":6325:6380  address[] memory losers = new address[](players.length) */\n      swap1\n      pop\n        /* \"contracts/GameRoom.sol\":6391:6415  address[] memory winners */\n      0x00\n        /* \"contracts/GameRoom.sol\":6432:6439  players */\n      0x10\n        /* \"contracts/GameRoom.sol\":6432:6446  players.length */\n      dup1\n      sload\n      swap1\n      pop\n        /* \"contracts/GameRoom.sol\":6418:6447  new address[](players.length) */\n      0xffffffffffffffff\n      dup2\n      gt\n      iszero\n      tag_217\n      jumpi\n      tag_218\n      tag_215\n      jump\t// in\n    tag_218:\n    tag_217:\n      mload(0x40)\n      swap1\n      dup1\n      dup3\n      mstore\n      dup1\n      0x20\n      mul\n      0x20\n      add\n      dup3\n      add\n      0x40\n      mstore\n      dup1\n      iszero\n      tag_219\n      jumpi\n      dup2\n      0x20\n      add\n      0x20\n      dup3\n      mul\n      dup1\n      calldatasize\n      dup4\n      calldatacopy\n      dup1\n      dup3\n      add\n      swap2\n      pop\n      pop\n      swap1\n      pop\n    tag_219:\n      pop\n        /* \"contracts/GameRoom.sol\":6391:6447  address[] memory winners = new address[](players.length) */\n      swap1\n      pop\n        /* \"contracts/GameRoom.sol\":6458:6464  uint l */\n      0x00\n        /* \"contracts/GameRoom.sol\":6475:6481  uint w */\n      dup1\n        /* \"contracts/GameRoom.sol\":6499:6505  uint i */\n      0x00\n        /* \"contracts/GameRoom.sol\":6494:6685  for (uint i = 0; i < players.length; i++) {... */\n    tag_220:\n        /* \"contracts/GameRoom.sol\":6515:6522  players */\n      0x10\n        /* \"contracts/GameRoom.sol\":6515:6529  players.length */\n      dup1\n      sload\n      swap1\n      pop\n        /* \"contracts/GameRoom.sol\":6511:6512  i */\n      dup2\n        /* \"contracts/GameRoom.sol\":6511:6529  i < players.length */\n      lt\n        /* \"contracts/GameRoom.sol\":6494:6685  for (uint i = 0; i < players.length; i++) {... */\n      iszero\n      tag_221\n      jumpi\n        /* \"contracts/GameRoom.sol\":6551:6560  address p */\n      0x00\n        /* \"contracts/GameRoom.sol\":6563:6570  players */\n      0x10\n        /* \"contracts/GameRoom.sol\":6571:6572  i */\n      dup3\n        /* \"contracts/GameRoom.sol\":6563:6573  players[i] */\n      dup2\n      sload\n      dup2\n      lt\n      tag_223\n      jumpi\n      tag_224\n      tag_85\n      jump\t// in\n    tag_224:\n    tag_223:\n      swap1\n      0x00\n      mstore\n      keccak256(0x00, 0x20)\n      add\n      0x00\n      swap1\n      sload\n      swap1\n      0x0100\n      exp\n      swap1\n      div\n      0xffffffffffffffffffffffffffffffffffffffff\n      and\n        /* \"contracts/GameRoom.sol\":6551:6573  address p = players[i] */\n      swap1\n      pop\n        /* \"contracts/GameRoom.sol\":6619:6620  0 */\n      0x00\n        /* \"contracts/GameRoom.sol\":6592:6602  playerData */\n      0x11\n        /* \"contracts/GameRoom.sol\":6592:6605  playerData[p] */\n      0x00\n        /* \"contracts/GameRoom.sol\":6603:6604  p */\n      dup4\n        /* \"contracts/GameRoom.sol\":6592:6605  playerData[p] */\n      0xffffffffffffffffffffffffffffffffffffffff\n      and\n      0xffffffffffffffffffffffffffffffffffffffff\n      and\n      dup2\n      mstore\n      0x20\n      add\n      swap1\n      dup2\n      mstore\n      0x20\n      add\n      0x00\n      keccak256\n        /* \"contracts/GameRoom.sol\":6592:6616  playerData[p].jokerCount */\n      0x0d\n      add\n      sload\n        /* \"contracts/GameRoom.sol\":6592:6620  playerData[p].jokerCount > 0 */\n      gt\n        /* \"contracts/GameRoom.sol\":6588:6673  if (playerData[p].jokerCount > 0) losers[l++] = p;... */\n      iszero\n      tag_226\n      jumpi\n        /* \"contracts/GameRoom.sol\":6636:6637  p */\n      dup1\n        /* \"contracts/GameRoom.sol\":6622:6628  losers */\n      dup7\n        /* \"contracts/GameRoom.sol\":6629:6632  l++ */\n      dup6\n      dup1\n      tag_227\n      swap1\n      tag_103\n      jump\t// in\n    tag_227:\n      swap7\n      pop\n        /* \"contracts/GameRoom.sol\":6622:6633  losers[l++] */\n      dup2\n      mload\n      dup2\n      lt\n      tag_228\n      jumpi\n      tag_229\n      tag_85\n      jump\t// in\n    tag_229:\n    tag_228:\n      0x20\n      mul\n      0x20\n      add\n      add\n        /* \"contracts/GameRoom.sol\":6622:6637  losers[l++] = p */\n      swap1\n      0xffffffffffffffffffffffffffffffffffffffff\n      and\n      swap1\n      dup2\n      0xffffffffffffffffffffffffffffffffffffffff\n      and\n      dup2\n      mstore\n      pop\n      pop\n        /* \"contracts/GameRoom.sol\":6588:6673  if (playerData[p].jokerCount > 0) losers[l++] = p;... */\n      jump(tag_230)\n    tag_226:\n        /* \"contracts/GameRoom.sol\":6672:6673  p */\n      dup1\n        /* \"contracts/GameRoom.sol\":6657:6664  winners */\n      dup6\n        /* \"contracts/GameRoom.sol\":6665:6668  w++ */\n      dup5\n      dup1\n      tag_231\n      swap1\n      tag_103\n      jump\t// in\n    tag_231:\n      swap6\n      pop\n        /* \"contracts/GameRoom.sol\":6657:6669  winners[w++] */\n      dup2\n      mload\n      dup2\n      lt\n      tag_232\n      jumpi\n      tag_233\n      tag_85\n      jump\t// in\n    tag_233:\n    tag_232:\n      0x20\n      mul\n      0x20\n      add\n      add\n        /* \"contracts/GameRoom.sol\":6657:6673  winners[w++] = p */\n      swap1\n      0xffffffffffffffffffffffffffffffffffffffff\n      and\n      swap1\n      dup2\n      0xffffffffffffffffffffffffffffffffffffffff\n      and\n      dup2\n      mstore\n      pop\n      pop\n        /* \"contracts/GameRoom.sol\":6588:6673  if (playerData[p].jokerCount > 0) losers[l++] = p;... */\n    tag_230:\n        /* \"contracts/GameRoom.sol\":6536:6685  {... */\n      pop\n        /* \"contracts/GameRoom.sol\":6531:6534  i++ */\n      dup1\n      dup1\n      0x01\n      add\n      swap2\n      pop\n      pop\n        /* \"contracts/GameRoom.sol\":6494:6685  for (uint i = 0; i < players.length; i++) {... */\n      jump(tag_220)\n    tag_221:\n      pop\n        /* \"contracts/GameRoom.sol\":6736:6737  l */\n      dup2\n        /* \"contracts/GameRoom.sol\":6728:6734  losers */\n      dup5\n        /* \"contracts/GameRoom.sol\":6721:6738  mstore(losers, l) */\n      mstore\n        /* \"contracts/GameRoom.sol\":6768:6769  w */\n      dup1\n        /* \"contracts/GameRoom.sol\":6759:6766  winners */\n      dup4\n        /* \"contracts/GameRoom.sol\":6752:6770  mstore(winners, w) */\n      mstore\n        /* \"contracts/GameRoom.sol\":6794:6803  bool sent */\n      0x00\n        /* \"contracts/GameRoom.sol\":6817:6829  stakingVault */\n      immutable(\"0x6bcaf047ba4c8ac400fca43393035242dd1aabda2d6068a0c51242b97224de8d\")\n        /* \"contracts/GameRoom.sol\":6809:6835  address(stakingVault).call */\n      0xffffffffffffffffffffffffffffffffffffffff\n      and\n        /* \"contracts/GameRoom.sol\":6843:6864  address(this).balance */\n      selfbalance\n        /* \"contracts/GameRoom.sol\":6809:6869  address(stakingVault).call{value: address(this).balance}(\"\") */\n      mload(0x40)\n      tag_234\n      swap1\n      tag_235\n      jump\t// in\n    tag_234:\n      0x00\n      mload(0x40)\n      dup1\n      dup4\n      sub\n      dup2\n      dup6\n      dup8\n      gas\n      call\n      swap3\n      pop\n      pop\n      pop\n      returndatasize\n      dup1\n      0x00\n      dup2\n      eq\n      tag_238\n      jumpi\n      mload(0x40)\n      swap2\n      pop\n      and(add(returndatasize, 0x3f), not(0x1f))\n      dup3\n      add\n      0x40\n      mstore\n      returndatasize\n      dup3\n      mstore\n      returndatasize\n      0x00\n      0x20\n      dup5\n      add\n      returndatacopy\n      jump(tag_237)\n    tag_238:\n      0x60\n      swap2\n      pop\n    tag_237:\n      pop\n        /* \"contracts/GameRoom.sol\":6793:6869  (bool sent, ) = address(stakingVault).call{value: address(this).balance}(\"\") */\n      pop\n      swap1\n      pop\n        /* \"contracts/GameRoom.sol\":6888:6892  sent */\n      dup1\n        /* \"contracts/GameRoom.sol\":6880:6906  require(sent, \"!transfer\") */\n      tag_239\n      jumpi\n      mload(0x40)\n      0x08c379a000000000000000000000000000000000000000000000000000000000\n      dup2\n      mstore\n      0x04\n      add\n      tag_240\n      swap1\n      tag_241\n      jump\t// in\n    tag_240:\n      mload(0x40)\n      dup1\n      swap2\n      sub\n      swap1\n      revert\n    tag_239:\n        /* \"contracts/GameRoom.sol\":6919:6931  stakingVault */\n      immutable(\"0x6bcaf047ba4c8ac400fca43393035242dd1aabda2d6068a0c51242b97224de8d\")\n        /* \"contracts/GameRoom.sol\":6919:6949  stakingVault.distributeRewards */\n      0xffffffffffffffffffffffffffffffffffffffff\n      and\n      0x72a22282\n        /* \"contracts/GameRoom.sol\":6950:6956  gameId */\n      immutable(\"0xd67d834462ca31eaef1f30157e31659f60355143b7441e6fc7d9eae1fa79f3f8\")\n        /* \"contracts/GameRoom.sol\":6958:6965  winners */\n      dup7\n        /* \"contracts/GameRoom.sol\":6967:6973  losers */\n      dup9\n        /* \"contracts/GameRoom.sol\":6919:6974  stakingVault.distributeRewards(gameId, winners, losers) */\n      mload(0x40)\n      dup5\n      0xffffffff\n      and\n      0xe0\n      shl\n      dup2\n      mstore\n      0x04\n      add\n      tag_242\n      swap4\n      swap3\n      swap2\n      swap1\n      tag_243\n      jump\t// in\n    tag_242:\n      0x00\n      mload(0x40)\n      dup1\n      dup4\n      sub\n      dup2\n      0x00\n      dup8\n      dup1\n      extcodesize\n      iszero\n      dup1\n      iszero\n      tag_244\n      jumpi\n      0x00\n      dup1\n      revert\n    tag_244:\n      pop\n      gas\n      call\n      iszero\n      dup1\n      iszero\n      tag_246\n      jumpi\n      returndatasize\n      0x00\n      dup1\n      returndatacopy\n      revert(0x00, returndatasize)\n    tag_246:\n      pop\n      pop\n      pop\n      pop\n        /* \"contracts/GameRoom.sol\":7000:7006  gameId */\n      immutable(\"0xd67d834462ca31eaef1f30157e31659f60355143b7441e6fc7d9eae1fa79f3f8\")\n        /* \"contracts/GameRoom.sol\":6990:7024  GameEnded(gameId, losers, winners) */\n      0xec9076d3d1e4910861e8852ef3e8820904b6868d2e5c85563e5c82f45c776d1f\n        /* \"contracts/GameRoom.sol\":7008:7014  losers */\n      dup7\n        /* \"contracts/GameRoom.sol\":7016:7023  winners */\n      dup7\n        /* \"contracts/GameRoom.sol\":6990:7024  GameEnded(gameId, losers, winners) */\n      mload(0x40)\n      tag_247\n      swap3\n      swap2\n      swap1\n      tag_248\n      jump\t// in\n    tag_247:\n      mload(0x40)\n      dup1\n      swap2\n      sub\n      swap1\n      log2\n        /* \"contracts/GameRoom.sol\":6274:7032  {... */\n      pop\n      pop\n      pop\n      pop\n      pop\n        /* \"contracts/GameRoom.sol\":6245:7032  function _endGame() internal {... */\n      jump\t// out\n        /* \"contracts/GameRoom.sol\":2410:2626  function _startGame() internal {... */\n    tag_168:\n        /* \"contracts/GameRoom.sol\":2478:2484  config */\n      0x00\n        /* \"contracts/GameRoom.sol\":2478:2495  config.minPlayers */\n      dup1\n      add\n      sload\n        /* \"contracts/GameRoom.sol\":2460:2467  players */\n      0x10\n        /* \"contracts/GameRoom.sol\":2460:2474  players.length */\n      dup1\n      sload\n      swap1\n      pop\n        /* \"contracts/GameRoom.sol\":2460:2495  players.length >= config.minPlayers */\n      lt\n      iszero\n        /* \"contracts/GameRoom.sol\":2452:2507  require(players.length >= config.minPlayers, \"!enough\") */\n      tag_250\n      jumpi\n      mload(0x40)\n      0x08c379a000000000000000000000000000000000000000000000000000000000\n      dup2\n      mstore\n      0x04\n      add\n      tag_251\n      swap1\n      tag_252\n      jump\t// in\n    tag_251:\n      mload(0x40)\n      dup1\n      swap2\n      sub\n      swap1\n      revert\n    tag_250:\n        /* \"contracts/GameRoom.sol\":2530:2547  GameState.PLAYING */\n      0x01\n        /* \"contracts/GameRoom.sol\":2518:2527  gameState */\n      0x0f\n      0x00\n        /* \"contracts/GameRoom.sol\":2518:2547  gameState = GameState.PLAYING */\n      0x0100\n      exp\n      dup2\n      sload\n      dup2\n      0xff\n      mul\n      not\n      and\n      swap1\n      dup4\n      0x02\n      dup2\n      gt\n      iszero\n      tag_253\n      jumpi\n      tag_254\n      tag_77\n      jump\t// in\n    tag_254:\n    tag_253:\n      mul\n      or\n      swap1\n      sstore\n      pop\n        /* \"contracts/GameRoom.sol\":2558:2583  _shuffleAndDealAllCards() */\n      tag_255\n        /* \"contracts/GameRoom.sol\":2558:2581  _shuffleAndDealAllCards */\n      tag_256\n        /* \"contracts/GameRoom.sol\":2558:2583  _shuffleAndDealAllCards() */\n      jump\t// in\n    tag_255:\n        /* \"contracts/GameRoom.sol\":2611:2617  gameId */\n      immutable(\"0xd67d834462ca31eaef1f30157e31659f60355143b7441e6fc7d9eae1fa79f3f8\")\n        /* \"contracts/GameRoom.sol\":2599:2618  GameStarted(gameId) */\n      0x50ad08f58a27f2851d7e3a1b3a6a46b290f2ce677e99642d30ff639721e77790\n      mload(0x40)\n      mload(0x40)\n      dup1\n      swap2\n      sub\n      swap1\n      log2\n        /* \"contracts/GameRoom.sol\":2410:2626  function _startGame() internal {... */\n      jump\t// out\n        /* \"contracts/GameRoom.sol\":2634:3272  function _shuffleAndDealAllCards() internal {... */\n    tag_256:\n        /* \"contracts/GameRoom.sol\":2689:2703  uint256 pCount */\n      0x00\n        /* \"contracts/GameRoom.sol\":2706:2713  players */\n      0x10\n        /* \"contracts/GameRoom.sol\":2706:2720  players.length */\n      dup1\n      sload\n      swap1\n      pop\n        /* \"contracts/GameRoom.sol\":2689:2720  uint256 pCount = players.length */\n      swap1\n      pop\n        /* \"contracts/GameRoom.sol\":2731:2752  uint256[] memory deck */\n      0x00\n        /* \"contracts/GameRoom.sol\":2755:2774  _generateFullDeck() */\n      tag_258\n        /* \"contracts/GameRoom.sol\":2755:2772  _generateFullDeck */\n      tag_259\n        /* \"contracts/GameRoom.sol\":2755:2774  _generateFullDeck() */\n      jump\t// in\n    tag_258:\n        /* \"contracts/GameRoom.sol\":2731:2774  uint256[] memory deck = _generateFullDeck() */\n      swap1\n      pop\n        /* \"contracts/GameRoom.sol\":2792:2798  uint i */\n      0x00\n        /* \"contracts/GameRoom.sol\":2787:3010  for (uint i = 0; i < deck.length; i++) {... */\n    tag_260:\n        /* \"contracts/GameRoom.sol\":2808:2812  deck */\n      dup2\n        /* \"contracts/GameRoom.sol\":2808:2819  deck.length */\n      mload\n        /* \"contracts/GameRoom.sol\":2804:2805  i */\n      dup2\n        /* \"contracts/GameRoom.sol\":2804:2819  i < deck.length */\n      lt\n        /* \"contracts/GameRoom.sol\":2787:3010  for (uint i = 0; i < deck.length; i++) {... */\n      iszero\n      tag_261\n      jumpi\n        /* \"contracts/GameRoom.sol\":2841:2851  address to */\n      0x00\n        /* \"contracts/GameRoom.sol\":2854:2861  players */\n      0x10\n        /* \"contracts/GameRoom.sol\":2866:2872  pCount */\n      dup5\n        /* \"contracts/GameRoom.sol\":2862:2863  i */\n      dup4\n        /* \"contracts/GameRoom.sol\":2862:2872  i % pCount */\n      tag_263\n      swap2\n      swap1\n      tag_177\n      jump\t// in\n    tag_263:\n        /* \"contracts/GameRoom.sol\":2854:2873  players[i % pCount] */\n      dup2\n      sload\n      dup2\n      lt\n      tag_264\n      jumpi\n      tag_265\n      tag_85\n      jump\t// in\n    tag_265:\n    tag_264:\n      swap1\n      0x00\n      mstore\n      keccak256(0x00, 0x20)\n      add\n      0x00\n      swap1\n      sload\n      swap1\n      0x0100\n      exp\n      swap1\n      div\n      0xffffffffffffffffffffffffffffffffffffffff\n      and\n        /* \"contracts/GameRoom.sol\":2841:2873  address to = players[i % pCount] */\n      swap1\n      pop\n        /* \"contracts/GameRoom.sol\":2888:2897  uint8 num */\n      0x00\n        /* \"contracts/GameRoom.sol\":2906:2910  deck */\n      dup4\n        /* \"contracts/GameRoom.sol\":2911:2912  i */\n      dup4\n        /* \"contracts/GameRoom.sol\":2906:2913  deck[i] */\n      dup2\n      mload\n      dup2\n      lt\n      tag_267\n      jumpi\n      tag_268\n      tag_85\n      jump\t// in\n    tag_268:\n    tag_267:\n      0x20\n      mul\n      0x20\n      add\n      add\n      mload\n        /* \"contracts/GameRoom.sol\":2888:2914  uint8 num = uint8(deck[i]) */\n      swap1\n      pop\n        /* \"contracts/GameRoom.sol\":2929:2939  playerData */\n      0x11\n        /* \"contracts/GameRoom.sol\":2929:2943  playerData[to] */\n      0x00\n        /* \"contracts/GameRoom.sol\":2940:2942  to */\n      dup4\n        /* \"contracts/GameRoom.sol\":2929:2943  playerData[to] */\n      0xffffffffffffffffffffffffffffffffffffffff\n      and\n      0xffffffffffffffffffffffffffffffffffffffff\n      and\n      dup2\n      mstore\n      0x20\n      add\n      swap1\n      dup2\n      mstore\n      0x20\n      add\n      0x00\n      keccak256\n        /* \"contracts/GameRoom.sol\":2929:2953  playerData[to].handCards */\n      0x03\n      add\n        /* \"contracts/GameRoom.sol\":2954:2957  num */\n      dup2\n        /* \"contracts/GameRoom.sol\":2929:2958  playerData[to].handCards[num] */\n      0xff\n      and\n      0x0a\n      dup2\n      lt\n      tag_269\n      jumpi\n      tag_270\n      tag_85\n      jump\t// in\n    tag_270:\n    tag_269:\n      add\n      0x00\n        /* \"contracts/GameRoom.sol\":2929:2960  playerData[to].handCards[num]++ */\n      dup2\n      sload\n      dup1\n      swap3\n      swap2\n      swap1\n      tag_272\n      swap1\n      tag_103\n      jump\t// in\n    tag_272:\n      swap2\n      swap1\n      pop\n      sstore\n      pop\n        /* \"contracts/GameRoom.sol\":2975:2998  _autoEliminate(to, num) */\n      tag_273\n        /* \"contracts/GameRoom.sol\":2990:2992  to */\n      dup3\n        /* \"contracts/GameRoom.sol\":2994:2997  num */\n      dup3\n        /* \"contracts/GameRoom.sol\":2975:2989  _autoEliminate */\n      tag_128\n        /* \"contracts/GameRoom.sol\":2975:2998  _autoEliminate(to, num) */\n      jump\t// in\n    tag_273:\n        /* \"contracts/GameRoom.sol\":2826:3010  {... */\n      pop\n      pop\n        /* \"contracts/GameRoom.sol\":2821:2824  i++ */\n      dup1\n      dup1\n      0x01\n      add\n      swap2\n      pop\n      pop\n        /* \"contracts/GameRoom.sol\":2787:3010  for (uint i = 0; i < deck.length; i++) {... */\n      jump(tag_260)\n    tag_261:\n      pop\n        /* \"contracts/GameRoom.sol\":3022:3040  uint256 jokerTotal */\n      0x00\n        /* \"contracts/GameRoom.sol\":3043:3049  config */\n      dup1\n        /* \"contracts/GameRoom.sol\":3043:3060  config.jokerCount */\n      0x04\n      add\n      sload\n        /* \"contracts/GameRoom.sol\":3022:3060  uint256 jokerTotal = config.jokerCount */\n      swap1\n      pop\n        /* \"contracts/GameRoom.sol\":3076:3082  uint i */\n      0x00\n        /* \"contracts/GameRoom.sol\":3071:3265  for (uint i = 0; i < jokerTotal; i++) {... */\n    tag_274:\n        /* \"contracts/GameRoom.sol\":3092:3102  jokerTotal */\n      dup2\n        /* \"contracts/GameRoom.sol\":3088:3089  i */\n      dup2\n        /* \"contracts/GameRoom.sol\":3088:3102  i < jokerTotal */\n      lt\n        /* \"contracts/GameRoom.sol\":3071:3265  for (uint i = 0; i < jokerTotal; i++) {... */\n      iszero\n      tag_275\n      jumpi\n        /* \"contracts/GameRoom.sol\":3124:3134  address to */\n      0x00\n        /* \"contracts/GameRoom.sol\":3137:3144  players */\n      0x10\n        /* \"contracts/GameRoom.sol\":3201:3207  pCount */\n      dup6\n        /* \"contracts/GameRoom.sol\":3177:3192  block.timestamp */\n      timestamp\n        /* \"contracts/GameRoom.sol\":3194:3195  i */\n      dup5\n        /* \"contracts/GameRoom.sol\":3160:3196  abi.encodePacked(block.timestamp, i) */\n      add(0x20, mload(0x40))\n      tag_277\n      swap3\n      swap2\n      swap1\n      tag_278\n      jump\t// in\n    tag_277:\n      mload(0x40)\n      0x20\n      dup2\n      dup4\n      sub\n      sub\n      dup2\n      mstore\n      swap1\n      0x40\n      mstore\n        /* \"contracts/GameRoom.sol\":3150:3197  keccak256(abi.encodePacked(block.timestamp, i)) */\n      dup1\n      mload\n      swap1\n      0x20\n      add\n      keccak256\n        /* \"contracts/GameRoom.sol\":3145:3198  uint(keccak256(abi.encodePacked(block.timestamp, i))) */\n      0x00\n      shr\n        /* \"contracts/GameRoom.sol\":3145:3207  uint(keccak256(abi.encodePacked(block.timestamp, i))) % pCount */\n      tag_279\n      swap2\n      swap1\n      tag_177\n      jump\t// in\n    tag_279:\n        /* \"contracts/GameRoom.sol\":3137:3208  players[uint(keccak256(abi.encodePacked(block.timestamp, i))) % pCount] */\n      dup2\n      sload\n      dup2\n      lt\n      tag_280\n      jumpi\n      tag_281\n      tag_85\n      jump\t// in\n    tag_281:\n    tag_280:\n      swap1\n      0x00\n      mstore\n      keccak256(0x00, 0x20)\n      add\n      0x00\n      swap1\n      sload\n      swap1\n      0x0100\n      exp\n      swap1\n      div\n      0xffffffffffffffffffffffffffffffffffffffff\n      and\n        /* \"contracts/GameRoom.sol\":3124:3208  address to = players[uint(keccak256(abi.encodePacked(block.timestamp, i))) % pCount] */\n      swap1\n      pop\n        /* \"contracts/GameRoom.sol\":3252:3253  1 */\n      0x01\n        /* \"contracts/GameRoom.sol\":3223:3233  playerData */\n      0x11\n        /* \"contracts/GameRoom.sol\":3223:3237  playerData[to] */\n      0x00\n        /* \"contracts/GameRoom.sol\":3234:3236  to */\n      dup4\n        /* \"contracts/GameRoom.sol\":3223:3237  playerData[to] */\n      0xffffffffffffffffffffffffffffffffffffffff\n      and\n      0xffffffffffffffffffffffffffffffffffffffff\n      and\n      dup2\n      mstore\n      0x20\n      add\n      swap1\n      dup2\n      mstore\n      0x20\n      add\n      0x00\n      keccak256\n        /* \"contracts/GameRoom.sol\":3223:3248  playerData[to].jokerCount */\n      0x0d\n      add\n      0x00\n        /* \"contracts/GameRoom.sol\":3223:3253  playerData[to].jokerCount += 1 */\n      dup3\n      dup3\n      sload\n      tag_283\n      swap2\n      swap1\n      tag_192\n      jump\t// in\n    tag_283:\n      swap3\n      pop\n      pop\n      dup2\n      swap1\n      sstore\n      pop\n        /* \"contracts/GameRoom.sol\":3109:3265  {... */\n      pop\n        /* \"contracts/GameRoom.sol\":3104:3107  i++ */\n      dup1\n      dup1\n      0x01\n      add\n      swap2\n      pop\n      pop\n        /* \"contracts/GameRoom.sol\":3071:3265  for (uint i = 0; i < jokerTotal; i++) {... */\n      jump(tag_274)\n    tag_275:\n      pop\n        /* \"contracts/GameRoom.sol\":2678:3272  {... */\n      pop\n      pop\n      pop\n        /* \"contracts/GameRoom.sol\":2634:3272  function _shuffleAndDealAllCards() internal {... */\n      jump\t// out\n        /* \"contracts/GameRoom.sol\":3280:3943  function _generateFullDeck() internal view returns (uint256[] memory) {... */\n    tag_259:\n        /* \"contracts/GameRoom.sol\":3332:3348  uint256[] memory */\n      0x60\n        /* \"contracts/GameRoom.sol\":3361:3379  uint256 totalCards */\n      0x00\n        /* \"contracts/GameRoom.sol\":3395:3401  uint i */\n      dup1\n        /* \"contracts/GameRoom.sol\":3404:3405  0 */\n      0x00\n        /* \"contracts/GameRoom.sol\":3395:3405  uint i = 0 */\n      swap1\n      pop\n        /* \"contracts/GameRoom.sol\":3390:3454  for (uint i = 0; i < 10; i++) totalCards += config.cardCounts[i] */\n    tag_285:\n        /* \"contracts/GameRoom.sol\":3411:3413  10 */\n      0x0a\n        /* \"contracts/GameRoom.sol\":3407:3408  i */\n      dup2\n        /* \"contracts/GameRoom.sol\":3407:3413  i < 10 */\n      lt\n        /* \"contracts/GameRoom.sol\":3390:3454  for (uint i = 0; i < 10; i++) totalCards += config.cardCounts[i] */\n      iszero\n      tag_286\n      jumpi\n        /* \"contracts/GameRoom.sol\":3434:3440  config */\n      0x00\n        /* \"contracts/GameRoom.sol\":3434:3451  config.cardCounts */\n      0x05\n      add\n        /* \"contracts/GameRoom.sol\":3452:3453  i */\n      dup2\n        /* \"contracts/GameRoom.sol\":3434:3454  config.cardCounts[i] */\n      0x0a\n      dup2\n      lt\n      tag_288\n      jumpi\n      tag_289\n      tag_85\n      jump\t// in\n    tag_289:\n    tag_288:\n      add\n      sload\n        /* \"contracts/GameRoom.sol\":3420:3454  totalCards += config.cardCounts[i] */\n      dup3\n      tag_291\n      swap2\n      swap1\n      tag_192\n      jump\t// in\n    tag_291:\n      swap2\n      pop\n        /* \"contracts/GameRoom.sol\":3415:3418  i++ */\n      dup1\n      dup1\n      0x01\n      add\n      swap2\n      pop\n      pop\n        /* \"contracts/GameRoom.sol\":3390:3454  for (uint i = 0; i < 10; i++) totalCards += config.cardCounts[i] */\n      jump(tag_285)\n    tag_286:\n      pop\n        /* \"contracts/GameRoom.sol\":3467:3488  uint256[] memory deck */\n      0x00\n        /* \"contracts/GameRoom.sol\":3505:3515  totalCards */\n      dup2\n        /* \"contracts/GameRoom.sol\":3491:3516  new uint256[](totalCards) */\n      0xffffffffffffffff\n      dup2\n      gt\n      iszero\n      tag_292\n      jumpi\n      tag_293\n      tag_215\n      jump\t// in\n    tag_293:\n    tag_292:\n      mload(0x40)\n      swap1\n      dup1\n      dup3\n      mstore\n      dup1\n      0x20\n      mul\n      0x20\n      add\n      dup3\n      add\n      0x40\n      mstore\n      dup1\n      iszero\n      tag_294\n      jumpi\n      dup2\n      0x20\n      add\n      0x20\n      dup3\n      mul\n      dup1\n      calldatasize\n      dup4\n      calldatacopy\n      dup1\n      dup3\n      add\n      swap2\n      pop\n      pop\n      swap1\n      pop\n    tag_294:\n      pop\n        /* \"contracts/GameRoom.sol\":3467:3516  uint256[] memory deck = new uint256[](totalCards) */\n      swap1\n      pop\n        /* \"contracts/GameRoom.sol\":3527:3535  uint idx */\n      0x00\n        /* \"contracts/GameRoom.sol\":3551:3560  uint8 num */\n      dup1\n        /* \"contracts/GameRoom.sol\":3563:3564  0 */\n      0x00\n        /* \"contracts/GameRoom.sol\":3551:3564  uint8 num = 0 */\n      swap1\n      pop\n        /* \"contracts/GameRoom.sol\":3546:3706  for (uint8 num = 0; num < 10; num++) {... */\n    tag_295:\n        /* \"contracts/GameRoom.sol\":3572:3574  10 */\n      0x0a\n        /* \"contracts/GameRoom.sol\":3566:3569  num */\n      dup2\n        /* \"contracts/GameRoom.sol\":3566:3574  num < 10 */\n      0xff\n      and\n      lt\n        /* \"contracts/GameRoom.sol\":3546:3706  for (uint8 num = 0; num < 10; num++) {... */\n      iszero\n      tag_296\n      jumpi\n        /* \"contracts/GameRoom.sol\":3598:3606  uint cnt */\n      0x00\n        /* \"contracts/GameRoom.sol\":3609:3615  config */\n      dup1\n        /* \"contracts/GameRoom.sol\":3609:3626  config.cardCounts */\n      0x05\n      add\n        /* \"contracts/GameRoom.sol\":3627:3630  num */\n      dup3\n        /* \"contracts/GameRoom.sol\":3609:3631  config.cardCounts[num] */\n      0xff\n      and\n      0x0a\n      dup2\n      lt\n      tag_298\n      jumpi\n      tag_299\n      tag_85\n      jump\t// in\n    tag_299:\n    tag_298:\n      add\n      sload\n        /* \"contracts/GameRoom.sol\":3598:3631  uint cnt = config.cardCounts[num] */\n      swap1\n      pop\n        /* \"contracts/GameRoom.sol\":3651:3657  uint i */\n      0x00\n        /* \"contracts/GameRoom.sol\":3646:3694  for (uint i = 0; i < cnt; i++) deck[idx++] = num */\n    tag_301:\n        /* \"contracts/GameRoom.sol\":3667:3670  cnt */\n      dup2\n        /* \"contracts/GameRoom.sol\":3663:3664  i */\n      dup2\n        /* \"contracts/GameRoom.sol\":3663:3670  i < cnt */\n      lt\n        /* \"contracts/GameRoom.sol\":3646:3694  for (uint i = 0; i < cnt; i++) deck[idx++] = num */\n      iszero\n      tag_302\n      jumpi\n        /* \"contracts/GameRoom.sol\":3691:3694  num */\n      dup3\n        /* \"contracts/GameRoom.sol\":3677:3694  deck[idx++] = num */\n      0xff\n      and\n        /* \"contracts/GameRoom.sol\":3677:3681  deck */\n      dup6\n        /* \"contracts/GameRoom.sol\":3682:3687  idx++ */\n      dup6\n      dup1\n      tag_304\n      swap1\n      tag_103\n      jump\t// in\n    tag_304:\n      swap7\n      pop\n        /* \"contracts/GameRoom.sol\":3677:3688  deck[idx++] */\n      dup2\n      mload\n      dup2\n      lt\n      tag_305\n      jumpi\n      tag_306\n      tag_85\n      jump\t// in\n    tag_306:\n    tag_305:\n      0x20\n      mul\n      0x20\n      add\n      add\n        /* \"contracts/GameRoom.sol\":3677:3694  deck[idx++] = num */\n      dup2\n      dup2\n      mstore\n      pop\n      pop\n        /* \"contracts/GameRoom.sol\":3672:3675  i++ */\n      dup1\n      dup1\n      0x01\n      add\n      swap2\n      pop\n      pop\n        /* \"contracts/GameRoom.sol\":3646:3694  for (uint i = 0; i < cnt; i++) deck[idx++] = num */\n      jump(tag_301)\n    tag_302:\n      pop\n        /* \"contracts/GameRoom.sol\":3583:3706  {... */\n      pop\n        /* \"contracts/GameRoom.sol\":3576:3581  num++ */\n      dup1\n      dup1\n      0x01\n      add\n      swap2\n      pop\n      pop\n        /* \"contracts/GameRoom.sol\":3546:3706  for (uint8 num = 0; num < 10; num++) {... */\n      jump(tag_295)\n    tag_296:\n      pop\n        /* \"contracts/GameRoom.sol\":3723:3729  uint i */\n      0x00\n        /* \"contracts/GameRoom.sol\":3718:3914  for (uint i = 0; i < deck.length; i++) {... */\n    tag_307:\n        /* \"contracts/GameRoom.sol\":3739:3743  deck */\n      dup3\n        /* \"contracts/GameRoom.sol\":3739:3750  deck.length */\n      mload\n        /* \"contracts/GameRoom.sol\":3735:3736  i */\n      dup2\n        /* \"contracts/GameRoom.sol\":3735:3750  i < deck.length */\n      lt\n        /* \"contracts/GameRoom.sol\":3718:3914  for (uint i = 0; i < deck.length; i++) {... */\n      iszero\n      tag_308\n      jumpi\n        /* \"contracts/GameRoom.sol\":3772:3778  uint r */\n      0x00\n        /* \"contracts/GameRoom.sol\":3837:3841  deck */\n      dup4\n        /* \"contracts/GameRoom.sol\":3837:3848  deck.length */\n      mload\n        /* \"contracts/GameRoom.sol\":3813:3828  block.timestamp */\n      timestamp\n        /* \"contracts/GameRoom.sol\":3830:3831  i */\n      dup4\n        /* \"contracts/GameRoom.sol\":3796:3832  abi.encodePacked(block.timestamp, i) */\n      add(0x20, mload(0x40))\n      tag_310\n      swap3\n      swap2\n      swap1\n      tag_278\n      jump\t// in\n    tag_310:\n      mload(0x40)\n      0x20\n      dup2\n      dup4\n      sub\n      sub\n      dup2\n      mstore\n      swap1\n      0x40\n      mstore\n        /* \"contracts/GameRoom.sol\":3786:3833  keccak256(abi.encodePacked(block.timestamp, i)) */\n      dup1\n      mload\n      swap1\n      0x20\n      add\n      keccak256\n        /* \"contracts/GameRoom.sol\":3781:3834  uint(keccak256(abi.encodePacked(block.timestamp, i))) */\n      0x00\n      shr\n        /* \"contracts/GameRoom.sol\":3781:3848  uint(keccak256(abi.encodePacked(block.timestamp, i))) % deck.length */\n      tag_311\n      swap2\n      swap1\n      tag_177\n      jump\t// in\n    tag_311:\n        /* \"contracts/GameRoom.sol\":3772:3848  uint r = uint(keccak256(abi.encodePacked(block.timestamp, i))) % deck.length */\n      swap1\n      pop\n        /* \"contracts/GameRoom.sol\":3885:3889  deck */\n      dup4\n        /* \"contracts/GameRoom.sol\":3890:3891  r */\n      dup2\n        /* \"contracts/GameRoom.sol\":3885:3892  deck[r] */\n      dup2\n      mload\n      dup2\n      lt\n      tag_312\n      jumpi\n      tag_313\n      tag_85\n      jump\t// in\n    tag_313:\n    tag_312:\n      0x20\n      mul\n      0x20\n      add\n      add\n      mload\n        /* \"contracts/GameRoom.sol\":3894:3898  deck */\n      dup5\n        /* \"contracts/GameRoom.sol\":3899:3900  i */\n      dup4\n        /* \"contracts/GameRoom.sol\":3894:3901  deck[i] */\n      dup2\n      mload\n      dup2\n      lt\n      tag_314\n      jumpi\n      tag_315\n      tag_85\n      jump\t// in\n    tag_315:\n    tag_314:\n      0x20\n      mul\n      0x20\n      add\n      add\n      mload\n        /* \"contracts/GameRoom.sol\":3864:3868  deck */\n      dup6\n        /* \"contracts/GameRoom.sol\":3869:3870  i */\n      dup5\n        /* \"contracts/GameRoom.sol\":3864:3871  deck[i] */\n      dup2\n      mload\n      dup2\n      lt\n      tag_316\n      jumpi\n      tag_317\n      tag_85\n      jump\t// in\n    tag_317:\n    tag_316:\n      0x20\n      mul\n      0x20\n      add\n      add\n        /* \"contracts/GameRoom.sol\":3873:3877  deck */\n      dup7\n        /* \"contracts/GameRoom.sol\":3878:3879  r */\n      dup5\n        /* \"contracts/GameRoom.sol\":3873:3880  deck[r] */\n      dup2\n      mload\n      dup2\n      lt\n      tag_318\n      jumpi\n      tag_319\n      tag_85\n      jump\t// in\n    tag_319:\n    tag_318:\n      0x20\n      mul\n      0x20\n      add\n      add\n        /* \"contracts/GameRoom.sol\":3863:3902  (deck[i], deck[r]) = (deck[r], deck[i]) */\n      dup3\n      dup2\n      mstore\n      pop\n      dup3\n      dup2\n      mstore\n      pop\n      pop\n      pop\n        /* \"contracts/GameRoom.sol\":3757:3914  {... */\n      pop\n        /* \"contracts/GameRoom.sol\":3752:3755  i++ */\n      dup1\n      dup1\n      0x01\n      add\n      swap2\n      pop\n      pop\n        /* \"contracts/GameRoom.sol\":3718:3914  for (uint i = 0; i < deck.length; i++) {... */\n      jump(tag_307)\n    tag_308:\n      pop\n        /* \"contracts/GameRoom.sol\":3931:3935  deck */\n      dup2\n        /* \"contracts/GameRoom.sol\":3924:3935  return deck */\n      swap4\n      pop\n      pop\n      pop\n      pop\n        /* \"contracts/GameRoom.sol\":3280:3943  function _generateFullDeck() internal view returns (uint256[] memory) {... */\n      swap1\n      jump\t// out\n    tag_70:\n      mload(0x40)\n      dup1\n      0x0140\n      add\n      0x40\n      mstore\n      dup1\n      0x0a\n      swap1\n      0x20\n      dup3\n      mul\n      dup1\n      calldatasize\n      dup4\n      calldatacopy\n      dup1\n      dup3\n      add\n      swap2\n      pop\n      pop\n      swap1\n      pop\n      pop\n      swap1\n      jump\t// out\n        /* \"#utility.yul\":7:133   */\n    tag_320:\n        /* \"#utility.yul\":44:51   */\n      0x00\n        /* \"#utility.yul\":84:126   */\n      0xffffffffffffffffffffffffffffffffffffffff\n        /* \"#utility.yul\":77:82   */\n      dup3\n        /* \"#utility.yul\":73:127   */\n      and\n        /* \"#utility.yul\":62:127   */\n      swap1\n      pop\n        /* \"#utility.yul\":7:133   */\n      swap2\n      swap1\n      pop\n      jump\t// out\n        /* \"#utility.yul\":139:199   */\n    tag_321:\n        /* \"#utility.yul\":167:170   */\n      0x00\n        /* \"#utility.yul\":188:193   */\n      dup2\n        /* \"#utility.yul\":181:193   */\n      swap1\n      pop\n        /* \"#utility.yul\":139:199   */\n      swap2\n      swap1\n      pop\n      jump\t// out\n        /* \"#utility.yul\":205:347   */\n    tag_322:\n        /* \"#utility.yul\":255:264   */\n      0x00\n        /* \"#utility.yul\":288:341   */\n      tag_404\n        /* \"#utility.yul\":306:340   */\n      tag_405\n        /* \"#utility.yul\":315:339   */\n      tag_406\n        /* \"#utility.yul\":333:338   */\n      dup5\n        /* \"#utility.yul\":315:339   */\n      tag_320\n      jump\t// in\n    tag_406:\n        /* \"#utility.yul\":306:340   */\n      tag_321\n      jump\t// in\n    tag_405:\n        /* \"#utility.yul\":288:341   */\n      tag_320\n      jump\t// in\n    tag_404:\n        /* \"#utility.yul\":275:341   */\n      swap1\n      pop\n        /* \"#utility.yul\":205:347   */\n      swap2\n      swap1\n      pop\n      jump\t// out\n        /* \"#utility.yul\":353:487   */\n    tag_323:\n        /* \"#utility.yul\":411:420   */\n      0x00\n        /* \"#utility.yul\":444:481   */\n      tag_408\n        /* \"#utility.yul\":475:480   */\n      dup3\n        /* \"#utility.yul\":444:481   */\n      tag_322\n      jump\t// in\n    tag_408:\n        /* \"#utility.yul\":431:481   */\n      swap1\n      pop\n        /* \"#utility.yul\":353:487   */\n      swap2\n      swap1\n      pop\n      jump\t// out\n        /* \"#utility.yul\":493:656   */\n    tag_324:\n        /* \"#utility.yul\":572:581   */\n      0x00\n        /* \"#utility.yul\":605:650   */\n      tag_410\n        /* \"#utility.yul\":644:649   */\n      dup3\n        /* \"#utility.yul\":605:650   */\n      tag_323\n      jump\t// in\n    tag_410:\n        /* \"#utility.yul\":592:650   */\n      swap1\n      pop\n        /* \"#utility.yul\":493:656   */\n      swap2\n      swap1\n      pop\n      jump\t// out\n        /* \"#utility.yul\":662:851   */\n    tag_325:\n        /* \"#utility.yul\":778:844   */\n      tag_412\n        /* \"#utility.yul\":838:843   */\n      dup2\n        /* \"#utility.yul\":778:844   */\n      tag_324\n      jump\t// in\n    tag_412:\n        /* \"#utility.yul\":773:776   */\n      dup3\n        /* \"#utility.yul\":766:845   */\n      mstore\n        /* \"#utility.yul\":662:851   */\n      pop\n      pop\n      jump\t// out\n        /* \"#utility.yul\":857:1137   */\n    tag_18:\n        /* \"#utility.yul\":979:983   */\n      0x00\n        /* \"#utility.yul\":1017:1019   */\n      0x20\n        /* \"#utility.yul\":1006:1015   */\n      dup3\n        /* \"#utility.yul\":1002:1020   */\n      add\n        /* \"#utility.yul\":994:1020   */\n      swap1\n      pop\n        /* \"#utility.yul\":1030:1130   */\n      tag_414\n        /* \"#utility.yul\":1127:1128   */\n      0x00\n        /* \"#utility.yul\":1116:1125   */\n      dup4\n        /* \"#utility.yul\":1112:1129   */\n      add\n        /* \"#utility.yul\":1103:1109   */\n      dup5\n        /* \"#utility.yul\":1030:1130   */\n      tag_325\n      jump\t// in\n    tag_414:\n        /* \"#utility.yul\":857:1137   */\n      swap3\n      swap2\n      pop\n      pop\n      jump\t// out\n        /* \"#utility.yul\":1224:1341   */\n    tag_327:\n        /* \"#utility.yul\":1333:1334   */\n      0x00\n        /* \"#utility.yul\":1330:1331   */\n      dup1\n        /* \"#utility.yul\":1323:1335   */\n      revert\n        /* \"#utility.yul\":1470:1566   */\n    tag_329:\n        /* \"#utility.yul\":1507:1514   */\n      0x00\n        /* \"#utility.yul\":1536:1560   */\n      tag_419\n        /* \"#utility.yul\":1554:1559   */\n      dup3\n        /* \"#utility.yul\":1536:1560   */\n      tag_320\n      jump\t// in\n    tag_419:\n        /* \"#utility.yul\":1525:1560   */\n      swap1\n      pop\n        /* \"#utility.yul\":1470:1566   */\n      swap2\n      swap1\n      pop\n      jump\t// out\n        /* \"#utility.yul\":1572:1694   */\n    tag_330:\n        /* \"#utility.yul\":1645:1669   */\n      tag_421\n        /* \"#utility.yul\":1663:1668   */\n      dup2\n        /* \"#utility.yul\":1645:1669   */\n      tag_329\n      jump\t// in\n    tag_421:\n        /* \"#utility.yul\":1638:1643   */\n      dup2\n        /* \"#utility.yul\":1635:1670   */\n      eq\n        /* \"#utility.yul\":1625:1688   */\n      tag_422\n      jumpi\n        /* \"#utility.yul\":1684:1685   */\n      0x00\n        /* \"#utility.yul\":1681:1682   */\n      dup1\n        /* \"#utility.yul\":1674:1686   */\n      revert\n        /* \"#utility.yul\":1625:1688   */\n    tag_422:\n        /* \"#utility.yul\":1572:1694   */\n      pop\n      jump\t// out\n        /* \"#utility.yul\":1700:1839   */\n    tag_331:\n        /* \"#utility.yul\":1746:1751   */\n      0x00\n        /* \"#utility.yul\":1784:1790   */\n      dup2\n        /* \"#utility.yul\":1771:1791   */\n      calldataload\n        /* \"#utility.yul\":1762:1791   */\n      swap1\n      pop\n        /* \"#utility.yul\":1800:1833   */\n      tag_424\n        /* \"#utility.yul\":1827:1832   */\n      dup2\n        /* \"#utility.yul\":1800:1833   */\n      tag_330\n      jump\t// in\n    tag_424:\n        /* \"#utility.yul\":1700:1839   */\n      swap3\n      swap2\n      pop\n      pop\n      jump\t// out\n        /* \"#utility.yul\":1845:2174   */\n    tag_22:\n        /* \"#utility.yul\":1904:1910   */\n      0x00\n        /* \"#utility.yul\":1953:1955   */\n      0x20\n        /* \"#utility.yul\":1941:1950   */\n      dup3\n        /* \"#utility.yul\":1932:1939   */\n      dup5\n        /* \"#utility.yul\":1928:1951   */\n      sub\n        /* \"#utility.yul\":1924:1956   */\n      slt\n        /* \"#utility.yul\":1921:2040   */\n      iszero\n      tag_426\n      jumpi\n        /* \"#utility.yul\":1959:2038   */\n      tag_427\n      tag_327\n      jump\t// in\n    tag_427:\n        /* \"#utility.yul\":1921:2040   */\n    tag_426:\n        /* \"#utility.yul\":2079:2080   */\n      0x00\n        /* \"#utility.yul\":2104:2157   */\n      tag_428\n        /* \"#utility.yul\":2149:2156   */\n      dup5\n        /* \"#utility.yul\":2140:2146   */\n      dup3\n        /* \"#utility.yul\":2129:2138   */\n      dup6\n        /* \"#utility.yul\":2125:2147   */\n      add\n        /* \"#utility.yul\":2104:2157   */\n      tag_331\n      jump\t// in\n    tag_428:\n        /* \"#utility.yul\":2094:2157   */\n      swap2\n      pop\n        /* \"#utility.yul\":2050:2167   */\n      pop\n        /* \"#utility.yul\":1845:2174   */\n      swap3\n      swap2\n      pop\n      pop\n      jump\t// out\n        /* \"#utility.yul\":2180:2298   */\n    tag_332:\n        /* \"#utility.yul\":2267:2291   */\n      tag_430\n        /* \"#utility.yul\":2285:2290   */\n      dup2\n        /* \"#utility.yul\":2267:2291   */\n      tag_329\n      jump\t// in\n    tag_430:\n        /* \"#utility.yul\":2262:2265   */\n      dup3\n        /* \"#utility.yul\":2255:2292   */\n      mstore\n        /* \"#utility.yul\":2180:2298   */\n      pop\n      pop\n      jump\t// out\n        /* \"#utility.yul\":2304:2381   */\n    tag_333:\n        /* \"#utility.yul\":2341:2348   */\n      0x00\n        /* \"#utility.yul\":2370:2375   */\n      dup2\n        /* \"#utility.yul\":2359:2375   */\n      swap1\n      pop\n        /* \"#utility.yul\":2304:2381   */\n      swap2\n      swap1\n      pop\n      jump\t// out\n        /* \"#utility.yul\":2387:2505   */\n    tag_334:\n        /* \"#utility.yul\":2474:2498   */\n      tag_433\n        /* \"#utility.yul\":2492:2497   */\n      dup2\n        /* \"#utility.yul\":2474:2498   */\n      tag_333\n      jump\t// in\n    tag_433:\n        /* \"#utility.yul\":2469:2472   */\n      dup3\n        /* \"#utility.yul\":2462:2499   */\n      mstore\n        /* \"#utility.yul\":2387:2505   */\n      pop\n      pop\n      jump\t// out\n        /* \"#utility.yul\":2511:2601   */\n    tag_335:\n        /* \"#utility.yul\":2545:2552   */\n      0x00\n        /* \"#utility.yul\":2588:2593   */\n      dup2\n        /* \"#utility.yul\":2581:2594   */\n      iszero\n        /* \"#utility.yul\":2574:2595   */\n      iszero\n        /* \"#utility.yul\":2563:2595   */\n      swap1\n      pop\n        /* \"#utility.yul\":2511:2601   */\n      swap2\n      swap1\n      pop\n      jump\t// out\n        /* \"#utility.yul\":2607:2716   */\n    tag_336:\n        /* \"#utility.yul\":2688:2709   */\n      tag_436\n        /* \"#utility.yul\":2703:2708   */\n      dup2\n        /* \"#utility.yul\":2688:2709   */\n      tag_335\n      jump\t// in\n    tag_436:\n        /* \"#utility.yul\":2683:2686   */\n      dup3\n        /* \"#utility.yul\":2676:2710   */\n      mstore\n        /* \"#utility.yul\":2607:2716   */\n      pop\n      pop\n      jump\t// out\n        /* \"#utility.yul\":2722:3362   */\n    tag_25:\n        /* \"#utility.yul\":2915:2919   */\n      0x00\n        /* \"#utility.yul\":2953:2956   */\n      0xa0\n        /* \"#utility.yul\":2942:2951   */\n      dup3\n        /* \"#utility.yul\":2938:2957   */\n      add\n        /* \"#utility.yul\":2930:2957   */\n      swap1\n      pop\n        /* \"#utility.yul\":2967:3038   */\n      tag_438\n        /* \"#utility.yul\":3035:3036   */\n      0x00\n        /* \"#utility.yul\":3024:3033   */\n      dup4\n        /* \"#utility.yul\":3020:3037   */\n      add\n        /* \"#utility.yul\":3011:3017   */\n      dup9\n        /* \"#utility.yul\":2967:3038   */\n      tag_332\n      jump\t// in\n    tag_438:\n        /* \"#utility.yul\":3048:3120   */\n      tag_439\n        /* \"#utility.yul\":3116:3118   */\n      0x20\n        /* \"#utility.yul\":3105:3114   */\n      dup4\n        /* \"#utility.yul\":3101:3119   */\n      add\n        /* \"#utility.yul\":3092:3098   */\n      dup8\n        /* \"#utility.yul\":3048:3120   */\n      tag_334\n      jump\t// in\n    tag_439:\n        /* \"#utility.yul\":3130:3196   */\n      tag_440\n        /* \"#utility.yul\":3192:3194   */\n      0x40\n        /* \"#utility.yul\":3181:3190   */\n      dup4\n        /* \"#utility.yul\":3177:3195   */\n      add\n        /* \"#utility.yul\":3168:3174   */\n      dup7\n        /* \"#utility.yul\":3130:3196   */\n      tag_336\n      jump\t// in\n    tag_440:\n        /* \"#utility.yul\":3206:3272   */\n      tag_441\n        /* \"#utility.yul\":3268:3270   */\n      0x60\n        /* \"#utility.yul\":3257:3266   */\n      dup4\n        /* \"#utility.yul\":3253:3271   */\n      add\n        /* \"#utility.yul\":3244:3250   */\n      dup6\n        /* \"#utility.yul\":3206:3272   */\n      tag_336\n      jump\t// in\n    tag_441:\n        /* \"#utility.yul\":3282:3355   */\n      tag_442\n        /* \"#utility.yul\":3350:3353   */\n      0x80\n        /* \"#utility.yul\":3339:3348   */\n      dup4\n        /* \"#utility.yul\":3335:3354   */\n      add\n        /* \"#utility.yul\":3326:3332   */\n      dup5\n        /* \"#utility.yul\":3282:3355   */\n      tag_334\n      jump\t// in\n    tag_442:\n        /* \"#utility.yul\":2722:3362   */\n      swap7\n      swap6\n      pop\n      pop\n      pop\n      pop\n      pop\n      pop\n      jump\t// out\n        /* \"#utility.yul\":3368:4032   */\n    tag_30:\n        /* \"#utility.yul\":3573:3577   */\n      0x00\n        /* \"#utility.yul\":3611:3614   */\n      0xa0\n        /* \"#utility.yul\":3600:3609   */\n      dup3\n        /* \"#utility.yul\":3596:3615   */\n      add\n        /* \"#utility.yul\":3588:3615   */\n      swap1\n      pop\n        /* \"#utility.yul\":3625:3696   */\n      tag_444\n        /* \"#utility.yul\":3693:3694   */\n      0x00\n        /* \"#utility.yul\":3682:3691   */\n      dup4\n        /* \"#utility.yul\":3678:3695   */\n      add\n        /* \"#utility.yul\":3669:3675   */\n      dup9\n        /* \"#utility.yul\":3625:3696   */\n      tag_334\n      jump\t// in\n    tag_444:\n        /* \"#utility.yul\":3706:3778   */\n      tag_445\n        /* \"#utility.yul\":3774:3776   */\n      0x20\n        /* \"#utility.yul\":3763:3772   */\n      dup4\n        /* \"#utility.yul\":3759:3777   */\n      add\n        /* \"#utility.yul\":3750:3756   */\n      dup8\n        /* \"#utility.yul\":3706:3778   */\n      tag_334\n      jump\t// in\n    tag_445:\n        /* \"#utility.yul\":3788:3860   */\n      tag_446\n        /* \"#utility.yul\":3856:3858   */\n      0x40\n        /* \"#utility.yul\":3845:3854   */\n      dup4\n        /* \"#utility.yul\":3841:3859   */\n      add\n        /* \"#utility.yul\":3832:3838   */\n      dup7\n        /* \"#utility.yul\":3788:3860   */\n      tag_334\n      jump\t// in\n    tag_446:\n        /* \"#utility.yul\":3870:3942   */\n      tag_447\n        /* \"#utility.yul\":3938:3940   */\n      0x60\n        /* \"#utility.yul\":3927:3936   */\n      dup4\n        /* \"#utility.yul\":3923:3941   */\n      add\n        /* \"#utility.yul\":3914:3920   */\n      dup6\n        /* \"#utility.yul\":3870:3942   */\n      tag_334\n      jump\t// in\n    tag_447:\n        /* \"#utility.yul\":3952:4025   */\n      tag_448\n        /* \"#utility.yul\":4020:4023   */\n      0x80\n        /* \"#utility.yul\":4009:4018   */\n      dup4\n        /* \"#utility.yul\":4005:4024   */\n      add\n        /* \"#utility.yul\":3996:4002   */\n      dup5\n        /* \"#utility.yul\":3952:4025   */\n      tag_334\n      jump\t// in\n    tag_448:\n        /* \"#utility.yul\":3368:4032   */\n      swap7\n      swap6\n      pop\n      pop\n      pop\n      pop\n      pop\n      pop\n      jump\t// out\n        /* \"#utility.yul\":4038:4143   */\n    tag_337:\n        /* \"#utility.yul\":4104:4110   */\n      0x00\n        /* \"#utility.yul\":4132:4136   */\n      0x0a\n        /* \"#utility.yul\":4122:4136   */\n      swap1\n      pop\n        /* \"#utility.yul\":4038:4143   */\n      swap2\n      swap1\n      pop\n      jump\t// out\n        /* \"#utility.yul\":4149:4293   */\n    tag_338:\n        /* \"#utility.yul\":4247:4258   */\n      0x00\n        /* \"#utility.yul\":4284:4287   */\n      dup2\n        /* \"#utility.yul\":4269:4287   */\n      swap1\n      pop\n        /* \"#utility.yul\":4149:4293   */\n      swap3\n      swap2\n      pop\n      pop\n      jump\t// out\n        /* \"#utility.yul\":4299:4398   */\n    tag_339:\n        /* \"#utility.yul\":4365:4369   */\n      0x00\n        /* \"#utility.yul\":4388:4391   */\n      dup2\n        /* \"#utility.yul\":4380:4391   */\n      swap1\n      pop\n        /* \"#utility.yul\":4299:4398   */\n      swap2\n      swap1\n      pop\n      jump\t// out\n        /* \"#utility.yul\":4404:4512   */\n    tag_340:\n        /* \"#utility.yul\":4481:4505   */\n      tag_453\n        /* \"#utility.yul\":4499:4504   */\n      dup2\n        /* \"#utility.yul\":4481:4505   */\n      tag_333\n      jump\t// in\n    tag_453:\n        /* \"#utility.yul\":4476:4479   */\n      dup3\n        /* \"#utility.yul\":4469:4506   */\n      mstore\n        /* \"#utility.yul\":4404:4512   */\n      pop\n      pop\n      jump\t// out\n        /* \"#utility.yul\":4518:4697   */\n    tag_341:\n        /* \"#utility.yul\":4587:4597   */\n      0x00\n        /* \"#utility.yul\":4608:4654   */\n      tag_455\n        /* \"#utility.yul\":4650:4653   */\n      dup4\n        /* \"#utility.yul\":4642:4648   */\n      dup4\n        /* \"#utility.yul\":4608:4654   */\n      tag_340\n      jump\t// in\n    tag_455:\n        /* \"#utility.yul\":4686:4690   */\n      0x20\n        /* \"#utility.yul\":4681:4684   */\n      dup4\n        /* \"#utility.yul\":4677:4691   */\n      add\n        /* \"#utility.yul\":4663:4691   */\n      swap1\n      pop\n        /* \"#utility.yul\":4518:4697   */\n      swap3\n      swap2\n      pop\n      pop\n      jump\t// out\n        /* \"#utility.yul\":4703:4815   */\n    tag_342:\n        /* \"#utility.yul\":4772:4776   */\n      0x00\n        /* \"#utility.yul\":4804:4808   */\n      0x20\n        /* \"#utility.yul\":4799:4802   */\n      dup3\n        /* \"#utility.yul\":4795:4809   */\n      add\n        /* \"#utility.yul\":4787:4809   */\n      swap1\n      pop\n        /* \"#utility.yul\":4703:4815   */\n      swap2\n      swap1\n      pop\n      jump\t// out\n        /* \"#utility.yul\":4855:5555   */\n    tag_343:\n        /* \"#utility.yul\":4993:5046   */\n      tag_458\n        /* \"#utility.yul\":5040:5045   */\n      dup2\n        /* \"#utility.yul\":4993:5046   */\n      tag_337\n      jump\t// in\n    tag_458:\n        /* \"#utility.yul\":5062:5147   */\n      tag_459\n        /* \"#utility.yul\":5140:5146   */\n      dup2\n        /* \"#utility.yul\":5135:5138   */\n      dup5\n        /* \"#utility.yul\":5062:5147   */\n      tag_338\n      jump\t// in\n    tag_459:\n        /* \"#utility.yul\":5055:5147   */\n      swap3\n      pop\n        /* \"#utility.yul\":5171:5226   */\n      tag_460\n        /* \"#utility.yul\":5220:5225   */\n      dup3\n        /* \"#utility.yul\":5171:5226   */\n      tag_339\n      jump\t// in\n    tag_460:\n        /* \"#utility.yul\":5249:5256   */\n      dup1\n        /* \"#utility.yul\":5280:5281   */\n      0x00\n        /* \"#utility.yul\":5265:5548   */\n    tag_461:\n        /* \"#utility.yul\":5290:5296   */\n      dup4\n        /* \"#utility.yul\":5287:5288   */\n      dup2\n        /* \"#utility.yul\":5284:5297   */\n      lt\n        /* \"#utility.yul\":5265:5548   */\n      iszero\n      tag_463\n      jumpi\n        /* \"#utility.yul\":5366:5372   */\n      dup2\n        /* \"#utility.yul\":5360:5373   */\n      mload\n        /* \"#utility.yul\":5393:5456   */\n      tag_464\n        /* \"#utility.yul\":5452:5455   */\n      dup8\n        /* \"#utility.yul\":5437:5450   */\n      dup3\n        /* \"#utility.yul\":5393:5456   */\n      tag_341\n      jump\t// in\n    tag_464:\n        /* \"#utility.yul\":5386:5456   */\n      swap7\n      pop\n        /* \"#utility.yul\":5479:5538   */\n      tag_465\n        /* \"#utility.yul\":5531:5537   */\n      dup4\n        /* \"#utility.yul\":5479:5538   */\n      tag_342\n      jump\t// in\n    tag_465:\n        /* \"#utility.yul\":5469:5538   */\n      swap3\n      pop\n        /* \"#utility.yul\":5325:5548   */\n      pop\n        /* \"#utility.yul\":5312:5313   */\n      0x01\n        /* \"#utility.yul\":5309:5310   */\n      dup2\n        /* \"#utility.yul\":5305:5314   */\n      add\n        /* \"#utility.yul\":5300:5314   */\n      swap1\n      pop\n        /* \"#utility.yul\":5265:5548   */\n      jump(tag_461)\n    tag_463:\n        /* \"#utility.yul\":5269:5283   */\n      pop\n        /* \"#utility.yul\":4969:5555   */\n      pop\n      pop\n      pop\n        /* \"#utility.yul\":4855:5555   */\n      pop\n      pop\n      jump\t// out\n        /* \"#utility.yul\":5561:5991   */\n    tag_36:\n        /* \"#utility.yul\":5730:5734   */\n      0x00\n        /* \"#utility.yul\":5768:5771   */\n      0x0160\n        /* \"#utility.yul\":5757:5766   */\n      dup3\n        /* \"#utility.yul\":5753:5772   */\n      add\n        /* \"#utility.yul\":5745:5772   */\n      swap1\n      pop\n        /* \"#utility.yul\":5782:5901   */\n      tag_467\n        /* \"#utility.yul\":5898:5899   */\n      0x00\n        /* \"#utility.yul\":5887:5896   */\n      dup4\n        /* \"#utility.yul\":5883:5900   */\n      add\n        /* \"#utility.yul\":5874:5880   */\n      dup6\n        /* \"#utility.yul\":5782:5901   */\n      tag_343\n      jump\t// in\n    tag_467:\n        /* \"#utility.yul\":5911:5984   */\n      tag_468\n        /* \"#utility.yul\":5979:5982   */\n      0x0140\n        /* \"#utility.yul\":5968:5977   */\n      dup4\n        /* \"#utility.yul\":5964:5983   */\n      add\n        /* \"#utility.yul\":5955:5961   */\n      dup5\n        /* \"#utility.yul\":5911:5984   */\n      tag_334\n      jump\t// in\n    tag_468:\n        /* \"#utility.yul\":5561:5991   */\n      swap4\n      swap3\n      pop\n      pop\n      pop\n      jump\t// out\n        /* \"#utility.yul\":5997:6083   */\n    tag_344:\n        /* \"#utility.yul\":6032:6039   */\n      0x00\n        /* \"#utility.yul\":6072:6076   */\n      0xff\n        /* \"#utility.yul\":6065:6070   */\n      dup3\n        /* \"#utility.yul\":6061:6077   */\n      and\n        /* \"#utility.yul\":6050:6077   */\n      swap1\n      pop\n        /* \"#utility.yul\":5997:6083   */\n      swap2\n      swap1\n      pop\n      jump\t// out\n        /* \"#utility.yul\":6089:6207   */\n    tag_345:\n        /* \"#utility.yul\":6160:6182   */\n      tag_471\n        /* \"#utility.yul\":6176:6181   */\n      dup2\n        /* \"#utility.yul\":6160:6182   */\n      tag_344\n      jump\t// in\n    tag_471:\n        /* \"#utility.yul\":6153:6158   */\n      dup2\n        /* \"#utility.yul\":6150:6183   */\n      eq\n        /* \"#utility.yul\":6140:6201   */\n      tag_472\n      jumpi\n        /* \"#utility.yul\":6197:6198   */\n      0x00\n        /* \"#utility.yul\":6194:6195   */\n      dup1\n        /* \"#utility.yul\":6187:6199   */\n      revert\n        /* \"#utility.yul\":6140:6201   */\n    tag_472:\n        /* \"#utility.yul\":6089:6207   */\n      pop\n      jump\t// out\n        /* \"#utility.yul\":6213:6348   */\n    tag_346:\n        /* \"#utility.yul\":6257:6262   */\n      0x00\n        /* \"#utility.yul\":6295:6301   */\n      dup2\n        /* \"#utility.yul\":6282:6302   */\n      calldataload\n        /* \"#utility.yul\":6273:6302   */\n      swap1\n      pop\n        /* \"#utility.yul\":6311:6342   */\n      tag_474\n        /* \"#utility.yul\":6336:6341   */\n      dup2\n        /* \"#utility.yul\":6311:6342   */\n      tag_345\n      jump\t// in\n    tag_474:\n        /* \"#utility.yul\":6213:6348   */\n      swap3\n      swap2\n      pop\n      pop\n      jump\t// out\n        /* \"#utility.yul\":6354:6824   */\n    tag_40:\n        /* \"#utility.yul\":6420:6426   */\n      0x00\n        /* \"#utility.yul\":6428:6434   */\n      dup1\n        /* \"#utility.yul\":6477:6479   */\n      0x40\n        /* \"#utility.yul\":6465:6474   */\n      dup4\n        /* \"#utility.yul\":6456:6463   */\n      dup6\n        /* \"#utility.yul\":6452:6475   */\n      sub\n        /* \"#utility.yul\":6448:6480   */\n      slt\n        /* \"#utility.yul\":6445:6564   */\n      iszero\n      tag_476\n      jumpi\n        /* \"#utility.yul\":6483:6562   */\n      tag_477\n      tag_327\n      jump\t// in\n    tag_477:\n        /* \"#utility.yul\":6445:6564   */\n    tag_476:\n        /* \"#utility.yul\":6603:6604   */\n      0x00\n        /* \"#utility.yul\":6628:6681   */\n      tag_478\n        /* \"#utility.yul\":6673:6680   */\n      dup6\n        /* \"#utility.yul\":6664:6670   */\n      dup3\n        /* \"#utility.yul\":6653:6662   */\n      dup7\n        /* \"#utility.yul\":6649:6671   */\n      add\n        /* \"#utility.yul\":6628:6681   */\n      tag_331\n      jump\t// in\n    tag_478:\n        /* \"#utility.yul\":6618:6681   */\n      swap3\n      pop\n        /* \"#utility.yul\":6574:6691   */\n      pop\n        /* \"#utility.yul\":6730:6732   */\n      0x20\n        /* \"#utility.yul\":6756:6807   */\n      tag_479\n        /* \"#utility.yul\":6799:6806   */\n      dup6\n        /* \"#utility.yul\":6790:6796   */\n      dup3\n        /* \"#utility.yul\":6779:6788   */\n      dup7\n        /* \"#utility.yul\":6775:6797   */\n      add\n        /* \"#utility.yul\":6756:6807   */\n      tag_346\n      jump\t// in\n    tag_479:\n        /* \"#utility.yul\":6746:6807   */\n      swap2\n      pop\n        /* \"#utility.yul\":6701:6817   */\n      pop\n        /* \"#utility.yul\":6354:6824   */\n      swap3\n      pop\n      swap3\n      swap1\n      pop\n      jump\t// out\n        /* \"#utility.yul\":6830:7010   */\n    tag_77:\n        /* \"#utility.yul\":6878:6955   */\n      0x4e487b7100000000000000000000000000000000000000000000000000000000\n        /* \"#utility.yul\":6875:6876   */\n      0x00\n        /* \"#utility.yul\":6868:6956   */\n      mstore\n        /* \"#utility.yul\":6975:6979   */\n      0x21\n        /* \"#utility.yul\":6972:6973   */\n      0x04\n        /* \"#utility.yul\":6965:6980   */\n      mstore\n        /* \"#utility.yul\":6999:7003   */\n      0x24\n        /* \"#utility.yul\":6996:6997   */\n      0x00\n        /* \"#utility.yul\":6989:7004   */\n      revert\n        /* \"#utility.yul\":7016:7132   */\n    tag_347:\n        /* \"#utility.yul\":7100:7101   */\n      0x03\n        /* \"#utility.yul\":7093:7098   */\n      dup2\n        /* \"#utility.yul\":7090:7102   */\n      lt\n        /* \"#utility.yul\":7080:7126   */\n      tag_482\n      jumpi\n        /* \"#utility.yul\":7106:7124   */\n      tag_483\n      tag_77\n      jump\t// in\n    tag_483:\n        /* \"#utility.yul\":7080:7126   */\n    tag_482:\n        /* \"#utility.yul\":7016:7132   */\n      pop\n      jump\t// out\n        /* \"#utility.yul\":7138:7271   */\n    tag_348:\n        /* \"#utility.yul\":7186:7193   */\n      0x00\n        /* \"#utility.yul\":7215:7220   */\n      dup2\n        /* \"#utility.yul\":7204:7220   */\n      swap1\n      pop\n        /* \"#utility.yul\":7221:7265   */\n      tag_485\n        /* \"#utility.yul\":7259:7264   */\n      dup3\n        /* \"#utility.yul\":7221:7265   */\n      tag_347\n      jump\t// in\n    tag_485:\n        /* \"#utility.yul\":7138:7271   */\n      swap2\n      swap1\n      pop\n      jump\t// out\n        /* \"#utility.yul\":7277:7410   */\n    tag_349:\n        /* \"#utility.yul\":7336:7345   */\n      0x00\n        /* \"#utility.yul\":7369:7404   */\n      tag_487\n        /* \"#utility.yul\":7398:7403   */\n      dup3\n        /* \"#utility.yul\":7369:7404   */\n      tag_348\n      jump\t// in\n    tag_487:\n        /* \"#utility.yul\":7356:7404   */\n      swap1\n      pop\n        /* \"#utility.yul\":7277:7410   */\n      swap2\n      swap1\n      pop\n      jump\t// out\n        /* \"#utility.yul\":7416:7565   */\n    tag_350:\n        /* \"#utility.yul\":7512:7558   */\n      tag_489\n        /* \"#utility.yul\":7552:7557   */\n      dup2\n        /* \"#utility.yul\":7512:7558   */\n      tag_349\n      jump\t// in\n    tag_489:\n        /* \"#utility.yul\":7507:7510   */\n      dup3\n        /* \"#utility.yul\":7500:7559   */\n      mstore\n        /* \"#utility.yul\":7416:7565   */\n      pop\n      pop\n      jump\t// out\n        /* \"#utility.yul\":7571:7811   */\n    tag_46:\n        /* \"#utility.yul\":7673:7677   */\n      0x00\n        /* \"#utility.yul\":7711:7713   */\n      0x20\n        /* \"#utility.yul\":7700:7709   */\n      dup3\n        /* \"#utility.yul\":7696:7714   */\n      add\n        /* \"#utility.yul\":7688:7714   */\n      swap1\n      pop\n        /* \"#utility.yul\":7724:7804   */\n      tag_491\n        /* \"#utility.yul\":7801:7802   */\n      0x00\n        /* \"#utility.yul\":7790:7799   */\n      dup4\n        /* \"#utility.yul\":7786:7803   */\n      add\n        /* \"#utility.yul\":7777:7783   */\n      dup5\n        /* \"#utility.yul\":7724:7804   */\n      tag_350\n      jump\t// in\n    tag_491:\n        /* \"#utility.yul\":7571:7811   */\n      swap3\n      swap2\n      pop\n      pop\n      jump\t// out\n        /* \"#utility.yul\":7817:8039   */\n    tag_53:\n        /* \"#utility.yul\":7910:7914   */\n      0x00\n        /* \"#utility.yul\":7948:7950   */\n      0x20\n        /* \"#utility.yul\":7937:7946   */\n      dup3\n        /* \"#utility.yul\":7933:7951   */\n      add\n        /* \"#utility.yul\":7925:7951   */\n      swap1\n      pop\n        /* \"#utility.yul\":7961:8032   */\n      tag_493\n        /* \"#utility.yul\":8029:8030   */\n      0x00\n        /* \"#utility.yul\":8018:8027   */\n      dup4\n        /* \"#utility.yul\":8014:8031   */\n      add\n        /* \"#utility.yul\":8005:8011   */\n      dup5\n        /* \"#utility.yul\":7961:8032   */\n      tag_334\n      jump\t// in\n    tag_493:\n        /* \"#utility.yul\":7817:8039   */\n      swap3\n      swap2\n      pop\n      pop\n      jump\t// out\n        /* \"#utility.yul\":8045:8267   */\n    tag_58:\n        /* \"#utility.yul\":8138:8142   */\n      0x00\n        /* \"#utility.yul\":8176:8178   */\n      0x20\n        /* \"#utility.yul\":8165:8174   */\n      dup3\n        /* \"#utility.yul\":8161:8179   */\n      add\n        /* \"#utility.yul\":8153:8179   */\n      swap1\n      pop\n        /* \"#utility.yul\":8189:8260   */\n      tag_495\n        /* \"#utility.yul\":8257:8258   */\n      0x00\n        /* \"#utility.yul\":8246:8255   */\n      dup4\n        /* \"#utility.yul\":8242:8259   */\n      add\n        /* \"#utility.yul\":8233:8239   */\n      dup5\n        /* \"#utility.yul\":8189:8260   */\n      tag_332\n      jump\t// in\n    tag_495:\n        /* \"#utility.yul\":8045:8267   */\n      swap3\n      swap2\n      pop\n      pop\n      jump\t// out\n        /* \"#utility.yul\":8273:8395   */\n    tag_351:\n        /* \"#utility.yul\":8346:8370   */\n      tag_497\n        /* \"#utility.yul\":8364:8369   */\n      dup2\n        /* \"#utility.yul\":8346:8370   */\n      tag_333\n      jump\t// in\n    tag_497:\n        /* \"#utility.yul\":8339:8344   */\n      dup2\n        /* \"#utility.yul\":8336:8371   */\n      eq\n        /* \"#utility.yul\":8326:8389   */\n      tag_498\n      jumpi\n        /* \"#utility.yul\":8385:8386   */\n      0x00\n        /* \"#utility.yul\":8382:8383   */\n      dup1\n        /* \"#utility.yul\":8375:8387   */\n      revert\n        /* \"#utility.yul\":8326:8389   */\n    tag_498:\n        /* \"#utility.yul\":8273:8395   */\n      pop\n      jump\t// out\n        /* \"#utility.yul\":8401:8540   */\n    tag_352:\n        /* \"#utility.yul\":8447:8452   */\n      0x00\n        /* \"#utility.yul\":8485:8491   */\n      dup2\n        /* \"#utility.yul\":8472:8492   */\n      calldataload\n        /* \"#utility.yul\":8463:8492   */\n      swap1\n      pop\n        /* \"#utility.yul\":8501:8534   */\n      tag_500\n        /* \"#utility.yul\":8528:8533   */\n      dup2\n        /* \"#utility.yul\":8501:8534   */\n      tag_351\n      jump\t// in\n    tag_500:\n        /* \"#utility.yul\":8401:8540   */\n      swap3\n      swap2\n      pop\n      pop\n      jump\t// out\n        /* \"#utility.yul\":8546:8875   */\n    tag_62:\n        /* \"#utility.yul\":8605:8611   */\n      0x00\n        /* \"#utility.yul\":8654:8656   */\n      0x20\n        /* \"#utility.yul\":8642:8651   */\n      dup3\n        /* \"#utility.yul\":8633:8640   */\n      dup5\n        /* \"#utility.yul\":8629:8652   */\n      sub\n        /* \"#utility.yul\":8625:8657   */\n      slt\n        /* \"#utility.yul\":8622:8741   */\n      iszero\n      tag_502\n      jumpi\n        /* \"#utility.yul\":8660:8739   */\n      tag_503\n      tag_327\n      jump\t// in\n    tag_503:\n        /* \"#utility.yul\":8622:8741   */\n    tag_502:\n        /* \"#utility.yul\":8780:8781   */\n      0x00\n        /* \"#utility.yul\":8805:8858   */\n      tag_504\n        /* \"#utility.yul\":8850:8857   */\n      dup5\n        /* \"#utility.yul\":8841:8847   */\n      dup3\n        /* \"#utility.yul\":8830:8839   */\n      dup6\n        /* \"#utility.yul\":8826:8848   */\n      add\n        /* \"#utility.yul\":8805:8858   */\n      tag_352\n      jump\t// in\n    tag_504:\n        /* \"#utility.yul\":8795:8858   */\n      swap2\n      pop\n        /* \"#utility.yul\":8751:8868   */\n      pop\n        /* \"#utility.yul\":8546:8875   */\n      swap3\n      swap2\n      pop\n      pop\n      jump\t// out\n        /* \"#utility.yul\":8881:9050   */\n    tag_353:\n        /* \"#utility.yul\":8965:8976   */\n      0x00\n        /* \"#utility.yul\":8999:9005   */\n      dup3\n        /* \"#utility.yul\":8994:8997   */\n      dup3\n        /* \"#utility.yul\":8987:9006   */\n      mstore\n        /* \"#utility.yul\":9039:9043   */\n      0x20\n        /* \"#utility.yul\":9034:9037   */\n      dup3\n        /* \"#utility.yul\":9030:9044   */\n      add\n        /* \"#utility.yul\":9015:9044   */\n      swap1\n      pop\n        /* \"#utility.yul\":8881:9050   */\n      swap3\n      swap2\n      pop\n      pop\n      jump\t// out\n        /* \"#utility.yul\":9056:9214   */\n    tag_354:\n        /* \"#utility.yul\":9196:9206   */\n      0x21706c6179696e67000000000000000000000000000000000000000000000000\n        /* \"#utility.yul\":9192:9193   */\n      0x00\n        /* \"#utility.yul\":9184:9190   */\n      dup3\n        /* \"#utility.yul\":9180:9194   */\n      add\n        /* \"#utility.yul\":9173:9207   */\n      mstore\n        /* \"#utility.yul\":9056:9214   */\n      pop\n      jump\t// out\n        /* \"#utility.yul\":9220:9585   */\n    tag_355:\n        /* \"#utility.yul\":9362:9365   */\n      0x00\n        /* \"#utility.yul\":9383:9449   */\n      tag_508\n        /* \"#utility.yul\":9447:9448   */\n      0x08\n        /* \"#utility.yul\":9442:9445   */\n      dup4\n        /* \"#utility.yul\":9383:9449   */\n      tag_353\n      jump\t// in\n    tag_508:\n        /* \"#utility.yul\":9376:9449   */\n      swap2\n      pop\n        /* \"#utility.yul\":9458:9551   */\n      tag_509\n        /* \"#utility.yul\":9547:9550   */\n      dup3\n        /* \"#utility.yul\":9458:9551   */\n      tag_354\n      jump\t// in\n    tag_509:\n        /* \"#utility.yul\":9576:9578   */\n      0x20\n        /* \"#utility.yul\":9571:9574   */\n      dup3\n        /* \"#utility.yul\":9567:9579   */\n      add\n        /* \"#utility.yul\":9560:9579   */\n      swap1\n      pop\n        /* \"#utility.yul\":9220:9585   */\n      swap2\n      swap1\n      pop\n      jump\t// out\n        /* \"#utility.yul\":9591:10010   */\n    tag_82:\n        /* \"#utility.yul\":9757:9761   */\n      0x00\n        /* \"#utility.yul\":9795:9797   */\n      0x20\n        /* \"#utility.yul\":9784:9793   */\n      dup3\n        /* \"#utility.yul\":9780:9798   */\n      add\n        /* \"#utility.yul\":9772:9798   */\n      swap1\n      pop\n        /* \"#utility.yul\":9844:9853   */\n      dup2\n        /* \"#utility.yul\":9838:9842   */\n      dup2\n        /* \"#utility.yul\":9834:9854   */\n      sub\n        /* \"#utility.yul\":9830:9831   */\n      0x00\n        /* \"#utility.yul\":9819:9828   */\n      dup4\n        /* \"#utility.yul\":9815:9832   */\n      add\n        /* \"#utility.yul\":9808:9855   */\n      mstore\n        /* \"#utility.yul\":9872:10003   */\n      tag_511\n        /* \"#utility.yul\":9998:10002   */\n      dup2\n        /* \"#utility.yul\":9872:10003   */\n      tag_355\n      jump\t// in\n    tag_511:\n        /* \"#utility.yul\":9864:10003   */\n      swap1\n      pop\n        /* \"#utility.yul\":9591:10010   */\n      swap2\n      swap1\n      pop\n      jump\t// out\n        /* \"#utility.yul\":10016:10196   */\n    tag_85:\n        /* \"#utility.yul\":10064:10141   */\n      0x4e487b7100000000000000000000000000000000000000000000000000000000\n        /* \"#utility.yul\":10061:10062   */\n      0x00\n        /* \"#utility.yul\":10054:10142   */\n      mstore\n        /* \"#utility.yul\":10161:10165   */\n      0x32\n        /* \"#utility.yul\":10158:10159   */\n      0x04\n        /* \"#utility.yul\":10151:10166   */\n      mstore\n        /* \"#utility.yul\":10185:10189   */\n      0x24\n        /* \"#utility.yul\":10182:10183   */\n      0x00\n        /* \"#utility.yul\":10175:10190   */\n      revert\n        /* \"#utility.yul\":10202:10357   */\n    tag_356:\n        /* \"#utility.yul\":10342:10349   */\n      0x217475726e000000000000000000000000000000000000000000000000000000\n        /* \"#utility.yul\":10338:10339   */\n      0x00\n        /* \"#utility.yul\":10330:10336   */\n      dup3\n        /* \"#utility.yul\":10326:10340   */\n      add\n        /* \"#utility.yul\":10319:10350   */\n      mstore\n        /* \"#utility.yul\":10202:10357   */\n      pop\n      jump\t// out\n        /* \"#utility.yul\":10363:10728   */\n    tag_357:\n        /* \"#utility.yul\":10505:10508   */\n      0x00\n        /* \"#utility.yul\":10526:10592   */\n      tag_515\n        /* \"#utility.yul\":10590:10591   */\n      0x05\n        /* \"#utility.yul\":10585:10588   */\n      dup4\n        /* \"#utility.yul\":10526:10592   */\n      tag_353\n      jump\t// in\n    tag_515:\n        /* \"#utility.yul\":10519:10592   */\n      swap2\n      pop\n        /* \"#utility.yul\":10601:10694   */\n      tag_516\n        /* \"#utility.yul\":10690:10693   */\n      dup3\n        /* \"#utility.yul\":10601:10694   */\n      tag_356\n      jump\t// in\n    tag_516:\n        /* \"#utility.yul\":10719:10721   */\n      0x20\n        /* \"#utility.yul\":10714:10717   */\n      dup3\n        /* \"#utility.yul\":10710:10722   */\n      add\n        /* \"#utility.yul\":10703:10722   */\n      swap1\n      pop\n        /* \"#utility.yul\":10363:10728   */\n      swap2\n      swap1\n      pop\n      jump\t// out\n        /* \"#utility.yul\":10734:11153   */\n    tag_89:\n        /* \"#utility.yul\":10900:10904   */\n      0x00\n        /* \"#utility.yul\":10938:10940   */\n      0x20\n        /* \"#utility.yul\":10927:10936   */\n      dup3\n        /* \"#utility.yul\":10923:10941   */\n      add\n        /* \"#utility.yul\":10915:10941   */\n      swap1\n      pop\n        /* \"#utility.yul\":10987:10996   */\n      dup2\n        /* \"#utility.yul\":10981:10985   */\n      dup2\n        /* \"#utility.yul\":10977:10997   */\n      sub\n        /* \"#utility.yul\":10973:10974   */\n      0x00\n        /* \"#utility.yul\":10962:10971   */\n      dup4\n        /* \"#utility.yul\":10958:10975   */\n      add\n        /* \"#utility.yul\":10951:10998   */\n      mstore\n        /* \"#utility.yul\":11015:11146   */\n      tag_518\n        /* \"#utility.yul\":11141:11145   */\n      dup2\n        /* \"#utility.yul\":11015:11146   */\n      tag_357\n      jump\t// in\n    tag_518:\n        /* \"#utility.yul\":11007:11146   */\n      swap1\n      pop\n        /* \"#utility.yul\":10734:11153   */\n      swap2\n      swap1\n      pop\n      jump\t// out\n        /* \"#utility.yul\":11159:11312   */\n    tag_358:\n        /* \"#utility.yul\":11299:11304   */\n      0x6f75740000000000000000000000000000000000000000000000000000000000\n        /* \"#utility.yul\":11295:11296   */\n      0x00\n        /* \"#utility.yul\":11287:11293   */\n      dup3\n        /* \"#utility.yul\":11283:11297   */\n      add\n        /* \"#utility.yul\":11276:11305   */\n      mstore\n        /* \"#utility.yul\":11159:11312   */\n      pop\n      jump\t// out\n        /* \"#utility.yul\":11318:11683   */\n    tag_359:\n        /* \"#utility.yul\":11460:11463   */\n      0x00\n        /* \"#utility.yul\":11481:11547   */\n      tag_521\n        /* \"#utility.yul\":11545:11546   */\n      0x03\n        /* \"#utility.yul\":11540:11543   */\n      dup4\n        /* \"#utility.yul\":11481:11547   */\n      tag_353\n      jump\t// in\n    tag_521:\n        /* \"#utility.yul\":11474:11547   */\n      swap2\n      pop\n        /* \"#utility.yul\":11556:11649   */\n      tag_522\n        /* \"#utility.yul\":11645:11648   */\n      dup3\n        /* \"#utility.yul\":11556:11649   */\n      tag_358\n      jump\t// in\n    tag_522:\n        /* \"#utility.yul\":11674:11676   */\n      0x20\n        /* \"#utility.yul\":11669:11672   */\n      dup3\n        /* \"#utility.yul\":11665:11677   */\n      add\n        /* \"#utility.yul\":11658:11677   */\n      swap1\n      pop\n        /* \"#utility.yul\":11318:11683   */\n      swap2\n      swap1\n      pop\n      jump\t// out\n        /* \"#utility.yul\":11689:12108   */\n    tag_92:\n        /* \"#utility.yul\":11855:11859   */\n      0x00\n        /* \"#utility.yul\":11893:11895   */\n      0x20\n        /* \"#utility.yul\":11882:11891   */\n      dup3\n        /* \"#utility.yul\":11878:11896   */\n      add\n        /* \"#utility.yul\":11870:11896   */\n      swap1\n      pop\n        /* \"#utility.yul\":11942:11951   */\n      dup2\n        /* \"#utility.yul\":11936:11940   */\n      dup2\n        /* \"#utility.yul\":11932:11952   */\n      sub\n        /* \"#utility.yul\":11928:11929   */\n      0x00\n        /* \"#utility.yul\":11917:11926   */\n      dup4\n        /* \"#utility.yul\":11913:11930   */\n      add\n        /* \"#utility.yul\":11906:11953   */\n      mstore\n        /* \"#utility.yul\":11970:12101   */\n      tag_524\n        /* \"#utility.yul\":12096:12100   */\n      dup2\n        /* \"#utility.yul\":11970:12101   */\n      tag_359\n      jump\t// in\n    tag_524:\n        /* \"#utility.yul\":11962:12101   */\n      swap1\n      pop\n        /* \"#utility.yul\":11689:12108   */\n      swap2\n      swap1\n      pop\n      jump\t// out\n        /* \"#utility.yul\":12114:12271   */\n    tag_360:\n        /* \"#utility.yul\":12254:12263   */\n      0x2174617267657400000000000000000000000000000000000000000000000000\n        /* \"#utility.yul\":12250:12251   */\n      0x00\n        /* \"#utility.yul\":12242:12248   */\n      dup3\n        /* \"#utility.yul\":12238:12252   */\n      add\n        /* \"#utility.yul\":12231:12264   */\n      mstore\n        /* \"#utility.yul\":12114:12271   */\n      pop\n      jump\t// out\n        /* \"#utility.yul\":12277:12642   */\n    tag_361:\n        /* \"#utility.yul\":12419:12422   */\n      0x00\n        /* \"#utility.yul\":12440:12506   */\n      tag_527\n        /* \"#utility.yul\":12504:12505   */\n      0x07\n        /* \"#utility.yul\":12499:12502   */\n      dup4\n        /* \"#utility.yul\":12440:12506   */\n      tag_353\n      jump\t// in\n    tag_527:\n        /* \"#utility.yul\":12433:12506   */\n      swap2\n      pop\n        /* \"#utility.yul\":12515:12608   */\n      tag_528\n        /* \"#utility.yul\":12604:12607   */\n      dup3\n        /* \"#utility.yul\":12515:12608   */\n      tag_360\n      jump\t// in\n    tag_528:\n        /* \"#utility.yul\":12633:12635   */\n      0x20\n        /* \"#utility.yul\":12628:12631   */\n      dup3\n        /* \"#utility.yul\":12624:12636   */\n      add\n        /* \"#utility.yul\":12617:12636   */\n      swap1\n      pop\n        /* \"#utility.yul\":12277:12642   */\n      swap2\n      swap1\n      pop\n      jump\t// out\n        /* \"#utility.yul\":12648:13067   */\n    tag_95:\n        /* \"#utility.yul\":12814:12818   */\n      0x00\n        /* \"#utility.yul\":12852:12854   */\n      0x20\n        /* \"#utility.yul\":12841:12850   */\n      dup3\n        /* \"#utility.yul\":12837:12855   */\n      add\n        /* \"#utility.yul\":12829:12855   */\n      swap1\n      pop\n        /* \"#utility.yul\":12901:12910   */\n      dup2\n        /* \"#utility.yul\":12895:12899   */\n      dup2\n        /* \"#utility.yul\":12891:12911   */\n      sub\n        /* \"#utility.yul\":12887:12888   */\n      0x00\n        /* \"#utility.yul\":12876:12885   */\n      dup4\n        /* \"#utility.yul\":12872:12889   */\n      add\n        /* \"#utility.yul\":12865:12912   */\n      mstore\n        /* \"#utility.yul\":12929:13060   */\n      tag_530\n        /* \"#utility.yul\":13055:13059   */\n      dup2\n        /* \"#utility.yul\":12929:13060   */\n      tag_361\n      jump\t// in\n    tag_530:\n        /* \"#utility.yul\":12921:13060   */\n      swap1\n      pop\n        /* \"#utility.yul\":12648:13067   */\n      swap2\n      swap1\n      pop\n      jump\t// out\n        /* \"#utility.yul\":13073:13231   */\n    tag_362:\n        /* \"#utility.yul\":13213:13223   */\n      0x6e6f206a6f6b6572000000000000000000000000000000000000000000000000\n        /* \"#utility.yul\":13209:13210   */\n      0x00\n        /* \"#utility.yul\":13201:13207   */\n      dup3\n        /* \"#utility.yul\":13197:13211   */\n      add\n        /* \"#utility.yul\":13190:13224   */\n      mstore\n        /* \"#utility.yul\":13073:13231   */\n      pop\n      jump\t// out\n        /* \"#utility.yul\":13237:13602   */\n    tag_363:\n        /* \"#utility.yul\":13379:13382   */\n      0x00\n        /* \"#utility.yul\":13400:13466   */\n      tag_533\n        /* \"#utility.yul\":13464:13465   */\n      0x08\n        /* \"#utility.yul\":13459:13462   */\n      dup4\n        /* \"#utility.yul\":13400:13466   */\n      tag_353\n      jump\t// in\n    tag_533:\n        /* \"#utility.yul\":13393:13466   */\n      swap2\n      pop\n        /* \"#utility.yul\":13475:13568   */\n      tag_534\n        /* \"#utility.yul\":13564:13567   */\n      dup3\n        /* \"#utility.yul\":13475:13568   */\n      tag_362\n      jump\t// in\n    tag_534:\n        /* \"#utility.yul\":13593:13595   */\n      0x20\n        /* \"#utility.yul\":13588:13591   */\n      dup3\n        /* \"#utility.yul\":13584:13596   */\n      add\n        /* \"#utility.yul\":13577:13596   */\n      swap1\n      pop\n        /* \"#utility.yul\":13237:13602   */\n      swap2\n      swap1\n      pop\n      jump\t// out\n        /* \"#utility.yul\":13608:14027   */\n    tag_99:\n        /* \"#utility.yul\":13774:13778   */\n      0x00\n        /* \"#utility.yul\":13812:13814   */\n      0x20\n        /* \"#utility.yul\":13801:13810   */\n      dup3\n        /* \"#utility.yul\":13797:13815   */\n      add\n        /* \"#utility.yul\":13789:13815   */\n      swap1\n      pop\n        /* \"#utility.yul\":13861:13870   */\n      dup2\n        /* \"#utility.yul\":13855:13859   */\n      dup2\n        /* \"#utility.yul\":13851:13871   */\n      sub\n        /* \"#utility.yul\":13847:13848   */\n      0x00\n        /* \"#utility.yul\":13836:13845   */\n      dup4\n        /* \"#utility.yul\":13832:13849   */\n      add\n        /* \"#utility.yul\":13825:13872   */\n      mstore\n        /* \"#utility.yul\":13889:14020   */\n      tag_536\n        /* \"#utility.yul\":14015:14019   */\n      dup2\n        /* \"#utility.yul\":13889:14020   */\n      tag_363\n      jump\t// in\n    tag_536:\n        /* \"#utility.yul\":13881:14020   */\n      swap1\n      pop\n        /* \"#utility.yul\":13608:14027   */\n      swap2\n      swap1\n      pop\n      jump\t// out\n        /* \"#utility.yul\":14033:14213   */\n    tag_364:\n        /* \"#utility.yul\":14081:14158   */\n      0x4e487b7100000000000000000000000000000000000000000000000000000000\n        /* \"#utility.yul\":14078:14079   */\n      0x00\n        /* \"#utility.yul\":14071:14159   */\n      mstore\n        /* \"#utility.yul\":14178:14182   */\n      0x11\n        /* \"#utility.yul\":14175:14176   */\n      0x04\n        /* \"#utility.yul\":14168:14183   */\n      mstore\n        /* \"#utility.yul\":14202:14206   */\n      0x24\n        /* \"#utility.yul\":14199:14200   */\n      0x00\n        /* \"#utility.yul\":14192:14207   */\n      revert\n        /* \"#utility.yul\":14219:14390   */\n    tag_101:\n        /* \"#utility.yul\":14258:14261   */\n      0x00\n        /* \"#utility.yul\":14281:14305   */\n      tag_539\n        /* \"#utility.yul\":14299:14304   */\n      dup3\n        /* \"#utility.yul\":14281:14305   */\n      tag_333\n      jump\t// in\n    tag_539:\n        /* \"#utility.yul\":14272:14305   */\n      swap2\n      pop\n        /* \"#utility.yul\":14327:14331   */\n      0x00\n        /* \"#utility.yul\":14320:14325   */\n      dup3\n        /* \"#utility.yul\":14317:14332   */\n      sub\n        /* \"#utility.yul\":14314:14355   */\n      tag_540\n      jumpi\n        /* \"#utility.yul\":14335:14353   */\n      tag_541\n      tag_364\n      jump\t// in\n    tag_541:\n        /* \"#utility.yul\":14314:14355   */\n    tag_540:\n        /* \"#utility.yul\":14382:14383   */\n      0x01\n        /* \"#utility.yul\":14375:14380   */\n      dup3\n        /* \"#utility.yul\":14371:14384   */\n      sub\n        /* \"#utility.yul\":14364:14384   */\n      swap1\n      pop\n        /* \"#utility.yul\":14219:14390   */\n      swap2\n      swap1\n      pop\n      jump\t// out\n        /* \"#utility.yul\":14396:14629   */\n    tag_103:\n        /* \"#utility.yul\":14435:14438   */\n      0x00\n        /* \"#utility.yul\":14458:14482   */\n      tag_543\n        /* \"#utility.yul\":14476:14481   */\n      dup3\n        /* \"#utility.yul\":14458:14482   */\n      tag_333\n      jump\t// in\n    tag_543:\n        /* \"#utility.yul\":14449:14482   */\n      swap2\n      pop\n        /* \"#utility.yul\":14504:14570   */\n      0xffffffffffffffffffffffffffffffffffffffffffffffffffffffffffffffff\n        /* \"#utility.yul\":14497:14502   */\n      dup3\n        /* \"#utility.yul\":14494:14571   */\n      sub\n        /* \"#utility.yul\":14491:14594   */\n      tag_544\n      jumpi\n        /* \"#utility.yul\":14574:14592   */\n      tag_545\n      tag_364\n      jump\t// in\n    tag_545:\n        /* \"#utility.yul\":14491:14594   */\n    tag_544:\n        /* \"#utility.yul\":14621:14622   */\n      0x01\n        /* \"#utility.yul\":14614:14619   */\n      dup3\n        /* \"#utility.yul\":14610:14623   */\n      add\n        /* \"#utility.yul\":14603:14623   */\n      swap1\n      pop\n        /* \"#utility.yul\":14396:14629   */\n      swap2\n      swap1\n      pop\n      jump\t// out\n        /* \"#utility.yul\":14635:14720   */\n    tag_365:\n        /* \"#utility.yul\":14680:14687   */\n      0x00\n        /* \"#utility.yul\":14709:14714   */\n      dup2\n        /* \"#utility.yul\":14698:14714   */\n      swap1\n      pop\n        /* \"#utility.yul\":14635:14720   */\n      swap2\n      swap1\n      pop\n      jump\t// out\n        /* \"#utility.yul\":14726:14880   */\n    tag_366:\n        /* \"#utility.yul\":14782:14791   */\n      0x00\n        /* \"#utility.yul\":14815:14874   */\n      tag_548\n        /* \"#utility.yul\":14831:14873   */\n      tag_549\n        /* \"#utility.yul\":14840:14872   */\n      tag_550\n        /* \"#utility.yul\":14866:14871   */\n      dup5\n        /* \"#utility.yul\":14840:14872   */\n      tag_365\n      jump\t// in\n    tag_550:\n        /* \"#utility.yul\":14831:14873   */\n      tag_321\n      jump\t// in\n    tag_549:\n        /* \"#utility.yul\":14815:14874   */\n      tag_344\n      jump\t// in\n    tag_548:\n        /* \"#utility.yul\":14802:14874   */\n      swap1\n      pop\n        /* \"#utility.yul\":14726:14880   */\n      swap2\n      swap1\n      pop\n      jump\t// out\n        /* \"#utility.yul\":14886:15029   */\n    tag_367:\n        /* \"#utility.yul\":14979:15022   */\n      tag_552\n        /* \"#utility.yul\":15016:15021   */\n      dup2\n        /* \"#utility.yul\":14979:15022   */\n      tag_366\n      jump\t// in\n    tag_552:\n        /* \"#utility.yul\":14974:14977   */\n      dup3\n        /* \"#utility.yul\":14967:15023   */\n      mstore\n        /* \"#utility.yul\":14886:15029   */\n      pop\n      pop\n      jump\t// out\n        /* \"#utility.yul\":15035:15269   */\n    tag_105:\n        /* \"#utility.yul\":15134:15138   */\n      0x00\n        /* \"#utility.yul\":15172:15174   */\n      0x20\n        /* \"#utility.yul\":15161:15170   */\n      dup3\n        /* \"#utility.yul\":15157:15175   */\n      add\n        /* \"#utility.yul\":15149:15175   */\n      swap1\n      pop\n        /* \"#utility.yul\":15185:15262   */\n      tag_554\n        /* \"#utility.yul\":15259:15260   */\n      0x00\n        /* \"#utility.yul\":15248:15257   */\n      dup4\n        /* \"#utility.yul\":15244:15261   */\n      add\n        /* \"#utility.yul\":15235:15241   */\n      dup5\n        /* \"#utility.yul\":15185:15262   */\n      tag_367\n      jump\t// in\n    tag_554:\n        /* \"#utility.yul\":15035:15269   */\n      swap3\n      swap2\n      pop\n      pop\n      jump\t// out\n        /* \"#utility.yul\":15275:15434   */\n    tag_368:\n        /* \"#utility.yul\":15415:15426   */\n      0x6361726420312d31300000000000000000000000000000000000000000000000\n        /* \"#utility.yul\":15411:15412   */\n      0x00\n        /* \"#utility.yul\":15403:15409   */\n      dup3\n        /* \"#utility.yul\":15399:15413   */\n      add\n        /* \"#utility.yul\":15392:15427   */\n      mstore\n        /* \"#utility.yul\":15275:15434   */\n      pop\n      jump\t// out\n        /* \"#utility.yul\":15440:15805   */\n    tag_369:\n        /* \"#utility.yul\":15582:15585   */\n      0x00\n        /* \"#utility.yul\":15603:15669   */\n      tag_557\n        /* \"#utility.yul\":15667:15668   */\n      0x09\n        /* \"#utility.yul\":15662:15665   */\n      dup4\n        /* \"#utility.yul\":15603:15669   */\n      tag_353\n      jump\t// in\n    tag_557:\n        /* \"#utility.yul\":15596:15669   */\n      swap2\n      pop\n        /* \"#utility.yul\":15678:15771   */\n      tag_558\n        /* \"#utility.yul\":15767:15770   */\n      dup3\n        /* \"#utility.yul\":15678:15771   */\n      tag_368\n      jump\t// in\n    tag_558:\n        /* \"#utility.yul\":15796:15798   */\n      0x20\n        /* \"#utility.yul\":15791:15794   */\n      dup3\n        /* \"#utility.yul\":15787:15799   */\n      add\n        /* \"#utility.yul\":15780:15799   */\n      swap1\n      pop\n        /* \"#utility.yul\":15440:15805   */\n      swap2\n      swap1\n      pop\n      jump\t// out\n        /* \"#utility.yul\":15811:16230   */\n    tag_110:\n        /* \"#utility.yul\":15977:15981   */\n      0x00\n        /* \"#utility.yul\":16015:16017   */\n      0x20\n        /* \"#utility.yul\":16004:16013   */\n      dup3\n        /* \"#utility.yul\":16000:16018   */\n      add\n        /* \"#utility.yul\":15992:16018   */\n      swap1\n      pop\n        /* \"#utility.yul\":16064:16073   */\n      dup2\n        /* \"#utility.yul\":16058:16062   */\n      dup2\n        /* \"#utility.yul\":16054:16074   */\n      sub\n        /* \"#utility.yul\":16050:16051   */\n      0x00\n        /* \"#utility.yul\":16039:16048   */\n      dup4\n        /* \"#utility.yul\":16035:16052   */\n      add\n        /* \"#utility.yul\":16028:16075   */\n      mstore\n        /* \"#utility.yul\":16092:16223   */\n      tag_560\n        /* \"#utility.yul\":16218:16222   */\n      dup2\n        /* \"#utility.yul\":16092:16223   */\n      tag_369\n      jump\t// in\n    tag_560:\n        /* \"#utility.yul\":16084:16223   */\n      swap1\n      pop\n        /* \"#utility.yul\":15811:16230   */\n      swap2\n      swap1\n      pop\n      jump\t// out\n        /* \"#utility.yul\":16236:16427   */\n    tag_112:\n        /* \"#utility.yul\":16274:16278   */\n      0x00\n        /* \"#utility.yul\":16294:16312   */\n      tag_562\n        /* \"#utility.yul\":16310:16311   */\n      dup3\n        /* \"#utility.yul\":16294:16312   */\n      tag_344\n      jump\t// in\n    tag_562:\n        /* \"#utility.yul\":16289:16312   */\n      swap2\n      pop\n        /* \"#utility.yul\":16326:16344   */\n      tag_563\n        /* \"#utility.yul\":16342:16343   */\n      dup4\n        /* \"#utility.yul\":16326:16344   */\n      tag_344\n      jump\t// in\n    tag_563:\n        /* \"#utility.yul\":16321:16344   */\n      swap3\n      pop\n        /* \"#utility.yul\":16368:16369   */\n      dup3\n        /* \"#utility.yul\":16365:16366   */\n      dup3\n        /* \"#utility.yul\":16361:16370   */\n      sub\n        /* \"#utility.yul\":16353:16370   */\n      swap1\n      pop\n        /* \"#utility.yul\":16392:16396   */\n      0xff\n        /* \"#utility.yul\":16386:16390   */\n      dup2\n        /* \"#utility.yul\":16383:16397   */\n      gt\n        /* \"#utility.yul\":16380:16420   */\n      iszero\n      tag_564\n      jumpi\n        /* \"#utility.yul\":16400:16418   */\n      tag_565\n      tag_364\n      jump\t// in\n    tag_565:\n        /* \"#utility.yul\":16380:16420   */\n    tag_564:\n        /* \"#utility.yul\":16236:16427   */\n      swap3\n      swap2\n      pop\n      pop\n      jump\t// out\n        /* \"#utility.yul\":16433:16590   */\n    tag_370:\n        /* \"#utility.yul\":16573:16582   */\n      0x6e6f206361726400000000000000000000000000000000000000000000000000\n        /* \"#utility.yul\":16569:16570   */\n      0x00\n        /* \"#utility.yul\":16561:16567   */\n      dup3\n        /* \"#utility.yul\":16557:16571   */\n      add\n        /* \"#utility.yul\":16550:16583   */\n      mstore\n        /* \"#utility.yul\":16433:16590   */\n      pop\n      jump\t// out\n        /* \"#utility.yul\":16596:16961   */\n    tag_371:\n        /* \"#utility.yul\":16738:16741   */\n      0x00\n        /* \"#utility.yul\":16759:16825   */\n      tag_568\n        /* \"#utility.yul\":16823:16824   */\n      0x07\n        /* \"#utility.yul\":16818:16821   */\n      dup4\n        /* \"#utility.yul\":16759:16825   */\n      tag_353\n      jump\t// in\n    tag_568:\n        /* \"#utility.yul\":16752:16825   */\n      swap2\n      pop\n        /* \"#utility.yul\":16834:16927   */\n      tag_569\n        /* \"#utility.yul\":16923:16926   */\n      dup3\n        /* \"#utility.yul\":16834:16927   */\n      tag_370\n      jump\t// in\n    tag_569:\n        /* \"#utility.yul\":16952:16954   */\n      0x20\n        /* \"#utility.yul\":16947:16950   */\n      dup3\n        /* \"#utility.yul\":16943:16955   */\n      add\n        /* \"#utility.yul\":16936:16955   */\n      swap1\n      pop\n        /* \"#utility.yul\":16596:16961   */\n      swap2\n      swap1\n      pop\n      jump\t// out\n        /* \"#utility.yul\":16967:17386   */\n    tag_118:\n        /* \"#utility.yul\":17133:17137   */\n      0x00\n        /* \"#utility.yul\":17171:17173   */\n      0x20\n        /* \"#utility.yul\":17160:17169   */\n      dup3\n        /* \"#utility.yul\":17156:17174   */\n      add\n        /* \"#utility.yul\":17148:17174   */\n      swap1\n      pop\n        /* \"#utility.yul\":17220:17229   */\n      dup2\n        /* \"#utility.yul\":17214:17218   */\n      dup2\n        /* \"#utility.yul\":17210:17230   */\n      sub\n        /* \"#utility.yul\":17206:17207   */\n      0x00\n        /* \"#utility.yul\":17195:17204   */\n      dup4\n        /* \"#utility.yul\":17191:17208   */\n      add\n        /* \"#utility.yul\":17184:17231   */\n      mstore\n        /* \"#utility.yul\":17248:17379   */\n      tag_571\n        /* \"#utility.yul\":17374:17378   */\n      dup2\n        /* \"#utility.yul\":17248:17379   */\n      tag_371\n      jump\t// in\n    tag_571:\n        /* \"#utility.yul\":17240:17379   */\n      swap1\n      pop\n        /* \"#utility.yul\":16967:17386   */\n      swap2\n      swap1\n      pop\n      jump\t// out\n        /* \"#utility.yul\":17392:17504   */\n    tag_372:\n        /* \"#utility.yul\":17475:17497   */\n      tag_573\n        /* \"#utility.yul\":17491:17496   */\n      dup2\n        /* \"#utility.yul\":17475:17497   */\n      tag_344\n      jump\t// in\n    tag_573:\n        /* \"#utility.yul\":17470:17473   */\n      dup3\n        /* \"#utility.yul\":17463:17498   */\n      mstore\n        /* \"#utility.yul\":17392:17504   */\n      pop\n      pop\n      jump\t// out\n        /* \"#utility.yul\":17510:17724   */\n    tag_130:\n        /* \"#utility.yul\":17599:17603   */\n      0x00\n        /* \"#utility.yul\":17637:17639   */\n      0x20\n        /* \"#utility.yul\":17626:17635   */\n      dup3\n        /* \"#utility.yul\":17622:17640   */\n      add\n        /* \"#utility.yul\":17614:17640   */\n      swap1\n      pop\n        /* \"#utility.yul\":17650:17717   */\n      tag_575\n        /* \"#utility.yul\":17714:17715   */\n      0x00\n        /* \"#utility.yul\":17703:17712   */\n      dup4\n        /* \"#utility.yul\":17699:17716   */\n      add\n        /* \"#utility.yul\":17690:17696   */\n      dup5\n        /* \"#utility.yul\":17650:17717   */\n      tag_372\n      jump\t// in\n    tag_575:\n        /* \"#utility.yul\":17510:17724   */\n      swap3\n      swap2\n      pop\n      pop\n      jump\t// out\n        /* \"#utility.yul\":17730:17888   */\n    tag_373:\n        /* \"#utility.yul\":17870:17880   */\n      0x2170656e64696e67000000000000000000000000000000000000000000000000\n        /* \"#utility.yul\":17866:17867   */\n      0x00\n        /* \"#utility.yul\":17858:17864   */\n      dup3\n        /* \"#utility.yul\":17854:17868   */\n      add\n        /* \"#utility.yul\":17847:17881   */\n      mstore\n        /* \"#utility.yul\":17730:17888   */\n      pop\n      jump\t// out\n        /* \"#utility.yul\":17894:18259   */\n    tag_374:\n        /* \"#utility.yul\":18036:18039   */\n      0x00\n        /* \"#utility.yul\":18057:18123   */\n      tag_578\n        /* \"#utility.yul\":18121:18122   */\n      0x08\n        /* \"#utility.yul\":18116:18119   */\n      dup4\n        /* \"#utility.yul\":18057:18123   */\n      tag_353\n      jump\t// in\n    tag_578:\n        /* \"#utility.yul\":18050:18123   */\n      swap2\n      pop\n        /* \"#utility.yul\":18132:18225   */\n      tag_579\n        /* \"#utility.yul\":18221:18224   */\n      dup3\n        /* \"#utility.yul\":18132:18225   */\n      tag_373\n      jump\t// in\n    tag_579:\n        /* \"#utility.yul\":18250:18252   */\n      0x20\n        /* \"#utility.yul\":18245:18248   */\n      dup3\n        /* \"#utility.yul\":18241:18253   */\n      add\n        /* \"#utility.yul\":18234:18253   */\n      swap1\n      pop\n        /* \"#utility.yul\":17894:18259   */\n      swap2\n      swap1\n      pop\n      jump\t// out\n        /* \"#utility.yul\":18265:18684   */\n    tag_148:\n        /* \"#utility.yul\":18431:18435   */\n      0x00\n        /* \"#utility.yul\":18469:18471   */\n      0x20\n        /* \"#utility.yul\":18458:18467   */\n      dup3\n        /* \"#utility.yul\":18454:18472   */\n      add\n        /* \"#utility.yul\":18446:18472   */\n      swap1\n      pop\n        /* \"#utility.yul\":18518:18527   */\n      dup2\n        /* \"#utility.yul\":18512:18516   */\n      dup2\n        /* \"#utility.yul\":18508:18528   */\n      sub\n        /* \"#utility.yul\":18504:18505   */\n      0x00\n        /* \"#utility.yul\":18493:18502   */\n      dup4\n        /* \"#utility.yul\":18489:18506   */\n      add\n        /* \"#utility.yul\":18482:18529   */\n      mstore\n        /* \"#utility.yul\":18546:18677   */\n      tag_581\n        /* \"#utility.yul\":18672:18676   */\n      dup2\n        /* \"#utility.yul\":18546:18677   */\n      tag_374\n      jump\t// in\n    tag_581:\n        /* \"#utility.yul\":18538:18677   */\n      swap1\n      pop\n        /* \"#utility.yul\":18265:18684   */\n      swap2\n      swap1\n      pop\n      jump\t// out\n        /* \"#utility.yul\":18690:18846   */\n    tag_375:\n        /* \"#utility.yul\":18830:18838   */\n      0x6a6f696e65640000000000000000000000000000000000000000000000000000\n        /* \"#utility.yul\":18826:18827   */\n      0x00\n        /* \"#utility.yul\":18818:18824   */\n      dup3\n        /* \"#utility.yul\":18814:18828   */\n      add\n        /* \"#utility.yul\":18807:18839   */\n      mstore\n        /* \"#utility.yul\":18690:18846   */\n      pop\n      jump\t// out\n        /* \"#utility.yul\":18852:19217   */\n    tag_376:\n        /* \"#utility.yul\":18994:18997   */\n      0x00\n        /* \"#utility.yul\":19015:19081   */\n      tag_584\n        /* \"#utility.yul\":19079:19080   */\n      0x06\n        /* \"#utility.yul\":19074:19077   */\n      dup4\n        /* \"#utility.yul\":19015:19081   */\n      tag_353\n      jump\t// in\n    tag_584:\n        /* \"#utility.yul\":19008:19081   */\n      swap2\n      pop\n        /* \"#utility.yul\":19090:19183   */\n      tag_585\n        /* \"#utility.yul\":19179:19182   */\n      dup3\n        /* \"#utility.yul\":19090:19183   */\n      tag_375\n      jump\t// in\n    tag_585:\n        /* \"#utility.yul\":19208:19210   */\n      0x20\n        /* \"#utility.yul\":19203:19206   */\n      dup3\n        /* \"#utility.yul\":19199:19211   */\n      add\n        /* \"#utility.yul\":19192:19211   */\n      swap1\n      pop\n        /* \"#utility.yul\":18852:19217   */\n      swap2\n      swap1\n      pop\n      jump\t// out\n        /* \"#utility.yul\":19223:19642   */\n    tag_151:\n        /* \"#utility.yul\":19389:19393   */\n      0x00\n        /* \"#utility.yul\":19427:19429   */\n      0x20\n        /* \"#utility.yul\":19416:19425   */\n      dup3\n        /* \"#utility.yul\":19412:19430   */\n      add\n        /* \"#utility.yul\":19404:19430   */\n      swap1\n      pop\n        /* \"#utility.yul\":19476:19485   */\n      dup2\n        /* \"#utility.yul\":19470:19474   */\n      dup2\n        /* \"#utility.yul\":19466:19486   */\n      sub\n        /* \"#utility.yul\":19462:19463   */\n      0x00\n        /* \"#utility.yul\":19451:19460   */\n      dup4\n        /* \"#utility.yul\":19447:19464   */\n      add\n        /* \"#utility.yul\":19440:19487   */\n      mstore\n        /* \"#utility.yul\":19504:19635   */\n      tag_587\n        /* \"#utility.yul\":19630:19634   */\n      dup2\n        /* \"#utility.yul\":19504:19635   */\n      tag_376\n      jump\t// in\n    tag_587:\n        /* \"#utility.yul\":19496:19635   */\n      swap1\n      pop\n        /* \"#utility.yul\":19223:19642   */\n      swap2\n      swap1\n      pop\n      jump\t// out\n        /* \"#utility.yul\":19648:19802   */\n    tag_377:\n        /* \"#utility.yul\":19788:19794   */\n      0x66756c6c00000000000000000000000000000000000000000000000000000000\n        /* \"#utility.yul\":19784:19785   */\n      0x00\n        /* \"#utility.yul\":19776:19782   */\n      dup3\n        /* \"#utility.yul\":19772:19786   */\n      add\n        /* \"#utility.yul\":19765:19795   */\n      mstore\n        /* \"#utility.yul\":19648:19802   */\n      pop\n      jump\t// out\n        /* \"#utility.yul\":19808:20173   */\n    tag_378:\n        /* \"#utility.yul\":19950:19953   */\n      0x00\n        /* \"#utility.yul\":19971:20037   */\n      tag_590\n        /* \"#utility.yul\":20035:20036   */\n      0x04\n        /* \"#utility.yul\":20030:20033   */\n      dup4\n        /* \"#utility.yul\":19971:20037   */\n      tag_353\n      jump\t// in\n    tag_590:\n        /* \"#utility.yul\":19964:20037   */\n      swap2\n      pop\n        /* \"#utility.yul\":20046:20139   */\n      tag_591\n        /* \"#utility.yul\":20135:20138   */\n      dup3\n        /* \"#utility.yul\":20046:20139   */\n      tag_377\n      jump\t// in\n    tag_591:\n        /* \"#utility.yul\":20164:20166   */\n      0x20\n        /* \"#utility.yul\":20159:20162   */\n      dup3\n        /* \"#utility.yul\":20155:20167   */\n      add\n        /* \"#utility.yul\":20148:20167   */\n      swap1\n      pop\n        /* \"#utility.yul\":19808:20173   */\n      swap2\n      swap1\n      pop\n      jump\t// out\n        /* \"#utility.yul\":20179:20598   */\n    tag_154:\n        /* \"#utility.yul\":20345:20349   */\n      0x00\n        /* \"#utility.yul\":20383:20385   */\n      0x20\n        /* \"#utility.yul\":20372:20381   */\n      dup3\n        /* \"#utility.yul\":20368:20386   */\n      add\n        /* \"#utility.yul\":20360:20386   */\n      swap1\n      pop\n        /* \"#utility.yul\":20432:20441   */\n      dup2\n        /* \"#utility.yul\":20426:20430   */\n      dup2\n        /* \"#utility.yul\":20422:20442   */\n      sub\n        /* \"#utility.yul\":20418:20419   */\n      0x00\n        /* \"#utility.yul\":20407:20416   */\n      dup4\n        /* \"#utility.yul\":20403:20420   */\n      add\n        /* \"#utility.yul\":20396:20443   */\n      mstore\n        /* \"#utility.yul\":20460:20591   */\n      tag_593\n        /* \"#utility.yul\":20586:20590   */\n      dup2\n        /* \"#utility.yul\":20460:20591   */\n      tag_378\n      jump\t// in\n    tag_593:\n        /* \"#utility.yul\":20452:20591   */\n      swap1\n      pop\n        /* \"#utility.yul\":20179:20598   */\n      swap2\n      swap1\n      pop\n      jump\t// out\n        /* \"#utility.yul\":20604:20765   */\n    tag_379:\n        /* \"#utility.yul\":20744:20757   */\n      0x6669786564207374616b65000000000000000000000000000000000000000000\n        /* \"#utility.yul\":20740:20741   */\n      0x00\n        /* \"#utility.yul\":20732:20738   */\n      dup3\n        /* \"#utility.yul\":20728:20742   */\n      add\n        /* \"#utility.yul\":20721:20758   */\n      mstore\n        /* \"#utility.yul\":20604:20765   */\n      pop\n      jump\t// out\n        /* \"#utility.yul\":20771:21137   */\n    tag_380:\n        /* \"#utility.yul\":20913:20916   */\n      0x00\n        /* \"#utility.yul\":20934:21001   */\n      tag_596\n        /* \"#utility.yul\":20998:21000   */\n      0x0b\n        /* \"#utility.yul\":20993:20996   */\n      dup4\n        /* \"#utility.yul\":20934:21001   */\n      tag_353\n      jump\t// in\n    tag_596:\n        /* \"#utility.yul\":20927:21001   */\n      swap2\n      pop\n        /* \"#utility.yul\":21010:21103   */\n      tag_597\n        /* \"#utility.yul\":21099:21102   */\n      dup3\n        /* \"#utility.yul\":21010:21103   */\n      tag_379\n      jump\t// in\n    tag_597:\n        /* \"#utility.yul\":21128:21130   */\n      0x20\n        /* \"#utility.yul\":21123:21126   */\n      dup3\n        /* \"#utility.yul\":21119:21131   */\n      add\n        /* \"#utility.yul\":21112:21131   */\n      swap1\n      pop\n        /* \"#utility.yul\":20771:21137   */\n      swap2\n      swap1\n      pop\n      jump\t// out\n        /* \"#utility.yul\":21143:21562   */\n    tag_158:\n        /* \"#utility.yul\":21309:21313   */\n      0x00\n        /* \"#utility.yul\":21347:21349   */\n      0x20\n        /* \"#utility.yul\":21336:21345   */\n      dup3\n        /* \"#utility.yul\":21332:21350   */\n      add\n        /* \"#utility.yul\":21324:21350   */\n      swap1\n      pop\n        /* \"#utility.yul\":21396:21405   */\n      dup2\n        /* \"#utility.yul\":21390:21394   */\n      dup2\n        /* \"#utility.yul\":21386:21406   */\n      sub\n        /* \"#utility.yul\":21382:21383   */\n      0x00\n        /* \"#utility.yul\":21371:21380   */\n      dup4\n        /* \"#utility.yul\":21367:21384   */\n      add\n        /* \"#utility.yul\":21360:21407   */\n      mstore\n        /* \"#utility.yul\":21424:21555   */\n      tag_599\n        /* \"#utility.yul\":21550:21554   */\n      dup2\n        /* \"#utility.yul\":21424:21555   */\n      tag_380\n      jump\t// in\n    tag_599:\n        /* \"#utility.yul\":21416:21555   */\n      swap1\n      pop\n        /* \"#utility.yul\":21143:21562   */\n      swap2\n      swap1\n      pop\n      jump\t// out\n        /* \"#utility.yul\":21568:21723   */\n    tag_381:\n        /* \"#utility.yul\":21708:21715   */\n      0x72616e6765000000000000000000000000000000000000000000000000000000\n        /* \"#utility.yul\":21704:21705   */\n      0x00\n        /* \"#utility.yul\":21696:21702   */\n      dup3\n        /* \"#utility.yul\":21692:21706   */\n      add\n        /* \"#utility.yul\":21685:21716   */\n      mstore\n        /* \"#utility.yul\":21568:21723   */\n      pop\n      jump\t// out\n        /* \"#utility.yul\":21729:22094   */\n    tag_382:\n        /* \"#utility.yul\":21871:21874   */\n      0x00\n        /* \"#utility.yul\":21892:21958   */\n      tag_602\n        /* \"#utility.yul\":21956:21957   */\n      0x05\n        /* \"#utility.yul\":21951:21954   */\n      dup4\n        /* \"#utility.yul\":21892:21958   */\n      tag_353\n      jump\t// in\n    tag_602:\n        /* \"#utility.yul\":21885:21958   */\n      swap2\n      pop\n        /* \"#utility.yul\":21967:22060   */\n      tag_603\n        /* \"#utility.yul\":22056:22059   */\n      dup3\n        /* \"#utility.yul\":21967:22060   */\n      tag_381\n      jump\t// in\n    tag_603:\n        /* \"#utility.yul\":22085:22087   */\n      0x20\n        /* \"#utility.yul\":22080:22083   */\n      dup3\n        /* \"#utility.yul\":22076:22088   */\n      add\n        /* \"#utility.yul\":22069:22088   */\n      swap1\n      pop\n        /* \"#utility.yul\":21729:22094   */\n      swap2\n      swap1\n      pop\n      jump\t// out\n        /* \"#utility.yul\":22100:22519   */\n    tag_163:\n        /* \"#utility.yul\":22266:22270   */\n      0x00\n        /* \"#utility.yul\":22304:22306   */\n      0x20\n        /* \"#utility.yul\":22293:22302   */\n      dup3\n        /* \"#utility.yul\":22289:22307   */\n      add\n        /* \"#utility.yul\":22281:22307   */\n      swap1\n      pop\n        /* \"#utility.yul\":22353:22362   */\n      dup2\n        /* \"#utility.yul\":22347:22351   */\n      dup2\n        /* \"#utility.yul\":22343:22363   */\n      sub\n        /* \"#utility.yul\":22339:22340   */\n      0x00\n        /* \"#utility.yul\":22328:22337   */\n      dup4\n        /* \"#utility.yul\":22324:22341   */\n      add\n        /* \"#utility.yul\":22317:22364   */\n      mstore\n        /* \"#utility.yul\":22381:22512   */\n      tag_605\n        /* \"#utility.yul\":22507:22511   */\n      dup2\n        /* \"#utility.yul\":22381:22512   */\n      tag_382\n      jump\t// in\n    tag_605:\n        /* \"#utility.yul\":22373:22512   */\n      swap1\n      pop\n        /* \"#utility.yul\":22100:22519   */\n      swap2\n      swap1\n      pop\n      jump\t// out\n        /* \"#utility.yul\":22525:22705   */\n    tag_383:\n        /* \"#utility.yul\":22573:22650   */\n      0x4e487b7100000000000000000000000000000000000000000000000000000000\n        /* \"#utility.yul\":22570:22571   */\n      0x00\n        /* \"#utility.yul\":22563:22651   */\n      mstore\n        /* \"#utility.yul\":22670:22674   */\n      0x12\n        /* \"#utility.yul\":22667:22668   */\n      0x04\n        /* \"#utility.yul\":22660:22675   */\n      mstore\n        /* \"#utility.yul\":22694:22698   */\n      0x24\n        /* \"#utility.yul\":22691:22692   */\n      0x00\n        /* \"#utility.yul\":22684:22699   */\n      revert\n        /* \"#utility.yul\":22711:22887   */\n    tag_177:\n        /* \"#utility.yul\":22743:22744   */\n      0x00\n        /* \"#utility.yul\":22760:22780   */\n      tag_608\n        /* \"#utility.yul\":22778:22779   */\n      dup3\n        /* \"#utility.yul\":22760:22780   */\n      tag_333\n      jump\t// in\n    tag_608:\n        /* \"#utility.yul\":22755:22780   */\n      swap2\n      pop\n        /* \"#utility.yul\":22794:22814   */\n      tag_609\n        /* \"#utility.yul\":22812:22813   */\n      dup4\n        /* \"#utility.yul\":22794:22814   */\n      tag_333\n      jump\t// in\n    tag_609:\n        /* \"#utility.yul\":22789:22814   */\n      swap3\n      pop\n        /* \"#utility.yul\":22833:22834   */\n      dup3\n        /* \"#utility.yul\":22823:22858   */\n      tag_610\n      jumpi\n        /* \"#utility.yul\":22838:22856   */\n      tag_611\n      tag_383\n      jump\t// in\n    tag_611:\n        /* \"#utility.yul\":22823:22858   */\n    tag_610:\n        /* \"#utility.yul\":22879:22880   */\n      dup3\n        /* \"#utility.yul\":22876:22877   */\n      dup3\n        /* \"#utility.yul\":22872:22881   */\n      mod\n        /* \"#utility.yul\":22867:22881   */\n      swap1\n      pop\n        /* \"#utility.yul\":22711:22887   */\n      swap3\n      swap2\n      pop\n      pop\n      jump\t// out\n        /* \"#utility.yul\":22893:23084   */\n    tag_192:\n        /* \"#utility.yul\":22933:22936   */\n      0x00\n        /* \"#utility.yul\":22952:22972   */\n      tag_613\n        /* \"#utility.yul\":22970:22971   */\n      dup3\n        /* \"#utility.yul\":22952:22972   */\n      tag_333\n      jump\t// in\n    tag_613:\n        /* \"#utility.yul\":22947:22972   */\n      swap2\n      pop\n        /* \"#utility.yul\":22986:23006   */\n      tag_614\n        /* \"#utility.yul\":23004:23005   */\n      dup4\n        /* \"#utility.yul\":22986:23006   */\n      tag_333\n      jump\t// in\n    tag_614:\n        /* \"#utility.yul\":22981:23006   */\n      swap3\n      pop\n        /* \"#utility.yul\":23029:23030   */\n      dup3\n        /* \"#utility.yul\":23026:23027   */\n      dup3\n        /* \"#utility.yul\":23022:23031   */\n      add\n        /* \"#utility.yul\":23015:23031   */\n      swap1\n      pop\n        /* \"#utility.yul\":23050:23053   */\n      dup1\n        /* \"#utility.yul\":23047:23048   */\n      dup3\n        /* \"#utility.yul\":23044:23054   */\n      gt\n        /* \"#utility.yul\":23041:23077   */\n      iszero\n      tag_615\n      jumpi\n        /* \"#utility.yul\":23057:23075   */\n      tag_616\n      tag_364\n      jump\t// in\n    tag_616:\n        /* \"#utility.yul\":23041:23077   */\n    tag_615:\n        /* \"#utility.yul\":22893:23084   */\n      swap3\n      swap2\n      pop\n      pop\n      jump\t// out\n        /* \"#utility.yul\":23090:23270   */\n    tag_215:\n        /* \"#utility.yul\":23138:23215   */\n      0x4e487b7100000000000000000000000000000000000000000000000000000000\n        /* \"#utility.yul\":23135:23136   */\n      0x00\n        /* \"#utility.yul\":23128:23216   */\n      mstore\n        /* \"#utility.yul\":23235:23239   */\n      0x41\n        /* \"#utility.yul\":23232:23233   */\n      0x04\n        /* \"#utility.yul\":23225:23240   */\n      mstore\n        /* \"#utility.yul\":23259:23263   */\n      0x24\n        /* \"#utility.yul\":23256:23257   */\n      0x00\n        /* \"#utility.yul\":23249:23264   */\n      revert\n        /* \"#utility.yul\":23276:23423   */\n    tag_384:\n        /* \"#utility.yul\":23377:23388   */\n      0x00\n        /* \"#utility.yul\":23414:23417   */\n      dup2\n        /* \"#utility.yul\":23399:23417   */\n      swap1\n      pop\n        /* \"#utility.yul\":23276:23423   */\n      swap3\n      swap2\n      pop\n      pop\n      jump\t// out\n        /* \"#utility.yul\":23429:23543   */\n    tag_385:\n      pop\n      jump\t// out\n        /* \"#utility.yul\":23549:23947   */\n    tag_386:\n        /* \"#utility.yul\":23708:23711   */\n      0x00\n        /* \"#utility.yul\":23729:23812   */\n      tag_621\n        /* \"#utility.yul\":23810:23811   */\n      0x00\n        /* \"#utility.yul\":23805:23808   */\n      dup4\n        /* \"#utility.yul\":23729:23812   */\n      tag_384\n      jump\t// in\n    tag_621:\n        /* \"#utility.yul\":23722:23812   */\n      swap2\n      pop\n        /* \"#utility.yul\":23821:23914   */\n      tag_622\n        /* \"#utility.yul\":23910:23913   */\n      dup3\n        /* \"#utility.yul\":23821:23914   */\n      tag_385\n      jump\t// in\n    tag_622:\n        /* \"#utility.yul\":23939:23940   */\n      0x00\n        /* \"#utility.yul\":23934:23937   */\n      dup3\n        /* \"#utility.yul\":23930:23941   */\n      add\n        /* \"#utility.yul\":23923:23941   */\n      swap1\n      pop\n        /* \"#utility.yul\":23549:23947   */\n      swap2\n      swap1\n      pop\n      jump\t// out\n        /* \"#utility.yul\":23953:24332   */\n    tag_235:\n        /* \"#utility.yul\":24137:24140   */\n      0x00\n        /* \"#utility.yul\":24159:24306   */\n      tag_624\n        /* \"#utility.yul\":24302:24305   */\n      dup3\n        /* \"#utility.yul\":24159:24306   */\n      tag_386\n      jump\t// in\n    tag_624:\n        /* \"#utility.yul\":24152:24306   */\n      swap2\n      pop\n        /* \"#utility.yul\":24323:24326   */\n      dup2\n        /* \"#utility.yul\":24316:24326   */\n      swap1\n      pop\n        /* \"#utility.yul\":23953:24332   */\n      swap2\n      swap1\n      pop\n      jump\t// out\n        /* \"#utility.yul\":24338:24497   */\n    tag_387:\n        /* \"#utility.yul\":24478:24489   */\n      0x217472616e736665720000000000000000000000000000000000000000000000\n        /* \"#utility.yul\":24474:24475   */\n      0x00\n        /* \"#utility.yul\":24466:24472   */\n      dup3\n        /* \"#utility.yul\":24462:24476   */\n      add\n        /* \"#utility.yul\":24455:24490   */\n      mstore\n        /* \"#utility.yul\":24338:24497   */\n      pop\n      jump\t// out\n        /* \"#utility.yul\":24503:24868   */\n    tag_388:\n        /* \"#utility.yul\":24645:24648   */\n      0x00\n        /* \"#utility.yul\":24666:24732   */\n      tag_627\n        /* \"#utility.yul\":24730:24731   */\n      0x09\n        /* \"#utility.yul\":24725:24728   */\n      dup4\n        /* \"#utility.yul\":24666:24732   */\n      tag_353\n      jump\t// in\n    tag_627:\n        /* \"#utility.yul\":24659:24732   */\n      swap2\n      pop\n        /* \"#utility.yul\":24741:24834   */\n      tag_628\n        /* \"#utility.yul\":24830:24833   */\n      dup3\n        /* \"#utility.yul\":24741:24834   */\n      tag_387\n      jump\t// in\n    tag_628:\n        /* \"#utility.yul\":24859:24861   */\n      0x20\n        /* \"#utility.yul\":24854:24857   */\n      dup3\n        /* \"#utility.yul\":24850:24862   */\n      add\n        /* \"#utility.yul\":24843:24862   */\n      swap1\n      pop\n        /* \"#utility.yul\":24503:24868   */\n      swap2\n      swap1\n      pop\n      jump\t// out\n        /* \"#utility.yul\":24874:25293   */\n    tag_241:\n        /* \"#utility.yul\":25040:25044   */\n      0x00\n        /* \"#utility.yul\":25078:25080   */\n      0x20\n        /* \"#utility.yul\":25067:25076   */\n      dup3\n        /* \"#utility.yul\":25063:25081   */\n      add\n        /* \"#utility.yul\":25055:25081   */\n      swap1\n      pop\n        /* \"#utility.yul\":25127:25136   */\n      dup2\n        /* \"#utility.yul\":25121:25125   */\n      dup2\n        /* \"#utility.yul\":25117:25137   */\n      sub\n        /* \"#utility.yul\":25113:25114   */\n      0x00\n        /* \"#utility.yul\":25102:25111   */\n      dup4\n        /* \"#utility.yul\":25098:25115   */\n      add\n        /* \"#utility.yul\":25091:25138   */\n      mstore\n        /* \"#utility.yul\":25155:25286   */\n      tag_630\n        /* \"#utility.yul\":25281:25285   */\n      dup2\n        /* \"#utility.yul\":25155:25286   */\n      tag_388\n      jump\t// in\n    tag_630:\n        /* \"#utility.yul\":25147:25286   */\n      swap1\n      pop\n        /* \"#utility.yul\":24874:25293   */\n      swap2\n      swap1\n      pop\n      jump\t// out\n        /* \"#utility.yul\":25299:25413   */\n    tag_389:\n        /* \"#utility.yul\":25366:25372   */\n      0x00\n        /* \"#utility.yul\":25400:25405   */\n      dup2\n        /* \"#utility.yul\":25394:25406   */\n      mload\n        /* \"#utility.yul\":25384:25406   */\n      swap1\n      pop\n        /* \"#utility.yul\":25299:25413   */\n      swap2\n      swap1\n      pop\n      jump\t// out\n        /* \"#utility.yul\":25419:25603   */\n    tag_390:\n        /* \"#utility.yul\":25518:25529   */\n      0x00\n        /* \"#utility.yul\":25552:25558   */\n      dup3\n        /* \"#utility.yul\":25547:25550   */\n      dup3\n        /* \"#utility.yul\":25540:25559   */\n      mstore\n        /* \"#utility.yul\":25592:25596   */\n      0x20\n        /* \"#utility.yul\":25587:25590   */\n      dup3\n        /* \"#utility.yul\":25583:25597   */\n      add\n        /* \"#utility.yul\":25568:25597   */\n      swap1\n      pop\n        /* \"#utility.yul\":25419:25603   */\n      swap3\n      swap2\n      pop\n      pop\n      jump\t// out\n        /* \"#utility.yul\":25609:25741   */\n    tag_391:\n        /* \"#utility.yul\":25676:25680   */\n      0x00\n        /* \"#utility.yul\":25699:25702   */\n      dup2\n        /* \"#utility.yul\":25691:25702   */\n      swap1\n      pop\n        /* \"#utility.yul\":25729:25733   */\n      0x20\n        /* \"#utility.yul\":25724:25727   */\n      dup3\n        /* \"#utility.yul\":25720:25734   */\n      add\n        /* \"#utility.yul\":25712:25734   */\n      swap1\n      pop\n        /* \"#utility.yul\":25609:25741   */\n      swap2\n      swap1\n      pop\n      jump\t// out\n        /* \"#utility.yul\":25747:25855   */\n    tag_392:\n        /* \"#utility.yul\":25824:25848   */\n      tag_635\n        /* \"#utility.yul\":25842:25847   */\n      dup2\n        /* \"#utility.yul\":25824:25848   */\n      tag_329\n      jump\t// in\n    tag_635:\n        /* \"#utility.yul\":25819:25822   */\n      dup3\n        /* \"#utility.yul\":25812:25849   */\n      mstore\n        /* \"#utility.yul\":25747:25855   */\n      pop\n      pop\n      jump\t// out\n        /* \"#utility.yul\":25861:26040   */\n    tag_393:\n        /* \"#utility.yul\":25930:25940   */\n      0x00\n        /* \"#utility.yul\":25951:25997   */\n      tag_637\n        /* \"#utility.yul\":25993:25996   */\n      dup4\n        /* \"#utility.yul\":25985:25991   */\n      dup4\n        /* \"#utility.yul\":25951:25997   */\n      tag_392\n      jump\t// in\n    tag_637:\n        /* \"#utility.yul\":26029:26033   */\n      0x20\n        /* \"#utility.yul\":26024:26027   */\n      dup4\n        /* \"#utility.yul\":26020:26034   */\n      add\n        /* \"#utility.yul\":26006:26034   */\n      swap1\n      pop\n        /* \"#utility.yul\":25861:26040   */\n      swap3\n      swap2\n      pop\n      pop\n      jump\t// out\n        /* \"#utility.yul\":26046:26159   */\n    tag_394:\n        /* \"#utility.yul\":26116:26120   */\n      0x00\n        /* \"#utility.yul\":26148:26152   */\n      0x20\n        /* \"#utility.yul\":26143:26146   */\n      dup3\n        /* \"#utility.yul\":26139:26153   */\n      add\n        /* \"#utility.yul\":26131:26153   */\n      swap1\n      pop\n        /* \"#utility.yul\":26046:26159   */\n      swap2\n      swap1\n      pop\n      jump\t// out\n        /* \"#utility.yul\":26195:26927   */\n    tag_395:\n        /* \"#utility.yul\":26314:26317   */\n      0x00\n        /* \"#utility.yul\":26343:26397   */\n      tag_640\n        /* \"#utility.yul\":26391:26396   */\n      dup3\n        /* \"#utility.yul\":26343:26397   */\n      tag_389\n      jump\t// in\n    tag_640:\n        /* \"#utility.yul\":26413:26499   */\n      tag_641\n        /* \"#utility.yul\":26492:26498   */\n      dup2\n        /* \"#utility.yul\":26487:26490   */\n      dup6\n        /* \"#utility.yul\":26413:26499   */\n      tag_390\n      jump\t// in\n    tag_641:\n        /* \"#utility.yul\":26406:26499   */\n      swap4\n      pop\n        /* \"#utility.yul\":26523:26579   */\n      tag_642\n        /* \"#utility.yul\":26573:26578   */\n      dup4\n        /* \"#utility.yul\":26523:26579   */\n      tag_391\n      jump\t// in\n    tag_642:\n        /* \"#utility.yul\":26602:26609   */\n      dup1\n        /* \"#utility.yul\":26633:26634   */\n      0x00\n        /* \"#utility.yul\":26618:26902   */\n    tag_643:\n        /* \"#utility.yul\":26643:26649   */\n      dup4\n        /* \"#utility.yul\":26640:26641   */\n      dup2\n        /* \"#utility.yul\":26637:26650   */\n      lt\n        /* \"#utility.yul\":26618:26902   */\n      iszero\n      tag_645\n      jumpi\n        /* \"#utility.yul\":26719:26725   */\n      dup2\n        /* \"#utility.yul\":26713:26726   */\n      mload\n        /* \"#utility.yul\":26746:26809   */\n      tag_646\n        /* \"#utility.yul\":26805:26808   */\n      dup9\n        /* \"#utility.yul\":26790:26803   */\n      dup3\n        /* \"#utility.yul\":26746:26809   */\n      tag_393\n      jump\t// in\n    tag_646:\n        /* \"#utility.yul\":26739:26809   */\n      swap8\n      pop\n        /* \"#utility.yul\":26832:26892   */\n      tag_647\n        /* \"#utility.yul\":26885:26891   */\n      dup4\n        /* \"#utility.yul\":26832:26892   */\n      tag_394\n      jump\t// in\n    tag_647:\n        /* \"#utility.yul\":26822:26892   */\n      swap3\n      pop\n        /* \"#utility.yul\":26678:26902   */\n      pop\n        /* \"#utility.yul\":26665:26666   */\n      0x01\n        /* \"#utility.yul\":26662:26663   */\n      dup2\n        /* \"#utility.yul\":26658:26667   */\n      add\n        /* \"#utility.yul\":26653:26667   */\n      swap1\n      pop\n        /* \"#utility.yul\":26618:26902   */\n      jump(tag_643)\n    tag_645:\n        /* \"#utility.yul\":26622:26636   */\n      pop\n        /* \"#utility.yul\":26918:26921   */\n      dup6\n        /* \"#utility.yul\":26911:26921   */\n      swap4\n      pop\n        /* \"#utility.yul\":26319:26927   */\n      pop\n      pop\n      pop\n        /* \"#utility.yul\":26195:26927   */\n      swap3\n      swap2\n      pop\n      pop\n      jump\t// out\n        /* \"#utility.yul\":26933:27677   */\n    tag_243:\n        /* \"#utility.yul\":27182:27186   */\n      0x00\n        /* \"#utility.yul\":27220:27222   */\n      0x60\n        /* \"#utility.yul\":27209:27218   */\n      dup3\n        /* \"#utility.yul\":27205:27223   */\n      add\n        /* \"#utility.yul\":27197:27223   */\n      swap1\n      pop\n        /* \"#utility.yul\":27233:27304   */\n      tag_649\n        /* \"#utility.yul\":27301:27302   */\n      0x00\n        /* \"#utility.yul\":27290:27299   */\n      dup4\n        /* \"#utility.yul\":27286:27303   */\n      add\n        /* \"#utility.yul\":27277:27283   */\n      dup7\n        /* \"#utility.yul\":27233:27304   */\n      tag_334\n      jump\t// in\n    tag_649:\n        /* \"#utility.yul\":27351:27360   */\n      dup2\n        /* \"#utility.yul\":27345:27349   */\n      dup2\n        /* \"#utility.yul\":27341:27361   */\n      sub\n        /* \"#utility.yul\":27336:27338   */\n      0x20\n        /* \"#utility.yul\":27325:27334   */\n      dup4\n        /* \"#utility.yul\":27321:27339   */\n      add\n        /* \"#utility.yul\":27314:27362   */\n      mstore\n        /* \"#utility.yul\":27379:27487   */\n      tag_650\n        /* \"#utility.yul\":27482:27486   */\n      dup2\n        /* \"#utility.yul\":27473:27479   */\n      dup6\n        /* \"#utility.yul\":27379:27487   */\n      tag_395\n      jump\t// in\n    tag_650:\n        /* \"#utility.yul\":27371:27487   */\n      swap1\n      pop\n        /* \"#utility.yul\":27534:27543   */\n      dup2\n        /* \"#utility.yul\":27528:27532   */\n      dup2\n        /* \"#utility.yul\":27524:27544   */\n      sub\n        /* \"#utility.yul\":27519:27521   */\n      0x40\n        /* \"#utility.yul\":27508:27517   */\n      dup4\n        /* \"#utility.yul\":27504:27522   */\n      add\n        /* \"#utility.yul\":27497:27545   */\n      mstore\n        /* \"#utility.yul\":27562:27670   */\n      tag_651\n        /* \"#utility.yul\":27665:27669   */\n      dup2\n        /* \"#utility.yul\":27656:27662   */\n      dup5\n        /* \"#utility.yul\":27562:27670   */\n      tag_395\n      jump\t// in\n    tag_651:\n        /* \"#utility.yul\":27554:27670   */\n      swap1\n      pop\n        /* \"#utility.yul\":26933:27677   */\n      swap5\n      swap4\n      pop\n      pop\n      pop\n      pop\n      jump\t// out\n        /* \"#utility.yul\":27683:28317   */\n    tag_248:\n        /* \"#utility.yul\":27904:27908   */\n      0x00\n        /* \"#utility.yul\":27942:27944   */\n      0x40\n        /* \"#utility.yul\":27931:27940   */\n      dup3\n        /* \"#utility.yul\":27927:27945   */\n      add\n        /* \"#utility.yul\":27919:27945   */\n      swap1\n      pop\n        /* \"#utility.yul\":27991:28000   */\n      dup2\n        /* \"#utility.yul\":27985:27989   */\n      dup2\n        /* \"#utility.yul\":27981:28001   */\n      sub\n        /* \"#utility.yul\":27977:27978   */\n      0x00\n        /* \"#utility.yul\":27966:27975   */\n      dup4\n        /* \"#utility.yul\":27962:27979   */\n      add\n        /* \"#utility.yul\":27955:28002   */\n      mstore\n        /* \"#utility.yul\":28019:28127   */\n      tag_653\n        /* \"#utility.yul\":28122:28126   */\n      dup2\n        /* \"#utility.yul\":28113:28119   */\n      dup6\n        /* \"#utility.yul\":28019:28127   */\n      tag_395\n      jump\t// in\n    tag_653:\n        /* \"#utility.yul\":28011:28127   */\n      swap1\n      pop\n        /* \"#utility.yul\":28174:28183   */\n      dup2\n        /* \"#utility.yul\":28168:28172   */\n      dup2\n        /* \"#utility.yul\":28164:28184   */\n      sub\n        /* \"#utility.yul\":28159:28161   */\n      0x20\n        /* \"#utility.yul\":28148:28157   */\n      dup4\n        /* \"#utility.yul\":28144:28162   */\n      add\n        /* \"#utility.yul\":28137:28185   */\n      mstore\n        /* \"#utility.yul\":28202:28310   */\n      tag_654\n        /* \"#utility.yul\":28305:28309   */\n      dup2\n        /* \"#utility.yul\":28296:28302   */\n      dup5\n        /* \"#utility.yul\":28202:28310   */\n      tag_395\n      jump\t// in\n    tag_654:\n        /* \"#utility.yul\":28194:28310   */\n      swap1\n      pop\n        /* \"#utility.yul\":27683:28317   */\n      swap4\n      swap3\n      pop\n      pop\n      pop\n      jump\t// out\n        /* \"#utility.yul\":28323:28480   */\n    tag_396:\n        /* \"#utility.yul\":28463:28472   */\n      0x21656e6f75676800000000000000000000000000000000000000000000000000\n        /* \"#utility.yul\":28459:28460   */\n      0x00\n        /* \"#utility.yul\":28451:28457   */\n      dup3\n        /* \"#utility.yul\":28447:28461   */\n      add\n        /* \"#utility.yul\":28440:28473   */\n      mstore\n        /* \"#utility.yul\":28323:28480   */\n      pop\n      jump\t// out\n        /* \"#utility.yul\":28486:28851   */\n    tag_397:\n        /* \"#utility.yul\":28628:28631   */\n      0x00\n        /* \"#utility.yul\":28649:28715   */\n      tag_657\n        /* \"#utility.yul\":28713:28714   */\n      0x07\n        /* \"#utility.yul\":28708:28711   */\n      dup4\n        /* \"#utility.yul\":28649:28715   */\n      tag_353\n      jump\t// in\n    tag_657:\n        /* \"#utility.yul\":28642:28715   */\n      swap2\n      pop\n        /* \"#utility.yul\":28724:28817   */\n      tag_658\n        /* \"#utility.yul\":28813:28816   */\n      dup3\n        /* \"#utility.yul\":28724:28817   */\n      tag_396\n      jump\t// in\n    tag_658:\n        /* \"#utility.yul\":28842:28844   */\n      0x20\n        /* \"#utility.yul\":28837:28840   */\n      dup3\n        /* \"#utility.yul\":28833:28845   */\n      add\n        /* \"#utility.yul\":28826:28845   */\n      swap1\n      pop\n        /* \"#utility.yul\":28486:28851   */\n      swap2\n      swap1\n      pop\n      jump\t// out\n        /* \"#utility.yul\":28857:29276   */\n    tag_252:\n        /* \"#utility.yul\":29023:29027   */\n      0x00\n        /* \"#utility.yul\":29061:29063   */\n      0x20\n        /* \"#utility.yul\":29050:29059   */\n      dup3\n        /* \"#utility.yul\":29046:29064   */\n      add\n        /* \"#utility.yul\":29038:29064   */\n      swap1\n      pop\n        /* \"#utility.yul\":29110:29119   */\n      dup2\n        /* \"#utility.yul\":29104:29108   */\n      dup2\n        /* \"#utility.yul\":29100:29120   */\n      sub\n        /* \"#utility.yul\":29096:29097   */\n      0x00\n        /* \"#utility.yul\":29085:29094   */\n      dup4\n        /* \"#utility.yul\":29081:29098   */\n      add\n        /* \"#utility.yul\":29074:29121   */\n      mstore\n        /* \"#utility.yul\":29138:29269   */\n      tag_660\n        /* \"#utility.yul\":29264:29268   */\n      dup2\n        /* \"#utility.yul\":29138:29269   */\n      tag_397\n      jump\t// in\n    tag_660:\n        /* \"#utility.yul\":29130:29269   */\n      swap1\n      pop\n        /* \"#utility.yul\":28857:29276   */\n      swap2\n      swap1\n      pop\n      jump\t// out\n        /* \"#utility.yul\":29282:29361   */\n    tag_398:\n        /* \"#utility.yul\":29321:29328   */\n      0x00\n        /* \"#utility.yul\":29350:29355   */\n      dup2\n        /* \"#utility.yul\":29339:29355   */\n      swap1\n      pop\n        /* \"#utility.yul\":29282:29361   */\n      swap2\n      swap1\n      pop\n      jump\t// out\n        /* \"#utility.yul\":29367:29524   */\n    tag_399:\n        /* \"#utility.yul\":29472:29517   */\n      tag_663\n        /* \"#utility.yul\":29492:29516   */\n      tag_664\n        /* \"#utility.yul\":29510:29515   */\n      dup3\n        /* \"#utility.yul\":29492:29516   */\n      tag_333\n      jump\t// in\n    tag_664:\n        /* \"#utility.yul\":29472:29517   */\n      tag_398\n      jump\t// in\n    tag_663:\n        /* \"#utility.yul\":29467:29470   */\n      dup3\n        /* \"#utility.yul\":29460:29518   */\n      mstore\n        /* \"#utility.yul\":29367:29524   */\n      pop\n      pop\n      jump\t// out\n        /* \"#utility.yul\":29530:29927   */\n    tag_278:\n        /* \"#utility.yul\":29670:29673   */\n      0x00\n        /* \"#utility.yul\":29685:29760   */\n      tag_666\n        /* \"#utility.yul\":29756:29759   */\n      dup3\n        /* \"#utility.yul\":29747:29753   */\n      dup6\n        /* \"#utility.yul\":29685:29760   */\n      tag_399\n      jump\t// in\n    tag_666:\n        /* \"#utility.yul\":29785:29787   */\n      0x20\n        /* \"#utility.yul\":29780:29783   */\n      dup3\n        /* \"#utility.yul\":29776:29788   */\n      add\n        /* \"#utility.yul\":29769:29788   */\n      swap2\n      pop\n        /* \"#utility.yul\":29798:29873   */\n      tag_667\n        /* \"#utility.yul\":29869:29872   */\n      dup3\n        /* \"#utility.yul\":29860:29866   */\n      dup5\n        /* \"#utility.yul\":29798:29873   */\n      tag_399\n      jump\t// in\n    tag_667:\n        /* \"#utility.yul\":29898:29900   */\n      0x20\n        /* \"#utility.yul\":29893:29896   */\n      dup3\n        /* \"#utility.yul\":29889:29901   */\n      add\n        /* \"#utility.yul\":29882:29901   */\n      swap2\n      pop\n        /* \"#utility.yul\":29918:29921   */\n      dup2\n        /* \"#utility.yul\":29911:29921   */\n      swap1\n      pop\n        /* \"#utility.yul\":29530:29927   */\n      swap4\n      swap3\n      pop\n      pop\n      pop\n      jump\t// out\n\n    auxdata: 0xa26469706673582212206f1aa9039393e6428f80ce9b499e8ceea04e59dae0c98fdd7e6cf2a7faae61a664736f6c634300081a0033\n}\n",
				"bytecode": {
					"linkReferences": {},
					"object": "60e060405234801561000f575f80fd5b50604051612ef6380380612ef683398181016040528101906100319190610462565b5f73ffffffffffffffffffffffffffffffffffffffff168273ffffffffffffffffffffffffffffffffffffffff160361009f576040517f08c379a00000000000000000000000000000000000000000000000000000000081526004016100969061050d565b60405180910390fd5b82608081815250508173ffffffffffffffffffffffffffffffffffffffff1660a08173ffffffffffffffffffffffffffffffffffffffff1681525050805f80820151815f01556020820151816001015560408201518160020155606082015181600301556080820151816004015560a08201518160050190600a61012492919061018d565b509050505f600f5f6101000a81548160ff0219169083600281111561014c5761014b61052b565b5b02179055503373ffffffffffffffffffffffffffffffffffffffff1660c08173ffffffffffffffffffffffffffffffffffffffff1681525050505050610558565b82600a81019282156101bc579160200282015b828111156101bb5782518255916020019190600101906101a0565b5b5090506101c991906101cd565b5090565b5b808211156101e4575f815f9055506001016101ce565b5090565b5f604051905090565b5f80fd5b5f819050919050565b610207816101f5565b8114610211575f80fd5b50565b5f81519050610222816101fe565b92915050565b5f73ffffffffffffffffffffffffffffffffffffffff82169050919050565b5f61025182610228565b9050919050565b61026181610247565b811461026b575f80fd5b50565b5f8151905061027c81610258565b92915050565b5f80fd5b5f601f19601f8301169050919050565b7f4e487b71000000000000000000000000000000000000000000000000000000005f52604160045260245ffd5b6102cc82610286565b810181811067ffffffffffffffff821117156102eb576102ea610296565b5b80604052505050565b5f6102fd6101e8565b905061030982826102c3565b919050565b5f80fd5b5f67ffffffffffffffff82111561032c5761032b610296565b5b602082029050919050565b5f80fd5b5f61034d61034884610312565b6102f4565b9050806020840283018581111561036757610366610337565b5b835b81811015610390578061037c8882610214565b845260208401935050602081019050610369565b5050509392505050565b5f82601f8301126103ae576103ad61030e565b5b600a6103bb84828561033b565b91505092915050565b5f6101e082840312156103da576103d9610282565b5b6103e460c06102f4565b90505f6103f384828501610214565b5f83015250602061040684828501610214565b602083015250604061041a84828501610214565b604083015250606061042e84828501610214565b606083015250608061044284828501610214565b60808301525060a06104568482850161039a565b60a08301525092915050565b5f805f610220848603121561047a576104796101f1565b5b5f61048786828701610214565b93505060206104988682870161026e565b92505060406104a9868287016103c4565b9150509250925092565b5f82825260208201905092915050565b7f217661756c7400000000000000000000000000000000000000000000000000005f82015250565b5f6104f76006836104b3565b9150610502826104c3565b602082019050919050565b5f6020820190508181035f830152610524816104eb565b9050919050565b7f4e487b71000000000000000000000000000000000000000000000000000000005f52602160045260245ffd5b60805160a05160c05161294a6105ac5f395f610ea301525f818161028c0152818161148e015261155501525f8181610e0a01528181610e7f01528181611591015281816115ff01526116dd015261294a5ff3fe60806040526004361061009b575f3560e01c8063d1f9c24d11610063578063d1f9c24d1461019c578063d4f77b1c146101c6578063d7c81b55146101d0578063f437bc59146101fa578063f71d96cb14610224578063fb9bdab4146102605761009b565b806324e7964a1461009f578063424aeded146100c957806379502c5514610109578063ad5c21d914610137578063b0652a8814610174575b5f80fd5b3480156100aa575f80fd5b506100b361028a565b6040516100c09190611bab565b60405180910390f35b3480156100d4575f80fd5b506100ef60048036038101906100ea9190611c03565b6102ae565b604051610100959493929190611c6f565b60405180910390f35b348015610114575f80fd5b5061011d610318565b60405161012e959493929190611cc0565b60405180910390f35b348015610142575f80fd5b5061015d60048036038101906101589190611c03565b61033a565b60405161016b929190611db6565b60405180910390f35b34801561017f575f80fd5b5061019a60048036038101906101959190611e15565b61040c565b005b3480156101a7575f80fd5b506101b0610adb565b6040516101bd9190611ec6565b60405180910390f35b6101ce610aed565b005b3480156101db575f80fd5b506101e4610e7d565b6040516101f19190611edf565b60405180910390f35b348015610205575f80fd5b5061020e610ea1565b60405161021b9190611ef8565b60405180910390f35b34801561022f575f80fd5b5061024a60048036038101906102459190611f3b565b610ec5565b6040516102579190611ef8565b60405180910390f35b34801561026b575f80fd5b50610274610f00565b6040516102819190611edf565b60405180910390f35b7f000000000000000000000000000000000000000000000000000000000000000081565b6011602052805f5260405f205f91509050805f015f9054906101000a900473ffffffffffffffffffffffffffffffffffffffff1690806001015490806002015f9054906101000a900460ff16908060020160019054906101000a900460ff169080600d0154905085565b5f805f0154908060010154908060020154908060030154908060040154905085565b610342611b0e565b5f60115f8473ffffffffffffffffffffffffffffffffffffffff1673ffffffffffffffffffffffffffffffffffffffff1681526020019081526020015f2060030160115f8573ffffffffffffffffffffffffffffffffffffffff1673ffffffffffffffffffffffffffffffffffffffff1681526020019081526020015f20600d015481600a806020026040519081016040528092919082600a80156103fc576020028201915b8154815260200190600101908083116103e8575b5050505050915091509150915091565b600160028111156104205761041f611e53565b5b600f5f9054906101000a900460ff16600281111561044157610440611e53565b5b14610481576040517f08c379a000000000000000000000000000000000000000000000000000000000815260040161047890611fc0565b60405180910390fd5b3373ffffffffffffffffffffffffffffffffffffffff166010601254815481106104ae576104ad611fde565b5b905f5260205f20015f9054906101000a900473ffffffffffffffffffffffffffffffffffffffff1673ffffffffffffffffffffffffffffffffffffffff161461052c576040517f08c379a000000000000000000000000000000000000000000000000000000000815260040161052390612055565b60405180910390fd5b60115f3373ffffffffffffffffffffffffffffffffffffffff1673ffffffffffffffffffffffffffffffffffffffff1681526020019081526020015f2060020160019054906101000a900460ff16156105ba576040517f08c379a00000000000000000000000000000000000000000000000000000000081526004016105b1906120bd565b60405180910390fd5b5f73ffffffffffffffffffffffffffffffffffffffff168273ffffffffffffffffffffffffffffffffffffffff1603610628576040517f08c379a000000000000000000000000000000000000000000000000000000000815260040161061f90612125565b60405180910390fd5b5f8160ff16036107c8575f60115f8473ffffffffffffffffffffffffffffffffffffffff1673ffffffffffffffffffffffffffffffffffffffff1681526020019081526020015f20600d0154116106b4576040517f08c379a00000000000000000000000000000000000000000000000000000000081526004016106ab9061218d565b60405180910390fd5b60115f8373ffffffffffffffffffffffffffffffffffffffff1673ffffffffffffffffffffffffffffffffffffffff1681526020019081526020015f20600d015f815480929190610704906121d8565b919050555060115f3373ffffffffffffffffffffffffffffffffffffffff1673ffffffffffffffffffffffffffffffffffffffff1681526020019081526020015f20600d015f815480929190610759906121ff565b91905055503373ffffffffffffffffffffffffffffffffffffffff168273ffffffffffffffffffffffffffffffffffffffff167f345ab5394e10f7b605071092c87ea512b2b9f3a616f8c85b996c2aa8a418c69c5f6040516107bb919061227f565b60405180910390a3610a0e565b60018160ff16101580156107e05750600a8160ff1611155b61081f576040517f08c379a0000000000000000000000000000000000000000000000000000000008152600401610816906122e2565b60405180910390fd5b5f60018261082d9190612300565b90505f60115f8573ffffffffffffffffffffffffffffffffffffffff1673ffffffffffffffffffffffffffffffffffffffff1681526020019081526020015f206003018260ff16600a811061088557610884611fde565b5b0154116108c7576040517f08c379a00000000000000000000000000000000000000000000000000000000081526004016108be9061237e565b60405180910390fd5b60115f8473ffffffffffffffffffffffffffffffffffffffff1673ffffffffffffffffffffffffffffffffffffffff1681526020019081526020015f206003018160ff16600a811061091c5761091b611fde565b5b015f81548092919061092d906121d8565b919050555060115f3373ffffffffffffffffffffffffffffffffffffffff1673ffffffffffffffffffffffffffffffffffffffff1681526020019081526020015f206003018160ff16600a811061098757610986611fde565b5b015f815480929190610998906121ff565b91905055506109a73382610f06565b3373ffffffffffffffffffffffffffffffffffffffff168373ffffffffffffffffffffffffffffffffffffffff167f345ab5394e10f7b605071092c87ea512b2b9f3a616f8c85b996c2aa8a418c69c84604051610a0491906123ab565b60405180910390a3505b610a1733610fd5565b15610ab957600160115f3373ffffffffffffffffffffffffffffffffffffffff1673ffffffffffffffffffffffffffffffffffffffff1681526020019081526020015f2060020160016101000a81548160ff0219169083151502179055503373ffffffffffffffffffffffffffffffffffffffff167fe6dd6074e48f46e9dd6d19c1a3fc9866c5663e7b916849845c35059410b37b2860405160405180910390a25b610ac16110b3565b610ac9611192565b15610ad757610ad6611258565b5b5050565b600f5f9054906101000a900460ff1681565b5f6002811115610b0057610aff611e53565b5b600f5f9054906101000a900460ff166002811115610b2157610b20611e53565b5b14610b61576040517f08c379a0000000000000000000000000000000000000000000000000000000008152600401610b589061240e565b60405180910390fd5b60115f3373ffffffffffffffffffffffffffffffffffffffff1673ffffffffffffffffffffffffffffffffffffffff1681526020019081526020015f206002015f9054906101000a900460ff1615610bee576040517f08c379a0000000000000000000000000000000000000000000000000000000008152600401610be590612476565b60405180910390fd5b5f6001015460108054905010610c39576040517f08c379a0000000000000000000000000000000000000000000000000000000008152600401610c30906124de565b60405180910390fd5b5f3490505f806003015403610c93575f600201548114610c8e576040517f08c379a0000000000000000000000000000000000000000000000000000000008152600401610c8590612546565b60405180910390fd5b610ceb565b5f600201548110158015610cab57505f600301548111155b610cea576040517f08c379a0000000000000000000000000000000000000000000000000000000008152600401610ce1906125ae565b60405180910390fd5b5b5f60115f3373ffffffffffffffffffffffffffffffffffffffff1673ffffffffffffffffffffffffffffffffffffffff1681526020019081526020015f20905033815f015f6101000a81548173ffffffffffffffffffffffffffffffffffffffff021916908373ffffffffffffffffffffffffffffffffffffffff1602179055508181600101819055506001816002015f6101000a81548160ff021916908315150217905550601033908060018154018082558091505060019003905f5260205f20015f9091909190916101000a81548173ffffffffffffffffffffffffffffffffffffffff021916908373ffffffffffffffffffffffffffffffffffffffff1602179055503373ffffffffffffffffffffffffffffffffffffffff167f00000000000000000000000000000000000000000000000000000000000000007f03dfbe1fcb4e2d61f3b4a0c93d8f814c92250618b3387f396cc9fc9fafe2c20384604051610e589190611edf565b60405180910390a35f6001015460108054905003610e7957610e7861165e565b5b5050565b7f000000000000000000000000000000000000000000000000000000000000000081565b7f000000000000000000000000000000000000000000000000000000000000000081565b60108181548110610ed4575f80fd5b905f5260205f20015f915054906101000a900473ffffffffffffffffffffffffffffffffffffffff1681565b60125481565b5f60115f8473ffffffffffffffffffffffffffffffffffffffff1673ffffffffffffffffffffffffffffffffffffffff1681526020019081526020015f206003018260ff16600a8110610f5c57610f5b611fde565b5b0154905060028110610fd057600281610f7591906125f9565b60115f8573ffffffffffffffffffffffffffffffffffffffff1673ffffffffffffffffffffffffffffffffffffffff1681526020019081526020015f206003018360ff16600a8110610fca57610fc9611fde565b5b01819055505b505050565b5f8060115f8473ffffffffffffffffffffffffffffffffffffffff1673ffffffffffffffffffffffffffffffffffffffff1681526020019081526020015f20600d01541115611026575f90506110ae565b5f5b600a8160ff1610156110a8575f60115f8573ffffffffffffffffffffffffffffffffffffffff1673ffffffffffffffffffffffffffffffffffffffff1681526020019081526020015f206003018260ff16600a811061108a57611089611fde565b5b0154111561109b575f9150506110ae565b8080600101915050611028565b50600190505b919050565b5f60108054905060016012546110c99190612629565b6110d391906125f9565b90505b60115f601083815481106110ed576110ec611fde565b5b905f5260205f20015f9054906101000a900473ffffffffffffffffffffffffffffffffffffffff1673ffffffffffffffffffffffffffffffffffffffff1673ffffffffffffffffffffffffffffffffffffffff1681526020019081526020015f2060020160019054906101000a900460ff1615611188576010805490506001826111779190612629565b61118191906125f9565b90506110d6565b8060128190555050565b5f805f5b60108054905081101561124c5760115f601083815481106111ba576111b9611fde565b5b905f5260205f20015f9054906101000a900473ffffffffffffffffffffffffffffffffffffffff1673ffffffffffffffffffffffffffffffffffffffff1673ffffffffffffffffffffffffffffffffffffffff1681526020019081526020015f2060020160019054906101000a900460ff1661123f57818061123b906121ff565b9250505b8080600101915050611196565b50600181111591505090565b6002600f5f6101000a81548160ff0219169083600281111561127d5761127c611e53565b5b02179055505f60108054905067ffffffffffffffff8111156112a2576112a161265c565b5b6040519080825280602002602001820160405280156112d05781602001602082028036833780820191505090505b5090505f60108054905067ffffffffffffffff8111156112f3576112f261265c565b5b6040519080825280602002602001820160405280156113215781602001602082028036833780820191505090505b5090505f805f5b601080549050811015611484575f6010828154811061134a57611349611fde565b5b905f5260205f20015f9054906101000a900473ffffffffffffffffffffffffffffffffffffffff1690505f60115f8373ffffffffffffffffffffffffffffffffffffffff1673ffffffffffffffffffffffffffffffffffffffff1681526020019081526020015f20600d0154111561141b57808685806113c9906121ff565b9650815181106113dc576113db611fde565b5b602002602001019073ffffffffffffffffffffffffffffffffffffffff16908173ffffffffffffffffffffffffffffffffffffffff1681525050611476565b80858480611428906121ff565b95508151811061143b5761143a611fde565b5b602002602001019073ffffffffffffffffffffffffffffffffffffffff16908173ffffffffffffffffffffffffffffffffffffffff16815250505b508080600101915050611328565b508184528083525f7f000000000000000000000000000000000000000000000000000000000000000073ffffffffffffffffffffffffffffffffffffffff16476040516114d0906126b6565b5f6040518083038185875af1925050503d805f811461150a576040519150601f19603f3d011682016040523d82523d5f602084013e61150f565b606091505b5050905080611553576040517f08c379a000000000000000000000000000000000000000000000000000000000815260040161154a90612714565b60405180910390fd5b7f000000000000000000000000000000000000000000000000000000000000000073ffffffffffffffffffffffffffffffffffffffff166372a222827f000000000000000000000000000000000000000000000000000000000000000086886040518463ffffffff1660e01b81526004016115d0939291906127e9565b5f604051808303815f87803b1580156115e7575f80fd5b505af11580156115f9573d5f803e3d5ffd5b505050507f00000000000000000000000000000000000000000000000000000000000000007fec9076d3d1e4910861e8852ef3e8820904b6868d2e5c85563e5c82f45c776d1f868660405161164f92919061282c565b60405180910390a25050505050565b5f80015460108054905010156116a9576040517f08c379a00000000000000000000000000000000000000000000000000000000081526004016116a0906128ab565b60405180910390fd5b6001600f5f6101000a81548160ff021916908360028111156116ce576116cd611e53565b5b02179055506116db61172a565b7f00000000000000000000000000000000000000000000000000000000000000007f50ad08f58a27f2851d7e3a1b3a6a46b290f2ce677e99642d30ff639721e7779060405160405180910390a2565b5f60108054905090505f61173c611927565b90505f5b8151811015611835575f6010848361175891906125f9565b8154811061176957611768611fde565b5b905f5260205f20015f9054906101000a900473ffffffffffffffffffffffffffffffffffffffff1690505f8383815181106117a7576117a6611fde565b5b6020026020010151905060115f8373ffffffffffffffffffffffffffffffffffffffff1673ffffffffffffffffffffffffffffffffffffffff1681526020019081526020015f206003018160ff16600a811061180657611805611fde565b5b015f815480929190611817906121ff565b91905055506118268282610f06565b50508080600101915050611740565b505f806004015490505f5b81811015611921575f601085428460405160200161185f9291906128e9565b604051602081830303815290604052805190602001205f1c61188191906125f9565b8154811061189257611891611fde565b5b905f5260205f20015f9054906101000a900473ffffffffffffffffffffffffffffffffffffffff169050600160115f8373ffffffffffffffffffffffffffffffffffffffff1673ffffffffffffffffffffffffffffffffffffffff1681526020019081526020015f20600d015f82825461190c9190612629565b92505081905550508080600101915050611840565b50505050565b60605f805f90505b600a81101561196a575f60050181600a811061194e5761194d611fde565b5b01548261195b9190612629565b9150808060010191505061192f565b505f8167ffffffffffffffff8111156119865761198561265c565b5b6040519080825280602002602001820160405280156119b45781602001602082028036833780820191505090505b5090505f805f90505b600a8160ff161015611a3c575f806005018260ff16600a81106119e3576119e2611fde565b5b015490505f5b81811015611a2d578260ff16858580611a01906121ff565b965081518110611a1457611a13611fde565b5b60200260200101818152505080806001019150506119e9565b505080806001019150506119bd565b505f5b8251811015611b04575f83514283604051602001611a5e9291906128e9565b604051602081830303815290604052805190602001205f1c611a8091906125f9565b9050838181518110611a9557611a94611fde565b5b6020026020010151848381518110611ab057611aaf611fde565b5b6020026020010151858481518110611acb57611aca611fde565b5b60200260200101868481518110611ae557611ae4611fde565b5b6020026020010182815250828152505050508080600101915050611a3f565b5081935050505090565b604051806101400160405280600a90602082028036833780820191505090505090565b5f73ffffffffffffffffffffffffffffffffffffffff82169050919050565b5f819050919050565b5f611b73611b6e611b6984611b31565b611b50565b611b31565b9050919050565b5f611b8482611b59565b9050919050565b5f611b9582611b7a565b9050919050565b611ba581611b8b565b82525050565b5f602082019050611bbe5f830184611b9c565b92915050565b5f80fd5b5f611bd282611b31565b9050919050565b611be281611bc8565b8114611bec575f80fd5b50565b5f81359050611bfd81611bd9565b92915050565b5f60208284031215611c1857611c17611bc4565b5b5f611c2584828501611bef565b91505092915050565b611c3781611bc8565b82525050565b5f819050919050565b611c4f81611c3d565b82525050565b5f8115159050919050565b611c6981611c55565b82525050565b5f60a082019050611c825f830188611c2e565b611c8f6020830187611c46565b611c9c6040830186611c60565b611ca96060830185611c60565b611cb66080830184611c46565b9695505050505050565b5f60a082019050611cd35f830188611c46565b611ce06020830187611c46565b611ced6040830186611c46565b611cfa6060830185611c46565b611d076080830184611c46565b9695505050505050565b5f600a9050919050565b5f81905092915050565b5f819050919050565b611d3781611c3d565b82525050565b5f611d488383611d2e565b60208301905092915050565b5f602082019050919050565b611d6981611d11565b611d738184611d1b565b9250611d7e82611d25565b805f5b83811015611dae578151611d958782611d3d565b9650611da083611d54565b925050600181019050611d81565b505050505050565b5f61016082019050611dca5f830185611d60565b611dd8610140830184611c46565b9392505050565b5f60ff82169050919050565b611df481611ddf565b8114611dfe575f80fd5b50565b5f81359050611e0f81611deb565b92915050565b5f8060408385031215611e2b57611e2a611bc4565b5b5f611e3885828601611bef565b9250506020611e4985828601611e01565b9150509250929050565b7f4e487b71000000000000000000000000000000000000000000000000000000005f52602160045260245ffd5b60038110611e9157611e90611e53565b5b50565b5f819050611ea182611e80565b919050565b5f611eb082611e94565b9050919050565b611ec081611ea6565b82525050565b5f602082019050611ed95f830184611eb7565b92915050565b5f602082019050611ef25f830184611c46565b92915050565b5f602082019050611f0b5f830184611c2e565b92915050565b611f1a81611c3d565b8114611f24575f80fd5b50565b5f81359050611f3581611f11565b92915050565b5f60208284031215611f5057611f4f611bc4565b5b5f611f5d84828501611f27565b91505092915050565b5f82825260208201905092915050565b7f21706c6179696e670000000000000000000000000000000000000000000000005f82015250565b5f611faa600883611f66565b9150611fb582611f76565b602082019050919050565b5f6020820190508181035f830152611fd781611f9e565b9050919050565b7f4e487b71000000000000000000000000000000000000000000000000000000005f52603260045260245ffd5b7f217475726e0000000000000000000000000000000000000000000000000000005f82015250565b5f61203f600583611f66565b915061204a8261200b565b602082019050919050565b5f6020820190508181035f83015261206c81612033565b9050919050565b7f6f757400000000000000000000000000000000000000000000000000000000005f82015250565b5f6120a7600383611f66565b91506120b282612073565b602082019050919050565b5f6020820190508181035f8301526120d48161209b565b9050919050565b7f21746172676574000000000000000000000000000000000000000000000000005f82015250565b5f61210f600783611f66565b915061211a826120db565b602082019050919050565b5f6020820190508181035f83015261213c81612103565b9050919050565b7f6e6f206a6f6b65720000000000000000000000000000000000000000000000005f82015250565b5f612177600883611f66565b915061218282612143565b602082019050919050565b5f6020820190508181035f8301526121a48161216b565b9050919050565b7f4e487b71000000000000000000000000000000000000000000000000000000005f52601160045260245ffd5b5f6121e282611c3d565b91505f82036121f4576121f36121ab565b5b600182039050919050565b5f61220982611c3d565b91507fffffffffffffffffffffffffffffffffffffffffffffffffffffffffffffffff820361223b5761223a6121ab565b5b600182019050919050565b5f819050919050565b5f61226961226461225f84612246565b611b50565b611ddf565b9050919050565b6122798161224f565b82525050565b5f6020820190506122925f830184612270565b92915050565b7f6361726420312d313000000000000000000000000000000000000000000000005f82015250565b5f6122cc600983611f66565b91506122d782612298565b602082019050919050565b5f6020820190508181035f8301526122f9816122c0565b9050919050565b5f61230a82611ddf565b915061231583611ddf565b9250828203905060ff81111561232e5761232d6121ab565b5b92915050565b7f6e6f2063617264000000000000000000000000000000000000000000000000005f82015250565b5f612368600783611f66565b915061237382612334565b602082019050919050565b5f6020820190508181035f8301526123958161235c565b9050919050565b6123a581611ddf565b82525050565b5f6020820190506123be5f83018461239c565b92915050565b7f2170656e64696e670000000000000000000000000000000000000000000000005f82015250565b5f6123f8600883611f66565b9150612403826123c4565b602082019050919050565b5f6020820190508181035f830152612425816123ec565b9050919050565b7f6a6f696e656400000000000000000000000000000000000000000000000000005f82015250565b5f612460600683611f66565b915061246b8261242c565b602082019050919050565b5f6020820190508181035f83015261248d81612454565b9050919050565b7f66756c6c000000000000000000000000000000000000000000000000000000005f82015250565b5f6124c8600483611f66565b91506124d382612494565b602082019050919050565b5f6020820190508181035f8301526124f5816124bc565b9050919050565b7f6669786564207374616b650000000000000000000000000000000000000000005f82015250565b5f612530600b83611f66565b915061253b826124fc565b602082019050919050565b5f6020820190508181035f83015261255d81612524565b9050919050565b7f72616e67650000000000000000000000000000000000000000000000000000005f82015250565b5f612598600583611f66565b91506125a382612564565b602082019050919050565b5f6020820190508181035f8301526125c58161258c565b9050919050565b7f4e487b71000000000000000000000000000000000000000000000000000000005f52601260045260245ffd5b5f61260382611c3d565b915061260e83611c3d565b92508261261e5761261d6125cc565b5b828206905092915050565b5f61263382611c3d565b915061263e83611c3d565b9250828201905080821115612656576126556121ab565b5b92915050565b7f4e487b71000000000000000000000000000000000000000000000000000000005f52604160045260245ffd5b5f81905092915050565b50565b5f6126a15f83612689565b91506126ac82612693565b5f82019050919050565b5f6126c082612696565b9150819050919050565b7f217472616e7366657200000000000000000000000000000000000000000000005f82015250565b5f6126fe600983611f66565b9150612709826126ca565b602082019050919050565b5f6020820190508181035f83015261272b816126f2565b9050919050565b5f81519050919050565b5f82825260208201905092915050565b5f819050602082019050919050565b61276481611bc8565b82525050565b5f612775838361275b565b60208301905092915050565b5f602082019050919050565b5f61279782612732565b6127a1818561273c565b93506127ac8361274c565b805f5b838110156127dc5781516127c3888261276a565b97506127ce83612781565b9250506001810190506127af565b5085935050505092915050565b5f6060820190506127fc5f830186611c46565b818103602083015261280e818561278d565b90508181036040830152612822818461278d565b9050949350505050565b5f6040820190508181035f830152612844818561278d565b90508181036020830152612858818461278d565b90509392505050565b7f21656e6f756768000000000000000000000000000000000000000000000000005f82015250565b5f612895600783611f66565b91506128a082612861565b602082019050919050565b5f6020820190508181035f8301526128c281612889565b9050919050565b5f819050919050565b6128e36128de82611c3d565b6128c9565b82525050565b5f6128f482856128d2565b60208201915061290482846128d2565b602082019150819050939250505056fea26469706673582212206f1aa9039393e6428f80ce9b499e8ceea04e59dae0c98fdd7e6cf2a7faae61a664736f6c634300081a0033",
					"opcodes": "PUSH1 0xE0 PUSH1 0x40 MSTORE CALLVALUE DUP1 ISZERO PUSH2 0xF JUMPI PUSH0 DUP1 REVERT JUMPDEST POP PUSH1 0x40 MLOAD PUSH2 0x2EF6 CODESIZE SUB DUP1 PUSH2 0x2EF6 DUP4 CODECOPY DUP2 DUP2 ADD PUSH1 0x40 MSTORE DUP2 ADD SWAP1 PUSH2 0x31 SWAP2 SWAP1 PUSH2 0x462 JUMP JUMPDEST PUSH0 PUSH20 0xFFFFFFFFFFFFFFFFFFFFFFFFFFFFFFFFFFFFFFFF AND DUP3 PUSH20 0xFFFFFFFFFFFFFFFFFFFFFFFFFFFFFFFFFFFFFFFF AND SUB PUSH2 0x9F JUMPI PUSH1 0x40 MLOAD PUSH32 0x8C379A000000000000000000000000000000000000000000000000000000000 DUP2 MSTORE PUSH1 0x4 ADD PUSH2 0x96 SWAP1 PUSH2 0x50D JUMP JUMPDEST PUSH1 0x40 MLOAD DUP1 SWAP2 SUB SWAP1 REVERT JUMPDEST DUP3 PUSH1 0x80 DUP2 DUP2 MSTORE POP POP DUP2 PUSH20 0xFFFFFFFFFFFFFFFFFFFFFFFFFFFFFFFFFFFFFFFF AND PUSH1 0xA0 DUP2 PUSH20 0xFFFFFFFFFFFFFFFFFFFFFFFFFFFFFFFFFFFFFFFF AND DUP2 MSTORE POP POP DUP1 PUSH0 DUP1 DUP3 ADD MLOAD DUP2 PUSH0 ADD SSTORE PUSH1 0x20 DUP3 ADD MLOAD DUP2 PUSH1 0x1 ADD SSTORE PUSH1 0x40 DUP3 ADD MLOAD DUP2 PUSH1 0x2 ADD SSTORE PUSH1 0x60 DUP3 ADD MLOAD DUP2 PUSH1 0x3 ADD SSTORE PUSH1 0x80 DUP3 ADD MLOAD DUP2 PUSH1 0x4 ADD SSTORE PUSH1 0xA0 DUP3 ADD MLOAD DUP2 PUSH1 0x5 ADD SWAP1 PUSH1 0xA PUSH2 0x124 SWAP3 SWAP2 SWAP1 PUSH2 0x18D JUMP JUMPDEST POP SWAP1 POP POP PUSH0 PUSH1 0xF PUSH0 PUSH2 0x100 EXP DUP2 SLOAD DUP2 PUSH1 0xFF MUL NOT AND SWAP1 DUP4 PUSH1 0x2 DUP2 GT ISZERO PUSH2 0x14C JUMPI PUSH2 0x14B PUSH2 0x52B JUMP JUMPDEST JUMPDEST MUL OR SWAP1 SSTORE POP CALLER PUSH20 0xFFFFFFFFFFFFFFFFFFFFFFFFFFFFFFFFFFFFFFFF AND PUSH1 0xC0 DUP2 PUSH20 0xFFFFFFFFFFFFFFFFFFFFFFFFFFFFFFFFFFFFFFFF AND DUP2 MSTORE POP POP POP POP POP PUSH2 0x558 JUMP JUMPDEST DUP3 PUSH1 0xA DUP2 ADD SWAP3 DUP3 ISZERO PUSH2 0x1BC JUMPI SWAP2 PUSH1 0x20 MUL DUP3 ADD JUMPDEST DUP3 DUP2 GT ISZERO PUSH2 0x1BB JUMPI DUP3 MLOAD DUP3 SSTORE SWAP2 PUSH1 0x20 ADD SWAP2 SWAP1 PUSH1 0x1 ADD SWAP1 PUSH2 0x1A0 JUMP JUMPDEST JUMPDEST POP SWAP1 POP PUSH2 0x1C9 SWAP2 SWAP1 PUSH2 0x1CD JUMP JUMPDEST POP SWAP1 JUMP JUMPDEST JUMPDEST DUP1 DUP3 GT ISZERO PUSH2 0x1E4 JUMPI PUSH0 DUP2 PUSH0 SWAP1 SSTORE POP PUSH1 0x1 ADD PUSH2 0x1CE JUMP JUMPDEST POP SWAP1 JUMP JUMPDEST PUSH0 PUSH1 0x40 MLOAD SWAP1 POP SWAP1 JUMP JUMPDEST PUSH0 DUP1 REVERT JUMPDEST PUSH0 DUP2 SWAP1 POP SWAP2 SWAP1 POP JUMP JUMPDEST PUSH2 0x207 DUP2 PUSH2 0x1F5 JUMP JUMPDEST DUP2 EQ PUSH2 0x211 JUMPI PUSH0 DUP1 REVERT JUMPDEST POP JUMP JUMPDEST PUSH0 DUP2 MLOAD SWAP1 POP PUSH2 0x222 DUP2 PUSH2 0x1FE JUMP JUMPDEST SWAP3 SWAP2 POP POP JUMP JUMPDEST PUSH0 PUSH20 0xFFFFFFFFFFFFFFFFFFFFFFFFFFFFFFFFFFFFFFFF DUP3 AND SWAP1 POP SWAP2 SWAP1 POP JUMP JUMPDEST PUSH0 PUSH2 0x251 DUP3 PUSH2 0x228 JUMP JUMPDEST SWAP1 POP SWAP2 SWAP1 POP JUMP JUMPDEST PUSH2 0x261 DUP2 PUSH2 0x247 JUMP JUMPDEST DUP2 EQ PUSH2 0x26B JUMPI PUSH0 DUP1 REVERT JUMPDEST POP JUMP JUMPDEST PUSH0 DUP2 MLOAD SWAP1 POP PUSH2 0x27C DUP2 PUSH2 0x258 JUMP JUMPDEST SWAP3 SWAP2 POP POP JUMP JUMPDEST PUSH0 DUP1 REVERT JUMPDEST PUSH0 PUSH1 0x1F NOT PUSH1 0x1F DUP4 ADD AND SWAP1 POP SWAP2 SWAP1 POP JUMP JUMPDEST PUSH32 0x4E487B7100000000000000000000000000000000000000000000000000000000 PUSH0 MSTORE PUSH1 0x41 PUSH1 0x4 MSTORE PUSH1 0x24 PUSH0 REVERT JUMPDEST PUSH2 0x2CC DUP3 PUSH2 0x286 JUMP JUMPDEST DUP2 ADD DUP2 DUP2 LT PUSH8 0xFFFFFFFFFFFFFFFF DUP3 GT OR ISZERO PUSH2 0x2EB JUMPI PUSH2 0x2EA PUSH2 0x296 JUMP JUMPDEST JUMPDEST DUP1 PUSH1 0x40 MSTORE POP POP POP JUMP JUMPDEST PUSH0 PUSH2 0x2FD PUSH2 0x1E8 JUMP JUMPDEST SWAP1 POP PUSH2 0x309 DUP3 DUP3 PUSH2 0x2C3 JUMP JUMPDEST SWAP2 SWAP1 POP JUMP JUMPDEST PUSH0 DUP1 REVERT JUMPDEST PUSH0 PUSH8 0xFFFFFFFFFFFFFFFF DUP3 GT ISZERO PUSH2 0x32C JUMPI PUSH2 0x32B PUSH2 0x296 JUMP JUMPDEST JUMPDEST PUSH1 0x20 DUP3 MUL SWAP1 POP SWAP2 SWAP1 POP JUMP JUMPDEST PUSH0 DUP1 REVERT JUMPDEST PUSH0 PUSH2 0x34D PUSH2 0x348 DUP5 PUSH2 0x312 JUMP JUMPDEST PUSH2 0x2F4 JUMP JUMPDEST SWAP1 POP DUP1 PUSH1 0x20 DUP5 MUL DUP4 ADD DUP6 DUP2 GT ISZERO PUSH2 0x367 JUMPI PUSH2 0x366 PUSH2 0x337 JUMP JUMPDEST JUMPDEST DUP4 JUMPDEST DUP2 DUP2 LT ISZERO PUSH2 0x390 JUMPI DUP1 PUSH2 0x37C DUP9 DUP3 PUSH2 0x214 JUMP JUMPDEST DUP5 MSTORE PUSH1 0x20 DUP5 ADD SWAP4 POP POP PUSH1 0x20 DUP2 ADD SWAP1 POP PUSH2 0x369 JUMP JUMPDEST POP POP POP SWAP4 SWAP3 POP POP POP JUMP JUMPDEST PUSH0 DUP3 PUSH1 0x1F DUP4 ADD SLT PUSH2 0x3AE JUMPI PUSH2 0x3AD PUSH2 0x30E JUMP JUMPDEST JUMPDEST PUSH1 0xA PUSH2 0x3BB DUP5 DUP3 DUP6 PUSH2 0x33B JUMP JUMPDEST SWAP2 POP POP SWAP3 SWAP2 POP POP JUMP JUMPDEST PUSH0 PUSH2 0x1E0 DUP3 DUP5 SUB SLT ISZERO PUSH2 0x3DA JUMPI PUSH2 0x3D9 PUSH2 0x282 JUMP JUMPDEST JUMPDEST PUSH2 0x3E4 PUSH1 0xC0 PUSH2 0x2F4 JUMP JUMPDEST SWAP1 POP PUSH0 PUSH2 0x3F3 DUP5 DUP3 DUP6 ADD PUSH2 0x214 JUMP JUMPDEST PUSH0 DUP4 ADD MSTORE POP PUSH1 0x20 PUSH2 0x406 DUP5 DUP3 DUP6 ADD PUSH2 0x214 JUMP JUMPDEST PUSH1 0x20 DUP4 ADD MSTORE POP PUSH1 0x40 PUSH2 0x41A DUP5 DUP3 DUP6 ADD PUSH2 0x214 JUMP JUMPDEST PUSH1 0x40 DUP4 ADD MSTORE POP PUSH1 0x60 PUSH2 0x42E DUP5 DUP3 DUP6 ADD PUSH2 0x214 JUMP JUMPDEST PUSH1 0x60 DUP4 ADD MSTORE POP PUSH1 0x80 PUSH2 0x442 DUP5 DUP3 DUP6 ADD PUSH2 0x214 JUMP JUMPDEST PUSH1 0x80 DUP4 ADD MSTORE POP PUSH1 0xA0 PUSH2 0x456 DUP5 DUP3 DUP6 ADD PUSH2 0x39A JUMP JUMPDEST PUSH1 0xA0 DUP4 ADD MSTORE POP SWAP3 SWAP2 POP POP JUMP JUMPDEST PUSH0 DUP1 PUSH0 PUSH2 0x220 DUP5 DUP7 SUB SLT ISZERO PUSH2 0x47A JUMPI PUSH2 0x479 PUSH2 0x1F1 JUMP JUMPDEST JUMPDEST PUSH0 PUSH2 0x487 DUP7 DUP3 DUP8 ADD PUSH2 0x214 JUMP JUMPDEST SWAP4 POP POP PUSH1 0x20 PUSH2 0x498 DUP7 DUP3 DUP8 ADD PUSH2 0x26E JUMP JUMPDEST SWAP3 POP POP PUSH1 0x40 PUSH2 0x4A9 DUP7 DUP3 DUP8 ADD PUSH2 0x3C4 JUMP JUMPDEST SWAP2 POP POP SWAP3 POP SWAP3 POP SWAP3 JUMP JUMPDEST PUSH0 DUP3 DUP3 MSTORE PUSH1 0x20 DUP3 ADD SWAP1 POP SWAP3 SWAP2 POP POP JUMP JUMPDEST PUSH32 0x217661756C740000000000000000000000000000000000000000000000000000 PUSH0 DUP3 ADD MSTORE POP JUMP JUMPDEST PUSH0 PUSH2 0x4F7 PUSH1 0x6 DUP4 PUSH2 0x4B3 JUMP JUMPDEST SWAP2 POP PUSH2 0x502 DUP3 PUSH2 0x4C3 JUMP JUMPDEST PUSH1 0x20 DUP3 ADD SWAP1 POP SWAP2 SWAP1 POP JUMP JUMPDEST PUSH0 PUSH1 0x20 DUP3 ADD SWAP1 POP DUP2 DUP2 SUB PUSH0 DUP4 ADD MSTORE PUSH2 0x524 DUP2 PUSH2 0x4EB JUMP JUMPDEST SWAP1 POP SWAP2 SWAP1 POP JUMP JUMPDEST PUSH32 0x4E487B7100000000000000000000000000000000000000000000000000000000 PUSH0 MSTORE PUSH1 0x21 PUSH1 0x4 MSTORE PUSH1 0x24 PUSH0 REVERT JUMPDEST PUSH1 0x80 MLOAD PUSH1 0xA0 MLOAD PUSH1 0xC0 MLOAD PUSH2 0x294A PUSH2 0x5AC PUSH0 CODECOPY PUSH0 PUSH2 0xEA3 ADD MSTORE PUSH0 DUP2 DUP2 PUSH2 0x28C ADD MSTORE DUP2 DUP2 PUSH2 0x148E ADD MSTORE PUSH2 0x1555 ADD MSTORE PUSH0 DUP2 DUP2 PUSH2 0xE0A ADD MSTORE DUP2 DUP2 PUSH2 0xE7F ADD MSTORE DUP2 DUP2 PUSH2 0x1591 ADD MSTORE DUP2 DUP2 PUSH2 0x15FF ADD MSTORE PUSH2 0x16DD ADD MSTORE PUSH2 0x294A PUSH0 RETURN INVALID PUSH1 0x80 PUSH1 0x40 MSTORE PUSH1 0x4 CALLDATASIZE LT PUSH2 0x9B JUMPI PUSH0 CALLDATALOAD PUSH1 0xE0 SHR DUP1 PUSH4 0xD1F9C24D GT PUSH2 0x63 JUMPI DUP1 PUSH4 0xD1F9C24D EQ PUSH2 0x19C JUMPI DUP1 PUSH4 0xD4F77B1C EQ PUSH2 0x1C6 JUMPI DUP1 PUSH4 0xD7C81B55 EQ PUSH2 0x1D0 JUMPI DUP1 PUSH4 0xF437BC59 EQ PUSH2 0x1FA JUMPI DUP1 PUSH4 0xF71D96CB EQ PUSH2 0x224 JUMPI DUP1 PUSH4 0xFB9BDAB4 EQ PUSH2 0x260 JUMPI PUSH2 0x9B JUMP JUMPDEST DUP1 PUSH4 0x24E7964A EQ PUSH2 0x9F JUMPI DUP1 PUSH4 0x424AEDED EQ PUSH2 0xC9 JUMPI DUP1 PUSH4 0x79502C55 EQ PUSH2 0x109 JUMPI DUP1 PUSH4 0xAD5C21D9 EQ PUSH2 0x137 JUMPI DUP1 PUSH4 0xB0652A88 EQ PUSH2 0x174 JUMPI JUMPDEST PUSH0 DUP1 REVERT JUMPDEST CALLVALUE DUP1 ISZERO PUSH2 0xAA JUMPI PUSH0 DUP1 REVERT JUMPDEST POP PUSH2 0xB3 PUSH2 0x28A JUMP JUMPDEST PUSH1 0x40 MLOAD PUSH2 0xC0 SWAP2 SWAP1 PUSH2 0x1BAB JUMP JUMPDEST PUSH1 0x40 MLOAD DUP1 SWAP2 SUB SWAP1 RETURN JUMPDEST CALLVALUE DUP1 ISZERO PUSH2 0xD4 JUMPI PUSH0 DUP1 REVERT JUMPDEST POP PUSH2 0xEF PUSH1 0x4 DUP1 CALLDATASIZE SUB DUP2 ADD SWAP1 PUSH2 0xEA SWAP2 SWAP1 PUSH2 0x1C03 JUMP JUMPDEST PUSH2 0x2AE JUMP JUMPDEST PUSH1 0x40 MLOAD PUSH2 0x100 SWAP6 SWAP5 SWAP4 SWAP3 SWAP2 SWAP1 PUSH2 0x1C6F JUMP JUMPDEST PUSH1 0x40 MLOAD DUP1 SWAP2 SUB SWAP1 RETURN JUMPDEST CALLVALUE DUP1 ISZERO PUSH2 0x114 JUMPI PUSH0 DUP1 REVERT JUMPDEST POP PUSH2 0x11D PUSH2 0x318 JUMP JUMPDEST PUSH1 0x40 MLOAD PUSH2 0x12E SWAP6 SWAP5 SWAP4 SWAP3 SWAP2 SWAP1 PUSH2 0x1CC0 JUMP JUMPDEST PUSH1 0x40 MLOAD DUP1 SWAP2 SUB SWAP1 RETURN JUMPDEST CALLVALUE DUP1 ISZERO PUSH2 0x142 JUMPI PUSH0 DUP1 REVERT JUMPDEST POP PUSH2 0x15D PUSH1 0x4 DUP1 CALLDATASIZE SUB DUP2 ADD SWAP1 PUSH2 0x158 SWAP2 SWAP1 PUSH2 0x1C03 JUMP JUMPDEST PUSH2 0x33A JUMP JUMPDEST PUSH1 0x40 MLOAD PUSH2 0x16B SWAP3 SWAP2 SWAP1 PUSH2 0x1DB6 JUMP JUMPDEST PUSH1 0x40 MLOAD DUP1 SWAP2 SUB SWAP1 RETURN JUMPDEST CALLVALUE DUP1 ISZERO PUSH2 0x17F JUMPI PUSH0 DUP1 REVERT JUMPDEST POP PUSH2 0x19A PUSH1 0x4 DUP1 CALLDATASIZE SUB DUP2 ADD SWAP1 PUSH2 0x195 SWAP2 SWAP1 PUSH2 0x1E15 JUMP JUMPDEST PUSH2 0x40C JUMP JUMPDEST STOP JUMPDEST CALLVALUE DUP1 ISZERO PUSH2 0x1A7 JUMPI PUSH0 DUP1 REVERT JUMPDEST POP PUSH2 0x1B0 PUSH2 0xADB JUMP JUMPDEST PUSH1 0x40 MLOAD PUSH2 0x1BD SWAP2 SWAP1 PUSH2 0x1EC6 JUMP JUMPDEST PUSH1 0x40 MLOAD DUP1 SWAP2 SUB SWAP1 RETURN JUMPDEST PUSH2 0x1CE PUSH2 0xAED JUMP JUMPDEST STOP JUMPDEST CALLVALUE DUP1 ISZERO PUSH2 0x1DB JUMPI PUSH0 DUP1 REVERT JUMPDEST POP PUSH2 0x1E4 PUSH2 0xE7D JUMP JUMPDEST PUSH1 0x40 MLOAD PUSH2 0x1F1 SWAP2 SWAP1 PUSH2 0x1EDF JUMP JUMPDEST PUSH1 0x40 MLOAD DUP1 SWAP2 SUB SWAP1 RETURN JUMPDEST CALLVALUE DUP1 ISZERO PUSH2 0x205 JUMPI PUSH0 DUP1 REVERT JUMPDEST POP PUSH2 0x20E PUSH2 0xEA1 JUMP JUMPDEST PUSH1 0x40 MLOAD PUSH2 0x21B SWAP2 SWAP1 PUSH2 0x1EF8 JUMP JUMPDEST PUSH1 0x40 MLOAD DUP1 SWAP2 SUB SWAP1 RETURN JUMPDEST CALLVALUE DUP1 ISZERO PUSH2 0x22F JUMPI PUSH0 DUP1 REVERT JUMPDEST POP PUSH2 0x24A PUSH1 0x4 DUP1 CALLDATASIZE SUB DUP2 ADD SWAP1 PUSH2 0x245 SWAP2 SWAP1 PUSH2 0x1F3B JUMP JUMPDEST PUSH2 0xEC5 JUMP JUMPDEST PUSH1 0x40 MLOAD PUSH2 0x257 SWAP2 SWAP1 PUSH2 0x1EF8 JUMP JUMPDEST PUSH1 0x40 MLOAD DUP1 SWAP2 SUB SWAP1 RETURN JUMPDEST CALLVALUE DUP1 ISZERO PUSH2 0x26B JUMPI PUSH0 DUP1 REVERT JUMPDEST POP PUSH2 0x274 PUSH2 0xF00 JUMP JUMPDEST PUSH1 0x40 MLOAD PUSH2 0x281 SWAP2 SWAP1 PUSH2 0x1EDF JUMP JUMPDEST PUSH1 0x40 MLOAD DUP1 SWAP2 SUB SWAP1 RETURN JUMPDEST PUSH32 0x0 DUP2 JUMP JUMPDEST PUSH1 0x11 PUSH1 0x20 MSTORE DUP1 PUSH0 MSTORE PUSH1 0x40 PUSH0 KECCAK256 PUSH0 SWAP2 POP SWAP1 POP DUP1 PUSH0 ADD PUSH0 SWAP1 SLOAD SWAP1 PUSH2 0x100 EXP SWAP1 DIV PUSH20 0xFFFFFFFFFFFFFFFFFFFFFFFFFFFFFFFFFFFFFFFF AND SWAP1 DUP1 PUSH1 0x1 ADD SLOAD SWAP1 DUP1 PUSH1 0x2 ADD PUSH0 SWAP1 SLOAD SWAP1 PUSH2 0x100 EXP SWAP1 DIV PUSH1 0xFF AND SWAP1 DUP1 PUSH1 0x2 ADD PUSH1 0x1 SWAP1 SLOAD SWAP1 PUSH2 0x100 EXP SWAP1 DIV PUSH1 0xFF AND SWAP1 DUP1 PUSH1 0xD ADD SLOAD SWAP1 POP DUP6 JUMP JUMPDEST PUSH0 DUP1 PUSH0 ADD SLOAD SWAP1 DUP1 PUSH1 0x1 ADD SLOAD SWAP1 DUP1 PUSH1 0x2 ADD SLOAD SWAP1 DUP1 PUSH1 0x3 ADD SLOAD SWAP1 DUP1 PUSH1 0x4 ADD SLOAD SWAP1 POP DUP6 JUMP JUMPDEST PUSH2 0x342 PUSH2 0x1B0E JUMP JUMPDEST PUSH0 PUSH1 0x11 PUSH0 DUP5 PUSH20 0xFFFFFFFFFFFFFFFFFFFFFFFFFFFFFFFFFFFFFFFF AND PUSH20 0xFFFFFFFFFFFFFFFFFFFFFFFFFFFFFFFFFFFFFFFF AND DUP2 MSTORE PUSH1 0x20 ADD SWAP1 DUP2 MSTORE PUSH1 0x20 ADD PUSH0 KECCAK256 PUSH1 0x3 ADD PUSH1 0x11 PUSH0 DUP6 PUSH20 0xFFFFFFFFFFFFFFFFFFFFFFFFFFFFFFFFFFFFFFFF AND PUSH20 0xFFFFFFFFFFFFFFFFFFFFFFFFFFFFFFFFFFFFFFFF AND DUP2 MSTORE PUSH1 0x20 ADD SWAP1 DUP2 MSTORE PUSH1 0x20 ADD PUSH0 KECCAK256 PUSH1 0xD ADD SLOAD DUP2 PUSH1 0xA DUP1 PUSH1 0x20 MUL PUSH1 0x40 MLOAD SWAP1 DUP2 ADD PUSH1 0x40 MSTORE DUP1 SWAP3 SWAP2 SWAP1 DUP3 PUSH1 0xA DUP1 ISZERO PUSH2 0x3FC JUMPI PUSH1 0x20 MUL DUP3 ADD SWAP2 JUMPDEST DUP2 SLOAD DUP2 MSTORE PUSH1 0x20 ADD SWAP1 PUSH1 0x1 ADD SWAP1 DUP1 DUP4 GT PUSH2 0x3E8 JUMPI JUMPDEST POP POP POP POP POP SWAP2 POP SWAP2 POP SWAP2 POP SWAP2 POP SWAP2 JUMP JUMPDEST PUSH1 0x1 PUSH1 0x2 DUP2 GT ISZERO PUSH2 0x420 JUMPI PUSH2 0x41F PUSH2 0x1E53 JUMP JUMPDEST JUMPDEST PUSH1 0xF PUSH0 SWAP1 SLOAD SWAP1 PUSH2 0x100 EXP SWAP1 DIV PUSH1 0xFF AND PUSH1 0x2 DUP2 GT ISZERO PUSH2 0x441 JUMPI PUSH2 0x440 PUSH2 0x1E53 JUMP JUMPDEST JUMPDEST EQ PUSH2 0x481 JUMPI PUSH1 0x40 MLOAD PUSH32 0x8C379A000000000000000000000000000000000000000000000000000000000 DUP2 MSTORE PUSH1 0x4 ADD PUSH2 0x478 SWAP1 PUSH2 0x1FC0 JUMP JUMPDEST PUSH1 0x40 MLOAD DUP1 SWAP2 SUB SWAP1 REVERT JUMPDEST CALLER PUSH20 0xFFFFFFFFFFFFFFFFFFFFFFFFFFFFFFFFFFFFFFFF AND PUSH1 0x10 PUSH1 0x12 SLOAD DUP2 SLOAD DUP2 LT PUSH2 0x4AE JUMPI PUSH2 0x4AD PUSH2 0x1FDE JUMP JUMPDEST JUMPDEST SWAP1 PUSH0 MSTORE PUSH1 0x20 PUSH0 KECCAK256 ADD PUSH0 SWAP1 SLOAD SWAP1 PUSH2 0x100 EXP SWAP1 DIV PUSH20 0xFFFFFFFFFFFFFFFFFFFFFFFFFFFFFFFFFFFFFFFF AND PUSH20 0xFFFFFFFFFFFFFFFFFFFFFFFFFFFFFFFFFFFFFFFF AND EQ PUSH2 0x52C JUMPI PUSH1 0x40 MLOAD PUSH32 0x8C379A000000000000000000000000000000000000000000000000000000000 DUP2 MSTORE PUSH1 0x4 ADD PUSH2 0x523 SWAP1 PUSH2 0x2055 JUMP JUMPDEST PUSH1 0x40 MLOAD DUP1 SWAP2 SUB SWAP1 REVERT JUMPDEST PUSH1 0x11 PUSH0 CALLER PUSH20 0xFFFFFFFFFFFFFFFFFFFFFFFFFFFFFFFFFFFFFFFF AND PUSH20 0xFFFFFFFFFFFFFFFFFFFFFFFFFFFFFFFFFFFFFFFF AND DUP2 MSTORE PUSH1 0x20 ADD SWAP1 DUP2 MSTORE PUSH1 0x20 ADD PUSH0 KECCAK256 PUSH1 0x2 ADD PUSH1 0x1 SWAP1 SLOAD SWAP1 PUSH2 0x100 EXP SWAP1 DIV PUSH1 0xFF AND ISZERO PUSH2 0x5BA JUMPI PUSH1 0x40 MLOAD PUSH32 0x8C379A000000000000000000000000000000000000000000000000000000000 DUP2 MSTORE PUSH1 0x4 ADD PUSH2 0x5B1 SWAP1 PUSH2 0x20BD JUMP JUMPDEST PUSH1 0x40 MLOAD DUP1 SWAP2 SUB SWAP1 REVERT JUMPDEST PUSH0 PUSH20 0xFFFFFFFFFFFFFFFFFFFFFFFFFFFFFFFFFFFFFFFF AND DUP3 PUSH20 0xFFFFFFFFFFFFFFFFFFFFFFFFFFFFFFFFFFFFFFFF AND SUB PUSH2 0x628 JUMPI PUSH1 0x40 MLOAD PUSH32 0x8C379A000000000000000000000000000000000000000000000000000000000 DUP2 MSTORE PUSH1 0x4 ADD PUSH2 0x61F SWAP1 PUSH2 0x2125 JUMP JUMPDEST PUSH1 0x40 MLOAD DUP1 SWAP2 SUB SWAP1 REVERT JUMPDEST PUSH0 DUP2 PUSH1 0xFF AND SUB PUSH2 0x7C8 JUMPI PUSH0 PUSH1 0x11 PUSH0 DUP5 PUSH20 0xFFFFFFFFFFFFFFFFFFFFFFFFFFFFFFFFFFFFFFFF AND PUSH20 0xFFFFFFFFFFFFFFFFFFFFFFFFFFFFFFFFFFFFFFFF AND DUP2 MSTORE PUSH1 0x20 ADD SWAP1 DUP2 MSTORE PUSH1 0x20 ADD PUSH0 KECCAK256 PUSH1 0xD ADD SLOAD GT PUSH2 0x6B4 JUMPI PUSH1 0x40 MLOAD PUSH32 0x8C379A000000000000000000000000000000000000000000000000000000000 DUP2 MSTORE PUSH1 0x4 ADD PUSH2 0x6AB SWAP1 PUSH2 0x218D JUMP JUMPDEST PUSH1 0x40 MLOAD DUP1 SWAP2 SUB SWAP1 REVERT JUMPDEST PUSH1 0x11 PUSH0 DUP4 PUSH20 0xFFFFFFFFFFFFFFFFFFFFFFFFFFFFFFFFFFFFFFFF AND PUSH20 0xFFFFFFFFFFFFFFFFFFFFFFFFFFFFFFFFFFFFFFFF AND DUP2 MSTORE PUSH1 0x20 ADD SWAP1 DUP2 MSTORE PUSH1 0x20 ADD PUSH0 KECCAK256 PUSH1 0xD ADD PUSH0 DUP2 SLOAD DUP1 SWAP3 SWAP2 SWAP1 PUSH2 0x704 SWAP1 PUSH2 0x21D8 JUMP JUMPDEST SWAP2 SWAP1 POP SSTORE POP PUSH1 0x11 PUSH0 CALLER PUSH20 0xFFFFFFFFFFFFFFFFFFFFFFFFFFFFFFFFFFFFFFFF AND PUSH20 0xFFFFFFFFFFFFFFFFFFFFFFFFFFFFFFFFFFFFFFFF AND DUP2 MSTORE PUSH1 0x20 ADD SWAP1 DUP2 MSTORE PUSH1 0x20 ADD PUSH0 KECCAK256 PUSH1 0xD ADD PUSH0 DUP2 SLOAD DUP1 SWAP3 SWAP2 SWAP1 PUSH2 0x759 SWAP1 PUSH2 0x21FF JUMP JUMPDEST SWAP2 SWAP1 POP SSTORE POP CALLER PUSH20 0xFFFFFFFFFFFFFFFFFFFFFFFFFFFFFFFFFFFFFFFF AND DUP3 PUSH20 0xFFFFFFFFFFFFFFFFFFFFFFFFFFFFFFFFFFFFFFFF AND PUSH32 0x345AB5394E10F7B605071092C87EA512B2B9F3A616F8C85B996C2AA8A418C69C PUSH0 PUSH1 0x40 MLOAD PUSH2 0x7BB SWAP2 SWAP1 PUSH2 0x227F JUMP JUMPDEST PUSH1 0x40 MLOAD DUP1 SWAP2 SUB SWAP1 LOG3 PUSH2 0xA0E JUMP JUMPDEST PUSH1 0x1 DUP2 PUSH1 0xFF AND LT ISZERO DUP1 ISZERO PUSH2 0x7E0 JUMPI POP PUSH1 0xA DUP2 PUSH1 0xFF AND GT ISZERO JUMPDEST PUSH2 0x81F JUMPI PUSH1 0x40 MLOAD PUSH32 0x8C379A000000000000000000000000000000000000000000000000000000000 DUP2 MSTORE PUSH1 0x4 ADD PUSH2 0x816 SWAP1 PUSH2 0x22E2 JUMP JUMPDEST PUSH1 0x40 MLOAD DUP1 SWAP2 SUB SWAP1 REVERT JUMPDEST PUSH0 PUSH1 0x1 DUP3 PUSH2 0x82D SWAP2 SWAP1 PUSH2 0x2300 JUMP JUMPDEST SWAP1 POP PUSH0 PUSH1 0x11 PUSH0 DUP6 PUSH20 0xFFFFFFFFFFFFFFFFFFFFFFFFFFFFFFFFFFFFFFFF AND PUSH20 0xFFFFFFFFFFFFFFFFFFFFFFFFFFFFFFFFFFFFFFFF AND DUP2 MSTORE PUSH1 0x20 ADD SWAP1 DUP2 MSTORE PUSH1 0x20 ADD PUSH0 KECCAK256 PUSH1 0x3 ADD DUP3 PUSH1 0xFF AND PUSH1 0xA DUP2 LT PUSH2 0x885 JUMPI PUSH2 0x884 PUSH2 0x1FDE JUMP JUMPDEST JUMPDEST ADD SLOAD GT PUSH2 0x8C7 JUMPI PUSH1 0x40 MLOAD PUSH32 0x8C379A000000000000000000000000000000000000000000000000000000000 DUP2 MSTORE PUSH1 0x4 ADD PUSH2 0x8BE SWAP1 PUSH2 0x237E JUMP JUMPDEST PUSH1 0x40 MLOAD DUP1 SWAP2 SUB SWAP1 REVERT JUMPDEST PUSH1 0x11 PUSH0 DUP5 PUSH20 0xFFFFFFFFFFFFFFFFFFFFFFFFFFFFFFFFFFFFFFFF AND PUSH20 0xFFFFFFFFFFFFFFFFFFFFFFFFFFFFFFFFFFFFFFFF AND DUP2 MSTORE PUSH1 0x20 ADD SWAP1 DUP2 MSTORE PUSH1 0x20 ADD PUSH0 KECCAK256 PUSH1 0x3 ADD DUP2 PUSH1 0xFF AND PUSH1 0xA DUP2 LT PUSH2 0x91C JUMPI PUSH2 0x91B PUSH2 0x1FDE JUMP JUMPDEST JUMPDEST ADD PUSH0 DUP2 SLOAD DUP1 SWAP3 SWAP2 SWAP1 PUSH2 0x92D SWAP1 PUSH2 0x21D8 JUMP JUMPDEST SWAP2 SWAP1 POP SSTORE POP PUSH1 0x11 PUSH0 CALLER PUSH20 0xFFFFFFFFFFFFFFFFFFFFFFFFFFFFFFFFFFFFFFFF AND PUSH20 0xFFFFFFFFFFFFFFFFFFFFFFFFFFFFFFFFFFFFFFFF AND DUP2 MSTORE PUSH1 0x20 ADD SWAP1 DUP2 MSTORE PUSH1 0x20 ADD PUSH0 KECCAK256 PUSH1 0x3 ADD DUP2 PUSH1 0xFF AND PUSH1 0xA DUP2 LT PUSH2 0x987 JUMPI PUSH2 0x986 PUSH2 0x1FDE JUMP JUMPDEST JUMPDEST ADD PUSH0 DUP2 SLOAD DUP1 SWAP3 SWAP2 SWAP1 PUSH2 0x998 SWAP1 PUSH2 0x21FF JUMP JUMPDEST SWAP2 SWAP1 POP SSTORE POP PUSH2 0x9A7 CALLER DUP3 PUSH2 0xF06 JUMP JUMPDEST CALLER PUSH20 0xFFFFFFFFFFFFFFFFFFFFFFFFFFFFFFFFFFFFFFFF AND DUP4 PUSH20 0xFFFFFFFFFFFFFFFFFFFFFFFFFFFFFFFFFFFFFFFF AND PUSH32 0x345AB5394E10F7B605071092C87EA512B2B9F3A616F8C85B996C2AA8A418C69C DUP5 PUSH1 0x40 MLOAD PUSH2 0xA04 SWAP2 SWAP1 PUSH2 0x23AB JUMP JUMPDEST PUSH1 0x40 MLOAD DUP1 SWAP2 SUB SWAP1 LOG3 POP JUMPDEST PUSH2 0xA17 CALLER PUSH2 0xFD5 JUMP JUMPDEST ISZERO PUSH2 0xAB9 JUMPI PUSH1 0x1 PUSH1 0x11 PUSH0 CALLER PUSH20 0xFFFFFFFFFFFFFFFFFFFFFFFFFFFFFFFFFFFFFFFF AND PUSH20 0xFFFFFFFFFFFFFFFFFFFFFFFFFFFFFFFFFFFFFFFF AND DUP2 MSTORE PUSH1 0x20 ADD SWAP1 DUP2 MSTORE PUSH1 0x20 ADD PUSH0 KECCAK256 PUSH1 0x2 ADD PUSH1 0x1 PUSH2 0x100 EXP DUP2 SLOAD DUP2 PUSH1 0xFF MUL NOT AND SWAP1 DUP4 ISZERO ISZERO MUL OR SWAP1 SSTORE POP CALLER PUSH20 0xFFFFFFFFFFFFFFFFFFFFFFFFFFFFFFFFFFFFFFFF AND PUSH32 0xE6DD6074E48F46E9DD6D19C1A3FC9866C5663E7B916849845C35059410B37B28 PUSH1 0x40 MLOAD PUSH1 0x40 MLOAD DUP1 SWAP2 SUB SWAP1 LOG2 JUMPDEST PUSH2 0xAC1 PUSH2 0x10B3 JUMP JUMPDEST PUSH2 0xAC9 PUSH2 0x1192 JUMP JUMPDEST ISZERO PUSH2 0xAD7 JUMPI PUSH2 0xAD6 PUSH2 0x1258 JUMP JUMPDEST JUMPDEST POP POP JUMP JUMPDEST PUSH1 0xF PUSH0 SWAP1 SLOAD SWAP1 PUSH2 0x100 EXP SWAP1 DIV PUSH1 0xFF AND DUP2 JUMP JUMPDEST PUSH0 PUSH1 0x2 DUP2 GT ISZERO PUSH2 0xB00 JUMPI PUSH2 0xAFF PUSH2 0x1E53 JUMP JUMPDEST JUMPDEST PUSH1 0xF PUSH0 SWAP1 SLOAD SWAP1 PUSH2 0x100 EXP SWAP1 DIV PUSH1 0xFF AND PUSH1 0x2 DUP2 GT ISZERO PUSH2 0xB21 JUMPI PUSH2 0xB20 PUSH2 0x1E53 JUMP JUMPDEST JUMPDEST EQ PUSH2 0xB61 JUMPI PUSH1 0x40 MLOAD PUSH32 0x8C379A000000000000000000000000000000000000000000000000000000000 DUP2 MSTORE PUSH1 0x4 ADD PUSH2 0xB58 SWAP1 PUSH2 0x240E JUMP JUMPDEST PUSH1 0x40 MLOAD DUP1 SWAP2 SUB SWAP1 REVERT JUMPDEST PUSH1 0x11 PUSH0 CALLER PUSH20 0xFFFFFFFFFFFFFFFFFFFFFFFFFFFFFFFFFFFFFFFF AND PUSH20 0xFFFFFFFFFFFFFFFFFFFFFFFFFFFFFFFFFFFFFFFF AND DUP2 MSTORE PUSH1 0x20 ADD SWAP1 DUP2 MSTORE PUSH1 0x20 ADD PUSH0 KECCAK256 PUSH1 0x2 ADD PUSH0 SWAP1 SLOAD SWAP1 PUSH2 0x100 EXP SWAP1 DIV PUSH1 0xFF AND ISZERO PUSH2 0xBEE JUMPI PUSH1 0x40 MLOAD PUSH32 0x8C379A000000000000000000000000000000000000000000000000000000000 DUP2 MSTORE PUSH1 0x4 ADD PUSH2 0xBE5 SWAP1 PUSH2 0x2476 JUMP JUMPDEST PUSH1 0x40 MLOAD DUP1 SWAP2 SUB SWAP1 REVERT JUMPDEST PUSH0 PUSH1 0x1 ADD SLOAD PUSH1 0x10 DUP1 SLOAD SWAP1 POP LT PUSH2 0xC39 JUMPI PUSH1 0x40 MLOAD PUSH32 0x8C379A000000000000000000000000000000000000000000000000000000000 DUP2 MSTORE PUSH1 0x4 ADD PUSH2 0xC30 SWAP1 PUSH2 0x24DE JUMP JUMPDEST PUSH1 0x40 MLOAD DUP1 SWAP2 SUB SWAP1 REVERT JUMPDEST PUSH0 CALLVALUE SWAP1 POP PUSH0 DUP1 PUSH1 0x3 ADD SLOAD SUB PUSH2 0xC93 JUMPI PUSH0 PUSH1 0x2 ADD SLOAD DUP2 EQ PUSH2 0xC8E JUMPI PUSH1 0x40 MLOAD PUSH32 0x8C379A000000000000000000000000000000000000000000000000000000000 DUP2 MSTORE PUSH1 0x4 ADD PUSH2 0xC85 SWAP1 PUSH2 0x2546 JUMP JUMPDEST PUSH1 0x40 MLOAD DUP1 SWAP2 SUB SWAP1 REVERT JUMPDEST PUSH2 0xCEB JUMP JUMPDEST PUSH0 PUSH1 0x2 ADD SLOAD DUP2 LT ISZERO DUP1 ISZERO PUSH2 0xCAB JUMPI POP PUSH0 PUSH1 0x3 ADD SLOAD DUP2 GT ISZERO JUMPDEST PUSH2 0xCEA JUMPI PUSH1 0x40 MLOAD PUSH32 0x8C379A000000000000000000000000000000000000000000000000000000000 DUP2 MSTORE PUSH1 0x4 ADD PUSH2 0xCE1 SWAP1 PUSH2 0x25AE JUMP JUMPDEST PUSH1 0x40 MLOAD DUP1 SWAP2 SUB SWAP1 REVERT JUMPDEST JUMPDEST PUSH0 PUSH1 0x11 PUSH0 CALLER PUSH20 0xFFFFFFFFFFFFFFFFFFFFFFFFFFFFFFFFFFFFFFFF AND PUSH20 0xFFFFFFFFFFFFFFFFFFFFFFFFFFFFFFFFFFFFFFFF AND DUP2 MSTORE PUSH1 0x20 ADD SWAP1 DUP2 MSTORE PUSH1 0x20 ADD PUSH0 KECCAK256 SWAP1 POP CALLER DUP2 PUSH0 ADD PUSH0 PUSH2 0x100 EXP DUP2 SLOAD DUP2 PUSH20 0xFFFFFFFFFFFFFFFFFFFFFFFFFFFFFFFFFFFFFFFF MUL NOT AND SWAP1 DUP4 PUSH20 0xFFFFFFFFFFFFFFFFFFFFFFFFFFFFFFFFFFFFFFFF AND MUL OR SWAP1 SSTORE POP DUP2 DUP2 PUSH1 0x1 ADD DUP2 SWAP1 SSTORE POP PUSH1 0x1 DUP2 PUSH1 0x2 ADD PUSH0 PUSH2 0x100 EXP DUP2 SLOAD DUP2 PUSH1 0xFF MUL NOT AND SWAP1 DUP4 ISZERO ISZERO MUL OR SWAP1 SSTORE POP PUSH1 0x10 CALLER SWAP1 DUP1 PUSH1 0x1 DUP2 SLOAD ADD DUP1 DUP3 SSTORE DUP1 SWAP2 POP POP PUSH1 0x1 SWAP1 SUB SWAP1 PUSH0 MSTORE PUSH1 0x20 PUSH0 KECCAK256 ADD PUSH0 SWAP1 SWAP2 SWAP1 SWAP2 SWAP1 SWAP2 PUSH2 0x100 EXP DUP2 SLOAD DUP2 PUSH20 0xFFFFFFFFFFFFFFFFFFFFFFFFFFFFFFFFFFFFFFFF MUL NOT AND SWAP1 DUP4 PUSH20 0xFFFFFFFFFFFFFFFFFFFFFFFFFFFFFFFFFFFFFFFF AND MUL OR SWAP1 SSTORE POP CALLER PUSH20 0xFFFFFFFFFFFFFFFFFFFFFFFFFFFFFFFFFFFFFFFF AND PUSH32 0x0 PUSH32 0x3DFBE1FCB4E2D61F3B4A0C93D8F814C92250618B3387F396CC9FC9FAFE2C203 DUP5 PUSH1 0x40 MLOAD PUSH2 0xE58 SWAP2 SWAP1 PUSH2 0x1EDF JUMP JUMPDEST PUSH1 0x40 MLOAD DUP1 SWAP2 SUB SWAP1 LOG3 PUSH0 PUSH1 0x1 ADD SLOAD PUSH1 0x10 DUP1 SLOAD SWAP1 POP SUB PUSH2 0xE79 JUMPI PUSH2 0xE78 PUSH2 0x165E JUMP JUMPDEST JUMPDEST POP POP JUMP JUMPDEST PUSH32 0x0 DUP2 JUMP JUMPDEST PUSH32 0x0 DUP2 JUMP JUMPDEST PUSH1 0x10 DUP2 DUP2 SLOAD DUP2 LT PUSH2 0xED4 JUMPI PUSH0 DUP1 REVERT JUMPDEST SWAP1 PUSH0 MSTORE PUSH1 0x20 PUSH0 KECCAK256 ADD PUSH0 SWAP2 POP SLOAD SWAP1 PUSH2 0x100 EXP SWAP1 DIV PUSH20 0xFFFFFFFFFFFFFFFFFFFFFFFFFFFFFFFFFFFFFFFF AND DUP2 JUMP JUMPDEST PUSH1 0x12 SLOAD DUP2 JUMP JUMPDEST PUSH0 PUSH1 0x11 PUSH0 DUP5 PUSH20 0xFFFFFFFFFFFFFFFFFFFFFFFFFFFFFFFFFFFFFFFF AND PUSH20 0xFFFFFFFFFFFFFFFFFFFFFFFFFFFFFFFFFFFFFFFF AND DUP2 MSTORE PUSH1 0x20 ADD SWAP1 DUP2 MSTORE PUSH1 0x20 ADD PUSH0 KECCAK256 PUSH1 0x3 ADD DUP3 PUSH1 0xFF AND PUSH1 0xA DUP2 LT PUSH2 0xF5C JUMPI PUSH2 0xF5B PUSH2 0x1FDE JUMP JUMPDEST JUMPDEST ADD SLOAD SWAP1 POP PUSH1 0x2 DUP2 LT PUSH2 0xFD0 JUMPI PUSH1 0x2 DUP2 PUSH2 0xF75 SWAP2 SWAP1 PUSH2 0x25F9 JUMP JUMPDEST PUSH1 0x11 PUSH0 DUP6 PUSH20 0xFFFFFFFFFFFFFFFFFFFFFFFFFFFFFFFFFFFFFFFF AND PUSH20 0xFFFFFFFFFFFFFFFFFFFFFFFFFFFFFFFFFFFFFFFF AND DUP2 MSTORE PUSH1 0x20 ADD SWAP1 DUP2 MSTORE PUSH1 0x20 ADD PUSH0 KECCAK256 PUSH1 0x3 ADD DUP4 PUSH1 0xFF AND PUSH1 0xA DUP2 LT PUSH2 0xFCA JUMPI PUSH2 0xFC9 PUSH2 0x1FDE JUMP JUMPDEST JUMPDEST ADD DUP2 SWAP1 SSTORE POP JUMPDEST POP POP POP JUMP JUMPDEST PUSH0 DUP1 PUSH1 0x11 PUSH0 DUP5 PUSH20 0xFFFFFFFFFFFFFFFFFFFFFFFFFFFFFFFFFFFFFFFF AND PUSH20 0xFFFFFFFFFFFFFFFFFFFFFFFFFFFFFFFFFFFFFFFF AND DUP2 MSTORE PUSH1 0x20 ADD SWAP1 DUP2 MSTORE PUSH1 0x20 ADD PUSH0 KECCAK256 PUSH1 0xD ADD SLOAD GT ISZERO PUSH2 0x1026 JUMPI PUSH0 SWAP1 POP PUSH2 0x10AE JUMP JUMPDEST PUSH0 JUMPDEST PUSH1 0xA DUP2 PUSH1 0xFF AND LT ISZERO PUSH2 0x10A8 JUMPI PUSH0 PUSH1 0x11 PUSH0 DUP6 PUSH20 0xFFFFFFFFFFFFFFFFFFFFFFFFFFFFFFFFFFFFFFFF AND PUSH20 0xFFFFFFFFFFFFFFFFFFFFFFFFFFFFFFFFFFFFFFFF AND DUP2 MSTORE PUSH1 0x20 ADD SWAP1 DUP2 MSTORE PUSH1 0x20 ADD PUSH0 KECCAK256 PUSH1 0x3 ADD DUP3 PUSH1 0xFF AND PUSH1 0xA DUP2 LT PUSH2 0x108A JUMPI PUSH2 0x1089 PUSH2 0x1FDE JUMP JUMPDEST JUMPDEST ADD SLOAD GT ISZERO PUSH2 0x109B JUMPI PUSH0 SWAP2 POP POP PUSH2 0x10AE JUMP JUMPDEST DUP1 DUP1 PUSH1 0x1 ADD SWAP2 POP POP PUSH2 0x1028 JUMP JUMPDEST POP PUSH1 0x1 SWAP1 POP JUMPDEST SWAP2 SWAP1 POP JUMP JUMPDEST PUSH0 PUSH1 0x10 DUP1 SLOAD SWAP1 POP PUSH1 0x1 PUSH1 0x12 SLOAD PUSH2 0x10C9 SWAP2 SWAP1 PUSH2 0x2629 JUMP JUMPDEST PUSH2 0x10D3 SWAP2 SWAP1 PUSH2 0x25F9 JUMP JUMPDEST SWAP1 POP JUMPDEST PUSH1 0x11 PUSH0 PUSH1 0x10 DUP4 DUP2 SLOAD DUP2 LT PUSH2 0x10ED JUMPI PUSH2 0x10EC PUSH2 0x1FDE JUMP JUMPDEST JUMPDEST SWAP1 PUSH0 MSTORE PUSH1 0x20 PUSH0 KECCAK256 ADD PUSH0 SWAP1 SLOAD SWAP1 PUSH2 0x100 EXP SWAP1 DIV PUSH20 0xFFFFFFFFFFFFFFFFFFFFFFFFFFFFFFFFFFFFFFFF AND PUSH20 0xFFFFFFFFFFFFFFFFFFFFFFFFFFFFFFFFFFFFFFFF AND PUSH20 0xFFFFFFFFFFFFFFFFFFFFFFFFFFFFFFFFFFFFFFFF AND DUP2 MSTORE PUSH1 0x20 ADD SWAP1 DUP2 MSTORE PUSH1 0x20 ADD PUSH0 KECCAK256 PUSH1 0x2 ADD PUSH1 0x1 SWAP1 SLOAD SWAP1 PUSH2 0x100 EXP SWAP1 DIV PUSH1 0xFF AND ISZERO PUSH2 0x1188 JUMPI PUSH1 0x10 DUP1 SLOAD SWAP1 POP PUSH1 0x1 DUP3 PUSH2 0x1177 SWAP2 SWAP1 PUSH2 0x2629 JUMP JUMPDEST PUSH2 0x1181 SWAP2 SWAP1 PUSH2 0x25F9 JUMP JUMPDEST SWAP1 POP PUSH2 0x10D6 JUMP JUMPDEST DUP1 PUSH1 0x12 DUP2 SWAP1 SSTORE POP POP JUMP JUMPDEST PUSH0 DUP1 PUSH0 JUMPDEST PUSH1 0x10 DUP1 SLOAD SWAP1 POP DUP2 LT ISZERO PUSH2 0x124C JUMPI PUSH1 0x11 PUSH0 PUSH1 0x10 DUP4 DUP2 SLOAD DUP2 LT PUSH2 0x11BA JUMPI PUSH2 0x11B9 PUSH2 0x1FDE JUMP JUMPDEST JUMPDEST SWAP1 PUSH0 MSTORE PUSH1 0x20 PUSH0 KECCAK256 ADD PUSH0 SWAP1 SLOAD SWAP1 PUSH2 0x100 EXP SWAP1 DIV PUSH20 0xFFFFFFFFFFFFFFFFFFFFFFFFFFFFFFFFFFFFFFFF AND PUSH20 0xFFFFFFFFFFFFFFFFFFFFFFFFFFFFFFFFFFFFFFFF AND PUSH20 0xFFFFFFFFFFFFFFFFFFFFFFFFFFFFFFFFFFFFFFFF AND DUP2 MSTORE PUSH1 0x20 ADD SWAP1 DUP2 MSTORE PUSH1 0x20 ADD PUSH0 KECCAK256 PUSH1 0x2 ADD PUSH1 0x1 SWAP1 SLOAD SWAP1 PUSH2 0x100 EXP SWAP1 DIV PUSH1 0xFF AND PUSH2 0x123F JUMPI DUP2 DUP1 PUSH2 0x123B SWAP1 PUSH2 0x21FF JUMP JUMPDEST SWAP3 POP POP JUMPDEST DUP1 DUP1 PUSH1 0x1 ADD SWAP2 POP POP PUSH2 0x1196 JUMP JUMPDEST POP PUSH1 0x1 DUP2 GT ISZERO SWAP2 POP POP SWAP1 JUMP JUMPDEST PUSH1 0x2 PUSH1 0xF PUSH0 PUSH2 0x100 EXP DUP2 SLOAD DUP2 PUSH1 0xFF MUL NOT AND SWAP1 DUP4 PUSH1 0x2 DUP2 GT ISZERO PUSH2 0x127D JUMPI PUSH2 0x127C PUSH2 0x1E53 JUMP JUMPDEST JUMPDEST MUL OR SWAP1 SSTORE POP PUSH0 PUSH1 0x10 DUP1 SLOAD SWAP1 POP PUSH8 0xFFFFFFFFFFFFFFFF DUP2 GT ISZERO PUSH2 0x12A2 JUMPI PUSH2 0x12A1 PUSH2 0x265C JUMP JUMPDEST JUMPDEST PUSH1 0x40 MLOAD SWAP1 DUP1 DUP3 MSTORE DUP1 PUSH1 0x20 MUL PUSH1 0x20 ADD DUP3 ADD PUSH1 0x40 MSTORE DUP1 ISZERO PUSH2 0x12D0 JUMPI DUP2 PUSH1 0x20 ADD PUSH1 0x20 DUP3 MUL DUP1 CALLDATASIZE DUP4 CALLDATACOPY DUP1 DUP3 ADD SWAP2 POP POP SWAP1 POP JUMPDEST POP SWAP1 POP PUSH0 PUSH1 0x10 DUP1 SLOAD SWAP1 POP PUSH8 0xFFFFFFFFFFFFFFFF DUP2 GT ISZERO PUSH2 0x12F3 JUMPI PUSH2 0x12F2 PUSH2 0x265C JUMP JUMPDEST JUMPDEST PUSH1 0x40 MLOAD SWAP1 DUP1 DUP3 MSTORE DUP1 PUSH1 0x20 MUL PUSH1 0x20 ADD DUP3 ADD PUSH1 0x40 MSTORE DUP1 ISZERO PUSH2 0x1321 JUMPI DUP2 PUSH1 0x20 ADD PUSH1 0x20 DUP3 MUL DUP1 CALLDATASIZE DUP4 CALLDATACOPY DUP1 DUP3 ADD SWAP2 POP POP SWAP1 POP JUMPDEST POP SWAP1 POP PUSH0 DUP1 PUSH0 JUMPDEST PUSH1 0x10 DUP1 SLOAD SWAP1 POP DUP2 LT ISZERO PUSH2 0x1484 JUMPI PUSH0 PUSH1 0x10 DUP3 DUP2 SLOAD DUP2 LT PUSH2 0x134A JUMPI PUSH2 0x1349 PUSH2 0x1FDE JUMP JUMPDEST JUMPDEST SWAP1 PUSH0 MSTORE PUSH1 0x20 PUSH0 KECCAK256 ADD PUSH0 SWAP1 SLOAD SWAP1 PUSH2 0x100 EXP SWAP1 DIV PUSH20 0xFFFFFFFFFFFFFFFFFFFFFFFFFFFFFFFFFFFFFFFF AND SWAP1 POP PUSH0 PUSH1 0x11 PUSH0 DUP4 PUSH20 0xFFFFFFFFFFFFFFFFFFFFFFFFFFFFFFFFFFFFFFFF AND PUSH20 0xFFFFFFFFFFFFFFFFFFFFFFFFFFFFFFFFFFFFFFFF AND DUP2 MSTORE PUSH1 0x20 ADD SWAP1 DUP2 MSTORE PUSH1 0x20 ADD PUSH0 KECCAK256 PUSH1 0xD ADD SLOAD GT ISZERO PUSH2 0x141B JUMPI DUP1 DUP7 DUP6 DUP1 PUSH2 0x13C9 SWAP1 PUSH2 0x21FF JUMP JUMPDEST SWAP7 POP DUP2 MLOAD DUP2 LT PUSH2 0x13DC JUMPI PUSH2 0x13DB PUSH2 0x1FDE JUMP JUMPDEST JUMPDEST PUSH1 0x20 MUL PUSH1 0x20 ADD ADD SWAP1 PUSH20 0xFFFFFFFFFFFFFFFFFFFFFFFFFFFFFFFFFFFFFFFF AND SWAP1 DUP2 PUSH20 0xFFFFFFFFFFFFFFFFFFFFFFFFFFFFFFFFFFFFFFFF AND DUP2 MSTORE POP POP PUSH2 0x1476 JUMP JUMPDEST DUP1 DUP6 DUP5 DUP1 PUSH2 0x1428 SWAP1 PUSH2 0x21FF JUMP JUMPDEST SWAP6 POP DUP2 MLOAD DUP2 LT PUSH2 0x143B JUMPI PUSH2 0x143A PUSH2 0x1FDE JUMP JUMPDEST JUMPDEST PUSH1 0x20 MUL PUSH1 0x20 ADD ADD SWAP1 PUSH20 0xFFFFFFFFFFFFFFFFFFFFFFFFFFFFFFFFFFFFFFFF AND SWAP1 DUP2 PUSH20 0xFFFFFFFFFFFFFFFFFFFFFFFFFFFFFFFFFFFFFFFF AND DUP2 MSTORE POP POP JUMPDEST POP DUP1 DUP1 PUSH1 0x1 ADD SWAP2 POP POP PUSH2 0x1328 JUMP JUMPDEST POP DUP2 DUP5 MSTORE DUP1 DUP4 MSTORE PUSH0 PUSH32 0x0 PUSH20 0xFFFFFFFFFFFFFFFFFFFFFFFFFFFFFFFFFFFFFFFF AND SELFBALANCE PUSH1 0x40 MLOAD PUSH2 0x14D0 SWAP1 PUSH2 0x26B6 JUMP JUMPDEST PUSH0 PUSH1 0x40 MLOAD DUP1 DUP4 SUB DUP2 DUP6 DUP8 GAS CALL SWAP3 POP POP POP RETURNDATASIZE DUP1 PUSH0 DUP2 EQ PUSH2 0x150A JUMPI PUSH1 0x40 MLOAD SWAP2 POP PUSH1 0x1F NOT PUSH1 0x3F RETURNDATASIZE ADD AND DUP3 ADD PUSH1 0x40 MSTORE RETURNDATASIZE DUP3 MSTORE RETURNDATASIZE PUSH0 PUSH1 0x20 DUP5 ADD RETURNDATACOPY PUSH2 0x150F JUMP JUMPDEST PUSH1 0x60 SWAP2 POP JUMPDEST POP POP SWAP1 POP DUP1 PUSH2 0x1553 JUMPI PUSH1 0x40 MLOAD PUSH32 0x8C379A000000000000000000000000000000000000000000000000000000000 DUP2 MSTORE PUSH1 0x4 ADD PUSH2 0x154A SWAP1 PUSH2 0x2714 JUMP JUMPDEST PUSH1 0x40 MLOAD DUP1 SWAP2 SUB SWAP1 REVERT JUMPDEST PUSH32 0x0 PUSH20 0xFFFFFFFFFFFFFFFFFFFFFFFFFFFFFFFFFFFFFFFF AND PUSH4 0x72A22282 PUSH32 0x0 DUP7 DUP9 PUSH1 0x40 MLOAD DUP5 PUSH4 0xFFFFFFFF AND PUSH1 0xE0 SHL DUP2 MSTORE PUSH1 0x4 ADD PUSH2 0x15D0 SWAP4 SWAP3 SWAP2 SWAP1 PUSH2 0x27E9 JUMP JUMPDEST PUSH0 PUSH1 0x40 MLOAD DUP1 DUP4 SUB DUP2 PUSH0 DUP8 DUP1 EXTCODESIZE ISZERO DUP1 ISZERO PUSH2 0x15E7 JUMPI PUSH0 DUP1 REVERT JUMPDEST POP GAS CALL ISZERO DUP1 ISZERO PUSH2 0x15F9 JUMPI RETURNDATASIZE PUSH0 DUP1 RETURNDATACOPY RETURNDATASIZE PUSH0 REVERT JUMPDEST POP POP POP POP PUSH32 0x0 PUSH32 0xEC9076D3D1E4910861E8852EF3E8820904B6868D2E5C85563E5C82F45C776D1F DUP7 DUP7 PUSH1 0x40 MLOAD PUSH2 0x164F SWAP3 SWAP2 SWAP1 PUSH2 0x282C JUMP JUMPDEST PUSH1 0x40 MLOAD DUP1 SWAP2 SUB SWAP1 LOG2 POP POP POP POP POP JUMP JUMPDEST PUSH0 DUP1 ADD SLOAD PUSH1 0x10 DUP1 SLOAD SWAP1 POP LT ISZERO PUSH2 0x16A9 JUMPI PUSH1 0x40 MLOAD PUSH32 0x8C379A000000000000000000000000000000000000000000000000000000000 DUP2 MSTORE PUSH1 0x4 ADD PUSH2 0x16A0 SWAP1 PUSH2 0x28AB JUMP JUMPDEST PUSH1 0x40 MLOAD DUP1 SWAP2 SUB SWAP1 REVERT JUMPDEST PUSH1 0x1 PUSH1 0xF PUSH0 PUSH2 0x100 EXP DUP2 SLOAD DUP2 PUSH1 0xFF MUL NOT AND SWAP1 DUP4 PUSH1 0x2 DUP2 GT ISZERO PUSH2 0x16CE JUMPI PUSH2 0x16CD PUSH2 0x1E53 JUMP JUMPDEST JUMPDEST MUL OR SWAP1 SSTORE POP PUSH2 0x16DB PUSH2 0x172A JUMP JUMPDEST PUSH32 0x0 PUSH32 0x50AD08F58A27F2851D7E3A1B3A6A46B290F2CE677E99642D30FF639721E77790 PUSH1 0x40 MLOAD PUSH1 0x40 MLOAD DUP1 SWAP2 SUB SWAP1 LOG2 JUMP JUMPDEST PUSH0 PUSH1 0x10 DUP1 SLOAD SWAP1 POP SWAP1 POP PUSH0 PUSH2 0x173C PUSH2 0x1927 JUMP JUMPDEST SWAP1 POP PUSH0 JUMPDEST DUP2 MLOAD DUP2 LT ISZERO PUSH2 0x1835 JUMPI PUSH0 PUSH1 0x10 DUP5 DUP4 PUSH2 0x1758 SWAP2 SWAP1 PUSH2 0x25F9 JUMP JUMPDEST DUP2 SLOAD DUP2 LT PUSH2 0x1769 JUMPI PUSH2 0x1768 PUSH2 0x1FDE JUMP JUMPDEST JUMPDEST SWAP1 PUSH0 MSTORE PUSH1 0x20 PUSH0 KECCAK256 ADD PUSH0 SWAP1 SLOAD SWAP1 PUSH2 0x100 EXP SWAP1 DIV PUSH20 0xFFFFFFFFFFFFFFFFFFFFFFFFFFFFFFFFFFFFFFFF AND SWAP1 POP PUSH0 DUP4 DUP4 DUP2 MLOAD DUP2 LT PUSH2 0x17A7 JUMPI PUSH2 0x17A6 PUSH2 0x1FDE JUMP JUMPDEST JUMPDEST PUSH1 0x20 MUL PUSH1 0x20 ADD ADD MLOAD SWAP1 POP PUSH1 0x11 PUSH0 DUP4 PUSH20 0xFFFFFFFFFFFFFFFFFFFFFFFFFFFFFFFFFFFFFFFF AND PUSH20 0xFFFFFFFFFFFFFFFFFFFFFFFFFFFFFFFFFFFFFFFF AND DUP2 MSTORE PUSH1 0x20 ADD SWAP1 DUP2 MSTORE PUSH1 0x20 ADD PUSH0 KECCAK256 PUSH1 0x3 ADD DUP2 PUSH1 0xFF AND PUSH1 0xA DUP2 LT PUSH2 0x1806 JUMPI PUSH2 0x1805 PUSH2 0x1FDE JUMP JUMPDEST JUMPDEST ADD PUSH0 DUP2 SLOAD DUP1 SWAP3 SWAP2 SWAP1 PUSH2 0x1817 SWAP1 PUSH2 0x21FF JUMP JUMPDEST SWAP2 SWAP1 POP SSTORE POP PUSH2 0x1826 DUP3 DUP3 PUSH2 0xF06 JUMP JUMPDEST POP POP DUP1 DUP1 PUSH1 0x1 ADD SWAP2 POP POP PUSH2 0x1740 JUMP JUMPDEST POP PUSH0 DUP1 PUSH1 0x4 ADD SLOAD SWAP1 POP PUSH0 JUMPDEST DUP2 DUP2 LT ISZERO PUSH2 0x1921 JUMPI PUSH0 PUSH1 0x10 DUP6 TIMESTAMP DUP5 PUSH1 0x40 MLOAD PUSH1 0x20 ADD PUSH2 0x185F SWAP3 SWAP2 SWAP1 PUSH2 0x28E9 JUMP JUMPDEST PUSH1 0x40 MLOAD PUSH1 0x20 DUP2 DUP4 SUB SUB DUP2 MSTORE SWAP1 PUSH1 0x40 MSTORE DUP1 MLOAD SWAP1 PUSH1 0x20 ADD KECCAK256 PUSH0 SHR PUSH2 0x1881 SWAP2 SWAP1 PUSH2 0x25F9 JUMP JUMPDEST DUP2 SLOAD DUP2 LT PUSH2 0x1892 JUMPI PUSH2 0x1891 PUSH2 0x1FDE JUMP JUMPDEST JUMPDEST SWAP1 PUSH0 MSTORE PUSH1 0x20 PUSH0 KECCAK256 ADD PUSH0 SWAP1 SLOAD SWAP1 PUSH2 0x100 EXP SWAP1 DIV PUSH20 0xFFFFFFFFFFFFFFFFFFFFFFFFFFFFFFFFFFFFFFFF AND SWAP1 POP PUSH1 0x1 PUSH1 0x11 PUSH0 DUP4 PUSH20 0xFFFFFFFFFFFFFFFFFFFFFFFFFFFFFFFFFFFFFFFF AND PUSH20 0xFFFFFFFFFFFFFFFFFFFFFFFFFFFFFFFFFFFFFFFF AND DUP2 MSTORE PUSH1 0x20 ADD SWAP1 DUP2 MSTORE PUSH1 0x20 ADD PUSH0 KECCAK256 PUSH1 0xD ADD PUSH0 DUP3 DUP3 SLOAD PUSH2 0x190C SWAP2 SWAP1 PUSH2 0x2629 JUMP JUMPDEST SWAP3 POP POP DUP2 SWAP1 SSTORE POP POP DUP1 DUP1 PUSH1 0x1 ADD SWAP2 POP POP PUSH2 0x1840 JUMP JUMPDEST POP POP POP POP JUMP JUMPDEST PUSH1 0x60 PUSH0 DUP1 PUSH0 SWAP1 POP JUMPDEST PUSH1 0xA DUP2 LT ISZERO PUSH2 0x196A JUMPI PUSH0 PUSH1 0x5 ADD DUP2 PUSH1 0xA DUP2 LT PUSH2 0x194E JUMPI PUSH2 0x194D PUSH2 0x1FDE JUMP JUMPDEST JUMPDEST ADD SLOAD DUP3 PUSH2 0x195B SWAP2 SWAP1 PUSH2 0x2629 JUMP JUMPDEST SWAP2 POP DUP1 DUP1 PUSH1 0x1 ADD SWAP2 POP POP PUSH2 0x192F JUMP JUMPDEST POP PUSH0 DUP2 PUSH8 0xFFFFFFFFFFFFFFFF DUP2 GT ISZERO PUSH2 0x1986 JUMPI PUSH2 0x1985 PUSH2 0x265C JUMP JUMPDEST JUMPDEST PUSH1 0x40 MLOAD SWAP1 DUP1 DUP3 MSTORE DUP1 PUSH1 0x20 MUL PUSH1 0x20 ADD DUP3 ADD PUSH1 0x40 MSTORE DUP1 ISZERO PUSH2 0x19B4 JUMPI DUP2 PUSH1 0x20 ADD PUSH1 0x20 DUP3 MUL DUP1 CALLDATASIZE DUP4 CALLDATACOPY DUP1 DUP3 ADD SWAP2 POP POP SWAP1 POP JUMPDEST POP SWAP1 POP PUSH0 DUP1 PUSH0 SWAP1 POP JUMPDEST PUSH1 0xA DUP2 PUSH1 0xFF AND LT ISZERO PUSH2 0x1A3C JUMPI PUSH0 DUP1 PUSH1 0x5 ADD DUP3 PUSH1 0xFF AND PUSH1 0xA DUP2 LT PUSH2 0x19E3 JUMPI PUSH2 0x19E2 PUSH2 0x1FDE JUMP JUMPDEST JUMPDEST ADD SLOAD SWAP1 POP PUSH0 JUMPDEST DUP2 DUP2 LT ISZERO PUSH2 0x1A2D JUMPI DUP3 PUSH1 0xFF AND DUP6 DUP6 DUP1 PUSH2 0x1A01 SWAP1 PUSH2 0x21FF JUMP JUMPDEST SWAP7 POP DUP2 MLOAD DUP2 LT PUSH2 0x1A14 JUMPI PUSH2 0x1A13 PUSH2 0x1FDE JUMP JUMPDEST JUMPDEST PUSH1 0x20 MUL PUSH1 0x20 ADD ADD DUP2 DUP2 MSTORE POP POP DUP1 DUP1 PUSH1 0x1 ADD SWAP2 POP POP PUSH2 0x19E9 JUMP JUMPDEST POP POP DUP1 DUP1 PUSH1 0x1 ADD SWAP2 POP POP PUSH2 0x19BD JUMP JUMPDEST POP PUSH0 JUMPDEST DUP3 MLOAD DUP2 LT ISZERO PUSH2 0x1B04 JUMPI PUSH0 DUP4 MLOAD TIMESTAMP DUP4 PUSH1 0x40 MLOAD PUSH1 0x20 ADD PUSH2 0x1A5E SWAP3 SWAP2 SWAP1 PUSH2 0x28E9 JUMP JUMPDEST PUSH1 0x40 MLOAD PUSH1 0x20 DUP2 DUP4 SUB SUB DUP2 MSTORE SWAP1 PUSH1 0x40 MSTORE DUP1 MLOAD SWAP1 PUSH1 0x20 ADD KECCAK256 PUSH0 SHR PUSH2 0x1A80 SWAP2 SWAP1 PUSH2 0x25F9 JUMP JUMPDEST SWAP1 POP DUP4 DUP2 DUP2 MLOAD DUP2 LT PUSH2 0x1A95 JUMPI PUSH2 0x1A94 PUSH2 0x1FDE JUMP JUMPDEST JUMPDEST PUSH1 0x20 MUL PUSH1 0x20 ADD ADD MLOAD DUP5 DUP4 DUP2 MLOAD DUP2 LT PUSH2 0x1AB0 JUMPI PUSH2 0x1AAF PUSH2 0x1FDE JUMP JUMPDEST JUMPDEST PUSH1 0x20 MUL PUSH1 0x20 ADD ADD MLOAD DUP6 DUP5 DUP2 MLOAD DUP2 LT PUSH2 0x1ACB JUMPI PUSH2 0x1ACA PUSH2 0x1FDE JUMP JUMPDEST JUMPDEST PUSH1 0x20 MUL PUSH1 0x20 ADD ADD DUP7 DUP5 DUP2 MLOAD DUP2 LT PUSH2 0x1AE5 JUMPI PUSH2 0x1AE4 PUSH2 0x1FDE JUMP JUMPDEST JUMPDEST PUSH1 0x20 MUL PUSH1 0x20 ADD ADD DUP3 DUP2 MSTORE POP DUP3 DUP2 MSTORE POP POP POP POP DUP1 DUP1 PUSH1 0x1 ADD SWAP2 POP POP PUSH2 0x1A3F JUMP JUMPDEST POP DUP2 SWAP4 POP POP POP POP SWAP1 JUMP JUMPDEST PUSH1 0x40 MLOAD DUP1 PUSH2 0x140 ADD PUSH1 0x40 MSTORE DUP1 PUSH1 0xA SWAP1 PUSH1 0x20 DUP3 MUL DUP1 CALLDATASIZE DUP4 CALLDATACOPY DUP1 DUP3 ADD SWAP2 POP POP SWAP1 POP POP SWAP1 JUMP JUMPDEST PUSH0 PUSH20 0xFFFFFFFFFFFFFFFFFFFFFFFFFFFFFFFFFFFFFFFF DUP3 AND SWAP1 POP SWAP2 SWAP1 POP JUMP JUMPDEST PUSH0 DUP2 SWAP1 POP SWAP2 SWAP1 POP JUMP JUMPDEST PUSH0 PUSH2 0x1B73 PUSH2 0x1B6E PUSH2 0x1B69 DUP5 PUSH2 0x1B31 JUMP JUMPDEST PUSH2 0x1B50 JUMP JUMPDEST PUSH2 0x1B31 JUMP JUMPDEST SWAP1 POP SWAP2 SWAP1 POP JUMP JUMPDEST PUSH0 PUSH2 0x1B84 DUP3 PUSH2 0x1B59 JUMP JUMPDEST SWAP1 POP SWAP2 SWAP1 POP JUMP JUMPDEST PUSH0 PUSH2 0x1B95 DUP3 PUSH2 0x1B7A JUMP JUMPDEST SWAP1 POP SWAP2 SWAP1 POP JUMP JUMPDEST PUSH2 0x1BA5 DUP2 PUSH2 0x1B8B JUMP JUMPDEST DUP3 MSTORE POP POP JUMP JUMPDEST PUSH0 PUSH1 0x20 DUP3 ADD SWAP1 POP PUSH2 0x1BBE PUSH0 DUP4 ADD DUP5 PUSH2 0x1B9C JUMP JUMPDEST SWAP3 SWAP2 POP POP JUMP JUMPDEST PUSH0 DUP1 REVERT JUMPDEST PUSH0 PUSH2 0x1BD2 DUP3 PUSH2 0x1B31 JUMP JUMPDEST SWAP1 POP SWAP2 SWAP1 POP JUMP JUMPDEST PUSH2 0x1BE2 DUP2 PUSH2 0x1BC8 JUMP JUMPDEST DUP2 EQ PUSH2 0x1BEC JUMPI PUSH0 DUP1 REVERT JUMPDEST POP JUMP JUMPDEST PUSH0 DUP2 CALLDATALOAD SWAP1 POP PUSH2 0x1BFD DUP2 PUSH2 0x1BD9 JUMP JUMPDEST SWAP3 SWAP2 POP POP JUMP JUMPDEST PUSH0 PUSH1 0x20 DUP3 DUP5 SUB SLT ISZERO PUSH2 0x1C18 JUMPI PUSH2 0x1C17 PUSH2 0x1BC4 JUMP JUMPDEST JUMPDEST PUSH0 PUSH2 0x1C25 DUP5 DUP3 DUP6 ADD PUSH2 0x1BEF JUMP JUMPDEST SWAP2 POP POP SWAP3 SWAP2 POP POP JUMP JUMPDEST PUSH2 0x1C37 DUP2 PUSH2 0x1BC8 JUMP JUMPDEST DUP3 MSTORE POP POP JUMP JUMPDEST PUSH0 DUP2 SWAP1 POP SWAP2 SWAP1 POP JUMP JUMPDEST PUSH2 0x1C4F DUP2 PUSH2 0x1C3D JUMP JUMPDEST DUP3 MSTORE POP POP JUMP JUMPDEST PUSH0 DUP2 ISZERO ISZERO SWAP1 POP SWAP2 SWAP1 POP JUMP JUMPDEST PUSH2 0x1C69 DUP2 PUSH2 0x1C55 JUMP JUMPDEST DUP3 MSTORE POP POP JUMP JUMPDEST PUSH0 PUSH1 0xA0 DUP3 ADD SWAP1 POP PUSH2 0x1C82 PUSH0 DUP4 ADD DUP9 PUSH2 0x1C2E JUMP JUMPDEST PUSH2 0x1C8F PUSH1 0x20 DUP4 ADD DUP8 PUSH2 0x1C46 JUMP JUMPDEST PUSH2 0x1C9C PUSH1 0x40 DUP4 ADD DUP7 PUSH2 0x1C60 JUMP JUMPDEST PUSH2 0x1CA9 PUSH1 0x60 DUP4 ADD DUP6 PUSH2 0x1C60 JUMP JUMPDEST PUSH2 0x1CB6 PUSH1 0x80 DUP4 ADD DUP5 PUSH2 0x1C46 JUMP JUMPDEST SWAP7 SWAP6 POP POP POP POP POP POP JUMP JUMPDEST PUSH0 PUSH1 0xA0 DUP3 ADD SWAP1 POP PUSH2 0x1CD3 PUSH0 DUP4 ADD DUP9 PUSH2 0x1C46 JUMP JUMPDEST PUSH2 0x1CE0 PUSH1 0x20 DUP4 ADD DUP8 PUSH2 0x1C46 JUMP JUMPDEST PUSH2 0x1CED PUSH1 0x40 DUP4 ADD DUP7 PUSH2 0x1C46 JUMP JUMPDEST PUSH2 0x1CFA PUSH1 0x60 DUP4 ADD DUP6 PUSH2 0x1C46 JUMP JUMPDEST PUSH2 0x1D07 PUSH1 0x80 DUP4 ADD DUP5 PUSH2 0x1C46 JUMP JUMPDEST SWAP7 SWAP6 POP POP POP POP POP POP JUMP JUMPDEST PUSH0 PUSH1 0xA SWAP1 POP SWAP2 SWAP1 POP JUMP JUMPDEST PUSH0 DUP2 SWAP1 POP SWAP3 SWAP2 POP POP JUMP JUMPDEST PUSH0 DUP2 SWAP1 POP SWAP2 SWAP1 POP JUMP JUMPDEST PUSH2 0x1D37 DUP2 PUSH2 0x1C3D JUMP JUMPDEST DUP3 MSTORE POP POP JUMP JUMPDEST PUSH0 PUSH2 0x1D48 DUP4 DUP4 PUSH2 0x1D2E JUMP JUMPDEST PUSH1 0x20 DUP4 ADD SWAP1 POP SWAP3 SWAP2 POP POP JUMP JUMPDEST PUSH0 PUSH1 0x20 DUP3 ADD SWAP1 POP SWAP2 SWAP1 POP JUMP JUMPDEST PUSH2 0x1D69 DUP2 PUSH2 0x1D11 JUMP JUMPDEST PUSH2 0x1D73 DUP2 DUP5 PUSH2 0x1D1B JUMP JUMPDEST SWAP3 POP PUSH2 0x1D7E DUP3 PUSH2 0x1D25 JUMP JUMPDEST DUP1 PUSH0 JUMPDEST DUP4 DUP2 LT ISZERO PUSH2 0x1DAE JUMPI DUP2 MLOAD PUSH2 0x1D95 DUP8 DUP3 PUSH2 0x1D3D JUMP JUMPDEST SWAP7 POP PUSH2 0x1DA0 DUP4 PUSH2 0x1D54 JUMP JUMPDEST SWAP3 POP POP PUSH1 0x1 DUP2 ADD SWAP1 POP PUSH2 0x1D81 JUMP JUMPDEST POP POP POP POP POP POP JUMP JUMPDEST PUSH0 PUSH2 0x160 DUP3 ADD SWAP1 POP PUSH2 0x1DCA PUSH0 DUP4 ADD DUP6 PUSH2 0x1D60 JUMP JUMPDEST PUSH2 0x1DD8 PUSH2 0x140 DUP4 ADD DUP5 PUSH2 0x1C46 JUMP JUMPDEST SWAP4 SWAP3 POP POP POP JUMP JUMPDEST PUSH0 PUSH1 0xFF DUP3 AND SWAP1 POP SWAP2 SWAP1 POP JUMP JUMPDEST PUSH2 0x1DF4 DUP2 PUSH2 0x1DDF JUMP JUMPDEST DUP2 EQ PUSH2 0x1DFE JUMPI PUSH0 DUP1 REVERT JUMPDEST POP JUMP JUMPDEST PUSH0 DUP2 CALLDATALOAD SWAP1 POP PUSH2 0x1E0F DUP2 PUSH2 0x1DEB JUMP JUMPDEST SWAP3 SWAP2 POP POP JUMP JUMPDEST PUSH0 DUP1 PUSH1 0x40 DUP4 DUP6 SUB SLT ISZERO PUSH2 0x1E2B JUMPI PUSH2 0x1E2A PUSH2 0x1BC4 JUMP JUMPDEST JUMPDEST PUSH0 PUSH2 0x1E38 DUP6 DUP3 DUP7 ADD PUSH2 0x1BEF JUMP JUMPDEST SWAP3 POP POP PUSH1 0x20 PUSH2 0x1E49 DUP6 DUP3 DUP7 ADD PUSH2 0x1E01 JUMP JUMPDEST SWAP2 POP POP SWAP3 POP SWAP3 SWAP1 POP JUMP JUMPDEST PUSH32 0x4E487B7100000000000000000000000000000000000000000000000000000000 PUSH0 MSTORE PUSH1 0x21 PUSH1 0x4 MSTORE PUSH1 0x24 PUSH0 REVERT JUMPDEST PUSH1 0x3 DUP2 LT PUSH2 0x1E91 JUMPI PUSH2 0x1E90 PUSH2 0x1E53 JUMP JUMPDEST JUMPDEST POP JUMP JUMPDEST PUSH0 DUP2 SWAP1 POP PUSH2 0x1EA1 DUP3 PUSH2 0x1E80 JUMP JUMPDEST SWAP2 SWAP1 POP JUMP JUMPDEST PUSH0 PUSH2 0x1EB0 DUP3 PUSH2 0x1E94 JUMP JUMPDEST SWAP1 POP SWAP2 SWAP1 POP JUMP JUMPDEST PUSH2 0x1EC0 DUP2 PUSH2 0x1EA6 JUMP JUMPDEST DUP3 MSTORE POP POP JUMP JUMPDEST PUSH0 PUSH1 0x20 DUP3 ADD SWAP1 POP PUSH2 0x1ED9 PUSH0 DUP4 ADD DUP5 PUSH2 0x1EB7 JUMP JUMPDEST SWAP3 SWAP2 POP POP JUMP JUMPDEST PUSH0 PUSH1 0x20 DUP3 ADD SWAP1 POP PUSH2 0x1EF2 PUSH0 DUP4 ADD DUP5 PUSH2 0x1C46 JUMP JUMPDEST SWAP3 SWAP2 POP POP JUMP JUMPDEST PUSH0 PUSH1 0x20 DUP3 ADD SWAP1 POP PUSH2 0x1F0B PUSH0 DUP4 ADD DUP5 PUSH2 0x1C2E JUMP JUMPDEST SWAP3 SWAP2 POP POP JUMP JUMPDEST PUSH2 0x1F1A DUP2 PUSH2 0x1C3D JUMP JUMPDEST DUP2 EQ PUSH2 0x1F24 JUMPI PUSH0 DUP1 REVERT JUMPDEST POP JUMP JUMPDEST PUSH0 DUP2 CALLDATALOAD SWAP1 POP PUSH2 0x1F35 DUP2 PUSH2 0x1F11 JUMP JUMPDEST SWAP3 SWAP2 POP POP JUMP JUMPDEST PUSH0 PUSH1 0x20 DUP3 DUP5 SUB SLT ISZERO PUSH2 0x1F50 JUMPI PUSH2 0x1F4F PUSH2 0x1BC4 JUMP JUMPDEST JUMPDEST PUSH0 PUSH2 0x1F5D DUP5 DUP3 DUP6 ADD PUSH2 0x1F27 JUMP JUMPDEST SWAP2 POP POP SWAP3 SWAP2 POP POP JUMP JUMPDEST PUSH0 DUP3 DUP3 MSTORE PUSH1 0x20 DUP3 ADD SWAP1 POP SWAP3 SWAP2 POP POP JUMP JUMPDEST PUSH32 0x21706C6179696E67000000000000000000000000000000000000000000000000 PUSH0 DUP3 ADD MSTORE POP JUMP JUMPDEST PUSH0 PUSH2 0x1FAA PUSH1 0x8 DUP4 PUSH2 0x1F66 JUMP JUMPDEST SWAP2 POP PUSH2 0x1FB5 DUP3 PUSH2 0x1F76 JUMP JUMPDEST PUSH1 0x20 DUP3 ADD SWAP1 POP SWAP2 SWAP1 POP JUMP JUMPDEST PUSH0 PUSH1 0x20 DUP3 ADD SWAP1 POP DUP2 DUP2 SUB PUSH0 DUP4 ADD MSTORE PUSH2 0x1FD7 DUP2 PUSH2 0x1F9E JUMP JUMPDEST SWAP1 POP SWAP2 SWAP1 POP JUMP JUMPDEST PUSH32 0x4E487B7100000000000000000000000000000000000000000000000000000000 PUSH0 MSTORE PUSH1 0x32 PUSH1 0x4 MSTORE PUSH1 0x24 PUSH0 REVERT JUMPDEST PUSH32 0x217475726E000000000000000000000000000000000000000000000000000000 PUSH0 DUP3 ADD MSTORE POP JUMP JUMPDEST PUSH0 PUSH2 0x203F PUSH1 0x5 DUP4 PUSH2 0x1F66 JUMP JUMPDEST SWAP2 POP PUSH2 0x204A DUP3 PUSH2 0x200B JUMP JUMPDEST PUSH1 0x20 DUP3 ADD SWAP1 POP SWAP2 SWAP1 POP JUMP JUMPDEST PUSH0 PUSH1 0x20 DUP3 ADD SWAP1 POP DUP2 DUP2 SUB PUSH0 DUP4 ADD MSTORE PUSH2 0x206C DUP2 PUSH2 0x2033 JUMP JUMPDEST SWAP1 POP SWAP2 SWAP1 POP JUMP JUMPDEST PUSH32 0x6F75740000000000000000000000000000000000000000000000000000000000 PUSH0 DUP3 ADD MSTORE POP JUMP JUMPDEST PUSH0 PUSH2 0x20A7 PUSH1 0x3 DUP4 PUSH2 0x1F66 JUMP JUMPDEST SWAP2 POP PUSH2 0x20B2 DUP3 PUSH2 0x2073 JUMP JUMPDEST PUSH1 0x20 DUP3 ADD SWAP1 POP SWAP2 SWAP1 POP JUMP JUMPDEST PUSH0 PUSH1 0x20 DUP3 ADD SWAP1 POP DUP2 DUP2 SUB PUSH0 DUP4 ADD MSTORE PUSH2 0x20D4 DUP2 PUSH2 0x209B JUMP JUMPDEST SWAP1 POP SWAP2 SWAP1 POP JUMP JUMPDEST PUSH32 0x2174617267657400000000000000000000000000000000000000000000000000 PUSH0 DUP3 ADD MSTORE POP JUMP JUMPDEST PUSH0 PUSH2 0x210F PUSH1 0x7 DUP4 PUSH2 0x1F66 JUMP JUMPDEST SWAP2 POP PUSH2 0x211A DUP3 PUSH2 0x20DB JUMP JUMPDEST PUSH1 0x20 DUP3 ADD SWAP1 POP SWAP2 SWAP1 POP JUMP JUMPDEST PUSH0 PUSH1 0x20 DUP3 ADD SWAP1 POP DUP2 DUP2 SUB PUSH0 DUP4 ADD MSTORE PUSH2 0x213C DUP2 PUSH2 0x2103 JUMP JUMPDEST SWAP1 POP SWAP2 SWAP1 POP JUMP JUMPDEST PUSH32 0x6E6F206A6F6B6572000000000000000000000000000000000000000000000000 PUSH0 DUP3 ADD MSTORE POP JUMP JUMPDEST PUSH0 PUSH2 0x2177 PUSH1 0x8 DUP4 PUSH2 0x1F66 JUMP JUMPDEST SWAP2 POP PUSH2 0x2182 DUP3 PUSH2 0x2143 JUMP JUMPDEST PUSH1 0x20 DUP3 ADD SWAP1 POP SWAP2 SWAP1 POP JUMP JUMPDEST PUSH0 PUSH1 0x20 DUP3 ADD SWAP1 POP DUP2 DUP2 SUB PUSH0 DUP4 ADD MSTORE PUSH2 0x21A4 DUP2 PUSH2 0x216B JUMP JUMPDEST SWAP1 POP SWAP2 SWAP1 POP JUMP JUMPDEST PUSH32 0x4E487B7100000000000000000000000000000000000000000000000000000000 PUSH0 MSTORE PUSH1 0x11 PUSH1 0x4 MSTORE PUSH1 0x24 PUSH0 REVERT JUMPDEST PUSH0 PUSH2 0x21E2 DUP3 PUSH2 0x1C3D JUMP JUMPDEST SWAP2 POP PUSH0 DUP3 SUB PUSH2 0x21F4 JUMPI PUSH2 0x21F3 PUSH2 0x21AB JUMP JUMPDEST JUMPDEST PUSH1 0x1 DUP3 SUB SWAP1 POP SWAP2 SWAP1 POP JUMP JUMPDEST PUSH0 PUSH2 0x2209 DUP3 PUSH2 0x1C3D JUMP JUMPDEST SWAP2 POP PUSH32 0xFFFFFFFFFFFFFFFFFFFFFFFFFFFFFFFFFFFFFFFFFFFFFFFFFFFFFFFFFFFFFFFF DUP3 SUB PUSH2 0x223B JUMPI PUSH2 0x223A PUSH2 0x21AB JUMP JUMPDEST JUMPDEST PUSH1 0x1 DUP3 ADD SWAP1 POP SWAP2 SWAP1 POP JUMP JUMPDEST PUSH0 DUP2 SWAP1 POP SWAP2 SWAP1 POP JUMP JUMPDEST PUSH0 PUSH2 0x2269 PUSH2 0x2264 PUSH2 0x225F DUP5 PUSH2 0x2246 JUMP JUMPDEST PUSH2 0x1B50 JUMP JUMPDEST PUSH2 0x1DDF JUMP JUMPDEST SWAP1 POP SWAP2 SWAP1 POP JUMP JUMPDEST PUSH2 0x2279 DUP2 PUSH2 0x224F JUMP JUMPDEST DUP3 MSTORE POP POP JUMP JUMPDEST PUSH0 PUSH1 0x20 DUP3 ADD SWAP1 POP PUSH2 0x2292 PUSH0 DUP4 ADD DUP5 PUSH2 0x2270 JUMP JUMPDEST SWAP3 SWAP2 POP POP JUMP JUMPDEST PUSH32 0x6361726420312D31300000000000000000000000000000000000000000000000 PUSH0 DUP3 ADD MSTORE POP JUMP JUMPDEST PUSH0 PUSH2 0x22CC PUSH1 0x9 DUP4 PUSH2 0x1F66 JUMP JUMPDEST SWAP2 POP PUSH2 0x22D7 DUP3 PUSH2 0x2298 JUMP JUMPDEST PUSH1 0x20 DUP3 ADD SWAP1 POP SWAP2 SWAP1 POP JUMP JUMPDEST PUSH0 PUSH1 0x20 DUP3 ADD SWAP1 POP DUP2 DUP2 SUB PUSH0 DUP4 ADD MSTORE PUSH2 0x22F9 DUP2 PUSH2 0x22C0 JUMP JUMPDEST SWAP1 POP SWAP2 SWAP1 POP JUMP JUMPDEST PUSH0 PUSH2 0x230A DUP3 PUSH2 0x1DDF JUMP JUMPDEST SWAP2 POP PUSH2 0x2315 DUP4 PUSH2 0x1DDF JUMP JUMPDEST SWAP3 POP DUP3 DUP3 SUB SWAP1 POP PUSH1 0xFF DUP2 GT ISZERO PUSH2 0x232E JUMPI PUSH2 0x232D PUSH2 0x21AB JUMP JUMPDEST JUMPDEST SWAP3 SWAP2 POP POP JUMP JUMPDEST PUSH32 0x6E6F206361726400000000000000000000000000000000000000000000000000 PUSH0 DUP3 ADD MSTORE POP JUMP JUMPDEST PUSH0 PUSH2 0x2368 PUSH1 0x7 DUP4 PUSH2 0x1F66 JUMP JUMPDEST SWAP2 POP PUSH2 0x2373 DUP3 PUSH2 0x2334 JUMP JUMPDEST PUSH1 0x20 DUP3 ADD SWAP1 POP SWAP2 SWAP1 POP JUMP JUMPDEST PUSH0 PUSH1 0x20 DUP3 ADD SWAP1 POP DUP2 DUP2 SUB PUSH0 DUP4 ADD MSTORE PUSH2 0x2395 DUP2 PUSH2 0x235C JUMP JUMPDEST SWAP1 POP SWAP2 SWAP1 POP JUMP JUMPDEST PUSH2 0x23A5 DUP2 PUSH2 0x1DDF JUMP JUMPDEST DUP3 MSTORE POP POP JUMP JUMPDEST PUSH0 PUSH1 0x20 DUP3 ADD SWAP1 POP PUSH2 0x23BE PUSH0 DUP4 ADD DUP5 PUSH2 0x239C JUMP JUMPDEST SWAP3 SWAP2 POP POP JUMP JUMPDEST PUSH32 0x2170656E64696E67000000000000000000000000000000000000000000000000 PUSH0 DUP3 ADD MSTORE POP JUMP JUMPDEST PUSH0 PUSH2 0x23F8 PUSH1 0x8 DUP4 PUSH2 0x1F66 JUMP JUMPDEST SWAP2 POP PUSH2 0x2403 DUP3 PUSH2 0x23C4 JUMP JUMPDEST PUSH1 0x20 DUP3 ADD SWAP1 POP SWAP2 SWAP1 POP JUMP JUMPDEST PUSH0 PUSH1 0x20 DUP3 ADD SWAP1 POP DUP2 DUP2 SUB PUSH0 DUP4 ADD MSTORE PUSH2 0x2425 DUP2 PUSH2 0x23EC JUMP JUMPDEST SWAP1 POP SWAP2 SWAP1 POP JUMP JUMPDEST PUSH32 0x6A6F696E65640000000000000000000000000000000000000000000000000000 PUSH0 DUP3 ADD MSTORE POP JUMP JUMPDEST PUSH0 PUSH2 0x2460 PUSH1 0x6 DUP4 PUSH2 0x1F66 JUMP JUMPDEST SWAP2 POP PUSH2 0x246B DUP3 PUSH2 0x242C JUMP JUMPDEST PUSH1 0x20 DUP3 ADD SWAP1 POP SWAP2 SWAP1 POP JUMP JUMPDEST PUSH0 PUSH1 0x20 DUP3 ADD SWAP1 POP DUP2 DUP2 SUB PUSH0 DUP4 ADD MSTORE PUSH2 0x248D DUP2 PUSH2 0x2454 JUMP JUMPDEST SWAP1 POP SWAP2 SWAP1 POP JUMP JUMPDEST PUSH32 0x66756C6C00000000000000000000000000000000000000000000000000000000 PUSH0 DUP3 ADD MSTORE POP JUMP JUMPDEST PUSH0 PUSH2 0x24C8 PUSH1 0x4 DUP4 PUSH2 0x1F66 JUMP JUMPDEST SWAP2 POP PUSH2 0x24D3 DUP3 PUSH2 0x2494 JUMP JUMPDEST PUSH1 0x20 DUP3 ADD SWAP1 POP SWAP2 SWAP1 POP JUMP JUMPDEST PUSH0 PUSH1 0x20 DUP3 ADD SWAP1 POP DUP2 DUP2 SUB PUSH0 DUP4 ADD MSTORE PUSH2 0x24F5 DUP2 PUSH2 0x24BC JUMP JUMPDEST SWAP1 POP SWAP2 SWAP1 POP JUMP JUMPDEST PUSH32 0x6669786564207374616B65000000000000000000000000000000000000000000 PUSH0 DUP3 ADD MSTORE POP JUMP JUMPDEST PUSH0 PUSH2 0x2530 PUSH1 0xB DUP4 PUSH2 0x1F66 JUMP JUMPDEST SWAP2 POP PUSH2 0x253B DUP3 PUSH2 0x24FC JUMP JUMPDEST PUSH1 0x20 DUP3 ADD SWAP1 POP SWAP2 SWAP1 POP JUMP JUMPDEST PUSH0 PUSH1 0x20 DUP3 ADD SWAP1 POP DUP2 DUP2 SUB PUSH0 DUP4 ADD MSTORE PUSH2 0x255D DUP2 PUSH2 0x2524 JUMP JUMPDEST SWAP1 POP SWAP2 SWAP1 POP JUMP JUMPDEST PUSH32 0x72616E6765000000000000000000000000000000000000000000000000000000 PUSH0 DUP3 ADD MSTORE POP JUMP JUMPDEST PUSH0 PUSH2 0x2598 PUSH1 0x5 DUP4 PUSH2 0x1F66 JUMP JUMPDEST SWAP2 POP PUSH2 0x25A3 DUP3 PUSH2 0x2564 JUMP JUMPDEST PUSH1 0x20 DUP3 ADD SWAP1 POP SWAP2 SWAP1 POP JUMP JUMPDEST PUSH0 PUSH1 0x20 DUP3 ADD SWAP1 POP DUP2 DUP2 SUB PUSH0 DUP4 ADD MSTORE PUSH2 0x25C5 DUP2 PUSH2 0x258C JUMP JUMPDEST SWAP1 POP SWAP2 SWAP1 POP JUMP JUMPDEST PUSH32 0x4E487B7100000000000000000000000000000000000000000000000000000000 PUSH0 MSTORE PUSH1 0x12 PUSH1 0x4 MSTORE PUSH1 0x24 PUSH0 REVERT JUMPDEST PUSH0 PUSH2 0x2603 DUP3 PUSH2 0x1C3D JUMP JUMPDEST SWAP2 POP PUSH2 0x260E DUP4 PUSH2 0x1C3D JUMP JUMPDEST SWAP3 POP DUP3 PUSH2 0x261E JUMPI PUSH2 0x261D PUSH2 0x25CC JUMP JUMPDEST JUMPDEST DUP3 DUP3 MOD SWAP1 POP SWAP3 SWAP2 POP POP JUMP JUMPDEST PUSH0 PUSH2 0x2633 DUP3 PUSH2 0x1C3D JUMP JUMPDEST SWAP2 POP PUSH2 0x263E DUP4 PUSH2 0x1C3D JUMP JUMPDEST SWAP3 POP DUP3 DUP3 ADD SWAP1 POP DUP1 DUP3 GT ISZERO PUSH2 0x2656 JUMPI PUSH2 0x2655 PUSH2 0x21AB JUMP JUMPDEST JUMPDEST SWAP3 SWAP2 POP POP JUMP JUMPDEST PUSH32 0x4E487B7100000000000000000000000000000000000000000000000000000000 PUSH0 MSTORE PUSH1 0x41 PUSH1 0x4 MSTORE PUSH1 0x24 PUSH0 REVERT JUMPDEST PUSH0 DUP2 SWAP1 POP SWAP3 SWAP2 POP POP JUMP JUMPDEST POP JUMP JUMPDEST PUSH0 PUSH2 0x26A1 PUSH0 DUP4 PUSH2 0x2689 JUMP JUMPDEST SWAP2 POP PUSH2 0x26AC DUP3 PUSH2 0x2693 JUMP JUMPDEST PUSH0 DUP3 ADD SWAP1 POP SWAP2 SWAP1 POP JUMP JUMPDEST PUSH0 PUSH2 0x26C0 DUP3 PUSH2 0x2696 JUMP JUMPDEST SWAP2 POP DUP2 SWAP1 POP SWAP2 SWAP1 POP JUMP JUMPDEST PUSH32 0x217472616E736665720000000000000000000000000000000000000000000000 PUSH0 DUP3 ADD MSTORE POP JUMP JUMPDEST PUSH0 PUSH2 0x26FE PUSH1 0x9 DUP4 PUSH2 0x1F66 JUMP JUMPDEST SWAP2 POP PUSH2 0x2709 DUP3 PUSH2 0x26CA JUMP JUMPDEST PUSH1 0x20 DUP3 ADD SWAP1 POP SWAP2 SWAP1 POP JUMP JUMPDEST PUSH0 PUSH1 0x20 DUP3 ADD SWAP1 POP DUP2 DUP2 SUB PUSH0 DUP4 ADD MSTORE PUSH2 0x272B DUP2 PUSH2 0x26F2 JUMP JUMPDEST SWAP1 POP SWAP2 SWAP1 POP JUMP JUMPDEST PUSH0 DUP2 MLOAD SWAP1 POP SWAP2 SWAP1 POP JUMP JUMPDEST PUSH0 DUP3 DUP3 MSTORE PUSH1 0x20 DUP3 ADD SWAP1 POP SWAP3 SWAP2 POP POP JUMP JUMPDEST PUSH0 DUP2 SWAP1 POP PUSH1 0x20 DUP3 ADD SWAP1 POP SWAP2 SWAP1 POP JUMP JUMPDEST PUSH2 0x2764 DUP2 PUSH2 0x1BC8 JUMP JUMPDEST DUP3 MSTORE POP POP JUMP JUMPDEST PUSH0 PUSH2 0x2775 DUP4 DUP4 PUSH2 0x275B JUMP JUMPDEST PUSH1 0x20 DUP4 ADD SWAP1 POP SWAP3 SWAP2 POP POP JUMP JUMPDEST PUSH0 PUSH1 0x20 DUP3 ADD SWAP1 POP SWAP2 SWAP1 POP JUMP JUMPDEST PUSH0 PUSH2 0x2797 DUP3 PUSH2 0x2732 JUMP JUMPDEST PUSH2 0x27A1 DUP2 DUP6 PUSH2 0x273C JUMP JUMPDEST SWAP4 POP PUSH2 0x27AC DUP4 PUSH2 0x274C JUMP JUMPDEST DUP1 PUSH0 JUMPDEST DUP4 DUP2 LT ISZERO PUSH2 0x27DC JUMPI DUP2 MLOAD PUSH2 0x27C3 DUP9 DUP3 PUSH2 0x276A JUMP JUMPDEST SWAP8 POP PUSH2 0x27CE DUP4 PUSH2 0x2781 JUMP JUMPDEST SWAP3 POP POP PUSH1 0x1 DUP2 ADD SWAP1 POP PUSH2 0x27AF JUMP JUMPDEST POP DUP6 SWAP4 POP POP POP POP SWAP3 SWAP2 POP POP JUMP JUMPDEST PUSH0 PUSH1 0x60 DUP3 ADD SWAP1 POP PUSH2 0x27FC PUSH0 DUP4 ADD DUP7 PUSH2 0x1C46 JUMP JUMPDEST DUP2 DUP2 SUB PUSH1 0x20 DUP4 ADD MSTORE PUSH2 0x280E DUP2 DUP6 PUSH2 0x278D JUMP JUMPDEST SWAP1 POP DUP2 DUP2 SUB PUSH1 0x40 DUP4 ADD MSTORE PUSH2 0x2822 DUP2 DUP5 PUSH2 0x278D JUMP JUMPDEST SWAP1 POP SWAP5 SWAP4 POP POP POP POP JUMP JUMPDEST PUSH0 PUSH1 0x40 DUP3 ADD SWAP1 POP DUP2 DUP2 SUB PUSH0 DUP4 ADD MSTORE PUSH2 0x2844 DUP2 DUP6 PUSH2 0x278D JUMP JUMPDEST SWAP1 POP DUP2 DUP2 SUB PUSH1 0x20 DUP4 ADD MSTORE PUSH2 0x2858 DUP2 DUP5 PUSH2 0x278D JUMP JUMPDEST SWAP1 POP SWAP4 SWAP3 POP POP POP JUMP JUMPDEST PUSH32 0x21656E6F75676800000000000000000000000000000000000000000000000000 PUSH0 DUP3 ADD MSTORE POP JUMP JUMPDEST PUSH0 PUSH2 0x2895 PUSH1 0x7 DUP4 PUSH2 0x1F66 JUMP JUMPDEST SWAP2 POP PUSH2 0x28A0 DUP3 PUSH2 0x2861 JUMP JUMPDEST PUSH1 0x20 DUP3 ADD SWAP1 POP SWAP2 SWAP1 POP JUMP JUMPDEST PUSH0 PUSH1 0x20 DUP3 ADD SWAP1 POP DUP2 DUP2 SUB PUSH0 DUP4 ADD MSTORE PUSH2 0x28C2 DUP2 PUSH2 0x2889 JUMP JUMPDEST SWAP1 POP SWAP2 SWAP1 POP JUMP JUMPDEST PUSH0 DUP2 SWAP1 POP SWAP2 SWAP1 POP JUMP JUMPDEST PUSH2 0x28E3 PUSH2 0x28DE DUP3 PUSH2 0x1C3D JUMP JUMPDEST PUSH2 0x28C9 JUMP JUMPDEST DUP3 MSTORE POP POP JUMP JUMPDEST PUSH0 PUSH2 0x28F4 DUP3 DUP6 PUSH2 0x28D2 JUMP JUMPDEST PUSH1 0x20 DUP3 ADD SWAP2 POP PUSH2 0x2904 DUP3 DUP5 PUSH2 0x28D2 JUMP JUMPDEST PUSH1 0x20 DUP3 ADD SWAP2 POP DUP2 SWAP1 POP SWAP4 SWAP3 POP POP POP JUMP INVALID LOG2 PUSH5 0x6970667358 0x22 SLT KECCAK256 PUSH16 0x1AA9039393E6428F80CE9B499E8CEEA0 0x4E MSIZE 0xDA 0xE0 0xC9 DUP16 0xDD PUSH31 0x6CF2A7FAAE61A664736F6C634300081A003300000000000000000000000000 "
				},
				"gasEstimates": {
					"creation": {
						"codeDepositCost": "2114000",
						"executionCost": "infinite",
						"totalCost": "infinite"
					},
					"external": {
						"config()": "infinite",
						"currentPlayerIndex()": "2535",
						"gameId()": "infinite",
						"gameState()": "2554",
						"getPlayerCards(address)": "infinite",
						"host()": "infinite",
						"joinGame()": "infinite",
						"playerData(address)": "infinite",
						"players(uint256)": "5032",
						"stakingVault()": "infinite",
						"takeCard(address,uint8)": "infinite"
					},
					"internal": {
						"_autoEliminate(address,uint8)": "infinite",
						"_endGame()": "infinite",
						"_generateFullDeck()": "infinite",
						"_isAllClear(address)": "infinite",
						"_isGameOver()": "infinite",
						"_nextTurn()": "infinite",
						"_shuffleAndDealAllCards()": "infinite",
						"_startGame()": "infinite"
					}
				},
				"methodIdentifiers": {
					"config()": "79502c55",
					"currentPlayerIndex()": "fb9bdab4",
					"gameId()": "d7c81b55",
					"gameState()": "d1f9c24d",
					"getPlayerCards(address)": "ad5c21d9",
					"host()": "f437bc59",
					"joinGame()": "d4f77b1c",
					"playerData(address)": "424aeded",
					"players(uint256)": "f71d96cb",
					"stakingVault()": "24e7964a",
					"takeCard(address,uint8)": "b0652a88"
				}
			},
			"storageLayout": {
				"storage": [
					{
						"astId": 44,
						"contract": "contracts/GameRoom.sol:GameRoom",
						"label": "config",
						"offset": 0,
						"slot": "0",
						"type": "t_struct(GameConfig)21_storage"
					},
					{
						"astId": 47,
						"contract": "contracts/GameRoom.sol:GameRoom",
						"label": "gameState",
						"offset": 0,
						"slot": "15",
						"type": "t_enum(GameState)6"
					},
					{
						"astId": 52,
						"contract": "contracts/GameRoom.sol:GameRoom",
						"label": "players",
						"offset": 0,
						"slot": "16",
						"type": "t_array(t_address)dyn_storage"
					},
					{
						"astId": 57,
						"contract": "contracts/GameRoom.sol:GameRoom",
						"label": "playerData",
						"offset": 0,
						"slot": "17",
						"type": "t_mapping(t_address,t_struct(Player)36_storage)"
					},
					{
						"astId": 59,
						"contract": "contracts/GameRoom.sol:GameRoom",
						"label": "currentPlayerIndex",
						"offset": 0,
						"slot": "18",
						"type": "t_uint256"
					}
				],
				"types": {
					"t_address": {
						"encoding": "inplace",
						"label": "address",
						"numberOfBytes": "20"
					},
					"t_array(t_address)dyn_storage": {
						"base": "t_address",
						"encoding": "dynamic_array",
						"label": "address[]",
						"numberOfBytes": "32"
					},
					"t_array(t_uint256)10_storage": {
						"base": "t_uint256",
						"encoding": "inplace",
						"label": "uint256[10]",
						"numberOfBytes": "320"
					},
					"t_bool": {
						"encoding": "inplace",
						"label": "bool",
						"numberOfBytes": "1"
					},
					"t_enum(GameState)6": {
						"encoding": "inplace",
						"label": "enum GameRoom.GameState",
						"numberOfBytes": "1"
					},
					"t_mapping(t_address,t_struct(Player)36_storage)": {
						"encoding": "mapping",
						"key": "t_address",
						"label": "mapping(address => struct GameRoom.Player)",
						"numberOfBytes": "32",
						"value": "t_struct(Player)36_storage"
					},
					"t_struct(GameConfig)21_storage": {
						"encoding": "inplace",
						"label": "struct GameRoom.GameConfig",
						"members": [
							{
								"astId": 8,
								"contract": "contracts/GameRoom.sol:GameRoom",
								"label": "minPlayers",
								"offset": 0,
								"slot": "0",
								"type": "t_uint256"
							},
							{
								"astId": 10,
								"contract": "contracts/GameRoom.sol:GameRoom",
								"label": "maxPlayers",
								"offset": 0,
								"slot": "1",
								"type": "t_uint256"
							},
							{
								"astId": 12,
								"contract": "contracts/GameRoom.sol:GameRoom",
								"label": "minStake",
								"offset": 0,
								"slot": "2",
								"type": "t_uint256"
							},
							{
								"astId": 14,
								"contract": "contracts/GameRoom.sol:GameRoom",
								"label": "maxStake",
								"offset": 0,
								"slot": "3",
								"type": "t_uint256"
							},
							{
								"astId": 16,
								"contract": "contracts/GameRoom.sol:GameRoom",
								"label": "jokerCount",
								"offset": 0,
								"slot": "4",
								"type": "t_uint256"
							},
							{
								"astId": 20,
								"contract": "contracts/GameRoom.sol:GameRoom",
								"label": "cardCounts",
								"offset": 0,
								"slot": "5",
								"type": "t_array(t_uint256)10_storage"
							}
						],
						"numberOfBytes": "480"
					},
					"t_struct(Player)36_storage": {
						"encoding": "inplace",
						"label": "struct GameRoom.Player",
						"members": [
							{
								"astId": 23,
								"contract": "contracts/GameRoom.sol:GameRoom",
								"label": "addr",
								"offset": 0,
								"slot": "0",
								"type": "t_address"
							},
							{
								"astId": 25,
								"contract": "contracts/GameRoom.sol:GameRoom",
								"label": "stakeAmount",
								"offset": 0,
								"slot": "1",
								"type": "t_uint256"
							},
							{
								"astId": 27,
								"contract": "contracts/GameRoom.sol:GameRoom",
								"label": "isActive",
								"offset": 0,
								"slot": "2",
								"type": "t_bool"
							},
							{
								"astId": 29,
								"contract": "contracts/GameRoom.sol:GameRoom",
								"label": "isOut",
								"offset": 1,
								"slot": "2",
								"type": "t_bool"
							},
							{
								"astId": 33,
								"contract": "contracts/GameRoom.sol:GameRoom",
								"label": "handCards",
								"offset": 0,
								"slot": "3",
								"type": "t_array(t_uint256)10_storage"
							},
							{
								"astId": 35,
								"contract": "contracts/GameRoom.sol:GameRoom",
								"label": "jokerCount",
								"offset": 0,
								"slot": "13",
								"type": "t_uint256"
							}
						],
						"numberOfBytes": "448"
					},
					"t_uint256": {
						"encoding": "inplace",
						"label": "uint256",
						"numberOfBytes": "32"
					}
				}
			},
			"userdoc": {
				"kind": "user",
				"methods": {},
				"version": 1
			}
		}
	}
}