{
	"contracts/ammv2.sol": {
		"AMMV2": {
			"abi": [
				{
					"inputs": [
						{
							"internalType": "address",
							"name": "_tokenA",
							"type": "address"
						},
						{
							"internalType": "address",
							"name": "_tokenB",
							"type": "address"
						},
						{
							"internalType": "uint256",
							"name": "_pool_name",
							"type": "uint256"
						},
						{
							"internalType": "uint256",
							"name": "_url",
							"type": "uint256"
						}
					],
					"stateMutability": "nonpayable",
					"type": "constructor"
				},
				{
					"anonymous": false,
					"inputs": [
						{
							"indexed": true,
							"internalType": "address",
							"name": "user",
							"type": "address"
						},
						{
							"indexed": false,
							"internalType": "uint256",
							"name": "amountA",
							"type": "uint256"
						},
						{
							"indexed": false,
							"internalType": "uint256",
							"name": "amountB",
							"type": "uint256"
						},
						{
							"indexed": false,
							"internalType": "uint256",
							"name": "lpTokens",
							"type": "uint256"
						}
					],
					"name": "AddLiquidity",
					"type": "event"
				},
				{
					"anonymous": false,
					"inputs": [
						{
							"indexed": true,
							"internalType": "address",
							"name": "user",
							"type": "address"
						},
						{
							"indexed": false,
							"internalType": "uint256",
							"name": "amountA",
							"type": "uint256"
						},
						{
							"indexed": false,
							"internalType": "uint256",
							"name": "amountB",
							"type": "uint256"
						},
						{
							"indexed": false,
							"internalType": "uint256",
							"name": "lpTokens",
							"type": "uint256"
						}
					],
					"name": "RemoveLiquidity",
					"type": "event"
				},
				{
					"anonymous": false,
					"inputs": [
						{
							"indexed": true,
							"internalType": "address",
							"name": "user",
							"type": "address"
						},
						{
							"indexed": false,
							"internalType": "address",
							"name": "tokenIn",
							"type": "address"
						},
						{
							"indexed": false,
							"internalType": "uint256",
							"name": "amountIn",
							"type": "uint256"
						},
						{
							"indexed": false,
							"internalType": "address",
							"name": "tokenOut",
							"type": "address"
						},
						{
							"indexed": false,
							"internalType": "uint256",
							"name": "amountOut",
							"type": "uint256"
						}
					],
					"name": "Swap",
					"type": "event"
				},
				{
					"inputs": [],
					"name": "FEE_DENOMINATOR",
					"outputs": [
						{
							"internalType": "uint256",
							"name": "",
							"type": "uint256"
						}
					],
					"stateMutability": "view",
					"type": "function"
				},
				{
					"inputs": [],
					"name": "FEE_RATE",
					"outputs": [
						{
							"internalType": "uint256",
							"name": "",
							"type": "uint256"
						}
					],
					"stateMutability": "view",
					"type": "function"
				},
				{
					"inputs": [],
					"name": "FLASH_SWAP_FEE_PER_THOUSAND",
					"outputs": [
						{
							"internalType": "uint256",
							"name": "",
							"type": "uint256"
						}
					],
					"stateMutability": "view",
					"type": "function"
				},
				{
					"inputs": [],
					"name": "GetTwapPrice",
					"outputs": [
						{
							"internalType": "uint256",
							"name": "",
							"type": "uint256"
						}
					],
					"stateMutability": "view",
					"type": "function"
				},
				{
					"inputs": [],
					"name": "MINIMUM_LIQUIDITY",
					"outputs": [
						{
							"internalType": "uint256",
							"name": "",
							"type": "uint256"
						}
					],
					"stateMutability": "view",
					"type": "function"
				},
				{
					"inputs": [],
					"name": "POOL_NAME",
					"outputs": [
						{
							"internalType": "uint256",
							"name": "",
							"type": "uint256"
						}
					],
					"stateMutability": "view",
					"type": "function"
				},
				{
					"inputs": [
						{
							"internalType": "uint256",
							"name": "amountA",
							"type": "uint256"
						},
						{
							"internalType": "uint256",
							"name": "amountB",
							"type": "uint256"
						}
					],
					"name": "addLiquidity",
					"outputs": [
						{
							"internalType": "uint256",
							"name": "lpTokens",
							"type": "uint256"
						}
					],
					"stateMutability": "nonpayable",
					"type": "function"
				},
				{
					"inputs": [],
					"name": "contract_type",
					"outputs": [
						{
							"internalType": "uint256",
							"name": "",
							"type": "uint256"
						}
					],
					"stateMutability": "view",
					"type": "function"
				},
				{
					"inputs": [],
					"name": "cumulativePrice",
					"outputs": [
						{
							"internalType": "uint256",
							"name": "",
							"type": "uint256"
						}
					],
					"stateMutability": "view",
					"type": "function"
				},
				{
					"inputs": [],
					"name": "cumulativeTime",
					"outputs": [
						{
							"internalType": "uint256",
							"name": "",
							"type": "uint256"
						}
					],
					"stateMutability": "view",
					"type": "function"
				},
				{
					"inputs": [],
					"name": "emergencyWithdraw",
					"outputs": [],
					"stateMutability": "nonpayable",
					"type": "function"
				},
				{
					"inputs": [
						{
							"internalType": "uint256",
							"name": "amount",
							"type": "uint256"
						},
						{
							"internalType": "uint256",
							"name": "data",
							"type": "uint256"
						},
						{
							"internalType": "address",
							"name": "caller",
							"type": "address"
						}
					],
					"name": "flashSwapTokenA",
					"outputs": [
						{
							"internalType": "bool",
							"name": "",
							"type": "bool"
						}
					],
					"stateMutability": "nonpayable",
					"type": "function"
				},
				{
					"inputs": [
						{
							"internalType": "uint256",
							"name": "amount",
							"type": "uint256"
						},
						{
							"internalType": "uint256",
							"name": "data",
							"type": "uint256"
						},
						{
							"internalType": "address",
							"name": "caller",
							"type": "address"
						}
					],
					"name": "flashSwapTokenB",
					"outputs": [
						{
							"internalType": "bool",
							"name": "",
							"type": "bool"
						}
					],
					"stateMutability": "nonpayable",
					"type": "function"
				},
				{
					"inputs": [
						{
							"internalType": "uint256",
							"name": "amountBIn",
							"type": "uint256"
						}
					],
					"name": "getAmountAOut",
					"outputs": [
						{
							"internalType": "uint256",
							"name": "amountAOut",
							"type": "uint256"
						}
					],
					"stateMutability": "view",
					"type": "function"
				},
				{
					"inputs": [
						{
							"internalType": "uint256",
							"name": "amountAIn",
							"type": "uint256"
						}
					],
					"name": "getAmountBOut",
					"outputs": [
						{
							"internalType": "uint256",
							"name": "amountBOut",
							"type": "uint256"
						}
					],
					"stateMutability": "view",
					"type": "function"
				},
				{
					"inputs": [],
					"name": "getExchangeRate",
					"outputs": [
						{
							"internalType": "uint256",
							"name": "rateAToB",
							"type": "uint256"
						},
						{
							"internalType": "uint256",
							"name": "rateBToA",
							"type": "uint256"
						}
					],
					"stateMutability": "view",
					"type": "function"
				},
				{
					"inputs": [],
					"name": "getPoolInfo",
					"outputs": [
						{
							"internalType": "uint256",
							"name": "tokenABalance",
							"type": "uint256"
						},
						{
							"internalType": "uint256",
							"name": "tokenBBalance",
							"type": "uint256"
						},
						{
							"internalType": "uint256",
							"name": "totalLPSupply",
							"type": "uint256"
						},
						{
							"internalType": "uint256",
							"name": "k",
							"type": "uint256"
						}
					],
					"stateMutability": "view",
					"type": "function"
				},
				{
					"inputs": [
						{
							"internalType": "address",
							"name": "user",
							"type": "address"
						}
					],
					"name": "getUserLPBalance",
					"outputs": [
						{
							"internalType": "uint256",
							"name": "",
							"type": "uint256"
						}
					],
					"stateMutability": "view",
					"type": "function"
				},
				{
					"inputs": [],
					"name": "lastPrice",
					"outputs": [
						{
							"internalType": "uint256",
							"name": "",
							"type": "uint256"
						}
					],
					"stateMutability": "view",
					"type": "function"
				},
				{
					"inputs": [],
					"name": "lastTimestamp",
					"outputs": [
						{
							"internalType": "uint256",
							"name": "",
							"type": "uint256"
						}
					],
					"stateMutability": "view",
					"type": "function"
				},
				{
					"inputs": [],
					"name": "lpTokenTotalSupply",
					"outputs": [
						{
							"internalType": "uint256",
							"name": "",
							"type": "uint256"
						}
					],
					"stateMutability": "view",
					"type": "function"
				},
				{
					"inputs": [],
					"name": "poolOwner",
					"outputs": [
						{
							"internalType": "address",
							"name": "",
							"type": "address"
						}
					],
					"stateMutability": "view",
					"type": "function"
				},
				{
					"inputs": [],
					"name": "pool_img_url",
					"outputs": [
						{
							"internalType": "uint256",
							"name": "",
							"type": "uint256"
						}
					],
					"stateMutability": "view",
					"type": "function"
				},
				{
					"inputs": [
						{
							"internalType": "uint256",
							"name": "lpTokens",
							"type": "uint256"
						}
					],
					"name": "removeLiquidity",
					"outputs": [
						{
							"internalType": "uint256",
							"name": "amountA",
							"type": "uint256"
						},
						{
							"internalType": "uint256",
							"name": "amountB",
							"type": "uint256"
						}
					],
					"stateMutability": "nonpayable",
					"type": "function"
				},
				{
					"inputs": [
						{
							"internalType": "uint256",
							"name": "amountAIn",
							"type": "uint256"
						}
					],
					"name": "swapAForB",
					"outputs": [
						{
							"internalType": "uint256",
							"name": "amountBOut",
							"type": "uint256"
						}
					],
					"stateMutability": "nonpayable",
					"type": "function"
				},
				{
					"inputs": [
						{
							"internalType": "uint256",
							"name": "amountBIn",
							"type": "uint256"
						}
					],
					"name": "swapBForA",
					"outputs": [
						{
							"internalType": "uint256",
							"name": "amountAOut",
							"type": "uint256"
						}
					],
					"stateMutability": "nonpayable",
					"type": "function"
				},
				{
					"inputs": [],
					"name": "tokenAAddress",
					"outputs": [
						{
							"internalType": "address",
							"name": "",
							"type": "address"
						}
					],
					"stateMutability": "view",
					"type": "function"
				},
				{
					"inputs": [],
					"name": "tokenBAddress",
					"outputs": [
						{
							"internalType": "address",
							"name": "",
							"type": "address"
						}
					],
					"stateMutability": "view",
					"type": "function"
				},
				{
					"inputs": [
						{
							"internalType": "address",
							"name": "newOwner",
							"type": "address"
						}
					],
					"name": "transferOwnership",
					"outputs": [],
					"stateMutability": "nonpayable",
					"type": "function"
				},
				{
					"inputs": [
						{
							"internalType": "address",
							"name": "",
							"type": "address"
						}
					],
					"name": "userLpToken",
					"outputs": [
						{
							"internalType": "uint256",
							"name": "",
							"type": "uint256"
						}
					],
					"stateMutability": "view",
					"type": "function"
				}
			],
			"devdoc": {
				"kind": "dev",
				"methods": {},
				"version": 1
			},
			"evm": {
				"assembly": "    /* \"contracts/ammv2.sol\":538:13204  contract AMMV2 {... */\n  mstore(0x40, 0x80)\n    /* \"contracts/ammv2.sol\":1889:2333  constructor(address _tokenA, address _tokenB, uint256 _pool_name, uint256 _url) {... */\n  callvalue\n  dup1\n  iszero\n  tag_1\n  jumpi\n  0x00\n  dup1\n  revert\ntag_1:\n  pop\n  mload(0x40)\n  sub(codesize, bytecodeSize)\n  dup1\n  bytecodeSize\n  dup4\n  codecopy\n  dup2\n  dup2\n  add\n  0x40\n  mstore\n  dup2\n  add\n  swap1\n  tag_2\n  swap2\n  swap1\n  tag_3\n  jump\t// in\ntag_2:\n    /* \"contracts/ammv2.sol\":1996:1997  2 */\n  0x02\n    /* \"contracts/ammv2.sol\":1980:1993  contract_type */\n  0x04\n    /* \"contracts/ammv2.sol\":1980:1997  contract_type = 2 */\n  dup2\n  swap1\n  sstore\n  pop\n    /* \"contracts/ammv2.sol\":2020:2030  msg.sender */\n  caller\n    /* \"contracts/ammv2.sol\":2008:2017  poolOwner */\n  0x00\n  dup1\n    /* \"contracts/ammv2.sol\":2008:2030  poolOwner = msg.sender */\n  0x0100\n  exp\n  dup2\n  sload\n  dup2\n  0xffffffffffffffffffffffffffffffffffffffff\n  mul\n  not\n  and\n  swap1\n  dup4\n  0xffffffffffffffffffffffffffffffffffffffff\n  and\n  mul\n  or\n  swap1\n  sstore\n  pop\n    /* \"contracts/ammv2.sol\":2057:2064  _tokenA */\n  dup4\n    /* \"contracts/ammv2.sol\":2041:2054  tokenAAddress */\n  0x05\n  0x00\n    /* \"contracts/ammv2.sol\":2041:2064  tokenAAddress = _tokenA */\n  0x0100\n  exp\n  dup2\n  sload\n  dup2\n  0xffffffffffffffffffffffffffffffffffffffff\n  mul\n  not\n  and\n  swap1\n  dup4\n  0xffffffffffffffffffffffffffffffffffffffff\n  and\n  mul\n  or\n  swap1\n  sstore\n  pop\n    /* \"contracts/ammv2.sol\":2091:2098  _tokenB */\n  dup3\n    /* \"contracts/ammv2.sol\":2075:2088  tokenBAddress */\n  0x06\n  0x00\n    /* \"contracts/ammv2.sol\":2075:2098  tokenBAddress = _tokenB */\n  0x0100\n  exp\n  dup2\n  sload\n  dup2\n  0xffffffffffffffffffffffffffffffffffffffff\n  mul\n  not\n  and\n  swap1\n  dup4\n  0xffffffffffffffffffffffffffffffffffffffff\n  and\n  mul\n  or\n  swap1\n  sstore\n  pop\n    /* \"contracts/ammv2.sol\":2130:2131  0 */\n  0x00\n    /* \"contracts/ammv2.sol\":2109:2127  lpTokenTotalSupply */\n  0x03\n    /* \"contracts/ammv2.sol\":2109:2131  lpTokenTotalSupply = 0 */\n  dup2\n  swap1\n  sstore\n  pop\n    /* \"contracts/ammv2.sol\":2159:2163  _url */\n  dup1\n    /* \"contracts/ammv2.sol\":2144:2156  pool_img_url */\n  0x01\n    /* \"contracts/ammv2.sol\":2144:2163  pool_img_url = _url */\n  dup2\n  swap1\n  sstore\n  pop\n    /* \"contracts/ammv2.sol\":2192:2207  block.timestamp */\n  timestamp\n    /* \"contracts/ammv2.sol\":2176:2189  lastTimestamp */\n  0x09\n    /* \"contracts/ammv2.sol\":2176:2207  lastTimestamp = block.timestamp */\n  dup2\n  swap1\n  sstore\n  pop\n    /* \"contracts/ammv2.sol\":2236:2237  0 */\n  0x00\n    /* \"contracts/ammv2.sol\":2218:2233  cumulativePrice */\n  0x0a\n    /* \"contracts/ammv2.sol\":2218:2237  cumulativePrice = 0 */\n  dup2\n  swap1\n  sstore\n  pop\n    /* \"contracts/ammv2.sol\":2265:2266  0 */\n  0x00\n    /* \"contracts/ammv2.sol\":2248:2262  cumulativeTime */\n  0x0b\n    /* \"contracts/ammv2.sol\":2248:2266  cumulativeTime = 0 */\n  dup2\n  swap1\n  sstore\n  pop\n    /* \"contracts/ammv2.sol\":2289:2290  0 */\n  0x00\n    /* \"contracts/ammv2.sol\":2277:2286  lastPrice */\n  0x08\n    /* \"contracts/ammv2.sol\":2277:2290  lastPrice = 0 */\n  dup2\n  swap1\n  sstore\n  pop\n    /* \"contracts/ammv2.sol\":2315:2325  _pool_name */\n  dup2\n    /* \"contracts/ammv2.sol\":2303:2312  POOL_NAME */\n  0x07\n    /* \"contracts/ammv2.sol\":2303:2325  POOL_NAME = _pool_name */\n  dup2\n  swap1\n  sstore\n  pop\n    /* \"contracts/ammv2.sol\":1889:2333  constructor(address _tokenA, address _tokenB, uint256 _pool_name, uint256 _url) {... */\n  pop\n  pop\n  pop\n  pop\n    /* \"contracts/ammv2.sol\":538:13204  contract AMMV2 {... */\n  jump(tag_6)\n    /* \"#utility.yul\":88:205   */\ntag_8:\n    /* \"#utility.yul\":197:198   */\n  0x00\n    /* \"#utility.yul\":194:195   */\n  dup1\n    /* \"#utility.yul\":187:199   */\n  revert\n    /* \"#utility.yul\":334:460   */\ntag_10:\n    /* \"#utility.yul\":371:378   */\n  0x00\n    /* \"#utility.yul\":411:453   */\n  0xffffffffffffffffffffffffffffffffffffffff\n    /* \"#utility.yul\":404:409   */\n  dup3\n    /* \"#utility.yul\":400:454   */\n  and\n    /* \"#utility.yul\":389:454   */\n  swap1\n  pop\n    /* \"#utility.yul\":334:460   */\n  swap2\n  swap1\n  pop\n  jump\t// out\n    /* \"#utility.yul\":466:562   */\ntag_11:\n    /* \"#utility.yul\":503:510   */\n  0x00\n    /* \"#utility.yul\":532:556   */\n  tag_23\n    /* \"#utility.yul\":550:555   */\n  dup3\n    /* \"#utility.yul\":532:556   */\n  tag_10\n  jump\t// in\ntag_23:\n    /* \"#utility.yul\":521:556   */\n  swap1\n  pop\n    /* \"#utility.yul\":466:562   */\n  swap2\n  swap1\n  pop\n  jump\t// out\n    /* \"#utility.yul\":568:690   */\ntag_12:\n    /* \"#utility.yul\":641:665   */\n  tag_25\n    /* \"#utility.yul\":659:664   */\n  dup2\n    /* \"#utility.yul\":641:665   */\n  tag_11\n  jump\t// in\ntag_25:\n    /* \"#utility.yul\":634:639   */\n  dup2\n    /* \"#utility.yul\":631:666   */\n  eq\n    /* \"#utility.yul\":621:684   */\n  tag_26\n  jumpi\n    /* \"#utility.yul\":680:681   */\n  0x00\n    /* \"#utility.yul\":677:678   */\n  dup1\n    /* \"#utility.yul\":670:682   */\n  revert\n    /* \"#utility.yul\":621:684   */\ntag_26:\n    /* \"#utility.yul\":568:690   */\n  pop\n  jump\t// out\n    /* \"#utility.yul\":696:839   */\ntag_13:\n    /* \"#utility.yul\":753:758   */\n  0x00\n    /* \"#utility.yul\":784:790   */\n  dup2\n    /* \"#utility.yul\":778:791   */\n  mload\n    /* \"#utility.yul\":769:791   */\n  swap1\n  pop\n    /* \"#utility.yul\":800:833   */\n  tag_28\n    /* \"#utility.yul\":827:832   */\n  dup2\n    /* \"#utility.yul\":800:833   */\n  tag_12\n  jump\t// in\ntag_28:\n    /* \"#utility.yul\":696:839   */\n  swap3\n  swap2\n  pop\n  pop\n  jump\t// out\n    /* \"#utility.yul\":845:922   */\ntag_14:\n    /* \"#utility.yul\":882:889   */\n  0x00\n    /* \"#utility.yul\":911:916   */\n  dup2\n    /* \"#utility.yul\":900:916   */\n  swap1\n  pop\n    /* \"#utility.yul\":845:922   */\n  swap2\n  swap1\n  pop\n  jump\t// out\n    /* \"#utility.yul\":928:1050   */\ntag_15:\n    /* \"#utility.yul\":1001:1025   */\n  tag_31\n    /* \"#utility.yul\":1019:1024   */\n  dup2\n    /* \"#utility.yul\":1001:1025   */\n  tag_14\n  jump\t// in\ntag_31:\n    /* \"#utility.yul\":994:999   */\n  dup2\n    /* \"#utility.yul\":991:1026   */\n  eq\n    /* \"#utility.yul\":981:1044   */\n  tag_32\n  jumpi\n    /* \"#utility.yul\":1040:1041   */\n  0x00\n    /* \"#utility.yul\":1037:1038   */\n  dup1\n    /* \"#utility.yul\":1030:1042   */\n  revert\n    /* \"#utility.yul\":981:1044   */\ntag_32:\n    /* \"#utility.yul\":928:1050   */\n  pop\n  jump\t// out\n    /* \"#utility.yul\":1056:1199   */\ntag_16:\n    /* \"#utility.yul\":1113:1118   */\n  0x00\n    /* \"#utility.yul\":1144:1150   */\n  dup2\n    /* \"#utility.yul\":1138:1151   */\n  mload\n    /* \"#utility.yul\":1129:1151   */\n  swap1\n  pop\n    /* \"#utility.yul\":1160:1193   */\n  tag_34\n    /* \"#utility.yul\":1187:1192   */\n  dup2\n    /* \"#utility.yul\":1160:1193   */\n  tag_15\n  jump\t// in\ntag_34:\n    /* \"#utility.yul\":1056:1199   */\n  swap3\n  swap2\n  pop\n  pop\n  jump\t// out\n    /* \"#utility.yul\":1205:2025   */\ntag_3:\n    /* \"#utility.yul\":1302:1308   */\n  0x00\n    /* \"#utility.yul\":1310:1316   */\n  dup1\n    /* \"#utility.yul\":1318:1324   */\n  0x00\n    /* \"#utility.yul\":1326:1332   */\n  dup1\n    /* \"#utility.yul\":1375:1378   */\n  0x80\n    /* \"#utility.yul\":1363:1372   */\n  dup6\n    /* \"#utility.yul\":1354:1361   */\n  dup8\n    /* \"#utility.yul\":1350:1373   */\n  sub\n    /* \"#utility.yul\":1346:1379   */\n  slt\n    /* \"#utility.yul\":1343:1463   */\n  iszero\n  tag_36\n  jumpi\n    /* \"#utility.yul\":1382:1461   */\n  tag_37\n  tag_8\n  jump\t// in\ntag_37:\n    /* \"#utility.yul\":1343:1463   */\ntag_36:\n    /* \"#utility.yul\":1502:1503   */\n  0x00\n    /* \"#utility.yul\":1527:1591   */\n  tag_38\n    /* \"#utility.yul\":1583:1590   */\n  dup8\n    /* \"#utility.yul\":1574:1580   */\n  dup3\n    /* \"#utility.yul\":1563:1572   */\n  dup9\n    /* \"#utility.yul\":1559:1581   */\n  add\n    /* \"#utility.yul\":1527:1591   */\n  tag_13\n  jump\t// in\ntag_38:\n    /* \"#utility.yul\":1517:1591   */\n  swap5\n  pop\n    /* \"#utility.yul\":1473:1601   */\n  pop\n    /* \"#utility.yul\":1640:1642   */\n  0x20\n    /* \"#utility.yul\":1666:1730   */\n  tag_39\n    /* \"#utility.yul\":1722:1729   */\n  dup8\n    /* \"#utility.yul\":1713:1719   */\n  dup3\n    /* \"#utility.yul\":1702:1711   */\n  dup9\n    /* \"#utility.yul\":1698:1720   */\n  add\n    /* \"#utility.yul\":1666:1730   */\n  tag_13\n  jump\t// in\ntag_39:\n    /* \"#utility.yul\":1656:1730   */\n  swap4\n  pop\n    /* \"#utility.yul\":1611:1740   */\n  pop\n    /* \"#utility.yul\":1779:1781   */\n  0x40\n    /* \"#utility.yul\":1805:1869   */\n  tag_40\n    /* \"#utility.yul\":1861:1868   */\n  dup8\n    /* \"#utility.yul\":1852:1858   */\n  dup3\n    /* \"#utility.yul\":1841:1850   */\n  dup9\n    /* \"#utility.yul\":1837:1859   */\n  add\n    /* \"#utility.yul\":1805:1869   */\n  tag_16\n  jump\t// in\ntag_40:\n    /* \"#utility.yul\":1795:1869   */\n  swap3\n  pop\n    /* \"#utility.yul\":1750:1879   */\n  pop\n    /* \"#utility.yul\":1918:1920   */\n  0x60\n    /* \"#utility.yul\":1944:2008   */\n  tag_41\n    /* \"#utility.yul\":2000:2007   */\n  dup8\n    /* \"#utility.yul\":1991:1997   */\n  dup3\n    /* \"#utility.yul\":1980:1989   */\n  dup9\n    /* \"#utility.yul\":1976:1998   */\n  add\n    /* \"#utility.yul\":1944:2008   */\n  tag_16\n  jump\t// in\ntag_41:\n    /* \"#utility.yul\":1934:2008   */\n  swap2\n  pop\n    /* \"#utility.yul\":1889:2018   */\n  pop\n    /* \"#utility.yul\":1205:2025   */\n  swap3\n  swap6\n  swap2\n  swap5\n  pop\n  swap3\n  pop\n  jump\t// out\n    /* \"contracts/ammv2.sol\":538:13204  contract AMMV2 {... */\ntag_6:\n  dataSize(sub_0)\n  dup1\n  dataOffset(sub_0)\n  0x00\n  codecopy\n  0x00\n  return\nstop\n\nsub_0: assembly {\n        /* \"contracts/ammv2.sol\":538:13204  contract AMMV2 {... */\n      mstore(0x40, 0x80)\n      callvalue\n      dup1\n      iszero\n      tag_1\n      jumpi\n      0x00\n      dup1\n      revert\n    tag_1:\n      pop\n      jumpi(tag_2, lt(calldatasize, 0x04))\n      shr(0xe0, calldataload(0x00))\n      dup1\n      0x9cd441da\n      gt\n      tag_33\n      jumpi\n      dup1\n      0xdf0b6ba3\n      gt\n      tag_34\n      jumpi\n      dup1\n      0xeb8680bc\n      gt\n      tag_35\n      jumpi\n      dup1\n      0xeb8680bc\n      eq\n      tag_29\n      jumpi\n      dup1\n      0xf2fde38b\n      eq\n      tag_30\n      jumpi\n      dup1\n      0xf8b70637\n      eq\n      tag_31\n      jumpi\n      dup1\n      0xff329565\n      eq\n      tag_32\n      jumpi\n      jump(tag_2)\n    tag_35:\n      dup1\n      0xdf0b6ba3\n      eq\n      tag_25\n      jumpi\n      dup1\n      0xe1b1c90a\n      eq\n      tag_26\n      jumpi\n      dup1\n      0xe619a498\n      eq\n      tag_27\n      jumpi\n      dup1\n      0xe6aa216c\n      eq\n      tag_28\n      jumpi\n      jump(tag_2)\n    tag_34:\n      dup1\n      0xba9a7a56\n      gt\n      tag_36\n      jumpi\n      dup1\n      0xba9a7a56\n      eq\n      tag_21\n      jumpi\n      dup1\n      0xcf0b2270\n      eq\n      tag_22\n      jumpi\n      dup1\n      0xd73792a9\n      eq\n      tag_23\n      jumpi\n      dup1\n      0xdb2e21bc\n      eq\n      tag_24\n      jumpi\n      jump(tag_2)\n    tag_36:\n      dup1\n      0x9cd441da\n      eq\n      tag_18\n      jumpi\n      dup1\n      0x9de3f60a\n      eq\n      tag_19\n      jumpi\n      dup1\n      0xac93cc18\n      eq\n      tag_20\n      jumpi\n      jump(tag_2)\n    tag_33:\n      dup1\n      0x2d11c58a\n      gt\n      tag_37\n      jumpi\n      dup1\n      0x7632d96e\n      gt\n      tag_38\n      jumpi\n      dup1\n      0x7632d96e\n      eq\n      tag_14\n      jumpi\n      dup1\n      0x7eb73012\n      eq\n      tag_15\n      jumpi\n      dup1\n      0x92526664\n      eq\n      tag_16\n      jumpi\n      dup1\n      0x9c8f9f23\n      eq\n      tag_17\n      jumpi\n      jump(tag_2)\n    tag_38:\n      dup1\n      0x2d11c58a\n      eq\n      tag_10\n      jumpi\n      dup1\n      0x4e12d676\n      eq\n      tag_11\n      jumpi\n      dup1\n      0x529692f3\n      eq\n      tag_12\n      jumpi\n      dup1\n      0x60246c88\n      eq\n      tag_13\n      jumpi\n      jump(tag_2)\n    tag_37:\n      dup1\n      0x0c131757\n      gt\n      tag_39\n      jumpi\n      dup1\n      0x0c131757\n      eq\n      tag_6\n      jumpi\n      dup1\n      0x19d8ac61\n      eq\n      tag_7\n      jumpi\n      dup1\n      0x28164b78\n      eq\n      tag_8\n      jumpi\n      dup1\n      0x2b7eb20c\n      eq\n      tag_9\n      jumpi\n      jump(tag_2)\n    tag_39:\n      dup1\n      0x03102091\n      eq\n      tag_3\n      jumpi\n      dup1\n      0x053f14da\n      eq\n      tag_4\n      jumpi\n      dup1\n      0x06ebcc6d\n      eq\n      tag_5\n      jumpi\n    tag_2:\n      0x00\n      dup1\n      revert\n        /* \"contracts/ammv2.sol\":6088:7323  function swapAForB(uint256 amountAIn) external returns (uint256 amountBOut) {... */\n    tag_3:\n      tag_40\n      0x04\n      dup1\n      calldatasize\n      sub\n      dup2\n      add\n      swap1\n      tag_41\n      swap2\n      swap1\n      tag_42\n      jump\t// in\n    tag_41:\n      tag_43\n      jump\t// in\n    tag_40:\n      mload(0x40)\n      tag_44\n      swap2\n      swap1\n      tag_45\n      jump\t// in\n    tag_44:\n      mload(0x40)\n      dup1\n      swap2\n      sub\n      swap1\n      return\n        /* \"contracts/ammv2.sol\":1602:1626  uint256 public lastPrice */\n    tag_4:\n      tag_46\n      tag_47\n      jump\t// in\n    tag_46:\n      mload(0x40)\n      tag_48\n      swap2\n      swap1\n      tag_45\n      jump\t// in\n    tag_48:\n      mload(0x40)\n      dup1\n      swap2\n      sub\n      swap1\n      return\n        /* \"contracts/ammv2.sol\":10506:10621  function getUserLPBalance(address user) external view returns (uint256) {... */\n    tag_5:\n      tag_49\n      0x04\n      dup1\n      calldatasize\n      sub\n      dup2\n      add\n      swap1\n      tag_50\n      swap2\n      swap1\n      tag_51\n      jump\t// in\n    tag_50:\n      tag_52\n      jump\t// in\n    tag_49:\n      mload(0x40)\n      tag_53\n      swap2\n      swap1\n      tag_45\n      jump\t// in\n    tag_53:\n      mload(0x40)\n      dup1\n      swap2\n      sub\n      swap1\n      return\n        /* \"contracts/ammv2.sol\":1204:1228  uint256 public POOL_NAME */\n    tag_6:\n      tag_54\n      tag_55\n      jump\t// in\n    tag_54:\n      mload(0x40)\n      tag_56\n      swap2\n      swap1\n      tag_45\n      jump\t// in\n    tag_56:\n      mload(0x40)\n      dup1\n      swap2\n      sub\n      swap1\n      return\n        /* \"contracts/ammv2.sol\":1633:1661  uint256 public lastTimestamp */\n    tag_7:\n      tag_57\n      tag_58\n      jump\t// in\n    tag_57:\n      mload(0x40)\n      tag_59\n      swap2\n      swap1\n      tag_45\n      jump\t// in\n    tag_59:\n      mload(0x40)\n      dup1\n      swap2\n      sub\n      swap1\n      return\n        /* \"contracts/ammv2.sol\":11814:12492  function flashSwapTokenA(uint256 amount, uint256 data, address caller) external returns (bool) {... */\n    tag_8:\n      tag_60\n      0x04\n      dup1\n      calldatasize\n      sub\n      dup2\n      add\n      swap1\n      tag_61\n      swap2\n      swap1\n      tag_62\n      jump\t// in\n    tag_61:\n      tag_63\n      jump\t// in\n    tag_60:\n      mload(0x40)\n      tag_64\n      swap2\n      swap1\n      tag_65\n      jump\t// in\n    tag_64:\n      mload(0x40)\n      dup1\n      swap2\n      sub\n      swap1\n      return\n        /* \"contracts/ammv2.sol\":3050:3237  function GetTwapPrice() external view returns (uint256) {... */\n    tag_9:\n      tag_66\n      tag_67\n      jump\t// in\n    tag_66:\n      mload(0x40)\n      tag_68\n      swap2\n      swap1\n      tag_45\n      jump\t// in\n    tag_68:\n      mload(0x40)\n      dup1\n      swap2\n      sub\n      swap1\n      return\n        /* \"contracts/ammv2.sol\":901:937  uint256 public constant FEE_RATE = 3 */\n    tag_10:\n      tag_69\n      tag_70\n      jump\t// in\n    tag_69:\n      mload(0x40)\n      tag_71\n      swap2\n      swap1\n      tag_45\n      jump\t// in\n    tag_71:\n      mload(0x40)\n      dup1\n      swap2\n      sub\n      swap1\n      return\n        /* \"contracts/ammv2.sol\":1668:1698  uint256 public cumulativePrice */\n    tag_11:\n      tag_72\n      tag_73\n      jump\t// in\n    tag_72:\n      mload(0x40)\n      tag_74\n      swap2\n      swap1\n      tag_45\n      jump\t// in\n    tag_74:\n      mload(0x40)\n      dup1\n      swap2\n      sub\n      swap1\n      return\n        /* \"contracts/ammv2.sol\":9284:9875  function getAmountAOut(uint256 amountBIn) external view returns (uint256 amountAOut) {... */\n    tag_12:\n      tag_75\n      0x04\n      dup1\n      calldatasize\n      sub\n      dup2\n      add\n      swap1\n      tag_76\n      swap2\n      swap1\n      tag_42\n      jump\t// in\n    tag_76:\n      tag_77\n      jump\t// in\n    tag_75:\n      mload(0x40)\n      tag_78\n      swap2\n      swap1\n      tag_45\n      jump\t// in\n    tag_78:\n      mload(0x40)\n      dup1\n      swap2\n      sub\n      swap1\n      return\n        /* \"contracts/ammv2.sol\":10660:11074  function getPoolInfo() external view returns (... */\n    tag_13:\n      tag_79\n      tag_80\n      jump\t// in\n    tag_79:\n      mload(0x40)\n      tag_81\n      swap5\n      swap4\n      swap3\n      swap2\n      swap1\n      tag_82\n      jump\t// in\n    tag_81:\n      mload(0x40)\n      dup1\n      swap2\n      sub\n      swap1\n      return\n        /* \"contracts/ammv2.sol\":1705:1734  uint256 public cumulativeTime */\n    tag_14:\n      tag_83\n      tag_84\n      jump\t// in\n    tag_83:\n      mload(0x40)\n      tag_85\n      swap2\n      swap1\n      tag_45\n      jump\t// in\n    tag_85:\n      mload(0x40)\n      dup1\n      swap2\n      sub\n      swap1\n      return\n        /* \"contracts/ammv2.sol\":789:817  address public tokenAAddress */\n    tag_15:\n      tag_86\n      tag_87\n      jump\t// in\n    tag_86:\n      mload(0x40)\n      tag_88\n      swap2\n      swap1\n      tag_89\n      jump\t// in\n    tag_88:\n      mload(0x40)\n      dup1\n      swap2\n      sub\n      swap1\n      return\n        /* \"contracts/ammv2.sol\":625:671  mapping(address => uint256) public userLpToken */\n    tag_16:\n      tag_90\n      0x04\n      dup1\n      calldatasize\n      sub\n      dup2\n      add\n      swap1\n      tag_91\n      swap2\n      swap1\n      tag_51\n      jump\t// in\n    tag_91:\n      tag_92\n      jump\t// in\n    tag_90:\n      mload(0x40)\n      tag_93\n      swap2\n      swap1\n      tag_45\n      jump\t// in\n    tag_93:\n      mload(0x40)\n      dup1\n      swap2\n      sub\n      swap1\n      return\n        /* \"contracts/ammv2.sol\":4929:6047  function removeLiquidity(uint256 lpTokens) external returns (uint256 amountA, uint256 amountB) {... */\n    tag_17:\n      tag_94\n      0x04\n      dup1\n      calldatasize\n      sub\n      dup2\n      add\n      swap1\n      tag_95\n      swap2\n      swap1\n      tag_42\n      jump\t// in\n    tag_95:\n      tag_96\n      jump\t// in\n    tag_94:\n      mload(0x40)\n      tag_97\n      swap3\n      swap2\n      swap1\n      tag_98\n      jump\t// in\n    tag_97:\n      mload(0x40)\n      dup1\n      swap2\n      sub\n      swap1\n      return\n        /* \"contracts/ammv2.sol\":3273:4893  function addLiquidity(uint256 amountA, uint256 amountB) external returns (uint256 lpTokens) {... */\n    tag_18:\n      tag_99\n      0x04\n      dup1\n      calldatasize\n      sub\n      dup2\n      add\n      swap1\n      tag_100\n      swap2\n      swap1\n      tag_101\n      jump\t// in\n    tag_100:\n      tag_102\n      jump\t// in\n    tag_99:\n      mload(0x40)\n      tag_103\n      swap2\n      swap1\n      tag_45\n      jump\t// in\n    tag_103:\n      mload(0x40)\n      dup1\n      swap2\n      sub\n      swap1\n      return\n        /* \"contracts/ammv2.sol\":1031:1086  uint256 public constant FLASH_SWAP_FEE_PER_THOUSAND = 3 */\n    tag_19:\n      tag_104\n      tag_105\n      jump\t// in\n    tag_104:\n      mload(0x40)\n      tag_106\n      swap2\n      swap1\n      tag_45\n      jump\t// in\n    tag_106:\n      mload(0x40)\n      dup1\n      swap2\n      sub\n      swap1\n      return\n        /* \"contracts/ammv2.sol\":591:618  uint256 public pool_img_url */\n    tag_20:\n      tag_107\n      tag_108\n      jump\t// in\n    tag_107:\n      mload(0x40)\n      tag_109\n      swap2\n      swap1\n      tag_45\n      jump\t// in\n    tag_109:\n      mload(0x40)\n      dup1\n      swap2\n      sub\n      swap1\n      return\n        /* \"contracts/ammv2.sol\":1129:1177  uint256 public constant MINIMUM_LIQUIDITY = 1000 */\n    tag_21:\n      tag_110\n      tag_111\n      jump\t// in\n    tag_110:\n      mload(0x40)\n      tag_112\n      swap2\n      swap1\n      tag_45\n      jump\t// in\n    tag_112:\n      mload(0x40)\n      dup1\n      swap2\n      sub\n      swap1\n      return\n        /* \"contracts/ammv2.sol\":560:584  address public poolOwner */\n    tag_22:\n      tag_113\n      tag_114\n      jump\t// in\n    tag_113:\n      mload(0x40)\n      tag_115\n      swap2\n      swap1\n      tag_89\n      jump\t// in\n    tag_115:\n      mload(0x40)\n      dup1\n      swap2\n      sub\n      swap1\n      return\n        /* \"contracts/ammv2.sol\":944:990  uint256 public constant FEE_DENOMINATOR = 1000 */\n    tag_23:\n      tag_116\n      tag_117\n      jump\t// in\n    tag_116:\n      mload(0x40)\n      tag_118\n      swap2\n      swap1\n      tag_45\n      jump\t// in\n    tag_118:\n      mload(0x40)\n      dup1\n      swap2\n      sub\n      swap1\n      return\n        /* \"contracts/ammv2.sol\":11113:11573  function emergencyWithdraw() external onlyPoolOwner {... */\n    tag_24:\n      tag_119\n      tag_120\n      jump\t// in\n    tag_119:\n      stop\n        /* \"contracts/ammv2.sol\":12523:13201  function flashSwapTokenB(uint256 amount, uint256 data, address caller) external returns (bool) {... */\n    tag_25:\n      tag_121\n      0x04\n      dup1\n      calldatasize\n      sub\n      dup2\n      add\n      swap1\n      tag_122\n      swap2\n      swap1\n      tag_62\n      jump\t// in\n    tag_122:\n      tag_123\n      jump\t// in\n    tag_121:\n      mload(0x40)\n      tag_124\n      swap2\n      swap1\n      tag_65\n      jump\t// in\n    tag_124:\n      mload(0x40)\n      dup1\n      swap2\n      sub\n      swap1\n      return\n        /* \"contracts/ammv2.sol\":720:748  uint256 public contract_type */\n    tag_26:\n      tag_125\n      tag_126\n      jump\t// in\n    tag_125:\n      mload(0x40)\n      tag_127\n      swap2\n      swap1\n      tag_45\n      jump\t// in\n    tag_127:\n      mload(0x40)\n      dup1\n      swap2\n      sub\n      swap1\n      return\n        /* \"contracts/ammv2.sol\":7364:8599  function swapBForA(uint256 amountBIn) external returns (uint256 amountAOut) {... */\n    tag_27:\n      tag_128\n      0x04\n      dup1\n      calldatasize\n      sub\n      dup2\n      add\n      swap1\n      tag_129\n      swap2\n      swap1\n      tag_42\n      jump\t// in\n    tag_129:\n      tag_130\n      jump\t// in\n    tag_128:\n      mload(0x40)\n      tag_131\n      swap2\n      swap1\n      tag_45\n      jump\t// in\n    tag_131:\n      mload(0x40)\n      dup1\n      swap2\n      sub\n      swap1\n      return\n        /* \"contracts/ammv2.sol\":9914:10459  function getExchangeRate() external view returns (uint256 rateAToB, uint256 rateBToA) {... */\n    tag_28:\n      tag_132\n      tag_133\n      jump\t// in\n    tag_132:\n      mload(0x40)\n      tag_134\n      swap3\n      swap2\n      swap1\n      tag_98\n      jump\t// in\n    tag_134:\n      mload(0x40)\n      dup1\n      swap2\n      sub\n      swap1\n      return\n        /* \"contracts/ammv2.sol\":8646:9237  function getAmountBOut(uint256 amountAIn) external view returns (uint256 amountBOut) {... */\n    tag_29:\n      tag_135\n      0x04\n      dup1\n      calldatasize\n      sub\n      dup2\n      add\n      swap1\n      tag_136\n      swap2\n      swap1\n      tag_42\n      jump\t// in\n    tag_136:\n      tag_137\n      jump\t// in\n    tag_135:\n      mload(0x40)\n      tag_138\n      swap2\n      swap1\n      tag_45\n      jump\t// in\n    tag_138:\n      mload(0x40)\n      dup1\n      swap2\n      sub\n      swap1\n      return\n        /* \"contracts/ammv2.sol\":11615:11783  function transferOwnership(address newOwner) external onlyPoolOwner {... */\n    tag_30:\n      tag_139\n      0x04\n      dup1\n      calldatasize\n      sub\n      dup2\n      add\n      swap1\n      tag_140\n      swap2\n      swap1\n      tag_51\n      jump\t// in\n    tag_140:\n      tag_141\n      jump\t// in\n    tag_139:\n      stop\n        /* \"contracts/ammv2.sol\":824:852  address public tokenBAddress */\n    tag_31:\n      tag_142\n      tag_143\n      jump\t// in\n    tag_142:\n      mload(0x40)\n      tag_144\n      swap2\n      swap1\n      tag_89\n      jump\t// in\n    tag_144:\n      mload(0x40)\n      dup1\n      swap2\n      sub\n      swap1\n      return\n        /* \"contracts/ammv2.sol\":678:711  uint256 public lpTokenTotalSupply */\n    tag_32:\n      tag_145\n      tag_146\n      jump\t// in\n    tag_145:\n      mload(0x40)\n      tag_147\n      swap2\n      swap1\n      tag_45\n      jump\t// in\n    tag_147:\n      mload(0x40)\n      dup1\n      swap2\n      sub\n      swap1\n      return\n        /* \"contracts/ammv2.sol\":6088:7323  function swapAForB(uint256 amountAIn) external returns (uint256 amountBOut) {... */\n    tag_43:\n        /* \"contracts/ammv2.sol\":6144:6162  uint256 amountBOut */\n      0x00\n        /* \"contracts/ammv2.sol\":6175:6196  uint256 poolTokenANum */\n      dup1\n        /* \"contracts/ammv2.sol\":6206:6219  tokenAAddress */\n      0x05\n      0x00\n      swap1\n      sload\n      swap1\n      0x0100\n      exp\n      swap1\n      div\n      0xffffffffffffffffffffffffffffffffffffffff\n      and\n        /* \"contracts/ammv2.sol\":6199:6230  IERC20(tokenAAddress).balanceOf */\n      0xffffffffffffffffffffffffffffffffffffffff\n      and\n      0x70a08231\n        /* \"contracts/ammv2.sol\":6239:6243  this */\n      address\n        /* \"contracts/ammv2.sol\":6199:6245  IERC20(tokenAAddress).balanceOf(address(this)) */\n      mload(0x40)\n      dup3\n      0xffffffff\n      and\n      0xe0\n      shl\n      dup2\n      mstore\n      0x04\n      add\n      tag_149\n      swap2\n      swap1\n      tag_89\n      jump\t// in\n    tag_149:\n      0x20\n      mload(0x40)\n      dup1\n      dup4\n      sub\n      dup2\n      dup7\n      gas\n      staticcall\n      iszero\n      dup1\n      iszero\n      tag_151\n      jumpi\n      returndatasize\n      0x00\n      dup1\n      returndatacopy\n      revert(0x00, returndatasize)\n    tag_151:\n      pop\n      pop\n      pop\n      pop\n      mload(0x40)\n      returndatasize\n      not(0x1f)\n      0x1f\n      dup3\n      add\n      and\n      dup3\n      add\n      dup1\n      0x40\n      mstore\n      pop\n      dup2\n      add\n      swap1\n      tag_152\n      swap2\n      swap1\n      tag_153\n      jump\t// in\n    tag_152:\n        /* \"contracts/ammv2.sol\":6175:6245  uint256 poolTokenANum = IERC20(tokenAAddress).balanceOf(address(this)) */\n      swap1\n      pop\n        /* \"contracts/ammv2.sol\":6256:6277  uint256 poolTokenBNum */\n      0x00\n        /* \"contracts/ammv2.sol\":6287:6300  tokenBAddress */\n      0x06\n      0x00\n      swap1\n      sload\n      swap1\n      0x0100\n      exp\n      swap1\n      div\n      0xffffffffffffffffffffffffffffffffffffffff\n      and\n        /* \"contracts/ammv2.sol\":6280:6311  IERC20(tokenBAddress).balanceOf */\n      0xffffffffffffffffffffffffffffffffffffffff\n      and\n      0x70a08231\n        /* \"contracts/ammv2.sol\":6320:6324  this */\n      address\n        /* \"contracts/ammv2.sol\":6280:6326  IERC20(tokenBAddress).balanceOf(address(this)) */\n      mload(0x40)\n      dup3\n      0xffffffff\n      and\n      0xe0\n      shl\n      dup2\n      mstore\n      0x04\n      add\n      tag_154\n      swap2\n      swap1\n      tag_89\n      jump\t// in\n    tag_154:\n      0x20\n      mload(0x40)\n      dup1\n      dup4\n      sub\n      dup2\n      dup7\n      gas\n      staticcall\n      iszero\n      dup1\n      iszero\n      tag_156\n      jumpi\n      returndatasize\n      0x00\n      dup1\n      returndatacopy\n      revert(0x00, returndatasize)\n    tag_156:\n      pop\n      pop\n      pop\n      pop\n      mload(0x40)\n      returndatasize\n      not(0x1f)\n      0x1f\n      dup3\n      add\n      and\n      dup3\n      add\n      dup1\n      0x40\n      mstore\n      pop\n      dup2\n      add\n      swap1\n      tag_157\n      swap2\n      swap1\n      tag_153\n      jump\t// in\n    tag_157:\n        /* \"contracts/ammv2.sol\":6256:6326  uint256 poolTokenBNum = IERC20(tokenBAddress).balanceOf(address(this)) */\n      swap1\n      pop\n        /* \"contracts/ammv2.sol\":6359:6360  0 */\n      0x00\n        /* \"contracts/ammv2.sol\":6347:6356  amountAIn */\n      dup5\n        /* \"contracts/ammv2.sol\":6347:6360  amountAIn > 0 */\n      gt\n        /* \"contracts/ammv2.sol\":6339:6379  require(amountAIn > 0, \"Invalid amount\") */\n      tag_158\n      jumpi\n      mload(0x40)\n      0x08c379a000000000000000000000000000000000000000000000000000000000\n      dup2\n      mstore\n      0x04\n      add\n      tag_159\n      swap1\n      tag_160\n      jump\t// in\n    tag_159:\n      mload(0x40)\n      dup1\n      swap2\n      sub\n      swap1\n      revert\n    tag_158:\n        /* \"contracts/ammv2.sol\":6414:6415  0 */\n      0x00\n        /* \"contracts/ammv2.sol\":6398:6411  poolTokenANum */\n      dup3\n        /* \"contracts/ammv2.sol\":6398:6415  poolTokenANum > 0 */\n      gt\n        /* \"contracts/ammv2.sol\":6398:6436  poolTokenANum > 0 && poolTokenBNum > 0 */\n      dup1\n      iszero\n      tag_161\n      jumpi\n      pop\n        /* \"contracts/ammv2.sol\":6435:6436  0 */\n      0x00\n        /* \"contracts/ammv2.sol\":6419:6432  poolTokenBNum */\n      dup2\n        /* \"contracts/ammv2.sol\":6419:6436  poolTokenBNum > 0 */\n      gt\n        /* \"contracts/ammv2.sol\":6398:6436  poolTokenANum > 0 && poolTokenBNum > 0 */\n    tag_161:\n        /* \"contracts/ammv2.sol\":6390:6461  require(poolTokenANum > 0 && poolTokenBNum > 0, \"Pool not initialized\") */\n      tag_162\n      jumpi\n      mload(0x40)\n      0x08c379a000000000000000000000000000000000000000000000000000000000\n      dup2\n      mstore\n      0x04\n      add\n      tag_163\n      swap1\n      tag_164\n      jump\t// in\n    tag_163:\n      mload(0x40)\n      dup1\n      swap2\n      sub\n      swap1\n      revert\n    tag_162:\n        /* \"contracts/ammv2.sol\":6528:6552  uint256 amountAInWithFee */\n      0x00\n        /* \"contracts/ammv2.sol\":986:990  1000 */\n      0x03e8\n        /* \"contracts/ammv2.sol\":936:937  3 */\n      0x03\n        /* \"contracts/ammv2.sol\":986:990  1000 */\n      0x03e8\n        /* \"contracts/ammv2.sol\":6568:6594  FEE_DENOMINATOR - FEE_RATE */\n      tag_165\n      swap2\n      swap1\n      tag_166\n      jump\t// in\n    tag_165:\n        /* \"contracts/ammv2.sol\":6555:6564  amountAIn */\n      dup7\n        /* \"contracts/ammv2.sol\":6555:6595  amountAIn * (FEE_DENOMINATOR - FEE_RATE) */\n      tag_167\n      swap2\n      swap1\n      tag_168\n      jump\t// in\n    tag_167:\n        /* \"contracts/ammv2.sol\":6555:6613  amountAIn * (FEE_DENOMINATOR - FEE_RATE) / FEE_DENOMINATOR */\n      tag_169\n      swap2\n      swap1\n      tag_170\n      jump\t// in\n    tag_169:\n        /* \"contracts/ammv2.sol\":6528:6613  uint256 amountAInWithFee = amountAIn * (FEE_DENOMINATOR - FEE_RATE) / FEE_DENOMINATOR */\n      swap1\n      pop\n        /* \"contracts/ammv2.sol\":6751:6767  amountAInWithFee */\n      dup1\n        /* \"contracts/ammv2.sol\":6735:6748  poolTokenANum */\n      dup4\n        /* \"contracts/ammv2.sol\":6735:6767  poolTokenANum + amountAInWithFee */\n      tag_171\n      swap2\n      swap1\n      tag_172\n      jump\t// in\n    tag_171:\n        /* \"contracts/ammv2.sol\":6714:6730  amountAInWithFee */\n      dup2\n        /* \"contracts/ammv2.sol\":6698:6711  poolTokenBNum */\n      dup4\n        /* \"contracts/ammv2.sol\":6698:6730  poolTokenBNum * amountAInWithFee */\n      tag_173\n      swap2\n      swap1\n      tag_168\n      jump\t// in\n    tag_173:\n        /* \"contracts/ammv2.sol\":6697:6768  (poolTokenBNum * amountAInWithFee) / (poolTokenANum + amountAInWithFee) */\n      tag_174\n      swap2\n      swap1\n      tag_170\n      jump\t// in\n    tag_174:\n        /* \"contracts/ammv2.sol\":6684:6768  amountBOut = (poolTokenBNum * amountAInWithFee) / (poolTokenANum + amountAInWithFee) */\n      swap4\n      pop\n        /* \"contracts/ammv2.sol\":6810:6811  0 */\n      0x00\n        /* \"contracts/ammv2.sol\":6797:6807  amountBOut */\n      dup5\n        /* \"contracts/ammv2.sol\":6797:6811  amountBOut > 0 */\n      gt\n        /* \"contracts/ammv2.sol\":6789:6842  require(amountBOut > 0, \"Insufficient output amount\") */\n      tag_175\n      jumpi\n      mload(0x40)\n      0x08c379a000000000000000000000000000000000000000000000000000000000\n      dup2\n      mstore\n      0x04\n      add\n      tag_176\n      swap1\n      tag_177\n      jump\t// in\n    tag_176:\n      mload(0x40)\n      dup1\n      swap2\n      sub\n      swap1\n      revert\n    tag_175:\n        /* \"contracts/ammv2.sol\":6874:6887  poolTokenBNum */\n      dup2\n        /* \"contracts/ammv2.sol\":6861:6871  amountBOut */\n      dup5\n        /* \"contracts/ammv2.sol\":6861:6887  amountBOut < poolTokenBNum */\n      lt\n        /* \"contracts/ammv2.sol\":6853:6914  require(amountBOut < poolTokenBNum, \"Insufficient liquidity\") */\n      tag_178\n      jumpi\n      mload(0x40)\n      0x08c379a000000000000000000000000000000000000000000000000000000000\n      dup2\n      mstore\n      0x04\n      add\n      tag_179\n      swap1\n      tag_180\n      jump\t// in\n    tag_179:\n      mload(0x40)\n      dup1\n      swap2\n      sub\n      swap1\n      revert\n    tag_178:\n        /* \"contracts/ammv2.sol\":6976:6989  tokenAAddress */\n      0x05\n      0x00\n      swap1\n      sload\n      swap1\n      0x0100\n      exp\n      swap1\n      div\n      0xffffffffffffffffffffffffffffffffffffffff\n      and\n        /* \"contracts/ammv2.sol\":6969:7003  IERC20(tokenAAddress).transferFrom */\n      0xffffffffffffffffffffffffffffffffffffffff\n      and\n      0x23b872dd\n        /* \"contracts/ammv2.sol\":7004:7014  msg.sender */\n      caller\n        /* \"contracts/ammv2.sol\":7024:7028  this */\n      address\n        /* \"contracts/ammv2.sol\":7031:7040  amountAIn */\n      dup9\n        /* \"contracts/ammv2.sol\":6969:7041  IERC20(tokenAAddress).transferFrom(msg.sender, address(this), amountAIn) */\n      mload(0x40)\n      dup5\n      0xffffffff\n      and\n      0xe0\n      shl\n      dup2\n      mstore\n      0x04\n      add\n      tag_181\n      swap4\n      swap3\n      swap2\n      swap1\n      tag_182\n      jump\t// in\n    tag_181:\n      0x20\n      mload(0x40)\n      dup1\n      dup4\n      sub\n      dup2\n      0x00\n      dup8\n      gas\n      call\n      iszero\n      dup1\n      iszero\n      tag_184\n      jumpi\n      returndatasize\n      0x00\n      dup1\n      returndatacopy\n      revert(0x00, returndatasize)\n    tag_184:\n      pop\n      pop\n      pop\n      pop\n      mload(0x40)\n      returndatasize\n      not(0x1f)\n      0x1f\n      dup3\n      add\n      and\n      dup3\n      add\n      dup1\n      0x40\n      mstore\n      pop\n      dup2\n      add\n      swap1\n      tag_185\n      swap2\n      swap1\n      tag_186\n      jump\t// in\n    tag_185:\n        /* \"contracts/ammv2.sol\":6961:7063  require(IERC20(tokenAAddress).transferFrom(msg.sender, address(this), amountAIn), \"Transfer A failed\") */\n      tag_187\n      jumpi\n      mload(0x40)\n      0x08c379a000000000000000000000000000000000000000000000000000000000\n      dup2\n      mstore\n      0x04\n      add\n      tag_188\n      swap1\n      tag_189\n      jump\t// in\n    tag_188:\n      mload(0x40)\n      dup1\n      swap2\n      sub\n      swap1\n      revert\n    tag_187:\n        /* \"contracts/ammv2.sol\":7125:7138  tokenBAddress */\n      0x06\n      0x00\n      swap1\n      sload\n      swap1\n      0x0100\n      exp\n      swap1\n      div\n      0xffffffffffffffffffffffffffffffffffffffff\n      and\n        /* \"contracts/ammv2.sol\":7118:7148  IERC20(tokenBAddress).transfer */\n      0xffffffffffffffffffffffffffffffffffffffff\n      and\n      0xa9059cbb\n        /* \"contracts/ammv2.sol\":7149:7159  msg.sender */\n      caller\n        /* \"contracts/ammv2.sol\":7161:7171  amountBOut */\n      dup7\n        /* \"contracts/ammv2.sol\":7118:7172  IERC20(tokenBAddress).transfer(msg.sender, amountBOut) */\n      mload(0x40)\n      dup4\n      0xffffffff\n      and\n      0xe0\n      shl\n      dup2\n      mstore\n      0x04\n      add\n      tag_190\n      swap3\n      swap2\n      swap1\n      tag_191\n      jump\t// in\n    tag_190:\n      0x20\n      mload(0x40)\n      dup1\n      dup4\n      sub\n      dup2\n      0x00\n      dup8\n      gas\n      call\n      iszero\n      dup1\n      iszero\n      tag_193\n      jumpi\n      returndatasize\n      0x00\n      dup1\n      returndatacopy\n      revert(0x00, returndatasize)\n    tag_193:\n      pop\n      pop\n      pop\n      pop\n      mload(0x40)\n      returndatasize\n      not(0x1f)\n      0x1f\n      dup3\n      add\n      and\n      dup3\n      add\n      dup1\n      0x40\n      mstore\n      pop\n      dup2\n      add\n      swap1\n      tag_194\n      swap2\n      swap1\n      tag_186\n      jump\t// in\n    tag_194:\n        /* \"contracts/ammv2.sol\":7110:7194  require(IERC20(tokenBAddress).transfer(msg.sender, amountBOut), \"Transfer B failed\") */\n      tag_195\n      jumpi\n      mload(0x40)\n      0x08c379a000000000000000000000000000000000000000000000000000000000\n      dup2\n      mstore\n      0x04\n      add\n      tag_196\n      swap1\n      tag_197\n      jump\t// in\n    tag_196:\n      mload(0x40)\n      dup1\n      swap2\n      sub\n      swap1\n      revert\n    tag_195:\n        /* \"contracts/ammv2.sol\":7207:7220  updatePrice() */\n      tag_198\n        /* \"contracts/ammv2.sol\":7207:7218  updatePrice */\n      tag_199\n        /* \"contracts/ammv2.sol\":7207:7220  updatePrice() */\n      jump\t// in\n    tag_198:\n        /* \"contracts/ammv2.sol\":7251:7261  msg.sender */\n      caller\n        /* \"contracts/ammv2.sol\":7246:7315  Swap(msg.sender, tokenAAddress, amountAIn, tokenBAddress, amountBOut) */\n      0xffffffffffffffffffffffffffffffffffffffff\n      and\n      0x5380cf97d8f645d3c4896da60c053458dca03a3a31cec642ac80e1ddf0d8d02a\n        /* \"contracts/ammv2.sol\":7263:7276  tokenAAddress */\n      0x05\n      0x00\n      swap1\n      sload\n      swap1\n      0x0100\n      exp\n      swap1\n      div\n      0xffffffffffffffffffffffffffffffffffffffff\n      and\n        /* \"contracts/ammv2.sol\":7278:7287  amountAIn */\n      dup8\n        /* \"contracts/ammv2.sol\":7289:7302  tokenBAddress */\n      0x06\n      0x00\n      swap1\n      sload\n      swap1\n      0x0100\n      exp\n      swap1\n      div\n      0xffffffffffffffffffffffffffffffffffffffff\n      and\n        /* \"contracts/ammv2.sol\":7304:7314  amountBOut */\n      dup9\n        /* \"contracts/ammv2.sol\":7246:7315  Swap(msg.sender, tokenAAddress, amountAIn, tokenBAddress, amountBOut) */\n      mload(0x40)\n      tag_200\n      swap5\n      swap4\n      swap3\n      swap2\n      swap1\n      tag_201\n      jump\t// in\n    tag_200:\n      mload(0x40)\n      dup1\n      swap2\n      sub\n      swap1\n      log2\n        /* \"contracts/ammv2.sol\":6164:7323  {... */\n      pop\n      pop\n      pop\n        /* \"contracts/ammv2.sol\":6088:7323  function swapAForB(uint256 amountAIn) external returns (uint256 amountBOut) {... */\n      swap2\n      swap1\n      pop\n      jump\t// out\n        /* \"contracts/ammv2.sol\":1602:1626  uint256 public lastPrice */\n    tag_47:\n      sload(0x08)\n      dup2\n      jump\t// out\n        /* \"contracts/ammv2.sol\":10506:10621  function getUserLPBalance(address user) external view returns (uint256) {... */\n    tag_52:\n        /* \"contracts/ammv2.sol\":10569:10576  uint256 */\n      0x00\n        /* \"contracts/ammv2.sol\":10596:10607  userLpToken */\n      0x02\n        /* \"contracts/ammv2.sol\":10596:10613  userLpToken[user] */\n      0x00\n        /* \"contracts/ammv2.sol\":10608:10612  user */\n      dup4\n        /* \"contracts/ammv2.sol\":10596:10613  userLpToken[user] */\n      0xffffffffffffffffffffffffffffffffffffffff\n      and\n      0xffffffffffffffffffffffffffffffffffffffff\n      and\n      dup2\n      mstore\n      0x20\n      add\n      swap1\n      dup2\n      mstore\n      0x20\n      add\n      0x00\n      keccak256\n      sload\n        /* \"contracts/ammv2.sol\":10589:10613  return userLpToken[user] */\n      swap1\n      pop\n        /* \"contracts/ammv2.sol\":10506:10621  function getUserLPBalance(address user) external view returns (uint256) {... */\n      swap2\n      swap1\n      pop\n      jump\t// out\n        /* \"contracts/ammv2.sol\":1204:1228  uint256 public POOL_NAME */\n    tag_55:\n      sload(0x07)\n      dup2\n      jump\t// out\n        /* \"contracts/ammv2.sol\":1633:1661  uint256 public lastTimestamp */\n    tag_58:\n      sload(0x09)\n      dup2\n      jump\t// out\n        /* \"contracts/ammv2.sol\":11814:12492  function flashSwapTokenA(uint256 amount, uint256 data, address caller) external returns (bool) {... */\n    tag_63:\n        /* \"contracts/ammv2.sol\":11903:11907  bool */\n      0x00\n        /* \"contracts/ammv2.sol\":11922:11940  uint256 usedAmount */\n      dup1\n        /* \"contracts/ammv2.sol\":11950:11963  tokenAAddress */\n      0x05\n      0x00\n      swap1\n      sload\n      swap1\n      0x0100\n      exp\n      swap1\n      div\n      0xffffffffffffffffffffffffffffffffffffffff\n      and\n        /* \"contracts/ammv2.sol\":11943:11974  IERC20(tokenAAddress).balanceOf */\n      0xffffffffffffffffffffffffffffffffffffffff\n      and\n      0x70a08231\n        /* \"contracts/ammv2.sol\":11983:11987  this */\n      address\n        /* \"contracts/ammv2.sol\":11943:11989  IERC20(tokenAAddress).balanceOf(address(this)) */\n      mload(0x40)\n      dup3\n      0xffffffff\n      and\n      0xe0\n      shl\n      dup2\n      mstore\n      0x04\n      add\n      tag_204\n      swap2\n      swap1\n      tag_89\n      jump\t// in\n    tag_204:\n      0x20\n      mload(0x40)\n      dup1\n      dup4\n      sub\n      dup2\n      dup7\n      gas\n      staticcall\n      iszero\n      dup1\n      iszero\n      tag_206\n      jumpi\n      returndatasize\n      0x00\n      dup1\n      returndatacopy\n      revert(0x00, returndatasize)\n    tag_206:\n      pop\n      pop\n      pop\n      pop\n      mload(0x40)\n      returndatasize\n      not(0x1f)\n      0x1f\n      dup3\n      add\n      and\n      dup3\n      add\n      dup1\n      0x40\n      mstore\n      pop\n      dup2\n      add\n      swap1\n      tag_207\n      swap2\n      swap1\n      tag_153\n      jump\t// in\n    tag_207:\n        /* \"contracts/ammv2.sol\":11922:11989  uint256 usedAmount = IERC20(tokenAAddress).balanceOf(address(this)) */\n      swap1\n      pop\n        /* \"contracts/ammv2.sol\":12022:12028  amount */\n      dup5\n        /* \"contracts/ammv2.sol\":12008:12018  usedAmount */\n      dup2\n        /* \"contracts/ammv2.sol\":12008:12028  usedAmount >= amount */\n      lt\n      iszero\n        /* \"contracts/ammv2.sol\":12000:12049  require(usedAmount >= amount, \"Not enough money\") */\n      tag_208\n      jumpi\n      mload(0x40)\n      0x08c379a000000000000000000000000000000000000000000000000000000000\n      dup2\n      mstore\n      0x04\n      add\n      tag_209\n      swap1\n      tag_210\n      jump\t// in\n    tag_209:\n      mload(0x40)\n      dup1\n      swap2\n      sub\n      swap1\n      revert\n    tag_208:\n        /* \"contracts/ammv2.sol\":12075:12088  tokenAAddress */\n      0x05\n      0x00\n      swap1\n      sload\n      swap1\n      0x0100\n      exp\n      swap1\n      div\n      0xffffffffffffffffffffffffffffffffffffffff\n      and\n        /* \"contracts/ammv2.sol\":12068:12098  IERC20(tokenAAddress).transfer */\n      0xffffffffffffffffffffffffffffffffffffffff\n      and\n      0xa9059cbb\n        /* \"contracts/ammv2.sol\":12099:12105  caller */\n      dup5\n        /* \"contracts/ammv2.sol\":12107:12113  amount */\n      dup8\n        /* \"contracts/ammv2.sol\":12068:12114  IERC20(tokenAAddress).transfer(caller, amount) */\n      mload(0x40)\n      dup4\n      0xffffffff\n      and\n      0xe0\n      shl\n      dup2\n      mstore\n      0x04\n      add\n      tag_211\n      swap3\n      swap2\n      swap1\n      tag_191\n      jump\t// in\n    tag_211:\n      0x20\n      mload(0x40)\n      dup1\n      dup4\n      sub\n      dup2\n      0x00\n      dup8\n      gas\n      call\n      iszero\n      dup1\n      iszero\n      tag_213\n      jumpi\n      returndatasize\n      0x00\n      dup1\n      returndatacopy\n      revert(0x00, returndatasize)\n    tag_213:\n      pop\n      pop\n      pop\n      pop\n      mload(0x40)\n      returndatasize\n      not(0x1f)\n      0x1f\n      dup3\n      add\n      and\n      dup3\n      add\n      dup1\n      0x40\n      mstore\n      pop\n      dup2\n      add\n      swap1\n      tag_214\n      swap2\n      swap1\n      tag_186\n      jump\t// in\n    tag_214:\n        /* \"contracts/ammv2.sol\":12060:12133  require(IERC20(tokenAAddress).transfer(caller, amount), \"Transfer error\") */\n      tag_215\n      jumpi\n      mload(0x40)\n      0x08c379a000000000000000000000000000000000000000000000000000000000\n      dup2\n      mstore\n      0x04\n      add\n      tag_216\n      swap1\n      tag_217\n      jump\t// in\n    tag_216:\n      mload(0x40)\n      dup1\n      swap2\n      sub\n      swap1\n      revert\n    tag_215:\n        /* \"contracts/ammv2.sol\":12144:12155  uint256 Fee */\n      0x00\n        /* \"contracts/ammv2.sol\":12197:12201  1000 */\n      0x03e8\n        /* \"contracts/ammv2.sol\":1085:1086  3 */\n      0x03\n        /* \"contracts/ammv2.sol\":12158:12164  amount */\n      dup8\n        /* \"contracts/ammv2.sol\":12158:12194  amount * FLASH_SWAP_FEE_PER_THOUSAND */\n      tag_218\n      swap2\n      swap1\n      tag_168\n      jump\t// in\n    tag_218:\n        /* \"contracts/ammv2.sol\":12158:12201  amount * FLASH_SWAP_FEE_PER_THOUSAND / 1000 */\n      tag_219\n      swap2\n      swap1\n      tag_170\n      jump\t// in\n    tag_219:\n        /* \"contracts/ammv2.sol\":12144:12201  uint256 Fee = amount * FLASH_SWAP_FEE_PER_THOUSAND / 1000 */\n      swap1\n      pop\n        /* \"contracts/ammv2.sol\":12232:12238  caller */\n      dup4\n        /* \"contracts/ammv2.sol\":12214:12248  FLASH_SWAP_CALLER(caller).callBack */\n      0xffffffffffffffffffffffffffffffffffffffff\n      and\n      0x1671b85e\n        /* \"contracts/ammv2.sol\":12249:12255  amount */\n      dup8\n        /* \"contracts/ammv2.sol\":12257:12260  Fee */\n      dup4\n        /* \"contracts/ammv2.sol\":12262:12266  data */\n      dup9\n        /* \"contracts/ammv2.sol\":12214:12267  FLASH_SWAP_CALLER(caller).callBack(amount, Fee, data) */\n      mload(0x40)\n      dup5\n      0xffffffff\n      and\n      0xe0\n      shl\n      dup2\n      mstore\n      0x04\n      add\n      tag_220\n      swap4\n      swap3\n      swap2\n      swap1\n      tag_221\n      jump\t// in\n    tag_220:\n      0x20\n      mload(0x40)\n      dup1\n      dup4\n      sub\n      dup2\n      0x00\n      dup8\n      gas\n      call\n      iszero\n      dup1\n      iszero\n      tag_223\n      jumpi\n      returndatasize\n      0x00\n      dup1\n      returndatacopy\n      revert(0x00, returndatasize)\n    tag_223:\n      pop\n      pop\n      pop\n      pop\n      mload(0x40)\n      returndatasize\n      not(0x1f)\n      0x1f\n      dup3\n      add\n      and\n      dup3\n      add\n      dup1\n      0x40\n      mstore\n      pop\n      dup2\n      add\n      swap1\n      tag_224\n      swap2\n      swap1\n      tag_186\n      jump\t// in\n    tag_224:\n      pop\n        /* \"contracts/ammv2.sol\":12288:12305  uint256 curAmount */\n      0x00\n        /* \"contracts/ammv2.sol\":12315:12328  tokenAAddress */\n      0x05\n      0x00\n      swap1\n      sload\n      swap1\n      0x0100\n      exp\n      swap1\n      div\n      0xffffffffffffffffffffffffffffffffffffffff\n      and\n        /* \"contracts/ammv2.sol\":12308:12339  IERC20(tokenAAddress).balanceOf */\n      0xffffffffffffffffffffffffffffffffffffffff\n      and\n      0x70a08231\n        /* \"contracts/ammv2.sol\":12348:12352  this */\n      address\n        /* \"contracts/ammv2.sol\":12308:12354  IERC20(tokenAAddress).balanceOf(address(this)) */\n      mload(0x40)\n      dup3\n      0xffffffff\n      and\n      0xe0\n      shl\n      dup2\n      mstore\n      0x04\n      add\n      tag_225\n      swap2\n      swap1\n      tag_89\n      jump\t// in\n    tag_225:\n      0x20\n      mload(0x40)\n      dup1\n      dup4\n      sub\n      dup2\n      dup7\n      gas\n      staticcall\n      iszero\n      dup1\n      iszero\n      tag_227\n      jumpi\n      returndatasize\n      0x00\n      dup1\n      returndatacopy\n      revert(0x00, returndatasize)\n    tag_227:\n      pop\n      pop\n      pop\n      pop\n      mload(0x40)\n      returndatasize\n      not(0x1f)\n      0x1f\n      dup3\n      add\n      and\n      dup3\n      add\n      dup1\n      0x40\n      mstore\n      pop\n      dup2\n      add\n      swap1\n      tag_228\n      swap2\n      swap1\n      tag_153\n      jump\t// in\n    tag_228:\n        /* \"contracts/ammv2.sol\":12288:12354  uint256 curAmount = IERC20(tokenAAddress).balanceOf(address(this)) */\n      swap1\n      pop\n        /* \"contracts/ammv2.sol\":12399:12402  Fee */\n      dup2\n        /* \"contracts/ammv2.sol\":12386:12396  usedAmount */\n      dup4\n        /* \"contracts/ammv2.sol\":12386:12402  usedAmount + Fee */\n      tag_229\n      swap2\n      swap1\n      tag_172\n      jump\t// in\n    tag_229:\n        /* \"contracts/ammv2.sol\":12373:12382  curAmount */\n      dup2\n        /* \"contracts/ammv2.sol\":12373:12402  curAmount >= usedAmount + Fee */\n      lt\n      iszero\n        /* \"contracts/ammv2.sol\":12365:12436  require(curAmount >= usedAmount + Fee, \"Do not give back enough money\") */\n      tag_230\n      jumpi\n      mload(0x40)\n      0x08c379a000000000000000000000000000000000000000000000000000000000\n      dup2\n      mstore\n      0x04\n      add\n      tag_231\n      swap1\n      tag_232\n      jump\t// in\n    tag_231:\n      mload(0x40)\n      dup1\n      swap2\n      sub\n      swap1\n      revert\n    tag_230:\n        /* \"contracts/ammv2.sol\":12449:12462  updatePrice() */\n      tag_233\n        /* \"contracts/ammv2.sol\":12449:12460  updatePrice */\n      tag_199\n        /* \"contracts/ammv2.sol\":12449:12462  updatePrice() */\n      jump\t// in\n    tag_233:\n        /* \"contracts/ammv2.sol\":12480:12484  true */\n      0x01\n        /* \"contracts/ammv2.sol\":12473:12484  return true */\n      swap4\n      pop\n      pop\n      pop\n      pop\n        /* \"contracts/ammv2.sol\":11814:12492  function flashSwapTokenA(uint256 amount, uint256 data, address caller) external returns (bool) {... */\n      swap4\n      swap3\n      pop\n      pop\n      pop\n      jump\t// out\n        /* \"contracts/ammv2.sol\":3050:3237  function GetTwapPrice() external view returns (uint256) {... */\n    tag_67:\n        /* \"contracts/ammv2.sol\":3097:3104  uint256 */\n      0x00\n        /* \"contracts/ammv2.sol\":3139:3140  0 */\n      dup1\n        /* \"contracts/ammv2.sol\":3121:3135  cumulativeTime */\n      sload(0x0b)\n        /* \"contracts/ammv2.sol\":3121:3140  cumulativeTime == 0 */\n      sub\n        /* \"contracts/ammv2.sol\":3117:3178  if (cumulativeTime == 0) {... */\n      tag_235\n      jumpi\n        /* \"contracts/ammv2.sol\":3164:3165  0 */\n      0x00\n        /* \"contracts/ammv2.sol\":3157:3165  return 0 */\n      swap1\n      pop\n      jump(tag_234)\n        /* \"contracts/ammv2.sol\":3117:3178  if (cumulativeTime == 0) {... */\n    tag_235:\n        /* \"contracts/ammv2.sol\":3215:3229  cumulativeTime */\n      sload(0x0b)\n        /* \"contracts/ammv2.sol\":3197:3212  cumulativePrice */\n      sload(0x0a)\n        /* \"contracts/ammv2.sol\":3197:3229  cumulativePrice / cumulativeTime */\n      tag_236\n      swap2\n      swap1\n      tag_170\n      jump\t// in\n    tag_236:\n        /* \"contracts/ammv2.sol\":3190:3229  return cumulativePrice / cumulativeTime */\n      swap1\n      pop\n        /* \"contracts/ammv2.sol\":3050:3237  function GetTwapPrice() external view returns (uint256) {... */\n    tag_234:\n      swap1\n      jump\t// out\n        /* \"contracts/ammv2.sol\":901:937  uint256 public constant FEE_RATE = 3 */\n    tag_70:\n        /* \"contracts/ammv2.sol\":936:937  3 */\n      0x03\n        /* \"contracts/ammv2.sol\":901:937  uint256 public constant FEE_RATE = 3 */\n      dup2\n      jump\t// out\n        /* \"contracts/ammv2.sol\":1668:1698  uint256 public cumulativePrice */\n    tag_73:\n      sload(0x0a)\n      dup2\n      jump\t// out\n        /* \"contracts/ammv2.sol\":9284:9875  function getAmountAOut(uint256 amountBIn) external view returns (uint256 amountAOut) {... */\n    tag_77:\n        /* \"contracts/ammv2.sol\":9349:9367  uint256 amountAOut */\n      0x00\n        /* \"contracts/ammv2.sol\":9380:9401  uint256 poolTokenANum */\n      dup1\n        /* \"contracts/ammv2.sol\":9411:9424  tokenAAddress */\n      0x05\n      0x00\n      swap1\n      sload\n      swap1\n      0x0100\n      exp\n      swap1\n      div\n      0xffffffffffffffffffffffffffffffffffffffff\n      and\n        /* \"contracts/ammv2.sol\":9404:9435  IERC20(tokenAAddress).balanceOf */\n      0xffffffffffffffffffffffffffffffffffffffff\n      and\n      0x70a08231\n        /* \"contracts/ammv2.sol\":9444:9448  this */\n      address\n        /* \"contracts/ammv2.sol\":9404:9450  IERC20(tokenAAddress).balanceOf(address(this)) */\n      mload(0x40)\n      dup3\n      0xffffffff\n      and\n      0xe0\n      shl\n      dup2\n      mstore\n      0x04\n      add\n      tag_238\n      swap2\n      swap1\n      tag_89\n      jump\t// in\n    tag_238:\n      0x20\n      mload(0x40)\n      dup1\n      dup4\n      sub\n      dup2\n      dup7\n      gas\n      staticcall\n      iszero\n      dup1\n      iszero\n      tag_240\n      jumpi\n      returndatasize\n      0x00\n      dup1\n      returndatacopy\n      revert(0x00, returndatasize)\n    tag_240:\n      pop\n      pop\n      pop\n      pop\n      mload(0x40)\n      returndatasize\n      not(0x1f)\n      0x1f\n      dup3\n      add\n      and\n      dup3\n      add\n      dup1\n      0x40\n      mstore\n      pop\n      dup2\n      add\n      swap1\n      tag_241\n      swap2\n      swap1\n      tag_153\n      jump\t// in\n    tag_241:\n        /* \"contracts/ammv2.sol\":9380:9450  uint256 poolTokenANum = IERC20(tokenAAddress).balanceOf(address(this)) */\n      swap1\n      pop\n        /* \"contracts/ammv2.sol\":9461:9482  uint256 poolTokenBNum */\n      0x00\n        /* \"contracts/ammv2.sol\":9492:9505  tokenBAddress */\n      0x06\n      0x00\n      swap1\n      sload\n      swap1\n      0x0100\n      exp\n      swap1\n      div\n      0xffffffffffffffffffffffffffffffffffffffff\n      and\n        /* \"contracts/ammv2.sol\":9485:9516  IERC20(tokenBAddress).balanceOf */\n      0xffffffffffffffffffffffffffffffffffffffff\n      and\n      0x70a08231\n        /* \"contracts/ammv2.sol\":9525:9529  this */\n      address\n        /* \"contracts/ammv2.sol\":9485:9531  IERC20(tokenBAddress).balanceOf(address(this)) */\n      mload(0x40)\n      dup3\n      0xffffffff\n      and\n      0xe0\n      shl\n      dup2\n      mstore\n      0x04\n      add\n      tag_242\n      swap2\n      swap1\n      tag_89\n      jump\t// in\n    tag_242:\n      0x20\n      mload(0x40)\n      dup1\n      dup4\n      sub\n      dup2\n      dup7\n      gas\n      staticcall\n      iszero\n      dup1\n      iszero\n      tag_244\n      jumpi\n      returndatasize\n      0x00\n      dup1\n      returndatacopy\n      revert(0x00, returndatasize)\n    tag_244:\n      pop\n      pop\n      pop\n      pop\n      mload(0x40)\n      returndatasize\n      not(0x1f)\n      0x1f\n      dup3\n      add\n      and\n      dup3\n      add\n      dup1\n      0x40\n      mstore\n      pop\n      dup2\n      add\n      swap1\n      tag_245\n      swap2\n      swap1\n      tag_153\n      jump\t// in\n    tag_245:\n        /* \"contracts/ammv2.sol\":9461:9531  uint256 poolTokenBNum = IERC20(tokenBAddress).balanceOf(address(this)) */\n      swap1\n      pop\n        /* \"contracts/ammv2.sol\":9564:9565  0 */\n      0x00\n        /* \"contracts/ammv2.sol\":9552:9561  amountBIn */\n      dup5\n        /* \"contracts/ammv2.sol\":9552:9565  amountBIn > 0 */\n      gt\n        /* \"contracts/ammv2.sol\":9544:9584  require(amountBIn > 0, \"Invalid amount\") */\n      tag_246\n      jumpi\n      mload(0x40)\n      0x08c379a000000000000000000000000000000000000000000000000000000000\n      dup2\n      mstore\n      0x04\n      add\n      tag_247\n      swap1\n      tag_160\n      jump\t// in\n    tag_247:\n      mload(0x40)\n      dup1\n      swap2\n      sub\n      swap1\n      revert\n    tag_246:\n        /* \"contracts/ammv2.sol\":9619:9620  0 */\n      0x00\n        /* \"contracts/ammv2.sol\":9603:9616  poolTokenANum */\n      dup3\n        /* \"contracts/ammv2.sol\":9603:9620  poolTokenANum > 0 */\n      gt\n        /* \"contracts/ammv2.sol\":9603:9641  poolTokenANum > 0 && poolTokenBNum > 0 */\n      dup1\n      iszero\n      tag_248\n      jumpi\n      pop\n        /* \"contracts/ammv2.sol\":9640:9641  0 */\n      0x00\n        /* \"contracts/ammv2.sol\":9624:9637  poolTokenBNum */\n      dup2\n        /* \"contracts/ammv2.sol\":9624:9641  poolTokenBNum > 0 */\n      gt\n        /* \"contracts/ammv2.sol\":9603:9641  poolTokenANum > 0 && poolTokenBNum > 0 */\n    tag_248:\n        /* \"contracts/ammv2.sol\":9595:9666  require(poolTokenANum > 0 && poolTokenBNum > 0, \"Pool not initialized\") */\n      tag_249\n      jumpi\n      mload(0x40)\n      0x08c379a000000000000000000000000000000000000000000000000000000000\n      dup2\n      mstore\n      0x04\n      add\n      tag_250\n      swap1\n      tag_164\n      jump\t// in\n    tag_250:\n      mload(0x40)\n      dup1\n      swap2\n      sub\n      swap1\n      revert\n    tag_249:\n        /* \"contracts/ammv2.sol\":9687:9711  uint256 amountBInWithFee */\n      0x00\n        /* \"contracts/ammv2.sol\":986:990  1000 */\n      0x03e8\n        /* \"contracts/ammv2.sol\":936:937  3 */\n      0x03\n        /* \"contracts/ammv2.sol\":986:990  1000 */\n      0x03e8\n        /* \"contracts/ammv2.sol\":9727:9753  FEE_DENOMINATOR - FEE_RATE */\n      tag_251\n      swap2\n      swap1\n      tag_166\n      jump\t// in\n    tag_251:\n        /* \"contracts/ammv2.sol\":9714:9723  amountBIn */\n      dup7\n        /* \"contracts/ammv2.sol\":9714:9754  amountBIn * (FEE_DENOMINATOR - FEE_RATE) */\n      tag_252\n      swap2\n      swap1\n      tag_168\n      jump\t// in\n    tag_252:\n        /* \"contracts/ammv2.sol\":9714:9772  amountBIn * (FEE_DENOMINATOR - FEE_RATE) / FEE_DENOMINATOR */\n      tag_253\n      swap2\n      swap1\n      tag_170\n      jump\t// in\n    tag_253:\n        /* \"contracts/ammv2.sol\":9687:9772  uint256 amountBInWithFee = amountBIn * (FEE_DENOMINATOR - FEE_RATE) / FEE_DENOMINATOR */\n      swap1\n      pop\n        /* \"contracts/ammv2.sol\":9850:9866  amountBInWithFee */\n      dup1\n        /* \"contracts/ammv2.sol\":9834:9847  poolTokenBNum */\n      dup3\n        /* \"contracts/ammv2.sol\":9834:9866  poolTokenBNum + amountBInWithFee */\n      tag_254\n      swap2\n      swap1\n      tag_172\n      jump\t// in\n    tag_254:\n        /* \"contracts/ammv2.sol\":9813:9829  amountBInWithFee */\n      dup2\n        /* \"contracts/ammv2.sol\":9797:9810  poolTokenANum */\n      dup5\n        /* \"contracts/ammv2.sol\":9797:9829  poolTokenANum * amountBInWithFee */\n      tag_255\n      swap2\n      swap1\n      tag_168\n      jump\t// in\n    tag_255:\n        /* \"contracts/ammv2.sol\":9796:9867  (poolTokenANum * amountBInWithFee) / (poolTokenBNum + amountBInWithFee) */\n      tag_256\n      swap2\n      swap1\n      tag_170\n      jump\t// in\n    tag_256:\n        /* \"contracts/ammv2.sol\":9783:9867  amountAOut = (poolTokenANum * amountBInWithFee) / (poolTokenBNum + amountBInWithFee) */\n      swap4\n      pop\n        /* \"contracts/ammv2.sol\":9369:9875  {... */\n      pop\n      pop\n      pop\n        /* \"contracts/ammv2.sol\":9284:9875  function getAmountAOut(uint256 amountBIn) external view returns (uint256 amountAOut) {... */\n      swap2\n      swap1\n      pop\n      jump\t// out\n        /* \"contracts/ammv2.sol\":10660:11074  function getPoolInfo() external view returns (... */\n    tag_80:\n        /* \"contracts/ammv2.sol\":10716:10737  uint256 tokenABalance */\n      0x00\n        /* \"contracts/ammv2.sol\":10748:10769  uint256 tokenBBalance */\n      dup1\n        /* \"contracts/ammv2.sol\":10780:10801  uint256 totalLPSupply */\n      0x00\n        /* \"contracts/ammv2.sol\":10812:10821  uint256 k */\n      dup1\n        /* \"contracts/ammv2.sol\":10865:10878  tokenAAddress */\n      0x05\n      0x00\n      swap1\n      sload\n      swap1\n      0x0100\n      exp\n      swap1\n      div\n      0xffffffffffffffffffffffffffffffffffffffff\n      and\n        /* \"contracts/ammv2.sol\":10858:10889  IERC20(tokenAAddress).balanceOf */\n      0xffffffffffffffffffffffffffffffffffffffff\n      and\n      0x70a08231\n        /* \"contracts/ammv2.sol\":10898:10902  this */\n      address\n        /* \"contracts/ammv2.sol\":10858:10904  IERC20(tokenAAddress).balanceOf(address(this)) */\n      mload(0x40)\n      dup3\n      0xffffffff\n      and\n      0xe0\n      shl\n      dup2\n      mstore\n      0x04\n      add\n      tag_258\n      swap2\n      swap1\n      tag_89\n      jump\t// in\n    tag_258:\n      0x20\n      mload(0x40)\n      dup1\n      dup4\n      sub\n      dup2\n      dup7\n      gas\n      staticcall\n      iszero\n      dup1\n      iszero\n      tag_260\n      jumpi\n      returndatasize\n      0x00\n      dup1\n      returndatacopy\n      revert(0x00, returndatasize)\n    tag_260:\n      pop\n      pop\n      pop\n      pop\n      mload(0x40)\n      returndatasize\n      not(0x1f)\n      0x1f\n      dup3\n      add\n      and\n      dup3\n      add\n      dup1\n      0x40\n      mstore\n      pop\n      dup2\n      add\n      swap1\n      tag_261\n      swap2\n      swap1\n      tag_153\n      jump\t// in\n    tag_261:\n        /* \"contracts/ammv2.sol\":10842:10904  tokenABalance = IERC20(tokenAAddress).balanceOf(address(this)) */\n      swap4\n      pop\n        /* \"contracts/ammv2.sol\":10938:10951  tokenBAddress */\n      0x06\n      0x00\n      swap1\n      sload\n      swap1\n      0x0100\n      exp\n      swap1\n      div\n      0xffffffffffffffffffffffffffffffffffffffff\n      and\n        /* \"contracts/ammv2.sol\":10931:10962  IERC20(tokenBAddress).balanceOf */\n      0xffffffffffffffffffffffffffffffffffffffff\n      and\n      0x70a08231\n        /* \"contracts/ammv2.sol\":10971:10975  this */\n      address\n        /* \"contracts/ammv2.sol\":10931:10977  IERC20(tokenBAddress).balanceOf(address(this)) */\n      mload(0x40)\n      dup3\n      0xffffffff\n      and\n      0xe0\n      shl\n      dup2\n      mstore\n      0x04\n      add\n      tag_262\n      swap2\n      swap1\n      tag_89\n      jump\t// in\n    tag_262:\n      0x20\n      mload(0x40)\n      dup1\n      dup4\n      sub\n      dup2\n      dup7\n      gas\n      staticcall\n      iszero\n      dup1\n      iszero\n      tag_264\n      jumpi\n      returndatasize\n      0x00\n      dup1\n      returndatacopy\n      revert(0x00, returndatasize)\n    tag_264:\n      pop\n      pop\n      pop\n      pop\n      mload(0x40)\n      returndatasize\n      not(0x1f)\n      0x1f\n      dup3\n      add\n      and\n      dup3\n      add\n      dup1\n      0x40\n      mstore\n      pop\n      dup2\n      add\n      swap1\n      tag_265\n      swap2\n      swap1\n      tag_153\n      jump\t// in\n    tag_265:\n        /* \"contracts/ammv2.sol\":10915:10977  tokenBBalance = IERC20(tokenBAddress).balanceOf(address(this)) */\n      swap3\n      pop\n        /* \"contracts/ammv2.sol\":11004:11022  lpTokenTotalSupply */\n      sload(0x03)\n        /* \"contracts/ammv2.sol\":10988:11022  totalLPSupply = lpTokenTotalSupply */\n      swap2\n      pop\n        /* \"contracts/ammv2.sol\":11053:11066  tokenBBalance */\n      dup3\n        /* \"contracts/ammv2.sol\":11037:11050  tokenABalance */\n      dup5\n        /* \"contracts/ammv2.sol\":11037:11066  tokenABalance * tokenBBalance */\n      tag_266\n      swap2\n      swap1\n      tag_168\n      jump\t// in\n    tag_266:\n        /* \"contracts/ammv2.sol\":11033:11066  k = tokenABalance * tokenBBalance */\n      swap1\n      pop\n        /* \"contracts/ammv2.sol\":10660:11074  function getPoolInfo() external view returns (... */\n      swap1\n      swap2\n      swap3\n      swap4\n      jump\t// out\n        /* \"contracts/ammv2.sol\":1705:1734  uint256 public cumulativeTime */\n    tag_84:\n      sload(0x0b)\n      dup2\n      jump\t// out\n        /* \"contracts/ammv2.sol\":789:817  address public tokenAAddress */\n    tag_87:\n      0x05\n      0x00\n      swap1\n      sload\n      swap1\n      0x0100\n      exp\n      swap1\n      div\n      0xffffffffffffffffffffffffffffffffffffffff\n      and\n      dup2\n      jump\t// out\n        /* \"contracts/ammv2.sol\":625:671  mapping(address => uint256) public userLpToken */\n    tag_92:\n      mstore(0x20, 0x02)\n      dup1\n      0x00\n      mstore\n      keccak256(0x00, 0x40)\n      0x00\n      swap2\n      pop\n      swap1\n      pop\n      sload\n      dup2\n      jump\t// out\n        /* \"contracts/ammv2.sol\":4929:6047  function removeLiquidity(uint256 lpTokens) external returns (uint256 amountA, uint256 amountB) {... */\n    tag_96:\n        /* \"contracts/ammv2.sol\":4990:5005  uint256 amountA */\n      0x00\n        /* \"contracts/ammv2.sol\":5007:5022  uint256 amountB */\n      dup1\n        /* \"contracts/ammv2.sol\":5035:5056  uint256 poolTokenANum */\n      0x00\n        /* \"contracts/ammv2.sol\":5066:5079  tokenAAddress */\n      0x05\n      0x00\n      swap1\n      sload\n      swap1\n      0x0100\n      exp\n      swap1\n      div\n      0xffffffffffffffffffffffffffffffffffffffff\n      and\n        /* \"contracts/ammv2.sol\":5059:5090  IERC20(tokenAAddress).balanceOf */\n      0xffffffffffffffffffffffffffffffffffffffff\n      and\n      0x70a08231\n        /* \"contracts/ammv2.sol\":5099:5103  this */\n      address\n        /* \"contracts/ammv2.sol\":5059:5105  IERC20(tokenAAddress).balanceOf(address(this)) */\n      mload(0x40)\n      dup3\n      0xffffffff\n      and\n      0xe0\n      shl\n      dup2\n      mstore\n      0x04\n      add\n      tag_268\n      swap2\n      swap1\n      tag_89\n      jump\t// in\n    tag_268:\n      0x20\n      mload(0x40)\n      dup1\n      dup4\n      sub\n      dup2\n      dup7\n      gas\n      staticcall\n      iszero\n      dup1\n      iszero\n      tag_270\n      jumpi\n      returndatasize\n      0x00\n      dup1\n      returndatacopy\n      revert(0x00, returndatasize)\n    tag_270:\n      pop\n      pop\n      pop\n      pop\n      mload(0x40)\n      returndatasize\n      not(0x1f)\n      0x1f\n      dup3\n      add\n      and\n      dup3\n      add\n      dup1\n      0x40\n      mstore\n      pop\n      dup2\n      add\n      swap1\n      tag_271\n      swap2\n      swap1\n      tag_153\n      jump\t// in\n    tag_271:\n        /* \"contracts/ammv2.sol\":5035:5105  uint256 poolTokenANum = IERC20(tokenAAddress).balanceOf(address(this)) */\n      swap1\n      pop\n        /* \"contracts/ammv2.sol\":5116:5137  uint256 poolTokenBNum */\n      0x00\n        /* \"contracts/ammv2.sol\":5147:5160  tokenBAddress */\n      0x06\n      0x00\n      swap1\n      sload\n      swap1\n      0x0100\n      exp\n      swap1\n      div\n      0xffffffffffffffffffffffffffffffffffffffff\n      and\n        /* \"contracts/ammv2.sol\":5140:5171  IERC20(tokenBAddress).balanceOf */\n      0xffffffffffffffffffffffffffffffffffffffff\n      and\n      0x70a08231\n        /* \"contracts/ammv2.sol\":5180:5184  this */\n      address\n        /* \"contracts/ammv2.sol\":5140:5186  IERC20(tokenBAddress).balanceOf(address(this)) */\n      mload(0x40)\n      dup3\n      0xffffffff\n      and\n      0xe0\n      shl\n      dup2\n      mstore\n      0x04\n      add\n      tag_272\n      swap2\n      swap1\n      tag_89\n      jump\t// in\n    tag_272:\n      0x20\n      mload(0x40)\n      dup1\n      dup4\n      sub\n      dup2\n      dup7\n      gas\n      staticcall\n      iszero\n      dup1\n      iszero\n      tag_274\n      jumpi\n      returndatasize\n      0x00\n      dup1\n      returndatacopy\n      revert(0x00, returndatasize)\n    tag_274:\n      pop\n      pop\n      pop\n      pop\n      mload(0x40)\n      returndatasize\n      not(0x1f)\n      0x1f\n      dup3\n      add\n      and\n      dup3\n      add\n      dup1\n      0x40\n      mstore\n      pop\n      dup2\n      add\n      swap1\n      tag_275\n      swap2\n      swap1\n      tag_153\n      jump\t// in\n    tag_275:\n        /* \"contracts/ammv2.sol\":5116:5186  uint256 poolTokenBNum = IERC20(tokenBAddress).balanceOf(address(this)) */\n      swap1\n      pop\n        /* \"contracts/ammv2.sol\":5218:5219  0 */\n      0x00\n        /* \"contracts/ammv2.sol\":5207:5215  lpTokens */\n      dup6\n        /* \"contracts/ammv2.sol\":5207:5219  lpTokens > 0 */\n      gt\n        /* \"contracts/ammv2.sol\":5199:5241  require(lpTokens > 0, \"Invalid LP tokens\") */\n      tag_276\n      jumpi\n      mload(0x40)\n      0x08c379a000000000000000000000000000000000000000000000000000000000\n      dup2\n      mstore\n      0x04\n      add\n      tag_277\n      swap1\n      tag_278\n      jump\t// in\n    tag_277:\n      mload(0x40)\n      dup1\n      swap2\n      sub\n      swap1\n      revert\n    tag_276:\n        /* \"contracts/ammv2.sol\":5287:5295  lpTokens */\n      dup5\n        /* \"contracts/ammv2.sol\":5260:5271  userLpToken */\n      0x02\n        /* \"contracts/ammv2.sol\":5260:5283  userLpToken[msg.sender] */\n      0x00\n        /* \"contracts/ammv2.sol\":5272:5282  msg.sender */\n      caller\n        /* \"contracts/ammv2.sol\":5260:5283  userLpToken[msg.sender] */\n      0xffffffffffffffffffffffffffffffffffffffff\n      and\n      0xffffffffffffffffffffffffffffffffffffffff\n      and\n      dup2\n      mstore\n      0x20\n      add\n      swap1\n      dup2\n      mstore\n      0x20\n      add\n      0x00\n      keccak256\n      sload\n        /* \"contracts/ammv2.sol\":5260:5295  userLpToken[msg.sender] >= lpTokens */\n      lt\n      iszero\n        /* \"contracts/ammv2.sol\":5252:5322  require(userLpToken[msg.sender] >= lpTokens, \"Insufficient LP tokens\") */\n      tag_279\n      jumpi\n      mload(0x40)\n      0x08c379a000000000000000000000000000000000000000000000000000000000\n      dup2\n      mstore\n      0x04\n      add\n      tag_280\n      swap1\n      tag_281\n      jump\t// in\n    tag_280:\n      mload(0x40)\n      dup1\n      swap2\n      sub\n      swap1\n      revert\n    tag_279:\n        /* \"contracts/ammv2.sol\":5425:5443  lpTokenTotalSupply */\n      sload(0x03)\n        /* \"contracts/ammv2.sol\":5408:5421  poolTokenANum */\n      dup3\n        /* \"contracts/ammv2.sol\":5397:5405  lpTokens */\n      dup7\n        /* \"contracts/ammv2.sol\":5397:5421  lpTokens * poolTokenANum */\n      tag_282\n      swap2\n      swap1\n      tag_168\n      jump\t// in\n    tag_282:\n        /* \"contracts/ammv2.sol\":5396:5443  (lpTokens * poolTokenANum) / lpTokenTotalSupply */\n      tag_283\n      swap2\n      swap1\n      tag_170\n      jump\t// in\n    tag_283:\n        /* \"contracts/ammv2.sol\":5386:5443  amountA = (lpTokens * poolTokenANum) / lpTokenTotalSupply */\n      swap4\n      pop\n        /* \"contracts/ammv2.sol\":5493:5511  lpTokenTotalSupply */\n      sload(0x03)\n        /* \"contracts/ammv2.sol\":5476:5489  poolTokenBNum */\n      dup2\n        /* \"contracts/ammv2.sol\":5465:5473  lpTokens */\n      dup7\n        /* \"contracts/ammv2.sol\":5465:5489  lpTokens * poolTokenBNum */\n      tag_284\n      swap2\n      swap1\n      tag_168\n      jump\t// in\n    tag_284:\n        /* \"contracts/ammv2.sol\":5464:5511  (lpTokens * poolTokenBNum) / lpTokenTotalSupply */\n      tag_285\n      swap2\n      swap1\n      tag_170\n      jump\t// in\n    tag_285:\n        /* \"contracts/ammv2.sol\":5454:5511  amountB = (lpTokens * poolTokenBNum) / lpTokenTotalSupply */\n      swap3\n      pop\n        /* \"contracts/ammv2.sol\":5550:5551  0 */\n      0x00\n        /* \"contracts/ammv2.sol\":5540:5547  amountA */\n      dup5\n        /* \"contracts/ammv2.sol\":5540:5551  amountA > 0 */\n      gt\n        /* \"contracts/ammv2.sol\":5540:5566  amountA > 0 && amountB > 0 */\n      dup1\n      iszero\n      tag_286\n      jumpi\n      pop\n        /* \"contracts/ammv2.sol\":5565:5566  0 */\n      0x00\n        /* \"contracts/ammv2.sol\":5555:5562  amountB */\n      dup4\n        /* \"contracts/ammv2.sol\":5555:5566  amountB > 0 */\n      gt\n        /* \"contracts/ammv2.sol\":5540:5566  amountA > 0 && amountB > 0 */\n    tag_286:\n        /* \"contracts/ammv2.sol\":5532:5593  require(amountA > 0 && amountB > 0, \"Insufficient liquidity\") */\n      tag_287\n      jumpi\n      mload(0x40)\n      0x08c379a000000000000000000000000000000000000000000000000000000000\n      dup2\n      mstore\n      0x04\n      add\n      tag_288\n      swap1\n      tag_180\n      jump\t// in\n    tag_288:\n      mload(0x40)\n      dup1\n      swap2\n      sub\n      swap1\n      revert\n    tag_287:\n        /* \"contracts/ammv2.sol\":5666:5674  lpTokens */\n      dup5\n        /* \"contracts/ammv2.sol\":5639:5650  userLpToken */\n      0x02\n        /* \"contracts/ammv2.sol\":5639:5662  userLpToken[msg.sender] */\n      0x00\n        /* \"contracts/ammv2.sol\":5651:5661  msg.sender */\n      caller\n        /* \"contracts/ammv2.sol\":5639:5662  userLpToken[msg.sender] */\n      0xffffffffffffffffffffffffffffffffffffffff\n      and\n      0xffffffffffffffffffffffffffffffffffffffff\n      and\n      dup2\n      mstore\n      0x20\n      add\n      swap1\n      dup2\n      mstore\n      0x20\n      add\n      0x00\n      keccak256\n      0x00\n        /* \"contracts/ammv2.sol\":5639:5674  userLpToken[msg.sender] -= lpTokens */\n      dup3\n      dup3\n      sload\n      tag_289\n      swap2\n      swap1\n      tag_166\n      jump\t// in\n    tag_289:\n      swap3\n      pop\n      pop\n      dup2\n      swap1\n      sstore\n      pop\n        /* \"contracts/ammv2.sol\":5707:5715  lpTokens */\n      dup5\n        /* \"contracts/ammv2.sol\":5685:5703  lpTokenTotalSupply */\n      0x03\n      0x00\n        /* \"contracts/ammv2.sol\":5685:5715  lpTokenTotalSupply -= lpTokens */\n      dup3\n      dup3\n      sload\n      tag_290\n      swap2\n      swap1\n      tag_166\n      jump\t// in\n    tag_290:\n      swap3\n      pop\n      pop\n      dup2\n      swap1\n      sstore\n      pop\n        /* \"contracts/ammv2.sol\":5726:5739  updatePrice() */\n      tag_291\n        /* \"contracts/ammv2.sol\":5726:5737  updatePrice */\n      tag_199\n        /* \"contracts/ammv2.sol\":5726:5739  updatePrice() */\n      jump\t// in\n    tag_291:\n        /* \"contracts/ammv2.sol\":5800:5813  tokenAAddress */\n      0x05\n      0x00\n      swap1\n      sload\n      swap1\n      0x0100\n      exp\n      swap1\n      div\n      0xffffffffffffffffffffffffffffffffffffffff\n      and\n        /* \"contracts/ammv2.sol\":5793:5823  IERC20(tokenAAddress).transfer */\n      0xffffffffffffffffffffffffffffffffffffffff\n      and\n      0xa9059cbb\n        /* \"contracts/ammv2.sol\":5824:5834  msg.sender */\n      caller\n        /* \"contracts/ammv2.sol\":5836:5843  amountA */\n      dup7\n        /* \"contracts/ammv2.sol\":5793:5844  IERC20(tokenAAddress).transfer(msg.sender, amountA) */\n      mload(0x40)\n      dup4\n      0xffffffff\n      and\n      0xe0\n      shl\n      dup2\n      mstore\n      0x04\n      add\n      tag_292\n      swap3\n      swap2\n      swap1\n      tag_191\n      jump\t// in\n    tag_292:\n      0x20\n      mload(0x40)\n      dup1\n      dup4\n      sub\n      dup2\n      0x00\n      dup8\n      gas\n      call\n      iszero\n      dup1\n      iszero\n      tag_294\n      jumpi\n      returndatasize\n      0x00\n      dup1\n      returndatacopy\n      revert(0x00, returndatasize)\n    tag_294:\n      pop\n      pop\n      pop\n      pop\n      mload(0x40)\n      returndatasize\n      not(0x1f)\n      0x1f\n      dup3\n      add\n      and\n      dup3\n      add\n      dup1\n      0x40\n      mstore\n      pop\n      dup2\n      add\n      swap1\n      tag_295\n      swap2\n      swap1\n      tag_186\n      jump\t// in\n    tag_295:\n        /* \"contracts/ammv2.sol\":5785:5866  require(IERC20(tokenAAddress).transfer(msg.sender, amountA), \"Transfer A failed\") */\n      tag_296\n      jumpi\n      mload(0x40)\n      0x08c379a000000000000000000000000000000000000000000000000000000000\n      dup2\n      mstore\n      0x04\n      add\n      tag_297\n      swap1\n      tag_189\n      jump\t// in\n    tag_297:\n      mload(0x40)\n      dup1\n      swap2\n      sub\n      swap1\n      revert\n    tag_296:\n        /* \"contracts/ammv2.sol\":5892:5905  tokenBAddress */\n      0x06\n      0x00\n      swap1\n      sload\n      swap1\n      0x0100\n      exp\n      swap1\n      div\n      0xffffffffffffffffffffffffffffffffffffffff\n      and\n        /* \"contracts/ammv2.sol\":5885:5915  IERC20(tokenBAddress).transfer */\n      0xffffffffffffffffffffffffffffffffffffffff\n      and\n      0xa9059cbb\n        /* \"contracts/ammv2.sol\":5916:5926  msg.sender */\n      caller\n        /* \"contracts/ammv2.sol\":5928:5935  amountB */\n      dup6\n        /* \"contracts/ammv2.sol\":5885:5936  IERC20(tokenBAddress).transfer(msg.sender, amountB) */\n      mload(0x40)\n      dup4\n      0xffffffff\n      and\n      0xe0\n      shl\n      dup2\n      mstore\n      0x04\n      add\n      tag_298\n      swap3\n      swap2\n      swap1\n      tag_191\n      jump\t// in\n    tag_298:\n      0x20\n      mload(0x40)\n      dup1\n      dup4\n      sub\n      dup2\n      0x00\n      dup8\n      gas\n      call\n      iszero\n      dup1\n      iszero\n      tag_300\n      jumpi\n      returndatasize\n      0x00\n      dup1\n      returndatacopy\n      revert(0x00, returndatasize)\n    tag_300:\n      pop\n      pop\n      pop\n      pop\n      mload(0x40)\n      returndatasize\n      not(0x1f)\n      0x1f\n      dup3\n      add\n      and\n      dup3\n      add\n      dup1\n      0x40\n      mstore\n      pop\n      dup2\n      add\n      swap1\n      tag_301\n      swap2\n      swap1\n      tag_186\n      jump\t// in\n    tag_301:\n        /* \"contracts/ammv2.sol\":5877:5958  require(IERC20(tokenBAddress).transfer(msg.sender, amountB), \"Transfer B failed\") */\n      tag_302\n      jumpi\n      mload(0x40)\n      0x08c379a000000000000000000000000000000000000000000000000000000000\n      dup2\n      mstore\n      0x04\n      add\n      tag_303\n      swap1\n      tag_197\n      jump\t// in\n    tag_303:\n      mload(0x40)\n      dup1\n      swap2\n      sub\n      swap1\n      revert\n    tag_302:\n        /* \"contracts/ammv2.sol\":6000:6010  msg.sender */\n      caller\n        /* \"contracts/ammv2.sol\":5984:6039  RemoveLiquidity(msg.sender, amountA, amountB, lpTokens) */\n      0xffffffffffffffffffffffffffffffffffffffff\n      and\n      0x59c3a0b60c6ab7deb62e1440c9e72441db6db7dfe514dba8cb18e60c0d896efa\n        /* \"contracts/ammv2.sol\":6012:6019  amountA */\n      dup6\n        /* \"contracts/ammv2.sol\":6021:6028  amountB */\n      dup6\n        /* \"contracts/ammv2.sol\":6030:6038  lpTokens */\n      dup9\n        /* \"contracts/ammv2.sol\":5984:6039  RemoveLiquidity(msg.sender, amountA, amountB, lpTokens) */\n      mload(0x40)\n      tag_304\n      swap4\n      swap3\n      swap2\n      swap1\n      tag_221\n      jump\t// in\n    tag_304:\n      mload(0x40)\n      dup1\n      swap2\n      sub\n      swap1\n      log2\n        /* \"contracts/ammv2.sol\":5024:6047  {... */\n      pop\n      pop\n        /* \"contracts/ammv2.sol\":4929:6047  function removeLiquidity(uint256 lpTokens) external returns (uint256 amountA, uint256 amountB) {... */\n      swap2\n      pop\n      swap2\n      jump\t// out\n        /* \"contracts/ammv2.sol\":3273:4893  function addLiquidity(uint256 amountA, uint256 amountB) external returns (uint256 lpTokens) {... */\n    tag_102:\n        /* \"contracts/ammv2.sol\":3347:3363  uint256 lpTokens */\n      0x00\n        /* \"contracts/ammv2.sol\":3376:3397  uint256 poolTokenANum */\n      dup1\n        /* \"contracts/ammv2.sol\":3407:3420  tokenAAddress */\n      0x05\n      0x00\n      swap1\n      sload\n      swap1\n      0x0100\n      exp\n      swap1\n      div\n      0xffffffffffffffffffffffffffffffffffffffff\n      and\n        /* \"contracts/ammv2.sol\":3400:3431  IERC20(tokenAAddress).balanceOf */\n      0xffffffffffffffffffffffffffffffffffffffff\n      and\n      0x70a08231\n        /* \"contracts/ammv2.sol\":3440:3444  this */\n      address\n        /* \"contracts/ammv2.sol\":3400:3446  IERC20(tokenAAddress).balanceOf(address(this)) */\n      mload(0x40)\n      dup3\n      0xffffffff\n      and\n      0xe0\n      shl\n      dup2\n      mstore\n      0x04\n      add\n      tag_306\n      swap2\n      swap1\n      tag_89\n      jump\t// in\n    tag_306:\n      0x20\n      mload(0x40)\n      dup1\n      dup4\n      sub\n      dup2\n      dup7\n      gas\n      staticcall\n      iszero\n      dup1\n      iszero\n      tag_308\n      jumpi\n      returndatasize\n      0x00\n      dup1\n      returndatacopy\n      revert(0x00, returndatasize)\n    tag_308:\n      pop\n      pop\n      pop\n      pop\n      mload(0x40)\n      returndatasize\n      not(0x1f)\n      0x1f\n      dup3\n      add\n      and\n      dup3\n      add\n      dup1\n      0x40\n      mstore\n      pop\n      dup2\n      add\n      swap1\n      tag_309\n      swap2\n      swap1\n      tag_153\n      jump\t// in\n    tag_309:\n        /* \"contracts/ammv2.sol\":3376:3446  uint256 poolTokenANum = IERC20(tokenAAddress).balanceOf(address(this)) */\n      swap1\n      pop\n        /* \"contracts/ammv2.sol\":3457:3478  uint256 poolTokenBNum */\n      0x00\n        /* \"contracts/ammv2.sol\":3488:3501  tokenBAddress */\n      0x06\n      0x00\n      swap1\n      sload\n      swap1\n      0x0100\n      exp\n      swap1\n      div\n      0xffffffffffffffffffffffffffffffffffffffff\n      and\n        /* \"contracts/ammv2.sol\":3481:3512  IERC20(tokenBAddress).balanceOf */\n      0xffffffffffffffffffffffffffffffffffffffff\n      and\n      0x70a08231\n        /* \"contracts/ammv2.sol\":3521:3525  this */\n      address\n        /* \"contracts/ammv2.sol\":3481:3527  IERC20(tokenBAddress).balanceOf(address(this)) */\n      mload(0x40)\n      dup3\n      0xffffffff\n      and\n      0xe0\n      shl\n      dup2\n      mstore\n      0x04\n      add\n      tag_310\n      swap2\n      swap1\n      tag_89\n      jump\t// in\n    tag_310:\n      0x20\n      mload(0x40)\n      dup1\n      dup4\n      sub\n      dup2\n      dup7\n      gas\n      staticcall\n      iszero\n      dup1\n      iszero\n      tag_312\n      jumpi\n      returndatasize\n      0x00\n      dup1\n      returndatacopy\n      revert(0x00, returndatasize)\n    tag_312:\n      pop\n      pop\n      pop\n      pop\n      mload(0x40)\n      returndatasize\n      not(0x1f)\n      0x1f\n      dup3\n      add\n      and\n      dup3\n      add\n      dup1\n      0x40\n      mstore\n      pop\n      dup2\n      add\n      swap1\n      tag_313\n      swap2\n      swap1\n      tag_153\n      jump\t// in\n    tag_313:\n        /* \"contracts/ammv2.sol\":3457:3527  uint256 poolTokenBNum = IERC20(tokenBAddress).balanceOf(address(this)) */\n      swap1\n      pop\n        /* \"contracts/ammv2.sol\":3558:3559  0 */\n      0x00\n        /* \"contracts/ammv2.sol\":3548:3555  amountA */\n      dup6\n        /* \"contracts/ammv2.sol\":3548:3559  amountA > 0 */\n      gt\n        /* \"contracts/ammv2.sol\":3548:3574  amountA > 0 && amountB > 0 */\n      dup1\n      iszero\n      tag_314\n      jumpi\n      pop\n        /* \"contracts/ammv2.sol\":3573:3574  0 */\n      0x00\n        /* \"contracts/ammv2.sol\":3563:3570  amountB */\n      dup5\n        /* \"contracts/ammv2.sol\":3563:3574  amountB > 0 */\n      gt\n        /* \"contracts/ammv2.sol\":3548:3574  amountA > 0 && amountB > 0 */\n    tag_314:\n        /* \"contracts/ammv2.sol\":3540:3594  require(amountA > 0 && amountB > 0, \"Invalid amounts\") */\n      tag_315\n      jumpi\n      mload(0x40)\n      0x08c379a000000000000000000000000000000000000000000000000000000000\n      dup2\n      mstore\n      0x04\n      add\n      tag_316\n      swap1\n      tag_317\n      jump\t// in\n    tag_316:\n      mload(0x40)\n      dup1\n      swap2\n      sub\n      swap1\n      revert\n    tag_315:\n        /* \"contracts/ammv2.sol\":3655:3668  tokenAAddress */\n      0x05\n      0x00\n      swap1\n      sload\n      swap1\n      0x0100\n      exp\n      swap1\n      div\n      0xffffffffffffffffffffffffffffffffffffffff\n      and\n        /* \"contracts/ammv2.sol\":3648:3682  IERC20(tokenAAddress).transferFrom */\n      0xffffffffffffffffffffffffffffffffffffffff\n      and\n      0x23b872dd\n        /* \"contracts/ammv2.sol\":3683:3693  msg.sender */\n      caller\n        /* \"contracts/ammv2.sol\":3703:3707  this */\n      address\n        /* \"contracts/ammv2.sol\":3710:3717  amountA */\n      dup9\n        /* \"contracts/ammv2.sol\":3648:3718  IERC20(tokenAAddress).transferFrom(msg.sender, address(this), amountA) */\n      mload(0x40)\n      dup5\n      0xffffffff\n      and\n      0xe0\n      shl\n      dup2\n      mstore\n      0x04\n      add\n      tag_318\n      swap4\n      swap3\n      swap2\n      swap1\n      tag_182\n      jump\t// in\n    tag_318:\n      0x20\n      mload(0x40)\n      dup1\n      dup4\n      sub\n      dup2\n      0x00\n      dup8\n      gas\n      call\n      iszero\n      dup1\n      iszero\n      tag_320\n      jumpi\n      returndatasize\n      0x00\n      dup1\n      returndatacopy\n      revert(0x00, returndatasize)\n    tag_320:\n      pop\n      pop\n      pop\n      pop\n      mload(0x40)\n      returndatasize\n      not(0x1f)\n      0x1f\n      dup3\n      add\n      and\n      dup3\n      add\n      dup1\n      0x40\n      mstore\n      pop\n      dup2\n      add\n      swap1\n      tag_321\n      swap2\n      swap1\n      tag_186\n      jump\t// in\n    tag_321:\n        /* \"contracts/ammv2.sol\":3640:3740  require(IERC20(tokenAAddress).transferFrom(msg.sender, address(this), amountA), \"Transfer A failed\") */\n      tag_322\n      jumpi\n      mload(0x40)\n      0x08c379a000000000000000000000000000000000000000000000000000000000\n      dup2\n      mstore\n      0x04\n      add\n      tag_323\n      swap1\n      tag_189\n      jump\t// in\n    tag_323:\n      mload(0x40)\n      dup1\n      swap2\n      sub\n      swap1\n      revert\n    tag_322:\n        /* \"contracts/ammv2.sol\":3766:3779  tokenBAddress */\n      0x06\n      0x00\n      swap1\n      sload\n      swap1\n      0x0100\n      exp\n      swap1\n      div\n      0xffffffffffffffffffffffffffffffffffffffff\n      and\n        /* \"contracts/ammv2.sol\":3759:3793  IERC20(tokenBAddress).transferFrom */\n      0xffffffffffffffffffffffffffffffffffffffff\n      and\n      0x23b872dd\n        /* \"contracts/ammv2.sol\":3794:3804  msg.sender */\n      caller\n        /* \"contracts/ammv2.sol\":3814:3818  this */\n      address\n        /* \"contracts/ammv2.sol\":3821:3828  amountB */\n      dup8\n        /* \"contracts/ammv2.sol\":3759:3829  IERC20(tokenBAddress).transferFrom(msg.sender, address(this), amountB) */\n      mload(0x40)\n      dup5\n      0xffffffff\n      and\n      0xe0\n      shl\n      dup2\n      mstore\n      0x04\n      add\n      tag_324\n      swap4\n      swap3\n      swap2\n      swap1\n      tag_182\n      jump\t// in\n    tag_324:\n      0x20\n      mload(0x40)\n      dup1\n      dup4\n      sub\n      dup2\n      0x00\n      dup8\n      gas\n      call\n      iszero\n      dup1\n      iszero\n      tag_326\n      jumpi\n      returndatasize\n      0x00\n      dup1\n      returndatacopy\n      revert(0x00, returndatasize)\n    tag_326:\n      pop\n      pop\n      pop\n      pop\n      mload(0x40)\n      returndatasize\n      not(0x1f)\n      0x1f\n      dup3\n      add\n      and\n      dup3\n      add\n      dup1\n      0x40\n      mstore\n      pop\n      dup2\n      add\n      swap1\n      tag_327\n      swap2\n      swap1\n      tag_186\n      jump\t// in\n    tag_327:\n        /* \"contracts/ammv2.sol\":3751:3851  require(IERC20(tokenBAddress).transferFrom(msg.sender, address(this), amountB), \"Transfer B failed\") */\n      tag_328\n      jumpi\n      mload(0x40)\n      0x08c379a000000000000000000000000000000000000000000000000000000000\n      dup2\n      mstore\n      0x04\n      add\n      tag_329\n      swap1\n      tag_197\n      jump\t// in\n    tag_329:\n      mload(0x40)\n      dup1\n      swap2\n      sub\n      swap1\n      revert\n    tag_328:\n        /* \"contracts/ammv2.sol\":3898:3899  0 */\n      0x00\n        /* \"contracts/ammv2.sol\":3876:3894  lpTokenTotalSupply */\n      sload(0x03)\n        /* \"contracts/ammv2.sol\":3876:3899  lpTokenTotalSupply == 0 */\n      sub\n        /* \"contracts/ammv2.sol\":3872:4594  if (lpTokenTotalSupply == 0) {... */\n      tag_330\n      jumpi\n        /* \"contracts/ammv2.sol\":3965:3972  amountA */\n      dup5\n        /* \"contracts/ammv2.sol\":3954:3972  lpTokens = amountA */\n      swap3\n      pop\n        /* \"contracts/ammv2.sol\":1173:1177  1000 */\n      0x03e8\n        /* \"contracts/ammv2.sol\":3995:4003  lpTokens */\n      dup4\n        /* \"contracts/ammv2.sol\":3995:4023  lpTokens > MINIMUM_LIQUIDITY */\n      gt\n        /* \"contracts/ammv2.sol\":3987:4050  require(lpTokens > MINIMUM_LIQUIDITY, \"Insufficient liquidity\") */\n      tag_331\n      jumpi\n      mload(0x40)\n      0x08c379a000000000000000000000000000000000000000000000000000000000\n      dup2\n      mstore\n      0x04\n      add\n      tag_332\n      swap1\n      tag_180\n      jump\t// in\n    tag_332:\n      mload(0x40)\n      dup1\n      swap2\n      sub\n      swap1\n      revert\n    tag_331:\n        /* \"contracts/ammv2.sol\":4138:4146  lpTokens */\n      dup3\n        /* \"contracts/ammv2.sol\":4117:4135  lpTokenTotalSupply */\n      0x03\n        /* \"contracts/ammv2.sol\":4117:4146  lpTokenTotalSupply = lpTokens */\n      dup2\n      swap1\n      sstore\n      pop\n        /* \"contracts/ammv2.sol\":1173:1177  1000 */\n      0x03e8\n        /* \"contracts/ammv2.sol\":4187:4195  lpTokens */\n      dup4\n        /* \"contracts/ammv2.sol\":4187:4215  lpTokens - MINIMUM_LIQUIDITY */\n      tag_333\n      swap2\n      swap1\n      tag_166\n      jump\t// in\n    tag_333:\n        /* \"contracts/ammv2.sol\":4161:4172  userLpToken */\n      0x02\n        /* \"contracts/ammv2.sol\":4161:4184  userLpToken[msg.sender] */\n      0x00\n        /* \"contracts/ammv2.sol\":4173:4183  msg.sender */\n      caller\n        /* \"contracts/ammv2.sol\":4161:4184  userLpToken[msg.sender] */\n      0xffffffffffffffffffffffffffffffffffffffff\n      and\n      0xffffffffffffffffffffffffffffffffffffffff\n      and\n      dup2\n      mstore\n      0x20\n      add\n      swap1\n      dup2\n      mstore\n      0x20\n      add\n      0x00\n      keccak256\n        /* \"contracts/ammv2.sol\":4161:4215  userLpToken[msg.sender] = lpTokens - MINIMUM_LIQUIDITY */\n      dup2\n      swap1\n      sstore\n      pop\n        /* \"contracts/ammv2.sol\":1173:1177  1000 */\n      0x03e8\n        /* \"contracts/ammv2.sol\":4230:4241  userLpToken */\n      0x02\n        /* \"contracts/ammv2.sol\":4230:4253  userLpToken[address(0)] */\n      0x00\n        /* \"contracts/ammv2.sol\":4250:4251  0 */\n      dup1\n        /* \"contracts/ammv2.sol\":4230:4253  userLpToken[address(0)] */\n      0xffffffffffffffffffffffffffffffffffffffff\n      and\n      0xffffffffffffffffffffffffffffffffffffffff\n      and\n      dup2\n      mstore\n      0x20\n      add\n      swap1\n      dup2\n      mstore\n      0x20\n      add\n      0x00\n      keccak256\n        /* \"contracts/ammv2.sol\":4230:4273  userLpToken[address(0)] = MINIMUM_LIQUIDITY */\n      dup2\n      swap1\n      sstore\n      pop\n        /* \"contracts/ammv2.sol\":3872:4594  if (lpTokenTotalSupply == 0) {... */\n      jump(tag_334)\n    tag_330:\n        /* \"contracts/ammv2.sol\":4364:4381  uint256 lpTokensA */\n      0x00\n        /* \"contracts/ammv2.sol\":4417:4430  poolTokenANum */\n      dup3\n        /* \"contracts/ammv2.sol\":4395:4413  lpTokenTotalSupply */\n      sload(0x03)\n        /* \"contracts/ammv2.sol\":4385:4392  amountA */\n      dup8\n        /* \"contracts/ammv2.sol\":4385:4413  amountA * lpTokenTotalSupply */\n      tag_335\n      swap2\n      swap1\n      tag_168\n      jump\t// in\n    tag_335:\n        /* \"contracts/ammv2.sol\":4384:4430  (amountA * lpTokenTotalSupply) / poolTokenANum */\n      tag_336\n      swap2\n      swap1\n      tag_170\n      jump\t// in\n    tag_336:\n        /* \"contracts/ammv2.sol\":4364:4430  uint256 lpTokensA = (amountA * lpTokenTotalSupply) / poolTokenANum */\n      swap1\n      pop\n        /* \"contracts/ammv2.sol\":4445:4462  uint256 lpTokensB */\n      0x00\n        /* \"contracts/ammv2.sol\":4498:4511  poolTokenBNum */\n      dup3\n        /* \"contracts/ammv2.sol\":4476:4494  lpTokenTotalSupply */\n      sload(0x03)\n        /* \"contracts/ammv2.sol\":4466:4473  amountB */\n      dup8\n        /* \"contracts/ammv2.sol\":4466:4494  amountB * lpTokenTotalSupply */\n      tag_337\n      swap2\n      swap1\n      tag_168\n      jump\t// in\n    tag_337:\n        /* \"contracts/ammv2.sol\":4465:4511  (amountB * lpTokenTotalSupply) / poolTokenBNum */\n      tag_338\n      swap2\n      swap1\n      tag_170\n      jump\t// in\n    tag_338:\n        /* \"contracts/ammv2.sol\":4445:4511  uint256 lpTokensB = (amountB * lpTokenTotalSupply) / poolTokenBNum */\n      swap1\n      pop\n        /* \"contracts/ammv2.sol\":4549:4558  lpTokensB */\n      dup1\n        /* \"contracts/ammv2.sol\":4537:4546  lpTokensA */\n      dup3\n        /* \"contracts/ammv2.sol\":4537:4558  lpTokensA < lpTokensB */\n      lt\n        /* \"contracts/ammv2.sol\":4537:4582  lpTokensA < lpTokensB ? lpTokensA : lpTokensB */\n      tag_339\n      jumpi\n        /* \"contracts/ammv2.sol\":4573:4582  lpTokensB */\n      dup1\n        /* \"contracts/ammv2.sol\":4537:4582  lpTokensA < lpTokensB ? lpTokensA : lpTokensB */\n      jump(tag_340)\n    tag_339:\n        /* \"contracts/ammv2.sol\":4561:4570  lpTokensA */\n      dup2\n        /* \"contracts/ammv2.sol\":4537:4582  lpTokensA < lpTokensB ? lpTokensA : lpTokensB */\n    tag_340:\n        /* \"contracts/ammv2.sol\":4526:4582  lpTokens = lpTokensA < lpTokensB ? lpTokensA : lpTokensB */\n      swap5\n      pop\n        /* \"contracts/ammv2.sol\":4293:4594  {... */\n      pop\n      pop\n        /* \"contracts/ammv2.sol\":3872:4594  if (lpTokenTotalSupply == 0) {... */\n    tag_334:\n        /* \"contracts/ammv2.sol\":4633:4634  0 */\n      0x00\n        /* \"contracts/ammv2.sol\":4622:4630  lpTokens */\n      dup4\n        /* \"contracts/ammv2.sol\":4622:4634  lpTokens > 0 */\n      gt\n        /* \"contracts/ammv2.sol\":4614:4661  require(lpTokens > 0, \"Insufficient LP tokens\") */\n      tag_341\n      jumpi\n      mload(0x40)\n      0x08c379a000000000000000000000000000000000000000000000000000000000\n      dup2\n      mstore\n      0x04\n      add\n      tag_342\n      swap1\n      tag_281\n      jump\t// in\n    tag_342:\n      mload(0x40)\n      dup1\n      swap2\n      sub\n      swap1\n      revert\n    tag_341:\n        /* \"contracts/ammv2.sol\":4729:4737  lpTokens */\n      dup3\n        /* \"contracts/ammv2.sol\":4707:4725  lpTokenTotalSupply */\n      0x03\n      0x00\n        /* \"contracts/ammv2.sol\":4707:4737  lpTokenTotalSupply += lpTokens */\n      dup3\n      dup3\n      sload\n      tag_343\n      swap2\n      swap1\n      tag_172\n      jump\t// in\n    tag_343:\n      swap3\n      pop\n      pop\n      dup2\n      swap1\n      sstore\n      pop\n        /* \"contracts/ammv2.sol\":4775:4783  lpTokens */\n      dup3\n        /* \"contracts/ammv2.sol\":4748:4759  userLpToken */\n      0x02\n        /* \"contracts/ammv2.sol\":4748:4771  userLpToken[msg.sender] */\n      0x00\n        /* \"contracts/ammv2.sol\":4760:4770  msg.sender */\n      caller\n        /* \"contracts/ammv2.sol\":4748:4771  userLpToken[msg.sender] */\n      0xffffffffffffffffffffffffffffffffffffffff\n      and\n      0xffffffffffffffffffffffffffffffffffffffff\n      and\n      dup2\n      mstore\n      0x20\n      add\n      swap1\n      dup2\n      mstore\n      0x20\n      add\n      0x00\n      keccak256\n      0x00\n        /* \"contracts/ammv2.sol\":4748:4783  userLpToken[msg.sender] += lpTokens */\n      dup3\n      dup3\n      sload\n      tag_344\n      swap2\n      swap1\n      tag_172\n      jump\t// in\n    tag_344:\n      swap3\n      pop\n      pop\n      dup2\n      swap1\n      sstore\n      pop\n        /* \"contracts/ammv2.sol\":4794:4807  updatePrice() */\n      tag_345\n        /* \"contracts/ammv2.sol\":4794:4805  updatePrice */\n      tag_199\n        /* \"contracts/ammv2.sol\":4794:4807  updatePrice() */\n      jump\t// in\n    tag_345:\n        /* \"contracts/ammv2.sol\":4846:4856  msg.sender */\n      caller\n        /* \"contracts/ammv2.sol\":4833:4885  AddLiquidity(msg.sender, amountA, amountB, lpTokens) */\n      0xffffffffffffffffffffffffffffffffffffffff\n      and\n      0xbeb3885786d637a474cbc287c0a44587231633a077f0bd30354d5a4b18996fce\n        /* \"contracts/ammv2.sol\":4858:4865  amountA */\n      dup7\n        /* \"contracts/ammv2.sol\":4867:4874  amountB */\n      dup7\n        /* \"contracts/ammv2.sol\":4876:4884  lpTokens */\n      dup7\n        /* \"contracts/ammv2.sol\":4833:4885  AddLiquidity(msg.sender, amountA, amountB, lpTokens) */\n      mload(0x40)\n      tag_346\n      swap4\n      swap3\n      swap2\n      swap1\n      tag_221\n      jump\t// in\n    tag_346:\n      mload(0x40)\n      dup1\n      swap2\n      sub\n      swap1\n      log2\n        /* \"contracts/ammv2.sol\":3365:4893  {... */\n      pop\n      pop\n        /* \"contracts/ammv2.sol\":3273:4893  function addLiquidity(uint256 amountA, uint256 amountB) external returns (uint256 lpTokens) {... */\n      swap3\n      swap2\n      pop\n      pop\n      jump\t// out\n        /* \"contracts/ammv2.sol\":1031:1086  uint256 public constant FLASH_SWAP_FEE_PER_THOUSAND = 3 */\n    tag_105:\n        /* \"contracts/ammv2.sol\":1085:1086  3 */\n      0x03\n        /* \"contracts/ammv2.sol\":1031:1086  uint256 public constant FLASH_SWAP_FEE_PER_THOUSAND = 3 */\n      dup2\n      jump\t// out\n        /* \"contracts/ammv2.sol\":591:618  uint256 public pool_img_url */\n    tag_108:\n      sload(0x01)\n      dup2\n      jump\t// out\n        /* \"contracts/ammv2.sol\":1129:1177  uint256 public constant MINIMUM_LIQUIDITY = 1000 */\n    tag_111:\n        /* \"contracts/ammv2.sol\":1173:1177  1000 */\n      0x03e8\n        /* \"contracts/ammv2.sol\":1129:1177  uint256 public constant MINIMUM_LIQUIDITY = 1000 */\n      dup2\n      jump\t// out\n        /* \"contracts/ammv2.sol\":560:584  address public poolOwner */\n    tag_114:\n      0x00\n      dup1\n      sload\n      swap1\n      0x0100\n      exp\n      swap1\n      div\n      0xffffffffffffffffffffffffffffffffffffffff\n      and\n      dup2\n      jump\t// out\n        /* \"contracts/ammv2.sol\":944:990  uint256 public constant FEE_DENOMINATOR = 1000 */\n    tag_117:\n        /* \"contracts/ammv2.sol\":986:990  1000 */\n      0x03e8\n        /* \"contracts/ammv2.sol\":944:990  uint256 public constant FEE_DENOMINATOR = 1000 */\n      dup2\n      jump\t// out\n        /* \"contracts/ammv2.sol\":11113:11573  function emergencyWithdraw() external onlyPoolOwner {... */\n    tag_120:\n        /* \"contracts/ammv2.sol\":1805:1814  poolOwner */\n      0x00\n      dup1\n      sload\n      swap1\n      0x0100\n      exp\n      swap1\n      div\n      0xffffffffffffffffffffffffffffffffffffffff\n      and\n        /* \"contracts/ammv2.sol\":1791:1814  msg.sender == poolOwner */\n      0xffffffffffffffffffffffffffffffffffffffff\n      and\n        /* \"contracts/ammv2.sol\":1791:1801  msg.sender */\n      caller\n        /* \"contracts/ammv2.sol\":1791:1814  msg.sender == poolOwner */\n      0xffffffffffffffffffffffffffffffffffffffff\n      and\n      eq\n        /* \"contracts/ammv2.sol\":1783:1857  require(msg.sender == poolOwner, \"Only pool owner can call this function\") */\n      tag_348\n      jumpi\n      mload(0x40)\n      0x08c379a000000000000000000000000000000000000000000000000000000000\n      dup2\n      mstore\n      0x04\n      add\n      tag_349\n      swap1\n      tag_350\n      jump\t// in\n    tag_349:\n      mload(0x40)\n      dup1\n      swap2\n      sub\n      swap1\n      revert\n    tag_348:\n        /* \"contracts/ammv2.sol\":11176:11192  uint256 balanceA */\n      0x00\n        /* \"contracts/ammv2.sol\":11202:11215  tokenAAddress */\n      0x05\n      0x00\n      swap1\n      sload\n      swap1\n      0x0100\n      exp\n      swap1\n      div\n      0xffffffffffffffffffffffffffffffffffffffff\n      and\n        /* \"contracts/ammv2.sol\":11195:11226  IERC20(tokenAAddress).balanceOf */\n      0xffffffffffffffffffffffffffffffffffffffff\n      and\n      0x70a08231\n        /* \"contracts/ammv2.sol\":11235:11239  this */\n      address\n        /* \"contracts/ammv2.sol\":11195:11241  IERC20(tokenAAddress).balanceOf(address(this)) */\n      mload(0x40)\n      dup3\n      0xffffffff\n      and\n      0xe0\n      shl\n      dup2\n      mstore\n      0x04\n      add\n      tag_352\n      swap2\n      swap1\n      tag_89\n      jump\t// in\n    tag_352:\n      0x20\n      mload(0x40)\n      dup1\n      dup4\n      sub\n      dup2\n      dup7\n      gas\n      staticcall\n      iszero\n      dup1\n      iszero\n      tag_354\n      jumpi\n      returndatasize\n      0x00\n      dup1\n      returndatacopy\n      revert(0x00, returndatasize)\n    tag_354:\n      pop\n      pop\n      pop\n      pop\n      mload(0x40)\n      returndatasize\n      not(0x1f)\n      0x1f\n      dup3\n      add\n      and\n      dup3\n      add\n      dup1\n      0x40\n      mstore\n      pop\n      dup2\n      add\n      swap1\n      tag_355\n      swap2\n      swap1\n      tag_153\n      jump\t// in\n    tag_355:\n        /* \"contracts/ammv2.sol\":11176:11241  uint256 balanceA = IERC20(tokenAAddress).balanceOf(address(this)) */\n      swap1\n      pop\n        /* \"contracts/ammv2.sol\":11252:11268  uint256 balanceB */\n      0x00\n        /* \"contracts/ammv2.sol\":11278:11291  tokenBAddress */\n      0x06\n      0x00\n      swap1\n      sload\n      swap1\n      0x0100\n      exp\n      swap1\n      div\n      0xffffffffffffffffffffffffffffffffffffffff\n      and\n        /* \"contracts/ammv2.sol\":11271:11302  IERC20(tokenBAddress).balanceOf */\n      0xffffffffffffffffffffffffffffffffffffffff\n      and\n      0x70a08231\n        /* \"contracts/ammv2.sol\":11311:11315  this */\n      address\n        /* \"contracts/ammv2.sol\":11271:11317  IERC20(tokenBAddress).balanceOf(address(this)) */\n      mload(0x40)\n      dup3\n      0xffffffff\n      and\n      0xe0\n      shl\n      dup2\n      mstore\n      0x04\n      add\n      tag_356\n      swap2\n      swap1\n      tag_89\n      jump\t// in\n    tag_356:\n      0x20\n      mload(0x40)\n      dup1\n      dup4\n      sub\n      dup2\n      dup7\n      gas\n      staticcall\n      iszero\n      dup1\n      iszero\n      tag_358\n      jumpi\n      returndatasize\n      0x00\n      dup1\n      returndatacopy\n      revert(0x00, returndatasize)\n    tag_358:\n      pop\n      pop\n      pop\n      pop\n      mload(0x40)\n      returndatasize\n      not(0x1f)\n      0x1f\n      dup3\n      add\n      and\n      dup3\n      add\n      dup1\n      0x40\n      mstore\n      pop\n      dup2\n      add\n      swap1\n      tag_359\n      swap2\n      swap1\n      tag_153\n      jump\t// in\n    tag_359:\n        /* \"contracts/ammv2.sol\":11252:11317  uint256 balanceB = IERC20(tokenBAddress).balanceOf(address(this)) */\n      swap1\n      pop\n        /* \"contracts/ammv2.sol\":11353:11354  0 */\n      0x00\n        /* \"contracts/ammv2.sol\":11342:11350  balanceA */\n      dup3\n        /* \"contracts/ammv2.sol\":11342:11354  balanceA > 0 */\n      gt\n        /* \"contracts/ammv2.sol\":11338:11434  if (balanceA > 0) {... */\n      iszero\n      tag_360\n      jumpi\n        /* \"contracts/ammv2.sol\":11378:11391  tokenAAddress */\n      0x05\n      0x00\n      swap1\n      sload\n      swap1\n      0x0100\n      exp\n      swap1\n      div\n      0xffffffffffffffffffffffffffffffffffffffff\n      and\n        /* \"contracts/ammv2.sol\":11371:11401  IERC20(tokenAAddress).transfer */\n      0xffffffffffffffffffffffffffffffffffffffff\n      and\n      0xa9059cbb\n        /* \"contracts/ammv2.sol\":11402:11411  poolOwner */\n      0x00\n      dup1\n      sload\n      swap1\n      0x0100\n      exp\n      swap1\n      div\n      0xffffffffffffffffffffffffffffffffffffffff\n      and\n        /* \"contracts/ammv2.sol\":11413:11421  balanceA */\n      dup5\n        /* \"contracts/ammv2.sol\":11371:11422  IERC20(tokenAAddress).transfer(poolOwner, balanceA) */\n      mload(0x40)\n      dup4\n      0xffffffff\n      and\n      0xe0\n      shl\n      dup2\n      mstore\n      0x04\n      add\n      tag_361\n      swap3\n      swap2\n      swap1\n      tag_191\n      jump\t// in\n    tag_361:\n      0x20\n      mload(0x40)\n      dup1\n      dup4\n      sub\n      dup2\n      0x00\n      dup8\n      gas\n      call\n      iszero\n      dup1\n      iszero\n      tag_363\n      jumpi\n      returndatasize\n      0x00\n      dup1\n      returndatacopy\n      revert(0x00, returndatasize)\n    tag_363:\n      pop\n      pop\n      pop\n      pop\n      mload(0x40)\n      returndatasize\n      not(0x1f)\n      0x1f\n      dup3\n      add\n      and\n      dup3\n      add\n      dup1\n      0x40\n      mstore\n      pop\n      dup2\n      add\n      swap1\n      tag_364\n      swap2\n      swap1\n      tag_186\n      jump\t// in\n    tag_364:\n      pop\n        /* \"contracts/ammv2.sol\":11338:11434  if (balanceA > 0) {... */\n    tag_360:\n        /* \"contracts/ammv2.sol\":11459:11460  0 */\n      0x00\n        /* \"contracts/ammv2.sol\":11448:11456  balanceB */\n      dup2\n        /* \"contracts/ammv2.sol\":11448:11460  balanceB > 0 */\n      gt\n        /* \"contracts/ammv2.sol\":11444:11540  if (balanceB > 0) {... */\n      iszero\n      tag_365\n      jumpi\n        /* \"contracts/ammv2.sol\":11484:11497  tokenBAddress */\n      0x06\n      0x00\n      swap1\n      sload\n      swap1\n      0x0100\n      exp\n      swap1\n      div\n      0xffffffffffffffffffffffffffffffffffffffff\n      and\n        /* \"contracts/ammv2.sol\":11477:11507  IERC20(tokenBAddress).transfer */\n      0xffffffffffffffffffffffffffffffffffffffff\n      and\n      0xa9059cbb\n        /* \"contracts/ammv2.sol\":11508:11517  poolOwner */\n      0x00\n      dup1\n      sload\n      swap1\n      0x0100\n      exp\n      swap1\n      div\n      0xffffffffffffffffffffffffffffffffffffffff\n      and\n        /* \"contracts/ammv2.sol\":11519:11527  balanceB */\n      dup4\n        /* \"contracts/ammv2.sol\":11477:11528  IERC20(tokenBAddress).transfer(poolOwner, balanceB) */\n      mload(0x40)\n      dup4\n      0xffffffff\n      and\n      0xe0\n      shl\n      dup2\n      mstore\n      0x04\n      add\n      tag_366\n      swap3\n      swap2\n      swap1\n      tag_191\n      jump\t// in\n    tag_366:\n      0x20\n      mload(0x40)\n      dup1\n      dup4\n      sub\n      dup2\n      0x00\n      dup8\n      gas\n      call\n      iszero\n      dup1\n      iszero\n      tag_368\n      jumpi\n      returndatasize\n      0x00\n      dup1\n      returndatacopy\n      revert(0x00, returndatasize)\n    tag_368:\n      pop\n      pop\n      pop\n      pop\n      mload(0x40)\n      returndatasize\n      not(0x1f)\n      0x1f\n      dup3\n      add\n      and\n      dup3\n      add\n      dup1\n      0x40\n      mstore\n      pop\n      dup2\n      add\n      swap1\n      tag_369\n      swap2\n      swap1\n      tag_186\n      jump\t// in\n    tag_369:\n      pop\n        /* \"contracts/ammv2.sol\":11444:11540  if (balanceB > 0) {... */\n    tag_365:\n        /* \"contracts/ammv2.sol\":11552:11565  updatePrice() */\n      tag_370\n        /* \"contracts/ammv2.sol\":11552:11563  updatePrice */\n      tag_199\n        /* \"contracts/ammv2.sol\":11552:11565  updatePrice() */\n      jump\t// in\n    tag_370:\n        /* \"contracts/ammv2.sol\":11165:11573  {... */\n      pop\n      pop\n        /* \"contracts/ammv2.sol\":11113:11573  function emergencyWithdraw() external onlyPoolOwner {... */\n      jump\t// out\n        /* \"contracts/ammv2.sol\":12523:13201  function flashSwapTokenB(uint256 amount, uint256 data, address caller) external returns (bool) {... */\n    tag_123:\n        /* \"contracts/ammv2.sol\":12612:12616  bool */\n      0x00\n        /* \"contracts/ammv2.sol\":12631:12649  uint256 usedAmount */\n      dup1\n        /* \"contracts/ammv2.sol\":12659:12672  tokenBAddress */\n      0x06\n      0x00\n      swap1\n      sload\n      swap1\n      0x0100\n      exp\n      swap1\n      div\n      0xffffffffffffffffffffffffffffffffffffffff\n      and\n        /* \"contracts/ammv2.sol\":12652:12683  IERC20(tokenBAddress).balanceOf */\n      0xffffffffffffffffffffffffffffffffffffffff\n      and\n      0x70a08231\n        /* \"contracts/ammv2.sol\":12692:12696  this */\n      address\n        /* \"contracts/ammv2.sol\":12652:12698  IERC20(tokenBAddress).balanceOf(address(this)) */\n      mload(0x40)\n      dup3\n      0xffffffff\n      and\n      0xe0\n      shl\n      dup2\n      mstore\n      0x04\n      add\n      tag_372\n      swap2\n      swap1\n      tag_89\n      jump\t// in\n    tag_372:\n      0x20\n      mload(0x40)\n      dup1\n      dup4\n      sub\n      dup2\n      dup7\n      gas\n      staticcall\n      iszero\n      dup1\n      iszero\n      tag_374\n      jumpi\n      returndatasize\n      0x00\n      dup1\n      returndatacopy\n      revert(0x00, returndatasize)\n    tag_374:\n      pop\n      pop\n      pop\n      pop\n      mload(0x40)\n      returndatasize\n      not(0x1f)\n      0x1f\n      dup3\n      add\n      and\n      dup3\n      add\n      dup1\n      0x40\n      mstore\n      pop\n      dup2\n      add\n      swap1\n      tag_375\n      swap2\n      swap1\n      tag_153\n      jump\t// in\n    tag_375:\n        /* \"contracts/ammv2.sol\":12631:12698  uint256 usedAmount = IERC20(tokenBAddress).balanceOf(address(this)) */\n      swap1\n      pop\n        /* \"contracts/ammv2.sol\":12731:12737  amount */\n      dup5\n        /* \"contracts/ammv2.sol\":12717:12727  usedAmount */\n      dup2\n        /* \"contracts/ammv2.sol\":12717:12737  usedAmount >= amount */\n      lt\n      iszero\n        /* \"contracts/ammv2.sol\":12709:12758  require(usedAmount >= amount, \"Not enough money\") */\n      tag_376\n      jumpi\n      mload(0x40)\n      0x08c379a000000000000000000000000000000000000000000000000000000000\n      dup2\n      mstore\n      0x04\n      add\n      tag_377\n      swap1\n      tag_210\n      jump\t// in\n    tag_377:\n      mload(0x40)\n      dup1\n      swap2\n      sub\n      swap1\n      revert\n    tag_376:\n        /* \"contracts/ammv2.sol\":12784:12797  tokenBAddress */\n      0x06\n      0x00\n      swap1\n      sload\n      swap1\n      0x0100\n      exp\n      swap1\n      div\n      0xffffffffffffffffffffffffffffffffffffffff\n      and\n        /* \"contracts/ammv2.sol\":12777:12807  IERC20(tokenBAddress).transfer */\n      0xffffffffffffffffffffffffffffffffffffffff\n      and\n      0xa9059cbb\n        /* \"contracts/ammv2.sol\":12808:12814  caller */\n      dup5\n        /* \"contracts/ammv2.sol\":12816:12822  amount */\n      dup8\n        /* \"contracts/ammv2.sol\":12777:12823  IERC20(tokenBAddress).transfer(caller, amount) */\n      mload(0x40)\n      dup4\n      0xffffffff\n      and\n      0xe0\n      shl\n      dup2\n      mstore\n      0x04\n      add\n      tag_378\n      swap3\n      swap2\n      swap1\n      tag_191\n      jump\t// in\n    tag_378:\n      0x20\n      mload(0x40)\n      dup1\n      dup4\n      sub\n      dup2\n      0x00\n      dup8\n      gas\n      call\n      iszero\n      dup1\n      iszero\n      tag_380\n      jumpi\n      returndatasize\n      0x00\n      dup1\n      returndatacopy\n      revert(0x00, returndatasize)\n    tag_380:\n      pop\n      pop\n      pop\n      pop\n      mload(0x40)\n      returndatasize\n      not(0x1f)\n      0x1f\n      dup3\n      add\n      and\n      dup3\n      add\n      dup1\n      0x40\n      mstore\n      pop\n      dup2\n      add\n      swap1\n      tag_381\n      swap2\n      swap1\n      tag_186\n      jump\t// in\n    tag_381:\n        /* \"contracts/ammv2.sol\":12769:12842  require(IERC20(tokenBAddress).transfer(caller, amount), \"Transfer error\") */\n      tag_382\n      jumpi\n      mload(0x40)\n      0x08c379a000000000000000000000000000000000000000000000000000000000\n      dup2\n      mstore\n      0x04\n      add\n      tag_383\n      swap1\n      tag_217\n      jump\t// in\n    tag_383:\n      mload(0x40)\n      dup1\n      swap2\n      sub\n      swap1\n      revert\n    tag_382:\n        /* \"contracts/ammv2.sol\":12853:12864  uint256 Fee */\n      0x00\n        /* \"contracts/ammv2.sol\":12906:12910  1000 */\n      0x03e8\n        /* \"contracts/ammv2.sol\":1085:1086  3 */\n      0x03\n        /* \"contracts/ammv2.sol\":12867:12873  amount */\n      dup8\n        /* \"contracts/ammv2.sol\":12867:12903  amount * FLASH_SWAP_FEE_PER_THOUSAND */\n      tag_384\n      swap2\n      swap1\n      tag_168\n      jump\t// in\n    tag_384:\n        /* \"contracts/ammv2.sol\":12867:12910  amount * FLASH_SWAP_FEE_PER_THOUSAND / 1000 */\n      tag_385\n      swap2\n      swap1\n      tag_170\n      jump\t// in\n    tag_385:\n        /* \"contracts/ammv2.sol\":12853:12910  uint256 Fee = amount * FLASH_SWAP_FEE_PER_THOUSAND / 1000 */\n      swap1\n      pop\n        /* \"contracts/ammv2.sol\":12941:12947  caller */\n      dup4\n        /* \"contracts/ammv2.sol\":12923:12957  FLASH_SWAP_CALLER(caller).callBack */\n      0xffffffffffffffffffffffffffffffffffffffff\n      and\n      0x1671b85e\n        /* \"contracts/ammv2.sol\":12958:12964  amount */\n      dup8\n        /* \"contracts/ammv2.sol\":12966:12969  Fee */\n      dup4\n        /* \"contracts/ammv2.sol\":12971:12975  data */\n      dup9\n        /* \"contracts/ammv2.sol\":12923:12976  FLASH_SWAP_CALLER(caller).callBack(amount, Fee, data) */\n      mload(0x40)\n      dup5\n      0xffffffff\n      and\n      0xe0\n      shl\n      dup2\n      mstore\n      0x04\n      add\n      tag_386\n      swap4\n      swap3\n      swap2\n      swap1\n      tag_221\n      jump\t// in\n    tag_386:\n      0x20\n      mload(0x40)\n      dup1\n      dup4\n      sub\n      dup2\n      0x00\n      dup8\n      gas\n      call\n      iszero\n      dup1\n      iszero\n      tag_388\n      jumpi\n      returndatasize\n      0x00\n      dup1\n      returndatacopy\n      revert(0x00, returndatasize)\n    tag_388:\n      pop\n      pop\n      pop\n      pop\n      mload(0x40)\n      returndatasize\n      not(0x1f)\n      0x1f\n      dup3\n      add\n      and\n      dup3\n      add\n      dup1\n      0x40\n      mstore\n      pop\n      dup2\n      add\n      swap1\n      tag_389\n      swap2\n      swap1\n      tag_186\n      jump\t// in\n    tag_389:\n      pop\n        /* \"contracts/ammv2.sol\":12997:13014  uint256 curAmount */\n      0x00\n        /* \"contracts/ammv2.sol\":13024:13037  tokenBAddress */\n      0x06\n      0x00\n      swap1\n      sload\n      swap1\n      0x0100\n      exp\n      swap1\n      div\n      0xffffffffffffffffffffffffffffffffffffffff\n      and\n        /* \"contracts/ammv2.sol\":13017:13048  IERC20(tokenBAddress).balanceOf */\n      0xffffffffffffffffffffffffffffffffffffffff\n      and\n      0x70a08231\n        /* \"contracts/ammv2.sol\":13057:13061  this */\n      address\n        /* \"contracts/ammv2.sol\":13017:13063  IERC20(tokenBAddress).balanceOf(address(this)) */\n      mload(0x40)\n      dup3\n      0xffffffff\n      and\n      0xe0\n      shl\n      dup2\n      mstore\n      0x04\n      add\n      tag_390\n      swap2\n      swap1\n      tag_89\n      jump\t// in\n    tag_390:\n      0x20\n      mload(0x40)\n      dup1\n      dup4\n      sub\n      dup2\n      dup7\n      gas\n      staticcall\n      iszero\n      dup1\n      iszero\n      tag_392\n      jumpi\n      returndatasize\n      0x00\n      dup1\n      returndatacopy\n      revert(0x00, returndatasize)\n    tag_392:\n      pop\n      pop\n      pop\n      pop\n      mload(0x40)\n      returndatasize\n      not(0x1f)\n      0x1f\n      dup3\n      add\n      and\n      dup3\n      add\n      dup1\n      0x40\n      mstore\n      pop\n      dup2\n      add\n      swap1\n      tag_393\n      swap2\n      swap1\n      tag_153\n      jump\t// in\n    tag_393:\n        /* \"contracts/ammv2.sol\":12997:13063  uint256 curAmount = IERC20(tokenBAddress).balanceOf(address(this)) */\n      swap1\n      pop\n        /* \"contracts/ammv2.sol\":13108:13111  Fee */\n      dup2\n        /* \"contracts/ammv2.sol\":13095:13105  usedAmount */\n      dup4\n        /* \"contracts/ammv2.sol\":13095:13111  usedAmount + Fee */\n      tag_394\n      swap2\n      swap1\n      tag_172\n      jump\t// in\n    tag_394:\n        /* \"contracts/ammv2.sol\":13082:13091  curAmount */\n      dup2\n        /* \"contracts/ammv2.sol\":13082:13111  curAmount >= usedAmount + Fee */\n      lt\n      iszero\n        /* \"contracts/ammv2.sol\":13074:13145  require(curAmount >= usedAmount + Fee, \"Do not give back enough money\") */\n      tag_395\n      jumpi\n      mload(0x40)\n      0x08c379a000000000000000000000000000000000000000000000000000000000\n      dup2\n      mstore\n      0x04\n      add\n      tag_396\n      swap1\n      tag_232\n      jump\t// in\n    tag_396:\n      mload(0x40)\n      dup1\n      swap2\n      sub\n      swap1\n      revert\n    tag_395:\n        /* \"contracts/ammv2.sol\":13158:13171  updatePrice() */\n      tag_397\n        /* \"contracts/ammv2.sol\":13158:13169  updatePrice */\n      tag_199\n        /* \"contracts/ammv2.sol\":13158:13171  updatePrice() */\n      jump\t// in\n    tag_397:\n        /* \"contracts/ammv2.sol\":13189:13193  true */\n      0x01\n        /* \"contracts/ammv2.sol\":13182:13193  return true */\n      swap4\n      pop\n      pop\n      pop\n      pop\n        /* \"contracts/ammv2.sol\":12523:13201  function flashSwapTokenB(uint256 amount, uint256 data, address caller) external returns (bool) {... */\n      swap4\n      swap3\n      pop\n      pop\n      pop\n      jump\t// out\n        /* \"contracts/ammv2.sol\":720:748  uint256 public contract_type */\n    tag_126:\n      sload(0x04)\n      dup2\n      jump\t// out\n        /* \"contracts/ammv2.sol\":7364:8599  function swapBForA(uint256 amountBIn) external returns (uint256 amountAOut) {... */\n    tag_130:\n        /* \"contracts/ammv2.sol\":7420:7438  uint256 amountAOut */\n      0x00\n        /* \"contracts/ammv2.sol\":7451:7472  uint256 poolTokenANum */\n      dup1\n        /* \"contracts/ammv2.sol\":7482:7495  tokenAAddress */\n      0x05\n      0x00\n      swap1\n      sload\n      swap1\n      0x0100\n      exp\n      swap1\n      div\n      0xffffffffffffffffffffffffffffffffffffffff\n      and\n        /* \"contracts/ammv2.sol\":7475:7506  IERC20(tokenAAddress).balanceOf */\n      0xffffffffffffffffffffffffffffffffffffffff\n      and\n      0x70a08231\n        /* \"contracts/ammv2.sol\":7515:7519  this */\n      address\n        /* \"contracts/ammv2.sol\":7475:7521  IERC20(tokenAAddress).balanceOf(address(this)) */\n      mload(0x40)\n      dup3\n      0xffffffff\n      and\n      0xe0\n      shl\n      dup2\n      mstore\n      0x04\n      add\n      tag_399\n      swap2\n      swap1\n      tag_89\n      jump\t// in\n    tag_399:\n      0x20\n      mload(0x40)\n      dup1\n      dup4\n      sub\n      dup2\n      dup7\n      gas\n      staticcall\n      iszero\n      dup1\n      iszero\n      tag_401\n      jumpi\n      returndatasize\n      0x00\n      dup1\n      returndatacopy\n      revert(0x00, returndatasize)\n    tag_401:\n      pop\n      pop\n      pop\n      pop\n      mload(0x40)\n      returndatasize\n      not(0x1f)\n      0x1f\n      dup3\n      add\n      and\n      dup3\n      add\n      dup1\n      0x40\n      mstore\n      pop\n      dup2\n      add\n      swap1\n      tag_402\n      swap2\n      swap1\n      tag_153\n      jump\t// in\n    tag_402:\n        /* \"contracts/ammv2.sol\":7451:7521  uint256 poolTokenANum = IERC20(tokenAAddress).balanceOf(address(this)) */\n      swap1\n      pop\n        /* \"contracts/ammv2.sol\":7532:7553  uint256 poolTokenBNum */\n      0x00\n        /* \"contracts/ammv2.sol\":7563:7576  tokenBAddress */\n      0x06\n      0x00\n      swap1\n      sload\n      swap1\n      0x0100\n      exp\n      swap1\n      div\n      0xffffffffffffffffffffffffffffffffffffffff\n      and\n        /* \"contracts/ammv2.sol\":7556:7587  IERC20(tokenBAddress).balanceOf */\n      0xffffffffffffffffffffffffffffffffffffffff\n      and\n      0x70a08231\n        /* \"contracts/ammv2.sol\":7596:7600  this */\n      address\n        /* \"contracts/ammv2.sol\":7556:7602  IERC20(tokenBAddress).balanceOf(address(this)) */\n      mload(0x40)\n      dup3\n      0xffffffff\n      and\n      0xe0\n      shl\n      dup2\n      mstore\n      0x04\n      add\n      tag_403\n      swap2\n      swap1\n      tag_89\n      jump\t// in\n    tag_403:\n      0x20\n      mload(0x40)\n      dup1\n      dup4\n      sub\n      dup2\n      dup7\n      gas\n      staticcall\n      iszero\n      dup1\n      iszero\n      tag_405\n      jumpi\n      returndatasize\n      0x00\n      dup1\n      returndatacopy\n      revert(0x00, returndatasize)\n    tag_405:\n      pop\n      pop\n      pop\n      pop\n      mload(0x40)\n      returndatasize\n      not(0x1f)\n      0x1f\n      dup3\n      add\n      and\n      dup3\n      add\n      dup1\n      0x40\n      mstore\n      pop\n      dup2\n      add\n      swap1\n      tag_406\n      swap2\n      swap1\n      tag_153\n      jump\t// in\n    tag_406:\n        /* \"contracts/ammv2.sol\":7532:7602  uint256 poolTokenBNum = IERC20(tokenBAddress).balanceOf(address(this)) */\n      swap1\n      pop\n        /* \"contracts/ammv2.sol\":7635:7636  0 */\n      0x00\n        /* \"contracts/ammv2.sol\":7623:7632  amountBIn */\n      dup5\n        /* \"contracts/ammv2.sol\":7623:7636  amountBIn > 0 */\n      gt\n        /* \"contracts/ammv2.sol\":7615:7655  require(amountBIn > 0, \"Invalid amount\") */\n      tag_407\n      jumpi\n      mload(0x40)\n      0x08c379a000000000000000000000000000000000000000000000000000000000\n      dup2\n      mstore\n      0x04\n      add\n      tag_408\n      swap1\n      tag_160\n      jump\t// in\n    tag_408:\n      mload(0x40)\n      dup1\n      swap2\n      sub\n      swap1\n      revert\n    tag_407:\n        /* \"contracts/ammv2.sol\":7690:7691  0 */\n      0x00\n        /* \"contracts/ammv2.sol\":7674:7687  poolTokenANum */\n      dup3\n        /* \"contracts/ammv2.sol\":7674:7691  poolTokenANum > 0 */\n      gt\n        /* \"contracts/ammv2.sol\":7674:7712  poolTokenANum > 0 && poolTokenBNum > 0 */\n      dup1\n      iszero\n      tag_409\n      jumpi\n      pop\n        /* \"contracts/ammv2.sol\":7711:7712  0 */\n      0x00\n        /* \"contracts/ammv2.sol\":7695:7708  poolTokenBNum */\n      dup2\n        /* \"contracts/ammv2.sol\":7695:7712  poolTokenBNum > 0 */\n      gt\n        /* \"contracts/ammv2.sol\":7674:7712  poolTokenANum > 0 && poolTokenBNum > 0 */\n    tag_409:\n        /* \"contracts/ammv2.sol\":7666:7737  require(poolTokenANum > 0 && poolTokenBNum > 0, \"Pool not initialized\") */\n      tag_410\n      jumpi\n      mload(0x40)\n      0x08c379a000000000000000000000000000000000000000000000000000000000\n      dup2\n      mstore\n      0x04\n      add\n      tag_411\n      swap1\n      tag_164\n      jump\t// in\n    tag_411:\n      mload(0x40)\n      dup1\n      swap2\n      sub\n      swap1\n      revert\n    tag_410:\n        /* \"contracts/ammv2.sol\":7804:7828  uint256 amountBInWithFee */\n      0x00\n        /* \"contracts/ammv2.sol\":986:990  1000 */\n      0x03e8\n        /* \"contracts/ammv2.sol\":936:937  3 */\n      0x03\n        /* \"contracts/ammv2.sol\":986:990  1000 */\n      0x03e8\n        /* \"contracts/ammv2.sol\":7844:7870  FEE_DENOMINATOR - FEE_RATE */\n      tag_412\n      swap2\n      swap1\n      tag_166\n      jump\t// in\n    tag_412:\n        /* \"contracts/ammv2.sol\":7831:7840  amountBIn */\n      dup7\n        /* \"contracts/ammv2.sol\":7831:7871  amountBIn * (FEE_DENOMINATOR - FEE_RATE) */\n      tag_413\n      swap2\n      swap1\n      tag_168\n      jump\t// in\n    tag_413:\n        /* \"contracts/ammv2.sol\":7831:7889  amountBIn * (FEE_DENOMINATOR - FEE_RATE) / FEE_DENOMINATOR */\n      tag_414\n      swap2\n      swap1\n      tag_170\n      jump\t// in\n    tag_414:\n        /* \"contracts/ammv2.sol\":7804:7889  uint256 amountBInWithFee = amountBIn * (FEE_DENOMINATOR - FEE_RATE) / FEE_DENOMINATOR */\n      swap1\n      pop\n        /* \"contracts/ammv2.sol\":8027:8043  amountBInWithFee */\n      dup1\n        /* \"contracts/ammv2.sol\":8011:8024  poolTokenBNum */\n      dup3\n        /* \"contracts/ammv2.sol\":8011:8043  poolTokenBNum + amountBInWithFee */\n      tag_415\n      swap2\n      swap1\n      tag_172\n      jump\t// in\n    tag_415:\n        /* \"contracts/ammv2.sol\":7990:8006  amountBInWithFee */\n      dup2\n        /* \"contracts/ammv2.sol\":7974:7987  poolTokenANum */\n      dup5\n        /* \"contracts/ammv2.sol\":7974:8006  poolTokenANum * amountBInWithFee */\n      tag_416\n      swap2\n      swap1\n      tag_168\n      jump\t// in\n    tag_416:\n        /* \"contracts/ammv2.sol\":7973:8044  (poolTokenANum * amountBInWithFee) / (poolTokenBNum + amountBInWithFee) */\n      tag_417\n      swap2\n      swap1\n      tag_170\n      jump\t// in\n    tag_417:\n        /* \"contracts/ammv2.sol\":7960:8044  amountAOut = (poolTokenANum * amountBInWithFee) / (poolTokenBNum + amountBInWithFee) */\n      swap4\n      pop\n        /* \"contracts/ammv2.sol\":8086:8087  0 */\n      0x00\n        /* \"contracts/ammv2.sol\":8073:8083  amountAOut */\n      dup5\n        /* \"contracts/ammv2.sol\":8073:8087  amountAOut > 0 */\n      gt\n        /* \"contracts/ammv2.sol\":8065:8118  require(amountAOut > 0, \"Insufficient output amount\") */\n      tag_418\n      jumpi\n      mload(0x40)\n      0x08c379a000000000000000000000000000000000000000000000000000000000\n      dup2\n      mstore\n      0x04\n      add\n      tag_419\n      swap1\n      tag_177\n      jump\t// in\n    tag_419:\n      mload(0x40)\n      dup1\n      swap2\n      sub\n      swap1\n      revert\n    tag_418:\n        /* \"contracts/ammv2.sol\":8150:8163  poolTokenANum */\n      dup3\n        /* \"contracts/ammv2.sol\":8137:8147  amountAOut */\n      dup5\n        /* \"contracts/ammv2.sol\":8137:8163  amountAOut < poolTokenANum */\n      lt\n        /* \"contracts/ammv2.sol\":8129:8190  require(amountAOut < poolTokenANum, \"Insufficient liquidity\") */\n      tag_420\n      jumpi\n      mload(0x40)\n      0x08c379a000000000000000000000000000000000000000000000000000000000\n      dup2\n      mstore\n      0x04\n      add\n      tag_421\n      swap1\n      tag_180\n      jump\t// in\n    tag_421:\n      mload(0x40)\n      dup1\n      swap2\n      sub\n      swap1\n      revert\n    tag_420:\n        /* \"contracts/ammv2.sol\":8252:8265  tokenBAddress */\n      0x06\n      0x00\n      swap1\n      sload\n      swap1\n      0x0100\n      exp\n      swap1\n      div\n      0xffffffffffffffffffffffffffffffffffffffff\n      and\n        /* \"contracts/ammv2.sol\":8245:8279  IERC20(tokenBAddress).transferFrom */\n      0xffffffffffffffffffffffffffffffffffffffff\n      and\n      0x23b872dd\n        /* \"contracts/ammv2.sol\":8280:8290  msg.sender */\n      caller\n        /* \"contracts/ammv2.sol\":8300:8304  this */\n      address\n        /* \"contracts/ammv2.sol\":8307:8316  amountBIn */\n      dup9\n        /* \"contracts/ammv2.sol\":8245:8317  IERC20(tokenBAddress).transferFrom(msg.sender, address(this), amountBIn) */\n      mload(0x40)\n      dup5\n      0xffffffff\n      and\n      0xe0\n      shl\n      dup2\n      mstore\n      0x04\n      add\n      tag_422\n      swap4\n      swap3\n      swap2\n      swap1\n      tag_182\n      jump\t// in\n    tag_422:\n      0x20\n      mload(0x40)\n      dup1\n      dup4\n      sub\n      dup2\n      0x00\n      dup8\n      gas\n      call\n      iszero\n      dup1\n      iszero\n      tag_424\n      jumpi\n      returndatasize\n      0x00\n      dup1\n      returndatacopy\n      revert(0x00, returndatasize)\n    tag_424:\n      pop\n      pop\n      pop\n      pop\n      mload(0x40)\n      returndatasize\n      not(0x1f)\n      0x1f\n      dup3\n      add\n      and\n      dup3\n      add\n      dup1\n      0x40\n      mstore\n      pop\n      dup2\n      add\n      swap1\n      tag_425\n      swap2\n      swap1\n      tag_186\n      jump\t// in\n    tag_425:\n        /* \"contracts/ammv2.sol\":8237:8339  require(IERC20(tokenBAddress).transferFrom(msg.sender, address(this), amountBIn), \"Transfer B failed\") */\n      tag_426\n      jumpi\n      mload(0x40)\n      0x08c379a000000000000000000000000000000000000000000000000000000000\n      dup2\n      mstore\n      0x04\n      add\n      tag_427\n      swap1\n      tag_197\n      jump\t// in\n    tag_427:\n      mload(0x40)\n      dup1\n      swap2\n      sub\n      swap1\n      revert\n    tag_426:\n        /* \"contracts/ammv2.sol\":8401:8414  tokenAAddress */\n      0x05\n      0x00\n      swap1\n      sload\n      swap1\n      0x0100\n      exp\n      swap1\n      div\n      0xffffffffffffffffffffffffffffffffffffffff\n      and\n        /* \"contracts/ammv2.sol\":8394:8424  IERC20(tokenAAddress).transfer */\n      0xffffffffffffffffffffffffffffffffffffffff\n      and\n      0xa9059cbb\n        /* \"contracts/ammv2.sol\":8425:8435  msg.sender */\n      caller\n        /* \"contracts/ammv2.sol\":8437:8447  amountAOut */\n      dup7\n        /* \"contracts/ammv2.sol\":8394:8448  IERC20(tokenAAddress).transfer(msg.sender, amountAOut) */\n      mload(0x40)\n      dup4\n      0xffffffff\n      and\n      0xe0\n      shl\n      dup2\n      mstore\n      0x04\n      add\n      tag_428\n      swap3\n      swap2\n      swap1\n      tag_191\n      jump\t// in\n    tag_428:\n      0x20\n      mload(0x40)\n      dup1\n      dup4\n      sub\n      dup2\n      0x00\n      dup8\n      gas\n      call\n      iszero\n      dup1\n      iszero\n      tag_430\n      jumpi\n      returndatasize\n      0x00\n      dup1\n      returndatacopy\n      revert(0x00, returndatasize)\n    tag_430:\n      pop\n      pop\n      pop\n      pop\n      mload(0x40)\n      returndatasize\n      not(0x1f)\n      0x1f\n      dup3\n      add\n      and\n      dup3\n      add\n      dup1\n      0x40\n      mstore\n      pop\n      dup2\n      add\n      swap1\n      tag_431\n      swap2\n      swap1\n      tag_186\n      jump\t// in\n    tag_431:\n        /* \"contracts/ammv2.sol\":8386:8470  require(IERC20(tokenAAddress).transfer(msg.sender, amountAOut), \"Transfer A failed\") */\n      tag_432\n      jumpi\n      mload(0x40)\n      0x08c379a000000000000000000000000000000000000000000000000000000000\n      dup2\n      mstore\n      0x04\n      add\n      tag_433\n      swap1\n      tag_189\n      jump\t// in\n    tag_433:\n      mload(0x40)\n      dup1\n      swap2\n      sub\n      swap1\n      revert\n    tag_432:\n        /* \"contracts/ammv2.sol\":8483:8496  updatePrice() */\n      tag_434\n        /* \"contracts/ammv2.sol\":8483:8494  updatePrice */\n      tag_199\n        /* \"contracts/ammv2.sol\":8483:8496  updatePrice() */\n      jump\t// in\n    tag_434:\n        /* \"contracts/ammv2.sol\":8527:8537  msg.sender */\n      caller\n        /* \"contracts/ammv2.sol\":8522:8591  Swap(msg.sender, tokenBAddress, amountBIn, tokenAAddress, amountAOut) */\n      0xffffffffffffffffffffffffffffffffffffffff\n      and\n      0x5380cf97d8f645d3c4896da60c053458dca03a3a31cec642ac80e1ddf0d8d02a\n        /* \"contracts/ammv2.sol\":8539:8552  tokenBAddress */\n      0x06\n      0x00\n      swap1\n      sload\n      swap1\n      0x0100\n      exp\n      swap1\n      div\n      0xffffffffffffffffffffffffffffffffffffffff\n      and\n        /* \"contracts/ammv2.sol\":8554:8563  amountBIn */\n      dup8\n        /* \"contracts/ammv2.sol\":8565:8578  tokenAAddress */\n      0x05\n      0x00\n      swap1\n      sload\n      swap1\n      0x0100\n      exp\n      swap1\n      div\n      0xffffffffffffffffffffffffffffffffffffffff\n      and\n        /* \"contracts/ammv2.sol\":8580:8590  amountAOut */\n      dup9\n        /* \"contracts/ammv2.sol\":8522:8591  Swap(msg.sender, tokenBAddress, amountBIn, tokenAAddress, amountAOut) */\n      mload(0x40)\n      tag_435\n      swap5\n      swap4\n      swap3\n      swap2\n      swap1\n      tag_201\n      jump\t// in\n    tag_435:\n      mload(0x40)\n      dup1\n      swap2\n      sub\n      swap1\n      log2\n        /* \"contracts/ammv2.sol\":7440:8599  {... */\n      pop\n      pop\n      pop\n        /* \"contracts/ammv2.sol\":7364:8599  function swapBForA(uint256 amountBIn) external returns (uint256 amountAOut) {... */\n      swap2\n      swap1\n      pop\n      jump\t// out\n        /* \"contracts/ammv2.sol\":9914:10459  function getExchangeRate() external view returns (uint256 rateAToB, uint256 rateBToA) {... */\n    tag_133:\n        /* \"contracts/ammv2.sol\":9964:9980  uint256 rateAToB */\n      0x00\n        /* \"contracts/ammv2.sol\":9982:9998  uint256 rateBToA */\n      dup1\n        /* \"contracts/ammv2.sol\":10011:10032  uint256 poolTokenANum */\n      0x00\n        /* \"contracts/ammv2.sol\":10042:10055  tokenAAddress */\n      0x05\n      0x00\n      swap1\n      sload\n      swap1\n      0x0100\n      exp\n      swap1\n      div\n      0xffffffffffffffffffffffffffffffffffffffff\n      and\n        /* \"contracts/ammv2.sol\":10035:10066  IERC20(tokenAAddress).balanceOf */\n      0xffffffffffffffffffffffffffffffffffffffff\n      and\n      0x70a08231\n        /* \"contracts/ammv2.sol\":10075:10079  this */\n      address\n        /* \"contracts/ammv2.sol\":10035:10081  IERC20(tokenAAddress).balanceOf(address(this)) */\n      mload(0x40)\n      dup3\n      0xffffffff\n      and\n      0xe0\n      shl\n      dup2\n      mstore\n      0x04\n      add\n      tag_437\n      swap2\n      swap1\n      tag_89\n      jump\t// in\n    tag_437:\n      0x20\n      mload(0x40)\n      dup1\n      dup4\n      sub\n      dup2\n      dup7\n      gas\n      staticcall\n      iszero\n      dup1\n      iszero\n      tag_439\n      jumpi\n      returndatasize\n      0x00\n      dup1\n      returndatacopy\n      revert(0x00, returndatasize)\n    tag_439:\n      pop\n      pop\n      pop\n      pop\n      mload(0x40)\n      returndatasize\n      not(0x1f)\n      0x1f\n      dup3\n      add\n      and\n      dup3\n      add\n      dup1\n      0x40\n      mstore\n      pop\n      dup2\n      add\n      swap1\n      tag_440\n      swap2\n      swap1\n      tag_153\n      jump\t// in\n    tag_440:\n        /* \"contracts/ammv2.sol\":10011:10081  uint256 poolTokenANum = IERC20(tokenAAddress).balanceOf(address(this)) */\n      swap1\n      pop\n        /* \"contracts/ammv2.sol\":10092:10113  uint256 poolTokenBNum */\n      0x00\n        /* \"contracts/ammv2.sol\":10123:10136  tokenBAddress */\n      0x06\n      0x00\n      swap1\n      sload\n      swap1\n      0x0100\n      exp\n      swap1\n      div\n      0xffffffffffffffffffffffffffffffffffffffff\n      and\n        /* \"contracts/ammv2.sol\":10116:10147  IERC20(tokenBAddress).balanceOf */\n      0xffffffffffffffffffffffffffffffffffffffff\n      and\n      0x70a08231\n        /* \"contracts/ammv2.sol\":10156:10160  this */\n      address\n        /* \"contracts/ammv2.sol\":10116:10162  IERC20(tokenBAddress).balanceOf(address(this)) */\n      mload(0x40)\n      dup3\n      0xffffffff\n      and\n      0xe0\n      shl\n      dup2\n      mstore\n      0x04\n      add\n      tag_441\n      swap2\n      swap1\n      tag_89\n      jump\t// in\n    tag_441:\n      0x20\n      mload(0x40)\n      dup1\n      dup4\n      sub\n      dup2\n      dup7\n      gas\n      staticcall\n      iszero\n      dup1\n      iszero\n      tag_443\n      jumpi\n      returndatasize\n      0x00\n      dup1\n      returndatacopy\n      revert(0x00, returndatasize)\n    tag_443:\n      pop\n      pop\n      pop\n      pop\n      mload(0x40)\n      returndatasize\n      not(0x1f)\n      0x1f\n      dup3\n      add\n      and\n      dup3\n      add\n      dup1\n      0x40\n      mstore\n      pop\n      dup2\n      add\n      swap1\n      tag_444\n      swap2\n      swap1\n      tag_153\n      jump\t// in\n    tag_444:\n        /* \"contracts/ammv2.sol\":10092:10162  uint256 poolTokenBNum = IERC20(tokenBAddress).balanceOf(address(this)) */\n      swap1\n      pop\n        /* \"contracts/ammv2.sol\":10195:10196  0 */\n      0x00\n        /* \"contracts/ammv2.sol\":10179:10192  poolTokenANum */\n      dup3\n        /* \"contracts/ammv2.sol\":10179:10196  poolTokenANum > 0 */\n      gt\n        /* \"contracts/ammv2.sol\":10179:10217  poolTokenANum > 0 && poolTokenBNum > 0 */\n      dup1\n      iszero\n      tag_445\n      jumpi\n      pop\n        /* \"contracts/ammv2.sol\":10216:10217  0 */\n      0x00\n        /* \"contracts/ammv2.sol\":10200:10213  poolTokenBNum */\n      dup2\n        /* \"contracts/ammv2.sol\":10200:10217  poolTokenBNum > 0 */\n      gt\n        /* \"contracts/ammv2.sol\":10179:10217  poolTokenANum > 0 && poolTokenBNum > 0 */\n    tag_445:\n        /* \"contracts/ammv2.sol\":10175:10452  if (poolTokenANum > 0 && poolTokenBNum > 0) {... */\n      iszero\n      tag_446\n      jumpi\n        /* \"contracts/ammv2.sol\":10287:10288  1 */\n      0x01\n        /* \"contracts/ammv2.sol\":10271:10284  poolTokenANum */\n      dup3\n        /* \"contracts/ammv2.sol\":10271:10288  poolTokenANum + 1 */\n      tag_447\n      swap2\n      swap1\n      tag_172\n      jump\t// in\n    tag_447:\n        /* \"contracts/ammv2.sol\":10262:10266  1e18 */\n      0x0de0b6b3a7640000\n        /* \"contracts/ammv2.sol\":10246:10259  poolTokenBNum */\n      dup3\n        /* \"contracts/ammv2.sol\":10246:10266  poolTokenBNum * 1e18 */\n      tag_448\n      swap2\n      swap1\n      tag_168\n      jump\t// in\n    tag_448:\n        /* \"contracts/ammv2.sol\":10245:10289  (poolTokenBNum * 1e18) / (poolTokenANum + 1) */\n      tag_449\n      swap2\n      swap1\n      tag_170\n      jump\t// in\n    tag_449:\n        /* \"contracts/ammv2.sol\":10234:10289  rateAToB = (poolTokenBNum * 1e18) / (poolTokenANum + 1) */\n      swap4\n      pop\n        /* \"contracts/ammv2.sol\":10357:10358  1 */\n      0x01\n        /* \"contracts/ammv2.sol\":10341:10354  poolTokenBNum */\n      dup2\n        /* \"contracts/ammv2.sol\":10341:10358  poolTokenBNum + 1 */\n      tag_450\n      swap2\n      swap1\n      tag_172\n      jump\t// in\n    tag_450:\n        /* \"contracts/ammv2.sol\":10332:10336  1e18 */\n      0x0de0b6b3a7640000\n        /* \"contracts/ammv2.sol\":10316:10329  poolTokenANum */\n      dup4\n        /* \"contracts/ammv2.sol\":10316:10336  poolTokenANum * 1e18 */\n      tag_451\n      swap2\n      swap1\n      tag_168\n      jump\t// in\n    tag_451:\n        /* \"contracts/ammv2.sol\":10315:10359  (poolTokenANum * 1e18) / (poolTokenBNum + 1) */\n      tag_452\n      swap2\n      swap1\n      tag_170\n      jump\t// in\n    tag_452:\n        /* \"contracts/ammv2.sol\":10304:10359  rateBToA = (poolTokenANum * 1e18) / (poolTokenBNum + 1) */\n      swap3\n      pop\n        /* \"contracts/ammv2.sol\":10175:10452  if (poolTokenANum > 0 && poolTokenBNum > 0) {... */\n      jump(tag_453)\n    tag_446:\n        /* \"contracts/ammv2.sol\":10412:10413  0 */\n      0x00\n        /* \"contracts/ammv2.sol\":10401:10413  rateAToB = 0 */\n      swap4\n      pop\n        /* \"contracts/ammv2.sol\":10439:10440  0 */\n      0x00\n        /* \"contracts/ammv2.sol\":10428:10440  rateBToA = 0 */\n      swap3\n      pop\n        /* \"contracts/ammv2.sol\":10175:10452  if (poolTokenANum > 0 && poolTokenBNum > 0) {... */\n    tag_453:\n        /* \"contracts/ammv2.sol\":10000:10459  {... */\n      pop\n      pop\n        /* \"contracts/ammv2.sol\":9914:10459  function getExchangeRate() external view returns (uint256 rateAToB, uint256 rateBToA) {... */\n      swap1\n      swap2\n      jump\t// out\n        /* \"contracts/ammv2.sol\":8646:9237  function getAmountBOut(uint256 amountAIn) external view returns (uint256 amountBOut) {... */\n    tag_137:\n        /* \"contracts/ammv2.sol\":8711:8729  uint256 amountBOut */\n      0x00\n        /* \"contracts/ammv2.sol\":8742:8763  uint256 poolTokenANum */\n      dup1\n        /* \"contracts/ammv2.sol\":8773:8786  tokenAAddress */\n      0x05\n      0x00\n      swap1\n      sload\n      swap1\n      0x0100\n      exp\n      swap1\n      div\n      0xffffffffffffffffffffffffffffffffffffffff\n      and\n        /* \"contracts/ammv2.sol\":8766:8797  IERC20(tokenAAddress).balanceOf */\n      0xffffffffffffffffffffffffffffffffffffffff\n      and\n      0x70a08231\n        /* \"contracts/ammv2.sol\":8806:8810  this */\n      address\n        /* \"contracts/ammv2.sol\":8766:8812  IERC20(tokenAAddress).balanceOf(address(this)) */\n      mload(0x40)\n      dup3\n      0xffffffff\n      and\n      0xe0\n      shl\n      dup2\n      mstore\n      0x04\n      add\n      tag_455\n      swap2\n      swap1\n      tag_89\n      jump\t// in\n    tag_455:\n      0x20\n      mload(0x40)\n      dup1\n      dup4\n      sub\n      dup2\n      dup7\n      gas\n      staticcall\n      iszero\n      dup1\n      iszero\n      tag_457\n      jumpi\n      returndatasize\n      0x00\n      dup1\n      returndatacopy\n      revert(0x00, returndatasize)\n    tag_457:\n      pop\n      pop\n      pop\n      pop\n      mload(0x40)\n      returndatasize\n      not(0x1f)\n      0x1f\n      dup3\n      add\n      and\n      dup3\n      add\n      dup1\n      0x40\n      mstore\n      pop\n      dup2\n      add\n      swap1\n      tag_458\n      swap2\n      swap1\n      tag_153\n      jump\t// in\n    tag_458:\n        /* \"contracts/ammv2.sol\":8742:8812  uint256 poolTokenANum = IERC20(tokenAAddress).balanceOf(address(this)) */\n      swap1\n      pop\n        /* \"contracts/ammv2.sol\":8823:8844  uint256 poolTokenBNum */\n      0x00\n        /* \"contracts/ammv2.sol\":8854:8867  tokenBAddress */\n      0x06\n      0x00\n      swap1\n      sload\n      swap1\n      0x0100\n      exp\n      swap1\n      div\n      0xffffffffffffffffffffffffffffffffffffffff\n      and\n        /* \"contracts/ammv2.sol\":8847:8878  IERC20(tokenBAddress).balanceOf */\n      0xffffffffffffffffffffffffffffffffffffffff\n      and\n      0x70a08231\n        /* \"contracts/ammv2.sol\":8887:8891  this */\n      address\n        /* \"contracts/ammv2.sol\":8847:8893  IERC20(tokenBAddress).balanceOf(address(this)) */\n      mload(0x40)\n      dup3\n      0xffffffff\n      and\n      0xe0\n      shl\n      dup2\n      mstore\n      0x04\n      add\n      tag_459\n      swap2\n      swap1\n      tag_89\n      jump\t// in\n    tag_459:\n      0x20\n      mload(0x40)\n      dup1\n      dup4\n      sub\n      dup2\n      dup7\n      gas\n      staticcall\n      iszero\n      dup1\n      iszero\n      tag_461\n      jumpi\n      returndatasize\n      0x00\n      dup1\n      returndatacopy\n      revert(0x00, returndatasize)\n    tag_461:\n      pop\n      pop\n      pop\n      pop\n      mload(0x40)\n      returndatasize\n      not(0x1f)\n      0x1f\n      dup3\n      add\n      and\n      dup3\n      add\n      dup1\n      0x40\n      mstore\n      pop\n      dup2\n      add\n      swap1\n      tag_462\n      swap2\n      swap1\n      tag_153\n      jump\t// in\n    tag_462:\n        /* \"contracts/ammv2.sol\":8823:8893  uint256 poolTokenBNum = IERC20(tokenBAddress).balanceOf(address(this)) */\n      swap1\n      pop\n        /* \"contracts/ammv2.sol\":8926:8927  0 */\n      0x00\n        /* \"contracts/ammv2.sol\":8914:8923  amountAIn */\n      dup5\n        /* \"contracts/ammv2.sol\":8914:8927  amountAIn > 0 */\n      gt\n        /* \"contracts/ammv2.sol\":8906:8946  require(amountAIn > 0, \"Invalid amount\") */\n      tag_463\n      jumpi\n      mload(0x40)\n      0x08c379a000000000000000000000000000000000000000000000000000000000\n      dup2\n      mstore\n      0x04\n      add\n      tag_464\n      swap1\n      tag_160\n      jump\t// in\n    tag_464:\n      mload(0x40)\n      dup1\n      swap2\n      sub\n      swap1\n      revert\n    tag_463:\n        /* \"contracts/ammv2.sol\":8981:8982  0 */\n      0x00\n        /* \"contracts/ammv2.sol\":8965:8978  poolTokenANum */\n      dup3\n        /* \"contracts/ammv2.sol\":8965:8982  poolTokenANum > 0 */\n      gt\n        /* \"contracts/ammv2.sol\":8965:9003  poolTokenANum > 0 && poolTokenBNum > 0 */\n      dup1\n      iszero\n      tag_465\n      jumpi\n      pop\n        /* \"contracts/ammv2.sol\":9002:9003  0 */\n      0x00\n        /* \"contracts/ammv2.sol\":8986:8999  poolTokenBNum */\n      dup2\n        /* \"contracts/ammv2.sol\":8986:9003  poolTokenBNum > 0 */\n      gt\n        /* \"contracts/ammv2.sol\":8965:9003  poolTokenANum > 0 && poolTokenBNum > 0 */\n    tag_465:\n        /* \"contracts/ammv2.sol\":8957:9028  require(poolTokenANum > 0 && poolTokenBNum > 0, \"Pool not initialized\") */\n      tag_466\n      jumpi\n      mload(0x40)\n      0x08c379a000000000000000000000000000000000000000000000000000000000\n      dup2\n      mstore\n      0x04\n      add\n      tag_467\n      swap1\n      tag_164\n      jump\t// in\n    tag_467:\n      mload(0x40)\n      dup1\n      swap2\n      sub\n      swap1\n      revert\n    tag_466:\n        /* \"contracts/ammv2.sol\":9049:9073  uint256 amountAInWithFee */\n      0x00\n        /* \"contracts/ammv2.sol\":986:990  1000 */\n      0x03e8\n        /* \"contracts/ammv2.sol\":936:937  3 */\n      0x03\n        /* \"contracts/ammv2.sol\":986:990  1000 */\n      0x03e8\n        /* \"contracts/ammv2.sol\":9089:9115  FEE_DENOMINATOR - FEE_RATE */\n      tag_468\n      swap2\n      swap1\n      tag_166\n      jump\t// in\n    tag_468:\n        /* \"contracts/ammv2.sol\":9076:9085  amountAIn */\n      dup7\n        /* \"contracts/ammv2.sol\":9076:9116  amountAIn * (FEE_DENOMINATOR - FEE_RATE) */\n      tag_469\n      swap2\n      swap1\n      tag_168\n      jump\t// in\n    tag_469:\n        /* \"contracts/ammv2.sol\":9076:9134  amountAIn * (FEE_DENOMINATOR - FEE_RATE) / FEE_DENOMINATOR */\n      tag_470\n      swap2\n      swap1\n      tag_170\n      jump\t// in\n    tag_470:\n        /* \"contracts/ammv2.sol\":9049:9134  uint256 amountAInWithFee = amountAIn * (FEE_DENOMINATOR - FEE_RATE) / FEE_DENOMINATOR */\n      swap1\n      pop\n        /* \"contracts/ammv2.sol\":9212:9228  amountAInWithFee */\n      dup1\n        /* \"contracts/ammv2.sol\":9196:9209  poolTokenANum */\n      dup4\n        /* \"contracts/ammv2.sol\":9196:9228  poolTokenANum + amountAInWithFee */\n      tag_471\n      swap2\n      swap1\n      tag_172\n      jump\t// in\n    tag_471:\n        /* \"contracts/ammv2.sol\":9175:9191  amountAInWithFee */\n      dup2\n        /* \"contracts/ammv2.sol\":9159:9172  poolTokenBNum */\n      dup4\n        /* \"contracts/ammv2.sol\":9159:9191  poolTokenBNum * amountAInWithFee */\n      tag_472\n      swap2\n      swap1\n      tag_168\n      jump\t// in\n    tag_472:\n        /* \"contracts/ammv2.sol\":9158:9229  (poolTokenBNum * amountAInWithFee) / (poolTokenANum + amountAInWithFee) */\n      tag_473\n      swap2\n      swap1\n      tag_170\n      jump\t// in\n    tag_473:\n        /* \"contracts/ammv2.sol\":9145:9229  amountBOut = (poolTokenBNum * amountAInWithFee) / (poolTokenANum + amountAInWithFee) */\n      swap4\n      pop\n        /* \"contracts/ammv2.sol\":8731:9237  {... */\n      pop\n      pop\n      pop\n        /* \"contracts/ammv2.sol\":8646:9237  function getAmountBOut(uint256 amountAIn) external view returns (uint256 amountBOut) {... */\n      swap2\n      swap1\n      pop\n      jump\t// out\n        /* \"contracts/ammv2.sol\":11615:11783  function transferOwnership(address newOwner) external onlyPoolOwner {... */\n    tag_141:\n        /* \"contracts/ammv2.sol\":1805:1814  poolOwner */\n      0x00\n      dup1\n      sload\n      swap1\n      0x0100\n      exp\n      swap1\n      div\n      0xffffffffffffffffffffffffffffffffffffffff\n      and\n        /* \"contracts/ammv2.sol\":1791:1814  msg.sender == poolOwner */\n      0xffffffffffffffffffffffffffffffffffffffff\n      and\n        /* \"contracts/ammv2.sol\":1791:1801  msg.sender */\n      caller\n        /* \"contracts/ammv2.sol\":1791:1814  msg.sender == poolOwner */\n      0xffffffffffffffffffffffffffffffffffffffff\n      and\n      eq\n        /* \"contracts/ammv2.sol\":1783:1857  require(msg.sender == poolOwner, \"Only pool owner can call this function\") */\n      tag_475\n      jumpi\n      mload(0x40)\n      0x08c379a000000000000000000000000000000000000000000000000000000000\n      dup2\n      mstore\n      0x04\n      add\n      tag_476\n      swap1\n      tag_350\n      jump\t// in\n    tag_476:\n      mload(0x40)\n      dup1\n      swap2\n      sub\n      swap1\n      revert\n    tag_475:\n        /* \"contracts/ammv2.sol\":11722:11723  0 */\n      0x00\n        /* \"contracts/ammv2.sol\":11702:11724  newOwner != address(0) */\n      0xffffffffffffffffffffffffffffffffffffffff\n      and\n        /* \"contracts/ammv2.sol\":11702:11710  newOwner */\n      dup2\n        /* \"contracts/ammv2.sol\":11702:11724  newOwner != address(0) */\n      0xffffffffffffffffffffffffffffffffffffffff\n      and\n      sub\n        /* \"contracts/ammv2.sol\":11694:11744  require(newOwner != address(0), \"Invalid address\") */\n      tag_478\n      jumpi\n      mload(0x40)\n      0x08c379a000000000000000000000000000000000000000000000000000000000\n      dup2\n      mstore\n      0x04\n      add\n      tag_479\n      swap1\n      tag_480\n      jump\t// in\n    tag_479:\n      mload(0x40)\n      dup1\n      swap2\n      sub\n      swap1\n      revert\n    tag_478:\n        /* \"contracts/ammv2.sol\":11767:11775  newOwner */\n      dup1\n        /* \"contracts/ammv2.sol\":11755:11764  poolOwner */\n      0x00\n      dup1\n        /* \"contracts/ammv2.sol\":11755:11775  poolOwner = newOwner */\n      0x0100\n      exp\n      dup2\n      sload\n      dup2\n      0xffffffffffffffffffffffffffffffffffffffff\n      mul\n      not\n      and\n      swap1\n      dup4\n      0xffffffffffffffffffffffffffffffffffffffff\n      and\n      mul\n      or\n      swap1\n      sstore\n      pop\n        /* \"contracts/ammv2.sol\":11615:11783  function transferOwnership(address newOwner) external onlyPoolOwner {... */\n      pop\n      jump\t// out\n        /* \"contracts/ammv2.sol\":824:852  address public tokenBAddress */\n    tag_143:\n      0x06\n      0x00\n      swap1\n      sload\n      swap1\n      0x0100\n      exp\n      swap1\n      div\n      0xffffffffffffffffffffffffffffffffffffffff\n      and\n      dup2\n      jump\t// out\n        /* \"contracts/ammv2.sol\":678:711  uint256 public lpTokenTotalSupply */\n    tag_146:\n      sload(0x03)\n      dup2\n      jump\t// out\n        /* \"contracts/ammv2.sol\":2373:3042  function updatePrice() private {... */\n    tag_199:\n        /* \"contracts/ammv2.sol\":2415:2436  uint256 poolTokenANum */\n      0x00\n        /* \"contracts/ammv2.sol\":2446:2459  tokenAAddress */\n      0x05\n      0x00\n      swap1\n      sload\n      swap1\n      0x0100\n      exp\n      swap1\n      div\n      0xffffffffffffffffffffffffffffffffffffffff\n      and\n        /* \"contracts/ammv2.sol\":2439:2470  IERC20(tokenAAddress).balanceOf */\n      0xffffffffffffffffffffffffffffffffffffffff\n      and\n      0x70a08231\n        /* \"contracts/ammv2.sol\":2479:2483  this */\n      address\n        /* \"contracts/ammv2.sol\":2439:2485  IERC20(tokenAAddress).balanceOf(address(this)) */\n      mload(0x40)\n      dup3\n      0xffffffff\n      and\n      0xe0\n      shl\n      dup2\n      mstore\n      0x04\n      add\n      tag_482\n      swap2\n      swap1\n      tag_89\n      jump\t// in\n    tag_482:\n      0x20\n      mload(0x40)\n      dup1\n      dup4\n      sub\n      dup2\n      dup7\n      gas\n      staticcall\n      iszero\n      dup1\n      iszero\n      tag_484\n      jumpi\n      returndatasize\n      0x00\n      dup1\n      returndatacopy\n      revert(0x00, returndatasize)\n    tag_484:\n      pop\n      pop\n      pop\n      pop\n      mload(0x40)\n      returndatasize\n      not(0x1f)\n      0x1f\n      dup3\n      add\n      and\n      dup3\n      add\n      dup1\n      0x40\n      mstore\n      pop\n      dup2\n      add\n      swap1\n      tag_485\n      swap2\n      swap1\n      tag_153\n      jump\t// in\n    tag_485:\n        /* \"contracts/ammv2.sol\":2415:2485  uint256 poolTokenANum = IERC20(tokenAAddress).balanceOf(address(this)) */\n      swap1\n      pop\n        /* \"contracts/ammv2.sol\":2496:2517  uint256 poolTokenBNum */\n      0x00\n        /* \"contracts/ammv2.sol\":2527:2540  tokenBAddress */\n      0x06\n      0x00\n      swap1\n      sload\n      swap1\n      0x0100\n      exp\n      swap1\n      div\n      0xffffffffffffffffffffffffffffffffffffffff\n      and\n        /* \"contracts/ammv2.sol\":2520:2551  IERC20(tokenBAddress).balanceOf */\n      0xffffffffffffffffffffffffffffffffffffffff\n      and\n      0x70a08231\n        /* \"contracts/ammv2.sol\":2560:2564  this */\n      address\n        /* \"contracts/ammv2.sol\":2520:2566  IERC20(tokenBAddress).balanceOf(address(this)) */\n      mload(0x40)\n      dup3\n      0xffffffff\n      and\n      0xe0\n      shl\n      dup2\n      mstore\n      0x04\n      add\n      tag_486\n      swap2\n      swap1\n      tag_89\n      jump\t// in\n    tag_486:\n      0x20\n      mload(0x40)\n      dup1\n      dup4\n      sub\n      dup2\n      dup7\n      gas\n      staticcall\n      iszero\n      dup1\n      iszero\n      tag_488\n      jumpi\n      returndatasize\n      0x00\n      dup1\n      returndatacopy\n      revert(0x00, returndatasize)\n    tag_488:\n      pop\n      pop\n      pop\n      pop\n      mload(0x40)\n      returndatasize\n      not(0x1f)\n      0x1f\n      dup3\n      add\n      and\n      dup3\n      add\n      dup1\n      0x40\n      mstore\n      pop\n      dup2\n      add\n      swap1\n      tag_489\n      swap2\n      swap1\n      tag_153\n      jump\t// in\n    tag_489:\n        /* \"contracts/ammv2.sol\":2496:2566  uint256 poolTokenBNum = IERC20(tokenBAddress).balanceOf(address(this)) */\n      swap1\n      pop\n        /* \"contracts/ammv2.sol\":2579:2595  uint256 newPrice */\n      0x00\n        /* \"contracts/ammv2.sol\":2638:2639  1 */\n      0x01\n        /* \"contracts/ammv2.sol\":2622:2635  poolTokenBNum */\n      dup3\n        /* \"contracts/ammv2.sol\":2622:2639  poolTokenBNum + 1 */\n      tag_490\n      swap2\n      swap1\n      tag_172\n      jump\t// in\n    tag_490:\n        /* \"contracts/ammv2.sol\":2614:2618  1e18 */\n      0x0de0b6b3a7640000\n        /* \"contracts/ammv2.sol\":2598:2611  poolTokenANum */\n      dup5\n        /* \"contracts/ammv2.sol\":2598:2618  poolTokenANum * 1e18 */\n      tag_491\n      swap2\n      swap1\n      tag_168\n      jump\t// in\n    tag_491:\n        /* \"contracts/ammv2.sol\":2598:2640  poolTokenANum * 1e18 / (poolTokenBNum + 1) */\n      tag_492\n      swap2\n      swap1\n      tag_170\n      jump\t// in\n    tag_492:\n        /* \"contracts/ammv2.sol\":2579:2640  uint256 newPrice = poolTokenANum * 1e18 / (poolTokenBNum + 1) */\n      swap1\n      pop\n        /* \"contracts/ammv2.sol\":2670:2671  0 */\n      0x00\n        /* \"contracts/ammv2.sol\":2659:2667  newPrice */\n      dup2\n        /* \"contracts/ammv2.sol\":2659:2671  newPrice > 0 */\n      gt\n        /* \"contracts/ammv2.sol\":2651:2698  require(newPrice > 0, \"Price must be positive\") */\n      tag_493\n      jumpi\n      mload(0x40)\n      0x08c379a000000000000000000000000000000000000000000000000000000000\n      dup2\n      mstore\n      0x04\n      add\n      tag_494\n      swap1\n      tag_495\n      jump\t// in\n    tag_494:\n      mload(0x40)\n      dup1\n      swap2\n      sub\n      swap1\n      revert\n    tag_493:\n        /* \"contracts/ammv2.sol\":2711:2730  uint256 currentTime */\n      0x00\n        /* \"contracts/ammv2.sol\":2733:2748  block.timestamp */\n      timestamp\n        /* \"contracts/ammv2.sol\":2711:2748  uint256 currentTime = block.timestamp */\n      swap1\n      pop\n        /* \"contracts/ammv2.sol\":2759:2778  uint256 timeElapsed */\n      0x00\n        /* \"contracts/ammv2.sol\":2795:2808  lastTimestamp */\n      sload(0x09)\n        /* \"contracts/ammv2.sol\":2781:2792  currentTime */\n      dup3\n        /* \"contracts/ammv2.sol\":2781:2808  currentTime - lastTimestamp */\n      tag_496\n      swap2\n      swap1\n      tag_166\n      jump\t// in\n    tag_496:\n        /* \"contracts/ammv2.sol\":2759:2808  uint256 timeElapsed = currentTime - lastTimestamp */\n      swap1\n      pop\n        /* \"contracts/ammv2.sol\":2887:2898  timeElapsed */\n      dup1\n        /* \"contracts/ammv2.sol\":2875:2884  lastPrice */\n      sload(0x08)\n        /* \"contracts/ammv2.sol\":2875:2898  lastPrice * timeElapsed */\n      tag_497\n      swap2\n      swap1\n      tag_168\n      jump\t// in\n    tag_497:\n        /* \"contracts/ammv2.sol\":2856:2871  cumulativePrice */\n      0x0a\n      0x00\n        /* \"contracts/ammv2.sol\":2856:2898  cumulativePrice += lastPrice * timeElapsed */\n      dup3\n      dup3\n      sload\n      tag_498\n      swap2\n      swap1\n      tag_172\n      jump\t// in\n    tag_498:\n      swap3\n      pop\n      pop\n      dup2\n      swap1\n      sstore\n      pop\n        /* \"contracts/ammv2.sol\":2927:2938  timeElapsed */\n      dup1\n        /* \"contracts/ammv2.sol\":2909:2923  cumulativeTime */\n      0x0b\n      0x00\n        /* \"contracts/ammv2.sol\":2909:2938  cumulativeTime += timeElapsed */\n      dup3\n      dup3\n      sload\n      tag_499\n      swap2\n      swap1\n      tag_172\n      jump\t// in\n    tag_499:\n      swap3\n      pop\n      pop\n      dup2\n      swap1\n      sstore\n      pop\n        /* \"contracts/ammv2.sol\":2988:2996  newPrice */\n      dup3\n        /* \"contracts/ammv2.sol\":2976:2985  lastPrice */\n      0x08\n        /* \"contracts/ammv2.sol\":2976:2996  lastPrice = newPrice */\n      dup2\n      swap1\n      sstore\n      pop\n        /* \"contracts/ammv2.sol\":3023:3034  currentTime */\n      dup2\n        /* \"contracts/ammv2.sol\":3007:3020  lastTimestamp */\n      0x09\n        /* \"contracts/ammv2.sol\":3007:3034  lastTimestamp = currentTime */\n      dup2\n      swap1\n      sstore\n      pop\n        /* \"contracts/ammv2.sol\":2404:3042  {... */\n      pop\n      pop\n      pop\n      pop\n      pop\n        /* \"contracts/ammv2.sol\":2373:3042  function updatePrice() private {... */\n      jump\t// out\n        /* \"#utility.yul\":88:205   */\n    tag_501:\n        /* \"#utility.yul\":197:198   */\n      0x00\n        /* \"#utility.yul\":194:195   */\n      dup1\n        /* \"#utility.yul\":187:199   */\n      revert\n        /* \"#utility.yul\":334:411   */\n    tag_503:\n        /* \"#utility.yul\":371:378   */\n      0x00\n        /* \"#utility.yul\":400:405   */\n      dup2\n        /* \"#utility.yul\":389:405   */\n      swap1\n      pop\n        /* \"#utility.yul\":334:411   */\n      swap2\n      swap1\n      pop\n      jump\t// out\n        /* \"#utility.yul\":417:539   */\n    tag_504:\n        /* \"#utility.yul\":490:514   */\n      tag_556\n        /* \"#utility.yul\":508:513   */\n      dup2\n        /* \"#utility.yul\":490:514   */\n      tag_503\n      jump\t// in\n    tag_556:\n        /* \"#utility.yul\":483:488   */\n      dup2\n        /* \"#utility.yul\":480:515   */\n      eq\n        /* \"#utility.yul\":470:533   */\n      tag_557\n      jumpi\n        /* \"#utility.yul\":529:530   */\n      0x00\n        /* \"#utility.yul\":526:527   */\n      dup1\n        /* \"#utility.yul\":519:531   */\n      revert\n        /* \"#utility.yul\":470:533   */\n    tag_557:\n        /* \"#utility.yul\":417:539   */\n      pop\n      jump\t// out\n        /* \"#utility.yul\":545:684   */\n    tag_505:\n        /* \"#utility.yul\":591:596   */\n      0x00\n        /* \"#utility.yul\":629:635   */\n      dup2\n        /* \"#utility.yul\":616:636   */\n      calldataload\n        /* \"#utility.yul\":607:636   */\n      swap1\n      pop\n        /* \"#utility.yul\":645:678   */\n      tag_559\n        /* \"#utility.yul\":672:677   */\n      dup2\n        /* \"#utility.yul\":645:678   */\n      tag_504\n      jump\t// in\n    tag_559:\n        /* \"#utility.yul\":545:684   */\n      swap3\n      swap2\n      pop\n      pop\n      jump\t// out\n        /* \"#utility.yul\":690:1019   */\n    tag_42:\n        /* \"#utility.yul\":749:755   */\n      0x00\n        /* \"#utility.yul\":798:800   */\n      0x20\n        /* \"#utility.yul\":786:795   */\n      dup3\n        /* \"#utility.yul\":777:784   */\n      dup5\n        /* \"#utility.yul\":773:796   */\n      sub\n        /* \"#utility.yul\":769:801   */\n      slt\n        /* \"#utility.yul\":766:885   */\n      iszero\n      tag_561\n      jumpi\n        /* \"#utility.yul\":804:883   */\n      tag_562\n      tag_501\n      jump\t// in\n    tag_562:\n        /* \"#utility.yul\":766:885   */\n    tag_561:\n        /* \"#utility.yul\":924:925   */\n      0x00\n        /* \"#utility.yul\":949:1002   */\n      tag_563\n        /* \"#utility.yul\":994:1001   */\n      dup5\n        /* \"#utility.yul\":985:991   */\n      dup3\n        /* \"#utility.yul\":974:983   */\n      dup6\n        /* \"#utility.yul\":970:992   */\n      add\n        /* \"#utility.yul\":949:1002   */\n      tag_505\n      jump\t// in\n    tag_563:\n        /* \"#utility.yul\":939:1002   */\n      swap2\n      pop\n        /* \"#utility.yul\":895:1012   */\n      pop\n        /* \"#utility.yul\":690:1019   */\n      swap3\n      swap2\n      pop\n      pop\n      jump\t// out\n        /* \"#utility.yul\":1025:1143   */\n    tag_506:\n        /* \"#utility.yul\":1112:1136   */\n      tag_565\n        /* \"#utility.yul\":1130:1135   */\n      dup2\n        /* \"#utility.yul\":1112:1136   */\n      tag_503\n      jump\t// in\n    tag_565:\n        /* \"#utility.yul\":1107:1110   */\n      dup3\n        /* \"#utility.yul\":1100:1137   */\n      mstore\n        /* \"#utility.yul\":1025:1143   */\n      pop\n      pop\n      jump\t// out\n        /* \"#utility.yul\":1149:1371   */\n    tag_45:\n        /* \"#utility.yul\":1242:1246   */\n      0x00\n        /* \"#utility.yul\":1280:1282   */\n      0x20\n        /* \"#utility.yul\":1269:1278   */\n      dup3\n        /* \"#utility.yul\":1265:1283   */\n      add\n        /* \"#utility.yul\":1257:1283   */\n      swap1\n      pop\n        /* \"#utility.yul\":1293:1364   */\n      tag_567\n        /* \"#utility.yul\":1361:1362   */\n      0x00\n        /* \"#utility.yul\":1350:1359   */\n      dup4\n        /* \"#utility.yul\":1346:1363   */\n      add\n        /* \"#utility.yul\":1337:1343   */\n      dup5\n        /* \"#utility.yul\":1293:1364   */\n      tag_506\n      jump\t// in\n    tag_567:\n        /* \"#utility.yul\":1149:1371   */\n      swap3\n      swap2\n      pop\n      pop\n      jump\t// out\n        /* \"#utility.yul\":1377:1503   */\n    tag_507:\n        /* \"#utility.yul\":1414:1421   */\n      0x00\n        /* \"#utility.yul\":1454:1496   */\n      0xffffffffffffffffffffffffffffffffffffffff\n        /* \"#utility.yul\":1447:1452   */\n      dup3\n        /* \"#utility.yul\":1443:1497   */\n      and\n        /* \"#utility.yul\":1432:1497   */\n      swap1\n      pop\n        /* \"#utility.yul\":1377:1503   */\n      swap2\n      swap1\n      pop\n      jump\t// out\n        /* \"#utility.yul\":1509:1605   */\n    tag_508:\n        /* \"#utility.yul\":1546:1553   */\n      0x00\n        /* \"#utility.yul\":1575:1599   */\n      tag_570\n        /* \"#utility.yul\":1593:1598   */\n      dup3\n        /* \"#utility.yul\":1575:1599   */\n      tag_507\n      jump\t// in\n    tag_570:\n        /* \"#utility.yul\":1564:1599   */\n      swap1\n      pop\n        /* \"#utility.yul\":1509:1605   */\n      swap2\n      swap1\n      pop\n      jump\t// out\n        /* \"#utility.yul\":1611:1733   */\n    tag_509:\n        /* \"#utility.yul\":1684:1708   */\n      tag_572\n        /* \"#utility.yul\":1702:1707   */\n      dup2\n        /* \"#utility.yul\":1684:1708   */\n      tag_508\n      jump\t// in\n    tag_572:\n        /* \"#utility.yul\":1677:1682   */\n      dup2\n        /* \"#utility.yul\":1674:1709   */\n      eq\n        /* \"#utility.yul\":1664:1727   */\n      tag_573\n      jumpi\n        /* \"#utility.yul\":1723:1724   */\n      0x00\n        /* \"#utility.yul\":1720:1721   */\n      dup1\n        /* \"#utility.yul\":1713:1725   */\n      revert\n        /* \"#utility.yul\":1664:1727   */\n    tag_573:\n        /* \"#utility.yul\":1611:1733   */\n      pop\n      jump\t// out\n        /* \"#utility.yul\":1739:1878   */\n    tag_510:\n        /* \"#utility.yul\":1785:1790   */\n      0x00\n        /* \"#utility.yul\":1823:1829   */\n      dup2\n        /* \"#utility.yul\":1810:1830   */\n      calldataload\n        /* \"#utility.yul\":1801:1830   */\n      swap1\n      pop\n        /* \"#utility.yul\":1839:1872   */\n      tag_575\n        /* \"#utility.yul\":1866:1871   */\n      dup2\n        /* \"#utility.yul\":1839:1872   */\n      tag_509\n      jump\t// in\n    tag_575:\n        /* \"#utility.yul\":1739:1878   */\n      swap3\n      swap2\n      pop\n      pop\n      jump\t// out\n        /* \"#utility.yul\":1884:2213   */\n    tag_51:\n        /* \"#utility.yul\":1943:1949   */\n      0x00\n        /* \"#utility.yul\":1992:1994   */\n      0x20\n        /* \"#utility.yul\":1980:1989   */\n      dup3\n        /* \"#utility.yul\":1971:1978   */\n      dup5\n        /* \"#utility.yul\":1967:1990   */\n      sub\n        /* \"#utility.yul\":1963:1995   */\n      slt\n        /* \"#utility.yul\":1960:2079   */\n      iszero\n      tag_577\n      jumpi\n        /* \"#utility.yul\":1998:2077   */\n      tag_578\n      tag_501\n      jump\t// in\n    tag_578:\n        /* \"#utility.yul\":1960:2079   */\n    tag_577:\n        /* \"#utility.yul\":2118:2119   */\n      0x00\n        /* \"#utility.yul\":2143:2196   */\n      tag_579\n        /* \"#utility.yul\":2188:2195   */\n      dup5\n        /* \"#utility.yul\":2179:2185   */\n      dup3\n        /* \"#utility.yul\":2168:2177   */\n      dup6\n        /* \"#utility.yul\":2164:2186   */\n      add\n        /* \"#utility.yul\":2143:2196   */\n      tag_510\n      jump\t// in\n    tag_579:\n        /* \"#utility.yul\":2133:2196   */\n      swap2\n      pop\n        /* \"#utility.yul\":2089:2206   */\n      pop\n        /* \"#utility.yul\":1884:2213   */\n      swap3\n      swap2\n      pop\n      pop\n      jump\t// out\n        /* \"#utility.yul\":2219:2838   */\n    tag_62:\n        /* \"#utility.yul\":2296:2302   */\n      0x00\n        /* \"#utility.yul\":2304:2310   */\n      dup1\n        /* \"#utility.yul\":2312:2318   */\n      0x00\n        /* \"#utility.yul\":2361:2363   */\n      0x60\n        /* \"#utility.yul\":2349:2358   */\n      dup5\n        /* \"#utility.yul\":2340:2347   */\n      dup7\n        /* \"#utility.yul\":2336:2359   */\n      sub\n        /* \"#utility.yul\":2332:2364   */\n      slt\n        /* \"#utility.yul\":2329:2448   */\n      iszero\n      tag_581\n      jumpi\n        /* \"#utility.yul\":2367:2446   */\n      tag_582\n      tag_501\n      jump\t// in\n    tag_582:\n        /* \"#utility.yul\":2329:2448   */\n    tag_581:\n        /* \"#utility.yul\":2487:2488   */\n      0x00\n        /* \"#utility.yul\":2512:2565   */\n      tag_583\n        /* \"#utility.yul\":2557:2564   */\n      dup7\n        /* \"#utility.yul\":2548:2554   */\n      dup3\n        /* \"#utility.yul\":2537:2546   */\n      dup8\n        /* \"#utility.yul\":2533:2555   */\n      add\n        /* \"#utility.yul\":2512:2565   */\n      tag_505\n      jump\t// in\n    tag_583:\n        /* \"#utility.yul\":2502:2565   */\n      swap4\n      pop\n        /* \"#utility.yul\":2458:2575   */\n      pop\n        /* \"#utility.yul\":2614:2616   */\n      0x20\n        /* \"#utility.yul\":2640:2693   */\n      tag_584\n        /* \"#utility.yul\":2685:2692   */\n      dup7\n        /* \"#utility.yul\":2676:2682   */\n      dup3\n        /* \"#utility.yul\":2665:2674   */\n      dup8\n        /* \"#utility.yul\":2661:2683   */\n      add\n        /* \"#utility.yul\":2640:2693   */\n      tag_505\n      jump\t// in\n    tag_584:\n        /* \"#utility.yul\":2630:2693   */\n      swap3\n      pop\n        /* \"#utility.yul\":2585:2703   */\n      pop\n        /* \"#utility.yul\":2742:2744   */\n      0x40\n        /* \"#utility.yul\":2768:2821   */\n      tag_585\n        /* \"#utility.yul\":2813:2820   */\n      dup7\n        /* \"#utility.yul\":2804:2810   */\n      dup3\n        /* \"#utility.yul\":2793:2802   */\n      dup8\n        /* \"#utility.yul\":2789:2811   */\n      add\n        /* \"#utility.yul\":2768:2821   */\n      tag_510\n      jump\t// in\n    tag_585:\n        /* \"#utility.yul\":2758:2821   */\n      swap2\n      pop\n        /* \"#utility.yul\":2713:2831   */\n      pop\n        /* \"#utility.yul\":2219:2838   */\n      swap3\n      pop\n      swap3\n      pop\n      swap3\n      jump\t// out\n        /* \"#utility.yul\":2844:2934   */\n    tag_511:\n        /* \"#utility.yul\":2878:2885   */\n      0x00\n        /* \"#utility.yul\":2921:2926   */\n      dup2\n        /* \"#utility.yul\":2914:2927   */\n      iszero\n        /* \"#utility.yul\":2907:2928   */\n      iszero\n        /* \"#utility.yul\":2896:2928   */\n      swap1\n      pop\n        /* \"#utility.yul\":2844:2934   */\n      swap2\n      swap1\n      pop\n      jump\t// out\n        /* \"#utility.yul\":2940:3049   */\n    tag_512:\n        /* \"#utility.yul\":3021:3042   */\n      tag_588\n        /* \"#utility.yul\":3036:3041   */\n      dup2\n        /* \"#utility.yul\":3021:3042   */\n      tag_511\n      jump\t// in\n    tag_588:\n        /* \"#utility.yul\":3016:3019   */\n      dup3\n        /* \"#utility.yul\":3009:3043   */\n      mstore\n        /* \"#utility.yul\":2940:3049   */\n      pop\n      pop\n      jump\t// out\n        /* \"#utility.yul\":3055:3265   */\n    tag_65:\n        /* \"#utility.yul\":3142:3146   */\n      0x00\n        /* \"#utility.yul\":3180:3182   */\n      0x20\n        /* \"#utility.yul\":3169:3178   */\n      dup3\n        /* \"#utility.yul\":3165:3183   */\n      add\n        /* \"#utility.yul\":3157:3183   */\n      swap1\n      pop\n        /* \"#utility.yul\":3193:3258   */\n      tag_590\n        /* \"#utility.yul\":3255:3256   */\n      0x00\n        /* \"#utility.yul\":3244:3253   */\n      dup4\n        /* \"#utility.yul\":3240:3257   */\n      add\n        /* \"#utility.yul\":3231:3237   */\n      dup5\n        /* \"#utility.yul\":3193:3258   */\n      tag_512\n      jump\t// in\n    tag_590:\n        /* \"#utility.yul\":3055:3265   */\n      swap3\n      swap2\n      pop\n      pop\n      jump\t// out\n        /* \"#utility.yul\":3271:3824   */\n    tag_82:\n        /* \"#utility.yul\":3448:3452   */\n      0x00\n        /* \"#utility.yul\":3486:3489   */\n      0x80\n        /* \"#utility.yul\":3475:3484   */\n      dup3\n        /* \"#utility.yul\":3471:3490   */\n      add\n        /* \"#utility.yul\":3463:3490   */\n      swap1\n      pop\n        /* \"#utility.yul\":3500:3571   */\n      tag_592\n        /* \"#utility.yul\":3568:3569   */\n      0x00\n        /* \"#utility.yul\":3557:3566   */\n      dup4\n        /* \"#utility.yul\":3553:3570   */\n      add\n        /* \"#utility.yul\":3544:3550   */\n      dup8\n        /* \"#utility.yul\":3500:3571   */\n      tag_506\n      jump\t// in\n    tag_592:\n        /* \"#utility.yul\":3581:3653   */\n      tag_593\n        /* \"#utility.yul\":3649:3651   */\n      0x20\n        /* \"#utility.yul\":3638:3647   */\n      dup4\n        /* \"#utility.yul\":3634:3652   */\n      add\n        /* \"#utility.yul\":3625:3631   */\n      dup7\n        /* \"#utility.yul\":3581:3653   */\n      tag_506\n      jump\t// in\n    tag_593:\n        /* \"#utility.yul\":3663:3735   */\n      tag_594\n        /* \"#utility.yul\":3731:3733   */\n      0x40\n        /* \"#utility.yul\":3720:3729   */\n      dup4\n        /* \"#utility.yul\":3716:3734   */\n      add\n        /* \"#utility.yul\":3707:3713   */\n      dup6\n        /* \"#utility.yul\":3663:3735   */\n      tag_506\n      jump\t// in\n    tag_594:\n        /* \"#utility.yul\":3745:3817   */\n      tag_595\n        /* \"#utility.yul\":3813:3815   */\n      0x60\n        /* \"#utility.yul\":3802:3811   */\n      dup4\n        /* \"#utility.yul\":3798:3816   */\n      add\n        /* \"#utility.yul\":3789:3795   */\n      dup5\n        /* \"#utility.yul\":3745:3817   */\n      tag_506\n      jump\t// in\n    tag_595:\n        /* \"#utility.yul\":3271:3824   */\n      swap6\n      swap5\n      pop\n      pop\n      pop\n      pop\n      pop\n      jump\t// out\n        /* \"#utility.yul\":3830:3948   */\n    tag_513:\n        /* \"#utility.yul\":3917:3941   */\n      tag_597\n        /* \"#utility.yul\":3935:3940   */\n      dup2\n        /* \"#utility.yul\":3917:3941   */\n      tag_508\n      jump\t// in\n    tag_597:\n        /* \"#utility.yul\":3912:3915   */\n      dup3\n        /* \"#utility.yul\":3905:3942   */\n      mstore\n        /* \"#utility.yul\":3830:3948   */\n      pop\n      pop\n      jump\t// out\n        /* \"#utility.yul\":3954:4176   */\n    tag_89:\n        /* \"#utility.yul\":4047:4051   */\n      0x00\n        /* \"#utility.yul\":4085:4087   */\n      0x20\n        /* \"#utility.yul\":4074:4083   */\n      dup3\n        /* \"#utility.yul\":4070:4088   */\n      add\n        /* \"#utility.yul\":4062:4088   */\n      swap1\n      pop\n        /* \"#utility.yul\":4098:4169   */\n      tag_599\n        /* \"#utility.yul\":4166:4167   */\n      0x00\n        /* \"#utility.yul\":4155:4164   */\n      dup4\n        /* \"#utility.yul\":4151:4168   */\n      add\n        /* \"#utility.yul\":4142:4148   */\n      dup5\n        /* \"#utility.yul\":4098:4169   */\n      tag_513\n      jump\t// in\n    tag_599:\n        /* \"#utility.yul\":3954:4176   */\n      swap3\n      swap2\n      pop\n      pop\n      jump\t// out\n        /* \"#utility.yul\":4182:4514   */\n    tag_98:\n        /* \"#utility.yul\":4303:4307   */\n      0x00\n        /* \"#utility.yul\":4341:4343   */\n      0x40\n        /* \"#utility.yul\":4330:4339   */\n      dup3\n        /* \"#utility.yul\":4326:4344   */\n      add\n        /* \"#utility.yul\":4318:4344   */\n      swap1\n      pop\n        /* \"#utility.yul\":4354:4425   */\n      tag_601\n        /* \"#utility.yul\":4422:4423   */\n      0x00\n        /* \"#utility.yul\":4411:4420   */\n      dup4\n        /* \"#utility.yul\":4407:4424   */\n      add\n        /* \"#utility.yul\":4398:4404   */\n      dup6\n        /* \"#utility.yul\":4354:4425   */\n      tag_506\n      jump\t// in\n    tag_601:\n        /* \"#utility.yul\":4435:4507   */\n      tag_602\n        /* \"#utility.yul\":4503:4505   */\n      0x20\n        /* \"#utility.yul\":4492:4501   */\n      dup4\n        /* \"#utility.yul\":4488:4506   */\n      add\n        /* \"#utility.yul\":4479:4485   */\n      dup5\n        /* \"#utility.yul\":4435:4507   */\n      tag_506\n      jump\t// in\n    tag_602:\n        /* \"#utility.yul\":4182:4514   */\n      swap4\n      swap3\n      pop\n      pop\n      pop\n      jump\t// out\n        /* \"#utility.yul\":4520:4994   */\n    tag_101:\n        /* \"#utility.yul\":4588:4594   */\n      0x00\n        /* \"#utility.yul\":4596:4602   */\n      dup1\n        /* \"#utility.yul\":4645:4647   */\n      0x40\n        /* \"#utility.yul\":4633:4642   */\n      dup4\n        /* \"#utility.yul\":4624:4631   */\n      dup6\n        /* \"#utility.yul\":4620:4643   */\n      sub\n        /* \"#utility.yul\":4616:4648   */\n      slt\n        /* \"#utility.yul\":4613:4732   */\n      iszero\n      tag_604\n      jumpi\n        /* \"#utility.yul\":4651:4730   */\n      tag_605\n      tag_501\n      jump\t// in\n    tag_605:\n        /* \"#utility.yul\":4613:4732   */\n    tag_604:\n        /* \"#utility.yul\":4771:4772   */\n      0x00\n        /* \"#utility.yul\":4796:4849   */\n      tag_606\n        /* \"#utility.yul\":4841:4848   */\n      dup6\n        /* \"#utility.yul\":4832:4838   */\n      dup3\n        /* \"#utility.yul\":4821:4830   */\n      dup7\n        /* \"#utility.yul\":4817:4839   */\n      add\n        /* \"#utility.yul\":4796:4849   */\n      tag_505\n      jump\t// in\n    tag_606:\n        /* \"#utility.yul\":4786:4849   */\n      swap3\n      pop\n        /* \"#utility.yul\":4742:4859   */\n      pop\n        /* \"#utility.yul\":4898:4900   */\n      0x20\n        /* \"#utility.yul\":4924:4977   */\n      tag_607\n        /* \"#utility.yul\":4969:4976   */\n      dup6\n        /* \"#utility.yul\":4960:4966   */\n      dup3\n        /* \"#utility.yul\":4949:4958   */\n      dup7\n        /* \"#utility.yul\":4945:4967   */\n      add\n        /* \"#utility.yul\":4924:4977   */\n      tag_505\n      jump\t// in\n    tag_607:\n        /* \"#utility.yul\":4914:4977   */\n      swap2\n      pop\n        /* \"#utility.yul\":4869:4987   */\n      pop\n        /* \"#utility.yul\":4520:4994   */\n      swap3\n      pop\n      swap3\n      swap1\n      pop\n      jump\t// out\n        /* \"#utility.yul\":5000:5143   */\n    tag_514:\n        /* \"#utility.yul\":5057:5062   */\n      0x00\n        /* \"#utility.yul\":5088:5094   */\n      dup2\n        /* \"#utility.yul\":5082:5095   */\n      mload\n        /* \"#utility.yul\":5073:5095   */\n      swap1\n      pop\n        /* \"#utility.yul\":5104:5137   */\n      tag_609\n        /* \"#utility.yul\":5131:5136   */\n      dup2\n        /* \"#utility.yul\":5104:5137   */\n      tag_504\n      jump\t// in\n    tag_609:\n        /* \"#utility.yul\":5000:5143   */\n      swap3\n      swap2\n      pop\n      pop\n      jump\t// out\n        /* \"#utility.yul\":5149:5500   */\n    tag_153:\n        /* \"#utility.yul\":5219:5225   */\n      0x00\n        /* \"#utility.yul\":5268:5270   */\n      0x20\n        /* \"#utility.yul\":5256:5265   */\n      dup3\n        /* \"#utility.yul\":5247:5254   */\n      dup5\n        /* \"#utility.yul\":5243:5266   */\n      sub\n        /* \"#utility.yul\":5239:5271   */\n      slt\n        /* \"#utility.yul\":5236:5355   */\n      iszero\n      tag_611\n      jumpi\n        /* \"#utility.yul\":5274:5353   */\n      tag_612\n      tag_501\n      jump\t// in\n    tag_612:\n        /* \"#utility.yul\":5236:5355   */\n    tag_611:\n        /* \"#utility.yul\":5394:5395   */\n      0x00\n        /* \"#utility.yul\":5419:5483   */\n      tag_613\n        /* \"#utility.yul\":5475:5482   */\n      dup5\n        /* \"#utility.yul\":5466:5472   */\n      dup3\n        /* \"#utility.yul\":5455:5464   */\n      dup6\n        /* \"#utility.yul\":5451:5473   */\n      add\n        /* \"#utility.yul\":5419:5483   */\n      tag_514\n      jump\t// in\n    tag_613:\n        /* \"#utility.yul\":5409:5483   */\n      swap2\n      pop\n        /* \"#utility.yul\":5365:5493   */\n      pop\n        /* \"#utility.yul\":5149:5500   */\n      swap3\n      swap2\n      pop\n      pop\n      jump\t// out\n        /* \"#utility.yul\":5506:5675   */\n    tag_515:\n        /* \"#utility.yul\":5590:5601   */\n      0x00\n        /* \"#utility.yul\":5624:5630   */\n      dup3\n        /* \"#utility.yul\":5619:5622   */\n      dup3\n        /* \"#utility.yul\":5612:5631   */\n      mstore\n        /* \"#utility.yul\":5664:5668   */\n      0x20\n        /* \"#utility.yul\":5659:5662   */\n      dup3\n        /* \"#utility.yul\":5655:5669   */\n      add\n        /* \"#utility.yul\":5640:5669   */\n      swap1\n      pop\n        /* \"#utility.yul\":5506:5675   */\n      swap3\n      swap2\n      pop\n      pop\n      jump\t// out\n        /* \"#utility.yul\":5681:5845   */\n    tag_516:\n        /* \"#utility.yul\":5821:5837   */\n      0x496e76616c696420616d6f756e74000000000000000000000000000000000000\n        /* \"#utility.yul\":5817:5818   */\n      0x00\n        /* \"#utility.yul\":5809:5815   */\n      dup3\n        /* \"#utility.yul\":5805:5819   */\n      add\n        /* \"#utility.yul\":5798:5838   */\n      mstore\n        /* \"#utility.yul\":5681:5845   */\n      pop\n      jump\t// out\n        /* \"#utility.yul\":5851:6217   */\n    tag_517:\n        /* \"#utility.yul\":5993:5996   */\n      0x00\n        /* \"#utility.yul\":6014:6081   */\n      tag_617\n        /* \"#utility.yul\":6078:6080   */\n      0x0e\n        /* \"#utility.yul\":6073:6076   */\n      dup4\n        /* \"#utility.yul\":6014:6081   */\n      tag_515\n      jump\t// in\n    tag_617:\n        /* \"#utility.yul\":6007:6081   */\n      swap2\n      pop\n        /* \"#utility.yul\":6090:6183   */\n      tag_618\n        /* \"#utility.yul\":6179:6182   */\n      dup3\n        /* \"#utility.yul\":6090:6183   */\n      tag_516\n      jump\t// in\n    tag_618:\n        /* \"#utility.yul\":6208:6210   */\n      0x20\n        /* \"#utility.yul\":6203:6206   */\n      dup3\n        /* \"#utility.yul\":6199:6211   */\n      add\n        /* \"#utility.yul\":6192:6211   */\n      swap1\n      pop\n        /* \"#utility.yul\":5851:6217   */\n      swap2\n      swap1\n      pop\n      jump\t// out\n        /* \"#utility.yul\":6223:6642   */\n    tag_160:\n        /* \"#utility.yul\":6389:6393   */\n      0x00\n        /* \"#utility.yul\":6427:6429   */\n      0x20\n        /* \"#utility.yul\":6416:6425   */\n      dup3\n        /* \"#utility.yul\":6412:6430   */\n      add\n        /* \"#utility.yul\":6404:6430   */\n      swap1\n      pop\n        /* \"#utility.yul\":6476:6485   */\n      dup2\n        /* \"#utility.yul\":6470:6474   */\n      dup2\n        /* \"#utility.yul\":6466:6486   */\n      sub\n        /* \"#utility.yul\":6462:6463   */\n      0x00\n        /* \"#utility.yul\":6451:6460   */\n      dup4\n        /* \"#utility.yul\":6447:6464   */\n      add\n        /* \"#utility.yul\":6440:6487   */\n      mstore\n        /* \"#utility.yul\":6504:6635   */\n      tag_620\n        /* \"#utility.yul\":6630:6634   */\n      dup2\n        /* \"#utility.yul\":6504:6635   */\n      tag_517\n      jump\t// in\n    tag_620:\n        /* \"#utility.yul\":6496:6635   */\n      swap1\n      pop\n        /* \"#utility.yul\":6223:6642   */\n      swap2\n      swap1\n      pop\n      jump\t// out\n        /* \"#utility.yul\":6648:6818   */\n    tag_518:\n        /* \"#utility.yul\":6788:6810   */\n      0x506f6f6c206e6f7420696e697469616c697a6564000000000000000000000000\n        /* \"#utility.yul\":6784:6785   */\n      0x00\n        /* \"#utility.yul\":6776:6782   */\n      dup3\n        /* \"#utility.yul\":6772:6786   */\n      add\n        /* \"#utility.yul\":6765:6811   */\n      mstore\n        /* \"#utility.yul\":6648:6818   */\n      pop\n      jump\t// out\n        /* \"#utility.yul\":6824:7190   */\n    tag_519:\n        /* \"#utility.yul\":6966:6969   */\n      0x00\n        /* \"#utility.yul\":6987:7054   */\n      tag_623\n        /* \"#utility.yul\":7051:7053   */\n      0x14\n        /* \"#utility.yul\":7046:7049   */\n      dup4\n        /* \"#utility.yul\":6987:7054   */\n      tag_515\n      jump\t// in\n    tag_623:\n        /* \"#utility.yul\":6980:7054   */\n      swap2\n      pop\n        /* \"#utility.yul\":7063:7156   */\n      tag_624\n        /* \"#utility.yul\":7152:7155   */\n      dup3\n        /* \"#utility.yul\":7063:7156   */\n      tag_518\n      jump\t// in\n    tag_624:\n        /* \"#utility.yul\":7181:7183   */\n      0x20\n        /* \"#utility.yul\":7176:7179   */\n      dup3\n        /* \"#utility.yul\":7172:7184   */\n      add\n        /* \"#utility.yul\":7165:7184   */\n      swap1\n      pop\n        /* \"#utility.yul\":6824:7190   */\n      swap2\n      swap1\n      pop\n      jump\t// out\n        /* \"#utility.yul\":7196:7615   */\n    tag_164:\n        /* \"#utility.yul\":7362:7366   */\n      0x00\n        /* \"#utility.yul\":7400:7402   */\n      0x20\n        /* \"#utility.yul\":7389:7398   */\n      dup3\n        /* \"#utility.yul\":7385:7403   */\n      add\n        /* \"#utility.yul\":7377:7403   */\n      swap1\n      pop\n        /* \"#utility.yul\":7449:7458   */\n      dup2\n        /* \"#utility.yul\":7443:7447   */\n      dup2\n        /* \"#utility.yul\":7439:7459   */\n      sub\n        /* \"#utility.yul\":7435:7436   */\n      0x00\n        /* \"#utility.yul\":7424:7433   */\n      dup4\n        /* \"#utility.yul\":7420:7437   */\n      add\n        /* \"#utility.yul\":7413:7460   */\n      mstore\n        /* \"#utility.yul\":7477:7608   */\n      tag_626\n        /* \"#utility.yul\":7603:7607   */\n      dup2\n        /* \"#utility.yul\":7477:7608   */\n      tag_519\n      jump\t// in\n    tag_626:\n        /* \"#utility.yul\":7469:7608   */\n      swap1\n      pop\n        /* \"#utility.yul\":7196:7615   */\n      swap2\n      swap1\n      pop\n      jump\t// out\n        /* \"#utility.yul\":7621:7801   */\n    tag_520:\n        /* \"#utility.yul\":7669:7746   */\n      0x4e487b7100000000000000000000000000000000000000000000000000000000\n        /* \"#utility.yul\":7666:7667   */\n      0x00\n        /* \"#utility.yul\":7659:7747   */\n      mstore\n        /* \"#utility.yul\":7766:7770   */\n      0x11\n        /* \"#utility.yul\":7763:7764   */\n      0x04\n        /* \"#utility.yul\":7756:7771   */\n      mstore\n        /* \"#utility.yul\":7790:7794   */\n      0x24\n        /* \"#utility.yul\":7787:7788   */\n      0x00\n        /* \"#utility.yul\":7780:7795   */\n      revert\n        /* \"#utility.yul\":7807:8001   */\n    tag_166:\n        /* \"#utility.yul\":7847:7851   */\n      0x00\n        /* \"#utility.yul\":7867:7887   */\n      tag_629\n        /* \"#utility.yul\":7885:7886   */\n      dup3\n        /* \"#utility.yul\":7867:7887   */\n      tag_503\n      jump\t// in\n    tag_629:\n        /* \"#utility.yul\":7862:7887   */\n      swap2\n      pop\n        /* \"#utility.yul\":7901:7921   */\n      tag_630\n        /* \"#utility.yul\":7919:7920   */\n      dup4\n        /* \"#utility.yul\":7901:7921   */\n      tag_503\n      jump\t// in\n    tag_630:\n        /* \"#utility.yul\":7896:7921   */\n      swap3\n      pop\n        /* \"#utility.yul\":7945:7946   */\n      dup3\n        /* \"#utility.yul\":7942:7943   */\n      dup3\n        /* \"#utility.yul\":7938:7947   */\n      sub\n        /* \"#utility.yul\":7930:7947   */\n      swap1\n      pop\n        /* \"#utility.yul\":7969:7970   */\n      dup2\n        /* \"#utility.yul\":7963:7967   */\n      dup2\n        /* \"#utility.yul\":7960:7971   */\n      gt\n        /* \"#utility.yul\":7957:7994   */\n      iszero\n      tag_631\n      jumpi\n        /* \"#utility.yul\":7974:7992   */\n      tag_632\n      tag_520\n      jump\t// in\n    tag_632:\n        /* \"#utility.yul\":7957:7994   */\n    tag_631:\n        /* \"#utility.yul\":7807:8001   */\n      swap3\n      swap2\n      pop\n      pop\n      jump\t// out\n        /* \"#utility.yul\":8007:8417   */\n    tag_168:\n        /* \"#utility.yul\":8047:8054   */\n      0x00\n        /* \"#utility.yul\":8070:8090   */\n      tag_634\n        /* \"#utility.yul\":8088:8089   */\n      dup3\n        /* \"#utility.yul\":8070:8090   */\n      tag_503\n      jump\t// in\n    tag_634:\n        /* \"#utility.yul\":8065:8090   */\n      swap2\n      pop\n        /* \"#utility.yul\":8104:8124   */\n      tag_635\n        /* \"#utility.yul\":8122:8123   */\n      dup4\n        /* \"#utility.yul\":8104:8124   */\n      tag_503\n      jump\t// in\n    tag_635:\n        /* \"#utility.yul\":8099:8124   */\n      swap3\n      pop\n        /* \"#utility.yul\":8159:8160   */\n      dup3\n        /* \"#utility.yul\":8156:8157   */\n      dup3\n        /* \"#utility.yul\":8152:8161   */\n      mul\n        /* \"#utility.yul\":8181:8211   */\n      tag_636\n        /* \"#utility.yul\":8199:8210   */\n      dup2\n        /* \"#utility.yul\":8181:8211   */\n      tag_503\n      jump\t// in\n    tag_636:\n        /* \"#utility.yul\":8170:8211   */\n      swap2\n      pop\n        /* \"#utility.yul\":8360:8361   */\n      dup3\n        /* \"#utility.yul\":8351:8358   */\n      dup3\n        /* \"#utility.yul\":8347:8362   */\n      div\n        /* \"#utility.yul\":8344:8345   */\n      dup5\n        /* \"#utility.yul\":8341:8363   */\n      eq\n        /* \"#utility.yul\":8321:8322   */\n      dup4\n        /* \"#utility.yul\":8314:8323   */\n      iszero\n        /* \"#utility.yul\":8294:8377   */\n      or\n        /* \"#utility.yul\":8271:8410   */\n      tag_637\n      jumpi\n        /* \"#utility.yul\":8390:8408   */\n      tag_638\n      tag_520\n      jump\t// in\n    tag_638:\n        /* \"#utility.yul\":8271:8410   */\n    tag_637:\n        /* \"#utility.yul\":8055:8417   */\n      pop\n        /* \"#utility.yul\":8007:8417   */\n      swap3\n      swap2\n      pop\n      pop\n      jump\t// out\n        /* \"#utility.yul\":8423:8603   */\n    tag_521:\n        /* \"#utility.yul\":8471:8548   */\n      0x4e487b7100000000000000000000000000000000000000000000000000000000\n        /* \"#utility.yul\":8468:8469   */\n      0x00\n        /* \"#utility.yul\":8461:8549   */\n      mstore\n        /* \"#utility.yul\":8568:8572   */\n      0x12\n        /* \"#utility.yul\":8565:8566   */\n      0x04\n        /* \"#utility.yul\":8558:8573   */\n      mstore\n        /* \"#utility.yul\":8592:8596   */\n      0x24\n        /* \"#utility.yul\":8589:8590   */\n      0x00\n        /* \"#utility.yul\":8582:8597   */\n      revert\n        /* \"#utility.yul\":8609:8794   */\n    tag_170:\n        /* \"#utility.yul\":8649:8650   */\n      0x00\n        /* \"#utility.yul\":8666:8686   */\n      tag_641\n        /* \"#utility.yul\":8684:8685   */\n      dup3\n        /* \"#utility.yul\":8666:8686   */\n      tag_503\n      jump\t// in\n    tag_641:\n        /* \"#utility.yul\":8661:8686   */\n      swap2\n      pop\n        /* \"#utility.yul\":8700:8720   */\n      tag_642\n        /* \"#utility.yul\":8718:8719   */\n      dup4\n        /* \"#utility.yul\":8700:8720   */\n      tag_503\n      jump\t// in\n    tag_642:\n        /* \"#utility.yul\":8695:8720   */\n      swap3\n      pop\n        /* \"#utility.yul\":8739:8740   */\n      dup3\n        /* \"#utility.yul\":8729:8764   */\n      tag_643\n      jumpi\n        /* \"#utility.yul\":8744:8762   */\n      tag_644\n      tag_521\n      jump\t// in\n    tag_644:\n        /* \"#utility.yul\":8729:8764   */\n    tag_643:\n        /* \"#utility.yul\":8786:8787   */\n      dup3\n        /* \"#utility.yul\":8783:8784   */\n      dup3\n        /* \"#utility.yul\":8779:8788   */\n      div\n        /* \"#utility.yul\":8774:8788   */\n      swap1\n      pop\n        /* \"#utility.yul\":8609:8794   */\n      swap3\n      swap2\n      pop\n      pop\n      jump\t// out\n        /* \"#utility.yul\":8800:8991   */\n    tag_172:\n        /* \"#utility.yul\":8840:8843   */\n      0x00\n        /* \"#utility.yul\":8859:8879   */\n      tag_646\n        /* \"#utility.yul\":8877:8878   */\n      dup3\n        /* \"#utility.yul\":8859:8879   */\n      tag_503\n      jump\t// in\n    tag_646:\n        /* \"#utility.yul\":8854:8879   */\n      swap2\n      pop\n        /* \"#utility.yul\":8893:8913   */\n      tag_647\n        /* \"#utility.yul\":8911:8912   */\n      dup4\n        /* \"#utility.yul\":8893:8913   */\n      tag_503\n      jump\t// in\n    tag_647:\n        /* \"#utility.yul\":8888:8913   */\n      swap3\n      pop\n        /* \"#utility.yul\":8936:8937   */\n      dup3\n        /* \"#utility.yul\":8933:8934   */\n      dup3\n        /* \"#utility.yul\":8929:8938   */\n      add\n        /* \"#utility.yul\":8922:8938   */\n      swap1\n      pop\n        /* \"#utility.yul\":8957:8960   */\n      dup1\n        /* \"#utility.yul\":8954:8955   */\n      dup3\n        /* \"#utility.yul\":8951:8961   */\n      gt\n        /* \"#utility.yul\":8948:8984   */\n      iszero\n      tag_648\n      jumpi\n        /* \"#utility.yul\":8964:8982   */\n      tag_649\n      tag_520\n      jump\t// in\n    tag_649:\n        /* \"#utility.yul\":8948:8984   */\n    tag_648:\n        /* \"#utility.yul\":8800:8991   */\n      swap3\n      swap2\n      pop\n      pop\n      jump\t// out\n        /* \"#utility.yul\":8997:9173   */\n    tag_522:\n        /* \"#utility.yul\":9137:9165   */\n      0x496e73756666696369656e74206f757470757420616d6f756e74000000000000\n        /* \"#utility.yul\":9133:9134   */\n      0x00\n        /* \"#utility.yul\":9125:9131   */\n      dup3\n        /* \"#utility.yul\":9121:9135   */\n      add\n        /* \"#utility.yul\":9114:9166   */\n      mstore\n        /* \"#utility.yul\":8997:9173   */\n      pop\n      jump\t// out\n        /* \"#utility.yul\":9179:9545   */\n    tag_523:\n        /* \"#utility.yul\":9321:9324   */\n      0x00\n        /* \"#utility.yul\":9342:9409   */\n      tag_652\n        /* \"#utility.yul\":9406:9408   */\n      0x1a\n        /* \"#utility.yul\":9401:9404   */\n      dup4\n        /* \"#utility.yul\":9342:9409   */\n      tag_515\n      jump\t// in\n    tag_652:\n        /* \"#utility.yul\":9335:9409   */\n      swap2\n      pop\n        /* \"#utility.yul\":9418:9511   */\n      tag_653\n        /* \"#utility.yul\":9507:9510   */\n      dup3\n        /* \"#utility.yul\":9418:9511   */\n      tag_522\n      jump\t// in\n    tag_653:\n        /* \"#utility.yul\":9536:9538   */\n      0x20\n        /* \"#utility.yul\":9531:9534   */\n      dup3\n        /* \"#utility.yul\":9527:9539   */\n      add\n        /* \"#utility.yul\":9520:9539   */\n      swap1\n      pop\n        /* \"#utility.yul\":9179:9545   */\n      swap2\n      swap1\n      pop\n      jump\t// out\n        /* \"#utility.yul\":9551:9970   */\n    tag_177:\n        /* \"#utility.yul\":9717:9721   */\n      0x00\n        /* \"#utility.yul\":9755:9757   */\n      0x20\n        /* \"#utility.yul\":9744:9753   */\n      dup3\n        /* \"#utility.yul\":9740:9758   */\n      add\n        /* \"#utility.yul\":9732:9758   */\n      swap1\n      pop\n        /* \"#utility.yul\":9804:9813   */\n      dup2\n        /* \"#utility.yul\":9798:9802   */\n      dup2\n        /* \"#utility.yul\":9794:9814   */\n      sub\n        /* \"#utility.yul\":9790:9791   */\n      0x00\n        /* \"#utility.yul\":9779:9788   */\n      dup4\n        /* \"#utility.yul\":9775:9792   */\n      add\n        /* \"#utility.yul\":9768:9815   */\n      mstore\n        /* \"#utility.yul\":9832:9963   */\n      tag_655\n        /* \"#utility.yul\":9958:9962   */\n      dup2\n        /* \"#utility.yul\":9832:9963   */\n      tag_523\n      jump\t// in\n    tag_655:\n        /* \"#utility.yul\":9824:9963   */\n      swap1\n      pop\n        /* \"#utility.yul\":9551:9970   */\n      swap2\n      swap1\n      pop\n      jump\t// out\n        /* \"#utility.yul\":9976:10148   */\n    tag_524:\n        /* \"#utility.yul\":10116:10140   */\n      0x496e73756666696369656e74206c697175696469747900000000000000000000\n        /* \"#utility.yul\":10112:10113   */\n      0x00\n        /* \"#utility.yul\":10104:10110   */\n      dup3\n        /* \"#utility.yul\":10100:10114   */\n      add\n        /* \"#utility.yul\":10093:10141   */\n      mstore\n        /* \"#utility.yul\":9976:10148   */\n      pop\n      jump\t// out\n        /* \"#utility.yul\":10154:10520   */\n    tag_525:\n        /* \"#utility.yul\":10296:10299   */\n      0x00\n        /* \"#utility.yul\":10317:10384   */\n      tag_658\n        /* \"#utility.yul\":10381:10383   */\n      0x16\n        /* \"#utility.yul\":10376:10379   */\n      dup4\n        /* \"#utility.yul\":10317:10384   */\n      tag_515\n      jump\t// in\n    tag_658:\n        /* \"#utility.yul\":10310:10384   */\n      swap2\n      pop\n        /* \"#utility.yul\":10393:10486   */\n      tag_659\n        /* \"#utility.yul\":10482:10485   */\n      dup3\n        /* \"#utility.yul\":10393:10486   */\n      tag_524\n      jump\t// in\n    tag_659:\n        /* \"#utility.yul\":10511:10513   */\n      0x20\n        /* \"#utility.yul\":10506:10509   */\n      dup3\n        /* \"#utility.yul\":10502:10514   */\n      add\n        /* \"#utility.yul\":10495:10514   */\n      swap1\n      pop\n        /* \"#utility.yul\":10154:10520   */\n      swap2\n      swap1\n      pop\n      jump\t// out\n        /* \"#utility.yul\":10526:10945   */\n    tag_180:\n        /* \"#utility.yul\":10692:10696   */\n      0x00\n        /* \"#utility.yul\":10730:10732   */\n      0x20\n        /* \"#utility.yul\":10719:10728   */\n      dup3\n        /* \"#utility.yul\":10715:10733   */\n      add\n        /* \"#utility.yul\":10707:10733   */\n      swap1\n      pop\n        /* \"#utility.yul\":10779:10788   */\n      dup2\n        /* \"#utility.yul\":10773:10777   */\n      dup2\n        /* \"#utility.yul\":10769:10789   */\n      sub\n        /* \"#utility.yul\":10765:10766   */\n      0x00\n        /* \"#utility.yul\":10754:10763   */\n      dup4\n        /* \"#utility.yul\":10750:10767   */\n      add\n        /* \"#utility.yul\":10743:10790   */\n      mstore\n        /* \"#utility.yul\":10807:10938   */\n      tag_661\n        /* \"#utility.yul\":10933:10937   */\n      dup2\n        /* \"#utility.yul\":10807:10938   */\n      tag_525\n      jump\t// in\n    tag_661:\n        /* \"#utility.yul\":10799:10938   */\n      swap1\n      pop\n        /* \"#utility.yul\":10526:10945   */\n      swap2\n      swap1\n      pop\n      jump\t// out\n        /* \"#utility.yul\":10951:11393   */\n    tag_182:\n        /* \"#utility.yul\":11100:11104   */\n      0x00\n        /* \"#utility.yul\":11138:11140   */\n      0x60\n        /* \"#utility.yul\":11127:11136   */\n      dup3\n        /* \"#utility.yul\":11123:11141   */\n      add\n        /* \"#utility.yul\":11115:11141   */\n      swap1\n      pop\n        /* \"#utility.yul\":11151:11222   */\n      tag_663\n        /* \"#utility.yul\":11219:11220   */\n      0x00\n        /* \"#utility.yul\":11208:11217   */\n      dup4\n        /* \"#utility.yul\":11204:11221   */\n      add\n        /* \"#utility.yul\":11195:11201   */\n      dup7\n        /* \"#utility.yul\":11151:11222   */\n      tag_513\n      jump\t// in\n    tag_663:\n        /* \"#utility.yul\":11232:11304   */\n      tag_664\n        /* \"#utility.yul\":11300:11302   */\n      0x20\n        /* \"#utility.yul\":11289:11298   */\n      dup4\n        /* \"#utility.yul\":11285:11303   */\n      add\n        /* \"#utility.yul\":11276:11282   */\n      dup6\n        /* \"#utility.yul\":11232:11304   */\n      tag_513\n      jump\t// in\n    tag_664:\n        /* \"#utility.yul\":11314:11386   */\n      tag_665\n        /* \"#utility.yul\":11382:11384   */\n      0x40\n        /* \"#utility.yul\":11371:11380   */\n      dup4\n        /* \"#utility.yul\":11367:11385   */\n      add\n        /* \"#utility.yul\":11358:11364   */\n      dup5\n        /* \"#utility.yul\":11314:11386   */\n      tag_506\n      jump\t// in\n    tag_665:\n        /* \"#utility.yul\":10951:11393   */\n      swap5\n      swap4\n      pop\n      pop\n      pop\n      pop\n      jump\t// out\n        /* \"#utility.yul\":11399:11515   */\n    tag_526:\n        /* \"#utility.yul\":11469:11490   */\n      tag_667\n        /* \"#utility.yul\":11484:11489   */\n      dup2\n        /* \"#utility.yul\":11469:11490   */\n      tag_511\n      jump\t// in\n    tag_667:\n        /* \"#utility.yul\":11462:11467   */\n      dup2\n        /* \"#utility.yul\":11459:11491   */\n      eq\n        /* \"#utility.yul\":11449:11509   */\n      tag_668\n      jumpi\n        /* \"#utility.yul\":11505:11506   */\n      0x00\n        /* \"#utility.yul\":11502:11503   */\n      dup1\n        /* \"#utility.yul\":11495:11507   */\n      revert\n        /* \"#utility.yul\":11449:11509   */\n    tag_668:\n        /* \"#utility.yul\":11399:11515   */\n      pop\n      jump\t// out\n        /* \"#utility.yul\":11521:11658   */\n    tag_527:\n        /* \"#utility.yul\":11575:11580   */\n      0x00\n        /* \"#utility.yul\":11606:11612   */\n      dup2\n        /* \"#utility.yul\":11600:11613   */\n      mload\n        /* \"#utility.yul\":11591:11613   */\n      swap1\n      pop\n        /* \"#utility.yul\":11622:11652   */\n      tag_670\n        /* \"#utility.yul\":11646:11651   */\n      dup2\n        /* \"#utility.yul\":11622:11652   */\n      tag_526\n      jump\t// in\n    tag_670:\n        /* \"#utility.yul\":11521:11658   */\n      swap3\n      swap2\n      pop\n      pop\n      jump\t// out\n        /* \"#utility.yul\":11664:12009   */\n    tag_186:\n        /* \"#utility.yul\":11731:11737   */\n      0x00\n        /* \"#utility.yul\":11780:11782   */\n      0x20\n        /* \"#utility.yul\":11768:11777   */\n      dup3\n        /* \"#utility.yul\":11759:11766   */\n      dup5\n        /* \"#utility.yul\":11755:11778   */\n      sub\n        /* \"#utility.yul\":11751:11783   */\n      slt\n        /* \"#utility.yul\":11748:11867   */\n      iszero\n      tag_672\n      jumpi\n        /* \"#utility.yul\":11786:11865   */\n      tag_673\n      tag_501\n      jump\t// in\n    tag_673:\n        /* \"#utility.yul\":11748:11867   */\n    tag_672:\n        /* \"#utility.yul\":11906:11907   */\n      0x00\n        /* \"#utility.yul\":11931:11992   */\n      tag_674\n        /* \"#utility.yul\":11984:11991   */\n      dup5\n        /* \"#utility.yul\":11975:11981   */\n      dup3\n        /* \"#utility.yul\":11964:11973   */\n      dup6\n        /* \"#utility.yul\":11960:11982   */\n      add\n        /* \"#utility.yul\":11931:11992   */\n      tag_527\n      jump\t// in\n    tag_674:\n        /* \"#utility.yul\":11921:11992   */\n      swap2\n      pop\n        /* \"#utility.yul\":11877:12002   */\n      pop\n        /* \"#utility.yul\":11664:12009   */\n      swap3\n      swap2\n      pop\n      pop\n      jump\t// out\n        /* \"#utility.yul\":12015:12182   */\n    tag_528:\n        /* \"#utility.yul\":12155:12174   */\n      0x5472616e736665722041206661696c6564000000000000000000000000000000\n        /* \"#utility.yul\":12151:12152   */\n      0x00\n        /* \"#utility.yul\":12143:12149   */\n      dup3\n        /* \"#utility.yul\":12139:12153   */\n      add\n        /* \"#utility.yul\":12132:12175   */\n      mstore\n        /* \"#utility.yul\":12015:12182   */\n      pop\n      jump\t// out\n        /* \"#utility.yul\":12188:12554   */\n    tag_529:\n        /* \"#utility.yul\":12330:12333   */\n      0x00\n        /* \"#utility.yul\":12351:12418   */\n      tag_677\n        /* \"#utility.yul\":12415:12417   */\n      0x11\n        /* \"#utility.yul\":12410:12413   */\n      dup4\n        /* \"#utility.yul\":12351:12418   */\n      tag_515\n      jump\t// in\n    tag_677:\n        /* \"#utility.yul\":12344:12418   */\n      swap2\n      pop\n        /* \"#utility.yul\":12427:12520   */\n      tag_678\n        /* \"#utility.yul\":12516:12519   */\n      dup3\n        /* \"#utility.yul\":12427:12520   */\n      tag_528\n      jump\t// in\n    tag_678:\n        /* \"#utility.yul\":12545:12547   */\n      0x20\n        /* \"#utility.yul\":12540:12543   */\n      dup3\n        /* \"#utility.yul\":12536:12548   */\n      add\n        /* \"#utility.yul\":12529:12548   */\n      swap1\n      pop\n        /* \"#utility.yul\":12188:12554   */\n      swap2\n      swap1\n      pop\n      jump\t// out\n        /* \"#utility.yul\":12560:12979   */\n    tag_189:\n        /* \"#utility.yul\":12726:12730   */\n      0x00\n        /* \"#utility.yul\":12764:12766   */\n      0x20\n        /* \"#utility.yul\":12753:12762   */\n      dup3\n        /* \"#utility.yul\":12749:12767   */\n      add\n        /* \"#utility.yul\":12741:12767   */\n      swap1\n      pop\n        /* \"#utility.yul\":12813:12822   */\n      dup2\n        /* \"#utility.yul\":12807:12811   */\n      dup2\n        /* \"#utility.yul\":12803:12823   */\n      sub\n        /* \"#utility.yul\":12799:12800   */\n      0x00\n        /* \"#utility.yul\":12788:12797   */\n      dup4\n        /* \"#utility.yul\":12784:12801   */\n      add\n        /* \"#utility.yul\":12777:12824   */\n      mstore\n        /* \"#utility.yul\":12841:12972   */\n      tag_680\n        /* \"#utility.yul\":12967:12971   */\n      dup2\n        /* \"#utility.yul\":12841:12972   */\n      tag_529\n      jump\t// in\n    tag_680:\n        /* \"#utility.yul\":12833:12972   */\n      swap1\n      pop\n        /* \"#utility.yul\":12560:12979   */\n      swap2\n      swap1\n      pop\n      jump\t// out\n        /* \"#utility.yul\":12985:13317   */\n    tag_191:\n        /* \"#utility.yul\":13106:13110   */\n      0x00\n        /* \"#utility.yul\":13144:13146   */\n      0x40\n        /* \"#utility.yul\":13133:13142   */\n      dup3\n        /* \"#utility.yul\":13129:13147   */\n      add\n        /* \"#utility.yul\":13121:13147   */\n      swap1\n      pop\n        /* \"#utility.yul\":13157:13228   */\n      tag_682\n        /* \"#utility.yul\":13225:13226   */\n      0x00\n        /* \"#utility.yul\":13214:13223   */\n      dup4\n        /* \"#utility.yul\":13210:13227   */\n      add\n        /* \"#utility.yul\":13201:13207   */\n      dup6\n        /* \"#utility.yul\":13157:13228   */\n      tag_513\n      jump\t// in\n    tag_682:\n        /* \"#utility.yul\":13238:13310   */\n      tag_683\n        /* \"#utility.yul\":13306:13308   */\n      0x20\n        /* \"#utility.yul\":13295:13304   */\n      dup4\n        /* \"#utility.yul\":13291:13309   */\n      add\n        /* \"#utility.yul\":13282:13288   */\n      dup5\n        /* \"#utility.yul\":13238:13310   */\n      tag_506\n      jump\t// in\n    tag_683:\n        /* \"#utility.yul\":12985:13317   */\n      swap4\n      swap3\n      pop\n      pop\n      pop\n      jump\t// out\n        /* \"#utility.yul\":13323:13490   */\n    tag_530:\n        /* \"#utility.yul\":13463:13482   */\n      0x5472616e736665722042206661696c6564000000000000000000000000000000\n        /* \"#utility.yul\":13459:13460   */\n      0x00\n        /* \"#utility.yul\":13451:13457   */\n      dup3\n        /* \"#utility.yul\":13447:13461   */\n      add\n        /* \"#utility.yul\":13440:13483   */\n      mstore\n        /* \"#utility.yul\":13323:13490   */\n      pop\n      jump\t// out\n        /* \"#utility.yul\":13496:13862   */\n    tag_531:\n        /* \"#utility.yul\":13638:13641   */\n      0x00\n        /* \"#utility.yul\":13659:13726   */\n      tag_686\n        /* \"#utility.yul\":13723:13725   */\n      0x11\n        /* \"#utility.yul\":13718:13721   */\n      dup4\n        /* \"#utility.yul\":13659:13726   */\n      tag_515\n      jump\t// in\n    tag_686:\n        /* \"#utility.yul\":13652:13726   */\n      swap2\n      pop\n        /* \"#utility.yul\":13735:13828   */\n      tag_687\n        /* \"#utility.yul\":13824:13827   */\n      dup3\n        /* \"#utility.yul\":13735:13828   */\n      tag_530\n      jump\t// in\n    tag_687:\n        /* \"#utility.yul\":13853:13855   */\n      0x20\n        /* \"#utility.yul\":13848:13851   */\n      dup3\n        /* \"#utility.yul\":13844:13856   */\n      add\n        /* \"#utility.yul\":13837:13856   */\n      swap1\n      pop\n        /* \"#utility.yul\":13496:13862   */\n      swap2\n      swap1\n      pop\n      jump\t// out\n        /* \"#utility.yul\":13868:14287   */\n    tag_197:\n        /* \"#utility.yul\":14034:14038   */\n      0x00\n        /* \"#utility.yul\":14072:14074   */\n      0x20\n        /* \"#utility.yul\":14061:14070   */\n      dup3\n        /* \"#utility.yul\":14057:14075   */\n      add\n        /* \"#utility.yul\":14049:14075   */\n      swap1\n      pop\n        /* \"#utility.yul\":14121:14130   */\n      dup2\n        /* \"#utility.yul\":14115:14119   */\n      dup2\n        /* \"#utility.yul\":14111:14131   */\n      sub\n        /* \"#utility.yul\":14107:14108   */\n      0x00\n        /* \"#utility.yul\":14096:14105   */\n      dup4\n        /* \"#utility.yul\":14092:14109   */\n      add\n        /* \"#utility.yul\":14085:14132   */\n      mstore\n        /* \"#utility.yul\":14149:14280   */\n      tag_689\n        /* \"#utility.yul\":14275:14279   */\n      dup2\n        /* \"#utility.yul\":14149:14280   */\n      tag_531\n      jump\t// in\n    tag_689:\n        /* \"#utility.yul\":14141:14280   */\n      swap1\n      pop\n        /* \"#utility.yul\":13868:14287   */\n      swap2\n      swap1\n      pop\n      jump\t// out\n        /* \"#utility.yul\":14293:14846   */\n    tag_201:\n        /* \"#utility.yul\":14470:14474   */\n      0x00\n        /* \"#utility.yul\":14508:14511   */\n      0x80\n        /* \"#utility.yul\":14497:14506   */\n      dup3\n        /* \"#utility.yul\":14493:14512   */\n      add\n        /* \"#utility.yul\":14485:14512   */\n      swap1\n      pop\n        /* \"#utility.yul\":14522:14593   */\n      tag_691\n        /* \"#utility.yul\":14590:14591   */\n      0x00\n        /* \"#utility.yul\":14579:14588   */\n      dup4\n        /* \"#utility.yul\":14575:14592   */\n      add\n        /* \"#utility.yul\":14566:14572   */\n      dup8\n        /* \"#utility.yul\":14522:14593   */\n      tag_513\n      jump\t// in\n    tag_691:\n        /* \"#utility.yul\":14603:14675   */\n      tag_692\n        /* \"#utility.yul\":14671:14673   */\n      0x20\n        /* \"#utility.yul\":14660:14669   */\n      dup4\n        /* \"#utility.yul\":14656:14674   */\n      add\n        /* \"#utility.yul\":14647:14653   */\n      dup7\n        /* \"#utility.yul\":14603:14675   */\n      tag_506\n      jump\t// in\n    tag_692:\n        /* \"#utility.yul\":14685:14757   */\n      tag_693\n        /* \"#utility.yul\":14753:14755   */\n      0x40\n        /* \"#utility.yul\":14742:14751   */\n      dup4\n        /* \"#utility.yul\":14738:14756   */\n      add\n        /* \"#utility.yul\":14729:14735   */\n      dup6\n        /* \"#utility.yul\":14685:14757   */\n      tag_513\n      jump\t// in\n    tag_693:\n        /* \"#utility.yul\":14767:14839   */\n      tag_694\n        /* \"#utility.yul\":14835:14837   */\n      0x60\n        /* \"#utility.yul\":14824:14833   */\n      dup4\n        /* \"#utility.yul\":14820:14838   */\n      add\n        /* \"#utility.yul\":14811:14817   */\n      dup5\n        /* \"#utility.yul\":14767:14839   */\n      tag_506\n      jump\t// in\n    tag_694:\n        /* \"#utility.yul\":14293:14846   */\n      swap6\n      swap5\n      pop\n      pop\n      pop\n      pop\n      pop\n      jump\t// out\n        /* \"#utility.yul\":14852:15018   */\n    tag_532:\n        /* \"#utility.yul\":14992:15010   */\n      0x4e6f7420656e6f756768206d6f6e657900000000000000000000000000000000\n        /* \"#utility.yul\":14988:14989   */\n      0x00\n        /* \"#utility.yul\":14980:14986   */\n      dup3\n        /* \"#utility.yul\":14976:14990   */\n      add\n        /* \"#utility.yul\":14969:15011   */\n      mstore\n        /* \"#utility.yul\":14852:15018   */\n      pop\n      jump\t// out\n        /* \"#utility.yul\":15024:15390   */\n    tag_533:\n        /* \"#utility.yul\":15166:15169   */\n      0x00\n        /* \"#utility.yul\":15187:15254   */\n      tag_697\n        /* \"#utility.yul\":15251:15253   */\n      0x10\n        /* \"#utility.yul\":15246:15249   */\n      dup4\n        /* \"#utility.yul\":15187:15254   */\n      tag_515\n      jump\t// in\n    tag_697:\n        /* \"#utility.yul\":15180:15254   */\n      swap2\n      pop\n        /* \"#utility.yul\":15263:15356   */\n      tag_698\n        /* \"#utility.yul\":15352:15355   */\n      dup3\n        /* \"#utility.yul\":15263:15356   */\n      tag_532\n      jump\t// in\n    tag_698:\n        /* \"#utility.yul\":15381:15383   */\n      0x20\n        /* \"#utility.yul\":15376:15379   */\n      dup3\n        /* \"#utility.yul\":15372:15384   */\n      add\n        /* \"#utility.yul\":15365:15384   */\n      swap1\n      pop\n        /* \"#utility.yul\":15024:15390   */\n      swap2\n      swap1\n      pop\n      jump\t// out\n        /* \"#utility.yul\":15396:15815   */\n    tag_210:\n        /* \"#utility.yul\":15562:15566   */\n      0x00\n        /* \"#utility.yul\":15600:15602   */\n      0x20\n        /* \"#utility.yul\":15589:15598   */\n      dup3\n        /* \"#utility.yul\":15585:15603   */\n      add\n        /* \"#utility.yul\":15577:15603   */\n      swap1\n      pop\n        /* \"#utility.yul\":15649:15658   */\n      dup2\n        /* \"#utility.yul\":15643:15647   */\n      dup2\n        /* \"#utility.yul\":15639:15659   */\n      sub\n        /* \"#utility.yul\":15635:15636   */\n      0x00\n        /* \"#utility.yul\":15624:15633   */\n      dup4\n        /* \"#utility.yul\":15620:15637   */\n      add\n        /* \"#utility.yul\":15613:15660   */\n      mstore\n        /* \"#utility.yul\":15677:15808   */\n      tag_700\n        /* \"#utility.yul\":15803:15807   */\n      dup2\n        /* \"#utility.yul\":15677:15808   */\n      tag_533\n      jump\t// in\n    tag_700:\n        /* \"#utility.yul\":15669:15808   */\n      swap1\n      pop\n        /* \"#utility.yul\":15396:15815   */\n      swap2\n      swap1\n      pop\n      jump\t// out\n        /* \"#utility.yul\":15821:15985   */\n    tag_534:\n        /* \"#utility.yul\":15961:15977   */\n      0x5472616e73666572206572726f72000000000000000000000000000000000000\n        /* \"#utility.yul\":15957:15958   */\n      0x00\n        /* \"#utility.yul\":15949:15955   */\n      dup3\n        /* \"#utility.yul\":15945:15959   */\n      add\n        /* \"#utility.yul\":15938:15978   */\n      mstore\n        /* \"#utility.yul\":15821:15985   */\n      pop\n      jump\t// out\n        /* \"#utility.yul\":15991:16357   */\n    tag_535:\n        /* \"#utility.yul\":16133:16136   */\n      0x00\n        /* \"#utility.yul\":16154:16221   */\n      tag_703\n        /* \"#utility.yul\":16218:16220   */\n      0x0e\n        /* \"#utility.yul\":16213:16216   */\n      dup4\n        /* \"#utility.yul\":16154:16221   */\n      tag_515\n      jump\t// in\n    tag_703:\n        /* \"#utility.yul\":16147:16221   */\n      swap2\n      pop\n        /* \"#utility.yul\":16230:16323   */\n      tag_704\n        /* \"#utility.yul\":16319:16322   */\n      dup3\n        /* \"#utility.yul\":16230:16323   */\n      tag_534\n      jump\t// in\n    tag_704:\n        /* \"#utility.yul\":16348:16350   */\n      0x20\n        /* \"#utility.yul\":16343:16346   */\n      dup3\n        /* \"#utility.yul\":16339:16351   */\n      add\n        /* \"#utility.yul\":16332:16351   */\n      swap1\n      pop\n        /* \"#utility.yul\":15991:16357   */\n      swap2\n      swap1\n      pop\n      jump\t// out\n        /* \"#utility.yul\":16363:16782   */\n    tag_217:\n        /* \"#utility.yul\":16529:16533   */\n      0x00\n        /* \"#utility.yul\":16567:16569   */\n      0x20\n        /* \"#utility.yul\":16556:16565   */\n      dup3\n        /* \"#utility.yul\":16552:16570   */\n      add\n        /* \"#utility.yul\":16544:16570   */\n      swap1\n      pop\n        /* \"#utility.yul\":16616:16625   */\n      dup2\n        /* \"#utility.yul\":16610:16614   */\n      dup2\n        /* \"#utility.yul\":16606:16626   */\n      sub\n        /* \"#utility.yul\":16602:16603   */\n      0x00\n        /* \"#utility.yul\":16591:16600   */\n      dup4\n        /* \"#utility.yul\":16587:16604   */\n      add\n        /* \"#utility.yul\":16580:16627   */\n      mstore\n        /* \"#utility.yul\":16644:16775   */\n      tag_706\n        /* \"#utility.yul\":16770:16774   */\n      dup2\n        /* \"#utility.yul\":16644:16775   */\n      tag_535\n      jump\t// in\n    tag_706:\n        /* \"#utility.yul\":16636:16775   */\n      swap1\n      pop\n        /* \"#utility.yul\":16363:16782   */\n      swap2\n      swap1\n      pop\n      jump\t// out\n        /* \"#utility.yul\":16788:17230   */\n    tag_221:\n        /* \"#utility.yul\":16937:16941   */\n      0x00\n        /* \"#utility.yul\":16975:16977   */\n      0x60\n        /* \"#utility.yul\":16964:16973   */\n      dup3\n        /* \"#utility.yul\":16960:16978   */\n      add\n        /* \"#utility.yul\":16952:16978   */\n      swap1\n      pop\n        /* \"#utility.yul\":16988:17059   */\n      tag_708\n        /* \"#utility.yul\":17056:17057   */\n      0x00\n        /* \"#utility.yul\":17045:17054   */\n      dup4\n        /* \"#utility.yul\":17041:17058   */\n      add\n        /* \"#utility.yul\":17032:17038   */\n      dup7\n        /* \"#utility.yul\":16988:17059   */\n      tag_506\n      jump\t// in\n    tag_708:\n        /* \"#utility.yul\":17069:17141   */\n      tag_709\n        /* \"#utility.yul\":17137:17139   */\n      0x20\n        /* \"#utility.yul\":17126:17135   */\n      dup4\n        /* \"#utility.yul\":17122:17140   */\n      add\n        /* \"#utility.yul\":17113:17119   */\n      dup6\n        /* \"#utility.yul\":17069:17141   */\n      tag_506\n      jump\t// in\n    tag_709:\n        /* \"#utility.yul\":17151:17223   */\n      tag_710\n        /* \"#utility.yul\":17219:17221   */\n      0x40\n        /* \"#utility.yul\":17208:17217   */\n      dup4\n        /* \"#utility.yul\":17204:17222   */\n      add\n        /* \"#utility.yul\":17195:17201   */\n      dup5\n        /* \"#utility.yul\":17151:17223   */\n      tag_506\n      jump\t// in\n    tag_710:\n        /* \"#utility.yul\":16788:17230   */\n      swap5\n      swap4\n      pop\n      pop\n      pop\n      pop\n      jump\t// out\n        /* \"#utility.yul\":17236:17415   */\n    tag_536:\n        /* \"#utility.yul\":17376:17407   */\n      0x446f206e6f742067697665206261636b20656e6f756768206d6f6e6579000000\n        /* \"#utility.yul\":17372:17373   */\n      0x00\n        /* \"#utility.yul\":17364:17370   */\n      dup3\n        /* \"#utility.yul\":17360:17374   */\n      add\n        /* \"#utility.yul\":17353:17408   */\n      mstore\n        /* \"#utility.yul\":17236:17415   */\n      pop\n      jump\t// out\n        /* \"#utility.yul\":17421:17787   */\n    tag_537:\n        /* \"#utility.yul\":17563:17566   */\n      0x00\n        /* \"#utility.yul\":17584:17651   */\n      tag_713\n        /* \"#utility.yul\":17648:17650   */\n      0x1d\n        /* \"#utility.yul\":17643:17646   */\n      dup4\n        /* \"#utility.yul\":17584:17651   */\n      tag_515\n      jump\t// in\n    tag_713:\n        /* \"#utility.yul\":17577:17651   */\n      swap2\n      pop\n        /* \"#utility.yul\":17660:17753   */\n      tag_714\n        /* \"#utility.yul\":17749:17752   */\n      dup3\n        /* \"#utility.yul\":17660:17753   */\n      tag_536\n      jump\t// in\n    tag_714:\n        /* \"#utility.yul\":17778:17780   */\n      0x20\n        /* \"#utility.yul\":17773:17776   */\n      dup3\n        /* \"#utility.yul\":17769:17781   */\n      add\n        /* \"#utility.yul\":17762:17781   */\n      swap1\n      pop\n        /* \"#utility.yul\":17421:17787   */\n      swap2\n      swap1\n      pop\n      jump\t// out\n        /* \"#utility.yul\":17793:18212   */\n    tag_232:\n        /* \"#utility.yul\":17959:17963   */\n      0x00\n        /* \"#utility.yul\":17997:17999   */\n      0x20\n        /* \"#utility.yul\":17986:17995   */\n      dup3\n        /* \"#utility.yul\":17982:18000   */\n      add\n        /* \"#utility.yul\":17974:18000   */\n      swap1\n      pop\n        /* \"#utility.yul\":18046:18055   */\n      dup2\n        /* \"#utility.yul\":18040:18044   */\n      dup2\n        /* \"#utility.yul\":18036:18056   */\n      sub\n        /* \"#utility.yul\":18032:18033   */\n      0x00\n        /* \"#utility.yul\":18021:18030   */\n      dup4\n        /* \"#utility.yul\":18017:18034   */\n      add\n        /* \"#utility.yul\":18010:18057   */\n      mstore\n        /* \"#utility.yul\":18074:18205   */\n      tag_716\n        /* \"#utility.yul\":18200:18204   */\n      dup2\n        /* \"#utility.yul\":18074:18205   */\n      tag_537\n      jump\t// in\n    tag_716:\n        /* \"#utility.yul\":18066:18205   */\n      swap1\n      pop\n        /* \"#utility.yul\":17793:18212   */\n      swap2\n      swap1\n      pop\n      jump\t// out\n        /* \"#utility.yul\":18218:18385   */\n    tag_538:\n        /* \"#utility.yul\":18358:18377   */\n      0x496e76616c6964204c5020746f6b656e73000000000000000000000000000000\n        /* \"#utility.yul\":18354:18355   */\n      0x00\n        /* \"#utility.yul\":18346:18352   */\n      dup3\n        /* \"#utility.yul\":18342:18356   */\n      add\n        /* \"#utility.yul\":18335:18378   */\n      mstore\n        /* \"#utility.yul\":18218:18385   */\n      pop\n      jump\t// out\n        /* \"#utility.yul\":18391:18757   */\n    tag_539:\n        /* \"#utility.yul\":18533:18536   */\n      0x00\n        /* \"#utility.yul\":18554:18621   */\n      tag_719\n        /* \"#utility.yul\":18618:18620   */\n      0x11\n        /* \"#utility.yul\":18613:18616   */\n      dup4\n        /* \"#utility.yul\":18554:18621   */\n      tag_515\n      jump\t// in\n    tag_719:\n        /* \"#utility.yul\":18547:18621   */\n      swap2\n      pop\n        /* \"#utility.yul\":18630:18723   */\n      tag_720\n        /* \"#utility.yul\":18719:18722   */\n      dup3\n        /* \"#utility.yul\":18630:18723   */\n      tag_538\n      jump\t// in\n    tag_720:\n        /* \"#utility.yul\":18748:18750   */\n      0x20\n        /* \"#utility.yul\":18743:18746   */\n      dup3\n        /* \"#utility.yul\":18739:18751   */\n      add\n        /* \"#utility.yul\":18732:18751   */\n      swap1\n      pop\n        /* \"#utility.yul\":18391:18757   */\n      swap2\n      swap1\n      pop\n      jump\t// out\n        /* \"#utility.yul\":18763:19182   */\n    tag_278:\n        /* \"#utility.yul\":18929:18933   */\n      0x00\n        /* \"#utility.yul\":18967:18969   */\n      0x20\n        /* \"#utility.yul\":18956:18965   */\n      dup3\n        /* \"#utility.yul\":18952:18970   */\n      add\n        /* \"#utility.yul\":18944:18970   */\n      swap1\n      pop\n        /* \"#utility.yul\":19016:19025   */\n      dup2\n        /* \"#utility.yul\":19010:19014   */\n      dup2\n        /* \"#utility.yul\":19006:19026   */\n      sub\n        /* \"#utility.yul\":19002:19003   */\n      0x00\n        /* \"#utility.yul\":18991:19000   */\n      dup4\n        /* \"#utility.yul\":18987:19004   */\n      add\n        /* \"#utility.yul\":18980:19027   */\n      mstore\n        /* \"#utility.yul\":19044:19175   */\n      tag_722\n        /* \"#utility.yul\":19170:19174   */\n      dup2\n        /* \"#utility.yul\":19044:19175   */\n      tag_539\n      jump\t// in\n    tag_722:\n        /* \"#utility.yul\":19036:19175   */\n      swap1\n      pop\n        /* \"#utility.yul\":18763:19182   */\n      swap2\n      swap1\n      pop\n      jump\t// out\n        /* \"#utility.yul\":19188:19360   */\n    tag_540:\n        /* \"#utility.yul\":19328:19352   */\n      0x496e73756666696369656e74204c5020746f6b656e7300000000000000000000\n        /* \"#utility.yul\":19324:19325   */\n      0x00\n        /* \"#utility.yul\":19316:19322   */\n      dup3\n        /* \"#utility.yul\":19312:19326   */\n      add\n        /* \"#utility.yul\":19305:19353   */\n      mstore\n        /* \"#utility.yul\":19188:19360   */\n      pop\n      jump\t// out\n        /* \"#utility.yul\":19366:19732   */\n    tag_541:\n        /* \"#utility.yul\":19508:19511   */\n      0x00\n        /* \"#utility.yul\":19529:19596   */\n      tag_725\n        /* \"#utility.yul\":19593:19595   */\n      0x16\n        /* \"#utility.yul\":19588:19591   */\n      dup4\n        /* \"#utility.yul\":19529:19596   */\n      tag_515\n      jump\t// in\n    tag_725:\n        /* \"#utility.yul\":19522:19596   */\n      swap2\n      pop\n        /* \"#utility.yul\":19605:19698   */\n      tag_726\n        /* \"#utility.yul\":19694:19697   */\n      dup3\n        /* \"#utility.yul\":19605:19698   */\n      tag_540\n      jump\t// in\n    tag_726:\n        /* \"#utility.yul\":19723:19725   */\n      0x20\n        /* \"#utility.yul\":19718:19721   */\n      dup3\n        /* \"#utility.yul\":19714:19726   */\n      add\n        /* \"#utility.yul\":19707:19726   */\n      swap1\n      pop\n        /* \"#utility.yul\":19366:19732   */\n      swap2\n      swap1\n      pop\n      jump\t// out\n        /* \"#utility.yul\":19738:20157   */\n    tag_281:\n        /* \"#utility.yul\":19904:19908   */\n      0x00\n        /* \"#utility.yul\":19942:19944   */\n      0x20\n        /* \"#utility.yul\":19931:19940   */\n      dup3\n        /* \"#utility.yul\":19927:19945   */\n      add\n        /* \"#utility.yul\":19919:19945   */\n      swap1\n      pop\n        /* \"#utility.yul\":19991:20000   */\n      dup2\n        /* \"#utility.yul\":19985:19989   */\n      dup2\n        /* \"#utility.yul\":19981:20001   */\n      sub\n        /* \"#utility.yul\":19977:19978   */\n      0x00\n        /* \"#utility.yul\":19966:19975   */\n      dup4\n        /* \"#utility.yul\":19962:19979   */\n      add\n        /* \"#utility.yul\":19955:20002   */\n      mstore\n        /* \"#utility.yul\":20019:20150   */\n      tag_728\n        /* \"#utility.yul\":20145:20149   */\n      dup2\n        /* \"#utility.yul\":20019:20150   */\n      tag_541\n      jump\t// in\n    tag_728:\n        /* \"#utility.yul\":20011:20150   */\n      swap1\n      pop\n        /* \"#utility.yul\":19738:20157   */\n      swap2\n      swap1\n      pop\n      jump\t// out\n        /* \"#utility.yul\":20163:20328   */\n    tag_542:\n        /* \"#utility.yul\":20303:20320   */\n      0x496e76616c696420616d6f756e74730000000000000000000000000000000000\n        /* \"#utility.yul\":20299:20300   */\n      0x00\n        /* \"#utility.yul\":20291:20297   */\n      dup3\n        /* \"#utility.yul\":20287:20301   */\n      add\n        /* \"#utility.yul\":20280:20321   */\n      mstore\n        /* \"#utility.yul\":20163:20328   */\n      pop\n      jump\t// out\n        /* \"#utility.yul\":20334:20700   */\n    tag_543:\n        /* \"#utility.yul\":20476:20479   */\n      0x00\n        /* \"#utility.yul\":20497:20564   */\n      tag_731\n        /* \"#utility.yul\":20561:20563   */\n      0x0f\n        /* \"#utility.yul\":20556:20559   */\n      dup4\n        /* \"#utility.yul\":20497:20564   */\n      tag_515\n      jump\t// in\n    tag_731:\n        /* \"#utility.yul\":20490:20564   */\n      swap2\n      pop\n        /* \"#utility.yul\":20573:20666   */\n      tag_732\n        /* \"#utility.yul\":20662:20665   */\n      dup3\n        /* \"#utility.yul\":20573:20666   */\n      tag_542\n      jump\t// in\n    tag_732:\n        /* \"#utility.yul\":20691:20693   */\n      0x20\n        /* \"#utility.yul\":20686:20689   */\n      dup3\n        /* \"#utility.yul\":20682:20694   */\n      add\n        /* \"#utility.yul\":20675:20694   */\n      swap1\n      pop\n        /* \"#utility.yul\":20334:20700   */\n      swap2\n      swap1\n      pop\n      jump\t// out\n        /* \"#utility.yul\":20706:21125   */\n    tag_317:\n        /* \"#utility.yul\":20872:20876   */\n      0x00\n        /* \"#utility.yul\":20910:20912   */\n      0x20\n        /* \"#utility.yul\":20899:20908   */\n      dup3\n        /* \"#utility.yul\":20895:20913   */\n      add\n        /* \"#utility.yul\":20887:20913   */\n      swap1\n      pop\n        /* \"#utility.yul\":20959:20968   */\n      dup2\n        /* \"#utility.yul\":20953:20957   */\n      dup2\n        /* \"#utility.yul\":20949:20969   */\n      sub\n        /* \"#utility.yul\":20945:20946   */\n      0x00\n        /* \"#utility.yul\":20934:20943   */\n      dup4\n        /* \"#utility.yul\":20930:20947   */\n      add\n        /* \"#utility.yul\":20923:20970   */\n      mstore\n        /* \"#utility.yul\":20987:21118   */\n      tag_734\n        /* \"#utility.yul\":21113:21117   */\n      dup2\n        /* \"#utility.yul\":20987:21118   */\n      tag_543\n      jump\t// in\n    tag_734:\n        /* \"#utility.yul\":20979:21118   */\n      swap1\n      pop\n        /* \"#utility.yul\":20706:21125   */\n      swap2\n      swap1\n      pop\n      jump\t// out\n        /* \"#utility.yul\":21131:21356   */\n    tag_544:\n        /* \"#utility.yul\":21271:21305   */\n      0x4f6e6c7920706f6f6c206f776e65722063616e2063616c6c2074686973206675\n        /* \"#utility.yul\":21267:21268   */\n      0x00\n        /* \"#utility.yul\":21259:21265   */\n      dup3\n        /* \"#utility.yul\":21255:21269   */\n      add\n        /* \"#utility.yul\":21248:21306   */\n      mstore\n        /* \"#utility.yul\":21340:21348   */\n      0x6e6374696f6e0000000000000000000000000000000000000000000000000000\n        /* \"#utility.yul\":21335:21337   */\n      0x20\n        /* \"#utility.yul\":21327:21333   */\n      dup3\n        /* \"#utility.yul\":21323:21338   */\n      add\n        /* \"#utility.yul\":21316:21349   */\n      mstore\n        /* \"#utility.yul\":21131:21356   */\n      pop\n      jump\t// out\n        /* \"#utility.yul\":21362:21728   */\n    tag_545:\n        /* \"#utility.yul\":21504:21507   */\n      0x00\n        /* \"#utility.yul\":21525:21592   */\n      tag_737\n        /* \"#utility.yul\":21589:21591   */\n      0x26\n        /* \"#utility.yul\":21584:21587   */\n      dup4\n        /* \"#utility.yul\":21525:21592   */\n      tag_515\n      jump\t// in\n    tag_737:\n        /* \"#utility.yul\":21518:21592   */\n      swap2\n      pop\n        /* \"#utility.yul\":21601:21694   */\n      tag_738\n        /* \"#utility.yul\":21690:21693   */\n      dup3\n        /* \"#utility.yul\":21601:21694   */\n      tag_544\n      jump\t// in\n    tag_738:\n        /* \"#utility.yul\":21719:21721   */\n      0x40\n        /* \"#utility.yul\":21714:21717   */\n      dup3\n        /* \"#utility.yul\":21710:21722   */\n      add\n        /* \"#utility.yul\":21703:21722   */\n      swap1\n      pop\n        /* \"#utility.yul\":21362:21728   */\n      swap2\n      swap1\n      pop\n      jump\t// out\n        /* \"#utility.yul\":21734:22153   */\n    tag_350:\n        /* \"#utility.yul\":21900:21904   */\n      0x00\n        /* \"#utility.yul\":21938:21940   */\n      0x20\n        /* \"#utility.yul\":21927:21936   */\n      dup3\n        /* \"#utility.yul\":21923:21941   */\n      add\n        /* \"#utility.yul\":21915:21941   */\n      swap1\n      pop\n        /* \"#utility.yul\":21987:21996   */\n      dup2\n        /* \"#utility.yul\":21981:21985   */\n      dup2\n        /* \"#utility.yul\":21977:21997   */\n      sub\n        /* \"#utility.yul\":21973:21974   */\n      0x00\n        /* \"#utility.yul\":21962:21971   */\n      dup4\n        /* \"#utility.yul\":21958:21975   */\n      add\n        /* \"#utility.yul\":21951:21998   */\n      mstore\n        /* \"#utility.yul\":22015:22146   */\n      tag_740\n        /* \"#utility.yul\":22141:22145   */\n      dup2\n        /* \"#utility.yul\":22015:22146   */\n      tag_545\n      jump\t// in\n    tag_740:\n        /* \"#utility.yul\":22007:22146   */\n      swap1\n      pop\n        /* \"#utility.yul\":21734:22153   */\n      swap2\n      swap1\n      pop\n      jump\t// out\n        /* \"#utility.yul\":22159:22324   */\n    tag_546:\n        /* \"#utility.yul\":22299:22316   */\n      0x496e76616c696420616464726573730000000000000000000000000000000000\n        /* \"#utility.yul\":22295:22296   */\n      0x00\n        /* \"#utility.yul\":22287:22293   */\n      dup3\n        /* \"#utility.yul\":22283:22297   */\n      add\n        /* \"#utility.yul\":22276:22317   */\n      mstore\n        /* \"#utility.yul\":22159:22324   */\n      pop\n      jump\t// out\n        /* \"#utility.yul\":22330:22696   */\n    tag_547:\n        /* \"#utility.yul\":22472:22475   */\n      0x00\n        /* \"#utility.yul\":22493:22560   */\n      tag_743\n        /* \"#utility.yul\":22557:22559   */\n      0x0f\n        /* \"#utility.yul\":22552:22555   */\n      dup4\n        /* \"#utility.yul\":22493:22560   */\n      tag_515\n      jump\t// in\n    tag_743:\n        /* \"#utility.yul\":22486:22560   */\n      swap2\n      pop\n        /* \"#utility.yul\":22569:22662   */\n      tag_744\n        /* \"#utility.yul\":22658:22661   */\n      dup3\n        /* \"#utility.yul\":22569:22662   */\n      tag_546\n      jump\t// in\n    tag_744:\n        /* \"#utility.yul\":22687:22689   */\n      0x20\n        /* \"#utility.yul\":22682:22685   */\n      dup3\n        /* \"#utility.yul\":22678:22690   */\n      add\n        /* \"#utility.yul\":22671:22690   */\n      swap1\n      pop\n        /* \"#utility.yul\":22330:22696   */\n      swap2\n      swap1\n      pop\n      jump\t// out\n        /* \"#utility.yul\":22702:23121   */\n    tag_480:\n        /* \"#utility.yul\":22868:22872   */\n      0x00\n        /* \"#utility.yul\":22906:22908   */\n      0x20\n        /* \"#utility.yul\":22895:22904   */\n      dup3\n        /* \"#utility.yul\":22891:22909   */\n      add\n        /* \"#utility.yul\":22883:22909   */\n      swap1\n      pop\n        /* \"#utility.yul\":22955:22964   */\n      dup2\n        /* \"#utility.yul\":22949:22953   */\n      dup2\n        /* \"#utility.yul\":22945:22965   */\n      sub\n        /* \"#utility.yul\":22941:22942   */\n      0x00\n        /* \"#utility.yul\":22930:22939   */\n      dup4\n        /* \"#utility.yul\":22926:22943   */\n      add\n        /* \"#utility.yul\":22919:22966   */\n      mstore\n        /* \"#utility.yul\":22983:23114   */\n      tag_746\n        /* \"#utility.yul\":23109:23113   */\n      dup2\n        /* \"#utility.yul\":22983:23114   */\n      tag_547\n      jump\t// in\n    tag_746:\n        /* \"#utility.yul\":22975:23114   */\n      swap1\n      pop\n        /* \"#utility.yul\":22702:23121   */\n      swap2\n      swap1\n      pop\n      jump\t// out\n        /* \"#utility.yul\":23127:23299   */\n    tag_548:\n        /* \"#utility.yul\":23267:23291   */\n      0x5072696365206d75737420626520706f73697469766500000000000000000000\n        /* \"#utility.yul\":23263:23264   */\n      0x00\n        /* \"#utility.yul\":23255:23261   */\n      dup3\n        /* \"#utility.yul\":23251:23265   */\n      add\n        /* \"#utility.yul\":23244:23292   */\n      mstore\n        /* \"#utility.yul\":23127:23299   */\n      pop\n      jump\t// out\n        /* \"#utility.yul\":23305:23671   */\n    tag_549:\n        /* \"#utility.yul\":23447:23450   */\n      0x00\n        /* \"#utility.yul\":23468:23535   */\n      tag_749\n        /* \"#utility.yul\":23532:23534   */\n      0x16\n        /* \"#utility.yul\":23527:23530   */\n      dup4\n        /* \"#utility.yul\":23468:23535   */\n      tag_515\n      jump\t// in\n    tag_749:\n        /* \"#utility.yul\":23461:23535   */\n      swap2\n      pop\n        /* \"#utility.yul\":23544:23637   */\n      tag_750\n        /* \"#utility.yul\":23633:23636   */\n      dup3\n        /* \"#utility.yul\":23544:23637   */\n      tag_548\n      jump\t// in\n    tag_750:\n        /* \"#utility.yul\":23662:23664   */\n      0x20\n        /* \"#utility.yul\":23657:23660   */\n      dup3\n        /* \"#utility.yul\":23653:23665   */\n      add\n        /* \"#utility.yul\":23646:23665   */\n      swap1\n      pop\n        /* \"#utility.yul\":23305:23671   */\n      swap2\n      swap1\n      pop\n      jump\t// out\n        /* \"#utility.yul\":23677:24096   */\n    tag_495:\n        /* \"#utility.yul\":23843:23847   */\n      0x00\n        /* \"#utility.yul\":23881:23883   */\n      0x20\n        /* \"#utility.yul\":23870:23879   */\n      dup3\n        /* \"#utility.yul\":23866:23884   */\n      add\n        /* \"#utility.yul\":23858:23884   */\n      swap1\n      pop\n        /* \"#utility.yul\":23930:23939   */\n      dup2\n        /* \"#utility.yul\":23924:23928   */\n      dup2\n        /* \"#utility.yul\":23920:23940   */\n      sub\n        /* \"#utility.yul\":23916:23917   */\n      0x00\n        /* \"#utility.yul\":23905:23914   */\n      dup4\n        /* \"#utility.yul\":23901:23918   */\n      add\n        /* \"#utility.yul\":23894:23941   */\n      mstore\n        /* \"#utility.yul\":23958:24089   */\n      tag_752\n        /* \"#utility.yul\":24084:24088   */\n      dup2\n        /* \"#utility.yul\":23958:24089   */\n      tag_549\n      jump\t// in\n    tag_752:\n        /* \"#utility.yul\":23950:24089   */\n      swap1\n      pop\n        /* \"#utility.yul\":23677:24096   */\n      swap2\n      swap1\n      pop\n      jump\t// out\n\n    auxdata: 0xa2646970667358221220720801aa0ee4b70c81913e4ed2987d284638c8d46094688826b5e36e85b2eb1664736f6c634300081a0033\n}\n",
				"bytecode": {
					"linkReferences": {},
					"object": "608060405234801561000f575f80fd5b50604051613e02380380613e02833981810160405281019061003191906101c3565b6002600481905550335f806101000a81548173ffffffffffffffffffffffffffffffffffffffff021916908373ffffffffffffffffffffffffffffffffffffffff1602179055508360055f6101000a81548173ffffffffffffffffffffffffffffffffffffffff021916908373ffffffffffffffffffffffffffffffffffffffff1602179055508260065f6101000a81548173ffffffffffffffffffffffffffffffffffffffff021916908373ffffffffffffffffffffffffffffffffffffffff1602179055505f60038190555080600181905550426009819055505f600a819055505f600b819055505f6008819055508160078190555050505050610227565b5f80fd5b5f73ffffffffffffffffffffffffffffffffffffffff82169050919050565b5f61015f82610136565b9050919050565b61016f81610155565b8114610179575f80fd5b50565b5f8151905061018a81610166565b92915050565b5f819050919050565b6101a281610190565b81146101ac575f80fd5b50565b5f815190506101bd81610199565b92915050565b5f805f80608085870312156101db576101da610132565b5b5f6101e88782880161017c565b94505060206101f98782880161017c565b935050604061020a878288016101af565b925050606061021b878288016101af565b91505092959194509250565b613bce806102345f395ff3fe608060405234801561000f575f80fd5b50600436106101d8575f3560e01c80639cd441da11610102578063df0b6ba3116100a0578063eb8680bc1161006f578063eb8680bc1461057b578063f2fde38b146105ab578063f8b70637146105c7578063ff329565146105e5576101d8565b8063df0b6ba3146104de578063e1b1c90a1461050e578063e619a4981461052c578063e6aa216c1461055c576101d8565b8063ba9a7a56116100dc578063ba9a7a561461047a578063cf0b227014610498578063d73792a9146104b6578063db2e21bc146104d4576101d8565b80639cd441da1461040e5780639de3f60a1461043e578063ac93cc181461045c576101d8565b80632d11c58a1161017a5780637632d96e116101495780637632d96e146103715780637eb730121461038f57806392526664146103ad5780639c8f9f23146103dd576101d8565b80632d11c58a146102e45780634e12d67614610302578063529692f31461032057806360246c8814610350576101d8565b80630c131757116101b65780630c1317571461025a57806319d8ac611461027857806328164b78146102965780632b7eb20c146102c6576101d8565b806303102091146101dc578063053f14da1461020c57806306ebcc6d1461022a575b5f80fd5b6101f660048036038101906101f19190613086565b610603565b60405161020391906130c0565b60405180910390f35b610214610afb565b60405161022191906130c0565b60405180910390f35b610244600480360381019061023f9190613133565b610b01565b60405161025191906130c0565b60405180910390f35b610262610b47565b60405161026f91906130c0565b60405180910390f35b610280610b4d565b60405161028d91906130c0565b60405180910390f35b6102b060048036038101906102ab919061315e565b610b53565b6040516102bd91906131c8565b60405180910390f35b6102ce610ea9565b6040516102db91906130c0565b60405180910390f35b6102ec610ed1565b6040516102f991906130c0565b60405180910390f35b61030a610ed6565b60405161031791906130c0565b60405180910390f35b61033a60048036038101906103359190613086565b610edc565b60405161034791906130c0565b60405180910390f35b6103586110fa565b60405161036894939291906131e1565b60405180910390f35b61037961124d565b60405161038691906130c0565b60405180910390f35b610397611253565b6040516103a49190613233565b60405180910390f35b6103c760048036038101906103c29190613133565b611278565b6040516103d491906130c0565b60405180910390f35b6103f760048036038101906103f29190613086565b61128d565b60405161040592919061324c565b60405180910390f35b61042860048036038101906104239190613273565b61178e565b60405161043591906130c0565b60405180910390f35b610446611d18565b60405161045391906130c0565b60405180910390f35b610464611d1d565b60405161047191906130c0565b60405180910390f35b610482611d23565b60405161048f91906130c0565b60405180910390f35b6104a0611d29565b6040516104ad9190613233565b60405180910390f35b6104be611d4c565b6040516104cb91906130c0565b60405180910390f35b6104dc611d52565b005b6104f860048036038101906104f3919061315e565b6120ad565b60405161050591906131c8565b60405180910390f35b610516612403565b60405161052391906130c0565b60405180910390f35b61054660048036038101906105419190613086565b612409565b60405161055391906130c0565b60405180910390f35b610564612901565b60405161057292919061324c565b60405180910390f35b61059560048036038101906105909190613086565b612aba565b6040516105a291906130c0565b60405180910390f35b6105c560048036038101906105c09190613133565b612cd8565b005b6105cf612e15565b6040516105dc9190613233565b60405180910390f35b6105ed612e3a565b6040516105fa91906130c0565b60405180910390f35b5f8060055f9054906101000a900473ffffffffffffffffffffffffffffffffffffffff1673ffffffffffffffffffffffffffffffffffffffff166370a08231306040518263ffffffff1660e01b815260040161065f9190613233565b602060405180830381865afa15801561067a573d5f803e3d5ffd5b505050506040513d601f19601f8201168201806040525081019061069e91906132c5565b90505f60065f9054906101000a900473ffffffffffffffffffffffffffffffffffffffff1673ffffffffffffffffffffffffffffffffffffffff166370a08231306040518263ffffffff1660e01b81526004016106fb9190613233565b602060405180830381865afa158015610716573d5f803e3d5ffd5b505050506040513d601f19601f8201168201806040525081019061073a91906132c5565b90505f841161077e576040517f08c379a00000000000000000000000000000000000000000000000000000000081526004016107759061334a565b60405180910390fd5b5f8211801561078c57505f81115b6107cb576040517f08c379a00000000000000000000000000000000000000000000000000000000081526004016107c2906133b2565b60405180910390fd5b5f6103e860036103e86107de91906133fd565b866107e99190613430565b6107f3919061349e565b9050808361080191906134ce565b818361080d9190613430565b610817919061349e565b93505f841161085b576040517f08c379a00000000000000000000000000000000000000000000000000000000081526004016108529061354b565b60405180910390fd5b81841061089d576040517f08c379a0000000000000000000000000000000000000000000000000000000008152600401610894906135b3565b60405180910390fd5b60055f9054906101000a900473ffffffffffffffffffffffffffffffffffffffff1673ffffffffffffffffffffffffffffffffffffffff166323b872dd3330886040518463ffffffff1660e01b81526004016108fb939291906135d1565b6020604051808303815f875af1158015610917573d5f803e3d5ffd5b505050506040513d601f19601f8201168201806040525081019061093b9190613630565b61097a576040517f08c379a0000000000000000000000000000000000000000000000000000000008152600401610971906136a5565b60405180910390fd5b60065f9054906101000a900473ffffffffffffffffffffffffffffffffffffffff1673ffffffffffffffffffffffffffffffffffffffff1663a9059cbb33866040518363ffffffff1660e01b81526004016109d69291906136c3565b6020604051808303815f875af11580156109f2573d5f803e3d5ffd5b505050506040513d601f19601f82011682018060405250810190610a169190613630565b610a55576040517f08c379a0000000000000000000000000000000000000000000000000000000008152600401610a4c90613734565b60405180910390fd5b610a5d612e40565b3373ffffffffffffffffffffffffffffffffffffffff167f5380cf97d8f645d3c4896da60c053458dca03a3a31cec642ac80e1ddf0d8d02a60055f9054906101000a900473ffffffffffffffffffffffffffffffffffffffff168760065f9054906101000a900473ffffffffffffffffffffffffffffffffffffffff1688604051610aeb9493929190613752565b60405180910390a2505050919050565b60085481565b5f60025f8373ffffffffffffffffffffffffffffffffffffffff1673ffffffffffffffffffffffffffffffffffffffff1681526020019081526020015f20549050919050565b60075481565b60095481565b5f8060055f9054906101000a900473ffffffffffffffffffffffffffffffffffffffff1673ffffffffffffffffffffffffffffffffffffffff166370a08231306040518263ffffffff1660e01b8152600401610baf9190613233565b602060405180830381865afa158015610bca573d5f803e3d5ffd5b505050506040513d601f19601f82011682018060405250810190610bee91906132c5565b905084811015610c33576040517f08c379a0000000000000000000000000000000000000000000000000000000008152600401610c2a906137df565b60405180910390fd5b60055f9054906101000a900473ffffffffffffffffffffffffffffffffffffffff1673ffffffffffffffffffffffffffffffffffffffff1663a9059cbb84876040518363ffffffff1660e01b8152600401610c8f9291906136c3565b6020604051808303815f875af1158015610cab573d5f803e3d5ffd5b505050506040513d601f19601f82011682018060405250810190610ccf9190613630565b610d0e576040517f08c379a0000000000000000000000000000000000000000000000000000000008152600401610d0590613847565b60405180910390fd5b5f6103e8600387610d1f9190613430565b610d29919061349e565b90508373ffffffffffffffffffffffffffffffffffffffff16631671b85e8783886040518463ffffffff1660e01b8152600401610d6893929190613865565b6020604051808303815f875af1158015610d84573d5f803e3d5ffd5b505050506040513d601f19601f82011682018060405250810190610da89190613630565b505f60055f9054906101000a900473ffffffffffffffffffffffffffffffffffffffff1673ffffffffffffffffffffffffffffffffffffffff166370a08231306040518263ffffffff1660e01b8152600401610e049190613233565b602060405180830381865afa158015610e1f573d5f803e3d5ffd5b505050506040513d601f19601f82011682018060405250810190610e4391906132c5565b90508183610e5191906134ce565b811015610e93576040517f08c379a0000000000000000000000000000000000000000000000000000000008152600401610e8a906138e4565b60405180910390fd5b610e9b612e40565b600193505050509392505050565b5f80600b5403610ebb575f9050610ece565b600b54600a54610ecb919061349e565b90505b90565b600381565b600a5481565b5f8060055f9054906101000a900473ffffffffffffffffffffffffffffffffffffffff1673ffffffffffffffffffffffffffffffffffffffff166370a08231306040518263ffffffff1660e01b8152600401610f389190613233565b602060405180830381865afa158015610f53573d5f803e3d5ffd5b505050506040513d601f19601f82011682018060405250810190610f7791906132c5565b90505f60065f9054906101000a900473ffffffffffffffffffffffffffffffffffffffff1673ffffffffffffffffffffffffffffffffffffffff166370a08231306040518263ffffffff1660e01b8152600401610fd49190613233565b602060405180830381865afa158015610fef573d5f803e3d5ffd5b505050506040513d601f19601f8201168201806040525081019061101391906132c5565b90505f8411611057576040517f08c379a000000000000000000000000000000000000000000000000000000000815260040161104e9061334a565b60405180910390fd5b5f8211801561106557505f81115b6110a4576040517f08c379a000000000000000000000000000000000000000000000000000000000815260040161109b906133b2565b60405180910390fd5b5f6103e860036103e86110b791906133fd565b866110c29190613430565b6110cc919061349e565b905080826110da91906134ce565b81846110e69190613430565b6110f0919061349e565b9350505050919050565b5f805f8060055f9054906101000a900473ffffffffffffffffffffffffffffffffffffffff1673ffffffffffffffffffffffffffffffffffffffff166370a08231306040518263ffffffff1660e01b81526004016111589190613233565b602060405180830381865afa158015611173573d5f803e3d5ffd5b505050506040513d601f19601f8201168201806040525081019061119791906132c5565b935060065f9054906101000a900473ffffffffffffffffffffffffffffffffffffffff1673ffffffffffffffffffffffffffffffffffffffff166370a08231306040518263ffffffff1660e01b81526004016111f39190613233565b602060405180830381865afa15801561120e573d5f803e3d5ffd5b505050506040513d601f19601f8201168201806040525081019061123291906132c5565b9250600354915082846112459190613430565b905090919293565b600b5481565b60055f9054906101000a900473ffffffffffffffffffffffffffffffffffffffff1681565b6002602052805f5260405f205f915090505481565b5f805f60055f9054906101000a900473ffffffffffffffffffffffffffffffffffffffff1673ffffffffffffffffffffffffffffffffffffffff166370a08231306040518263ffffffff1660e01b81526004016112ea9190613233565b602060405180830381865afa158015611305573d5f803e3d5ffd5b505050506040513d601f19601f8201168201806040525081019061132991906132c5565b90505f60065f9054906101000a900473ffffffffffffffffffffffffffffffffffffffff1673ffffffffffffffffffffffffffffffffffffffff166370a08231306040518263ffffffff1660e01b81526004016113869190613233565b602060405180830381865afa1580156113a1573d5f803e3d5ffd5b505050506040513d601f19601f820116820180604052508101906113c591906132c5565b90505f8511611409576040517f08c379a00000000000000000000000000000000000000000000000000000000081526004016114009061394c565b60405180910390fd5b8460025f3373ffffffffffffffffffffffffffffffffffffffff1673ffffffffffffffffffffffffffffffffffffffff1681526020019081526020015f20541015611489576040517f08c379a0000000000000000000000000000000000000000000000000000000008152600401611480906139b4565b60405180910390fd5b60035482866114989190613430565b6114a2919061349e565b935060035481866114b39190613430565b6114bd919061349e565b92505f841180156114cd57505f83115b61150c576040517f08c379a0000000000000000000000000000000000000000000000000000000008152600401611503906135b3565b60405180910390fd5b8460025f3373ffffffffffffffffffffffffffffffffffffffff1673ffffffffffffffffffffffffffffffffffffffff1681526020019081526020015f205f82825461155891906133fd565b925050819055508460035f82825461157091906133fd565b9250508190555061157f612e40565b60055f9054906101000a900473ffffffffffffffffffffffffffffffffffffffff1673ffffffffffffffffffffffffffffffffffffffff1663a9059cbb33866040518363ffffffff1660e01b81526004016115db9291906136c3565b6020604051808303815f875af11580156115f7573d5f803e3d5ffd5b505050506040513d601f19601f8201168201806040525081019061161b9190613630565b61165a576040517f08c379a0000000000000000000000000000000000000000000000000000000008152600401611651906136a5565b60405180910390fd5b60065f9054906101000a900473ffffffffffffffffffffffffffffffffffffffff1673ffffffffffffffffffffffffffffffffffffffff1663a9059cbb33856040518363ffffffff1660e01b81526004016116b69291906136c3565b6020604051808303815f875af11580156116d2573d5f803e3d5ffd5b505050506040513d601f19601f820116820180604052508101906116f69190613630565b611735576040517f08c379a000000000000000000000000000000000000000000000000000000000815260040161172c90613734565b60405180910390fd5b3373ffffffffffffffffffffffffffffffffffffffff167f59c3a0b60c6ab7deb62e1440c9e72441db6db7dfe514dba8cb18e60c0d896efa85858860405161177f93929190613865565b60405180910390a25050915091565b5f8060055f9054906101000a900473ffffffffffffffffffffffffffffffffffffffff1673ffffffffffffffffffffffffffffffffffffffff166370a08231306040518263ffffffff1660e01b81526004016117ea9190613233565b602060405180830381865afa158015611805573d5f803e3d5ffd5b505050506040513d601f19601f8201168201806040525081019061182991906132c5565b90505f60065f9054906101000a900473ffffffffffffffffffffffffffffffffffffffff1673ffffffffffffffffffffffffffffffffffffffff166370a08231306040518263ffffffff1660e01b81526004016118869190613233565b602060405180830381865afa1580156118a1573d5f803e3d5ffd5b505050506040513d601f19601f820116820180604052508101906118c591906132c5565b90505f851180156118d557505f84115b611914576040517f08c379a000000000000000000000000000000000000000000000000000000000815260040161190b90613a1c565b60405180910390fd5b60055f9054906101000a900473ffffffffffffffffffffffffffffffffffffffff1673ffffffffffffffffffffffffffffffffffffffff166323b872dd3330886040518463ffffffff1660e01b8152600401611972939291906135d1565b6020604051808303815f875af115801561198e573d5f803e3d5ffd5b505050506040513d601f19601f820116820180604052508101906119b29190613630565b6119f1576040517f08c379a00000000000000000000000000000000000000000000000000000000081526004016119e8906136a5565b60405180910390fd5b60065f9054906101000a900473ffffffffffffffffffffffffffffffffffffffff1673ffffffffffffffffffffffffffffffffffffffff166323b872dd3330876040518463ffffffff1660e01b8152600401611a4f939291906135d1565b6020604051808303815f875af1158015611a6b573d5f803e3d5ffd5b505050506040513d601f19601f82011682018060405250810190611a8f9190613630565b611ace576040517f08c379a0000000000000000000000000000000000000000000000000000000008152600401611ac590613734565b60405180910390fd5b5f60035403611bbd578492506103e88311611b1e576040517f08c379a0000000000000000000000000000000000000000000000000000000008152600401611b15906135b3565b60405180910390fd5b826003819055506103e883611b3391906133fd565b60025f3373ffffffffffffffffffffffffffffffffffffffff1673ffffffffffffffffffffffffffffffffffffffff1681526020019081526020015f20819055506103e860025f8073ffffffffffffffffffffffffffffffffffffffff1673ffffffffffffffffffffffffffffffffffffffff1681526020019081526020015f2081905550611c09565b5f8260035487611bcd9190613430565b611bd7919061349e565b90505f8260035487611be99190613430565b611bf3919061349e565b9050808210611c025780611c04565b815b945050505b5f8311611c4b576040517f08c379a0000000000000000000000000000000000000000000000000000000008152600401611c42906139b4565b60405180910390fd5b8260035f828254611c5c91906134ce565b925050819055508260025f3373ffffffffffffffffffffffffffffffffffffffff1673ffffffffffffffffffffffffffffffffffffffff1681526020019081526020015f205f828254611caf91906134ce565b92505081905550611cbe612e40565b3373ffffffffffffffffffffffffffffffffffffffff167fbeb3885786d637a474cbc287c0a44587231633a077f0bd30354d5a4b18996fce868686604051611d0893929190613865565b60405180910390a2505092915050565b600381565b60015481565b6103e881565b5f8054906101000a900473ffffffffffffffffffffffffffffffffffffffff1681565b6103e881565b5f8054906101000a900473ffffffffffffffffffffffffffffffffffffffff1673ffffffffffffffffffffffffffffffffffffffff163373ffffffffffffffffffffffffffffffffffffffff1614611ddf576040517f08c379a0000000000000000000000000000000000000000000000000000000008152600401611dd690613aaa565b60405180910390fd5b5f60055f9054906101000a900473ffffffffffffffffffffffffffffffffffffffff1673ffffffffffffffffffffffffffffffffffffffff166370a08231306040518263ffffffff1660e01b8152600401611e3a9190613233565b602060405180830381865afa158015611e55573d5f803e3d5ffd5b505050506040513d601f19601f82011682018060405250810190611e7991906132c5565b90505f60065f9054906101000a900473ffffffffffffffffffffffffffffffffffffffff1673ffffffffffffffffffffffffffffffffffffffff166370a08231306040518263ffffffff1660e01b8152600401611ed69190613233565b602060405180830381865afa158015611ef1573d5f803e3d5ffd5b505050506040513d601f19601f82011682018060405250810190611f1591906132c5565b90505f821115611fdc5760055f9054906101000a900473ffffffffffffffffffffffffffffffffffffffff1673ffffffffffffffffffffffffffffffffffffffff1663a9059cbb5f8054906101000a900473ffffffffffffffffffffffffffffffffffffffff16846040518363ffffffff1660e01b8152600401611f9a9291906136c3565b6020604051808303815f875af1158015611fb6573d5f803e3d5ffd5b505050506040513d601f19601f82011682018060405250810190611fda9190613630565b505b5f8111156120a15760065f9054906101000a900473ffffffffffffffffffffffffffffffffffffffff1673ffffffffffffffffffffffffffffffffffffffff1663a9059cbb5f8054906101000a900473ffffffffffffffffffffffffffffffffffffffff16836040518363ffffffff1660e01b815260040161205f9291906136c3565b6020604051808303815f875af115801561207b573d5f803e3d5ffd5b505050506040513d601f19601f8201168201806040525081019061209f9190613630565b505b6120a9612e40565b5050565b5f8060065f9054906101000a900473ffffffffffffffffffffffffffffffffffffffff1673ffffffffffffffffffffffffffffffffffffffff166370a08231306040518263ffffffff1660e01b81526004016121099190613233565b602060405180830381865afa158015612124573d5f803e3d5ffd5b505050506040513d601f19601f8201168201806040525081019061214891906132c5565b90508481101561218d576040517f08c379a0000000000000000000000000000000000000000000000000000000008152600401612184906137df565b60405180910390fd5b60065f9054906101000a900473ffffffffffffffffffffffffffffffffffffffff1673ffffffffffffffffffffffffffffffffffffffff1663a9059cbb84876040518363ffffffff1660e01b81526004016121e99291906136c3565b6020604051808303815f875af1158015612205573d5f803e3d5ffd5b505050506040513d601f19601f820116820180604052508101906122299190613630565b612268576040517f08c379a000000000000000000000000000000000000000000000000000000000815260040161225f90613847565b60405180910390fd5b5f6103e86003876122799190613430565b612283919061349e565b90508373ffffffffffffffffffffffffffffffffffffffff16631671b85e8783886040518463ffffffff1660e01b81526004016122c293929190613865565b6020604051808303815f875af11580156122de573d5f803e3d5ffd5b505050506040513d601f19601f820116820180604052508101906123029190613630565b505f60065f9054906101000a900473ffffffffffffffffffffffffffffffffffffffff1673ffffffffffffffffffffffffffffffffffffffff166370a08231306040518263ffffffff1660e01b815260040161235e9190613233565b602060405180830381865afa158015612379573d5f803e3d5ffd5b505050506040513d601f19601f8201168201806040525081019061239d91906132c5565b905081836123ab91906134ce565b8110156123ed576040517f08c379a00000000000000000000000000000000000000000000000000000000081526004016123e4906138e4565b60405180910390fd5b6123f5612e40565b600193505050509392505050565b60045481565b5f8060055f9054906101000a900473ffffffffffffffffffffffffffffffffffffffff1673ffffffffffffffffffffffffffffffffffffffff166370a08231306040518263ffffffff1660e01b81526004016124659190613233565b602060405180830381865afa158015612480573d5f803e3d5ffd5b505050506040513d601f19601f820116820180604052508101906124a491906132c5565b90505f60065f9054906101000a900473ffffffffffffffffffffffffffffffffffffffff1673ffffffffffffffffffffffffffffffffffffffff166370a08231306040518263ffffffff1660e01b81526004016125019190613233565b602060405180830381865afa15801561251c573d5f803e3d5ffd5b505050506040513d601f19601f8201168201806040525081019061254091906132c5565b90505f8411612584576040517f08c379a000000000000000000000000000000000000000000000000000000000815260040161257b9061334a565b60405180910390fd5b5f8211801561259257505f81115b6125d1576040517f08c379a00000000000000000000000000000000000000000000000000000000081526004016125c8906133b2565b60405180910390fd5b5f6103e860036103e86125e491906133fd565b866125ef9190613430565b6125f9919061349e565b9050808261260791906134ce565b81846126139190613430565b61261d919061349e565b93505f8411612661576040517f08c379a00000000000000000000000000000000000000000000000000000000081526004016126589061354b565b60405180910390fd5b8284106126a3576040517f08c379a000000000000000000000000000000000000000000000000000000000815260040161269a906135b3565b60405180910390fd5b60065f9054906101000a900473ffffffffffffffffffffffffffffffffffffffff1673ffffffffffffffffffffffffffffffffffffffff166323b872dd3330886040518463ffffffff1660e01b8152600401612701939291906135d1565b6020604051808303815f875af115801561271d573d5f803e3d5ffd5b505050506040513d601f19601f820116820180604052508101906127419190613630565b612780576040517f08c379a000000000000000000000000000000000000000000000000000000000815260040161277790613734565b60405180910390fd5b60055f9054906101000a900473ffffffffffffffffffffffffffffffffffffffff1673ffffffffffffffffffffffffffffffffffffffff1663a9059cbb33866040518363ffffffff1660e01b81526004016127dc9291906136c3565b6020604051808303815f875af11580156127f8573d5f803e3d5ffd5b505050506040513d601f19601f8201168201806040525081019061281c9190613630565b61285b576040517f08c379a0000000000000000000000000000000000000000000000000000000008152600401612852906136a5565b60405180910390fd5b612863612e40565b3373ffffffffffffffffffffffffffffffffffffffff167f5380cf97d8f645d3c4896da60c053458dca03a3a31cec642ac80e1ddf0d8d02a60065f9054906101000a900473ffffffffffffffffffffffffffffffffffffffff168760055f9054906101000a900473ffffffffffffffffffffffffffffffffffffffff16886040516128f19493929190613752565b60405180910390a2505050919050565b5f805f60055f9054906101000a900473ffffffffffffffffffffffffffffffffffffffff1673ffffffffffffffffffffffffffffffffffffffff166370a08231306040518263ffffffff1660e01b815260040161295e9190613233565b602060405180830381865afa158015612979573d5f803e3d5ffd5b505050506040513d601f19601f8201168201806040525081019061299d91906132c5565b90505f60065f9054906101000a900473ffffffffffffffffffffffffffffffffffffffff1673ffffffffffffffffffffffffffffffffffffffff166370a08231306040518263ffffffff1660e01b81526004016129fa9190613233565b602060405180830381865afa158015612a15573d5f803e3d5ffd5b505050506040513d601f19601f82011682018060405250810190612a3991906132c5565b90505f82118015612a4957505f81115b15612aad57600182612a5b91906134ce565b670de0b6b3a764000082612a6f9190613430565b612a79919061349e565b9350600181612a8891906134ce565b670de0b6b3a764000083612a9c9190613430565b612aa6919061349e565b9250612ab4565b5f93505f92505b50509091565b5f8060055f9054906101000a900473ffffffffffffffffffffffffffffffffffffffff1673ffffffffffffffffffffffffffffffffffffffff166370a08231306040518263ffffffff1660e01b8152600401612b169190613233565b602060405180830381865afa158015612b31573d5f803e3d5ffd5b505050506040513d601f19601f82011682018060405250810190612b5591906132c5565b90505f60065f9054906101000a900473ffffffffffffffffffffffffffffffffffffffff1673ffffffffffffffffffffffffffffffffffffffff166370a08231306040518263ffffffff1660e01b8152600401612bb29190613233565b602060405180830381865afa158015612bcd573d5f803e3d5ffd5b505050506040513d601f19601f82011682018060405250810190612bf191906132c5565b90505f8411612c35576040517f08c379a0000000000000000000000000000000000000000000000000000000008152600401612c2c9061334a565b60405180910390fd5b5f82118015612c4357505f81115b612c82576040517f08c379a0000000000000000000000000000000000000000000000000000000008152600401612c79906133b2565b60405180910390fd5b5f6103e860036103e8612c9591906133fd565b86612ca09190613430565b612caa919061349e565b90508083612cb891906134ce565b8183612cc49190613430565b612cce919061349e565b9350505050919050565b5f8054906101000a900473ffffffffffffffffffffffffffffffffffffffff1673ffffffffffffffffffffffffffffffffffffffff163373ffffffffffffffffffffffffffffffffffffffff1614612d65576040517f08c379a0000000000000000000000000000000000000000000000000000000008152600401612d5c90613aaa565b60405180910390fd5b5f73ffffffffffffffffffffffffffffffffffffffff168173ffffffffffffffffffffffffffffffffffffffff1603612dd3576040517f08c379a0000000000000000000000000000000000000000000000000000000008152600401612dca90613b12565b60405180910390fd5b805f806101000a81548173ffffffffffffffffffffffffffffffffffffffff021916908373ffffffffffffffffffffffffffffffffffffffff16021790555050565b60065f9054906101000a900473ffffffffffffffffffffffffffffffffffffffff1681565b60035481565b5f60055f9054906101000a900473ffffffffffffffffffffffffffffffffffffffff1673ffffffffffffffffffffffffffffffffffffffff166370a08231306040518263ffffffff1660e01b8152600401612e9b9190613233565b602060405180830381865afa158015612eb6573d5f803e3d5ffd5b505050506040513d601f19601f82011682018060405250810190612eda91906132c5565b90505f60065f9054906101000a900473ffffffffffffffffffffffffffffffffffffffff1673ffffffffffffffffffffffffffffffffffffffff166370a08231306040518263ffffffff1660e01b8152600401612f379190613233565b602060405180830381865afa158015612f52573d5f803e3d5ffd5b505050506040513d601f19601f82011682018060405250810190612f7691906132c5565b90505f600182612f8691906134ce565b670de0b6b3a764000084612f9a9190613430565b612fa4919061349e565b90505f8111612fe8576040517f08c379a0000000000000000000000000000000000000000000000000000000008152600401612fdf90613b7a565b60405180910390fd5b5f4290505f60095482612ffb91906133fd565b90508060085461300b9190613430565b600a5f82825461301b91906134ce565b9250508190555080600b5f82825461303391906134ce565b9250508190555082600881905550816009819055505050505050565b5f80fd5b5f819050919050565b61306581613053565b811461306f575f80fd5b50565b5f813590506130808161305c565b92915050565b5f6020828403121561309b5761309a61304f565b5b5f6130a884828501613072565b91505092915050565b6130ba81613053565b82525050565b5f6020820190506130d35f8301846130b1565b92915050565b5f73ffffffffffffffffffffffffffffffffffffffff82169050919050565b5f613102826130d9565b9050919050565b613112816130f8565b811461311c575f80fd5b50565b5f8135905061312d81613109565b92915050565b5f602082840312156131485761314761304f565b5b5f6131558482850161311f565b91505092915050565b5f805f606084860312156131755761317461304f565b5b5f61318286828701613072565b935050602061319386828701613072565b92505060406131a48682870161311f565b9150509250925092565b5f8115159050919050565b6131c2816131ae565b82525050565b5f6020820190506131db5f8301846131b9565b92915050565b5f6080820190506131f45f8301876130b1565b61320160208301866130b1565b61320e60408301856130b1565b61321b60608301846130b1565b95945050505050565b61322d816130f8565b82525050565b5f6020820190506132465f830184613224565b92915050565b5f60408201905061325f5f8301856130b1565b61326c60208301846130b1565b9392505050565b5f80604083850312156132895761328861304f565b5b5f61329685828601613072565b92505060206132a785828601613072565b9150509250929050565b5f815190506132bf8161305c565b92915050565b5f602082840312156132da576132d961304f565b5b5f6132e7848285016132b1565b91505092915050565b5f82825260208201905092915050565b7f496e76616c696420616d6f756e740000000000000000000000000000000000005f82015250565b5f613334600e836132f0565b915061333f82613300565b602082019050919050565b5f6020820190508181035f83015261336181613328565b9050919050565b7f506f6f6c206e6f7420696e697469616c697a65640000000000000000000000005f82015250565b5f61339c6014836132f0565b91506133a782613368565b602082019050919050565b5f6020820190508181035f8301526133c981613390565b9050919050565b7f4e487b71000000000000000000000000000000000000000000000000000000005f52601160045260245ffd5b5f61340782613053565b915061341283613053565b925082820390508181111561342a576134296133d0565b5b92915050565b5f61343a82613053565b915061344583613053565b925082820261345381613053565b9150828204841483151761346a576134696133d0565b5b5092915050565b7f4e487b71000000000000000000000000000000000000000000000000000000005f52601260045260245ffd5b5f6134a882613053565b91506134b383613053565b9250826134c3576134c2613471565b5b828204905092915050565b5f6134d882613053565b91506134e383613053565b92508282019050808211156134fb576134fa6133d0565b5b92915050565b7f496e73756666696369656e74206f757470757420616d6f756e740000000000005f82015250565b5f613535601a836132f0565b915061354082613501565b602082019050919050565b5f6020820190508181035f83015261356281613529565b9050919050565b7f496e73756666696369656e74206c6971756964697479000000000000000000005f82015250565b5f61359d6016836132f0565b91506135a882613569565b602082019050919050565b5f6020820190508181035f8301526135ca81613591565b9050919050565b5f6060820190506135e45f830186613224565b6135f16020830185613224565b6135fe60408301846130b1565b949350505050565b61360f816131ae565b8114613619575f80fd5b50565b5f8151905061362a81613606565b92915050565b5f602082840312156136455761364461304f565b5b5f6136528482850161361c565b91505092915050565b7f5472616e736665722041206661696c65640000000000000000000000000000005f82015250565b5f61368f6011836132f0565b915061369a8261365b565b602082019050919050565b5f6020820190508181035f8301526136bc81613683565b9050919050565b5f6040820190506136d65f830185613224565b6136e360208301846130b1565b9392505050565b7f5472616e736665722042206661696c65640000000000000000000000000000005f82015250565b5f61371e6011836132f0565b9150613729826136ea565b602082019050919050565b5f6020820190508181035f83015261374b81613712565b9050919050565b5f6080820190506137655f830187613224565b61377260208301866130b1565b61377f6040830185613224565b61378c60608301846130b1565b95945050505050565b7f4e6f7420656e6f756768206d6f6e6579000000000000000000000000000000005f82015250565b5f6137c96010836132f0565b91506137d482613795565b602082019050919050565b5f6020820190508181035f8301526137f6816137bd565b9050919050565b7f5472616e73666572206572726f720000000000000000000000000000000000005f82015250565b5f613831600e836132f0565b915061383c826137fd565b602082019050919050565b5f6020820190508181035f83015261385e81613825565b9050919050565b5f6060820190506138785f8301866130b1565b61388560208301856130b1565b61389260408301846130b1565b949350505050565b7f446f206e6f742067697665206261636b20656e6f756768206d6f6e65790000005f82015250565b5f6138ce601d836132f0565b91506138d98261389a565b602082019050919050565b5f6020820190508181035f8301526138fb816138c2565b9050919050565b7f496e76616c6964204c5020746f6b656e730000000000000000000000000000005f82015250565b5f6139366011836132f0565b915061394182613902565b602082019050919050565b5f6020820190508181035f8301526139638161392a565b9050919050565b7f496e73756666696369656e74204c5020746f6b656e73000000000000000000005f82015250565b5f61399e6016836132f0565b91506139a98261396a565b602082019050919050565b5f6020820190508181035f8301526139cb81613992565b9050919050565b7f496e76616c696420616d6f756e747300000000000000000000000000000000005f82015250565b5f613a06600f836132f0565b9150613a11826139d2565b602082019050919050565b5f6020820190508181035f830152613a33816139fa565b9050919050565b7f4f6e6c7920706f6f6c206f776e65722063616e2063616c6c20746869732066755f8201527f6e6374696f6e0000000000000000000000000000000000000000000000000000602082015250565b5f613a946026836132f0565b9150613a9f82613a3a565b604082019050919050565b5f6020820190508181035f830152613ac181613a88565b9050919050565b7f496e76616c6964206164647265737300000000000000000000000000000000005f82015250565b5f613afc600f836132f0565b9150613b0782613ac8565b602082019050919050565b5f6020820190508181035f830152613b2981613af0565b9050919050565b7f5072696365206d75737420626520706f736974697665000000000000000000005f82015250565b5f613b646016836132f0565b9150613b6f82613b30565b602082019050919050565b5f6020820190508181035f830152613b9181613b58565b905091905056fea2646970667358221220720801aa0ee4b70c81913e4ed2987d284638c8d46094688826b5e36e85b2eb1664736f6c634300081a0033",
					"opcodes": "PUSH1 0x80 PUSH1 0x40 MSTORE CALLVALUE DUP1 ISZERO PUSH2 0xF JUMPI PUSH0 DUP1 REVERT JUMPDEST POP PUSH1 0x40 MLOAD PUSH2 0x3E02 CODESIZE SUB DUP1 PUSH2 0x3E02 DUP4 CODECOPY DUP2 DUP2 ADD PUSH1 0x40 MSTORE DUP2 ADD SWAP1 PUSH2 0x31 SWAP2 SWAP1 PUSH2 0x1C3 JUMP JUMPDEST PUSH1 0x2 PUSH1 0x4 DUP2 SWAP1 SSTORE POP CALLER PUSH0 DUP1 PUSH2 0x100 EXP DUP2 SLOAD DUP2 PUSH20 0xFFFFFFFFFFFFFFFFFFFFFFFFFFFFFFFFFFFFFFFF MUL NOT AND SWAP1 DUP4 PUSH20 0xFFFFFFFFFFFFFFFFFFFFFFFFFFFFFFFFFFFFFFFF AND MUL OR SWAP1 SSTORE POP DUP4 PUSH1 0x5 PUSH0 PUSH2 0x100 EXP DUP2 SLOAD DUP2 PUSH20 0xFFFFFFFFFFFFFFFFFFFFFFFFFFFFFFFFFFFFFFFF MUL NOT AND SWAP1 DUP4 PUSH20 0xFFFFFFFFFFFFFFFFFFFFFFFFFFFFFFFFFFFFFFFF AND MUL OR SWAP1 SSTORE POP DUP3 PUSH1 0x6 PUSH0 PUSH2 0x100 EXP DUP2 SLOAD DUP2 PUSH20 0xFFFFFFFFFFFFFFFFFFFFFFFFFFFFFFFFFFFFFFFF MUL NOT AND SWAP1 DUP4 PUSH20 0xFFFFFFFFFFFFFFFFFFFFFFFFFFFFFFFFFFFFFFFF AND MUL OR SWAP1 SSTORE POP PUSH0 PUSH1 0x3 DUP2 SWAP1 SSTORE POP DUP1 PUSH1 0x1 DUP2 SWAP1 SSTORE POP TIMESTAMP PUSH1 0x9 DUP2 SWAP1 SSTORE POP PUSH0 PUSH1 0xA DUP2 SWAP1 SSTORE POP PUSH0 PUSH1 0xB DUP2 SWAP1 SSTORE POP PUSH0 PUSH1 0x8 DUP2 SWAP1 SSTORE POP DUP2 PUSH1 0x7 DUP2 SWAP1 SSTORE POP POP POP POP POP PUSH2 0x227 JUMP JUMPDEST PUSH0 DUP1 REVERT JUMPDEST PUSH0 PUSH20 0xFFFFFFFFFFFFFFFFFFFFFFFFFFFFFFFFFFFFFFFF DUP3 AND SWAP1 POP SWAP2 SWAP1 POP JUMP JUMPDEST PUSH0 PUSH2 0x15F DUP3 PUSH2 0x136 JUMP JUMPDEST SWAP1 POP SWAP2 SWAP1 POP JUMP JUMPDEST PUSH2 0x16F DUP2 PUSH2 0x155 JUMP JUMPDEST DUP2 EQ PUSH2 0x179 JUMPI PUSH0 DUP1 REVERT JUMPDEST POP JUMP JUMPDEST PUSH0 DUP2 MLOAD SWAP1 POP PUSH2 0x18A DUP2 PUSH2 0x166 JUMP JUMPDEST SWAP3 SWAP2 POP POP JUMP JUMPDEST PUSH0 DUP2 SWAP1 POP SWAP2 SWAP1 POP JUMP JUMPDEST PUSH2 0x1A2 DUP2 PUSH2 0x190 JUMP JUMPDEST DUP2 EQ PUSH2 0x1AC JUMPI PUSH0 DUP1 REVERT JUMPDEST POP JUMP JUMPDEST PUSH0 DUP2 MLOAD SWAP1 POP PUSH2 0x1BD DUP2 PUSH2 0x199 JUMP JUMPDEST SWAP3 SWAP2 POP POP JUMP JUMPDEST PUSH0 DUP1 PUSH0 DUP1 PUSH1 0x80 DUP6 DUP8 SUB SLT ISZERO PUSH2 0x1DB JUMPI PUSH2 0x1DA PUSH2 0x132 JUMP JUMPDEST JUMPDEST PUSH0 PUSH2 0x1E8 DUP8 DUP3 DUP9 ADD PUSH2 0x17C JUMP JUMPDEST SWAP5 POP POP PUSH1 0x20 PUSH2 0x1F9 DUP8 DUP3 DUP9 ADD PUSH2 0x17C JUMP JUMPDEST SWAP4 POP POP PUSH1 0x40 PUSH2 0x20A DUP8 DUP3 DUP9 ADD PUSH2 0x1AF JUMP JUMPDEST SWAP3 POP POP PUSH1 0x60 PUSH2 0x21B DUP8 DUP3 DUP9 ADD PUSH2 0x1AF JUMP JUMPDEST SWAP2 POP POP SWAP3 SWAP6 SWAP2 SWAP5 POP SWAP3 POP JUMP JUMPDEST PUSH2 0x3BCE DUP1 PUSH2 0x234 PUSH0 CODECOPY PUSH0 RETURN INVALID PUSH1 0x80 PUSH1 0x40 MSTORE CALLVALUE DUP1 ISZERO PUSH2 0xF JUMPI PUSH0 DUP1 REVERT JUMPDEST POP PUSH1 0x4 CALLDATASIZE LT PUSH2 0x1D8 JUMPI PUSH0 CALLDATALOAD PUSH1 0xE0 SHR DUP1 PUSH4 0x9CD441DA GT PUSH2 0x102 JUMPI DUP1 PUSH4 0xDF0B6BA3 GT PUSH2 0xA0 JUMPI DUP1 PUSH4 0xEB8680BC GT PUSH2 0x6F JUMPI DUP1 PUSH4 0xEB8680BC EQ PUSH2 0x57B JUMPI DUP1 PUSH4 0xF2FDE38B EQ PUSH2 0x5AB JUMPI DUP1 PUSH4 0xF8B70637 EQ PUSH2 0x5C7 JUMPI DUP1 PUSH4 0xFF329565 EQ PUSH2 0x5E5 JUMPI PUSH2 0x1D8 JUMP JUMPDEST DUP1 PUSH4 0xDF0B6BA3 EQ PUSH2 0x4DE JUMPI DUP1 PUSH4 0xE1B1C90A EQ PUSH2 0x50E JUMPI DUP1 PUSH4 0xE619A498 EQ PUSH2 0x52C JUMPI DUP1 PUSH4 0xE6AA216C EQ PUSH2 0x55C JUMPI PUSH2 0x1D8 JUMP JUMPDEST DUP1 PUSH4 0xBA9A7A56 GT PUSH2 0xDC JUMPI DUP1 PUSH4 0xBA9A7A56 EQ PUSH2 0x47A JUMPI DUP1 PUSH4 0xCF0B2270 EQ PUSH2 0x498 JUMPI DUP1 PUSH4 0xD73792A9 EQ PUSH2 0x4B6 JUMPI DUP1 PUSH4 0xDB2E21BC EQ PUSH2 0x4D4 JUMPI PUSH2 0x1D8 JUMP JUMPDEST DUP1 PUSH4 0x9CD441DA EQ PUSH2 0x40E JUMPI DUP1 PUSH4 0x9DE3F60A EQ PUSH2 0x43E JUMPI DUP1 PUSH4 0xAC93CC18 EQ PUSH2 0x45C JUMPI PUSH2 0x1D8 JUMP JUMPDEST DUP1 PUSH4 0x2D11C58A GT PUSH2 0x17A JUMPI DUP1 PUSH4 0x7632D96E GT PUSH2 0x149 JUMPI DUP1 PUSH4 0x7632D96E EQ PUSH2 0x371 JUMPI DUP1 PUSH4 0x7EB73012 EQ PUSH2 0x38F JUMPI DUP1 PUSH4 0x92526664 EQ PUSH2 0x3AD JUMPI DUP1 PUSH4 0x9C8F9F23 EQ PUSH2 0x3DD JUMPI PUSH2 0x1D8 JUMP JUMPDEST DUP1 PUSH4 0x2D11C58A EQ PUSH2 0x2E4 JUMPI DUP1 PUSH4 0x4E12D676 EQ PUSH2 0x302 JUMPI DUP1 PUSH4 0x529692F3 EQ PUSH2 0x320 JUMPI DUP1 PUSH4 0x60246C88 EQ PUSH2 0x350 JUMPI PUSH2 0x1D8 JUMP JUMPDEST DUP1 PUSH4 0xC131757 GT PUSH2 0x1B6 JUMPI DUP1 PUSH4 0xC131757 EQ PUSH2 0x25A JUMPI DUP1 PUSH4 0x19D8AC61 EQ PUSH2 0x278 JUMPI DUP1 PUSH4 0x28164B78 EQ PUSH2 0x296 JUMPI DUP1 PUSH4 0x2B7EB20C EQ PUSH2 0x2C6 JUMPI PUSH2 0x1D8 JUMP JUMPDEST DUP1 PUSH4 0x3102091 EQ PUSH2 0x1DC JUMPI DUP1 PUSH4 0x53F14DA EQ PUSH2 0x20C JUMPI DUP1 PUSH4 0x6EBCC6D EQ PUSH2 0x22A JUMPI JUMPDEST PUSH0 DUP1 REVERT JUMPDEST PUSH2 0x1F6 PUSH1 0x4 DUP1 CALLDATASIZE SUB DUP2 ADD SWAP1 PUSH2 0x1F1 SWAP2 SWAP1 PUSH2 0x3086 JUMP JUMPDEST PUSH2 0x603 JUMP JUMPDEST PUSH1 0x40 MLOAD PUSH2 0x203 SWAP2 SWAP1 PUSH2 0x30C0 JUMP JUMPDEST PUSH1 0x40 MLOAD DUP1 SWAP2 SUB SWAP1 RETURN JUMPDEST PUSH2 0x214 PUSH2 0xAFB JUMP JUMPDEST PUSH1 0x40 MLOAD PUSH2 0x221 SWAP2 SWAP1 PUSH2 0x30C0 JUMP JUMPDEST PUSH1 0x40 MLOAD DUP1 SWAP2 SUB SWAP1 RETURN JUMPDEST PUSH2 0x244 PUSH1 0x4 DUP1 CALLDATASIZE SUB DUP2 ADD SWAP1 PUSH2 0x23F SWAP2 SWAP1 PUSH2 0x3133 JUMP JUMPDEST PUSH2 0xB01 JUMP JUMPDEST PUSH1 0x40 MLOAD PUSH2 0x251 SWAP2 SWAP1 PUSH2 0x30C0 JUMP JUMPDEST PUSH1 0x40 MLOAD DUP1 SWAP2 SUB SWAP1 RETURN JUMPDEST PUSH2 0x262 PUSH2 0xB47 JUMP JUMPDEST PUSH1 0x40 MLOAD PUSH2 0x26F SWAP2 SWAP1 PUSH2 0x30C0 JUMP JUMPDEST PUSH1 0x40 MLOAD DUP1 SWAP2 SUB SWAP1 RETURN JUMPDEST PUSH2 0x280 PUSH2 0xB4D JUMP JUMPDEST PUSH1 0x40 MLOAD PUSH2 0x28D SWAP2 SWAP1 PUSH2 0x30C0 JUMP JUMPDEST PUSH1 0x40 MLOAD DUP1 SWAP2 SUB SWAP1 RETURN JUMPDEST PUSH2 0x2B0 PUSH1 0x4 DUP1 CALLDATASIZE SUB DUP2 ADD SWAP1 PUSH2 0x2AB SWAP2 SWAP1 PUSH2 0x315E JUMP JUMPDEST PUSH2 0xB53 JUMP JUMPDEST PUSH1 0x40 MLOAD PUSH2 0x2BD SWAP2 SWAP1 PUSH2 0x31C8 JUMP JUMPDEST PUSH1 0x40 MLOAD DUP1 SWAP2 SUB SWAP1 RETURN JUMPDEST PUSH2 0x2CE PUSH2 0xEA9 JUMP JUMPDEST PUSH1 0x40 MLOAD PUSH2 0x2DB SWAP2 SWAP1 PUSH2 0x30C0 JUMP JUMPDEST PUSH1 0x40 MLOAD DUP1 SWAP2 SUB SWAP1 RETURN JUMPDEST PUSH2 0x2EC PUSH2 0xED1 JUMP JUMPDEST PUSH1 0x40 MLOAD PUSH2 0x2F9 SWAP2 SWAP1 PUSH2 0x30C0 JUMP JUMPDEST PUSH1 0x40 MLOAD DUP1 SWAP2 SUB SWAP1 RETURN JUMPDEST PUSH2 0x30A PUSH2 0xED6 JUMP JUMPDEST PUSH1 0x40 MLOAD PUSH2 0x317 SWAP2 SWAP1 PUSH2 0x30C0 JUMP JUMPDEST PUSH1 0x40 MLOAD DUP1 SWAP2 SUB SWAP1 RETURN JUMPDEST PUSH2 0x33A PUSH1 0x4 DUP1 CALLDATASIZE SUB DUP2 ADD SWAP1 PUSH2 0x335 SWAP2 SWAP1 PUSH2 0x3086 JUMP JUMPDEST PUSH2 0xEDC JUMP JUMPDEST PUSH1 0x40 MLOAD PUSH2 0x347 SWAP2 SWAP1 PUSH2 0x30C0 JUMP JUMPDEST PUSH1 0x40 MLOAD DUP1 SWAP2 SUB SWAP1 RETURN JUMPDEST PUSH2 0x358 PUSH2 0x10FA JUMP JUMPDEST PUSH1 0x40 MLOAD PUSH2 0x368 SWAP5 SWAP4 SWAP3 SWAP2 SWAP1 PUSH2 0x31E1 JUMP JUMPDEST PUSH1 0x40 MLOAD DUP1 SWAP2 SUB SWAP1 RETURN JUMPDEST PUSH2 0x379 PUSH2 0x124D JUMP JUMPDEST PUSH1 0x40 MLOAD PUSH2 0x386 SWAP2 SWAP1 PUSH2 0x30C0 JUMP JUMPDEST PUSH1 0x40 MLOAD DUP1 SWAP2 SUB SWAP1 RETURN JUMPDEST PUSH2 0x397 PUSH2 0x1253 JUMP JUMPDEST PUSH1 0x40 MLOAD PUSH2 0x3A4 SWAP2 SWAP1 PUSH2 0x3233 JUMP JUMPDEST PUSH1 0x40 MLOAD DUP1 SWAP2 SUB SWAP1 RETURN JUMPDEST PUSH2 0x3C7 PUSH1 0x4 DUP1 CALLDATASIZE SUB DUP2 ADD SWAP1 PUSH2 0x3C2 SWAP2 SWAP1 PUSH2 0x3133 JUMP JUMPDEST PUSH2 0x1278 JUMP JUMPDEST PUSH1 0x40 MLOAD PUSH2 0x3D4 SWAP2 SWAP1 PUSH2 0x30C0 JUMP JUMPDEST PUSH1 0x40 MLOAD DUP1 SWAP2 SUB SWAP1 RETURN JUMPDEST PUSH2 0x3F7 PUSH1 0x4 DUP1 CALLDATASIZE SUB DUP2 ADD SWAP1 PUSH2 0x3F2 SWAP2 SWAP1 PUSH2 0x3086 JUMP JUMPDEST PUSH2 0x128D JUMP JUMPDEST PUSH1 0x40 MLOAD PUSH2 0x405 SWAP3 SWAP2 SWAP1 PUSH2 0x324C JUMP JUMPDEST PUSH1 0x40 MLOAD DUP1 SWAP2 SUB SWAP1 RETURN JUMPDEST PUSH2 0x428 PUSH1 0x4 DUP1 CALLDATASIZE SUB DUP2 ADD SWAP1 PUSH2 0x423 SWAP2 SWAP1 PUSH2 0x3273 JUMP JUMPDEST PUSH2 0x178E JUMP JUMPDEST PUSH1 0x40 MLOAD PUSH2 0x435 SWAP2 SWAP1 PUSH2 0x30C0 JUMP JUMPDEST PUSH1 0x40 MLOAD DUP1 SWAP2 SUB SWAP1 RETURN JUMPDEST PUSH2 0x446 PUSH2 0x1D18 JUMP JUMPDEST PUSH1 0x40 MLOAD PUSH2 0x453 SWAP2 SWAP1 PUSH2 0x30C0 JUMP JUMPDEST PUSH1 0x40 MLOAD DUP1 SWAP2 SUB SWAP1 RETURN JUMPDEST PUSH2 0x464 PUSH2 0x1D1D JUMP JUMPDEST PUSH1 0x40 MLOAD PUSH2 0x471 SWAP2 SWAP1 PUSH2 0x30C0 JUMP JUMPDEST PUSH1 0x40 MLOAD DUP1 SWAP2 SUB SWAP1 RETURN JUMPDEST PUSH2 0x482 PUSH2 0x1D23 JUMP JUMPDEST PUSH1 0x40 MLOAD PUSH2 0x48F SWAP2 SWAP1 PUSH2 0x30C0 JUMP JUMPDEST PUSH1 0x40 MLOAD DUP1 SWAP2 SUB SWAP1 RETURN JUMPDEST PUSH2 0x4A0 PUSH2 0x1D29 JUMP JUMPDEST PUSH1 0x40 MLOAD PUSH2 0x4AD SWAP2 SWAP1 PUSH2 0x3233 JUMP JUMPDEST PUSH1 0x40 MLOAD DUP1 SWAP2 SUB SWAP1 RETURN JUMPDEST PUSH2 0x4BE PUSH2 0x1D4C JUMP JUMPDEST PUSH1 0x40 MLOAD PUSH2 0x4CB SWAP2 SWAP1 PUSH2 0x30C0 JUMP JUMPDEST PUSH1 0x40 MLOAD DUP1 SWAP2 SUB SWAP1 RETURN JUMPDEST PUSH2 0x4DC PUSH2 0x1D52 JUMP JUMPDEST STOP JUMPDEST PUSH2 0x4F8 PUSH1 0x4 DUP1 CALLDATASIZE SUB DUP2 ADD SWAP1 PUSH2 0x4F3 SWAP2 SWAP1 PUSH2 0x315E JUMP JUMPDEST PUSH2 0x20AD JUMP JUMPDEST PUSH1 0x40 MLOAD PUSH2 0x505 SWAP2 SWAP1 PUSH2 0x31C8 JUMP JUMPDEST PUSH1 0x40 MLOAD DUP1 SWAP2 SUB SWAP1 RETURN JUMPDEST PUSH2 0x516 PUSH2 0x2403 JUMP JUMPDEST PUSH1 0x40 MLOAD PUSH2 0x523 SWAP2 SWAP1 PUSH2 0x30C0 JUMP JUMPDEST PUSH1 0x40 MLOAD DUP1 SWAP2 SUB SWAP1 RETURN JUMPDEST PUSH2 0x546 PUSH1 0x4 DUP1 CALLDATASIZE SUB DUP2 ADD SWAP1 PUSH2 0x541 SWAP2 SWAP1 PUSH2 0x3086 JUMP JUMPDEST PUSH2 0x2409 JUMP JUMPDEST PUSH1 0x40 MLOAD PUSH2 0x553 SWAP2 SWAP1 PUSH2 0x30C0 JUMP JUMPDEST PUSH1 0x40 MLOAD DUP1 SWAP2 SUB SWAP1 RETURN JUMPDEST PUSH2 0x564 PUSH2 0x2901 JUMP JUMPDEST PUSH1 0x40 MLOAD PUSH2 0x572 SWAP3 SWAP2 SWAP1 PUSH2 0x324C JUMP JUMPDEST PUSH1 0x40 MLOAD DUP1 SWAP2 SUB SWAP1 RETURN JUMPDEST PUSH2 0x595 PUSH1 0x4 DUP1 CALLDATASIZE SUB DUP2 ADD SWAP1 PUSH2 0x590 SWAP2 SWAP1 PUSH2 0x3086 JUMP JUMPDEST PUSH2 0x2ABA JUMP JUMPDEST PUSH1 0x40 MLOAD PUSH2 0x5A2 SWAP2 SWAP1 PUSH2 0x30C0 JUMP JUMPDEST PUSH1 0x40 MLOAD DUP1 SWAP2 SUB SWAP1 RETURN JUMPDEST PUSH2 0x5C5 PUSH1 0x4 DUP1 CALLDATASIZE SUB DUP2 ADD SWAP1 PUSH2 0x5C0 SWAP2 SWAP1 PUSH2 0x3133 JUMP JUMPDEST PUSH2 0x2CD8 JUMP JUMPDEST STOP JUMPDEST PUSH2 0x5CF PUSH2 0x2E15 JUMP JUMPDEST PUSH1 0x40 MLOAD PUSH2 0x5DC SWAP2 SWAP1 PUSH2 0x3233 JUMP JUMPDEST PUSH1 0x40 MLOAD DUP1 SWAP2 SUB SWAP1 RETURN JUMPDEST PUSH2 0x5ED PUSH2 0x2E3A JUMP JUMPDEST PUSH1 0x40 MLOAD PUSH2 0x5FA SWAP2 SWAP1 PUSH2 0x30C0 JUMP JUMPDEST PUSH1 0x40 MLOAD DUP1 SWAP2 SUB SWAP1 RETURN JUMPDEST PUSH0 DUP1 PUSH1 0x5 PUSH0 SWAP1 SLOAD SWAP1 PUSH2 0x100 EXP SWAP1 DIV PUSH20 0xFFFFFFFFFFFFFFFFFFFFFFFFFFFFFFFFFFFFFFFF AND PUSH20 0xFFFFFFFFFFFFFFFFFFFFFFFFFFFFFFFFFFFFFFFF AND PUSH4 0x70A08231 ADDRESS PUSH1 0x40 MLOAD DUP3 PUSH4 0xFFFFFFFF AND PUSH1 0xE0 SHL DUP2 MSTORE PUSH1 0x4 ADD PUSH2 0x65F SWAP2 SWAP1 PUSH2 0x3233 JUMP JUMPDEST PUSH1 0x20 PUSH1 0x40 MLOAD DUP1 DUP4 SUB DUP2 DUP7 GAS STATICCALL ISZERO DUP1 ISZERO PUSH2 0x67A JUMPI RETURNDATASIZE PUSH0 DUP1 RETURNDATACOPY RETURNDATASIZE PUSH0 REVERT JUMPDEST POP POP POP POP PUSH1 0x40 MLOAD RETURNDATASIZE PUSH1 0x1F NOT PUSH1 0x1F DUP3 ADD AND DUP3 ADD DUP1 PUSH1 0x40 MSTORE POP DUP2 ADD SWAP1 PUSH2 0x69E SWAP2 SWAP1 PUSH2 0x32C5 JUMP JUMPDEST SWAP1 POP PUSH0 PUSH1 0x6 PUSH0 SWAP1 SLOAD SWAP1 PUSH2 0x100 EXP SWAP1 DIV PUSH20 0xFFFFFFFFFFFFFFFFFFFFFFFFFFFFFFFFFFFFFFFF AND PUSH20 0xFFFFFFFFFFFFFFFFFFFFFFFFFFFFFFFFFFFFFFFF AND PUSH4 0x70A08231 ADDRESS PUSH1 0x40 MLOAD DUP3 PUSH4 0xFFFFFFFF AND PUSH1 0xE0 SHL DUP2 MSTORE PUSH1 0x4 ADD PUSH2 0x6FB SWAP2 SWAP1 PUSH2 0x3233 JUMP JUMPDEST PUSH1 0x20 PUSH1 0x40 MLOAD DUP1 DUP4 SUB DUP2 DUP7 GAS STATICCALL ISZERO DUP1 ISZERO PUSH2 0x716 JUMPI RETURNDATASIZE PUSH0 DUP1 RETURNDATACOPY RETURNDATASIZE PUSH0 REVERT JUMPDEST POP POP POP POP PUSH1 0x40 MLOAD RETURNDATASIZE PUSH1 0x1F NOT PUSH1 0x1F DUP3 ADD AND DUP3 ADD DUP1 PUSH1 0x40 MSTORE POP DUP2 ADD SWAP1 PUSH2 0x73A SWAP2 SWAP1 PUSH2 0x32C5 JUMP JUMPDEST SWAP1 POP PUSH0 DUP5 GT PUSH2 0x77E JUMPI PUSH1 0x40 MLOAD PUSH32 0x8C379A000000000000000000000000000000000000000000000000000000000 DUP2 MSTORE PUSH1 0x4 ADD PUSH2 0x775 SWAP1 PUSH2 0x334A JUMP JUMPDEST PUSH1 0x40 MLOAD DUP1 SWAP2 SUB SWAP1 REVERT JUMPDEST PUSH0 DUP3 GT DUP1 ISZERO PUSH2 0x78C JUMPI POP PUSH0 DUP2 GT JUMPDEST PUSH2 0x7CB JUMPI PUSH1 0x40 MLOAD PUSH32 0x8C379A000000000000000000000000000000000000000000000000000000000 DUP2 MSTORE PUSH1 0x4 ADD PUSH2 0x7C2 SWAP1 PUSH2 0x33B2 JUMP JUMPDEST PUSH1 0x40 MLOAD DUP1 SWAP2 SUB SWAP1 REVERT JUMPDEST PUSH0 PUSH2 0x3E8 PUSH1 0x3 PUSH2 0x3E8 PUSH2 0x7DE SWAP2 SWAP1 PUSH2 0x33FD JUMP JUMPDEST DUP7 PUSH2 0x7E9 SWAP2 SWAP1 PUSH2 0x3430 JUMP JUMPDEST PUSH2 0x7F3 SWAP2 SWAP1 PUSH2 0x349E JUMP JUMPDEST SWAP1 POP DUP1 DUP4 PUSH2 0x801 SWAP2 SWAP1 PUSH2 0x34CE JUMP JUMPDEST DUP2 DUP4 PUSH2 0x80D SWAP2 SWAP1 PUSH2 0x3430 JUMP JUMPDEST PUSH2 0x817 SWAP2 SWAP1 PUSH2 0x349E JUMP JUMPDEST SWAP4 POP PUSH0 DUP5 GT PUSH2 0x85B JUMPI PUSH1 0x40 MLOAD PUSH32 0x8C379A000000000000000000000000000000000000000000000000000000000 DUP2 MSTORE PUSH1 0x4 ADD PUSH2 0x852 SWAP1 PUSH2 0x354B JUMP JUMPDEST PUSH1 0x40 MLOAD DUP1 SWAP2 SUB SWAP1 REVERT JUMPDEST DUP2 DUP5 LT PUSH2 0x89D JUMPI PUSH1 0x40 MLOAD PUSH32 0x8C379A000000000000000000000000000000000000000000000000000000000 DUP2 MSTORE PUSH1 0x4 ADD PUSH2 0x894 SWAP1 PUSH2 0x35B3 JUMP JUMPDEST PUSH1 0x40 MLOAD DUP1 SWAP2 SUB SWAP1 REVERT JUMPDEST PUSH1 0x5 PUSH0 SWAP1 SLOAD SWAP1 PUSH2 0x100 EXP SWAP1 DIV PUSH20 0xFFFFFFFFFFFFFFFFFFFFFFFFFFFFFFFFFFFFFFFF AND PUSH20 0xFFFFFFFFFFFFFFFFFFFFFFFFFFFFFFFFFFFFFFFF AND PUSH4 0x23B872DD CALLER ADDRESS DUP9 PUSH1 0x40 MLOAD DUP5 PUSH4 0xFFFFFFFF AND PUSH1 0xE0 SHL DUP2 MSTORE PUSH1 0x4 ADD PUSH2 0x8FB SWAP4 SWAP3 SWAP2 SWAP1 PUSH2 0x35D1 JUMP JUMPDEST PUSH1 0x20 PUSH1 0x40 MLOAD DUP1 DUP4 SUB DUP2 PUSH0 DUP8 GAS CALL ISZERO DUP1 ISZERO PUSH2 0x917 JUMPI RETURNDATASIZE PUSH0 DUP1 RETURNDATACOPY RETURNDATASIZE PUSH0 REVERT JUMPDEST POP POP POP POP PUSH1 0x40 MLOAD RETURNDATASIZE PUSH1 0x1F NOT PUSH1 0x1F DUP3 ADD AND DUP3 ADD DUP1 PUSH1 0x40 MSTORE POP DUP2 ADD SWAP1 PUSH2 0x93B SWAP2 SWAP1 PUSH2 0x3630 JUMP JUMPDEST PUSH2 0x97A JUMPI PUSH1 0x40 MLOAD PUSH32 0x8C379A000000000000000000000000000000000000000000000000000000000 DUP2 MSTORE PUSH1 0x4 ADD PUSH2 0x971 SWAP1 PUSH2 0x36A5 JUMP JUMPDEST PUSH1 0x40 MLOAD DUP1 SWAP2 SUB SWAP1 REVERT JUMPDEST PUSH1 0x6 PUSH0 SWAP1 SLOAD SWAP1 PUSH2 0x100 EXP SWAP1 DIV PUSH20 0xFFFFFFFFFFFFFFFFFFFFFFFFFFFFFFFFFFFFFFFF AND PUSH20 0xFFFFFFFFFFFFFFFFFFFFFFFFFFFFFFFFFFFFFFFF AND PUSH4 0xA9059CBB CALLER DUP7 PUSH1 0x40 MLOAD DUP4 PUSH4 0xFFFFFFFF AND PUSH1 0xE0 SHL DUP2 MSTORE PUSH1 0x4 ADD PUSH2 0x9D6 SWAP3 SWAP2 SWAP1 PUSH2 0x36C3 JUMP JUMPDEST PUSH1 0x20 PUSH1 0x40 MLOAD DUP1 DUP4 SUB DUP2 PUSH0 DUP8 GAS CALL ISZERO DUP1 ISZERO PUSH2 0x9F2 JUMPI RETURNDATASIZE PUSH0 DUP1 RETURNDATACOPY RETURNDATASIZE PUSH0 REVERT JUMPDEST POP POP POP POP PUSH1 0x40 MLOAD RETURNDATASIZE PUSH1 0x1F NOT PUSH1 0x1F DUP3 ADD AND DUP3 ADD DUP1 PUSH1 0x40 MSTORE POP DUP2 ADD SWAP1 PUSH2 0xA16 SWAP2 SWAP1 PUSH2 0x3630 JUMP JUMPDEST PUSH2 0xA55 JUMPI PUSH1 0x40 MLOAD PUSH32 0x8C379A000000000000000000000000000000000000000000000000000000000 DUP2 MSTORE PUSH1 0x4 ADD PUSH2 0xA4C SWAP1 PUSH2 0x3734 JUMP JUMPDEST PUSH1 0x40 MLOAD DUP1 SWAP2 SUB SWAP1 REVERT JUMPDEST PUSH2 0xA5D PUSH2 0x2E40 JUMP JUMPDEST CALLER PUSH20 0xFFFFFFFFFFFFFFFFFFFFFFFFFFFFFFFFFFFFFFFF AND PUSH32 0x5380CF97D8F645D3C4896DA60C053458DCA03A3A31CEC642AC80E1DDF0D8D02A PUSH1 0x5 PUSH0 SWAP1 SLOAD SWAP1 PUSH2 0x100 EXP SWAP1 DIV PUSH20 0xFFFFFFFFFFFFFFFFFFFFFFFFFFFFFFFFFFFFFFFF AND DUP8 PUSH1 0x6 PUSH0 SWAP1 SLOAD SWAP1 PUSH2 0x100 EXP SWAP1 DIV PUSH20 0xFFFFFFFFFFFFFFFFFFFFFFFFFFFFFFFFFFFFFFFF AND DUP9 PUSH1 0x40 MLOAD PUSH2 0xAEB SWAP5 SWAP4 SWAP3 SWAP2 SWAP1 PUSH2 0x3752 JUMP JUMPDEST PUSH1 0x40 MLOAD DUP1 SWAP2 SUB SWAP1 LOG2 POP POP POP SWAP2 SWAP1 POP JUMP JUMPDEST PUSH1 0x8 SLOAD DUP2 JUMP JUMPDEST PUSH0 PUSH1 0x2 PUSH0 DUP4 PUSH20 0xFFFFFFFFFFFFFFFFFFFFFFFFFFFFFFFFFFFFFFFF AND PUSH20 0xFFFFFFFFFFFFFFFFFFFFFFFFFFFFFFFFFFFFFFFF AND DUP2 MSTORE PUSH1 0x20 ADD SWAP1 DUP2 MSTORE PUSH1 0x20 ADD PUSH0 KECCAK256 SLOAD SWAP1 POP SWAP2 SWAP1 POP JUMP JUMPDEST PUSH1 0x7 SLOAD DUP2 JUMP JUMPDEST PUSH1 0x9 SLOAD DUP2 JUMP JUMPDEST PUSH0 DUP1 PUSH1 0x5 PUSH0 SWAP1 SLOAD SWAP1 PUSH2 0x100 EXP SWAP1 DIV PUSH20 0xFFFFFFFFFFFFFFFFFFFFFFFFFFFFFFFFFFFFFFFF AND PUSH20 0xFFFFFFFFFFFFFFFFFFFFFFFFFFFFFFFFFFFFFFFF AND PUSH4 0x70A08231 ADDRESS PUSH1 0x40 MLOAD DUP3 PUSH4 0xFFFFFFFF AND PUSH1 0xE0 SHL DUP2 MSTORE PUSH1 0x4 ADD PUSH2 0xBAF SWAP2 SWAP1 PUSH2 0x3233 JUMP JUMPDEST PUSH1 0x20 PUSH1 0x40 MLOAD DUP1 DUP4 SUB DUP2 DUP7 GAS STATICCALL ISZERO DUP1 ISZERO PUSH2 0xBCA JUMPI RETURNDATASIZE PUSH0 DUP1 RETURNDATACOPY RETURNDATASIZE PUSH0 REVERT JUMPDEST POP POP POP POP PUSH1 0x40 MLOAD RETURNDATASIZE PUSH1 0x1F NOT PUSH1 0x1F DUP3 ADD AND DUP3 ADD DUP1 PUSH1 0x40 MSTORE POP DUP2 ADD SWAP1 PUSH2 0xBEE SWAP2 SWAP1 PUSH2 0x32C5 JUMP JUMPDEST SWAP1 POP DUP5 DUP2 LT ISZERO PUSH2 0xC33 JUMPI PUSH1 0x40 MLOAD PUSH32 0x8C379A000000000000000000000000000000000000000000000000000000000 DUP2 MSTORE PUSH1 0x4 ADD PUSH2 0xC2A SWAP1 PUSH2 0x37DF JUMP JUMPDEST PUSH1 0x40 MLOAD DUP1 SWAP2 SUB SWAP1 REVERT JUMPDEST PUSH1 0x5 PUSH0 SWAP1 SLOAD SWAP1 PUSH2 0x100 EXP SWAP1 DIV PUSH20 0xFFFFFFFFFFFFFFFFFFFFFFFFFFFFFFFFFFFFFFFF AND PUSH20 0xFFFFFFFFFFFFFFFFFFFFFFFFFFFFFFFFFFFFFFFF AND PUSH4 0xA9059CBB DUP5 DUP8 PUSH1 0x40 MLOAD DUP4 PUSH4 0xFFFFFFFF AND PUSH1 0xE0 SHL DUP2 MSTORE PUSH1 0x4 ADD PUSH2 0xC8F SWAP3 SWAP2 SWAP1 PUSH2 0x36C3 JUMP JUMPDEST PUSH1 0x20 PUSH1 0x40 MLOAD DUP1 DUP4 SUB DUP2 PUSH0 DUP8 GAS CALL ISZERO DUP1 ISZERO PUSH2 0xCAB JUMPI RETURNDATASIZE PUSH0 DUP1 RETURNDATACOPY RETURNDATASIZE PUSH0 REVERT JUMPDEST POP POP POP POP PUSH1 0x40 MLOAD RETURNDATASIZE PUSH1 0x1F NOT PUSH1 0x1F DUP3 ADD AND DUP3 ADD DUP1 PUSH1 0x40 MSTORE POP DUP2 ADD SWAP1 PUSH2 0xCCF SWAP2 SWAP1 PUSH2 0x3630 JUMP JUMPDEST PUSH2 0xD0E JUMPI PUSH1 0x40 MLOAD PUSH32 0x8C379A000000000000000000000000000000000000000000000000000000000 DUP2 MSTORE PUSH1 0x4 ADD PUSH2 0xD05 SWAP1 PUSH2 0x3847 JUMP JUMPDEST PUSH1 0x40 MLOAD DUP1 SWAP2 SUB SWAP1 REVERT JUMPDEST PUSH0 PUSH2 0x3E8 PUSH1 0x3 DUP8 PUSH2 0xD1F SWAP2 SWAP1 PUSH2 0x3430 JUMP JUMPDEST PUSH2 0xD29 SWAP2 SWAP1 PUSH2 0x349E JUMP JUMPDEST SWAP1 POP DUP4 PUSH20 0xFFFFFFFFFFFFFFFFFFFFFFFFFFFFFFFFFFFFFFFF AND PUSH4 0x1671B85E DUP8 DUP4 DUP9 PUSH1 0x40 MLOAD DUP5 PUSH4 0xFFFFFFFF AND PUSH1 0xE0 SHL DUP2 MSTORE PUSH1 0x4 ADD PUSH2 0xD68 SWAP4 SWAP3 SWAP2 SWAP1 PUSH2 0x3865 JUMP JUMPDEST PUSH1 0x20 PUSH1 0x40 MLOAD DUP1 DUP4 SUB DUP2 PUSH0 DUP8 GAS CALL ISZERO DUP1 ISZERO PUSH2 0xD84 JUMPI RETURNDATASIZE PUSH0 DUP1 RETURNDATACOPY RETURNDATASIZE PUSH0 REVERT JUMPDEST POP POP POP POP PUSH1 0x40 MLOAD RETURNDATASIZE PUSH1 0x1F NOT PUSH1 0x1F DUP3 ADD AND DUP3 ADD DUP1 PUSH1 0x40 MSTORE POP DUP2 ADD SWAP1 PUSH2 0xDA8 SWAP2 SWAP1 PUSH2 0x3630 JUMP JUMPDEST POP PUSH0 PUSH1 0x5 PUSH0 SWAP1 SLOAD SWAP1 PUSH2 0x100 EXP SWAP1 DIV PUSH20 0xFFFFFFFFFFFFFFFFFFFFFFFFFFFFFFFFFFFFFFFF AND PUSH20 0xFFFFFFFFFFFFFFFFFFFFFFFFFFFFFFFFFFFFFFFF AND PUSH4 0x70A08231 ADDRESS PUSH1 0x40 MLOAD DUP3 PUSH4 0xFFFFFFFF AND PUSH1 0xE0 SHL DUP2 MSTORE PUSH1 0x4 ADD PUSH2 0xE04 SWAP2 SWAP1 PUSH2 0x3233 JUMP JUMPDEST PUSH1 0x20 PUSH1 0x40 MLOAD DUP1 DUP4 SUB DUP2 DUP7 GAS STATICCALL ISZERO DUP1 ISZERO PUSH2 0xE1F JUMPI RETURNDATASIZE PUSH0 DUP1 RETURNDATACOPY RETURNDATASIZE PUSH0 REVERT JUMPDEST POP POP POP POP PUSH1 0x40 MLOAD RETURNDATASIZE PUSH1 0x1F NOT PUSH1 0x1F DUP3 ADD AND DUP3 ADD DUP1 PUSH1 0x40 MSTORE POP DUP2 ADD SWAP1 PUSH2 0xE43 SWAP2 SWAP1 PUSH2 0x32C5 JUMP JUMPDEST SWAP1 POP DUP2 DUP4 PUSH2 0xE51 SWAP2 SWAP1 PUSH2 0x34CE JUMP JUMPDEST DUP2 LT ISZERO PUSH2 0xE93 JUMPI PUSH1 0x40 MLOAD PUSH32 0x8C379A000000000000000000000000000000000000000000000000000000000 DUP2 MSTORE PUSH1 0x4 ADD PUSH2 0xE8A SWAP1 PUSH2 0x38E4 JUMP JUMPDEST PUSH1 0x40 MLOAD DUP1 SWAP2 SUB SWAP1 REVERT JUMPDEST PUSH2 0xE9B PUSH2 0x2E40 JUMP JUMPDEST PUSH1 0x1 SWAP4 POP POP POP POP SWAP4 SWAP3 POP POP POP JUMP JUMPDEST PUSH0 DUP1 PUSH1 0xB SLOAD SUB PUSH2 0xEBB JUMPI PUSH0 SWAP1 POP PUSH2 0xECE JUMP JUMPDEST PUSH1 0xB SLOAD PUSH1 0xA SLOAD PUSH2 0xECB SWAP2 SWAP1 PUSH2 0x349E JUMP JUMPDEST SWAP1 POP JUMPDEST SWAP1 JUMP JUMPDEST PUSH1 0x3 DUP2 JUMP JUMPDEST PUSH1 0xA SLOAD DUP2 JUMP JUMPDEST PUSH0 DUP1 PUSH1 0x5 PUSH0 SWAP1 SLOAD SWAP1 PUSH2 0x100 EXP SWAP1 DIV PUSH20 0xFFFFFFFFFFFFFFFFFFFFFFFFFFFFFFFFFFFFFFFF AND PUSH20 0xFFFFFFFFFFFFFFFFFFFFFFFFFFFFFFFFFFFFFFFF AND PUSH4 0x70A08231 ADDRESS PUSH1 0x40 MLOAD DUP3 PUSH4 0xFFFFFFFF AND PUSH1 0xE0 SHL DUP2 MSTORE PUSH1 0x4 ADD PUSH2 0xF38 SWAP2 SWAP1 PUSH2 0x3233 JUMP JUMPDEST PUSH1 0x20 PUSH1 0x40 MLOAD DUP1 DUP4 SUB DUP2 DUP7 GAS STATICCALL ISZERO DUP1 ISZERO PUSH2 0xF53 JUMPI RETURNDATASIZE PUSH0 DUP1 RETURNDATACOPY RETURNDATASIZE PUSH0 REVERT JUMPDEST POP POP POP POP PUSH1 0x40 MLOAD RETURNDATASIZE PUSH1 0x1F NOT PUSH1 0x1F DUP3 ADD AND DUP3 ADD DUP1 PUSH1 0x40 MSTORE POP DUP2 ADD SWAP1 PUSH2 0xF77 SWAP2 SWAP1 PUSH2 0x32C5 JUMP JUMPDEST SWAP1 POP PUSH0 PUSH1 0x6 PUSH0 SWAP1 SLOAD SWAP1 PUSH2 0x100 EXP SWAP1 DIV PUSH20 0xFFFFFFFFFFFFFFFFFFFFFFFFFFFFFFFFFFFFFFFF AND PUSH20 0xFFFFFFFFFFFFFFFFFFFFFFFFFFFFFFFFFFFFFFFF AND PUSH4 0x70A08231 ADDRESS PUSH1 0x40 MLOAD DUP3 PUSH4 0xFFFFFFFF AND PUSH1 0xE0 SHL DUP2 MSTORE PUSH1 0x4 ADD PUSH2 0xFD4 SWAP2 SWAP1 PUSH2 0x3233 JUMP JUMPDEST PUSH1 0x20 PUSH1 0x40 MLOAD DUP1 DUP4 SUB DUP2 DUP7 GAS STATICCALL ISZERO DUP1 ISZERO PUSH2 0xFEF JUMPI RETURNDATASIZE PUSH0 DUP1 RETURNDATACOPY RETURNDATASIZE PUSH0 REVERT JUMPDEST POP POP POP POP PUSH1 0x40 MLOAD RETURNDATASIZE PUSH1 0x1F NOT PUSH1 0x1F DUP3 ADD AND DUP3 ADD DUP1 PUSH1 0x40 MSTORE POP DUP2 ADD SWAP1 PUSH2 0x1013 SWAP2 SWAP1 PUSH2 0x32C5 JUMP JUMPDEST SWAP1 POP PUSH0 DUP5 GT PUSH2 0x1057 JUMPI PUSH1 0x40 MLOAD PUSH32 0x8C379A000000000000000000000000000000000000000000000000000000000 DUP2 MSTORE PUSH1 0x4 ADD PUSH2 0x104E SWAP1 PUSH2 0x334A JUMP JUMPDEST PUSH1 0x40 MLOAD DUP1 SWAP2 SUB SWAP1 REVERT JUMPDEST PUSH0 DUP3 GT DUP1 ISZERO PUSH2 0x1065 JUMPI POP PUSH0 DUP2 GT JUMPDEST PUSH2 0x10A4 JUMPI PUSH1 0x40 MLOAD PUSH32 0x8C379A000000000000000000000000000000000000000000000000000000000 DUP2 MSTORE PUSH1 0x4 ADD PUSH2 0x109B SWAP1 PUSH2 0x33B2 JUMP JUMPDEST PUSH1 0x40 MLOAD DUP1 SWAP2 SUB SWAP1 REVERT JUMPDEST PUSH0 PUSH2 0x3E8 PUSH1 0x3 PUSH2 0x3E8 PUSH2 0x10B7 SWAP2 SWAP1 PUSH2 0x33FD JUMP JUMPDEST DUP7 PUSH2 0x10C2 SWAP2 SWAP1 PUSH2 0x3430 JUMP JUMPDEST PUSH2 0x10CC SWAP2 SWAP1 PUSH2 0x349E JUMP JUMPDEST SWAP1 POP DUP1 DUP3 PUSH2 0x10DA SWAP2 SWAP1 PUSH2 0x34CE JUMP JUMPDEST DUP2 DUP5 PUSH2 0x10E6 SWAP2 SWAP1 PUSH2 0x3430 JUMP JUMPDEST PUSH2 0x10F0 SWAP2 SWAP1 PUSH2 0x349E JUMP JUMPDEST SWAP4 POP POP POP POP SWAP2 SWAP1 POP JUMP JUMPDEST PUSH0 DUP1 PUSH0 DUP1 PUSH1 0x5 PUSH0 SWAP1 SLOAD SWAP1 PUSH2 0x100 EXP SWAP1 DIV PUSH20 0xFFFFFFFFFFFFFFFFFFFFFFFFFFFFFFFFFFFFFFFF AND PUSH20 0xFFFFFFFFFFFFFFFFFFFFFFFFFFFFFFFFFFFFFFFF AND PUSH4 0x70A08231 ADDRESS PUSH1 0x40 MLOAD DUP3 PUSH4 0xFFFFFFFF AND PUSH1 0xE0 SHL DUP2 MSTORE PUSH1 0x4 ADD PUSH2 0x1158 SWAP2 SWAP1 PUSH2 0x3233 JUMP JUMPDEST PUSH1 0x20 PUSH1 0x40 MLOAD DUP1 DUP4 SUB DUP2 DUP7 GAS STATICCALL ISZERO DUP1 ISZERO PUSH2 0x1173 JUMPI RETURNDATASIZE PUSH0 DUP1 RETURNDATACOPY RETURNDATASIZE PUSH0 REVERT JUMPDEST POP POP POP POP PUSH1 0x40 MLOAD RETURNDATASIZE PUSH1 0x1F NOT PUSH1 0x1F DUP3 ADD AND DUP3 ADD DUP1 PUSH1 0x40 MSTORE POP DUP2 ADD SWAP1 PUSH2 0x1197 SWAP2 SWAP1 PUSH2 0x32C5 JUMP JUMPDEST SWAP4 POP PUSH1 0x6 PUSH0 SWAP1 SLOAD SWAP1 PUSH2 0x100 EXP SWAP1 DIV PUSH20 0xFFFFFFFFFFFFFFFFFFFFFFFFFFFFFFFFFFFFFFFF AND PUSH20 0xFFFFFFFFFFFFFFFFFFFFFFFFFFFFFFFFFFFFFFFF AND PUSH4 0x70A08231 ADDRESS PUSH1 0x40 MLOAD DUP3 PUSH4 0xFFFFFFFF AND PUSH1 0xE0 SHL DUP2 MSTORE PUSH1 0x4 ADD PUSH2 0x11F3 SWAP2 SWAP1 PUSH2 0x3233 JUMP JUMPDEST PUSH1 0x20 PUSH1 0x40 MLOAD DUP1 DUP4 SUB DUP2 DUP7 GAS STATICCALL ISZERO DUP1 ISZERO PUSH2 0x120E JUMPI RETURNDATASIZE PUSH0 DUP1 RETURNDATACOPY RETURNDATASIZE PUSH0 REVERT JUMPDEST POP POP POP POP PUSH1 0x40 MLOAD RETURNDATASIZE PUSH1 0x1F NOT PUSH1 0x1F DUP3 ADD AND DUP3 ADD DUP1 PUSH1 0x40 MSTORE POP DUP2 ADD SWAP1 PUSH2 0x1232 SWAP2 SWAP1 PUSH2 0x32C5 JUMP JUMPDEST SWAP3 POP PUSH1 0x3 SLOAD SWAP2 POP DUP3 DUP5 PUSH2 0x1245 SWAP2 SWAP1 PUSH2 0x3430 JUMP JUMPDEST SWAP1 POP SWAP1 SWAP2 SWAP3 SWAP4 JUMP JUMPDEST PUSH1 0xB SLOAD DUP2 JUMP JUMPDEST PUSH1 0x5 PUSH0 SWAP1 SLOAD SWAP1 PUSH2 0x100 EXP SWAP1 DIV PUSH20 0xFFFFFFFFFFFFFFFFFFFFFFFFFFFFFFFFFFFFFFFF AND DUP2 JUMP JUMPDEST PUSH1 0x2 PUSH1 0x20 MSTORE DUP1 PUSH0 MSTORE PUSH1 0x40 PUSH0 KECCAK256 PUSH0 SWAP2 POP SWAP1 POP SLOAD DUP2 JUMP JUMPDEST PUSH0 DUP1 PUSH0 PUSH1 0x5 PUSH0 SWAP1 SLOAD SWAP1 PUSH2 0x100 EXP SWAP1 DIV PUSH20 0xFFFFFFFFFFFFFFFFFFFFFFFFFFFFFFFFFFFFFFFF AND PUSH20 0xFFFFFFFFFFFFFFFFFFFFFFFFFFFFFFFFFFFFFFFF AND PUSH4 0x70A08231 ADDRESS PUSH1 0x40 MLOAD DUP3 PUSH4 0xFFFFFFFF AND PUSH1 0xE0 SHL DUP2 MSTORE PUSH1 0x4 ADD PUSH2 0x12EA SWAP2 SWAP1 PUSH2 0x3233 JUMP JUMPDEST PUSH1 0x20 PUSH1 0x40 MLOAD DUP1 DUP4 SUB DUP2 DUP7 GAS STATICCALL ISZERO DUP1 ISZERO PUSH2 0x1305 JUMPI RETURNDATASIZE PUSH0 DUP1 RETURNDATACOPY RETURNDATASIZE PUSH0 REVERT JUMPDEST POP POP POP POP PUSH1 0x40 MLOAD RETURNDATASIZE PUSH1 0x1F NOT PUSH1 0x1F DUP3 ADD AND DUP3 ADD DUP1 PUSH1 0x40 MSTORE POP DUP2 ADD SWAP1 PUSH2 0x1329 SWAP2 SWAP1 PUSH2 0x32C5 JUMP JUMPDEST SWAP1 POP PUSH0 PUSH1 0x6 PUSH0 SWAP1 SLOAD SWAP1 PUSH2 0x100 EXP SWAP1 DIV PUSH20 0xFFFFFFFFFFFFFFFFFFFFFFFFFFFFFFFFFFFFFFFF AND PUSH20 0xFFFFFFFFFFFFFFFFFFFFFFFFFFFFFFFFFFFFFFFF AND PUSH4 0x70A08231 ADDRESS PUSH1 0x40 MLOAD DUP3 PUSH4 0xFFFFFFFF AND PUSH1 0xE0 SHL DUP2 MSTORE PUSH1 0x4 ADD PUSH2 0x1386 SWAP2 SWAP1 PUSH2 0x3233 JUMP JUMPDEST PUSH1 0x20 PUSH1 0x40 MLOAD DUP1 DUP4 SUB DUP2 DUP7 GAS STATICCALL ISZERO DUP1 ISZERO PUSH2 0x13A1 JUMPI RETURNDATASIZE PUSH0 DUP1 RETURNDATACOPY RETURNDATASIZE PUSH0 REVERT JUMPDEST POP POP POP POP PUSH1 0x40 MLOAD RETURNDATASIZE PUSH1 0x1F NOT PUSH1 0x1F DUP3 ADD AND DUP3 ADD DUP1 PUSH1 0x40 MSTORE POP DUP2 ADD SWAP1 PUSH2 0x13C5 SWAP2 SWAP1 PUSH2 0x32C5 JUMP JUMPDEST SWAP1 POP PUSH0 DUP6 GT PUSH2 0x1409 JUMPI PUSH1 0x40 MLOAD PUSH32 0x8C379A000000000000000000000000000000000000000000000000000000000 DUP2 MSTORE PUSH1 0x4 ADD PUSH2 0x1400 SWAP1 PUSH2 0x394C JUMP JUMPDEST PUSH1 0x40 MLOAD DUP1 SWAP2 SUB SWAP1 REVERT JUMPDEST DUP5 PUSH1 0x2 PUSH0 CALLER PUSH20 0xFFFFFFFFFFFFFFFFFFFFFFFFFFFFFFFFFFFFFFFF AND PUSH20 0xFFFFFFFFFFFFFFFFFFFFFFFFFFFFFFFFFFFFFFFF AND DUP2 MSTORE PUSH1 0x20 ADD SWAP1 DUP2 MSTORE PUSH1 0x20 ADD PUSH0 KECCAK256 SLOAD LT ISZERO PUSH2 0x1489 JUMPI PUSH1 0x40 MLOAD PUSH32 0x8C379A000000000000000000000000000000000000000000000000000000000 DUP2 MSTORE PUSH1 0x4 ADD PUSH2 0x1480 SWAP1 PUSH2 0x39B4 JUMP JUMPDEST PUSH1 0x40 MLOAD DUP1 SWAP2 SUB SWAP1 REVERT JUMPDEST PUSH1 0x3 SLOAD DUP3 DUP7 PUSH2 0x1498 SWAP2 SWAP1 PUSH2 0x3430 JUMP JUMPDEST PUSH2 0x14A2 SWAP2 SWAP1 PUSH2 0x349E JUMP JUMPDEST SWAP4 POP PUSH1 0x3 SLOAD DUP2 DUP7 PUSH2 0x14B3 SWAP2 SWAP1 PUSH2 0x3430 JUMP JUMPDEST PUSH2 0x14BD SWAP2 SWAP1 PUSH2 0x349E JUMP JUMPDEST SWAP3 POP PUSH0 DUP5 GT DUP1 ISZERO PUSH2 0x14CD JUMPI POP PUSH0 DUP4 GT JUMPDEST PUSH2 0x150C JUMPI PUSH1 0x40 MLOAD PUSH32 0x8C379A000000000000000000000000000000000000000000000000000000000 DUP2 MSTORE PUSH1 0x4 ADD PUSH2 0x1503 SWAP1 PUSH2 0x35B3 JUMP JUMPDEST PUSH1 0x40 MLOAD DUP1 SWAP2 SUB SWAP1 REVERT JUMPDEST DUP5 PUSH1 0x2 PUSH0 CALLER PUSH20 0xFFFFFFFFFFFFFFFFFFFFFFFFFFFFFFFFFFFFFFFF AND PUSH20 0xFFFFFFFFFFFFFFFFFFFFFFFFFFFFFFFFFFFFFFFF AND DUP2 MSTORE PUSH1 0x20 ADD SWAP1 DUP2 MSTORE PUSH1 0x20 ADD PUSH0 KECCAK256 PUSH0 DUP3 DUP3 SLOAD PUSH2 0x1558 SWAP2 SWAP1 PUSH2 0x33FD JUMP JUMPDEST SWAP3 POP POP DUP2 SWAP1 SSTORE POP DUP5 PUSH1 0x3 PUSH0 DUP3 DUP3 SLOAD PUSH2 0x1570 SWAP2 SWAP1 PUSH2 0x33FD JUMP JUMPDEST SWAP3 POP POP DUP2 SWAP1 SSTORE POP PUSH2 0x157F PUSH2 0x2E40 JUMP JUMPDEST PUSH1 0x5 PUSH0 SWAP1 SLOAD SWAP1 PUSH2 0x100 EXP SWAP1 DIV PUSH20 0xFFFFFFFFFFFFFFFFFFFFFFFFFFFFFFFFFFFFFFFF AND PUSH20 0xFFFFFFFFFFFFFFFFFFFFFFFFFFFFFFFFFFFFFFFF AND PUSH4 0xA9059CBB CALLER DUP7 PUSH1 0x40 MLOAD DUP4 PUSH4 0xFFFFFFFF AND PUSH1 0xE0 SHL DUP2 MSTORE PUSH1 0x4 ADD PUSH2 0x15DB SWAP3 SWAP2 SWAP1 PUSH2 0x36C3 JUMP JUMPDEST PUSH1 0x20 PUSH1 0x40 MLOAD DUP1 DUP4 SUB DUP2 PUSH0 DUP8 GAS CALL ISZERO DUP1 ISZERO PUSH2 0x15F7 JUMPI RETURNDATASIZE PUSH0 DUP1 RETURNDATACOPY RETURNDATASIZE PUSH0 REVERT JUMPDEST POP POP POP POP PUSH1 0x40 MLOAD RETURNDATASIZE PUSH1 0x1F NOT PUSH1 0x1F DUP3 ADD AND DUP3 ADD DUP1 PUSH1 0x40 MSTORE POP DUP2 ADD SWAP1 PUSH2 0x161B SWAP2 SWAP1 PUSH2 0x3630 JUMP JUMPDEST PUSH2 0x165A JUMPI PUSH1 0x40 MLOAD PUSH32 0x8C379A000000000000000000000000000000000000000000000000000000000 DUP2 MSTORE PUSH1 0x4 ADD PUSH2 0x1651 SWAP1 PUSH2 0x36A5 JUMP JUMPDEST PUSH1 0x40 MLOAD DUP1 SWAP2 SUB SWAP1 REVERT JUMPDEST PUSH1 0x6 PUSH0 SWAP1 SLOAD SWAP1 PUSH2 0x100 EXP SWAP1 DIV PUSH20 0xFFFFFFFFFFFFFFFFFFFFFFFFFFFFFFFFFFFFFFFF AND PUSH20 0xFFFFFFFFFFFFFFFFFFFFFFFFFFFFFFFFFFFFFFFF AND PUSH4 0xA9059CBB CALLER DUP6 PUSH1 0x40 MLOAD DUP4 PUSH4 0xFFFFFFFF AND PUSH1 0xE0 SHL DUP2 MSTORE PUSH1 0x4 ADD PUSH2 0x16B6 SWAP3 SWAP2 SWAP1 PUSH2 0x36C3 JUMP JUMPDEST PUSH1 0x20 PUSH1 0x40 MLOAD DUP1 DUP4 SUB DUP2 PUSH0 DUP8 GAS CALL ISZERO DUP1 ISZERO PUSH2 0x16D2 JUMPI RETURNDATASIZE PUSH0 DUP1 RETURNDATACOPY RETURNDATASIZE PUSH0 REVERT JUMPDEST POP POP POP POP PUSH1 0x40 MLOAD RETURNDATASIZE PUSH1 0x1F NOT PUSH1 0x1F DUP3 ADD AND DUP3 ADD DUP1 PUSH1 0x40 MSTORE POP DUP2 ADD SWAP1 PUSH2 0x16F6 SWAP2 SWAP1 PUSH2 0x3630 JUMP JUMPDEST PUSH2 0x1735 JUMPI PUSH1 0x40 MLOAD PUSH32 0x8C379A000000000000000000000000000000000000000000000000000000000 DUP2 MSTORE PUSH1 0x4 ADD PUSH2 0x172C SWAP1 PUSH2 0x3734 JUMP JUMPDEST PUSH1 0x40 MLOAD DUP1 SWAP2 SUB SWAP1 REVERT JUMPDEST CALLER PUSH20 0xFFFFFFFFFFFFFFFFFFFFFFFFFFFFFFFFFFFFFFFF AND PUSH32 0x59C3A0B60C6AB7DEB62E1440C9E72441DB6DB7DFE514DBA8CB18E60C0D896EFA DUP6 DUP6 DUP9 PUSH1 0x40 MLOAD PUSH2 0x177F SWAP4 SWAP3 SWAP2 SWAP1 PUSH2 0x3865 JUMP JUMPDEST PUSH1 0x40 MLOAD DUP1 SWAP2 SUB SWAP1 LOG2 POP POP SWAP2 POP SWAP2 JUMP JUMPDEST PUSH0 DUP1 PUSH1 0x5 PUSH0 SWAP1 SLOAD SWAP1 PUSH2 0x100 EXP SWAP1 DIV PUSH20 0xFFFFFFFFFFFFFFFFFFFFFFFFFFFFFFFFFFFFFFFF AND PUSH20 0xFFFFFFFFFFFFFFFFFFFFFFFFFFFFFFFFFFFFFFFF AND PUSH4 0x70A08231 ADDRESS PUSH1 0x40 MLOAD DUP3 PUSH4 0xFFFFFFFF AND PUSH1 0xE0 SHL DUP2 MSTORE PUSH1 0x4 ADD PUSH2 0x17EA SWAP2 SWAP1 PUSH2 0x3233 JUMP JUMPDEST PUSH1 0x20 PUSH1 0x40 MLOAD DUP1 DUP4 SUB DUP2 DUP7 GAS STATICCALL ISZERO DUP1 ISZERO PUSH2 0x1805 JUMPI RETURNDATASIZE PUSH0 DUP1 RETURNDATACOPY RETURNDATASIZE PUSH0 REVERT JUMPDEST POP POP POP POP PUSH1 0x40 MLOAD RETURNDATASIZE PUSH1 0x1F NOT PUSH1 0x1F DUP3 ADD AND DUP3 ADD DUP1 PUSH1 0x40 MSTORE POP DUP2 ADD SWAP1 PUSH2 0x1829 SWAP2 SWAP1 PUSH2 0x32C5 JUMP JUMPDEST SWAP1 POP PUSH0 PUSH1 0x6 PUSH0 SWAP1 SLOAD SWAP1 PUSH2 0x100 EXP SWAP1 DIV PUSH20 0xFFFFFFFFFFFFFFFFFFFFFFFFFFFFFFFFFFFFFFFF AND PUSH20 0xFFFFFFFFFFFFFFFFFFFFFFFFFFFFFFFFFFFFFFFF AND PUSH4 0x70A08231 ADDRESS PUSH1 0x40 MLOAD DUP3 PUSH4 0xFFFFFFFF AND PUSH1 0xE0 SHL DUP2 MSTORE PUSH1 0x4 ADD PUSH2 0x1886 SWAP2 SWAP1 PUSH2 0x3233 JUMP JUMPDEST PUSH1 0x20 PUSH1 0x40 MLOAD DUP1 DUP4 SUB DUP2 DUP7 GAS STATICCALL ISZERO DUP1 ISZERO PUSH2 0x18A1 JUMPI RETURNDATASIZE PUSH0 DUP1 RETURNDATACOPY RETURNDATASIZE PUSH0 REVERT JUMPDEST POP POP POP POP PUSH1 0x40 MLOAD RETURNDATASIZE PUSH1 0x1F NOT PUSH1 0x1F DUP3 ADD AND DUP3 ADD DUP1 PUSH1 0x40 MSTORE POP DUP2 ADD SWAP1 PUSH2 0x18C5 SWAP2 SWAP1 PUSH2 0x32C5 JUMP JUMPDEST SWAP1 POP PUSH0 DUP6 GT DUP1 ISZERO PUSH2 0x18D5 JUMPI POP PUSH0 DUP5 GT JUMPDEST PUSH2 0x1914 JUMPI PUSH1 0x40 MLOAD PUSH32 0x8C379A000000000000000000000000000000000000000000000000000000000 DUP2 MSTORE PUSH1 0x4 ADD PUSH2 0x190B SWAP1 PUSH2 0x3A1C JUMP JUMPDEST PUSH1 0x40 MLOAD DUP1 SWAP2 SUB SWAP1 REVERT JUMPDEST PUSH1 0x5 PUSH0 SWAP1 SLOAD SWAP1 PUSH2 0x100 EXP SWAP1 DIV PUSH20 0xFFFFFFFFFFFFFFFFFFFFFFFFFFFFFFFFFFFFFFFF AND PUSH20 0xFFFFFFFFFFFFFFFFFFFFFFFFFFFFFFFFFFFFFFFF AND PUSH4 0x23B872DD CALLER ADDRESS DUP9 PUSH1 0x40 MLOAD DUP5 PUSH4 0xFFFFFFFF AND PUSH1 0xE0 SHL DUP2 MSTORE PUSH1 0x4 ADD PUSH2 0x1972 SWAP4 SWAP3 SWAP2 SWAP1 PUSH2 0x35D1 JUMP JUMPDEST PUSH1 0x20 PUSH1 0x40 MLOAD DUP1 DUP4 SUB DUP2 PUSH0 DUP8 GAS CALL ISZERO DUP1 ISZERO PUSH2 0x198E JUMPI RETURNDATASIZE PUSH0 DUP1 RETURNDATACOPY RETURNDATASIZE PUSH0 REVERT JUMPDEST POP POP POP POP PUSH1 0x40 MLOAD RETURNDATASIZE PUSH1 0x1F NOT PUSH1 0x1F DUP3 ADD AND DUP3 ADD DUP1 PUSH1 0x40 MSTORE POP DUP2 ADD SWAP1 PUSH2 0x19B2 SWAP2 SWAP1 PUSH2 0x3630 JUMP JUMPDEST PUSH2 0x19F1 JUMPI PUSH1 0x40 MLOAD PUSH32 0x8C379A000000000000000000000000000000000000000000000000000000000 DUP2 MSTORE PUSH1 0x4 ADD PUSH2 0x19E8 SWAP1 PUSH2 0x36A5 JUMP JUMPDEST PUSH1 0x40 MLOAD DUP1 SWAP2 SUB SWAP1 REVERT JUMPDEST PUSH1 0x6 PUSH0 SWAP1 SLOAD SWAP1 PUSH2 0x100 EXP SWAP1 DIV PUSH20 0xFFFFFFFFFFFFFFFFFFFFFFFFFFFFFFFFFFFFFFFF AND PUSH20 0xFFFFFFFFFFFFFFFFFFFFFFFFFFFFFFFFFFFFFFFF AND PUSH4 0x23B872DD CALLER ADDRESS DUP8 PUSH1 0x40 MLOAD DUP5 PUSH4 0xFFFFFFFF AND PUSH1 0xE0 SHL DUP2 MSTORE PUSH1 0x4 ADD PUSH2 0x1A4F SWAP4 SWAP3 SWAP2 SWAP1 PUSH2 0x35D1 JUMP JUMPDEST PUSH1 0x20 PUSH1 0x40 MLOAD DUP1 DUP4 SUB DUP2 PUSH0 DUP8 GAS CALL ISZERO DUP1 ISZERO PUSH2 0x1A6B JUMPI RETURNDATASIZE PUSH0 DUP1 RETURNDATACOPY RETURNDATASIZE PUSH0 REVERT JUMPDEST POP POP POP POP PUSH1 0x40 MLOAD RETURNDATASIZE PUSH1 0x1F NOT PUSH1 0x1F DUP3 ADD AND DUP3 ADD DUP1 PUSH1 0x40 MSTORE POP DUP2 ADD SWAP1 PUSH2 0x1A8F SWAP2 SWAP1 PUSH2 0x3630 JUMP JUMPDEST PUSH2 0x1ACE JUMPI PUSH1 0x40 MLOAD PUSH32 0x8C379A000000000000000000000000000000000000000000000000000000000 DUP2 MSTORE PUSH1 0x4 ADD PUSH2 0x1AC5 SWAP1 PUSH2 0x3734 JUMP JUMPDEST PUSH1 0x40 MLOAD DUP1 SWAP2 SUB SWAP1 REVERT JUMPDEST PUSH0 PUSH1 0x3 SLOAD SUB PUSH2 0x1BBD JUMPI DUP5 SWAP3 POP PUSH2 0x3E8 DUP4 GT PUSH2 0x1B1E JUMPI PUSH1 0x40 MLOAD PUSH32 0x8C379A000000000000000000000000000000000000000000000000000000000 DUP2 MSTORE PUSH1 0x4 ADD PUSH2 0x1B15 SWAP1 PUSH2 0x35B3 JUMP JUMPDEST PUSH1 0x40 MLOAD DUP1 SWAP2 SUB SWAP1 REVERT JUMPDEST DUP3 PUSH1 0x3 DUP2 SWAP1 SSTORE POP PUSH2 0x3E8 DUP4 PUSH2 0x1B33 SWAP2 SWAP1 PUSH2 0x33FD JUMP JUMPDEST PUSH1 0x2 PUSH0 CALLER PUSH20 0xFFFFFFFFFFFFFFFFFFFFFFFFFFFFFFFFFFFFFFFF AND PUSH20 0xFFFFFFFFFFFFFFFFFFFFFFFFFFFFFFFFFFFFFFFF AND DUP2 MSTORE PUSH1 0x20 ADD SWAP1 DUP2 MSTORE PUSH1 0x20 ADD PUSH0 KECCAK256 DUP2 SWAP1 SSTORE POP PUSH2 0x3E8 PUSH1 0x2 PUSH0 DUP1 PUSH20 0xFFFFFFFFFFFFFFFFFFFFFFFFFFFFFFFFFFFFFFFF AND PUSH20 0xFFFFFFFFFFFFFFFFFFFFFFFFFFFFFFFFFFFFFFFF AND DUP2 MSTORE PUSH1 0x20 ADD SWAP1 DUP2 MSTORE PUSH1 0x20 ADD PUSH0 KECCAK256 DUP2 SWAP1 SSTORE POP PUSH2 0x1C09 JUMP JUMPDEST PUSH0 DUP3 PUSH1 0x3 SLOAD DUP8 PUSH2 0x1BCD SWAP2 SWAP1 PUSH2 0x3430 JUMP JUMPDEST PUSH2 0x1BD7 SWAP2 SWAP1 PUSH2 0x349E JUMP JUMPDEST SWAP1 POP PUSH0 DUP3 PUSH1 0x3 SLOAD DUP8 PUSH2 0x1BE9 SWAP2 SWAP1 PUSH2 0x3430 JUMP JUMPDEST PUSH2 0x1BF3 SWAP2 SWAP1 PUSH2 0x349E JUMP JUMPDEST SWAP1 POP DUP1 DUP3 LT PUSH2 0x1C02 JUMPI DUP1 PUSH2 0x1C04 JUMP JUMPDEST DUP2 JUMPDEST SWAP5 POP POP POP JUMPDEST PUSH0 DUP4 GT PUSH2 0x1C4B JUMPI PUSH1 0x40 MLOAD PUSH32 0x8C379A000000000000000000000000000000000000000000000000000000000 DUP2 MSTORE PUSH1 0x4 ADD PUSH2 0x1C42 SWAP1 PUSH2 0x39B4 JUMP JUMPDEST PUSH1 0x40 MLOAD DUP1 SWAP2 SUB SWAP1 REVERT JUMPDEST DUP3 PUSH1 0x3 PUSH0 DUP3 DUP3 SLOAD PUSH2 0x1C5C SWAP2 SWAP1 PUSH2 0x34CE JUMP JUMPDEST SWAP3 POP POP DUP2 SWAP1 SSTORE POP DUP3 PUSH1 0x2 PUSH0 CALLER PUSH20 0xFFFFFFFFFFFFFFFFFFFFFFFFFFFFFFFFFFFFFFFF AND PUSH20 0xFFFFFFFFFFFFFFFFFFFFFFFFFFFFFFFFFFFFFFFF AND DUP2 MSTORE PUSH1 0x20 ADD SWAP1 DUP2 MSTORE PUSH1 0x20 ADD PUSH0 KECCAK256 PUSH0 DUP3 DUP3 SLOAD PUSH2 0x1CAF SWAP2 SWAP1 PUSH2 0x34CE JUMP JUMPDEST SWAP3 POP POP DUP2 SWAP1 SSTORE POP PUSH2 0x1CBE PUSH2 0x2E40 JUMP JUMPDEST CALLER PUSH20 0xFFFFFFFFFFFFFFFFFFFFFFFFFFFFFFFFFFFFFFFF AND PUSH32 0xBEB3885786D637A474CBC287C0A44587231633A077F0BD30354D5A4B18996FCE DUP7 DUP7 DUP7 PUSH1 0x40 MLOAD PUSH2 0x1D08 SWAP4 SWAP3 SWAP2 SWAP1 PUSH2 0x3865 JUMP JUMPDEST PUSH1 0x40 MLOAD DUP1 SWAP2 SUB SWAP1 LOG2 POP POP SWAP3 SWAP2 POP POP JUMP JUMPDEST PUSH1 0x3 DUP2 JUMP JUMPDEST PUSH1 0x1 SLOAD DUP2 JUMP JUMPDEST PUSH2 0x3E8 DUP2 JUMP JUMPDEST PUSH0 DUP1 SLOAD SWAP1 PUSH2 0x100 EXP SWAP1 DIV PUSH20 0xFFFFFFFFFFFFFFFFFFFFFFFFFFFFFFFFFFFFFFFF AND DUP2 JUMP JUMPDEST PUSH2 0x3E8 DUP2 JUMP JUMPDEST PUSH0 DUP1 SLOAD SWAP1 PUSH2 0x100 EXP SWAP1 DIV PUSH20 0xFFFFFFFFFFFFFFFFFFFFFFFFFFFFFFFFFFFFFFFF AND PUSH20 0xFFFFFFFFFFFFFFFFFFFFFFFFFFFFFFFFFFFFFFFF AND CALLER PUSH20 0xFFFFFFFFFFFFFFFFFFFFFFFFFFFFFFFFFFFFFFFF AND EQ PUSH2 0x1DDF JUMPI PUSH1 0x40 MLOAD PUSH32 0x8C379A000000000000000000000000000000000000000000000000000000000 DUP2 MSTORE PUSH1 0x4 ADD PUSH2 0x1DD6 SWAP1 PUSH2 0x3AAA JUMP JUMPDEST PUSH1 0x40 MLOAD DUP1 SWAP2 SUB SWAP1 REVERT JUMPDEST PUSH0 PUSH1 0x5 PUSH0 SWAP1 SLOAD SWAP1 PUSH2 0x100 EXP SWAP1 DIV PUSH20 0xFFFFFFFFFFFFFFFFFFFFFFFFFFFFFFFFFFFFFFFF AND PUSH20 0xFFFFFFFFFFFFFFFFFFFFFFFFFFFFFFFFFFFFFFFF AND PUSH4 0x70A08231 ADDRESS PUSH1 0x40 MLOAD DUP3 PUSH4 0xFFFFFFFF AND PUSH1 0xE0 SHL DUP2 MSTORE PUSH1 0x4 ADD PUSH2 0x1E3A SWAP2 SWAP1 PUSH2 0x3233 JUMP JUMPDEST PUSH1 0x20 PUSH1 0x40 MLOAD DUP1 DUP4 SUB DUP2 DUP7 GAS STATICCALL ISZERO DUP1 ISZERO PUSH2 0x1E55 JUMPI RETURNDATASIZE PUSH0 DUP1 RETURNDATACOPY RETURNDATASIZE PUSH0 REVERT JUMPDEST POP POP POP POP PUSH1 0x40 MLOAD RETURNDATASIZE PUSH1 0x1F NOT PUSH1 0x1F DUP3 ADD AND DUP3 ADD DUP1 PUSH1 0x40 MSTORE POP DUP2 ADD SWAP1 PUSH2 0x1E79 SWAP2 SWAP1 PUSH2 0x32C5 JUMP JUMPDEST SWAP1 POP PUSH0 PUSH1 0x6 PUSH0 SWAP1 SLOAD SWAP1 PUSH2 0x100 EXP SWAP1 DIV PUSH20 0xFFFFFFFFFFFFFFFFFFFFFFFFFFFFFFFFFFFFFFFF AND PUSH20 0xFFFFFFFFFFFFFFFFFFFFFFFFFFFFFFFFFFFFFFFF AND PUSH4 0x70A08231 ADDRESS PUSH1 0x40 MLOAD DUP3 PUSH4 0xFFFFFFFF AND PUSH1 0xE0 SHL DUP2 MSTORE PUSH1 0x4 ADD PUSH2 0x1ED6 SWAP2 SWAP1 PUSH2 0x3233 JUMP JUMPDEST PUSH1 0x20 PUSH1 0x40 MLOAD DUP1 DUP4 SUB DUP2 DUP7 GAS STATICCALL ISZERO DUP1 ISZERO PUSH2 0x1EF1 JUMPI RETURNDATASIZE PUSH0 DUP1 RETURNDATACOPY RETURNDATASIZE PUSH0 REVERT JUMPDEST POP POP POP POP PUSH1 0x40 MLOAD RETURNDATASIZE PUSH1 0x1F NOT PUSH1 0x1F DUP3 ADD AND DUP3 ADD DUP1 PUSH1 0x40 MSTORE POP DUP2 ADD SWAP1 PUSH2 0x1F15 SWAP2 SWAP1 PUSH2 0x32C5 JUMP JUMPDEST SWAP1 POP PUSH0 DUP3 GT ISZERO PUSH2 0x1FDC JUMPI PUSH1 0x5 PUSH0 SWAP1 SLOAD SWAP1 PUSH2 0x100 EXP SWAP1 DIV PUSH20 0xFFFFFFFFFFFFFFFFFFFFFFFFFFFFFFFFFFFFFFFF AND PUSH20 0xFFFFFFFFFFFFFFFFFFFFFFFFFFFFFFFFFFFFFFFF AND PUSH4 0xA9059CBB PUSH0 DUP1 SLOAD SWAP1 PUSH2 0x100 EXP SWAP1 DIV PUSH20 0xFFFFFFFFFFFFFFFFFFFFFFFFFFFFFFFFFFFFFFFF AND DUP5 PUSH1 0x40 MLOAD DUP4 PUSH4 0xFFFFFFFF AND PUSH1 0xE0 SHL DUP2 MSTORE PUSH1 0x4 ADD PUSH2 0x1F9A SWAP3 SWAP2 SWAP1 PUSH2 0x36C3 JUMP JUMPDEST PUSH1 0x20 PUSH1 0x40 MLOAD DUP1 DUP4 SUB DUP2 PUSH0 DUP8 GAS CALL ISZERO DUP1 ISZERO PUSH2 0x1FB6 JUMPI RETURNDATASIZE PUSH0 DUP1 RETURNDATACOPY RETURNDATASIZE PUSH0 REVERT JUMPDEST POP POP POP POP PUSH1 0x40 MLOAD RETURNDATASIZE PUSH1 0x1F NOT PUSH1 0x1F DUP3 ADD AND DUP3 ADD DUP1 PUSH1 0x40 MSTORE POP DUP2 ADD SWAP1 PUSH2 0x1FDA SWAP2 SWAP1 PUSH2 0x3630 JUMP JUMPDEST POP JUMPDEST PUSH0 DUP2 GT ISZERO PUSH2 0x20A1 JUMPI PUSH1 0x6 PUSH0 SWAP1 SLOAD SWAP1 PUSH2 0x100 EXP SWAP1 DIV PUSH20 0xFFFFFFFFFFFFFFFFFFFFFFFFFFFFFFFFFFFFFFFF AND PUSH20 0xFFFFFFFFFFFFFFFFFFFFFFFFFFFFFFFFFFFFFFFF AND PUSH4 0xA9059CBB PUSH0 DUP1 SLOAD SWAP1 PUSH2 0x100 EXP SWAP1 DIV PUSH20 0xFFFFFFFFFFFFFFFFFFFFFFFFFFFFFFFFFFFFFFFF AND DUP4 PUSH1 0x40 MLOAD DUP4 PUSH4 0xFFFFFFFF AND PUSH1 0xE0 SHL DUP2 MSTORE PUSH1 0x4 ADD PUSH2 0x205F SWAP3 SWAP2 SWAP1 PUSH2 0x36C3 JUMP JUMPDEST PUSH1 0x20 PUSH1 0x40 MLOAD DUP1 DUP4 SUB DUP2 PUSH0 DUP8 GAS CALL ISZERO DUP1 ISZERO PUSH2 0x207B JUMPI RETURNDATASIZE PUSH0 DUP1 RETURNDATACOPY RETURNDATASIZE PUSH0 REVERT JUMPDEST POP POP POP POP PUSH1 0x40 MLOAD RETURNDATASIZE PUSH1 0x1F NOT PUSH1 0x1F DUP3 ADD AND DUP3 ADD DUP1 PUSH1 0x40 MSTORE POP DUP2 ADD SWAP1 PUSH2 0x209F SWAP2 SWAP1 PUSH2 0x3630 JUMP JUMPDEST POP JUMPDEST PUSH2 0x20A9 PUSH2 0x2E40 JUMP JUMPDEST POP POP JUMP JUMPDEST PUSH0 DUP1 PUSH1 0x6 PUSH0 SWAP1 SLOAD SWAP1 PUSH2 0x100 EXP SWAP1 DIV PUSH20 0xFFFFFFFFFFFFFFFFFFFFFFFFFFFFFFFFFFFFFFFF AND PUSH20 0xFFFFFFFFFFFFFFFFFFFFFFFFFFFFFFFFFFFFFFFF AND PUSH4 0x70A08231 ADDRESS PUSH1 0x40 MLOAD DUP3 PUSH4 0xFFFFFFFF AND PUSH1 0xE0 SHL DUP2 MSTORE PUSH1 0x4 ADD PUSH2 0x2109 SWAP2 SWAP1 PUSH2 0x3233 JUMP JUMPDEST PUSH1 0x20 PUSH1 0x40 MLOAD DUP1 DUP4 SUB DUP2 DUP7 GAS STATICCALL ISZERO DUP1 ISZERO PUSH2 0x2124 JUMPI RETURNDATASIZE PUSH0 DUP1 RETURNDATACOPY RETURNDATASIZE PUSH0 REVERT JUMPDEST POP POP POP POP PUSH1 0x40 MLOAD RETURNDATASIZE PUSH1 0x1F NOT PUSH1 0x1F DUP3 ADD AND DUP3 ADD DUP1 PUSH1 0x40 MSTORE POP DUP2 ADD SWAP1 PUSH2 0x2148 SWAP2 SWAP1 PUSH2 0x32C5 JUMP JUMPDEST SWAP1 POP DUP5 DUP2 LT ISZERO PUSH2 0x218D JUMPI PUSH1 0x40 MLOAD PUSH32 0x8C379A000000000000000000000000000000000000000000000000000000000 DUP2 MSTORE PUSH1 0x4 ADD PUSH2 0x2184 SWAP1 PUSH2 0x37DF JUMP JUMPDEST PUSH1 0x40 MLOAD DUP1 SWAP2 SUB SWAP1 REVERT JUMPDEST PUSH1 0x6 PUSH0 SWAP1 SLOAD SWAP1 PUSH2 0x100 EXP SWAP1 DIV PUSH20 0xFFFFFFFFFFFFFFFFFFFFFFFFFFFFFFFFFFFFFFFF AND PUSH20 0xFFFFFFFFFFFFFFFFFFFFFFFFFFFFFFFFFFFFFFFF AND PUSH4 0xA9059CBB DUP5 DUP8 PUSH1 0x40 MLOAD DUP4 PUSH4 0xFFFFFFFF AND PUSH1 0xE0 SHL DUP2 MSTORE PUSH1 0x4 ADD PUSH2 0x21E9 SWAP3 SWAP2 SWAP1 PUSH2 0x36C3 JUMP JUMPDEST PUSH1 0x20 PUSH1 0x40 MLOAD DUP1 DUP4 SUB DUP2 PUSH0 DUP8 GAS CALL ISZERO DUP1 ISZERO PUSH2 0x2205 JUMPI RETURNDATASIZE PUSH0 DUP1 RETURNDATACOPY RETURNDATASIZE PUSH0 REVERT JUMPDEST POP POP POP POP PUSH1 0x40 MLOAD RETURNDATASIZE PUSH1 0x1F NOT PUSH1 0x1F DUP3 ADD AND DUP3 ADD DUP1 PUSH1 0x40 MSTORE POP DUP2 ADD SWAP1 PUSH2 0x2229 SWAP2 SWAP1 PUSH2 0x3630 JUMP JUMPDEST PUSH2 0x2268 JUMPI PUSH1 0x40 MLOAD PUSH32 0x8C379A000000000000000000000000000000000000000000000000000000000 DUP2 MSTORE PUSH1 0x4 ADD PUSH2 0x225F SWAP1 PUSH2 0x3847 JUMP JUMPDEST PUSH1 0x40 MLOAD DUP1 SWAP2 SUB SWAP1 REVERT JUMPDEST PUSH0 PUSH2 0x3E8 PUSH1 0x3 DUP8 PUSH2 0x2279 SWAP2 SWAP1 PUSH2 0x3430 JUMP JUMPDEST PUSH2 0x2283 SWAP2 SWAP1 PUSH2 0x349E JUMP JUMPDEST SWAP1 POP DUP4 PUSH20 0xFFFFFFFFFFFFFFFFFFFFFFFFFFFFFFFFFFFFFFFF AND PUSH4 0x1671B85E DUP8 DUP4 DUP9 PUSH1 0x40 MLOAD DUP5 PUSH4 0xFFFFFFFF AND PUSH1 0xE0 SHL DUP2 MSTORE PUSH1 0x4 ADD PUSH2 0x22C2 SWAP4 SWAP3 SWAP2 SWAP1 PUSH2 0x3865 JUMP JUMPDEST PUSH1 0x20 PUSH1 0x40 MLOAD DUP1 DUP4 SUB DUP2 PUSH0 DUP8 GAS CALL ISZERO DUP1 ISZERO PUSH2 0x22DE JUMPI RETURNDATASIZE PUSH0 DUP1 RETURNDATACOPY RETURNDATASIZE PUSH0 REVERT JUMPDEST POP POP POP POP PUSH1 0x40 MLOAD RETURNDATASIZE PUSH1 0x1F NOT PUSH1 0x1F DUP3 ADD AND DUP3 ADD DUP1 PUSH1 0x40 MSTORE POP DUP2 ADD SWAP1 PUSH2 0x2302 SWAP2 SWAP1 PUSH2 0x3630 JUMP JUMPDEST POP PUSH0 PUSH1 0x6 PUSH0 SWAP1 SLOAD SWAP1 PUSH2 0x100 EXP SWAP1 DIV PUSH20 0xFFFFFFFFFFFFFFFFFFFFFFFFFFFFFFFFFFFFFFFF AND PUSH20 0xFFFFFFFFFFFFFFFFFFFFFFFFFFFFFFFFFFFFFFFF AND PUSH4 0x70A08231 ADDRESS PUSH1 0x40 MLOAD DUP3 PUSH4 0xFFFFFFFF AND PUSH1 0xE0 SHL DUP2 MSTORE PUSH1 0x4 ADD PUSH2 0x235E SWAP2 SWAP1 PUSH2 0x3233 JUMP JUMPDEST PUSH1 0x20 PUSH1 0x40 MLOAD DUP1 DUP4 SUB DUP2 DUP7 GAS STATICCALL ISZERO DUP1 ISZERO PUSH2 0x2379 JUMPI RETURNDATASIZE PUSH0 DUP1 RETURNDATACOPY RETURNDATASIZE PUSH0 REVERT JUMPDEST POP POP POP POP PUSH1 0x40 MLOAD RETURNDATASIZE PUSH1 0x1F NOT PUSH1 0x1F DUP3 ADD AND DUP3 ADD DUP1 PUSH1 0x40 MSTORE POP DUP2 ADD SWAP1 PUSH2 0x239D SWAP2 SWAP1 PUSH2 0x32C5 JUMP JUMPDEST SWAP1 POP DUP2 DUP4 PUSH2 0x23AB SWAP2 SWAP1 PUSH2 0x34CE JUMP JUMPDEST DUP2 LT ISZERO PUSH2 0x23ED JUMPI PUSH1 0x40 MLOAD PUSH32 0x8C379A000000000000000000000000000000000000000000000000000000000 DUP2 MSTORE PUSH1 0x4 ADD PUSH2 0x23E4 SWAP1 PUSH2 0x38E4 JUMP JUMPDEST PUSH1 0x40 MLOAD DUP1 SWAP2 SUB SWAP1 REVERT JUMPDEST PUSH2 0x23F5 PUSH2 0x2E40 JUMP JUMPDEST PUSH1 0x1 SWAP4 POP POP POP POP SWAP4 SWAP3 POP POP POP JUMP JUMPDEST PUSH1 0x4 SLOAD DUP2 JUMP JUMPDEST PUSH0 DUP1 PUSH1 0x5 PUSH0 SWAP1 SLOAD SWAP1 PUSH2 0x100 EXP SWAP1 DIV PUSH20 0xFFFFFFFFFFFFFFFFFFFFFFFFFFFFFFFFFFFFFFFF AND PUSH20 0xFFFFFFFFFFFFFFFFFFFFFFFFFFFFFFFFFFFFFFFF AND PUSH4 0x70A08231 ADDRESS PUSH1 0x40 MLOAD DUP3 PUSH4 0xFFFFFFFF AND PUSH1 0xE0 SHL DUP2 MSTORE PUSH1 0x4 ADD PUSH2 0x2465 SWAP2 SWAP1 PUSH2 0x3233 JUMP JUMPDEST PUSH1 0x20 PUSH1 0x40 MLOAD DUP1 DUP4 SUB DUP2 DUP7 GAS STATICCALL ISZERO DUP1 ISZERO PUSH2 0x2480 JUMPI RETURNDATASIZE PUSH0 DUP1 RETURNDATACOPY RETURNDATASIZE PUSH0 REVERT JUMPDEST POP POP POP POP PUSH1 0x40 MLOAD RETURNDATASIZE PUSH1 0x1F NOT PUSH1 0x1F DUP3 ADD AND DUP3 ADD DUP1 PUSH1 0x40 MSTORE POP DUP2 ADD SWAP1 PUSH2 0x24A4 SWAP2 SWAP1 PUSH2 0x32C5 JUMP JUMPDEST SWAP1 POP PUSH0 PUSH1 0x6 PUSH0 SWAP1 SLOAD SWAP1 PUSH2 0x100 EXP SWAP1 DIV PUSH20 0xFFFFFFFFFFFFFFFFFFFFFFFFFFFFFFFFFFFFFFFF AND PUSH20 0xFFFFFFFFFFFFFFFFFFFFFFFFFFFFFFFFFFFFFFFF AND PUSH4 0x70A08231 ADDRESS PUSH1 0x40 MLOAD DUP3 PUSH4 0xFFFFFFFF AND PUSH1 0xE0 SHL DUP2 MSTORE PUSH1 0x4 ADD PUSH2 0x2501 SWAP2 SWAP1 PUSH2 0x3233 JUMP JUMPDEST PUSH1 0x20 PUSH1 0x40 MLOAD DUP1 DUP4 SUB DUP2 DUP7 GAS STATICCALL ISZERO DUP1 ISZERO PUSH2 0x251C JUMPI RETURNDATASIZE PUSH0 DUP1 RETURNDATACOPY RETURNDATASIZE PUSH0 REVERT JUMPDEST POP POP POP POP PUSH1 0x40 MLOAD RETURNDATASIZE PUSH1 0x1F NOT PUSH1 0x1F DUP3 ADD AND DUP3 ADD DUP1 PUSH1 0x40 MSTORE POP DUP2 ADD SWAP1 PUSH2 0x2540 SWAP2 SWAP1 PUSH2 0x32C5 JUMP JUMPDEST SWAP1 POP PUSH0 DUP5 GT PUSH2 0x2584 JUMPI PUSH1 0x40 MLOAD PUSH32 0x8C379A000000000000000000000000000000000000000000000000000000000 DUP2 MSTORE PUSH1 0x4 ADD PUSH2 0x257B SWAP1 PUSH2 0x334A JUMP JUMPDEST PUSH1 0x40 MLOAD DUP1 SWAP2 SUB SWAP1 REVERT JUMPDEST PUSH0 DUP3 GT DUP1 ISZERO PUSH2 0x2592 JUMPI POP PUSH0 DUP2 GT JUMPDEST PUSH2 0x25D1 JUMPI PUSH1 0x40 MLOAD PUSH32 0x8C379A000000000000000000000000000000000000000000000000000000000 DUP2 MSTORE PUSH1 0x4 ADD PUSH2 0x25C8 SWAP1 PUSH2 0x33B2 JUMP JUMPDEST PUSH1 0x40 MLOAD DUP1 SWAP2 SUB SWAP1 REVERT JUMPDEST PUSH0 PUSH2 0x3E8 PUSH1 0x3 PUSH2 0x3E8 PUSH2 0x25E4 SWAP2 SWAP1 PUSH2 0x33FD JUMP JUMPDEST DUP7 PUSH2 0x25EF SWAP2 SWAP1 PUSH2 0x3430 JUMP JUMPDEST PUSH2 0x25F9 SWAP2 SWAP1 PUSH2 0x349E JUMP JUMPDEST SWAP1 POP DUP1 DUP3 PUSH2 0x2607 SWAP2 SWAP1 PUSH2 0x34CE JUMP JUMPDEST DUP2 DUP5 PUSH2 0x2613 SWAP2 SWAP1 PUSH2 0x3430 JUMP JUMPDEST PUSH2 0x261D SWAP2 SWAP1 PUSH2 0x349E JUMP JUMPDEST SWAP4 POP PUSH0 DUP5 GT PUSH2 0x2661 JUMPI PUSH1 0x40 MLOAD PUSH32 0x8C379A000000000000000000000000000000000000000000000000000000000 DUP2 MSTORE PUSH1 0x4 ADD PUSH2 0x2658 SWAP1 PUSH2 0x354B JUMP JUMPDEST PUSH1 0x40 MLOAD DUP1 SWAP2 SUB SWAP1 REVERT JUMPDEST DUP3 DUP5 LT PUSH2 0x26A3 JUMPI PUSH1 0x40 MLOAD PUSH32 0x8C379A000000000000000000000000000000000000000000000000000000000 DUP2 MSTORE PUSH1 0x4 ADD PUSH2 0x269A SWAP1 PUSH2 0x35B3 JUMP JUMPDEST PUSH1 0x40 MLOAD DUP1 SWAP2 SUB SWAP1 REVERT JUMPDEST PUSH1 0x6 PUSH0 SWAP1 SLOAD SWAP1 PUSH2 0x100 EXP SWAP1 DIV PUSH20 0xFFFFFFFFFFFFFFFFFFFFFFFFFFFFFFFFFFFFFFFF AND PUSH20 0xFFFFFFFFFFFFFFFFFFFFFFFFFFFFFFFFFFFFFFFF AND PUSH4 0x23B872DD CALLER ADDRESS DUP9 PUSH1 0x40 MLOAD DUP5 PUSH4 0xFFFFFFFF AND PUSH1 0xE0 SHL DUP2 MSTORE PUSH1 0x4 ADD PUSH2 0x2701 SWAP4 SWAP3 SWAP2 SWAP1 PUSH2 0x35D1 JUMP JUMPDEST PUSH1 0x20 PUSH1 0x40 MLOAD DUP1 DUP4 SUB DUP2 PUSH0 DUP8 GAS CALL ISZERO DUP1 ISZERO PUSH2 0x271D JUMPI RETURNDATASIZE PUSH0 DUP1 RETURNDATACOPY RETURNDATASIZE PUSH0 REVERT JUMPDEST POP POP POP POP PUSH1 0x40 MLOAD RETURNDATASIZE PUSH1 0x1F NOT PUSH1 0x1F DUP3 ADD AND DUP3 ADD DUP1 PUSH1 0x40 MSTORE POP DUP2 ADD SWAP1 PUSH2 0x2741 SWAP2 SWAP1 PUSH2 0x3630 JUMP JUMPDEST PUSH2 0x2780 JUMPI PUSH1 0x40 MLOAD PUSH32 0x8C379A000000000000000000000000000000000000000000000000000000000 DUP2 MSTORE PUSH1 0x4 ADD PUSH2 0x2777 SWAP1 PUSH2 0x3734 JUMP JUMPDEST PUSH1 0x40 MLOAD DUP1 SWAP2 SUB SWAP1 REVERT JUMPDEST PUSH1 0x5 PUSH0 SWAP1 SLOAD SWAP1 PUSH2 0x100 EXP SWAP1 DIV PUSH20 0xFFFFFFFFFFFFFFFFFFFFFFFFFFFFFFFFFFFFFFFF AND PUSH20 0xFFFFFFFFFFFFFFFFFFFFFFFFFFFFFFFFFFFFFFFF AND PUSH4 0xA9059CBB CALLER DUP7 PUSH1 0x40 MLOAD DUP4 PUSH4 0xFFFFFFFF AND PUSH1 0xE0 SHL DUP2 MSTORE PUSH1 0x4 ADD PUSH2 0x27DC SWAP3 SWAP2 SWAP1 PUSH2 0x36C3 JUMP JUMPDEST PUSH1 0x20 PUSH1 0x40 MLOAD DUP1 DUP4 SUB DUP2 PUSH0 DUP8 GAS CALL ISZERO DUP1 ISZERO PUSH2 0x27F8 JUMPI RETURNDATASIZE PUSH0 DUP1 RETURNDATACOPY RETURNDATASIZE PUSH0 REVERT JUMPDEST POP POP POP POP PUSH1 0x40 MLOAD RETURNDATASIZE PUSH1 0x1F NOT PUSH1 0x1F DUP3 ADD AND DUP3 ADD DUP1 PUSH1 0x40 MSTORE POP DUP2 ADD SWAP1 PUSH2 0x281C SWAP2 SWAP1 PUSH2 0x3630 JUMP JUMPDEST PUSH2 0x285B JUMPI PUSH1 0x40 MLOAD PUSH32 0x8C379A000000000000000000000000000000000000000000000000000000000 DUP2 MSTORE PUSH1 0x4 ADD PUSH2 0x2852 SWAP1 PUSH2 0x36A5 JUMP JUMPDEST PUSH1 0x40 MLOAD DUP1 SWAP2 SUB SWAP1 REVERT JUMPDEST PUSH2 0x2863 PUSH2 0x2E40 JUMP JUMPDEST CALLER PUSH20 0xFFFFFFFFFFFFFFFFFFFFFFFFFFFFFFFFFFFFFFFF AND PUSH32 0x5380CF97D8F645D3C4896DA60C053458DCA03A3A31CEC642AC80E1DDF0D8D02A PUSH1 0x6 PUSH0 SWAP1 SLOAD SWAP1 PUSH2 0x100 EXP SWAP1 DIV PUSH20 0xFFFFFFFFFFFFFFFFFFFFFFFFFFFFFFFFFFFFFFFF AND DUP8 PUSH1 0x5 PUSH0 SWAP1 SLOAD SWAP1 PUSH2 0x100 EXP SWAP1 DIV PUSH20 0xFFFFFFFFFFFFFFFFFFFFFFFFFFFFFFFFFFFFFFFF AND DUP9 PUSH1 0x40 MLOAD PUSH2 0x28F1 SWAP5 SWAP4 SWAP3 SWAP2 SWAP1 PUSH2 0x3752 JUMP JUMPDEST PUSH1 0x40 MLOAD DUP1 SWAP2 SUB SWAP1 LOG2 POP POP POP SWAP2 SWAP1 POP JUMP JUMPDEST PUSH0 DUP1 PUSH0 PUSH1 0x5 PUSH0 SWAP1 SLOAD SWAP1 PUSH2 0x100 EXP SWAP1 DIV PUSH20 0xFFFFFFFFFFFFFFFFFFFFFFFFFFFFFFFFFFFFFFFF AND PUSH20 0xFFFFFFFFFFFFFFFFFFFFFFFFFFFFFFFFFFFFFFFF AND PUSH4 0x70A08231 ADDRESS PUSH1 0x40 MLOAD DUP3 PUSH4 0xFFFFFFFF AND PUSH1 0xE0 SHL DUP2 MSTORE PUSH1 0x4 ADD PUSH2 0x295E SWAP2 SWAP1 PUSH2 0x3233 JUMP JUMPDEST PUSH1 0x20 PUSH1 0x40 MLOAD DUP1 DUP4 SUB DUP2 DUP7 GAS STATICCALL ISZERO DUP1 ISZERO PUSH2 0x2979 JUMPI RETURNDATASIZE PUSH0 DUP1 RETURNDATACOPY RETURNDATASIZE PUSH0 REVERT JUMPDEST POP POP POP POP PUSH1 0x40 MLOAD RETURNDATASIZE PUSH1 0x1F NOT PUSH1 0x1F DUP3 ADD AND DUP3 ADD DUP1 PUSH1 0x40 MSTORE POP DUP2 ADD SWAP1 PUSH2 0x299D SWAP2 SWAP1 PUSH2 0x32C5 JUMP JUMPDEST SWAP1 POP PUSH0 PUSH1 0x6 PUSH0 SWAP1 SLOAD SWAP1 PUSH2 0x100 EXP SWAP1 DIV PUSH20 0xFFFFFFFFFFFFFFFFFFFFFFFFFFFFFFFFFFFFFFFF AND PUSH20 0xFFFFFFFFFFFFFFFFFFFFFFFFFFFFFFFFFFFFFFFF AND PUSH4 0x70A08231 ADDRESS PUSH1 0x40 MLOAD DUP3 PUSH4 0xFFFFFFFF AND PUSH1 0xE0 SHL DUP2 MSTORE PUSH1 0x4 ADD PUSH2 0x29FA SWAP2 SWAP1 PUSH2 0x3233 JUMP JUMPDEST PUSH1 0x20 PUSH1 0x40 MLOAD DUP1 DUP4 SUB DUP2 DUP7 GAS STATICCALL ISZERO DUP1 ISZERO PUSH2 0x2A15 JUMPI RETURNDATASIZE PUSH0 DUP1 RETURNDATACOPY RETURNDATASIZE PUSH0 REVERT JUMPDEST POP POP POP POP PUSH1 0x40 MLOAD RETURNDATASIZE PUSH1 0x1F NOT PUSH1 0x1F DUP3 ADD AND DUP3 ADD DUP1 PUSH1 0x40 MSTORE POP DUP2 ADD SWAP1 PUSH2 0x2A39 SWAP2 SWAP1 PUSH2 0x32C5 JUMP JUMPDEST SWAP1 POP PUSH0 DUP3 GT DUP1 ISZERO PUSH2 0x2A49 JUMPI POP PUSH0 DUP2 GT JUMPDEST ISZERO PUSH2 0x2AAD JUMPI PUSH1 0x1 DUP3 PUSH2 0x2A5B SWAP2 SWAP1 PUSH2 0x34CE JUMP JUMPDEST PUSH8 0xDE0B6B3A7640000 DUP3 PUSH2 0x2A6F SWAP2 SWAP1 PUSH2 0x3430 JUMP JUMPDEST PUSH2 0x2A79 SWAP2 SWAP1 PUSH2 0x349E JUMP JUMPDEST SWAP4 POP PUSH1 0x1 DUP2 PUSH2 0x2A88 SWAP2 SWAP1 PUSH2 0x34CE JUMP JUMPDEST PUSH8 0xDE0B6B3A7640000 DUP4 PUSH2 0x2A9C SWAP2 SWAP1 PUSH2 0x3430 JUMP JUMPDEST PUSH2 0x2AA6 SWAP2 SWAP1 PUSH2 0x349E JUMP JUMPDEST SWAP3 POP PUSH2 0x2AB4 JUMP JUMPDEST PUSH0 SWAP4 POP PUSH0 SWAP3 POP JUMPDEST POP POP SWAP1 SWAP2 JUMP JUMPDEST PUSH0 DUP1 PUSH1 0x5 PUSH0 SWAP1 SLOAD SWAP1 PUSH2 0x100 EXP SWAP1 DIV PUSH20 0xFFFFFFFFFFFFFFFFFFFFFFFFFFFFFFFFFFFFFFFF AND PUSH20 0xFFFFFFFFFFFFFFFFFFFFFFFFFFFFFFFFFFFFFFFF AND PUSH4 0x70A08231 ADDRESS PUSH1 0x40 MLOAD DUP3 PUSH4 0xFFFFFFFF AND PUSH1 0xE0 SHL DUP2 MSTORE PUSH1 0x4 ADD PUSH2 0x2B16 SWAP2 SWAP1 PUSH2 0x3233 JUMP JUMPDEST PUSH1 0x20 PUSH1 0x40 MLOAD DUP1 DUP4 SUB DUP2 DUP7 GAS STATICCALL ISZERO DUP1 ISZERO PUSH2 0x2B31 JUMPI RETURNDATASIZE PUSH0 DUP1 RETURNDATACOPY RETURNDATASIZE PUSH0 REVERT JUMPDEST POP POP POP POP PUSH1 0x40 MLOAD RETURNDATASIZE PUSH1 0x1F NOT PUSH1 0x1F DUP3 ADD AND DUP3 ADD DUP1 PUSH1 0x40 MSTORE POP DUP2 ADD SWAP1 PUSH2 0x2B55 SWAP2 SWAP1 PUSH2 0x32C5 JUMP JUMPDEST SWAP1 POP PUSH0 PUSH1 0x6 PUSH0 SWAP1 SLOAD SWAP1 PUSH2 0x100 EXP SWAP1 DIV PUSH20 0xFFFFFFFFFFFFFFFFFFFFFFFFFFFFFFFFFFFFFFFF AND PUSH20 0xFFFFFFFFFFFFFFFFFFFFFFFFFFFFFFFFFFFFFFFF AND PUSH4 0x70A08231 ADDRESS PUSH1 0x40 MLOAD DUP3 PUSH4 0xFFFFFFFF AND PUSH1 0xE0 SHL DUP2 MSTORE PUSH1 0x4 ADD PUSH2 0x2BB2 SWAP2 SWAP1 PUSH2 0x3233 JUMP JUMPDEST PUSH1 0x20 PUSH1 0x40 MLOAD DUP1 DUP4 SUB DUP2 DUP7 GAS STATICCALL ISZERO DUP1 ISZERO PUSH2 0x2BCD JUMPI RETURNDATASIZE PUSH0 DUP1 RETURNDATACOPY RETURNDATASIZE PUSH0 REVERT JUMPDEST POP POP POP POP PUSH1 0x40 MLOAD RETURNDATASIZE PUSH1 0x1F NOT PUSH1 0x1F DUP3 ADD AND DUP3 ADD DUP1 PUSH1 0x40 MSTORE POP DUP2 ADD SWAP1 PUSH2 0x2BF1 SWAP2 SWAP1 PUSH2 0x32C5 JUMP JUMPDEST SWAP1 POP PUSH0 DUP5 GT PUSH2 0x2C35 JUMPI PUSH1 0x40 MLOAD PUSH32 0x8C379A000000000000000000000000000000000000000000000000000000000 DUP2 MSTORE PUSH1 0x4 ADD PUSH2 0x2C2C SWAP1 PUSH2 0x334A JUMP JUMPDEST PUSH1 0x40 MLOAD DUP1 SWAP2 SUB SWAP1 REVERT JUMPDEST PUSH0 DUP3 GT DUP1 ISZERO PUSH2 0x2C43 JUMPI POP PUSH0 DUP2 GT JUMPDEST PUSH2 0x2C82 JUMPI PUSH1 0x40 MLOAD PUSH32 0x8C379A000000000000000000000000000000000000000000000000000000000 DUP2 MSTORE PUSH1 0x4 ADD PUSH2 0x2C79 SWAP1 PUSH2 0x33B2 JUMP JUMPDEST PUSH1 0x40 MLOAD DUP1 SWAP2 SUB SWAP1 REVERT JUMPDEST PUSH0 PUSH2 0x3E8 PUSH1 0x3 PUSH2 0x3E8 PUSH2 0x2C95 SWAP2 SWAP1 PUSH2 0x33FD JUMP JUMPDEST DUP7 PUSH2 0x2CA0 SWAP2 SWAP1 PUSH2 0x3430 JUMP JUMPDEST PUSH2 0x2CAA SWAP2 SWAP1 PUSH2 0x349E JUMP JUMPDEST SWAP1 POP DUP1 DUP4 PUSH2 0x2CB8 SWAP2 SWAP1 PUSH2 0x34CE JUMP JUMPDEST DUP2 DUP4 PUSH2 0x2CC4 SWAP2 SWAP1 PUSH2 0x3430 JUMP JUMPDEST PUSH2 0x2CCE SWAP2 SWAP1 PUSH2 0x349E JUMP JUMPDEST SWAP4 POP POP POP POP SWAP2 SWAP1 POP JUMP JUMPDEST PUSH0 DUP1 SLOAD SWAP1 PUSH2 0x100 EXP SWAP1 DIV PUSH20 0xFFFFFFFFFFFFFFFFFFFFFFFFFFFFFFFFFFFFFFFF AND PUSH20 0xFFFFFFFFFFFFFFFFFFFFFFFFFFFFFFFFFFFFFFFF AND CALLER PUSH20 0xFFFFFFFFFFFFFFFFFFFFFFFFFFFFFFFFFFFFFFFF AND EQ PUSH2 0x2D65 JUMPI PUSH1 0x40 MLOAD PUSH32 0x8C379A000000000000000000000000000000000000000000000000000000000 DUP2 MSTORE PUSH1 0x4 ADD PUSH2 0x2D5C SWAP1 PUSH2 0x3AAA JUMP JUMPDEST PUSH1 0x40 MLOAD DUP1 SWAP2 SUB SWAP1 REVERT JUMPDEST PUSH0 PUSH20 0xFFFFFFFFFFFFFFFFFFFFFFFFFFFFFFFFFFFFFFFF AND DUP2 PUSH20 0xFFFFFFFFFFFFFFFFFFFFFFFFFFFFFFFFFFFFFFFF AND SUB PUSH2 0x2DD3 JUMPI PUSH1 0x40 MLOAD PUSH32 0x8C379A000000000000000000000000000000000000000000000000000000000 DUP2 MSTORE PUSH1 0x4 ADD PUSH2 0x2DCA SWAP1 PUSH2 0x3B12 JUMP JUMPDEST PUSH1 0x40 MLOAD DUP1 SWAP2 SUB SWAP1 REVERT JUMPDEST DUP1 PUSH0 DUP1 PUSH2 0x100 EXP DUP2 SLOAD DUP2 PUSH20 0xFFFFFFFFFFFFFFFFFFFFFFFFFFFFFFFFFFFFFFFF MUL NOT AND SWAP1 DUP4 PUSH20 0xFFFFFFFFFFFFFFFFFFFFFFFFFFFFFFFFFFFFFFFF AND MUL OR SWAP1 SSTORE POP POP JUMP JUMPDEST PUSH1 0x6 PUSH0 SWAP1 SLOAD SWAP1 PUSH2 0x100 EXP SWAP1 DIV PUSH20 0xFFFFFFFFFFFFFFFFFFFFFFFFFFFFFFFFFFFFFFFF AND DUP2 JUMP JUMPDEST PUSH1 0x3 SLOAD DUP2 JUMP JUMPDEST PUSH0 PUSH1 0x5 PUSH0 SWAP1 SLOAD SWAP1 PUSH2 0x100 EXP SWAP1 DIV PUSH20 0xFFFFFFFFFFFFFFFFFFFFFFFFFFFFFFFFFFFFFFFF AND PUSH20 0xFFFFFFFFFFFFFFFFFFFFFFFFFFFFFFFFFFFFFFFF AND PUSH4 0x70A08231 ADDRESS PUSH1 0x40 MLOAD DUP3 PUSH4 0xFFFFFFFF AND PUSH1 0xE0 SHL DUP2 MSTORE PUSH1 0x4 ADD PUSH2 0x2E9B SWAP2 SWAP1 PUSH2 0x3233 JUMP JUMPDEST PUSH1 0x20 PUSH1 0x40 MLOAD DUP1 DUP4 SUB DUP2 DUP7 GAS STATICCALL ISZERO DUP1 ISZERO PUSH2 0x2EB6 JUMPI RETURNDATASIZE PUSH0 DUP1 RETURNDATACOPY RETURNDATASIZE PUSH0 REVERT JUMPDEST POP POP POP POP PUSH1 0x40 MLOAD RETURNDATASIZE PUSH1 0x1F NOT PUSH1 0x1F DUP3 ADD AND DUP3 ADD DUP1 PUSH1 0x40 MSTORE POP DUP2 ADD SWAP1 PUSH2 0x2EDA SWAP2 SWAP1 PUSH2 0x32C5 JUMP JUMPDEST SWAP1 POP PUSH0 PUSH1 0x6 PUSH0 SWAP1 SLOAD SWAP1 PUSH2 0x100 EXP SWAP1 DIV PUSH20 0xFFFFFFFFFFFFFFFFFFFFFFFFFFFFFFFFFFFFFFFF AND PUSH20 0xFFFFFFFFFFFFFFFFFFFFFFFFFFFFFFFFFFFFFFFF AND PUSH4 0x70A08231 ADDRESS PUSH1 0x40 MLOAD DUP3 PUSH4 0xFFFFFFFF AND PUSH1 0xE0 SHL DUP2 MSTORE PUSH1 0x4 ADD PUSH2 0x2F37 SWAP2 SWAP1 PUSH2 0x3233 JUMP JUMPDEST PUSH1 0x20 PUSH1 0x40 MLOAD DUP1 DUP4 SUB DUP2 DUP7 GAS STATICCALL ISZERO DUP1 ISZERO PUSH2 0x2F52 JUMPI RETURNDATASIZE PUSH0 DUP1 RETURNDATACOPY RETURNDATASIZE PUSH0 REVERT JUMPDEST POP POP POP POP PUSH1 0x40 MLOAD RETURNDATASIZE PUSH1 0x1F NOT PUSH1 0x1F DUP3 ADD AND DUP3 ADD DUP1 PUSH1 0x40 MSTORE POP DUP2 ADD SWAP1 PUSH2 0x2F76 SWAP2 SWAP1 PUSH2 0x32C5 JUMP JUMPDEST SWAP1 POP PUSH0 PUSH1 0x1 DUP3 PUSH2 0x2F86 SWAP2 SWAP1 PUSH2 0x34CE JUMP JUMPDEST PUSH8 0xDE0B6B3A7640000 DUP5 PUSH2 0x2F9A SWAP2 SWAP1 PUSH2 0x3430 JUMP JUMPDEST PUSH2 0x2FA4 SWAP2 SWAP1 PUSH2 0x349E JUMP JUMPDEST SWAP1 POP PUSH0 DUP2 GT PUSH2 0x2FE8 JUMPI PUSH1 0x40 MLOAD PUSH32 0x8C379A000000000000000000000000000000000000000000000000000000000 DUP2 MSTORE PUSH1 0x4 ADD PUSH2 0x2FDF SWAP1 PUSH2 0x3B7A JUMP JUMPDEST PUSH1 0x40 MLOAD DUP1 SWAP2 SUB SWAP1 REVERT JUMPDEST PUSH0 TIMESTAMP SWAP1 POP PUSH0 PUSH1 0x9 SLOAD DUP3 PUSH2 0x2FFB SWAP2 SWAP1 PUSH2 0x33FD JUMP JUMPDEST SWAP1 POP DUP1 PUSH1 0x8 SLOAD PUSH2 0x300B SWAP2 SWAP1 PUSH2 0x3430 JUMP JUMPDEST PUSH1 0xA PUSH0 DUP3 DUP3 SLOAD PUSH2 0x301B SWAP2 SWAP1 PUSH2 0x34CE JUMP JUMPDEST SWAP3 POP POP DUP2 SWAP1 SSTORE POP DUP1 PUSH1 0xB PUSH0 DUP3 DUP3 SLOAD PUSH2 0x3033 SWAP2 SWAP1 PUSH2 0x34CE JUMP JUMPDEST SWAP3 POP POP DUP2 SWAP1 SSTORE POP DUP3 PUSH1 0x8 DUP2 SWAP1 SSTORE POP DUP2 PUSH1 0x9 DUP2 SWAP1 SSTORE POP POP POP POP POP POP JUMP JUMPDEST PUSH0 DUP1 REVERT JUMPDEST PUSH0 DUP2 SWAP1 POP SWAP2 SWAP1 POP JUMP JUMPDEST PUSH2 0x3065 DUP2 PUSH2 0x3053 JUMP JUMPDEST DUP2 EQ PUSH2 0x306F JUMPI PUSH0 DUP1 REVERT JUMPDEST POP JUMP JUMPDEST PUSH0 DUP2 CALLDATALOAD SWAP1 POP PUSH2 0x3080 DUP2 PUSH2 0x305C JUMP JUMPDEST SWAP3 SWAP2 POP POP JUMP JUMPDEST PUSH0 PUSH1 0x20 DUP3 DUP5 SUB SLT ISZERO PUSH2 0x309B JUMPI PUSH2 0x309A PUSH2 0x304F JUMP JUMPDEST JUMPDEST PUSH0 PUSH2 0x30A8 DUP5 DUP3 DUP6 ADD PUSH2 0x3072 JUMP JUMPDEST SWAP2 POP POP SWAP3 SWAP2 POP POP JUMP JUMPDEST PUSH2 0x30BA DUP2 PUSH2 0x3053 JUMP JUMPDEST DUP3 MSTORE POP POP JUMP JUMPDEST PUSH0 PUSH1 0x20 DUP3 ADD SWAP1 POP PUSH2 0x30D3 PUSH0 DUP4 ADD DUP5 PUSH2 0x30B1 JUMP JUMPDEST SWAP3 SWAP2 POP POP JUMP JUMPDEST PUSH0 PUSH20 0xFFFFFFFFFFFFFFFFFFFFFFFFFFFFFFFFFFFFFFFF DUP3 AND SWAP1 POP SWAP2 SWAP1 POP JUMP JUMPDEST PUSH0 PUSH2 0x3102 DUP3 PUSH2 0x30D9 JUMP JUMPDEST SWAP1 POP SWAP2 SWAP1 POP JUMP JUMPDEST PUSH2 0x3112 DUP2 PUSH2 0x30F8 JUMP JUMPDEST DUP2 EQ PUSH2 0x311C JUMPI PUSH0 DUP1 REVERT JUMPDEST POP JUMP JUMPDEST PUSH0 DUP2 CALLDATALOAD SWAP1 POP PUSH2 0x312D DUP2 PUSH2 0x3109 JUMP JUMPDEST SWAP3 SWAP2 POP POP JUMP JUMPDEST PUSH0 PUSH1 0x20 DUP3 DUP5 SUB SLT ISZERO PUSH2 0x3148 JUMPI PUSH2 0x3147 PUSH2 0x304F JUMP JUMPDEST JUMPDEST PUSH0 PUSH2 0x3155 DUP5 DUP3 DUP6 ADD PUSH2 0x311F JUMP JUMPDEST SWAP2 POP POP SWAP3 SWAP2 POP POP JUMP JUMPDEST PUSH0 DUP1 PUSH0 PUSH1 0x60 DUP5 DUP7 SUB SLT ISZERO PUSH2 0x3175 JUMPI PUSH2 0x3174 PUSH2 0x304F JUMP JUMPDEST JUMPDEST PUSH0 PUSH2 0x3182 DUP7 DUP3 DUP8 ADD PUSH2 0x3072 JUMP JUMPDEST SWAP4 POP POP PUSH1 0x20 PUSH2 0x3193 DUP7 DUP3 DUP8 ADD PUSH2 0x3072 JUMP JUMPDEST SWAP3 POP POP PUSH1 0x40 PUSH2 0x31A4 DUP7 DUP3 DUP8 ADD PUSH2 0x311F JUMP JUMPDEST SWAP2 POP POP SWAP3 POP SWAP3 POP SWAP3 JUMP JUMPDEST PUSH0 DUP2 ISZERO ISZERO SWAP1 POP SWAP2 SWAP1 POP JUMP JUMPDEST PUSH2 0x31C2 DUP2 PUSH2 0x31AE JUMP JUMPDEST DUP3 MSTORE POP POP JUMP JUMPDEST PUSH0 PUSH1 0x20 DUP3 ADD SWAP1 POP PUSH2 0x31DB PUSH0 DUP4 ADD DUP5 PUSH2 0x31B9 JUMP JUMPDEST SWAP3 SWAP2 POP POP JUMP JUMPDEST PUSH0 PUSH1 0x80 DUP3 ADD SWAP1 POP PUSH2 0x31F4 PUSH0 DUP4 ADD DUP8 PUSH2 0x30B1 JUMP JUMPDEST PUSH2 0x3201 PUSH1 0x20 DUP4 ADD DUP7 PUSH2 0x30B1 JUMP JUMPDEST PUSH2 0x320E PUSH1 0x40 DUP4 ADD DUP6 PUSH2 0x30B1 JUMP JUMPDEST PUSH2 0x321B PUSH1 0x60 DUP4 ADD DUP5 PUSH2 0x30B1 JUMP JUMPDEST SWAP6 SWAP5 POP POP POP POP POP JUMP JUMPDEST PUSH2 0x322D DUP2 PUSH2 0x30F8 JUMP JUMPDEST DUP3 MSTORE POP POP JUMP JUMPDEST PUSH0 PUSH1 0x20 DUP3 ADD SWAP1 POP PUSH2 0x3246 PUSH0 DUP4 ADD DUP5 PUSH2 0x3224 JUMP JUMPDEST SWAP3 SWAP2 POP POP JUMP JUMPDEST PUSH0 PUSH1 0x40 DUP3 ADD SWAP1 POP PUSH2 0x325F PUSH0 DUP4 ADD DUP6 PUSH2 0x30B1 JUMP JUMPDEST PUSH2 0x326C PUSH1 0x20 DUP4 ADD DUP5 PUSH2 0x30B1 JUMP JUMPDEST SWAP4 SWAP3 POP POP POP JUMP JUMPDEST PUSH0 DUP1 PUSH1 0x40 DUP4 DUP6 SUB SLT ISZERO PUSH2 0x3289 JUMPI PUSH2 0x3288 PUSH2 0x304F JUMP JUMPDEST JUMPDEST PUSH0 PUSH2 0x3296 DUP6 DUP3 DUP7 ADD PUSH2 0x3072 JUMP JUMPDEST SWAP3 POP POP PUSH1 0x20 PUSH2 0x32A7 DUP6 DUP3 DUP7 ADD PUSH2 0x3072 JUMP JUMPDEST SWAP2 POP POP SWAP3 POP SWAP3 SWAP1 POP JUMP JUMPDEST PUSH0 DUP2 MLOAD SWAP1 POP PUSH2 0x32BF DUP2 PUSH2 0x305C JUMP JUMPDEST SWAP3 SWAP2 POP POP JUMP JUMPDEST PUSH0 PUSH1 0x20 DUP3 DUP5 SUB SLT ISZERO PUSH2 0x32DA JUMPI PUSH2 0x32D9 PUSH2 0x304F JUMP JUMPDEST JUMPDEST PUSH0 PUSH2 0x32E7 DUP5 DUP3 DUP6 ADD PUSH2 0x32B1 JUMP JUMPDEST SWAP2 POP POP SWAP3 SWAP2 POP POP JUMP JUMPDEST PUSH0 DUP3 DUP3 MSTORE PUSH1 0x20 DUP3 ADD SWAP1 POP SWAP3 SWAP2 POP POP JUMP JUMPDEST PUSH32 0x496E76616C696420616D6F756E74000000000000000000000000000000000000 PUSH0 DUP3 ADD MSTORE POP JUMP JUMPDEST PUSH0 PUSH2 0x3334 PUSH1 0xE DUP4 PUSH2 0x32F0 JUMP JUMPDEST SWAP2 POP PUSH2 0x333F DUP3 PUSH2 0x3300 JUMP JUMPDEST PUSH1 0x20 DUP3 ADD SWAP1 POP SWAP2 SWAP1 POP JUMP JUMPDEST PUSH0 PUSH1 0x20 DUP3 ADD SWAP1 POP DUP2 DUP2 SUB PUSH0 DUP4 ADD MSTORE PUSH2 0x3361 DUP2 PUSH2 0x3328 JUMP JUMPDEST SWAP1 POP SWAP2 SWAP1 POP JUMP JUMPDEST PUSH32 0x506F6F6C206E6F7420696E697469616C697A6564000000000000000000000000 PUSH0 DUP3 ADD MSTORE POP JUMP JUMPDEST PUSH0 PUSH2 0x339C PUSH1 0x14 DUP4 PUSH2 0x32F0 JUMP JUMPDEST SWAP2 POP PUSH2 0x33A7 DUP3 PUSH2 0x3368 JUMP JUMPDEST PUSH1 0x20 DUP3 ADD SWAP1 POP SWAP2 SWAP1 POP JUMP JUMPDEST PUSH0 PUSH1 0x20 DUP3 ADD SWAP1 POP DUP2 DUP2 SUB PUSH0 DUP4 ADD MSTORE PUSH2 0x33C9 DUP2 PUSH2 0x3390 JUMP JUMPDEST SWAP1 POP SWAP2 SWAP1 POP JUMP JUMPDEST PUSH32 0x4E487B7100000000000000000000000000000000000000000000000000000000 PUSH0 MSTORE PUSH1 0x11 PUSH1 0x4 MSTORE PUSH1 0x24 PUSH0 REVERT JUMPDEST PUSH0 PUSH2 0x3407 DUP3 PUSH2 0x3053 JUMP JUMPDEST SWAP2 POP PUSH2 0x3412 DUP4 PUSH2 0x3053 JUMP JUMPDEST SWAP3 POP DUP3 DUP3 SUB SWAP1 POP DUP2 DUP2 GT ISZERO PUSH2 0x342A JUMPI PUSH2 0x3429 PUSH2 0x33D0 JUMP JUMPDEST JUMPDEST SWAP3 SWAP2 POP POP JUMP JUMPDEST PUSH0 PUSH2 0x343A DUP3 PUSH2 0x3053 JUMP JUMPDEST SWAP2 POP PUSH2 0x3445 DUP4 PUSH2 0x3053 JUMP JUMPDEST SWAP3 POP DUP3 DUP3 MUL PUSH2 0x3453 DUP2 PUSH2 0x3053 JUMP JUMPDEST SWAP2 POP DUP3 DUP3 DIV DUP5 EQ DUP4 ISZERO OR PUSH2 0x346A JUMPI PUSH2 0x3469 PUSH2 0x33D0 JUMP JUMPDEST JUMPDEST POP SWAP3 SWAP2 POP POP JUMP JUMPDEST PUSH32 0x4E487B7100000000000000000000000000000000000000000000000000000000 PUSH0 MSTORE PUSH1 0x12 PUSH1 0x4 MSTORE PUSH1 0x24 PUSH0 REVERT JUMPDEST PUSH0 PUSH2 0x34A8 DUP3 PUSH2 0x3053 JUMP JUMPDEST SWAP2 POP PUSH2 0x34B3 DUP4 PUSH2 0x3053 JUMP JUMPDEST SWAP3 POP DUP3 PUSH2 0x34C3 JUMPI PUSH2 0x34C2 PUSH2 0x3471 JUMP JUMPDEST JUMPDEST DUP3 DUP3 DIV SWAP1 POP SWAP3 SWAP2 POP POP JUMP JUMPDEST PUSH0 PUSH2 0x34D8 DUP3 PUSH2 0x3053 JUMP JUMPDEST SWAP2 POP PUSH2 0x34E3 DUP4 PUSH2 0x3053 JUMP JUMPDEST SWAP3 POP DUP3 DUP3 ADD SWAP1 POP DUP1 DUP3 GT ISZERO PUSH2 0x34FB JUMPI PUSH2 0x34FA PUSH2 0x33D0 JUMP JUMPDEST JUMPDEST SWAP3 SWAP2 POP POP JUMP JUMPDEST PUSH32 0x496E73756666696369656E74206F757470757420616D6F756E74000000000000 PUSH0 DUP3 ADD MSTORE POP JUMP JUMPDEST PUSH0 PUSH2 0x3535 PUSH1 0x1A DUP4 PUSH2 0x32F0 JUMP JUMPDEST SWAP2 POP PUSH2 0x3540 DUP3 PUSH2 0x3501 JUMP JUMPDEST PUSH1 0x20 DUP3 ADD SWAP1 POP SWAP2 SWAP1 POP JUMP JUMPDEST PUSH0 PUSH1 0x20 DUP3 ADD SWAP1 POP DUP2 DUP2 SUB PUSH0 DUP4 ADD MSTORE PUSH2 0x3562 DUP2 PUSH2 0x3529 JUMP JUMPDEST SWAP1 POP SWAP2 SWAP1 POP JUMP JUMPDEST PUSH32 0x496E73756666696369656E74206C697175696469747900000000000000000000 PUSH0 DUP3 ADD MSTORE POP JUMP JUMPDEST PUSH0 PUSH2 0x359D PUSH1 0x16 DUP4 PUSH2 0x32F0 JUMP JUMPDEST SWAP2 POP PUSH2 0x35A8 DUP3 PUSH2 0x3569 JUMP JUMPDEST PUSH1 0x20 DUP3 ADD SWAP1 POP SWAP2 SWAP1 POP JUMP JUMPDEST PUSH0 PUSH1 0x20 DUP3 ADD SWAP1 POP DUP2 DUP2 SUB PUSH0 DUP4 ADD MSTORE PUSH2 0x35CA DUP2 PUSH2 0x3591 JUMP JUMPDEST SWAP1 POP SWAP2 SWAP1 POP JUMP JUMPDEST PUSH0 PUSH1 0x60 DUP3 ADD SWAP1 POP PUSH2 0x35E4 PUSH0 DUP4 ADD DUP7 PUSH2 0x3224 JUMP JUMPDEST PUSH2 0x35F1 PUSH1 0x20 DUP4 ADD DUP6 PUSH2 0x3224 JUMP JUMPDEST PUSH2 0x35FE PUSH1 0x40 DUP4 ADD DUP5 PUSH2 0x30B1 JUMP JUMPDEST SWAP5 SWAP4 POP POP POP POP JUMP JUMPDEST PUSH2 0x360F DUP2 PUSH2 0x31AE JUMP JUMPDEST DUP2 EQ PUSH2 0x3619 JUMPI PUSH0 DUP1 REVERT JUMPDEST POP JUMP JUMPDEST PUSH0 DUP2 MLOAD SWAP1 POP PUSH2 0x362A DUP2 PUSH2 0x3606 JUMP JUMPDEST SWAP3 SWAP2 POP POP JUMP JUMPDEST PUSH0 PUSH1 0x20 DUP3 DUP5 SUB SLT ISZERO PUSH2 0x3645 JUMPI PUSH2 0x3644 PUSH2 0x304F JUMP JUMPDEST JUMPDEST PUSH0 PUSH2 0x3652 DUP5 DUP3 DUP6 ADD PUSH2 0x361C JUMP JUMPDEST SWAP2 POP POP SWAP3 SWAP2 POP POP JUMP JUMPDEST PUSH32 0x5472616E736665722041206661696C6564000000000000000000000000000000 PUSH0 DUP3 ADD MSTORE POP JUMP JUMPDEST PUSH0 PUSH2 0x368F PUSH1 0x11 DUP4 PUSH2 0x32F0 JUMP JUMPDEST SWAP2 POP PUSH2 0x369A DUP3 PUSH2 0x365B JUMP JUMPDEST PUSH1 0x20 DUP3 ADD SWAP1 POP SWAP2 SWAP1 POP JUMP JUMPDEST PUSH0 PUSH1 0x20 DUP3 ADD SWAP1 POP DUP2 DUP2 SUB PUSH0 DUP4 ADD MSTORE PUSH2 0x36BC DUP2 PUSH2 0x3683 JUMP JUMPDEST SWAP1 POP SWAP2 SWAP1 POP JUMP JUMPDEST PUSH0 PUSH1 0x40 DUP3 ADD SWAP1 POP PUSH2 0x36D6 PUSH0 DUP4 ADD DUP6 PUSH2 0x3224 JUMP JUMPDEST PUSH2 0x36E3 PUSH1 0x20 DUP4 ADD DUP5 PUSH2 0x30B1 JUMP JUMPDEST SWAP4 SWAP3 POP POP POP JUMP JUMPDEST PUSH32 0x5472616E736665722042206661696C6564000000000000000000000000000000 PUSH0 DUP3 ADD MSTORE POP JUMP JUMPDEST PUSH0 PUSH2 0x371E PUSH1 0x11 DUP4 PUSH2 0x32F0 JUMP JUMPDEST SWAP2 POP PUSH2 0x3729 DUP3 PUSH2 0x36EA JUMP JUMPDEST PUSH1 0x20 DUP3 ADD SWAP1 POP SWAP2 SWAP1 POP JUMP JUMPDEST PUSH0 PUSH1 0x20 DUP3 ADD SWAP1 POP DUP2 DUP2 SUB PUSH0 DUP4 ADD MSTORE PUSH2 0x374B DUP2 PUSH2 0x3712 JUMP JUMPDEST SWAP1 POP SWAP2 SWAP1 POP JUMP JUMPDEST PUSH0 PUSH1 0x80 DUP3 ADD SWAP1 POP PUSH2 0x3765 PUSH0 DUP4 ADD DUP8 PUSH2 0x3224 JUMP JUMPDEST PUSH2 0x3772 PUSH1 0x20 DUP4 ADD DUP7 PUSH2 0x30B1 JUMP JUMPDEST PUSH2 0x377F PUSH1 0x40 DUP4 ADD DUP6 PUSH2 0x3224 JUMP JUMPDEST PUSH2 0x378C PUSH1 0x60 DUP4 ADD DUP5 PUSH2 0x30B1 JUMP JUMPDEST SWAP6 SWAP5 POP POP POP POP POP JUMP JUMPDEST PUSH32 0x4E6F7420656E6F756768206D6F6E657900000000000000000000000000000000 PUSH0 DUP3 ADD MSTORE POP JUMP JUMPDEST PUSH0 PUSH2 0x37C9 PUSH1 0x10 DUP4 PUSH2 0x32F0 JUMP JUMPDEST SWAP2 POP PUSH2 0x37D4 DUP3 PUSH2 0x3795 JUMP JUMPDEST PUSH1 0x20 DUP3 ADD SWAP1 POP SWAP2 SWAP1 POP JUMP JUMPDEST PUSH0 PUSH1 0x20 DUP3 ADD SWAP1 POP DUP2 DUP2 SUB PUSH0 DUP4 ADD MSTORE PUSH2 0x37F6 DUP2 PUSH2 0x37BD JUMP JUMPDEST SWAP1 POP SWAP2 SWAP1 POP JUMP JUMPDEST PUSH32 0x5472616E73666572206572726F72000000000000000000000000000000000000 PUSH0 DUP3 ADD MSTORE POP JUMP JUMPDEST PUSH0 PUSH2 0x3831 PUSH1 0xE DUP4 PUSH2 0x32F0 JUMP JUMPDEST SWAP2 POP PUSH2 0x383C DUP3 PUSH2 0x37FD JUMP JUMPDEST PUSH1 0x20 DUP3 ADD SWAP1 POP SWAP2 SWAP1 POP JUMP JUMPDEST PUSH0 PUSH1 0x20 DUP3 ADD SWAP1 POP DUP2 DUP2 SUB PUSH0 DUP4 ADD MSTORE PUSH2 0x385E DUP2 PUSH2 0x3825 JUMP JUMPDEST SWAP1 POP SWAP2 SWAP1 POP JUMP JUMPDEST PUSH0 PUSH1 0x60 DUP3 ADD SWAP1 POP PUSH2 0x3878 PUSH0 DUP4 ADD DUP7 PUSH2 0x30B1 JUMP JUMPDEST PUSH2 0x3885 PUSH1 0x20 DUP4 ADD DUP6 PUSH2 0x30B1 JUMP JUMPDEST PUSH2 0x3892 PUSH1 0x40 DUP4 ADD DUP5 PUSH2 0x30B1 JUMP JUMPDEST SWAP5 SWAP4 POP POP POP POP JUMP JUMPDEST PUSH32 0x446F206E6F742067697665206261636B20656E6F756768206D6F6E6579000000 PUSH0 DUP3 ADD MSTORE POP JUMP JUMPDEST PUSH0 PUSH2 0x38CE PUSH1 0x1D DUP4 PUSH2 0x32F0 JUMP JUMPDEST SWAP2 POP PUSH2 0x38D9 DUP3 PUSH2 0x389A JUMP JUMPDEST PUSH1 0x20 DUP3 ADD SWAP1 POP SWAP2 SWAP1 POP JUMP JUMPDEST PUSH0 PUSH1 0x20 DUP3 ADD SWAP1 POP DUP2 DUP2 SUB PUSH0 DUP4 ADD MSTORE PUSH2 0x38FB DUP2 PUSH2 0x38C2 JUMP JUMPDEST SWAP1 POP SWAP2 SWAP1 POP JUMP JUMPDEST PUSH32 0x496E76616C6964204C5020746F6B656E73000000000000000000000000000000 PUSH0 DUP3 ADD MSTORE POP JUMP JUMPDEST PUSH0 PUSH2 0x3936 PUSH1 0x11 DUP4 PUSH2 0x32F0 JUMP JUMPDEST SWAP2 POP PUSH2 0x3941 DUP3 PUSH2 0x3902 JUMP JUMPDEST PUSH1 0x20 DUP3 ADD SWAP1 POP SWAP2 SWAP1 POP JUMP JUMPDEST PUSH0 PUSH1 0x20 DUP3 ADD SWAP1 POP DUP2 DUP2 SUB PUSH0 DUP4 ADD MSTORE PUSH2 0x3963 DUP2 PUSH2 0x392A JUMP JUMPDEST SWAP1 POP SWAP2 SWAP1 POP JUMP JUMPDEST PUSH32 0x496E73756666696369656E74204C5020746F6B656E7300000000000000000000 PUSH0 DUP3 ADD MSTORE POP JUMP JUMPDEST PUSH0 PUSH2 0x399E PUSH1 0x16 DUP4 PUSH2 0x32F0 JUMP JUMPDEST SWAP2 POP PUSH2 0x39A9 DUP3 PUSH2 0x396A JUMP JUMPDEST PUSH1 0x20 DUP3 ADD SWAP1 POP SWAP2 SWAP1 POP JUMP JUMPDEST PUSH0 PUSH1 0x20 DUP3 ADD SWAP1 POP DUP2 DUP2 SUB PUSH0 DUP4 ADD MSTORE PUSH2 0x39CB DUP2 PUSH2 0x3992 JUMP JUMPDEST SWAP1 POP SWAP2 SWAP1 POP JUMP JUMPDEST PUSH32 0x496E76616C696420616D6F756E74730000000000000000000000000000000000 PUSH0 DUP3 ADD MSTORE POP JUMP JUMPDEST PUSH0 PUSH2 0x3A06 PUSH1 0xF DUP4 PUSH2 0x32F0 JUMP JUMPDEST SWAP2 POP PUSH2 0x3A11 DUP3 PUSH2 0x39D2 JUMP JUMPDEST PUSH1 0x20 DUP3 ADD SWAP1 POP SWAP2 SWAP1 POP JUMP JUMPDEST PUSH0 PUSH1 0x20 DUP3 ADD SWAP1 POP DUP2 DUP2 SUB PUSH0 DUP4 ADD MSTORE PUSH2 0x3A33 DUP2 PUSH2 0x39FA JUMP JUMPDEST SWAP1 POP SWAP2 SWAP1 POP JUMP JUMPDEST PUSH32 0x4F6E6C7920706F6F6C206F776E65722063616E2063616C6C2074686973206675 PUSH0 DUP3 ADD MSTORE PUSH32 0x6E6374696F6E0000000000000000000000000000000000000000000000000000 PUSH1 0x20 DUP3 ADD MSTORE POP JUMP JUMPDEST PUSH0 PUSH2 0x3A94 PUSH1 0x26 DUP4 PUSH2 0x32F0 JUMP JUMPDEST SWAP2 POP PUSH2 0x3A9F DUP3 PUSH2 0x3A3A JUMP JUMPDEST PUSH1 0x40 DUP3 ADD SWAP1 POP SWAP2 SWAP1 POP JUMP JUMPDEST PUSH0 PUSH1 0x20 DUP3 ADD SWAP1 POP DUP2 DUP2 SUB PUSH0 DUP4 ADD MSTORE PUSH2 0x3AC1 DUP2 PUSH2 0x3A88 JUMP JUMPDEST SWAP1 POP SWAP2 SWAP1 POP JUMP JUMPDEST PUSH32 0x496E76616C696420616464726573730000000000000000000000000000000000 PUSH0 DUP3 ADD MSTORE POP JUMP JUMPDEST PUSH0 PUSH2 0x3AFC PUSH1 0xF DUP4 PUSH2 0x32F0 JUMP JUMPDEST SWAP2 POP PUSH2 0x3B07 DUP3 PUSH2 0x3AC8 JUMP JUMPDEST PUSH1 0x20 DUP3 ADD SWAP1 POP SWAP2 SWAP1 POP JUMP JUMPDEST PUSH0 PUSH1 0x20 DUP3 ADD SWAP1 POP DUP2 DUP2 SUB PUSH0 DUP4 ADD MSTORE PUSH2 0x3B29 DUP2 PUSH2 0x3AF0 JUMP JUMPDEST SWAP1 POP SWAP2 SWAP1 POP JUMP JUMPDEST PUSH32 0x5072696365206D75737420626520706F73697469766500000000000000000000 PUSH0 DUP3 ADD MSTORE POP JUMP JUMPDEST PUSH0 PUSH2 0x3B64 PUSH1 0x16 DUP4 PUSH2 0x32F0 JUMP JUMPDEST SWAP2 POP PUSH2 0x3B6F DUP3 PUSH2 0x3B30 JUMP JUMPDEST PUSH1 0x20 DUP3 ADD SWAP1 POP SWAP2 SWAP1 POP JUMP JUMPDEST PUSH0 PUSH1 0x20 DUP3 ADD SWAP1 POP DUP2 DUP2 SUB PUSH0 DUP4 ADD MSTORE PUSH2 0x3B91 DUP2 PUSH2 0x3B58 JUMP JUMPDEST SWAP1 POP SWAP2 SWAP1 POP JUMP INVALID LOG2 PUSH5 0x6970667358 0x22 SLT KECCAK256 PUSH19 0x801AA0EE4B70C81913E4ED2987D284638C8D4 PUSH1 0x94 PUSH9 0x8826B5E36E85B2EB16 PUSH5 0x736F6C6343 STOP ADDMOD BYTE STOP CALLER "
				},
				"gasEstimates": {
					"creation": {
						"codeDepositCost": "3062000",
						"executionCost": "infinite",
						"totalCost": "infinite"
					},
					"external": {
						"FEE_DENOMINATOR()": "414",
						"FEE_RATE()": "371",
						"FLASH_SWAP_FEE_PER_THOUSAND()": "393",
						"GetTwapPrice()": "infinite",
						"MINIMUM_LIQUIDITY()": "370",
						"POOL_NAME()": "2471",
						"addLiquidity(uint256,uint256)": "infinite",
						"contract_type()": "2492",
						"cumulativePrice()": "2493",
						"cumulativeTime()": "2470",
						"emergencyWithdraw()": "infinite",
						"flashSwapTokenA(uint256,uint256,address)": "infinite",
						"flashSwapTokenB(uint256,uint256,address)": "infinite",
						"getAmountAOut(uint256)": "infinite",
						"getAmountBOut(uint256)": "infinite",
						"getExchangeRate()": "infinite",
						"getPoolInfo()": "infinite",
						"getUserLPBalance(address)": "2920",
						"lastPrice()": "2494",
						"lastTimestamp()": "2493",
						"lpTokenTotalSupply()": "2535",
						"poolOwner()": "2572",
						"pool_img_url()": "2515",
						"removeLiquidity(uint256)": "infinite",
						"swapAForB(uint256)": "infinite",
						"swapBForA(uint256)": "infinite",
						"tokenAAddress()": "2575",
						"tokenBAddress()": "2596",
						"transferOwnership(address)": "26981",
						"userLpToken(address)": "2891"
					},
					"internal": {
						"updatePrice()": "infinite"
					}
				},
				"methodIdentifiers": {
					"FEE_DENOMINATOR()": "d73792a9",
					"FEE_RATE()": "2d11c58a",
					"FLASH_SWAP_FEE_PER_THOUSAND()": "9de3f60a",
					"GetTwapPrice()": "2b7eb20c",
					"MINIMUM_LIQUIDITY()": "ba9a7a56",
					"POOL_NAME()": "0c131757",
					"addLiquidity(uint256,uint256)": "9cd441da",
					"contract_type()": "e1b1c90a",
					"cumulativePrice()": "4e12d676",
					"cumulativeTime()": "7632d96e",
					"emergencyWithdraw()": "db2e21bc",
					"flashSwapTokenA(uint256,uint256,address)": "28164b78",
					"flashSwapTokenB(uint256,uint256,address)": "df0b6ba3",
					"getAmountAOut(uint256)": "529692f3",
					"getAmountBOut(uint256)": "eb8680bc",
					"getExchangeRate()": "e6aa216c",
					"getPoolInfo()": "60246c88",
					"getUserLPBalance(address)": "06ebcc6d",
					"lastPrice()": "053f14da",
					"lastTimestamp()": "19d8ac61",
					"lpTokenTotalSupply()": "ff329565",
					"poolOwner()": "cf0b2270",
					"pool_img_url()": "ac93cc18",
					"removeLiquidity(uint256)": "9c8f9f23",
					"swapAForB(uint256)": "03102091",
					"swapBForA(uint256)": "e619a498",
					"tokenAAddress()": "7eb73012",
					"tokenBAddress()": "f8b70637",
					"transferOwnership(address)": "f2fde38b",
					"userLpToken(address)": "92526664"
				}
			},
			"storageLayout": {
				"storage": [
					{
						"astId": 52,
						"contract": "contracts/ammv2.sol:AMMV2",
						"label": "poolOwner",
						"offset": 0,
						"slot": "0",
						"type": "t_address"
					},
					{
						"astId": 54,
						"contract": "contracts/ammv2.sol:AMMV2",
						"label": "pool_img_url",
						"offset": 0,
						"slot": "1",
						"type": "t_uint256"
					},
					{
						"astId": 58,
						"contract": "contracts/ammv2.sol:AMMV2",
						"label": "userLpToken",
						"offset": 0,
						"slot": "2",
						"type": "t_mapping(t_address,t_uint256)"
					},
					{
						"astId": 60,
						"contract": "contracts/ammv2.sol:AMMV2",
						"label": "lpTokenTotalSupply",
						"offset": 0,
						"slot": "3",
						"type": "t_uint256"
					},
					{
						"astId": 62,
						"contract": "contracts/ammv2.sol:AMMV2",
						"label": "contract_type",
						"offset": 0,
						"slot": "4",
						"type": "t_uint256"
					},
					{
						"astId": 64,
						"contract": "contracts/ammv2.sol:AMMV2",
						"label": "tokenAAddress",
						"offset": 0,
						"slot": "5",
						"type": "t_address"
					},
					{
						"astId": 66,
						"contract": "contracts/ammv2.sol:AMMV2",
						"label": "tokenBAddress",
						"offset": 0,
						"slot": "6",
						"type": "t_address"
					},
					{
						"astId": 80,
						"contract": "contracts/ammv2.sol:AMMV2",
						"label": "POOL_NAME",
						"offset": 0,
						"slot": "7",
						"type": "t_uint256"
					},
					{
						"astId": 114,
						"contract": "contracts/ammv2.sol:AMMV2",
						"label": "lastPrice",
						"offset": 0,
						"slot": "8",
						"type": "t_uint256"
					},
					{
						"astId": 116,
						"contract": "contracts/ammv2.sol:AMMV2",
						"label": "lastTimestamp",
						"offset": 0,
						"slot": "9",
						"type": "t_uint256"
					},
					{
						"astId": 118,
						"contract": "contracts/ammv2.sol:AMMV2",
						"label": "cumulativePrice",
						"offset": 0,
						"slot": "10",
						"type": "t_uint256"
					},
					{
						"astId": 120,
						"contract": "contracts/ammv2.sol:AMMV2",
						"label": "cumulativeTime",
						"offset": 0,
						"slot": "11",
						"type": "t_uint256"
					}
				],
				"types": {
					"t_address": {
						"encoding": "inplace",
						"label": "address",
						"numberOfBytes": "20"
					},
					"t_mapping(t_address,t_uint256)": {
						"encoding": "mapping",
						"key": "t_address",
						"label": "mapping(address => uint256)",
						"numberOfBytes": "32",
						"value": "t_uint256"
					},
					"t_uint256": {
						"encoding": "inplace",
						"label": "uint256",
						"numberOfBytes": "32"
					}
				}
			},
			"userdoc": {
				"kind": "user",
				"methods": {},
				"version": 1
			}
		}
	}
}