{
	"contracts/ecvrf/ECVRFRelay.sol": {
		"ECVRFRelay": {
			"abi": [
				{
					"inputs": [
						{
							"internalType": "address",
							"name": "_relayer",
							"type": "address"
						},
						{
							"internalType": "address",
							"name": "_verifier",
							"type": "address"
						}
					],
					"stateMutability": "nonpayable",
					"type": "constructor"
				},
				{
					"anonymous": false,
					"inputs": [
						{
							"indexed": true,
							"internalType": "address",
							"name": "room",
							"type": "address"
						},
						{
							"indexed": true,
							"internalType": "uint256",
							"name": "gameId",
							"type": "uint256"
						},
						{
							"indexed": false,
							"internalType": "uint256",
							"name": "randomWord",
							"type": "uint256"
						}
					],
					"name": "RandomnessSubmitted",
					"type": "event"
				},
				{
					"inputs": [],
					"name": "relayer",
					"outputs": [
						{
							"internalType": "address",
							"name": "",
							"type": "address"
						}
					],
					"stateMutability": "view",
					"type": "function"
				},
				{
					"inputs": [
						{
							"internalType": "address",
							"name": "room",
							"type": "address"
						},
						{
							"internalType": "bytes",
							"name": "alpha",
							"type": "bytes"
						},
						{
							"internalType": "bytes",
							"name": "proof",
							"type": "bytes"
						},
						{
							"internalType": "uint256",
							"name": "randomWord",
							"type": "uint256"
						}
					],
					"name": "submitRandomWord",
					"outputs": [],
					"stateMutability": "nonpayable",
					"type": "function"
				},
				{
					"inputs": [],
					"name": "verifier",
					"outputs": [
						{
							"internalType": "contract IECVRFVerifier",
							"name": "",
							"type": "address"
						}
					],
					"stateMutability": "view",
					"type": "function"
				}
			],
			"devdoc": {
				"details": "链下用 brokerchain-academic/shard/vrf 同类算法（如 go-ecvrf Prove）生成 randomWord 与 proof，      再由此合约调用房间。verifier 为 0 时仅信任 relayer 地址（学术网/测试常用）；生产可接入真实 verify。",
				"kind": "dev",
				"methods": {
					"submitRandomWord(address,bytes,bytes,uint256)": {
						"params": {
							"alpha": "必须与房间内约定的 abi.encode(gameId, room) 一致（与链下 Prove 的 message 一致）",
							"proof": "Witnet/SECP256K1-SHA256-TAI 标准 81 字节：gamma_prefix+gamma_x(32)+c(16)+s(32)；若 verifier 为 Naive 则仅长度检查",
							"randomWord": "真实验证下为 uint256(gammaToHash)；与链下 Prove 输出一致"
						}
					}
				},
				"title": "ECVRFRelay",
				"version": 1
			},
			"evm": {
				"assembly": "    /* \"contracts/ecvrf/ECVRFRelay.sol\":522:1876  contract ECVRFRelay {... */\n  0xc0\n  jumpi(tag_6, callvalue)\n  0x1f\n  bytecodeSize\n  codesize\n  dup2\n  swap1\n  sub\n  swap2\n  dup3\n  add\n  not(0x1f)\n  and\n  dup4\n  add\n  swap2\n  sub(shl(0x40, 0x01), 0x01)\n  dup4\n  gt\n  dup5\n  dup5\n  lt\n  or\n  tag_4\n  jumpi\n  dup1\n  dup5\n  swap3\n  0x40\n  swap5\n  dup6\n  mstore\n  dup4\n  codecopy\n  dup2\n  add\n  sub\n  slt\n  tag_6\n  jumpi\n  tag_8\n  0x20\n  tag_9\n  dup4\n  tag_1\n  jump\t// in\ntag_9:\n  swap3\n  add\n  tag_1\n  jump\t// in\ntag_8:\n  swap1\n  sub(shl(0xa0, 0x01), 0x01)\n  dup2\n  and\n    /* \"contracts/ecvrf/ECVRFRelay.sol\":798:820  _relayer != address(0) */\n  iszero\n    /* \"contracts/ecvrf/ECVRFRelay.sol\":522:1876  contract ECVRFRelay {... */\n  tag_10\n  jumpi\n    /* \"contracts/ecvrf/ECVRFRelay.sol\":843:861  relayer = _relayer */\n  0x80\n  mstore\n  sub(shl(0xa0, 0x01), 0x01)\n    /* \"contracts/ecvrf/ECVRFRelay.sol\":522:1876  contract ECVRFRelay {... */\n  and\n  0xa0\n    /* \"contracts/ecvrf/ECVRFRelay.sol\":871:907  verifier = IECVRFVerifier(_verifier) */\n  mstore\n    /* \"contracts/ecvrf/ECVRFRelay.sol\":522:1876  contract ECVRFRelay {... */\n  mload(0x40)\n  dataSize(sub_0)\n  swap1\n  dup2\n  dataOffset(sub_0)\n  dup3\n  codecopy\n    /* \"contracts/ecvrf/ECVRFRelay.sol\":843:861  relayer = _relayer */\n  0x80\n    /* \"contracts/ecvrf/ECVRFRelay.sol\":522:1876  contract ECVRFRelay {... */\n  mload\n  dup2\n  assignImmutable(\"0x277ab82e5a4641341820a4a2933a62c1de997e42e92548657ae21b3728d580fe\")\n    /* \"contracts/ecvrf/ECVRFRelay.sol\":871:907  verifier = IECVRFVerifier(_verifier) */\n  0xa0\n    /* \"contracts/ecvrf/ECVRFRelay.sol\":522:1876  contract ECVRFRelay {... */\n  mload\n  dup2\n  assignImmutable(\"0x939eb54753ed0cc7e2272bfb34cbe098308c93936ed54d79078f76ade0b2e789\")\n  return\ntag_10:\n  mload(0x40)\n  shl(0xe5, 0x461bcd)\n  dup2\n  mstore\n  0x20\n  0x04\n  dup3\n  add\n  mstore\n  0x08\n  0x24\n  dup3\n  add\n  mstore\n  shl(0xc1, 0x10b932b630bcb2b9)\n  0x44\n  dup3\n  add\n  mstore\n  0x64\n  swap1\n  revert\ntag_6:\n  0x00\n  dup1\n  revert\ntag_4:\n  mstore(0x00, shl(0xe0, 0x4e487b71))\n  mstore(0x04, 0x41)\n  revert(0x00, 0x24)\ntag_1:\n  mload\n  swap1\n  sub(shl(0xa0, 0x01), 0x01)\n  dup3\n  and\n  dup3\n  sub\n  tag_6\n  jumpi\n  jump\t// out\nstop\n\nsub_0: assembly {\n        /* \"contracts/ecvrf/ECVRFRelay.sol\":522:1876  contract ECVRFRelay {... */\n      0x80\n      dup1\n      0x40\n      mstore\n      jumpi(tag_4, iszero(lt(calldatasize, 0x04)))\n      0x00\n      dup1\n      revert\n    tag_4:\n      0x00\n      swap1\n      shr(0xe0, calldataload(0x00))\n      swap1\n      dup2\n      0x2b7ac3f3\n      eq\n      tag_6\n      jumpi\n      pop\n      dup1\n      0x8406c079\n      eq\n      tag_8\n      jumpi\n      0xb328bfa5\n      eq\n      tag_10\n      jumpi\n      0x00\n      dup1\n      revert\n    tag_10:\n      jumpi(tag_41, callvalue)\n      jumpi(tag_41, slt(add(not(0x03), calldatasize), 0x80))\n      calldataload(0x04)\n      sub(shl(0xa0, 0x01), 0x01)\n      dup2\n      and\n      swap1\n      dup2\n      swap1\n      sub\n      tag_41\n      jumpi\n      calldataload(0x24)\n      0xffffffffffffffff\n      dup2\n      gt\n      tag_41\n      jumpi\n      tag_20\n      swap1\n      calldatasize\n      swap1\n      0x04\n      add\n      tag_1\n      jump\t// in\n    tag_20:\n      swap2\n      swap1\n      calldataload(0x44)\n      0xffffffffffffffff\n      dup2\n      gt\n      tag_41\n      jumpi\n      tag_23\n      swap1\n      calldatasize\n      swap1\n      0x04\n      add\n      tag_1\n      jump\t// in\n    tag_23:\n      calldataload(0x64)\n      swap3\n      swap2\n        /* \"contracts/ecvrf/ECVRFRelay.sol\":1435:1443  verifier */\n      immutable(\"0x939eb54753ed0cc7e2272bfb34cbe098308c93936ed54d79078f76ade0b2e789\")\n      sub(shl(0xa0, 0x01), 0x01)\n        /* \"contracts/ecvrf/ECVRFRelay.sol\":522:1876  contract ECVRFRelay {... */\n      and\n      swap2\n      swap1\n        /* \"contracts/ecvrf/ECVRFRelay.sol\":1427:1458  address(verifier) == address(0) */\n      dup3\n        /* \"contracts/ecvrf/ECVRFRelay.sol\":522:1876  contract ECVRFRelay {... */\n      tag_24\n      jumpi\n      pop\n      pop\n      pop\n        /* \"contracts/ecvrf/ECVRFRelay.sol\":1496:1503  relayer */\n      immutable(\"0x277ab82e5a4641341820a4a2933a62c1de997e42e92548657ae21b3728d580fe\")\n      sub(shl(0xa0, 0x01), 0x01)\n        /* \"contracts/ecvrf/ECVRFRelay.sol\":522:1876  contract ECVRFRelay {... */\n      and\n        /* \"contracts/ecvrf/ECVRFRelay.sol\":1482:1492  msg.sender */\n      caller\n        /* \"contracts/ecvrf/ECVRFRelay.sol\":1482:1503  msg.sender == relayer */\n      sub\n        /* \"contracts/ecvrf/ECVRFRelay.sol\":522:1876  contract ECVRFRelay {... */\n      tag_26\n      jumpi\n        /* \"contracts/ecvrf/ECVRFRelay.sol\":1423:1618  if (address(verifier) == address(0)) {... */\n    tag_28:\n        /* \"contracts/ecvrf/ECVRFRelay.sol\":522:1876  contract ECVRFRelay {... */\n      mload(0x40)\n      shl(0xe0, 0xd7c81b55)\n        /* \"contracts/ecvrf/ECVRFRelay.sol\":1642:1671  IGameRoomEcvrf(room).gameId() */\n      dup2\n      mstore\n        /* \"contracts/ecvrf/ECVRFRelay.sol\":522:1876  contract ECVRFRelay {... */\n      swap4\n      0x20\n      dup6\n      0x04\n      dup2\n        /* \"contracts/ecvrf/ECVRFRelay.sol\":1642:1671  IGameRoomEcvrf(room).gameId() */\n      dup8\n      gas\n      staticcall\n      swap5\n      dup6\n      iszero\n      tag_43\n      jumpi\n        /* \"contracts/ecvrf/ECVRFRelay.sol\":522:1876  contract ECVRFRelay {... */\n      0x00\n        /* \"contracts/ecvrf/ECVRFRelay.sol\":1642:1671  IGameRoomEcvrf(room).gameId() */\n      swap6\n      tag_31\n      jumpi\n        /* \"contracts/ecvrf/ECVRFRelay.sol\":1423:1618  if (address(verifier) == address(0)) {... */\n    tag_32:\n        /* \"contracts/ecvrf/ECVRFRelay.sol\":522:1876  contract ECVRFRelay {... */\n      pop\n      0xffffffffffffffff\n      dup2\n      gt\n      tag_33\n      jumpi\n      mload(0x40)\n      swap1\n      tag_35\n      0x1f\n      dup3\n      add\n      not(0x1f)\n      and\n      0x20\n      add\n      dup4\n      tag_2\n      jump\t// in\n    tag_35:\n      dup1\n      dup3\n      mstore\n      0x20\n      dup3\n      add\n      swap3\n      calldatasize\n      dup3\n      dup3\n      add\n      gt\n      tag_41\n      jumpi\n      dup2\n      0x00\n      swap3\n      0x20\n      swap3\n      dup7\n      calldatacopy\n      dup4\n      add\n      add\n      mstore\n      mload\n        /* \"contracts/ecvrf/ECVRFRelay.sol\":1689:1705  keccak256(alpha) */\n      swap1\n      keccak256\n        /* \"contracts/ecvrf/ECVRFRelay.sol\":522:1876  contract ECVRFRelay {... */\n      mload(0x40)\n      0x20\n        /* \"contracts/ecvrf/ECVRFRelay.sol\":1719:1740  abi.encode(gid, room) */\n      dup2\n      add\n        /* \"contracts/ecvrf/ECVRFRelay.sol\":522:1876  contract ECVRFRelay {... */\n      swap1\n      dup6\n      dup3\n      mstore\n      dup5\n      0x40\n      dup3\n      add\n      mstore\n      0x40\n        /* \"contracts/ecvrf/ECVRFRelay.sol\":1719:1740  abi.encode(gid, room) */\n      dup2\n      mstore\n      tag_38\n        /* \"contracts/ecvrf/ECVRFRelay.sol\":522:1876  contract ECVRFRelay {... */\n      0x60\n        /* \"contracts/ecvrf/ECVRFRelay.sol\":1719:1740  abi.encode(gid, room) */\n      dup3\n      tag_2\n      jump\t// in\n    tag_38:\n        /* \"contracts/ecvrf/ECVRFRelay.sol\":522:1876  contract ECVRFRelay {... */\n      mload\n        /* \"contracts/ecvrf/ECVRFRelay.sol\":1709:1741  keccak256(abi.encode(gid, room)) */\n      swap1\n      keccak256\n        /* \"contracts/ecvrf/ECVRFRelay.sol\":1689:1741  keccak256(alpha) == keccak256(abi.encode(gid, room)) */\n      sub\n        /* \"contracts/ecvrf/ECVRFRelay.sol\":522:1876  contract ECVRFRelay {... */\n      tag_39\n      jumpi\n        /* \"contracts/ecvrf/ECVRFRelay.sol\":1763:1810  IGameRoomEcvrf(room).applyECVRFSeed(randomWord) */\n      dup2\n      extcodesize\n      iszero\n      tag_41\n      jumpi\n        /* \"contracts/ecvrf/ECVRFRelay.sol\":522:1876  contract ECVRFRelay {... */\n      mload(0x40)\n      shl(0xe0, 0x31db047b)\n        /* \"contracts/ecvrf/ECVRFRelay.sol\":1763:1810  IGameRoomEcvrf(room).applyECVRFSeed(randomWord) */\n      dup2\n      mstore\n        /* \"contracts/ecvrf/ECVRFRelay.sol\":522:1876  contract ECVRFRelay {... */\n      0x04\n        /* \"contracts/ecvrf/ECVRFRelay.sol\":1763:1810  IGameRoomEcvrf(room).applyECVRFSeed(randomWord) */\n      dup2\n      add\n        /* \"contracts/ecvrf/ECVRFRelay.sol\":522:1876  contract ECVRFRelay {... */\n      dup3\n      swap1\n      mstore\n      0x00\n      dup2\n      0x24\n      dup2\n      dup4\n        /* \"contracts/ecvrf/ECVRFRelay.sol\":1763:1810  IGameRoomEcvrf(room).applyECVRFSeed(randomWord) */\n      dup8\n      gas\n      call\n      dup1\n      iszero\n      tag_43\n      jumpi\n      tag_45\n      jumpi\n        /* \"contracts/ecvrf/ECVRFRelay.sol\":1423:1618  if (address(verifier) == address(0)) {... */\n    tag_46:\n        /* \"contracts/ecvrf/ECVRFRelay.sol\":522:1876  contract ECVRFRelay {... */\n      pop\n      0x20\n        /* \"contracts/ecvrf/ECVRFRelay.sol\":1825:1867  RandomnessSubmitted(room, gid, randomWord) */\n      0x81b67df6b22a6a37606edc54f9d868482373eae7d6b5e038609843deeb983c95\n        /* \"contracts/ecvrf/ECVRFRelay.sol\":522:1876  contract ECVRFRelay {... */\n      swap2\n      mload(0x40)\n      swap1\n      dup2\n      mstore\n        /* \"contracts/ecvrf/ECVRFRelay.sol\":1825:1867  RandomnessSubmitted(room, gid, randomWord) */\n      log3\n        /* \"contracts/ecvrf/ECVRFRelay.sol\":522:1876  contract ECVRFRelay {... */\n      dup1\n      return\n        /* \"contracts/ecvrf/ECVRFRelay.sol\":1763:1810  IGameRoomEcvrf(room).applyECVRFSeed(randomWord) */\n    tag_45:\n      tag_47\n      swap2\n      swap5\n      pop\n        /* \"contracts/ecvrf/ECVRFRelay.sol\":522:1876  contract ECVRFRelay {... */\n      0x00\n        /* \"contracts/ecvrf/ECVRFRelay.sol\":1763:1810  IGameRoomEcvrf(room).applyECVRFSeed(randomWord) */\n      swap1\n      tag_2\n      jump\t// in\n    tag_47:\n        /* \"contracts/ecvrf/ECVRFRelay.sol\":522:1876  contract ECVRFRelay {... */\n      0x00\n      swap3\n      0x20\n        /* \"contracts/ecvrf/ECVRFRelay.sol\":1763:1810  IGameRoomEcvrf(room).applyECVRFSeed(randomWord) */\n      jump(tag_46)\n    tag_43:\n        /* \"contracts/ecvrf/ECVRFRelay.sol\":522:1876  contract ECVRFRelay {... */\n      mload(0x40)\n      returndatasize\n      0x00\n      dup3\n      returndatacopy\n      returndatasize\n      swap1\n      revert\n        /* \"contracts/ecvrf/ECVRFRelay.sol\":1763:1810  IGameRoomEcvrf(room).applyECVRFSeed(randomWord) */\n    tag_41:\n        /* \"contracts/ecvrf/ECVRFRelay.sol\":522:1876  contract ECVRFRelay {... */\n      0x00\n      dup1\n      revert\n    tag_39:\n      mload(0x40)\n      shl(0xe5, 0x461bcd)\n      dup2\n      mstore\n      0x20\n      0x04\n      dup3\n      add\n      mstore\n      0x06\n      0x24\n      dup3\n      add\n      mstore\n      shl(0xd0, 0x21616c706861)\n      0x44\n      dup3\n      add\n      mstore\n      0x64\n      swap1\n      revert\n    tag_33:\n      mstore(0x00, shl(0xe0, 0x4e487b71))\n      mstore(0x04, 0x41)\n      revert(0x00, 0x24)\n        /* \"contracts/ecvrf/ECVRFRelay.sol\":1642:1671  IGameRoomEcvrf(room).gameId() */\n    tag_31:\n      swap1\n      swap5\n      pop\n        /* \"contracts/ecvrf/ECVRFRelay.sol\":522:1876  contract ECVRFRelay {... */\n      0x20\n        /* \"contracts/ecvrf/ECVRFRelay.sol\":1642:1671  IGameRoomEcvrf(room).gameId() */\n      dup2\n      returndatasize\n        /* \"contracts/ecvrf/ECVRFRelay.sol\":522:1876  contract ECVRFRelay {... */\n      0x20\n        /* \"contracts/ecvrf/ECVRFRelay.sol\":1642:1671  IGameRoomEcvrf(room).gameId() */\n      gt\n      tag_48\n      jumpi\n    tag_49:\n      dup2\n      tag_50\n        /* \"contracts/ecvrf/ECVRFRelay.sol\":522:1876  contract ECVRFRelay {... */\n      0x20\n        /* \"contracts/ecvrf/ECVRFRelay.sol\":1642:1671  IGameRoomEcvrf(room).gameId() */\n      swap4\n      dup4\n      tag_2\n      jump\t// in\n    tag_50:\n      dup2\n      add\n        /* \"contracts/ecvrf/ECVRFRelay.sol\":522:1876  contract ECVRFRelay {... */\n      sub\n      slt\n      tag_41\n      jumpi\n      mload\n        /* \"contracts/ecvrf/ECVRFRelay.sol\":1642:1671  IGameRoomEcvrf(room).gameId() */\n      swap4\n      0x00\n      jump(tag_32)\n    tag_48:\n      returndatasize\n      swap2\n      pop\n      jump(tag_49)\n        /* \"contracts/ecvrf/ECVRFRelay.sol\":522:1876  contract ECVRFRelay {... */\n    tag_26:\n      mload(0x40)\n      shl(0xe5, 0x461bcd)\n      dup2\n      mstore\n      0x20\n      0x04\n      dup3\n      add\n      mstore\n      0x08\n      0x24\n      dup3\n      add\n      mstore\n      shl(0xc1, 0x10b932b630bcb2b9)\n      0x44\n      dup3\n      add\n      mstore\n      0x64\n      swap1\n      revert\n        /* \"contracts/ecvrf/ECVRFRelay.sol\":1423:1618  if (address(verifier) == address(0)) {... */\n    tag_24:\n        /* \"contracts/ecvrf/ECVRFRelay.sol\":522:1876  contract ECVRFRelay {... */\n      mload(0x40)\n      shl(0xe1, 0x26fc8505)\n        /* \"contracts/ecvrf/ECVRFRelay.sol\":1555:1596  verifier.verify(alpha, proof, randomWord) */\n      dup2\n      mstore\n        /* \"contracts/ecvrf/ECVRFRelay.sol\":522:1876  contract ECVRFRelay {... */\n      0x60\n      0x04\n        /* \"contracts/ecvrf/ECVRFRelay.sol\":1555:1596  verifier.verify(alpha, proof, randomWord) */\n      dup3\n      add\n        /* \"contracts/ecvrf/ECVRFRelay.sol\":522:1876  contract ECVRFRelay {... */\n      mstore\n      swap3\n      0x20\n      swap3\n      dup5\n      swap3\n      dup4\n      swap2\n      dup3\n      swap2\n      tag_53\n      swap2\n      tag_54\n      0x64\n      dup6\n      add\n      dup15\n      dup13\n      tag_3\n      jump\t// in\n    tag_54:\n      dup5\n      dup2\n      sub\n      not(0x03)\n      add\n      0x24\n      dup7\n      add\n      mstore\n      swap2\n      tag_3\n      jump\t// in\n    tag_53:\n      dup9\n      0x44\n      dup4\n      add\n      mstore\n        /* \"contracts/ecvrf/ECVRFRelay.sol\":1555:1596  verifier.verify(alpha, proof, randomWord) */\n      sub\n      swap2\n      gas\n      staticcall\n      swap1\n      dup2\n      iszero\n      tag_43\n      jumpi\n        /* \"contracts/ecvrf/ECVRFRelay.sol\":522:1876  contract ECVRFRelay {... */\n      0x00\n        /* \"contracts/ecvrf/ECVRFRelay.sol\":1555:1596  verifier.verify(alpha, proof, randomWord) */\n      swap2\n      tag_57\n      jumpi\n        /* \"contracts/ecvrf/ECVRFRelay.sol\":1423:1618  if (address(verifier) == address(0)) {... */\n    tag_58:\n        /* \"contracts/ecvrf/ECVRFRelay.sol\":522:1876  contract ECVRFRelay {... */\n      pop\n        /* \"contracts/ecvrf/ECVRFRelay.sol\":1423:1618  if (address(verifier) == address(0)) {... */\n      tag_28\n        /* \"contracts/ecvrf/ECVRFRelay.sol\":522:1876  contract ECVRFRelay {... */\n      jumpi\n      mload(0x40)\n      shl(0xe5, 0x461bcd)\n      dup2\n      mstore\n      0x20\n      0x04\n      dup3\n      add\n      mstore\n      0x06\n      0x24\n      dup3\n      add\n      mstore\n      shl(0xd1, 0x10b2b1bb3933)\n      0x44\n      dup3\n      add\n      mstore\n      0x64\n      swap1\n      revert\n        /* \"contracts/ecvrf/ECVRFRelay.sol\":1555:1596  verifier.verify(alpha, proof, randomWord) */\n    tag_57:\n      swap1\n      pop\n        /* \"contracts/ecvrf/ECVRFRelay.sol\":522:1876  contract ECVRFRelay {... */\n      0x20\n        /* \"contracts/ecvrf/ECVRFRelay.sol\":1555:1596  verifier.verify(alpha, proof, randomWord) */\n      dup2\n      returndatasize\n        /* \"contracts/ecvrf/ECVRFRelay.sol\":522:1876  contract ECVRFRelay {... */\n      0x20\n        /* \"contracts/ecvrf/ECVRFRelay.sol\":1555:1596  verifier.verify(alpha, proof, randomWord) */\n      gt\n      tag_61\n      jumpi\n    tag_62:\n      dup2\n      tag_63\n        /* \"contracts/ecvrf/ECVRFRelay.sol\":522:1876  contract ECVRFRelay {... */\n      0x20\n        /* \"contracts/ecvrf/ECVRFRelay.sol\":1555:1596  verifier.verify(alpha, proof, randomWord) */\n      swap4\n      dup4\n      tag_2\n      jump\t// in\n    tag_63:\n      dup2\n      add\n        /* \"contracts/ecvrf/ECVRFRelay.sol\":522:1876  contract ECVRFRelay {... */\n      sub\n      slt\n      tag_41\n      jumpi\n      mload\n      dup1\n      iszero\n      iszero\n      dup2\n      sub\n      tag_41\n      jumpi\n        /* \"contracts/ecvrf/ECVRFRelay.sol\":1555:1596  verifier.verify(alpha, proof, randomWord) */\n      0x00\n      jump(tag_58)\n    tag_61:\n      returndatasize\n      swap2\n      pop\n      jump(tag_62)\n        /* \"contracts/ecvrf/ECVRFRelay.sol\":522:1876  contract ECVRFRelay {... */\n    tag_8:\n      jumpi(tag_41, callvalue)\n      jumpi(tag_41, slt(add(not(0x03), calldatasize), 0x00))\n      mload(0x40)\n        /* \"contracts/ecvrf/ECVRFRelay.sol\":548:580  address public immutable relayer */\n      immutable(\"0x277ab82e5a4641341820a4a2933a62c1de997e42e92548657ae21b3728d580fe\")\n      sub(shl(0xa0, 0x01), 0x01)\n        /* \"contracts/ecvrf/ECVRFRelay.sol\":522:1876  contract ECVRFRelay {... */\n      and\n      dup2\n      mstore\n      0x20\n      swap1\n      return\n    tag_6:\n      jumpi(tag_41, callvalue)\n      jumpi(tag_41, slt(add(not(0x03), calldatasize), 0x00))\n        /* \"contracts/ecvrf/ECVRFRelay.sol\":586:626  IECVRFVerifier public immutable verifier */\n      immutable(\"0x939eb54753ed0cc7e2272bfb34cbe098308c93936ed54d79078f76ade0b2e789\")\n      sub(shl(0xa0, 0x01), 0x01)\n        /* \"contracts/ecvrf/ECVRFRelay.sol\":522:1876  contract ECVRFRelay {... */\n      and\n      dup2\n      mstore\n      0x20\n      swap1\n      return\n    tag_1:\n      swap2\n      dup2\n      0x1f\n      dup5\n      add\n      slt\n      iszero\n      tag_41\n      jumpi\n      dup3\n      calldataload\n      swap2\n      0xffffffffffffffff\n      dup4\n      gt\n      tag_41\n      jumpi\n      0x20\n      dup4\n      dup2\n      dup7\n      add\n      swap6\n      add\n      add\n      gt\n      tag_41\n      jumpi\n      jump\t// out\n    tag_2:\n      swap1\n      0x1f\n      dup1\n      not\n      swap2\n      add\n      and\n      dup2\n      add\n      swap1\n      dup2\n      lt\n      0xffffffffffffffff\n      dup3\n      gt\n      or\n      tag_33\n      jumpi\n      0x40\n      mstore\n      jump\t// out\n    tag_3:\n      swap1\n      dup1\n      0x20\n      swap4\n      swap3\n      dup2\n      dup5\n      mstore\n      dup5\n      dup5\n      add\n      calldatacopy\n      0x00\n      dup3\n      dup3\n      add\n      dup5\n      add\n      mstore\n      0x1f\n      add\n      not(0x1f)\n      and\n      add\n      add\n      swap1\n      jump\t// out\n\n    auxdata: 0xa26469706673582212206ea4fece699a017609a3f735a92e35994d553d5ec88708222d7154f2f0dbb83264736f6c634300081a0033\n}\n",
				"bytecode": {
					"linkReferences": {},
					"object": "60c0346100ce57601f6105bd38819003918201601f19168301916001600160401b038311848410176100d25780849260409485528339810103126100ce57610052602061004b836100e6565b92016100e6565b906001600160a01b0381161561009e576080526001600160a01b031660a0526040516104c290816100fb823960805181818160e201526103ac015260a05181818160ae01526103ed0152f35b60405162461bcd60e51b815260206004820152600860248201526710b932b630bcb2b960c11b6044820152606490fd5b5f80fd5b634e487b7160e01b5f52604160045260245ffd5b51906001600160a01b03821682036100ce5756fe6080806040526004361015610012575f80fd5b5f905f3560e01c9081632b7ac3f3146103db575080638406c079146103975763b328bfa51461003f575f80fd5b34610225576080366003190112610225576004356001600160a01b038116908190036102255760243567ffffffffffffffff81116102255761008590369060040161041c565b919060443567ffffffffffffffff8111610225576100a790369060040161041c565b60643592917f00000000000000000000000000000000000000000000000000000000000000006001600160a01b03169190826102cf575050507f00000000000000000000000000000000000000000000000000000000000000006001600160a01b0316330361029f575b60405163d7c81b5560e01b815293602085600481875afa94851561021a575f9561026b575b5067ffffffffffffffff8111610257576040519061015e601f8201601f19166020018361044a565b8082526020820192368282011161022557815f9260209286378301015251902060405160208101908582528460408201526040815261019e60608261044a565b5190200361022957813b15610225576040516331db047b60e01b8152600481018290525f8160248183875af1801561021a57610204575b5060207f81b67df6b22a6a37606edc54f9d868482373eae7d6b5e038609843deeb983c9591604051908152a380f35b6102119194505f9061044a565b5f9260206101d5565b6040513d5f823e3d90fd5b5f80fd5b60405162461bcd60e51b815260206004820152600660248201526521616c70686160d01b6044820152606490fd5b634e487b7160e01b5f52604160045260245ffd5b9094506020813d602011610297575b816102876020938361044a565b810103126102255751935f610136565b3d915061027a565b60405162461bcd60e51b815260206004820152600860248201526710b932b630bcb2b960c11b6044820152606490fd5b6040516326fc850560e11b81526060600482015292602092849283918291610311916102ff606485018e8c61046c565b8481036003190160248601529161046c565b88604483015203915afa90811561021a575f9161035c575b506101115760405162461bcd60e51b815260206004820152600660248201526510b2b1bb393360d11b6044820152606490fd5b90506020813d60201161038f575b816103776020938361044a565b8101031261022557518015158103610225575f610329565b3d915061036a565b34610225575f366003190112610225576040517f00000000000000000000000000000000000000000000000000000000000000006001600160a01b03168152602090f35b34610225575f366003190112610225577f00000000000000000000000000000000000000000000000000000000000000006001600160a01b03168152602090f35b9181601f840112156102255782359167ffffffffffffffff8311610225576020838186019501011161022557565b90601f8019910116810190811067ffffffffffffffff82111761025757604052565b908060209392818452848401375f828201840152601f01601f191601019056fea26469706673582212206ea4fece699a017609a3f735a92e35994d553d5ec88708222d7154f2f0dbb83264736f6c634300081a0033",
					"opcodes": "PUSH1 0xC0 CALLVALUE PUSH2 0xCE JUMPI PUSH1 0x1F PUSH2 0x5BD CODESIZE DUP2 SWAP1 SUB SWAP2 DUP3 ADD PUSH1 0x1F NOT AND DUP4 ADD SWAP2 PUSH1 0x1 PUSH1 0x1 PUSH1 0x40 SHL SUB DUP4 GT DUP5 DUP5 LT OR PUSH2 0xD2 JUMPI DUP1 DUP5 SWAP3 PUSH1 0x40 SWAP5 DUP6 MSTORE DUP4 CODECOPY DUP2 ADD SUB SLT PUSH2 0xCE JUMPI PUSH2 0x52 PUSH1 0x20 PUSH2 0x4B DUP4 PUSH2 0xE6 JUMP JUMPDEST SWAP3 ADD PUSH2 0xE6 JUMP JUMPDEST SWAP1 PUSH1 0x1 PUSH1 0x1 PUSH1 0xA0 SHL SUB DUP2 AND ISZERO PUSH2 0x9E JUMPI PUSH1 0x80 MSTORE PUSH1 0x1 PUSH1 0x1 PUSH1 0xA0 SHL SUB AND PUSH1 0xA0 MSTORE PUSH1 0x40 MLOAD PUSH2 0x4C2 SWAP1 DUP2 PUSH2 0xFB DUP3 CODECOPY PUSH1 0x80 MLOAD DUP2 DUP2 DUP2 PUSH1 0xE2 ADD MSTORE PUSH2 0x3AC ADD MSTORE PUSH1 0xA0 MLOAD DUP2 DUP2 DUP2 PUSH1 0xAE ADD MSTORE PUSH2 0x3ED ADD MSTORE RETURN JUMPDEST PUSH1 0x40 MLOAD PUSH3 0x461BCD PUSH1 0xE5 SHL DUP2 MSTORE PUSH1 0x20 PUSH1 0x4 DUP3 ADD MSTORE PUSH1 0x8 PUSH1 0x24 DUP3 ADD MSTORE PUSH8 0x10B932B630BCB2B9 PUSH1 0xC1 SHL PUSH1 0x44 DUP3 ADD MSTORE PUSH1 0x64 SWAP1 REVERT JUMPDEST PUSH0 DUP1 REVERT JUMPDEST PUSH4 0x4E487B71 PUSH1 0xE0 SHL PUSH0 MSTORE PUSH1 0x41 PUSH1 0x4 MSTORE PUSH1 0x24 PUSH0 REVERT JUMPDEST MLOAD SWAP1 PUSH1 0x1 PUSH1 0x1 PUSH1 0xA0 SHL SUB DUP3 AND DUP3 SUB PUSH2 0xCE JUMPI JUMP INVALID PUSH1 0x80 DUP1 PUSH1 0x40 MSTORE PUSH1 0x4 CALLDATASIZE LT ISZERO PUSH2 0x12 JUMPI PUSH0 DUP1 REVERT JUMPDEST PUSH0 SWAP1 PUSH0 CALLDATALOAD PUSH1 0xE0 SHR SWAP1 DUP2 PUSH4 0x2B7AC3F3 EQ PUSH2 0x3DB JUMPI POP DUP1 PUSH4 0x8406C079 EQ PUSH2 0x397 JUMPI PUSH4 0xB328BFA5 EQ PUSH2 0x3F JUMPI PUSH0 DUP1 REVERT JUMPDEST CALLVALUE PUSH2 0x225 JUMPI PUSH1 0x80 CALLDATASIZE PUSH1 0x3 NOT ADD SLT PUSH2 0x225 JUMPI PUSH1 0x4 CALLDATALOAD PUSH1 0x1 PUSH1 0x1 PUSH1 0xA0 SHL SUB DUP2 AND SWAP1 DUP2 SWAP1 SUB PUSH2 0x225 JUMPI PUSH1 0x24 CALLDATALOAD PUSH8 0xFFFFFFFFFFFFFFFF DUP2 GT PUSH2 0x225 JUMPI PUSH2 0x85 SWAP1 CALLDATASIZE SWAP1 PUSH1 0x4 ADD PUSH2 0x41C JUMP JUMPDEST SWAP2 SWAP1 PUSH1 0x44 CALLDATALOAD PUSH8 0xFFFFFFFFFFFFFFFF DUP2 GT PUSH2 0x225 JUMPI PUSH2 0xA7 SWAP1 CALLDATASIZE SWAP1 PUSH1 0x4 ADD PUSH2 0x41C JUMP JUMPDEST PUSH1 0x64 CALLDATALOAD SWAP3 SWAP2 PUSH32 0x0 PUSH1 0x1 PUSH1 0x1 PUSH1 0xA0 SHL SUB AND SWAP2 SWAP1 DUP3 PUSH2 0x2CF JUMPI POP POP POP PUSH32 0x0 PUSH1 0x1 PUSH1 0x1 PUSH1 0xA0 SHL SUB AND CALLER SUB PUSH2 0x29F JUMPI JUMPDEST PUSH1 0x40 MLOAD PUSH4 0xD7C81B55 PUSH1 0xE0 SHL DUP2 MSTORE SWAP4 PUSH1 0x20 DUP6 PUSH1 0x4 DUP2 DUP8 GAS STATICCALL SWAP5 DUP6 ISZERO PUSH2 0x21A JUMPI PUSH0 SWAP6 PUSH2 0x26B JUMPI JUMPDEST POP PUSH8 0xFFFFFFFFFFFFFFFF DUP2 GT PUSH2 0x257 JUMPI PUSH1 0x40 MLOAD SWAP1 PUSH2 0x15E PUSH1 0x1F DUP3 ADD PUSH1 0x1F NOT AND PUSH1 0x20 ADD DUP4 PUSH2 0x44A JUMP JUMPDEST DUP1 DUP3 MSTORE PUSH1 0x20 DUP3 ADD SWAP3 CALLDATASIZE DUP3 DUP3 ADD GT PUSH2 0x225 JUMPI DUP2 PUSH0 SWAP3 PUSH1 0x20 SWAP3 DUP7 CALLDATACOPY DUP4 ADD ADD MSTORE MLOAD SWAP1 KECCAK256 PUSH1 0x40 MLOAD PUSH1 0x20 DUP2 ADD SWAP1 DUP6 DUP3 MSTORE DUP5 PUSH1 0x40 DUP3 ADD MSTORE PUSH1 0x40 DUP2 MSTORE PUSH2 0x19E PUSH1 0x60 DUP3 PUSH2 0x44A JUMP JUMPDEST MLOAD SWAP1 KECCAK256 SUB PUSH2 0x229 JUMPI DUP2 EXTCODESIZE ISZERO PUSH2 0x225 JUMPI PUSH1 0x40 MLOAD PUSH4 0x31DB047B PUSH1 0xE0 SHL DUP2 MSTORE PUSH1 0x4 DUP2 ADD DUP3 SWAP1 MSTORE PUSH0 DUP2 PUSH1 0x24 DUP2 DUP4 DUP8 GAS CALL DUP1 ISZERO PUSH2 0x21A JUMPI PUSH2 0x204 JUMPI JUMPDEST POP PUSH1 0x20 PUSH32 0x81B67DF6B22A6A37606EDC54F9D868482373EAE7D6B5E038609843DEEB983C95 SWAP2 PUSH1 0x40 MLOAD SWAP1 DUP2 MSTORE LOG3 DUP1 RETURN JUMPDEST PUSH2 0x211 SWAP2 SWAP5 POP PUSH0 SWAP1 PUSH2 0x44A JUMP JUMPDEST PUSH0 SWAP3 PUSH1 0x20 PUSH2 0x1D5 JUMP JUMPDEST PUSH1 0x40 MLOAD RETURNDATASIZE PUSH0 DUP3 RETURNDATACOPY RETURNDATASIZE SWAP1 REVERT JUMPDEST PUSH0 DUP1 REVERT JUMPDEST PUSH1 0x40 MLOAD PUSH3 0x461BCD PUSH1 0xE5 SHL DUP2 MSTORE PUSH1 0x20 PUSH1 0x4 DUP3 ADD MSTORE PUSH1 0x6 PUSH1 0x24 DUP3 ADD MSTORE PUSH6 0x21616C706861 PUSH1 0xD0 SHL PUSH1 0x44 DUP3 ADD MSTORE PUSH1 0x64 SWAP1 REVERT JUMPDEST PUSH4 0x4E487B71 PUSH1 0xE0 SHL PUSH0 MSTORE PUSH1 0x41 PUSH1 0x4 MSTORE PUSH1 0x24 PUSH0 REVERT JUMPDEST SWAP1 SWAP5 POP PUSH1 0x20 DUP2 RETURNDATASIZE PUSH1 0x20 GT PUSH2 0x297 JUMPI JUMPDEST DUP2 PUSH2 0x287 PUSH1 0x20 SWAP4 DUP4 PUSH2 0x44A JUMP JUMPDEST DUP2 ADD SUB SLT PUSH2 0x225 JUMPI MLOAD SWAP4 PUSH0 PUSH2 0x136 JUMP JUMPDEST RETURNDATASIZE SWAP2 POP PUSH2 0x27A JUMP JUMPDEST PUSH1 0x40 MLOAD PUSH3 0x461BCD PUSH1 0xE5 SHL DUP2 MSTORE PUSH1 0x20 PUSH1 0x4 DUP3 ADD MSTORE PUSH1 0x8 PUSH1 0x24 DUP3 ADD MSTORE PUSH8 0x10B932B630BCB2B9 PUSH1 0xC1 SHL PUSH1 0x44 DUP3 ADD MSTORE PUSH1 0x64 SWAP1 REVERT JUMPDEST PUSH1 0x40 MLOAD PUSH4 0x26FC8505 PUSH1 0xE1 SHL DUP2 MSTORE PUSH1 0x60 PUSH1 0x4 DUP3 ADD MSTORE SWAP3 PUSH1 0x20 SWAP3 DUP5 SWAP3 DUP4 SWAP2 DUP3 SWAP2 PUSH2 0x311 SWAP2 PUSH2 0x2FF PUSH1 0x64 DUP6 ADD DUP15 DUP13 PUSH2 0x46C JUMP JUMPDEST DUP5 DUP2 SUB PUSH1 0x3 NOT ADD PUSH1 0x24 DUP7 ADD MSTORE SWAP2 PUSH2 0x46C JUMP JUMPDEST DUP9 PUSH1 0x44 DUP4 ADD MSTORE SUB SWAP2 GAS STATICCALL SWAP1 DUP2 ISZERO PUSH2 0x21A JUMPI PUSH0 SWAP2 PUSH2 0x35C JUMPI JUMPDEST POP PUSH2 0x111 JUMPI PUSH1 0x40 MLOAD PUSH3 0x461BCD PUSH1 0xE5 SHL DUP2 MSTORE PUSH1 0x20 PUSH1 0x4 DUP3 ADD MSTORE PUSH1 0x6 PUSH1 0x24 DUP3 ADD MSTORE PUSH6 0x10B2B1BB3933 PUSH1 0xD1 SHL PUSH1 0x44 DUP3 ADD MSTORE PUSH1 0x64 SWAP1 REVERT JUMPDEST SWAP1 POP PUSH1 0x20 DUP2 RETURNDATASIZE PUSH1 0x20 GT PUSH2 0x38F JUMPI JUMPDEST DUP2 PUSH2 0x377 PUSH1 0x20 SWAP4 DUP4 PUSH2 0x44A JUMP JUMPDEST DUP2 ADD SUB SLT PUSH2 0x225 JUMPI MLOAD DUP1 ISZERO ISZERO DUP2 SUB PUSH2 0x225 JUMPI PUSH0 PUSH2 0x329 JUMP JUMPDEST RETURNDATASIZE SWAP2 POP PUSH2 0x36A JUMP JUMPDEST CALLVALUE PUSH2 0x225 JUMPI PUSH0 CALLDATASIZE PUSH1 0x3 NOT ADD SLT PUSH2 0x225 JUMPI PUSH1 0x40 MLOAD PUSH32 0x0 PUSH1 0x1 PUSH1 0x1 PUSH1 0xA0 SHL SUB AND DUP2 MSTORE PUSH1 0x20 SWAP1 RETURN JUMPDEST CALLVALUE PUSH2 0x225 JUMPI PUSH0 CALLDATASIZE PUSH1 0x3 NOT ADD SLT PUSH2 0x225 JUMPI PUSH32 0x0 PUSH1 0x1 PUSH1 0x1 PUSH1 0xA0 SHL SUB AND DUP2 MSTORE PUSH1 0x20 SWAP1 RETURN JUMPDEST SWAP2 DUP2 PUSH1 0x1F DUP5 ADD SLT ISZERO PUSH2 0x225 JUMPI DUP3 CALLDATALOAD SWAP2 PUSH8 0xFFFFFFFFFFFFFFFF DUP4 GT PUSH2 0x225 JUMPI PUSH1 0x20 DUP4 DUP2 DUP7 ADD SWAP6 ADD ADD GT PUSH2 0x225 JUMPI JUMP JUMPDEST SWAP1 PUSH1 0x1F DUP1 NOT SWAP2 ADD AND DUP2 ADD SWAP1 DUP2 LT PUSH8 0xFFFFFFFFFFFFFFFF DUP3 GT OR PUSH2 0x257 JUMPI PUSH1 0x40 MSTORE JUMP JUMPDEST SWAP1 DUP1 PUSH1 0x20 SWAP4 SWAP3 DUP2 DUP5 MSTORE DUP5 DUP5 ADD CALLDATACOPY PUSH0 DUP3 DUP3 ADD DUP5 ADD MSTORE PUSH1 0x1F ADD PUSH1 0x1F NOT AND ADD ADD SWAP1 JUMP INVALID LOG2 PUSH5 0x6970667358 0x22 SLT KECCAK256 PUSH15 0xA4FECE699A017609A3F735A92E3599 0x4D SSTORE RETURNDATASIZE MCOPY 0xC8 DUP8 ADDMOD 0x22 0x2D PUSH18 0x54F2F0DBB83264736F6C634300081A003300 "
				},
				"gasEstimates": {
					"creation": {
						"codeDepositCost": "243600",
						"executionCost": "infinite",
						"totalCost": "infinite"
					},
					"external": {
						"relayer()": "infinite",
						"submitRandomWord(address,bytes,bytes,uint256)": "infinite",
						"verifier()": "infinite"
					}
				},
				"methodIdentifiers": {
					"relayer()": "8406c079",
					"submitRandomWord(address,bytes,bytes,uint256)": "b328bfa5",
					"verifier()": "2b7ac3f3"
				}
			},
			"storageLayout": {
				"storage": [],
				"types": null
			},
			"userdoc": {
				"kind": "user",
				"methods": {},
				"version": 1
			}
		}
	}
}