{"contracts/GameFactory.sol":{"GameFactory":{"abi":[{"inputs":[{"internalType":"address payable","name":"_stakingVault","type":"address"}],"stateMutability":"nonpayable","type":"constructor"},{"anonymous":false,"inputs":[{"indexed":true,"internalType":"uint256","name":"gameId","type":"uint256"},{"indexed":true,"internalType":"address","name":"host","type":"address"},{"indexed":true,"internalType":"address","name":"room","type":"address"},{"components":[{"internalType":"uint256","name":"minPlayers","type":"uint256"},{"internalType":"uint256","name":"maxPlayers","type":"uint256"},{"internalType":"uint256","name":"minStake","type":"uint256"},{"internalType":"uint256","name":"maxStake","type":"uint256"},{"internalType":"uint256","name":"jokerCount","type":"uint256"},{"internalType":"uint256[10]","name":"cardCounts","type":"uint256[10]"}],"indexed":false,"internalType":"struct GameRoom.GameConfig","name":"cfg","type":"tuple"}],"name":"GameRoomCreated","type":"event"},{"inputs":[{"internalType":"uint256","name":"minPlayers","type":"uint256"},{"internalType":"uint256","name":"maxPlayers","type":"uint256"},{"internalType":"uint256","name":"minStake","type":"uint256"},{"internalType":"uint256","name":"maxStake","type":"uint256"},{"internalType":"uint256","name":"jokerCount","type":"uint256"},{"internalType":"uint256[10]","name":"cardCounts","type":"uint256[10]"},{"internalType":"address","name":"vrfCoordinator","type":"address"},{"internalType":"uint64","name":"vrfSubId","type":"uint64"},{"internalType":"bytes32","name":"vrfKeyHash","type":"bytes32"},{"internalType":"uint32","name":"vrfCallbackGasLimit","type":"uint32"},{"internalType":"uint16","name":"vrfRequestConfirmations","type":"uint16"},{"internalType":"address","name":"ecvrfRelay","type":"address"}],"name":"createGameRoom","outputs":[{"components":[{"internalType":"uint256","name":"gameId","type":"uint256"},{"internalType":"address","name":"room","type":"address"}],"internalType":"struct GameFactory.CreateResult","name":"","type":"tuple"}],"stateMutability":"nonpayable","type":"function"},{"inputs":[{"internalType":"uint256","name":"","type":"uint256"}],"name":"gameConfigs","outputs":[{"internalType":"uint256","name":"minPlayers","type":"uint256"},{"internalType":"uint256","name":"maxPlayers","type":"uint256"},{"internalType":"uint256","name":"minStake","type":"uint256"},{"internalType":"uint256","name":"maxStake","type":"uint256"},{"internalType":"uint256","name":"jokerCount","type":"uint256"}],"stateMutability":"view","type":"function"},{"inputs":[],"name":"gameIdCounter","outputs":[{"internalType":"uint256","name":"","type":"uint256"}],"stateMutability":"view","type":"function"},{"inputs":[{"internalType":"uint256","name":"","type":"uint256"}],"name":"gameRooms","outputs":[{"internalType":"address","name":"","type":"address"}],"stateMutability":"view","type":"function"},{"inputs":[{"internalType":"uint256","name":"gameId","type":"uint256"}],"name":"getGameRoom","outputs":[{"internalType":"contract GameRoom","name":"","type":"address"}],"stateMutability":"view","type":"function"},{"inputs":[],"name":"stakingVault","outputs":[{"internalType":"contract StakingVault","name":"","type":"address"}],"stateMutability":"view","type":"function"}],"evm":{"bytecode":{"linkReferences":{},"object":"60a034607957601f612cf738819003918201601f19168301916001600160401b03831184841017607e57808492602094604052833981010312607957516001600160a01b0381169081900360795780156079576080526001600055604051612c62908161009582396080518181816102aa01526106ca0152f35b600080fd5b634e487b7160e01b600052604160045260246000fdfe608080604052600436101561001357600080fd5b600090813560e01c9081631bb412d6146106f95750806324e7964a146106b45780632b333a471461065d578063426c46411461062a578063652b765e146100a45763bcdafed11461006357600080fd5b346100a15760203660031901126100a1576004358152600160205260408120546001600160a01b0316801561009d57602090604051908152f35b5080fd5b80fd5b50346100a1576102a03660031901126100a1576024359060843590606435604435600435366101e411610626576101e4356001600160a01b038116959086900361062257610204359667ffffffffffffffff881680980361061e57610244359163ffffffff831680930361061a57610264359061ffff821680920361061657610284356001600160a01b03811697908890036106125788602060405161014981610713565b8281520152600286101580610607575b156105d4578386116105a357861561056f5780610536575b6008821161050257885b60ff8116600a81101561021e576001610193826107a0565b35166101e8576101a46014916107a0565b35116101b55760010160ff1661017b565b60405162461bcd60e51b815260206004820152600b60248201526a063617264206d61782032360ac1b6044820152606490fd5b60405162461bcd60e51b815260206004820152600e60248201526d31b0b9321036bab9ba1032bb32b760911b6044820152606490fd5b50508a8a8a54996000198b146104ee5760018b018c556040519860c08a018a811067ffffffffffffffff8211176104da5760405289526020890196875260408901998a52606089019384526080890194855260405195610140870187811067ffffffffffffffff8211176104da5760405260a4875b6101e482106104ca57505060a08a019687526040517f00000000000000000000000000000000000000000000000000000000000000006001600160a01b0316999094612464808701959067ffffffffffffffff8711888810176104b457918f9161031e8f8f8b9997956103009b99976107c98c39895260208901523360408901526060880190610745565b610240860152610260850152610224356102808501526102a08401526102c08301526102e08201520301908af080156104a9579089959493929160018060a01b031697898752600160205260408720896bffffffffffffffffffffffff60a01b825416179055898752600260205260408720948851865551600186015551600285015551600384015551600483015551835b600a811061048f57505050803b1561009d578190604460405180948193634f01cac960e11b83528960048401528860248401525af1801561048457610454575b60408484808561040285518092610745565b837fa5103dcedf36a11bde52e68c33edac270e6dfccabd36a822f96cec99891c77f16101e03393a46020835161043781610713565b838152019081528251918252516001600160a01b03166020820152f35b67ffffffffffffffff81116104705760409081529350816103f0565b634e487b7160e01b85526041600452602485fd5b6040513d87823e3d90fd5b8151818401600501558894506020909101906001016103b0565b6040513d8b823e3d90fd5b5050634e487b7160e01b8f52604160045260248ffd5b8135815260209182019101610293565b634e487b7160e01b8e52604160045260248efd5b634e487b7160e01b8c52601160045260248cfd5b60405162461bcd60e51b815260206004820152600c60248201526b0d4ded6cae4e640dac2f040760a31b6044820152606490fd5b868110156101715760405162461bcd60e51b815260206004820152600960248201526836b0bc101e1036b4b760b91b6044820152606490fd5b60405162461bcd60e51b815260206004820152600c60248201526b06d696e207374616b65203e360a41b6044820152606490fd5b60405162461bcd60e51b81526020600482015260096024820152680dad2dc407c40dac2f60bb1b6044820152606490fd5b60405162461bcd60e51b815260206004820152600b60248201526a0e0d8c2f2cae4e640645a760ab1b6044820152606490fd5b506008841115610159565b8880fd5b8780fd5b8680fd5b8580fd5b8480fd5b8380fd5b50346100a15760203660031901126100a157602090600435815260018252604060018060a01b0391205416604051908152f35b50346100a15760203660031901126100a157604060a0916004358152600260205220805490600181015490600281015460046003830154920154926040519485526020850152604084015260608301526080820152f35b50346100a157806003193601126100a1576040517f00000000000000000000000000000000000000000000000000000000000000006001600160a01b03168152602090f35b90503461009d578160031936011261009d57602091548152f35b6040810190811067ffffffffffffffff82111761072f57604052565b634e487b7160e01b600052604160045260246000fd5b60a080918051845260208101516020850152604081015160408501526060810151606085015260808101516080850152015191016000905b600a821061078a57505050565b602080600192855181520193019101909161077d565b600a8110156107b25760051b60a40190565b634e487b7160e01b600052603260045260246000fdfe6101a060405234610385576040516124643881900390601f8201601f19168301906001600160401b0382118483101761039a5782916040528339810181810390610300821261038557825160208401516001600160a01b03811690819003610385576101e0610070604087016103b0565b94605f1901126103855760405160c081016001600160401b0381118282101761039a576040526060860151815260808601516020820190815260a0870151916040810192835260c0880151936060820194855260e089015195608083019687528761011f8b011215610385576040519761014089016001600160401b0381118a82101761039a57604052886102408c01918211610385576101008c01905b82821061038a5750506101279060a08501998a526103b0565b6102608b01519a6001600160401b038c168c03610385576102808101516102a08201519063ffffffff82168203610385576102c08301519261ffff84168403610385576102e061017791016103b0565b9d8460805260a05260c05260e052610100528215610357576001600160a01b038a1615610329576001600160a01b0316151580610317575b6102e057610120526101405251600055516001555160025551600355516004555160005b600a81106102cb57505060ff19600f5416600f55610160526101805260405161209f90816103c58239608051818181610d690152611b2e015260a05181611ba3015260c05181611b7d015260e05181611bfd01526101005181611bd301526101205181818161037901528181610ac801528181610c8b0152818161137c015281816113ff015281816115b70152818161188f015281816119f001528181611c5601528181611d190152611daa0152610140518181816102b501528181610ae9015281816118b101526119b10152610160518181816106070152610beb0152610180518181816102fa015281816104b30152611cd40152f35b600190602083519301928160050155016101d3565b60405162461bcd60e51b815260206004820152600f60248201526e2174776f2072616e646f6d6e65737360881b6044820152606490fd5b506001600160a01b038a1615156101af565b60405162461bcd60e51b815260206004820152600660248201526510b7bbb732b960d11b6044820152606490fd5b60405162461bcd60e51b8152602060048201526006602482015265085d985d5b1d60d21b6044820152606490fd5b600080fd5b815181526020918201910161010e565b634e487b7160e01b600052604160045260246000fd5b51906001600160a01b03821682036103855756fe6080604052600436101561001257600080fd5b60003560e01c80630496561d146101575780631fe543e31461015257806324e7964a1461014d57806331db047b146101485780633588fd8014610143578063424aeded1461013e578063733d50381461013957806379502c55146101345780638b5b9ccc1461012f578063999dacb91461012a578063ad5c21d914610125578063b0652a8814610120578063c2e522061461011b578063d1f9c24d14610116578063d4f77b1c14610111578063d65ab5f21461010c578063d7c81b5514610107578063e6ec298214610102578063f71d96cb146100fd5763fb9bdab4146100f857600080fd5b610d48565b610cff565b610cae565b610c73565b610bd8565b610a14565b6109ea565b6109ac565b6106fd565b61066a565b6105f1565b610573565b6104e2565b61049d565b61041a565b6103ed565b6102e4565b61029f565b610206565b610177565b600435906001600160a01b038216820361017257565b600080fd5b34610172576020366003190112610172576001600160a01b0361019861015c565b1660005260136020526020604060002054604051908152f35b634e487b7160e01b600052604160045260246000fd5b90601f8019910116810190811067ffffffffffffffff8211176101e957604052565b6101b1565b67ffffffffffffffff81116101e95760051b60200190565b346101725760403660031901126101725760043560243567ffffffffffffffff8111610172573660238201121561017257806004013591610246836101ee565b9161025460405193846101c7565b8383526024602084019460051b8201019036821161017257602401935b818510610284576102828484610d66565b005b8435815260209485019401610271565b600091031261017257565b34610172576000366003190112610172576040517f00000000000000000000000000000000000000000000000000000000000000006001600160a01b03168152602090f35b34610172576020366003190112610172576004357f00000000000000000000000000000000000000000000000000000000000000006001600160a01b031633036103bf576103779061034c600161033d600f5460ff1690565b610346816109ca565b14610e0f565b610357811515610e46565b610369600260ff19600f541617600f55565b610372816113f0565b6115a5565b7f00000000000000000000000000000000000000000000000000000000000000007f50ad08f58a27f2851d7e3a1b3a6a46b290f2ce677e99642d30ff639721e77790600080a2005b60405162461bcd60e51b81526020600482015260066024820152652172656c617960d01b6044820152606490fd5b34610172576000366003190112610172576020610408610ed0565b6040516001600160a01b039091168152f35b34610172576020366003190112610172576001600160a01b0361043b61015c565b166000526011602052604060002060018060a01b03815416600182015490600d600284015493015460ff60405194859460a086019460018060a01b0316865260208601528181161515604086015260081c161515606084015260808301520390f35b34610172576000366003190112610172576040517f00000000000000000000000000000000000000000000000000000000000000006001600160a01b03168152602090f35b346101725760003660031901126101725760a060005460015460025460035490600454926040519485526020850152604084015260608301526080820152f35b906020808351928381520192019060005b8181106105405750505090565b82516001600160a01b0316845260209384019390920191600101610533565b906020610570928181520190610522565b90565b3461017257600036600319011261017257604051806020601054918281520190601060005260008051602061204a8339815191529060005b8181106105d2576105ce856105c2818703826101c7565b6040519182918261055f565b0390f35b82546001600160a01b03168452602090930192600192830192016105ab565b34610172576000366003190112610172576040517f00000000000000000000000000000000000000000000000000000000000000006001600160a01b03168152602090f35b61016081019392916000825b600a8210610654575050506101400152565b6020806001928551815201930191019091610642565b346101725760203660031901126101725761068361015c565b610140908160405161069582826101c7565b3690376001600160a01b0316600090815260116020526040808220600d810154915191939192600390910190835b600a82106106e7575050506106d890826101c7565b6105ce60405192839283610636565b60016020819285548152019301910190916106c3565b346101725760403660031901126101725761071661015c565b6024359060ff821691828103610172576107466002610737600f5460ff1690565b610740816109ca565b14610f23565b61077c61076c610757601254610cdf565b905460039190911b1c6001600160a01b031690565b6001600160a01b03163314610f5a565b3360009081526011602052604090206107ad906107a8906107a4906002015460081c60ff1690565b1590565b610f8e565b6001600160a01b038216926107c3841515610fc0565b8061088d575050610813816107f9600d6107f0819560018060a01b03166000526011602052604060002090565b015415156110b5565b6001600160a01b0316600090815260116020526040902090565b0161081e8154611099565b9055336000908152601160205260409020600d0161083c81546110a6565b9055604051600081523391907f345ab5394e10f7b605071092c87ea512b2b9f3a616f8c85b996c2aa8a418c69c90602090a35b6108776116e7565b61087f611710565b61088557005b61028261183e565b61092b6108fe6109689395946108b28460016108e796101590816109a0575b50610ff6565b60036108bd8861102e565b94826107f96108f76108ed89866108e7829960018060a01b03166000526011602052604060002090565b01611053565b90549060031b1c90565b1515611063565b61091461090f8284549060031b1c90565b611099565b825460001960039390931b92831b1916911b179055565b3360009081526011602052604090206109629061094c9083906003906108e7565b61091461095d8284549060031b1c90565b6110a6565b33611674565b60405160ff92909216825233917f345ab5394e10f7b605071092c87ea512b2b9f3a616f8c85b996c2aa8a418c69c90602090a361086f565b600a91501115386108ac565b34610172576000366003190112610172576020601054604051908152f35b600411156109d457565b634e487b7160e01b600052602160045260246000fd5b346101725760003660031901126101725760ff600f541660405160048210156109d4576020918152f35b600036600319011261017257610a3e610a2f600f5460ff1690565b610a38816109ca565b156110ec565b33600090815260116020526040902060020154610a5e9060ff1615611123565b610a6d60105460015411611158565b60035480610bb15750610a8360025434146111be565b336000908152601160205260409020610abd9060029080546001600160a01b0319163317815534600182015501600160ff19825416179055565b610ac6336111f8565b7f00000000000000000000000000000000000000000000000000000000000000007f00000000000000000000000000000000000000000000000000000000000000006001600160a01b0316803b15610172576040516328ba35d960e11b815260048101839052336024820152906000908290604490829034905af18015610bac57610b91575b506040513481523391907f03dfbe1fcb4e2d61f3b4a0c93d8f814c92250618b3387f396cc9fc9fafe2c20390602090a360105460015414610b8957005b610282611b1c565b80610ba06000610ba6936101c7565b80610294565b38610b4c565b611252565b610bc8906002543410159081610bcd575b5061118a565b610a83565b905034111538610bc2565b34610172576000366003190112610172577f00000000000000000000000000000000000000000000000000000000000000006001600160a01b03163303610c4557610c28610a2f600f5460ff1690565b610b89601054610c3c60005482101561125e565b60015411611290565b60405162461bcd60e51b815260206004820152600660248201526510b7bbb732b960d11b6044820152606490fd5b346101725760003660031901126101725760206040517f00000000000000000000000000000000000000000000000000000000000000008152f35b346101725760003660031901126101725760206104086112c9565b634e487b7160e01b600052603260045260246000fd5b601054811015610cfa57601060005260206000200190600090565b610cc9565b346101725760203660031901126101725760043560105481101561017257601060005260008051602061204a83398151915201546040516001600160a01b039091168152602090f35b34610172576000366003190112610172576020601254604051908152f35b507f00000000000000000000000000000000000000000000000000000000000000006001600160a01b03168015610de0573303610da857610da690611320565b565b60405162461bcd60e51b815260206004820152601060248201526f37b7363c9031b7b7b93234b730ba37b960811b6044820152606490fd5b60405162461bcd60e51b81526020600482015260076024820152663b39331037b33360c91b6044820152606490fd5b15610e1657565b60405162461bcd60e51b8152602060048201526008602482015267216465616c696e6760c01b6044820152606490fd5b15610e4d57565b60405162461bcd60e51b8152602060048201526005602482015264217a65726f60d81b6044820152606490fd5b634e487b7160e01b600052601160045260246000fd5b9060018201809211610e9e57565b610e7a565b91908201809211610e9e57565b8115610eba570690565b634e487b7160e01b600052601260045260246000fd5b60105460028110610f1d5760125460018101809111610e9e5781610ef391610eb0565b90811015610cfa57601060005260008051602061204a83398151915201546001600160a01b031690565b50600090565b15610f2a57565b60405162461bcd60e51b815260206004820152600860248201526721706c6179696e6760c01b6044820152606490fd5b15610f6157565b60405162461bcd60e51b815260206004820152600560248201526410ba3ab93760d91b6044820152606490fd5b15610f9557565b60405162461bcd60e51b81526020600482015260036024820152621bdd5d60ea1b6044820152606490fd5b15610fc757565b60405162461bcd60e51b8152602060048201526007602482015266085d185c99d95d60ca1b6044820152606490fd5b15610ffd57565b60405162461bcd60e51b815260206004820152600960248201526806361726420312d31360bc1b6044820152606490fd5b60ff6000199116019060ff8211610e9e57565b600a811015610cfa5760050190600090565b600a821015610cfa570190600090565b1561106a57565b60405162461bcd60e51b81526020600482015260076024820152661b9bc818d85c9960ca1b6044820152606490fd5b8015610e9e576000190190565b6000198114610e9e5760010190565b156110bc57565b60405162461bcd60e51b81526020600482015260086024820152673737903537b5b2b960c11b6044820152606490fd5b156110f357565b60405162461bcd60e51b81526020600482015260086024820152672170656e64696e6760c01b6044820152606490fd5b1561112a57565b60405162461bcd60e51b81526020600482015260066024820152651a9bda5b995960d21b6044820152606490fd5b1561115f57565b606460405162461bcd60e51b8152602060048201526004602482015263199d5b1b60e21b6044820152fd5b1561119157565b60405162461bcd60e51b815260206004820152600560248201526472616e676560d81b6044820152606490fd5b156111c557565b60405162461bcd60e51b815260206004820152600b60248201526a6669786564207374616b6560a81b6044820152606490fd5b601054680100000000000000008110156101e957600181016010556000601054821015610cfa576010905260008051602061204a8339815191520180546001600160a01b0319166001600160a01b03909216919091179055565b6040513d6000823e3d90fd5b1561126557565b606460405162461bcd60e51b815260206004820152600460248201526310b6b4b760e11b6044820152fd5b1561129757565b60405162461bcd60e51b815260206004820152600a6024820152692166756c6c206175746f60b01b6044820152606490fd5b6010548015610f1d5760125490811015610cfa57601060005260008051602061204a83398151915201546001600160a01b031690565b805115610cfa5760200190565b8051821015610cfa5760209160051b010190565b60ff600f541660048110156109d457600161133b9114610e0f565b60018151106113c25761137461137a9161135d600260ff19600f541617600f55565b61136f611369826112ff565b516113f0565b6112ff565b516115a5565b7f00000000000000000000000000000000000000000000000000000000000000007f50ad08f58a27f2851d7e3a1b3a6a46b290f2ce677e99642d30ff639721e77790600080a2565b60405162461bcd60e51b815260206004820152600660248201526521776f72647360d01b6044820152606490fd5b6010546113fb611e26565b80517f00000000000000000000000000000000000000000000000000000000000000009160005b82811061152e575060005b8281106114d3575050506004549260005b84811061144c575050505050565b604080516020810184815291810185905230606090811b6001600160601b0319169082015260748101839052600160f81b609482015260019291600d916114c0916107f991610757916114bb918b91906114b381609581015b03601f1981018352826101c7565b519020610eb0565b610cdf565b016114cb8154610e90565b90550161143e565b806115286114e96107576114bb89600196610eb0565b6114fd6114f6848761130c565b5160ff1690565b9061152361094c8360036108e78560018060a01b03166000526011602052604060002090565b611674565b0161142d565b604080516020810188815291810186905230606090811b6001600160601b031916908201526074810183905260019291611572918691906114b381609481016114a5565b61157c818561130c565b519061159361158b848761130c565b51918661130c565b5261159e828561130c565b5201611422565b3060601b6001600160601b03191691907f00000000000000000000000000000000000000000000000000000000000000009060005b60105481101561166d57601060005260008051602061204a8339815191528101546040805160208101858152918101869052606080820189905283901b6001600160601b031916607482015260688152600193926001600160a01b031691611666916116476088826101c7565b5190206001600160a01b03909216600090815260136020526040902090565b55016115da565b5050509050565b60018060a01b031690816000526011602052611697816003604060002001611053565b90549060031b1c9060028210156116ad57505050565b6116cc600191610da69460005260116020526003604060002001611053565b919092169082549060031b91821b91600019901b1916179055565b601054801561170d576012549060018201809211610e9e5761170891610eb0565b601255565b50565b60105460005b818110611724575050600190565b61173061075782610cdf565b60005b600a60ff821610611748575050600101611716565b61176d6108ed8260036108e78660018060a01b03166000526011602052604060002090565b61177c5760010160ff16611733565b50505050600090565b9061178f826101ee565b61179c60405191826101c7565b82815280926117ad601f19916101ee565b0190602036910137565b156117be57565b60405162461bcd60e51b81526020600482015260086024820152672177696e6e65727360c01b6044820152606490fd5b9161180b9061057094928452606060208501526060840190610522565b916040818403910152610522565b909161183061057093604084526040840190610522565b916020818403910152610522565b611850600360ff19600f541617600f55565b60105461185c81611785565b9061186681611785565b906000809160005b818110611a5f57505083528082526118879015156117b7565b47611961575b7f0000000000000000000000000000000000000000000000000000000000000000917f00000000000000000000000000000000000000000000000000000000000000006001600160a01b03169190823b156101725760006040518094633951114160e11b825281838161190587898c600485016117ee565b03925af1928315610bac577fec9076d3d1e4910861e8852ef3e8820904b6868d2e5c85563e5c82f45c776d1f9361194c575b5061194760405192839283611819565b0390a2565b80610ba0600061195b936101c7565b38611937565b919060005b601054811015611a575761197c61075782610cdf565b90600161199b8360018060a01b03166000526011602052604060002090565b015491826119af575b506001915001611966565b7f00000000000000000000000000000000000000000000000000000000000000006001600160a01b031690813b15610172576040516328ba35d960e11b81527f000000000000000000000000000000000000000000000000000000000000000060048201526001600160a01b039190911660248201529260009184916044918391905af1918215610bac57600192156119a45780610ba06000611a51936101c7565b386119a4565b50909161188d565b80611a6e610757600193610cdf565b6001600160a01b0381166000908152601160205260409020600d015415611abb57611ab590611aa6611a9f876110a6565b968a61130c565b6001600160a01b039091169052565b0161186e565b611ad290611aa6611acb886110a6565b978961130c565b611ab5565b15611ade57565b60405162461bcd60e51b8152602060048201526007602482015266042cadcdeeaced60cb1b6044820152606490fd5b90816020910312610172575190565b611b2c6010546000541115611ad7565b7f00000000000000000000000000000000000000000000000000000000000000006001600160a01b03168015611cd157611b6e600160ff19600f541617600f55565b6040516305d3b1d360e41b81527f000000000000000000000000000000000000000000000000000000000000000060048201527f000000000000000000000000000000000000000000000000000000000000000067ffffffffffffffff1660248201527f000000000000000000000000000000000000000000000000000000000000000061ffff1660448201527f000000000000000000000000000000000000000000000000000000000000000063ffffffff1660648201526001608482015290602090829060a49082906000905af1908115610bac57600091611ca2575b506040519081527f0000000000000000000000000000000000000000000000000000000000000000907febd9e8fb61fd5a6473b57d787d7ea3595ba98407bd8c0d74d9b0a5d666aa8d8a908060208101611947565b611cc4915060203d602011611cca575b611cbc81836101c7565b810190611b0d565b38611c4d565b503d611cb2565b507f00000000000000000000000000000000000000000000000000000000000000006001600160a01b031615611d8a57611d13600160ff19600f541617600f55565b604080517f00000000000000000000000000000000000000000000000000000000000000006020820181815230938301939093529190611d5681606081016114a5565b5190206040519081523091907f95c8b02c7934a4bb418d4b844ca008175046665e9ddfb7903dda0ce4dd450cf090602090a3565b611d9c600260ff19600f541617600f55565b6040805142602082019081527f000000000000000000000000000000000000000000000000000000000000000092820183905230606090811b6001600160601b03191690830152611dff91611df481607481016114a5565b519020610372611eb9565b7f50ad08f58a27f2851d7e3a1b3a6a46b290f2ce677e99642d30ff639721e77790600080a2565b6000805b600a8210611e9957611e3c9150611785565b60009160005b60ff8116600a811015611e9257611e5b6108ed83611041565b9060005b828110611e745750505060010160ff16611e42565b60019082611e8b611e848a6110a6565b998961130c565b5201611e5f565b5050915090565b611eb1600191611eab6108ed85611041565b90610ea3565b910190611e2a565b60105490611ec5611f58565b9160005b8351811015611efb5780611ef5611ee86107576114bb86600196610eb0565b6114fd6114f6848961130c565b01611ec9565b5060045491925060005b828110611f1157505050565b600190600d611f456107f96107576114bb8760405160208101906114b3816114a58b42869091604092825260208201520190565b01611f508154610e90565b905501611f05565b6000805b600a821061202f57611f6e9150611785565b60009160005b60ff8116600a811015611fbd57611f8d6108ed83611041565b9060005b828110611fa65750505060010160ff16611f74565b60019082611fb6611e848a6110a6565b5201611f91565b5050915060005b815181101561202b576001906120006040516020810190611ff5816114a58642869091604092825260208201520190565b519020845190610eb0565b61200a818561130c565b519061201961158b848761130c565b52612024828561130c565b5201611fc4565b5090565b612041600191611eab6108ed85611041565b910190611f5c56fe1b6847dc741a1b0cd08d278845f9d819d87b734759afb55fe2de5cb82a9ae672a26469706673582212204aebe1c4dbd380276d0780e083960ab76d30ad044a77c97f70626f95f6a25c1b64736f6c634300081a0033a2646970667358221220b348d38229873a103118deac1279b0e82b67564c7ce0e0167b14ef62108e14b064736f6c634300081a0033","opcodes":"PUSH1 0xA0 CALLVALUE PUSH1 0x79 JUMPI PUSH1 0x1F PUSH2 0x2CF7 CODESIZE DUP2 SWAP1 SUB SWAP2 DUP3 ADD PUSH1 0x1F NOT AND DUP4 ADD SWAP2 PUSH1 0x1 PUSH1 0x1 PUSH1 0x40 SHL SUB DUP4 GT DUP5 DUP5 LT OR PUSH1 0x7E JUMPI DUP1 DUP5 SWAP3 PUSH1 0x20 SWAP5 PUSH1 0x40 MSTORE DUP4 CODECOPY DUP2 ADD SUB SLT PUSH1 0x79 JUMPI MLOAD PUSH1 0x1 PUSH1 0x1 PUSH1 0xA0 SHL SUB DUP2 AND SWAP1 DUP2 SWAP1 SUB PUSH1 0x79 JUMPI DUP1 ISZERO PUSH1 0x79 JUMPI PUSH1 0x80 MSTORE PUSH1 0x1 PUSH1 0x0 SSTORE PUSH1 0x40 MLOAD PUSH2 0x2C62 SWAP1 DUP2 PUSH2 0x95 DUP3 CODECOPY PUSH1 0x80 MLOAD DUP2 DUP2 DUP2 PUSH2 0x2AA ADD MSTORE PUSH2 0x6CA ADD MSTORE RETURN JUMPDEST PUSH1 0x0 DUP1 REVERT JUMPDEST PUSH4 0x4E487B71 PUSH1 0xE0 SHL PUSH1 0x0 MSTORE PUSH1 0x41 PUSH1 0x4 MSTORE PUSH1 0x24 PUSH1 0x0 REVERT INVALID PUSH1 0x80 DUP1 PUSH1 0x40 MSTORE PUSH1 0x4 CALLDATASIZE LT ISZERO PUSH2 0x13 JUMPI PUSH1 0x0 DUP1 REVERT JUMPDEST PUSH1 0x0 SWAP1 DUP2 CALLDATALOAD PUSH1 0xE0 SHR SWAP1 DUP2 PUSH4 0x1BB412D6 EQ PUSH2 0x6F9 JUMPI POP DUP1 PUSH4 0x24E7964A EQ PUSH2 0x6B4 JUMPI DUP1 PUSH4 0x2B333A47 EQ PUSH2 0x65D JUMPI DUP1 PUSH4 0x426C4641 EQ PUSH2 0x62A JUMPI DUP1 PUSH4 0x652B765E EQ PUSH2 0xA4 JUMPI PUSH4 0xBCDAFED1 EQ PUSH2 0x63 JUMPI PUSH1 0x0 DUP1 REVERT JUMPDEST CALLVALUE PUSH2 0xA1 JUMPI PUSH1 0x20 CALLDATASIZE PUSH1 0x3 NOT ADD SLT PUSH2 0xA1 JUMPI PUSH1 0x4 CALLDATALOAD DUP2 MSTORE PUSH1 0x1 PUSH1 0x20 MSTORE PUSH1 0x40 DUP2 KECCAK256 SLOAD PUSH1 0x1 PUSH1 0x1 PUSH1 0xA0 SHL SUB AND DUP1 ISZERO PUSH2 0x9D JUMPI PUSH1 0x20 SWAP1 PUSH1 0x40 MLOAD SWAP1 DUP2 MSTORE RETURN JUMPDEST POP DUP1 REVERT JUMPDEST DUP1 REVERT JUMPDEST POP CALLVALUE PUSH2 0xA1 JUMPI PUSH2 0x2A0 CALLDATASIZE PUSH1 0x3 NOT ADD SLT PUSH2 0xA1 JUMPI PUSH1 0x24 CALLDATALOAD SWAP1 PUSH1 0x84 CALLDATALOAD SWAP1 PUSH1 0x64 CALLDATALOAD PUSH1 0x44 CALLDATALOAD PUSH1 0x4 CALLDATALOAD CALLDATASIZE PUSH2 0x1E4 GT PUSH2 0x626 JUMPI PUSH2 0x1E4 CALLDATALOAD PUSH1 0x1 PUSH1 0x1 PUSH1 0xA0 SHL SUB DUP2 AND SWAP6 SWAP1 DUP7 SWAP1 SUB PUSH2 0x622 JUMPI PUSH2 0x204 CALLDATALOAD SWAP7 PUSH8 0xFFFFFFFFFFFFFFFF DUP9 AND DUP1 SWAP9 SUB PUSH2 0x61E JUMPI PUSH2 0x244 CALLDATALOAD SWAP2 PUSH4 0xFFFFFFFF DUP4 AND DUP1 SWAP4 SUB PUSH2 0x61A JUMPI PUSH2 0x264 CALLDATALOAD SWAP1 PUSH2 0xFFFF DUP3 AND DUP1 SWAP3 SUB PUSH2 0x616 JUMPI PUSH2 0x284 CALLDATALOAD PUSH1 0x1 PUSH1 0x1 PUSH1 0xA0 SHL SUB DUP2 AND SWAP8 SWAP1 DUP9 SWAP1 SUB PUSH2 0x612 JUMPI DUP9 PUSH1 0x20 PUSH1 0x40 MLOAD PUSH2 0x149 DUP2 PUSH2 0x713 JUMP JUMPDEST DUP3 DUP2 MSTORE ADD MSTORE PUSH1 0x2 DUP7 LT ISZERO DUP1 PUSH2 0x607 JUMPI JUMPDEST ISZERO PUSH2 0x5D4 JUMPI DUP4 DUP7 GT PUSH2 0x5A3 JUMPI DUP7 ISZERO PUSH2 0x56F JUMPI DUP1 PUSH2 0x536 JUMPI JUMPDEST PUSH1 0x8 DUP3 GT PUSH2 0x502 JUMPI DUP9 JUMPDEST PUSH1 0xFF DUP2 AND PUSH1 0xA DUP2 LT ISZERO PUSH2 0x21E JUMPI PUSH1 0x1 PUSH2 0x193 DUP3 PUSH2 0x7A0 JUMP JUMPDEST CALLDATALOAD AND PUSH2 0x1E8 JUMPI PUSH2 0x1A4 PUSH1 0x14 SWAP2 PUSH2 0x7A0 JUMP JUMPDEST CALLDATALOAD GT PUSH2 0x1B5 JUMPI PUSH1 0x1 ADD PUSH1 0xFF AND PUSH2 0x17B JUMP JUMPDEST PUSH1 0x40 MLOAD PUSH3 0x461BCD PUSH1 0xE5 SHL DUP2 MSTORE PUSH1 0x20 PUSH1 0x4 DUP3 ADD MSTORE PUSH1 0xB PUSH1 0x24 DUP3 ADD MSTORE PUSH11 0x63617264206D617820323 PUSH1 0xAC SHL PUSH1 0x44 DUP3 ADD MSTORE PUSH1 0x64 SWAP1 REVERT JUMPDEST PUSH1 0x40 MLOAD PUSH3 0x461BCD PUSH1 0xE5 SHL DUP2 MSTORE PUSH1 0x20 PUSH1 0x4 DUP3 ADD MSTORE PUSH1 0xE PUSH1 0x24 DUP3 ADD MSTORE PUSH14 0x31B0B9321036BAB9BA1032BB32B7 PUSH1 0x91 SHL PUSH1 0x44 DUP3 ADD MSTORE PUSH1 0x64 SWAP1 REVERT JUMPDEST POP POP DUP11 DUP11 DUP11 SLOAD SWAP10 PUSH1 0x0 NOT DUP12 EQ PUSH2 0x4EE JUMPI PUSH1 0x1 DUP12 ADD DUP13 SSTORE PUSH1 0x40 MLOAD SWAP9 PUSH1 0xC0 DUP11 ADD DUP11 DUP2 LT PUSH8 0xFFFFFFFFFFFFFFFF DUP3 GT OR PUSH2 0x4DA JUMPI PUSH1 0x40 MSTORE DUP10 MSTORE PUSH1 0x20 DUP10 ADD SWAP7 DUP8 MSTORE PUSH1 0x40 DUP10 ADD SWAP10 DUP11 MSTORE PUSH1 0x60 DUP10 ADD SWAP4 DUP5 MSTORE PUSH1 0x80 DUP10 ADD SWAP5 DUP6 MSTORE PUSH1 0x40 MLOAD SWAP6 PUSH2 0x140 DUP8 ADD DUP8 DUP2 LT PUSH8 0xFFFFFFFFFFFFFFFF DUP3 GT OR PUSH2 0x4DA JUMPI PUSH1 0x40 MSTORE PUSH1 0xA4 DUP8 JUMPDEST PUSH2 0x1E4 DUP3 LT PUSH2 0x4CA JUMPI POP POP PUSH1 0xA0 DUP11 ADD SWAP7 DUP8 MSTORE PUSH1 0x40 MLOAD PUSH32 0x0 PUSH1 0x1 PUSH1 0x1 PUSH1 0xA0 SHL SUB AND SWAP10 SWAP1 SWAP5 PUSH2 0x2464 DUP1 DUP8 ADD SWAP6 SWAP1 PUSH8 0xFFFFFFFFFFFFFFFF DUP8 GT DUP9 DUP9 LT OR PUSH2 0x4B4 JUMPI SWAP2 DUP16 SWAP2 PUSH2 0x31E DUP16 DUP16 DUP12 SWAP10 SWAP8 SWAP6 PUSH2 0x300 SWAP12 SWAP10 SWAP8 PUSH2 0x7C9 DUP13 CODECOPY DUP10 MSTORE PUSH1 0x20 DUP10 ADD MSTORE CALLER PUSH1 0x40 DUP10 ADD MSTORE PUSH1 0x60 DUP9 ADD SWAP1 PUSH2 0x745 JUMP JUMPDEST PUSH2 0x240 DUP7 ADD MSTORE PUSH2 0x260 DUP6 ADD MSTORE PUSH2 0x224 CALLDATALOAD PUSH2 0x280 DUP6 ADD MSTORE PUSH2 0x2A0 DUP5 ADD MSTORE PUSH2 0x2C0 DUP4 ADD MSTORE PUSH2 0x2E0 DUP3 ADD MSTORE SUB ADD SWAP1 DUP11 CREATE DUP1 ISZERO PUSH2 0x4A9 JUMPI SWAP1 DUP10 SWAP6 SWAP5 SWAP4 SWAP3 SWAP2 PUSH1 0x1 DUP1 PUSH1 0xA0 SHL SUB AND SWAP8 DUP10 DUP8 MSTORE PUSH1 0x1 PUSH1 0x20 MSTORE PUSH1 0x40 DUP8 KECCAK256 DUP10 PUSH12 0xFFFFFFFFFFFFFFFFFFFFFFFF PUSH1 0xA0 SHL DUP3 SLOAD AND OR SWAP1 SSTORE DUP10 DUP8 MSTORE PUSH1 0x2 PUSH1 0x20 MSTORE PUSH1 0x40 DUP8 KECCAK256 SWAP5 DUP9 MLOAD DUP7 SSTORE MLOAD PUSH1 0x1 DUP7 ADD SSTORE MLOAD PUSH1 0x2 DUP6 ADD SSTORE MLOAD PUSH1 0x3 DUP5 ADD SSTORE MLOAD PUSH1 0x4 DUP4 ADD SSTORE MLOAD DUP4 JUMPDEST PUSH1 0xA DUP2 LT PUSH2 0x48F JUMPI POP POP POP DUP1 EXTCODESIZE ISZERO PUSH2 0x9D JUMPI DUP2 SWAP1 PUSH1 0x44 PUSH1 0x40 MLOAD DUP1 SWAP5 DUP2 SWAP4 PUSH4 0x4F01CAC9 PUSH1 0xE1 SHL DUP4 MSTORE DUP10 PUSH1 0x4 DUP5 ADD MSTORE DUP9 PUSH1 0x24 DUP5 ADD MSTORE GAS CALL DUP1 ISZERO PUSH2 0x484 JUMPI PUSH2 0x454 JUMPI JUMPDEST PUSH1 0x40 DUP5 DUP5 DUP1 DUP6 PUSH2 0x402 DUP6 MLOAD DUP1 SWAP3 PUSH2 0x745 JUMP JUMPDEST DUP4 PUSH32 0xA5103DCEDF36A11BDE52E68C33EDAC270E6DFCCABD36A822F96CEC99891C77F1 PUSH2 0x1E0 CALLER SWAP4 LOG4 PUSH1 0x20 DUP4 MLOAD PUSH2 0x437 DUP2 PUSH2 0x713 JUMP JUMPDEST DUP4 DUP2 MSTORE ADD SWAP1 DUP2 MSTORE DUP3 MLOAD SWAP2 DUP3 MSTORE MLOAD PUSH1 0x1 PUSH1 0x1 PUSH1 0xA0 SHL SUB AND PUSH1 0x20 DUP3 ADD MSTORE RETURN JUMPDEST PUSH8 0xFFFFFFFFFFFFFFFF DUP2 GT PUSH2 0x470 JUMPI PUSH1 0x40 SWAP1 DUP2 MSTORE SWAP4 POP DUP2 PUSH2 0x3F0 JUMP JUMPDEST PUSH4 0x4E487B71 PUSH1 0xE0 SHL DUP6 MSTORE PUSH1 0x41 PUSH1 0x4 MSTORE PUSH1 0x24 DUP6 REVERT JUMPDEST PUSH1 0x40 MLOAD RETURNDATASIZE DUP8 DUP3 RETURNDATACOPY RETURNDATASIZE SWAP1 REVERT JUMPDEST DUP2 MLOAD DUP2 DUP5 ADD PUSH1 0x5 ADD SSTORE DUP9 SWAP5 POP PUSH1 0x20 SWAP1 SWAP2 ADD SWAP1 PUSH1 0x1 ADD PUSH2 0x3B0 JUMP JUMPDEST PUSH1 0x40 MLOAD RETURNDATASIZE DUP12 DUP3 RETURNDATACOPY RETURNDATASIZE SWAP1 REVERT JUMPDEST POP POP PUSH4 0x4E487B71 PUSH1 0xE0 SHL DUP16 MSTORE PUSH1 0x41 PUSH1 0x4 MSTORE PUSH1 0x24 DUP16 REVERT JUMPDEST DUP2 CALLDATALOAD DUP2 MSTORE PUSH1 0x20 SWAP2 DUP3 ADD SWAP2 ADD PUSH2 0x293 JUMP JUMPDEST PUSH4 0x4E487B71 PUSH1 0xE0 SHL DUP15 MSTORE PUSH1 0x41 PUSH1 0x4 MSTORE PUSH1 0x24 DUP15 REVERT JUMPDEST PUSH4 0x4E487B71 PUSH1 0xE0 SHL DUP13 MSTORE PUSH1 0x11 PUSH1 0x4 MSTORE PUSH1 0x24 DUP13 REVERT JUMPDEST PUSH1 0x40 MLOAD PUSH3 0x461BCD PUSH1 0xE5 SHL DUP2 MSTORE PUSH1 0x20 PUSH1 0x4 DUP3 ADD MSTORE PUSH1 0xC PUSH1 0x24 DUP3 ADD MSTORE PUSH12 0xD4DED6CAE4E640DAC2F0407 PUSH1 0xA3 SHL PUSH1 0x44 DUP3 ADD MSTORE PUSH1 0x64 SWAP1 REVERT JUMPDEST DUP7 DUP2 LT ISZERO PUSH2 0x171 JUMPI PUSH1 0x40 MLOAD PUSH3 0x461BCD PUSH1 0xE5 SHL DUP2 MSTORE PUSH1 0x20 PUSH1 0x4 DUP3 ADD MSTORE PUSH1 0x9 PUSH1 0x24 DUP3 ADD MSTORE PUSH9 0x36B0BC101E1036B4B7 PUSH1 0xB9 SHL PUSH1 0x44 DUP3 ADD MSTORE PUSH1 0x64 SWAP1 REVERT JUMPDEST PUSH1 0x40 MLOAD PUSH3 0x461BCD PUSH1 0xE5 SHL DUP2 MSTORE PUSH1 0x20 PUSH1 0x4 DUP3 ADD MSTORE PUSH1 0xC PUSH1 0x24 DUP3 ADD MSTORE PUSH12 0x6D696E207374616B65203E3 PUSH1 0xA4 SHL PUSH1 0x44 DUP3 ADD MSTORE PUSH1 0x64 SWAP1 REVERT JUMPDEST PUSH1 0x40 MLOAD PUSH3 0x461BCD PUSH1 0xE5 SHL DUP2 MSTORE PUSH1 0x20 PUSH1 0x4 DUP3 ADD MSTORE PUSH1 0x9 PUSH1 0x24 DUP3 ADD MSTORE PUSH9 0xDAD2DC407C40DAC2F PUSH1 0xBB SHL PUSH1 0x44 DUP3 ADD MSTORE PUSH1 0x64 SWAP1 REVERT JUMPDEST PUSH1 0x40 MLOAD PUSH3 0x461BCD PUSH1 0xE5 SHL DUP2 MSTORE PUSH1 0x20 PUSH1 0x4 DUP3 ADD MSTORE PUSH1 0xB PUSH1 0x24 DUP3 ADD MSTORE PUSH11 0xE0D8C2F2CAE4E640645A7 PUSH1 0xAB SHL PUSH1 0x44 DUP3 ADD MSTORE PUSH1 0x64 SWAP1 REVERT JUMPDEST POP PUSH1 0x8 DUP5 GT ISZERO PUSH2 0x159 JUMP JUMPDEST DUP9 DUP1 REVERT JUMPDEST DUP8 DUP1 REVERT JUMPDEST DUP7 DUP1 REVERT JUMPDEST DUP6 DUP1 REVERT JUMPDEST DUP5 DUP1 REVERT JUMPDEST DUP4 DUP1 REVERT JUMPDEST POP CALLVALUE PUSH2 0xA1 JUMPI PUSH1 0x20 CALLDATASIZE PUSH1 0x3 NOT ADD SLT PUSH2 0xA1 JUMPI PUSH1 0x20 SWAP1 PUSH1 0x4 CALLDATALOAD DUP2 MSTORE PUSH1 0x1 DUP3 MSTORE PUSH1 0x40 PUSH1 0x1 DUP1 PUSH1 0xA0 SHL SUB SWAP2 KECCAK256 SLOAD AND PUSH1 0x40 MLOAD SWAP1 DUP2 MSTORE RETURN JUMPDEST POP CALLVALUE PUSH2 0xA1 JUMPI PUSH1 0x20 CALLDATASIZE PUSH1 0x3 NOT ADD SLT PUSH2 0xA1 JUMPI PUSH1 0x40 PUSH1 0xA0 SWAP2 PUSH1 0x4 CALLDATALOAD DUP2 MSTORE PUSH1 0x2 PUSH1 0x20 MSTORE KECCAK256 DUP1 SLOAD SWAP1 PUSH1 0x1 DUP2 ADD SLOAD SWAP1 PUSH1 0x2 DUP2 ADD SLOAD PUSH1 0x4 PUSH1 0x3 DUP4 ADD SLOAD SWAP3 ADD SLOAD SWAP3 PUSH1 0x40 MLOAD SWAP5 DUP6 MSTORE PUSH1 0x20 DUP6 ADD MSTORE PUSH1 0x40 DUP5 ADD MSTORE PUSH1 0x60 DUP4 ADD MSTORE PUSH1 0x80 DUP3 ADD MSTORE RETURN JUMPDEST POP CALLVALUE PUSH2 0xA1 JUMPI DUP1 PUSH1 0x3 NOT CALLDATASIZE ADD SLT PUSH2 0xA1 JUMPI PUSH1 0x40 MLOAD PUSH32 0x0 PUSH1 0x1 PUSH1 0x1 PUSH1 0xA0 SHL SUB AND DUP2 MSTORE PUSH1 0x20 SWAP1 RETURN JUMPDEST SWAP1 POP CALLVALUE PUSH2 0x9D JUMPI DUP2 PUSH1 0x3 NOT CALLDATASIZE ADD SLT PUSH2 0x9D JUMPI PUSH1 0x20 SWAP2 SLOAD DUP2 MSTORE RETURN JUMPDEST PUSH1 0x40 DUP2 ADD SWAP1 DUP2 LT PUSH8 0xFFFFFFFFFFFFFFFF DUP3 GT OR PUSH2 0x72F JUMPI PUSH1 0x40 MSTORE JUMP JUMPDEST PUSH4 0x4E487B71 PUSH1 0xE0 SHL PUSH1 0x0 MSTORE PUSH1 0x41 PUSH1 0x4 MSTORE PUSH1 0x24 PUSH1 0x0 REVERT JUMPDEST PUSH1 0xA0 DUP1 SWAP2 DUP1 MLOAD DUP5 MSTORE PUSH1 0x20 DUP2 ADD MLOAD PUSH1 0x20 DUP6 ADD MSTORE PUSH1 0x40 DUP2 ADD MLOAD PUSH1 0x40 DUP6 ADD MSTORE PUSH1 0x60 DUP2 ADD MLOAD PUSH1 0x60 DUP6 ADD MSTORE PUSH1 0x80 DUP2 ADD MLOAD PUSH1 0x80 DUP6 ADD MSTORE ADD MLOAD SWAP2 ADD PUSH1 0x0 SWAP1 JUMPDEST PUSH1 0xA DUP3 LT PUSH2 0x78A JUMPI POP POP POP JUMP JUMPDEST PUSH1 0x20 DUP1 PUSH1 0x1 SWAP3 DUP6 MLOAD DUP2 MSTORE ADD SWAP4 ADD SWAP2 ADD SWAP1 SWAP2 PUSH2 0x77D JUMP JUMPDEST PUSH1 0xA DUP2 LT ISZERO PUSH2 0x7B2 JUMPI PUSH1 0x5 SHL PUSH1 0xA4 ADD SWAP1 JUMP JUMPDEST PUSH4 0x4E487B71 PUSH1 0xE0 SHL PUSH1 0x0 MSTORE PUSH1 0x32 PUSH1 0x4 MSTORE PUSH1 0x24 PUSH1 0x0 REVERT INVALID PUSH2 0x1A0 PUSH1 0x40 MSTORE CALLVALUE PUSH2 0x385 JUMPI PUSH1 0x40 MLOAD PUSH2 0x2464 CODESIZE DUP2 SWAP1 SUB SWAP1 PUSH1 0x1F DUP3 ADD PUSH1 0x1F NOT AND DUP4 ADD SWAP1 PUSH1 0x1 PUSH1 0x1 PUSH1 0x40 SHL SUB DUP3 GT DUP5 DUP4 LT OR PUSH2 0x39A JUMPI DUP3 SWAP2 PUSH1 0x40 MSTORE DUP4 CODECOPY DUP2 ADD DUP2 DUP2 SUB SWAP1 PUSH2 0x300 DUP3 SLT PUSH2 0x385 JUMPI DUP3 MLOAD PUSH1 0x20 DUP5 ADD MLOAD PUSH1 0x1 PUSH1 0x1 PUSH1 0xA0 SHL SUB DUP2 AND SWAP1 DUP2 SWAP1 SUB PUSH2 0x385 JUMPI PUSH2 0x1E0 PUSH2 0x70 PUSH1 0x40 DUP8 ADD PUSH2 0x3B0 JUMP JUMPDEST SWAP5 PUSH1 0x5F NOT ADD SLT PUSH2 0x385 JUMPI PUSH1 0x40 MLOAD PUSH1 0xC0 DUP2 ADD PUSH1 0x1 PUSH1 0x1 PUSH1 0x40 SHL SUB DUP2 GT DUP3 DUP3 LT OR PUSH2 0x39A JUMPI PUSH1 0x40 MSTORE PUSH1 0x60 DUP7 ADD MLOAD DUP2 MSTORE PUSH1 0x80 DUP7 ADD MLOAD PUSH1 0x20 DUP3 ADD SWAP1 DUP2 MSTORE PUSH1 0xA0 DUP8 ADD MLOAD SWAP2 PUSH1 0x40 DUP2 ADD SWAP3 DUP4 MSTORE PUSH1 0xC0 DUP9 ADD MLOAD SWAP4 PUSH1 0x60 DUP3 ADD SWAP5 DUP6 MSTORE PUSH1 0xE0 DUP10 ADD MLOAD SWAP6 PUSH1 0x80 DUP4 ADD SWAP7 DUP8 MSTORE DUP8 PUSH2 0x11F DUP12 ADD SLT ISZERO PUSH2 0x385 JUMPI PUSH1 0x40 MLOAD SWAP8 PUSH2 0x140 DUP10 ADD PUSH1 0x1 PUSH1 0x1 PUSH1 0x40 SHL SUB DUP2 GT DUP11 DUP3 LT OR PUSH2 0x39A JUMPI PUSH1 0x40 MSTORE DUP9 PUSH2 0x240 DUP13 ADD SWAP2 DUP3 GT PUSH2 0x385 JUMPI PUSH2 0x100 DUP13 ADD SWAP1 JUMPDEST DUP3 DUP3 LT PUSH2 0x38A JUMPI POP POP PUSH2 0x127 SWAP1 PUSH1 0xA0 DUP6 ADD SWAP10 DUP11 MSTORE PUSH2 0x3B0 JUMP JUMPDEST PUSH2 0x260 DUP12 ADD MLOAD SWAP11 PUSH1 0x1 PUSH1 0x1 PUSH1 0x40 SHL SUB DUP13 AND DUP13 SUB PUSH2 0x385 JUMPI PUSH2 0x280 DUP2 ADD MLOAD PUSH2 0x2A0 DUP3 ADD MLOAD SWAP1 PUSH4 0xFFFFFFFF DUP3 AND DUP3 SUB PUSH2 0x385 JUMPI PUSH2 0x2C0 DUP4 ADD MLOAD SWAP3 PUSH2 0xFFFF DUP5 AND DUP5 SUB PUSH2 0x385 JUMPI PUSH2 0x2E0 PUSH2 0x177 SWAP2 ADD PUSH2 0x3B0 JUMP JUMPDEST SWAP14 DUP5 PUSH1 0x80 MSTORE PUSH1 0xA0 MSTORE PUSH1 0xC0 MSTORE PUSH1 0xE0 MSTORE PUSH2 0x100 MSTORE DUP3 ISZERO PUSH2 0x357 JUMPI PUSH1 0x1 PUSH1 0x1 PUSH1 0xA0 SHL SUB DUP11 AND ISZERO PUSH2 0x329 JUMPI PUSH1 0x1 PUSH1 0x1 PUSH1 0xA0 SHL SUB AND ISZERO ISZERO DUP1 PUSH2 0x317 JUMPI JUMPDEST PUSH2 0x2E0 JUMPI PUSH2 0x120 MSTORE PUSH2 0x140 MSTORE MLOAD PUSH1 0x0 SSTORE MLOAD PUSH1 0x1 SSTORE MLOAD PUSH1 0x2 SSTORE MLOAD PUSH1 0x3 SSTORE MLOAD PUSH1 0x4 SSTORE MLOAD PUSH1 0x0 JUMPDEST PUSH1 0xA DUP2 LT PUSH2 0x2CB JUMPI POP POP PUSH1 0xFF NOT PUSH1 0xF SLOAD AND PUSH1 0xF SSTORE PUSH2 0x160 MSTORE PUSH2 0x180 MSTORE PUSH1 0x40 MLOAD PUSH2 0x209F SWAP1 DUP2 PUSH2 0x3C5 DUP3 CODECOPY PUSH1 0x80 MLOAD DUP2 DUP2 DUP2 PUSH2 0xD69 ADD MSTORE PUSH2 0x1B2E ADD MSTORE PUSH1 0xA0 MLOAD DUP2 PUSH2 0x1BA3 ADD MSTORE PUSH1 0xC0 MLOAD DUP2 PUSH2 0x1B7D ADD MSTORE PUSH1 0xE0 MLOAD DUP2 PUSH2 0x1BFD ADD MSTORE PUSH2 0x100 MLOAD DUP2 PUSH2 0x1BD3 ADD MSTORE PUSH2 0x120 MLOAD DUP2 DUP2 DUP2 PUSH2 0x379 ADD MSTORE DUP2 DUP2 PUSH2 0xAC8 ADD MSTORE DUP2 DUP2 PUSH2 0xC8B ADD MSTORE DUP2 DUP2 PUSH2 0x137C ADD MSTORE DUP2 DUP2 PUSH2 0x13FF ADD MSTORE DUP2 DUP2 PUSH2 0x15B7 ADD MSTORE DUP2 DUP2 PUSH2 0x188F ADD MSTORE DUP2 DUP2 PUSH2 0x19F0 ADD MSTORE DUP2 DUP2 PUSH2 0x1C56 ADD MSTORE DUP2 DUP2 PUSH2 0x1D19 ADD MSTORE PUSH2 0x1DAA ADD MSTORE PUSH2 0x140 MLOAD DUP2 DUP2 DUP2 PUSH2 0x2B5 ADD MSTORE DUP2 DUP2 PUSH2 0xAE9 ADD MSTORE DUP2 DUP2 PUSH2 0x18B1 ADD MSTORE PUSH2 0x19B1 ADD MSTORE PUSH2 0x160 MLOAD DUP2 DUP2 DUP2 PUSH2 0x607 ADD MSTORE PUSH2 0xBEB ADD MSTORE PUSH2 0x180 MLOAD DUP2 DUP2 DUP2 PUSH2 0x2FA ADD MSTORE DUP2 DUP2 PUSH2 0x4B3 ADD MSTORE PUSH2 0x1CD4 ADD MSTORE RETURN JUMPDEST PUSH1 0x1 SWAP1 PUSH1 0x20 DUP4 MLOAD SWAP4 ADD SWAP3 DUP2 PUSH1 0x5 ADD SSTORE ADD PUSH2 0x1D3 JUMP JUMPDEST PUSH1 0x40 MLOAD PUSH3 0x461BCD PUSH1 0xE5 SHL DUP2 MSTORE PUSH1 0x20 PUSH1 0x4 DUP3 ADD MSTORE PUSH1 0xF PUSH1 0x24 DUP3 ADD MSTORE PUSH15 0x2174776F2072616E646F6D6E657373 PUSH1 0x88 SHL PUSH1 0x44 DUP3 ADD MSTORE PUSH1 0x64 SWAP1 REVERT JUMPDEST POP PUSH1 0x1 PUSH1 0x1 PUSH1 0xA0 SHL SUB DUP11 AND ISZERO ISZERO PUSH2 0x1AF JUMP JUMPDEST PUSH1 0x40 MLOAD PUSH3 0x461BCD PUSH1 0xE5 SHL DUP2 MSTORE PUSH1 0x20 PUSH1 0x4 DUP3 ADD MSTORE PUSH1 0x6 PUSH1 0x24 DUP3 ADD MSTORE PUSH6 0x10B7BBB732B9 PUSH1 0xD1 SHL PUSH1 0x44 DUP3 ADD MSTORE PUSH1 0x64 SWAP1 REVERT JUMPDEST PUSH1 0x40 MLOAD PUSH3 0x461BCD PUSH1 0xE5 SHL DUP2 MSTORE PUSH1 0x20 PUSH1 0x4 DUP3 ADD MSTORE PUSH1 0x6 PUSH1 0x24 DUP3 ADD MSTORE PUSH6 0x85D985D5B1D PUSH1 0xD2 SHL PUSH1 0x44 DUP3 ADD MSTORE PUSH1 0x64 SWAP1 REVERT JUMPDEST PUSH1 0x0 DUP1 REVERT JUMPDEST DUP2 MLOAD DUP2 MSTORE PUSH1 0x20 SWAP2 DUP3 ADD SWAP2 ADD PUSH2 0x10E JUMP JUMPDEST PUSH4 0x4E487B71 PUSH1 0xE0 SHL PUSH1 0x0 MSTORE PUSH1 0x41 PUSH1 0x4 MSTORE PUSH1 0x24 PUSH1 0x0 REVERT JUMPDEST MLOAD SWAP1 PUSH1 0x1 PUSH1 0x1 PUSH1 0xA0 SHL SUB DUP3 AND DUP3 SUB PUSH2 0x385 JUMPI JUMP INVALID PUSH1 0x80 PUSH1 0x40 MSTORE PUSH1 0x4 CALLDATASIZE LT ISZERO PUSH2 0x12 JUMPI PUSH1 0x0 DUP1 REVERT JUMPDEST PUSH1 0x0 CALLDATALOAD PUSH1 0xE0 SHR DUP1 PUSH4 0x496561D EQ PUSH2 0x157 JUMPI DUP1 PUSH4 0x1FE543E3 EQ PUSH2 0x152 JUMPI DUP1 PUSH4 0x24E7964A EQ PUSH2 0x14D JUMPI DUP1 PUSH4 0x31DB047B EQ PUSH2 0x148 JUMPI DUP1 PUSH4 0x3588FD80 EQ PUSH2 0x143 JUMPI DUP1 PUSH4 0x424AEDED EQ PUSH2 0x13E JUMPI DUP1 PUSH4 0x733D5038 EQ PUSH2 0x139 JUMPI DUP1 PUSH4 0x79502C55 EQ PUSH2 0x134 JUMPI DUP1 PUSH4 0x8B5B9CCC EQ PUSH2 0x12F JUMPI DUP1 PUSH4 0x999DACB9 EQ PUSH2 0x12A JUMPI DUP1 PUSH4 0xAD5C21D9 EQ PUSH2 0x125 JUMPI DUP1 PUSH4 0xB0652A88 EQ PUSH2 0x120 JUMPI DUP1 PUSH4 0xC2E52206 EQ PUSH2 0x11B JUMPI DUP1 PUSH4 0xD1F9C24D EQ PUSH2 0x116 JUMPI DUP1 PUSH4 0xD4F77B1C EQ PUSH2 0x111 JUMPI DUP1 PUSH4 0xD65AB5F2 EQ PUSH2 0x10C JUMPI DUP1 PUSH4 0xD7C81B55 EQ PUSH2 0x107 JUMPI DUP1 PUSH4 0xE6EC2982 EQ PUSH2 0x102 JUMPI DUP1 PUSH4 0xF71D96CB EQ PUSH2 0xFD JUMPI PUSH4 0xFB9BDAB4 EQ PUSH2 0xF8 JUMPI PUSH1 0x0 DUP1 REVERT JUMPDEST PUSH2 0xD48 JUMP JUMPDEST PUSH2 0xCFF JUMP JUMPDEST PUSH2 0xCAE JUMP JUMPDEST PUSH2 0xC73 JUMP JUMPDEST PUSH2 0xBD8 JUMP JUMPDEST PUSH2 0xA14 JUMP JUMPDEST PUSH2 0x9EA JUMP JUMPDEST PUSH2 0x9AC JUMP JUMPDEST PUSH2 0x6FD JUMP JUMPDEST PUSH2 0x66A JUMP JUMPDEST PUSH2 0x5F1 JUMP JUMPDEST PUSH2 0x573 JUMP JUMPDEST PUSH2 0x4E2 JUMP JUMPDEST PUSH2 0x49D JUMP JUMPDEST PUSH2 0x41A JUMP JUMPDEST PUSH2 0x3ED JUMP JUMPDEST PUSH2 0x2E4 JUMP JUMPDEST PUSH2 0x29F JUMP JUMPDEST PUSH2 0x206 JUMP JUMPDEST PUSH2 0x177 JUMP JUMPDEST PUSH1 0x4 CALLDATALOAD SWAP1 PUSH1 0x1 PUSH1 0x1 PUSH1 0xA0 SHL SUB DUP3 AND DUP3 SUB PUSH2 0x172 JUMPI JUMP JUMPDEST PUSH1 0x0 DUP1 REVERT JUMPDEST CALLVALUE PUSH2 0x172 JUMPI PUSH1 0x20 CALLDATASIZE PUSH1 0x3 NOT ADD SLT PUSH2 0x172 JUMPI PUSH1 0x1 PUSH1 0x1 PUSH1 0xA0 SHL SUB PUSH2 0x198 PUSH2 0x15C JUMP JUMPDEST AND PUSH1 0x0 MSTORE PUSH1 0x13 PUSH1 0x20 MSTORE PUSH1 0x20 PUSH1 0x40 PUSH1 0x0 KECCAK256 SLOAD PUSH1 0x40 MLOAD SWAP1 DUP2 MSTORE RETURN JUMPDEST PUSH4 0x4E487B71 PUSH1 0xE0 SHL PUSH1 0x0 MSTORE PUSH1 0x41 PUSH1 0x4 MSTORE PUSH1 0x24 PUSH1 0x0 REVERT JUMPDEST SWAP1 PUSH1 0x1F DUP1 NOT SWAP2 ADD AND DUP2 ADD SWAP1 DUP2 LT PUSH8 0xFFFFFFFFFFFFFFFF DUP3 GT OR PUSH2 0x1E9 JUMPI PUSH1 0x40 MSTORE JUMP JUMPDEST PUSH2 0x1B1 JUMP JUMPDEST PUSH8 0xFFFFFFFFFFFFFFFF DUP2 GT PUSH2 0x1E9 JUMPI PUSH1 0x5 SHL PUSH1 0x20 ADD SWAP1 JUMP JUMPDEST CALLVALUE PUSH2 0x172 JUMPI PUSH1 0x40 CALLDATASIZE PUSH1 0x3 NOT ADD SLT PUSH2 0x172 JUMPI PUSH1 0x4 CALLDATALOAD PUSH1 0x24 CALLDATALOAD PUSH8 0xFFFFFFFFFFFFFFFF DUP2 GT PUSH2 0x172 JUMPI CALLDATASIZE PUSH1 0x23 DUP3 ADD SLT ISZERO PUSH2 0x172 JUMPI DUP1 PUSH1 0x4 ADD CALLDATALOAD SWAP2 PUSH2 0x246 DUP4 PUSH2 0x1EE JUMP JUMPDEST SWAP2 PUSH2 0x254 PUSH1 0x40 MLOAD SWAP4 DUP5 PUSH2 0x1C7 JUMP JUMPDEST DUP4 DUP4 MSTORE PUSH1 0x24 PUSH1 0x20 DUP5 ADD SWAP5 PUSH1 0x5 SHL DUP3 ADD ADD SWAP1 CALLDATASIZE DUP3 GT PUSH2 0x172 JUMPI PUSH1 0x24 ADD SWAP4 JUMPDEST DUP2 DUP6 LT PUSH2 0x284 JUMPI PUSH2 0x282 DUP5 DUP5 PUSH2 0xD66 JUMP JUMPDEST STOP JUMPDEST DUP5 CALLDATALOAD DUP2 MSTORE PUSH1 0x20 SWAP5 DUP6 ADD SWAP5 ADD PUSH2 0x271 JUMP JUMPDEST PUSH1 0x0 SWAP2 SUB SLT PUSH2 0x172 JUMPI JUMP JUMPDEST CALLVALUE PUSH2 0x172 JUMPI PUSH1 0x0 CALLDATASIZE PUSH1 0x3 NOT ADD SLT PUSH2 0x172 JUMPI PUSH1 0x40 MLOAD PUSH32 0x0 PUSH1 0x1 PUSH1 0x1 PUSH1 0xA0 SHL SUB AND DUP2 MSTORE PUSH1 0x20 SWAP1 RETURN JUMPDEST CALLVALUE PUSH2 0x172 JUMPI PUSH1 0x20 CALLDATASIZE PUSH1 0x3 NOT ADD SLT PUSH2 0x172 JUMPI PUSH1 0x4 CALLDATALOAD PUSH32 0x0 PUSH1 0x1 PUSH1 0x1 PUSH1 0xA0 SHL SUB AND CALLER SUB PUSH2 0x3BF JUMPI PUSH2 0x377 SWAP1 PUSH2 0x34C PUSH1 0x1 PUSH2 0x33D PUSH1 0xF SLOAD PUSH1 0xFF AND SWAP1 JUMP JUMPDEST PUSH2 0x346 DUP2 PUSH2 0x9CA JUMP JUMPDEST EQ PUSH2 0xE0F JUMP JUMPDEST PUSH2 0x357 DUP2 ISZERO ISZERO PUSH2 0xE46 JUMP JUMPDEST PUSH2 0x369 PUSH1 0x2 PUSH1 0xFF NOT PUSH1 0xF SLOAD AND OR PUSH1 0xF SSTORE JUMP JUMPDEST PUSH2 0x372 DUP2 PUSH2 0x13F0 JUMP JUMPDEST PUSH2 0x15A5 JUMP JUMPDEST PUSH32 0x0 PUSH32 0x50AD08F58A27F2851D7E3A1B3A6A46B290F2CE677E99642D30FF639721E77790 PUSH1 0x0 DUP1 LOG2 STOP JUMPDEST PUSH1 0x40 MLOAD PUSH3 0x461BCD PUSH1 0xE5 SHL DUP2 MSTORE PUSH1 0x20 PUSH1 0x4 DUP3 ADD MSTORE PUSH1 0x6 PUSH1 0x24 DUP3 ADD MSTORE PUSH6 0x2172656C6179 PUSH1 0xD0 SHL PUSH1 0x44 DUP3 ADD MSTORE PUSH1 0x64 SWAP1 REVERT JUMPDEST CALLVALUE PUSH2 0x172 JUMPI PUSH1 0x0 CALLDATASIZE PUSH1 0x3 NOT ADD SLT PUSH2 0x172 JUMPI PUSH1 0x20 PUSH2 0x408 PUSH2 0xED0 JUMP JUMPDEST PUSH1 0x40 MLOAD PUSH1 0x1 PUSH1 0x1 PUSH1 0xA0 SHL SUB SWAP1 SWAP2 AND DUP2 MSTORE RETURN JUMPDEST CALLVALUE PUSH2 0x172 JUMPI PUSH1 0x20 CALLDATASIZE PUSH1 0x3 NOT ADD SLT PUSH2 0x172 JUMPI PUSH1 0x1 PUSH1 0x1 PUSH1 0xA0 SHL SUB PUSH2 0x43B PUSH2 0x15C JUMP JUMPDEST AND PUSH1 0x0 MSTORE PUSH1 0x11 PUSH1 0x20 MSTORE PUSH1 0x40 PUSH1 0x0 KECCAK256 PUSH1 0x1 DUP1 PUSH1 0xA0 SHL SUB DUP2 SLOAD AND PUSH1 0x1 DUP3 ADD SLOAD SWAP1 PUSH1 0xD PUSH1 0x2 DUP5 ADD SLOAD SWAP4 ADD SLOAD PUSH1 0xFF PUSH1 0x40 MLOAD SWAP5 DUP6 SWAP5 PUSH1 0xA0 DUP7 ADD SWAP5 PUSH1 0x1 DUP1 PUSH1 0xA0 SHL SUB AND DUP7 MSTORE PUSH1 0x20 DUP7 ADD MSTORE DUP2 DUP2 AND ISZERO ISZERO PUSH1 0x40 DUP7 ADD MSTORE PUSH1 0x8 SHR AND ISZERO ISZERO PUSH1 0x60 DUP5 ADD MSTORE PUSH1 0x80 DUP4 ADD MSTORE SUB SWAP1 RETURN JUMPDEST CALLVALUE PUSH2 0x172 JUMPI PUSH1 0x0 CALLDATASIZE PUSH1 0x3 NOT ADD SLT PUSH2 0x172 JUMPI PUSH1 0x40 MLOAD PUSH32 0x0 PUSH1 0x1 PUSH1 0x1 PUSH1 0xA0 SHL SUB AND DUP2 MSTORE PUSH1 0x20 SWAP1 RETURN JUMPDEST CALLVALUE PUSH2 0x172 JUMPI PUSH1 0x0 CALLDATASIZE PUSH1 0x3 NOT ADD SLT PUSH2 0x172 JUMPI PUSH1 0xA0 PUSH1 0x0 SLOAD PUSH1 0x1 SLOAD PUSH1 0x2 SLOAD PUSH1 0x3 SLOAD SWAP1 PUSH1 0x4 SLOAD SWAP3 PUSH1 0x40 MLOAD SWAP5 DUP6 MSTORE PUSH1 0x20 DUP6 ADD MSTORE PUSH1 0x40 DUP5 ADD MSTORE PUSH1 0x60 DUP4 ADD MSTORE PUSH1 0x80 DUP3 ADD MSTORE RETURN JUMPDEST SWAP1 PUSH1 0x20 DUP1 DUP4 MLOAD SWAP3 DUP4 DUP2 MSTORE ADD SWAP3 ADD SWAP1 PUSH1 0x0 JUMPDEST DUP2 DUP2 LT PUSH2 0x540 JUMPI POP POP POP SWAP1 JUMP JUMPDEST DUP3 MLOAD PUSH1 0x1 PUSH1 0x1 PUSH1 0xA0 SHL SUB AND DUP5 MSTORE PUSH1 0x20 SWAP4 DUP5 ADD SWAP4 SWAP1 SWAP3 ADD SWAP2 PUSH1 0x1 ADD PUSH2 0x533 JUMP JUMPDEST SWAP1 PUSH1 0x20 PUSH2 0x570 SWAP3 DUP2 DUP2 MSTORE ADD SWAP1 PUSH2 0x522 JUMP JUMPDEST SWAP1 JUMP JUMPDEST CALLVALUE PUSH2 0x172 JUMPI PUSH1 0x0 CALLDATASIZE PUSH1 0x3 NOT ADD SLT PUSH2 0x172 JUMPI PUSH1 0x40 MLOAD DUP1 PUSH1 0x20 PUSH1 0x10 SLOAD SWAP2 DUP3 DUP2 MSTORE ADD SWAP1 PUSH1 0x10 PUSH1 0x0 MSTORE PUSH1 0x0 DUP1 MLOAD PUSH1 0x20 PUSH2 0x204A DUP4 CODECOPY DUP2 MLOAD SWAP2 MSTORE SWAP1 PUSH1 0x0 JUMPDEST DUP2 DUP2 LT PUSH2 0x5D2 JUMPI PUSH2 0x5CE DUP6 PUSH2 0x5C2 DUP2 DUP8 SUB DUP3 PUSH2 0x1C7 JUMP JUMPDEST PUSH1 0x40 MLOAD SWAP2 DUP3 SWAP2 DUP3 PUSH2 0x55F JUMP JUMPDEST SUB SWAP1 RETURN JUMPDEST DUP3 SLOAD PUSH1 0x1 PUSH1 0x1 PUSH1 0xA0 SHL SUB AND DUP5 MSTORE PUSH1 0x20 SWAP1 SWAP4 ADD SWAP3 PUSH1 0x1 SWAP3 DUP4 ADD SWAP3 ADD PUSH2 0x5AB JUMP JUMPDEST CALLVALUE PUSH2 0x172 JUMPI PUSH1 0x0 CALLDATASIZE PUSH1 0x3 NOT ADD SLT PUSH2 0x172 JUMPI PUSH1 0x40 MLOAD PUSH32 0x0 PUSH1 0x1 PUSH1 0x1 PUSH1 0xA0 SHL SUB AND DUP2 MSTORE PUSH1 0x20 SWAP1 RETURN JUMPDEST PUSH2 0x160 DUP2 ADD SWAP4 SWAP3 SWAP2 PUSH1 0x0 DUP3 JUMPDEST PUSH1 0xA DUP3 LT PUSH2 0x654 JUMPI POP POP POP PUSH2 0x140 ADD MSTORE JUMP JUMPDEST PUSH1 0x20 DUP1 PUSH1 0x1 SWAP3 DUP6 MLOAD DUP2 MSTORE ADD SWAP4 ADD SWAP2 ADD SWAP1 SWAP2 PUSH2 0x642 JUMP JUMPDEST CALLVALUE PUSH2 0x172 JUMPI PUSH1 0x20 CALLDATASIZE PUSH1 0x3 NOT ADD SLT PUSH2 0x172 JUMPI PUSH2 0x683 PUSH2 0x15C JUMP JUMPDEST PUSH2 0x140 SWAP1 DUP2 PUSH1 0x40 MLOAD PUSH2 0x695 DUP3 DUP3 PUSH2 0x1C7 JUMP JUMPDEST CALLDATASIZE SWAP1 CALLDATACOPY PUSH1 0x1 PUSH1 0x1 PUSH1 0xA0 SHL SUB AND PUSH1 0x0 SWAP1 DUP2 MSTORE PUSH1 0x11 PUSH1 0x20 MSTORE PUSH1 0x40 DUP1 DUP3 KECCAK256 PUSH1 0xD DUP2 ADD SLOAD SWAP2 MLOAD SWAP2 SWAP4 SWAP2 SWAP3 PUSH1 0x3 SWAP1 SWAP2 ADD SWAP1 DUP4 JUMPDEST PUSH1 0xA DUP3 LT PUSH2 0x6E7 JUMPI POP POP POP PUSH2 0x6D8 SWAP1 DUP3 PUSH2 0x1C7 JUMP JUMPDEST PUSH2 0x5CE PUSH1 0x40 MLOAD SWAP3 DUP4 SWAP3 DUP4 PUSH2 0x636 JUMP JUMPDEST PUSH1 0x1 PUSH1 0x20 DUP2 SWAP3 DUP6 SLOAD DUP2 MSTORE ADD SWAP4 ADD SWAP2 ADD SWAP1 SWAP2 PUSH2 0x6C3 JUMP JUMPDEST CALLVALUE PUSH2 0x172 JUMPI PUSH1 0x40 CALLDATASIZE PUSH1 0x3 NOT ADD SLT PUSH2 0x172 JUMPI PUSH2 0x716 PUSH2 0x15C JUMP JUMPDEST PUSH1 0x24 CALLDATALOAD SWAP1 PUSH1 0xFF DUP3 AND SWAP2 DUP3 DUP2 SUB PUSH2 0x172 JUMPI PUSH2 0x746 PUSH1 0x2 PUSH2 0x737 PUSH1 0xF SLOAD PUSH1 0xFF AND SWAP1 JUMP JUMPDEST PUSH2 0x740 DUP2 PUSH2 0x9CA JUMP JUMPDEST EQ PUSH2 0xF23 JUMP JUMPDEST PUSH2 0x77C PUSH2 0x76C PUSH2 0x757 PUSH1 0x12 SLOAD PUSH2 0xCDF JUMP JUMPDEST SWAP1 SLOAD PUSH1 0x3 SWAP2 SWAP1 SWAP2 SHL SHR PUSH1 0x1 PUSH1 0x1 PUSH1 0xA0 SHL SUB AND SWAP1 JUMP JUMPDEST PUSH1 0x1 PUSH1 0x1 PUSH1 0xA0 SHL SUB AND CALLER EQ PUSH2 0xF5A JUMP JUMPDEST CALLER PUSH1 0x0 SWAP1 DUP2 MSTORE PUSH1 0x11 PUSH1 0x20 MSTORE PUSH1 0x40 SWAP1 KECCAK256 PUSH2 0x7AD SWAP1 PUSH2 0x7A8 SWAP1 PUSH2 0x7A4 SWAP1 PUSH1 0x2 ADD SLOAD PUSH1 0x8 SHR PUSH1 0xFF AND SWAP1 JUMP JUMPDEST ISZERO SWAP1 JUMP JUMPDEST PUSH2 0xF8E JUMP JUMPDEST PUSH1 0x1 PUSH1 0x1 PUSH1 0xA0 SHL SUB DUP3 AND SWAP3 PUSH2 0x7C3 DUP5 ISZERO ISZERO PUSH2 0xFC0 JUMP JUMPDEST DUP1 PUSH2 0x88D JUMPI POP POP PUSH2 0x813 DUP2 PUSH2 0x7F9 PUSH1 0xD PUSH2 0x7F0 DUP2 SWAP6 PUSH1 0x1 DUP1 PUSH1 0xA0 SHL SUB AND PUSH1 0x0 MSTORE PUSH1 0x11 PUSH1 0x20 MSTORE PUSH1 0x40 PUSH1 0x0 KECCAK256 SWAP1 JUMP JUMPDEST ADD SLOAD ISZERO ISZERO PUSH2 0x10B5 JUMP JUMPDEST PUSH1 0x1 PUSH1 0x1 PUSH1 0xA0 SHL SUB AND PUSH1 0x0 SWAP1 DUP2 MSTORE PUSH1 0x11 PUSH1 0x20 MSTORE PUSH1 0x40 SWAP1 KECCAK256 SWAP1 JUMP JUMPDEST ADD PUSH2 0x81E DUP2 SLOAD PUSH2 0x1099 JUMP JUMPDEST SWAP1 SSTORE CALLER PUSH1 0x0 SWAP1 DUP2 MSTORE PUSH1 0x11 PUSH1 0x20 MSTORE PUSH1 0x40 SWAP1 KECCAK256 PUSH1 0xD ADD PUSH2 0x83C DUP2 SLOAD PUSH2 0x10A6 JUMP JUMPDEST SWAP1 SSTORE PUSH1 0x40 MLOAD PUSH1 0x0 DUP2 MSTORE CALLER SWAP2 SWAP1 PUSH32 0x345AB5394E10F7B605071092C87EA512B2B9F3A616F8C85B996C2AA8A418C69C SWAP1 PUSH1 0x20 SWAP1 LOG3 JUMPDEST PUSH2 0x877 PUSH2 0x16E7 JUMP JUMPDEST PUSH2 0x87F PUSH2 0x1710 JUMP JUMPDEST PUSH2 0x885 JUMPI STOP JUMPDEST PUSH2 0x282 PUSH2 0x183E JUMP JUMPDEST PUSH2 0x92B PUSH2 0x8FE PUSH2 0x968 SWAP4 SWAP6 SWAP5 PUSH2 0x8B2 DUP5 PUSH1 0x1 PUSH2 0x8E7 SWAP7 LT ISZERO SWAP1 DUP2 PUSH2 0x9A0 JUMPI JUMPDEST POP PUSH2 0xFF6 JUMP JUMPDEST PUSH1 0x3 PUSH2 0x8BD DUP9 PUSH2 0x102E JUMP JUMPDEST SWAP5 DUP3 PUSH2 0x7F9 PUSH2 0x8F7 PUSH2 0x8ED DUP10 DUP7 PUSH2 0x8E7 DUP3 SWAP10 PUSH1 0x1 DUP1 PUSH1 0xA0 SHL SUB AND PUSH1 0x0 MSTORE PUSH1 0x11 PUSH1 0x20 MSTORE PUSH1 0x40 PUSH1 0x0 KECCAK256 SWAP1 JUMP JUMPDEST ADD PUSH2 0x1053 JUMP JUMPDEST SWAP1 SLOAD SWAP1 PUSH1 0x3 SHL SHR SWAP1 JUMP JUMPDEST ISZERO ISZERO PUSH2 0x1063 JUMP JUMPDEST PUSH2 0x914 PUSH2 0x90F DUP3 DUP5 SLOAD SWAP1 PUSH1 0x3 SHL SHR SWAP1 JUMP JUMPDEST PUSH2 0x1099 JUMP JUMPDEST DUP3 SLOAD PUSH1 0x0 NOT PUSH1 0x3 SWAP4 SWAP1 SWAP4 SHL SWAP3 DUP4 SHL NOT AND SWAP2 SHL OR SWAP1 SSTORE JUMP JUMPDEST CALLER PUSH1 0x0 SWAP1 DUP2 MSTORE PUSH1 0x11 PUSH1 0x20 MSTORE PUSH1 0x40 SWAP1 KECCAK256 PUSH2 0x962 SWAP1 PUSH2 0x94C SWAP1 DUP4 SWAP1 PUSH1 0x3 SWAP1 PUSH2 0x8E7 JUMP JUMPDEST PUSH2 0x914 PUSH2 0x95D DUP3 DUP5 SLOAD SWAP1 PUSH1 0x3 SHL SHR SWAP1 JUMP JUMPDEST PUSH2 0x10A6 JUMP JUMPDEST CALLER PUSH2 0x1674 JUMP JUMPDEST PUSH1 0x40 MLOAD PUSH1 0xFF SWAP3 SWAP1 SWAP3 AND DUP3 MSTORE CALLER SWAP2 PUSH32 0x345AB5394E10F7B605071092C87EA512B2B9F3A616F8C85B996C2AA8A418C69C SWAP1 PUSH1 0x20 SWAP1 LOG3 PUSH2 0x86F JUMP JUMPDEST PUSH1 0xA SWAP2 POP GT ISZERO CODESIZE PUSH2 0x8AC JUMP JUMPDEST CALLVALUE PUSH2 0x172 JUMPI PUSH1 0x0 CALLDATASIZE PUSH1 0x3 NOT ADD SLT PUSH2 0x172 JUMPI PUSH1 0x20 PUSH1 0x10 SLOAD PUSH1 0x40 MLOAD SWAP1 DUP2 MSTORE RETURN JUMPDEST PUSH1 0x4 GT ISZERO PUSH2 0x9D4 JUMPI JUMP JUMPDEST PUSH4 0x4E487B71 PUSH1 0xE0 SHL PUSH1 0x0 MSTORE PUSH1 0x21 PUSH1 0x4 MSTORE PUSH1 0x24 PUSH1 0x0 REVERT JUMPDEST CALLVALUE PUSH2 0x172 JUMPI PUSH1 0x0 CALLDATASIZE PUSH1 0x3 NOT ADD SLT PUSH2 0x172 JUMPI PUSH1 0xFF PUSH1 0xF SLOAD AND PUSH1 0x40 MLOAD PUSH1 0x4 DUP3 LT ISZERO PUSH2 0x9D4 JUMPI PUSH1 0x20 SWAP2 DUP2 MSTORE RETURN JUMPDEST PUSH1 0x0 CALLDATASIZE PUSH1 0x3 NOT ADD SLT PUSH2 0x172 JUMPI PUSH2 0xA3E PUSH2 0xA2F PUSH1 0xF SLOAD PUSH1 0xFF AND SWAP1 JUMP JUMPDEST PUSH2 0xA38 DUP2 PUSH2 0x9CA JUMP JUMPDEST ISZERO PUSH2 0x10EC JUMP JUMPDEST CALLER PUSH1 0x0 SWAP1 DUP2 MSTORE PUSH1 0x11 PUSH1 0x20 MSTORE PUSH1 0x40 SWAP1 KECCAK256 PUSH1 0x2 ADD SLOAD PUSH2 0xA5E SWAP1 PUSH1 0xFF AND ISZERO PUSH2 0x1123 JUMP JUMPDEST PUSH2 0xA6D PUSH1 0x10 SLOAD PUSH1 0x1 SLOAD GT PUSH2 0x1158 JUMP JUMPDEST PUSH1 0x3 SLOAD DUP1 PUSH2 0xBB1 JUMPI POP PUSH2 0xA83 PUSH1 0x2 SLOAD CALLVALUE EQ PUSH2 0x11BE JUMP JUMPDEST CALLER PUSH1 0x0 SWAP1 DUP2 MSTORE PUSH1 0x11 PUSH1 0x20 MSTORE PUSH1 0x40 SWAP1 KECCAK256 PUSH2 0xABD SWAP1 PUSH1 0x2 SWAP1 DUP1 SLOAD PUSH1 0x1 PUSH1 0x1 PUSH1 0xA0 SHL SUB NOT AND CALLER OR DUP2 SSTORE CALLVALUE PUSH1 0x1 DUP3 ADD SSTORE ADD PUSH1 0x1 PUSH1 0xFF NOT DUP3 SLOAD AND OR SWAP1 SSTORE JUMP JUMPDEST PUSH2 0xAC6 CALLER PUSH2 0x11F8 JUMP JUMPDEST PUSH32 0x0 PUSH32 0x0 PUSH1 0x1 PUSH1 0x1 PUSH1 0xA0 SHL SUB AND DUP1 EXTCODESIZE ISZERO PUSH2 0x172 JUMPI PUSH1 0x40 MLOAD PUSH4 0x28BA35D9 PUSH1 0xE1 SHL DUP2 MSTORE PUSH1 0x4 DUP2 ADD DUP4 SWAP1 MSTORE CALLER PUSH1 0x24 DUP3 ADD MSTORE SWAP1 PUSH1 0x0 SWAP1 DUP3 SWAP1 PUSH1 0x44 SWAP1 DUP3 SWAP1 CALLVALUE SWAP1 GAS CALL DUP1 ISZERO PUSH2 0xBAC JUMPI PUSH2 0xB91 JUMPI JUMPDEST POP PUSH1 0x40 MLOAD CALLVALUE DUP2 MSTORE CALLER SWAP2 SWAP1 PUSH32 0x3DFBE1FCB4E2D61F3B4A0C93D8F814C92250618B3387F396CC9FC9FAFE2C203 SWAP1 PUSH1 0x20 SWAP1 LOG3 PUSH1 0x10 SLOAD PUSH1 0x1 SLOAD EQ PUSH2 0xB89 JUMPI STOP JUMPDEST PUSH2 0x282 PUSH2 0x1B1C JUMP JUMPDEST DUP1 PUSH2 0xBA0 PUSH1 0x0 PUSH2 0xBA6 SWAP4 PUSH2 0x1C7 JUMP JUMPDEST DUP1 PUSH2 0x294 JUMP JUMPDEST CODESIZE PUSH2 0xB4C JUMP JUMPDEST PUSH2 0x1252 JUMP JUMPDEST PUSH2 0xBC8 SWAP1 PUSH1 0x2 SLOAD CALLVALUE LT ISZERO SWAP1 DUP2 PUSH2 0xBCD JUMPI JUMPDEST POP PUSH2 0x118A JUMP JUMPDEST PUSH2 0xA83 JUMP JUMPDEST SWAP1 POP CALLVALUE GT ISZERO CODESIZE PUSH2 0xBC2 JUMP JUMPDEST CALLVALUE PUSH2 0x172 JUMPI PUSH1 0x0 CALLDATASIZE PUSH1 0x3 NOT ADD SLT PUSH2 0x172 JUMPI PUSH32 0x0 PUSH1 0x1 PUSH1 0x1 PUSH1 0xA0 SHL SUB AND CALLER SUB PUSH2 0xC45 JUMPI PUSH2 0xC28 PUSH2 0xA2F PUSH1 0xF SLOAD PUSH1 0xFF AND SWAP1 JUMP JUMPDEST PUSH2 0xB89 PUSH1 0x10 SLOAD PUSH2 0xC3C PUSH1 0x0 SLOAD DUP3 LT ISZERO PUSH2 0x125E JUMP JUMPDEST PUSH1 0x1 SLOAD GT PUSH2 0x1290 JUMP JUMPDEST PUSH1 0x40 MLOAD PUSH3 0x461BCD PUSH1 0xE5 SHL DUP2 MSTORE PUSH1 0x20 PUSH1 0x4 DUP3 ADD MSTORE PUSH1 0x6 PUSH1 0x24 DUP3 ADD MSTORE PUSH6 0x10B7BBB732B9 PUSH1 0xD1 SHL PUSH1 0x44 DUP3 ADD MSTORE PUSH1 0x64 SWAP1 REVERT JUMPDEST CALLVALUE PUSH2 0x172 JUMPI PUSH1 0x0 CALLDATASIZE PUSH1 0x3 NOT ADD SLT PUSH2 0x172 JUMPI PUSH1 0x20 PUSH1 0x40 MLOAD PUSH32 0x0 DUP2 MSTORE RETURN JUMPDEST CALLVALUE PUSH2 0x172 JUMPI PUSH1 0x0 CALLDATASIZE PUSH1 0x3 NOT ADD SLT PUSH2 0x172 JUMPI PUSH1 0x20 PUSH2 0x408 PUSH2 0x12C9 JUMP JUMPDEST PUSH4 0x4E487B71 PUSH1 0xE0 SHL PUSH1 0x0 MSTORE PUSH1 0x32 PUSH1 0x4 MSTORE PUSH1 0x24 PUSH1 0x0 REVERT JUMPDEST PUSH1 0x10 SLOAD DUP2 LT ISZERO PUSH2 0xCFA JUMPI PUSH1 0x10 PUSH1 0x0 MSTORE PUSH1 0x20 PUSH1 0x0 KECCAK256 ADD SWAP1 PUSH1 0x0 SWAP1 JUMP JUMPDEST PUSH2 0xCC9 JUMP JUMPDEST CALLVALUE PUSH2 0x172 JUMPI PUSH1 0x20 CALLDATASIZE PUSH1 0x3 NOT ADD SLT PUSH2 0x172 JUMPI PUSH1 0x4 CALLDATALOAD PUSH1 0x10 SLOAD DUP2 LT ISZERO PUSH2 0x172 JUMPI PUSH1 0x10 PUSH1 0x0 MSTORE PUSH1 0x0 DUP1 MLOAD PUSH1 0x20 PUSH2 0x204A DUP4 CODECOPY DUP2 MLOAD SWAP2 MSTORE ADD SLOAD PUSH1 0x40 MLOAD PUSH1 0x1 PUSH1 0x1 PUSH1 0xA0 SHL SUB SWAP1 SWAP2 AND DUP2 MSTORE PUSH1 0x20 SWAP1 RETURN JUMPDEST CALLVALUE PUSH2 0x172 JUMPI PUSH1 0x0 CALLDATASIZE PUSH1 0x3 NOT ADD SLT PUSH2 0x172 JUMPI PUSH1 0x20 PUSH1 0x12 SLOAD PUSH1 0x40 MLOAD SWAP1 DUP2 MSTORE RETURN JUMPDEST POP PUSH32 0x0 PUSH1 0x1 PUSH1 0x1 PUSH1 0xA0 SHL SUB AND DUP1 ISZERO PUSH2 0xDE0 JUMPI CALLER SUB PUSH2 0xDA8 JUMPI PUSH2 0xDA6 SWAP1 PUSH2 0x1320 JUMP JUMPDEST JUMP JUMPDEST PUSH1 0x40 MLOAD PUSH3 0x461BCD PUSH1 0xE5 SHL DUP2 MSTORE PUSH1 0x20 PUSH1 0x4 DUP3 ADD MSTORE PUSH1 0x10 PUSH1 0x24 DUP3 ADD MSTORE PUSH16 0x37B7363C9031B7B7B93234B730BA37B9 PUSH1 0x81 SHL PUSH1 0x44 DUP3 ADD MSTORE PUSH1 0x64 SWAP1 REVERT JUMPDEST PUSH1 0x40 MLOAD PUSH3 0x461BCD PUSH1 0xE5 SHL DUP2 MSTORE PUSH1 0x20 PUSH1 0x4 DUP3 ADD MSTORE PUSH1 0x7 PUSH1 0x24 DUP3 ADD MSTORE PUSH7 0x3B39331037B333 PUSH1 0xC9 SHL PUSH1 0x44 DUP3 ADD MSTORE PUSH1 0x64 SWAP1 REVERT JUMPDEST ISZERO PUSH2 0xE16 JUMPI JUMP JUMPDEST PUSH1 0x40 MLOAD PUSH3 0x461BCD PUSH1 0xE5 SHL DUP2 MSTORE PUSH1 0x20 PUSH1 0x4 DUP3 ADD MSTORE PUSH1 0x8 PUSH1 0x24 DUP3 ADD MSTORE PUSH8 0x216465616C696E67 PUSH1 0xC0 SHL PUSH1 0x44 DUP3 ADD MSTORE PUSH1 0x64 SWAP1 REVERT JUMPDEST ISZERO PUSH2 0xE4D JUMPI JUMP JUMPDEST PUSH1 0x40 MLOAD PUSH3 0x461BCD PUSH1 0xE5 SHL DUP2 MSTORE PUSH1 0x20 PUSH1 0x4 DUP3 ADD MSTORE PUSH1 0x5 PUSH1 0x24 DUP3 ADD MSTORE PUSH5 0x217A65726F PUSH1 0xD8 SHL PUSH1 0x44 DUP3 ADD MSTORE PUSH1 0x64 SWAP1 REVERT JUMPDEST PUSH4 0x4E487B71 PUSH1 0xE0 SHL PUSH1 0x0 MSTORE PUSH1 0x11 PUSH1 0x4 MSTORE PUSH1 0x24 PUSH1 0x0 REVERT JUMPDEST SWAP1 PUSH1 0x1 DUP3 ADD DUP1 SWAP3 GT PUSH2 0xE9E JUMPI JUMP JUMPDEST PUSH2 0xE7A JUMP JUMPDEST SWAP2 SWAP1 DUP3 ADD DUP1 SWAP3 GT PUSH2 0xE9E JUMPI JUMP JUMPDEST DUP2 ISZERO PUSH2 0xEBA JUMPI MOD SWAP1 JUMP JUMPDEST PUSH4 0x4E487B71 PUSH1 0xE0 SHL PUSH1 0x0 MSTORE PUSH1 0x12 PUSH1 0x4 MSTORE PUSH1 0x24 PUSH1 0x0 REVERT JUMPDEST PUSH1 0x10 SLOAD PUSH1 0x2 DUP2 LT PUSH2 0xF1D JUMPI PUSH1 0x12 SLOAD PUSH1 0x1 DUP2 ADD DUP1 SWAP2 GT PUSH2 0xE9E JUMPI DUP2 PUSH2 0xEF3 SWAP2 PUSH2 0xEB0 JUMP JUMPDEST SWAP1 DUP2 LT ISZERO PUSH2 0xCFA JUMPI PUSH1 0x10 PUSH1 0x0 MSTORE PUSH1 0x0 DUP1 MLOAD PUSH1 0x20 PUSH2 0x204A DUP4 CODECOPY DUP2 MLOAD SWAP2 MSTORE ADD SLOAD PUSH1 0x1 PUSH1 0x1 PUSH1 0xA0 SHL SUB AND SWAP1 JUMP JUMPDEST POP PUSH1 0x0 SWAP1 JUMP JUMPDEST ISZERO PUSH2 0xF2A JUMPI JUMP JUMPDEST PUSH1 0x40 MLOAD PUSH3 0x461BCD PUSH1 0xE5 SHL DUP2 MSTORE PUSH1 0x20 PUSH1 0x4 DUP3 ADD MSTORE PUSH1 0x8 PUSH1 0x24 DUP3 ADD MSTORE PUSH8 0x21706C6179696E67 PUSH1 0xC0 SHL PUSH1 0x44 DUP3 ADD MSTORE PUSH1 0x64 SWAP1 REVERT JUMPDEST ISZERO PUSH2 0xF61 JUMPI JUMP JUMPDEST PUSH1 0x40 MLOAD PUSH3 0x461BCD PUSH1 0xE5 SHL DUP2 MSTORE PUSH1 0x20 PUSH1 0x4 DUP3 ADD MSTORE PUSH1 0x5 PUSH1 0x24 DUP3 ADD MSTORE PUSH5 0x10BA3AB937 PUSH1 0xD9 SHL PUSH1 0x44 DUP3 ADD MSTORE PUSH1 0x64 SWAP1 REVERT JUMPDEST ISZERO PUSH2 0xF95 JUMPI JUMP JUMPDEST PUSH1 0x40 MLOAD PUSH3 0x461BCD PUSH1 0xE5 SHL DUP2 MSTORE PUSH1 0x20 PUSH1 0x4 DUP3 ADD MSTORE PUSH1 0x3 PUSH1 0x24 DUP3 ADD MSTORE PUSH3 0x1BDD5D PUSH1 0xEA SHL PUSH1 0x44 DUP3 ADD MSTORE PUSH1 0x64 SWAP1 REVERT JUMPDEST ISZERO PUSH2 0xFC7 JUMPI JUMP JUMPDEST PUSH1 0x40 MLOAD PUSH3 0x461BCD PUSH1 0xE5 SHL DUP2 MSTORE PUSH1 0x20 PUSH1 0x4 DUP3 ADD MSTORE PUSH1 0x7 PUSH1 0x24 DUP3 ADD MSTORE PUSH7 0x85D185C99D95D PUSH1 0xCA SHL PUSH1 0x44 DUP3 ADD MSTORE PUSH1 0x64 SWAP1 REVERT JUMPDEST ISZERO PUSH2 0xFFD JUMPI JUMP JUMPDEST PUSH1 0x40 MLOAD PUSH3 0x461BCD PUSH1 0xE5 SHL DUP2 MSTORE PUSH1 0x20 PUSH1 0x4 DUP3 ADD MSTORE PUSH1 0x9 PUSH1 0x24 DUP3 ADD MSTORE PUSH9 0x6361726420312D313 PUSH1 0xBC SHL PUSH1 0x44 DUP3 ADD MSTORE PUSH1 0x64 SWAP1 REVERT JUMPDEST PUSH1 0xFF PUSH1 0x0 NOT SWAP2 AND ADD SWAP1 PUSH1 0xFF DUP3 GT PUSH2 0xE9E JUMPI JUMP JUMPDEST PUSH1 0xA DUP2 LT ISZERO PUSH2 0xCFA JUMPI PUSH1 0x5 ADD SWAP1 PUSH1 0x0 SWAP1 JUMP JUMPDEST PUSH1 0xA DUP3 LT ISZERO PUSH2 0xCFA JUMPI ADD SWAP1 PUSH1 0x0 SWAP1 JUMP JUMPDEST ISZERO PUSH2 0x106A JUMPI JUMP JUMPDEST PUSH1 0x40 MLOAD PUSH3 0x461BCD PUSH1 0xE5 SHL DUP2 MSTORE PUSH1 0x20 PUSH1 0x4 DUP3 ADD MSTORE PUSH1 0x7 PUSH1 0x24 DUP3 ADD MSTORE PUSH7 0x1B9BC818D85C99 PUSH1 0xCA SHL PUSH1 0x44 DUP3 ADD MSTORE PUSH1 0x64 SWAP1 REVERT JUMPDEST DUP1 ISZERO PUSH2 0xE9E JUMPI PUSH1 0x0 NOT ADD SWAP1 JUMP JUMPDEST PUSH1 0x0 NOT DUP2 EQ PUSH2 0xE9E JUMPI PUSH1 0x1 ADD SWAP1 JUMP JUMPDEST ISZERO PUSH2 0x10BC JUMPI JUMP JUMPDEST PUSH1 0x40 MLOAD PUSH3 0x461BCD PUSH1 0xE5 SHL DUP2 MSTORE PUSH1 0x20 PUSH1 0x4 DUP3 ADD MSTORE PUSH1 0x8 PUSH1 0x24 DUP3 ADD MSTORE PUSH8 0x3737903537B5B2B9 PUSH1 0xC1 SHL PUSH1 0x44 DUP3 ADD MSTORE PUSH1 0x64 SWAP1 REVERT JUMPDEST ISZERO PUSH2 0x10F3 JUMPI JUMP JUMPDEST PUSH1 0x40 MLOAD PUSH3 0x461BCD PUSH1 0xE5 SHL DUP2 MSTORE PUSH1 0x20 PUSH1 0x4 DUP3 ADD MSTORE PUSH1 0x8 PUSH1 0x24 DUP3 ADD MSTORE PUSH8 0x2170656E64696E67 PUSH1 0xC0 SHL PUSH1 0x44 DUP3 ADD MSTORE PUSH1 0x64 SWAP1 REVERT JUMPDEST ISZERO PUSH2 0x112A JUMPI JUMP JUMPDEST PUSH1 0x40 MLOAD PUSH3 0x461BCD PUSH1 0xE5 SHL DUP2 MSTORE PUSH1 0x20 PUSH1 0x4 DUP3 ADD MSTORE PUSH1 0x6 PUSH1 0x24 DUP3 ADD MSTORE PUSH6 0x1A9BDA5B9959 PUSH1 0xD2 SHL PUSH1 0x44 DUP3 ADD MSTORE PUSH1 0x64 SWAP1 REVERT JUMPDEST ISZERO PUSH2 0x115F JUMPI JUMP JUMPDEST PUSH1 0x64 PUSH1 0x40 MLOAD PUSH3 0x461BCD PUSH1 0xE5 SHL DUP2 MSTORE PUSH1 0x20 PUSH1 0x4 DUP3 ADD MSTORE PUSH1 0x4 PUSH1 0x24 DUP3 ADD MSTORE PUSH4 0x199D5B1B PUSH1 0xE2 SHL PUSH1 0x44 DUP3 ADD MSTORE REVERT JUMPDEST ISZERO PUSH2 0x1191 JUMPI JUMP JUMPDEST PUSH1 0x40 MLOAD PUSH3 0x461BCD PUSH1 0xE5 SHL DUP2 MSTORE PUSH1 0x20 PUSH1 0x4 DUP3 ADD MSTORE PUSH1 0x5 PUSH1 0x24 DUP3 ADD MSTORE PUSH5 0x72616E6765 PUSH1 0xD8 SHL PUSH1 0x44 DUP3 ADD MSTORE PUSH1 0x64 SWAP1 REVERT JUMPDEST ISZERO PUSH2 0x11C5 JUMPI JUMP JUMPDEST PUSH1 0x40 MLOAD PUSH3 0x461BCD PUSH1 0xE5 SHL DUP2 MSTORE PUSH1 0x20 PUSH1 0x4 DUP3 ADD MSTORE PUSH1 0xB PUSH1 0x24 DUP3 ADD MSTORE PUSH11 0x6669786564207374616B65 PUSH1 0xA8 SHL PUSH1 0x44 DUP3 ADD MSTORE PUSH1 0x64 SWAP1 REVERT JUMPDEST PUSH1 0x10 SLOAD PUSH9 0x10000000000000000 DUP2 LT ISZERO PUSH2 0x1E9 JUMPI PUSH1 0x1 DUP2 ADD PUSH1 0x10 SSTORE PUSH1 0x0 PUSH1 0x10 SLOAD DUP3 LT ISZERO PUSH2 0xCFA JUMPI PUSH1 0x10 SWAP1 MSTORE PUSH1 0x0 DUP1 MLOAD PUSH1 0x20 PUSH2 0x204A DUP4 CODECOPY DUP2 MLOAD SWAP2 MSTORE ADD DUP1 SLOAD PUSH1 0x1 PUSH1 0x1 PUSH1 0xA0 SHL SUB NOT AND PUSH1 0x1 PUSH1 0x1 PUSH1 0xA0 SHL SUB SWAP1 SWAP3 AND SWAP2 SWAP1 SWAP2 OR SWAP1 SSTORE JUMP JUMPDEST PUSH1 0x40 MLOAD RETURNDATASIZE PUSH1 0x0 DUP3 RETURNDATACOPY RETURNDATASIZE SWAP1 REVERT JUMPDEST ISZERO PUSH2 0x1265 JUMPI JUMP JUMPDEST PUSH1 0x64 PUSH1 0x40 MLOAD PUSH3 0x461BCD PUSH1 0xE5 SHL DUP2 MSTORE PUSH1 0x20 PUSH1 0x4 DUP3 ADD MSTORE PUSH1 0x4 PUSH1 0x24 DUP3 ADD MSTORE PUSH4 0x10B6B4B7 PUSH1 0xE1 SHL PUSH1 0x44 DUP3 ADD MSTORE REVERT JUMPDEST ISZERO PUSH2 0x1297 JUMPI JUMP JUMPDEST PUSH1 0x40 MLOAD PUSH3 0x461BCD PUSH1 0xE5 SHL DUP2 MSTORE PUSH1 0x20 PUSH1 0x4 DUP3 ADD MSTORE PUSH1 0xA PUSH1 0x24 DUP3 ADD MSTORE PUSH10 0x2166756C6C206175746F PUSH1 0xB0 SHL PUSH1 0x44 DUP3 ADD MSTORE PUSH1 0x64 SWAP1 REVERT JUMPDEST PUSH1 0x10 SLOAD DUP1 ISZERO PUSH2 0xF1D JUMPI PUSH1 0x12 SLOAD SWAP1 DUP2 LT ISZERO PUSH2 0xCFA JUMPI PUSH1 0x10 PUSH1 0x0 MSTORE PUSH1 0x0 DUP1 MLOAD PUSH1 0x20 PUSH2 0x204A DUP4 CODECOPY DUP2 MLOAD SWAP2 MSTORE ADD SLOAD PUSH1 0x1 PUSH1 0x1 PUSH1 0xA0 SHL SUB AND SWAP1 JUMP JUMPDEST DUP1 MLOAD ISZERO PUSH2 0xCFA JUMPI PUSH1 0x20 ADD SWAP1 JUMP JUMPDEST DUP1 MLOAD DUP3 LT ISZERO PUSH2 0xCFA JUMPI PUSH1 0x20 SWAP2 PUSH1 0x5 SHL ADD ADD SWAP1 JUMP JUMPDEST PUSH1 0xFF PUSH1 0xF SLOAD AND PUSH1 0x4 DUP2 LT ISZERO PUSH2 0x9D4 JUMPI PUSH1 0x1 PUSH2 0x133B SWAP2 EQ PUSH2 0xE0F JUMP JUMPDEST PUSH1 0x1 DUP2 MLOAD LT PUSH2 0x13C2 JUMPI PUSH2 0x1374 PUSH2 0x137A SWAP2 PUSH2 0x135D PUSH1 0x2 PUSH1 0xFF NOT PUSH1 0xF SLOAD AND OR PUSH1 0xF SSTORE JUMP JUMPDEST PUSH2 0x136F PUSH2 0x1369 DUP3 PUSH2 0x12FF JUMP JUMPDEST MLOAD PUSH2 0x13F0 JUMP JUMPDEST PUSH2 0x12FF JUMP JUMPDEST MLOAD PUSH2 0x15A5 JUMP JUMPDEST PUSH32 0x0 PUSH32 0x50AD08F58A27F2851D7E3A1B3A6A46B290F2CE677E99642D30FF639721E77790 PUSH1 0x0 DUP1 LOG2 JUMP JUMPDEST PUSH1 0x40 MLOAD PUSH3 0x461BCD PUSH1 0xE5 SHL DUP2 MSTORE PUSH1 0x20 PUSH1 0x4 DUP3 ADD MSTORE PUSH1 0x6 PUSH1 0x24 DUP3 ADD MSTORE PUSH6 0x21776F726473 PUSH1 0xD0 SHL PUSH1 0x44 DUP3 ADD MSTORE PUSH1 0x64 SWAP1 REVERT JUMPDEST PUSH1 0x10 SLOAD PUSH2 0x13FB PUSH2 0x1E26 JUMP JUMPDEST DUP1 MLOAD PUSH32 0x0 SWAP2 PUSH1 0x0 JUMPDEST DUP3 DUP2 LT PUSH2 0x152E JUMPI POP PUSH1 0x0 JUMPDEST DUP3 DUP2 LT PUSH2 0x14D3 JUMPI POP POP POP PUSH1 0x4 SLOAD SWAP3 PUSH1 0x0 JUMPDEST DUP5 DUP2 LT PUSH2 0x144C JUMPI POP POP POP POP POP JUMP JUMPDEST PUSH1 0x40 DUP1 MLOAD PUSH1 0x20 DUP2 ADD DUP5 DUP2 MSTORE SWAP2 DUP2 ADD DUP6 SWAP1 MSTORE ADDRESS PUSH1 0x60 SWAP1 DUP2 SHL PUSH1 0x1 PUSH1 0x1 PUSH1 0x60 SHL SUB NOT AND SWAP1 DUP3 ADD MSTORE PUSH1 0x74 DUP2 ADD DUP4 SWAP1 MSTORE PUSH1 0x1 PUSH1 0xF8 SHL PUSH1 0x94 DUP3 ADD MSTORE PUSH1 0x1 SWAP3 SWAP2 PUSH1 0xD SWAP2 PUSH2 0x14C0 SWAP2 PUSH2 0x7F9 SWAP2 PUSH2 0x757 SWAP2 PUSH2 0x14BB SWAP2 DUP12 SWAP2 SWAP1 PUSH2 0x14B3 DUP2 PUSH1 0x95 DUP2 ADD JUMPDEST SUB PUSH1 0x1F NOT DUP2 ADD DUP4 MSTORE DUP3 PUSH2 0x1C7 JUMP JUMPDEST MLOAD SWAP1 KECCAK256 PUSH2 0xEB0 JUMP JUMPDEST PUSH2 0xCDF JUMP JUMPDEST ADD PUSH2 0x14CB DUP2 SLOAD PUSH2 0xE90 JUMP JUMPDEST SWAP1 SSTORE ADD PUSH2 0x143E JUMP JUMPDEST DUP1 PUSH2 0x1528 PUSH2 0x14E9 PUSH2 0x757 PUSH2 0x14BB DUP10 PUSH1 0x1 SWAP7 PUSH2 0xEB0 JUMP JUMPDEST PUSH2 0x14FD PUSH2 0x14F6 DUP5 DUP8 PUSH2 0x130C JUMP JUMPDEST MLOAD PUSH1 0xFF AND SWAP1 JUMP JUMPDEST SWAP1 PUSH2 0x1523 PUSH2 0x94C DUP4 PUSH1 0x3 PUSH2 0x8E7 DUP6 PUSH1 0x1 DUP1 PUSH1 0xA0 SHL SUB AND PUSH1 0x0 MSTORE PUSH1 0x11 PUSH1 0x20 MSTORE PUSH1 0x40 PUSH1 0x0 KECCAK256 SWAP1 JUMP JUMPDEST PUSH2 0x1674 JUMP JUMPDEST ADD PUSH2 0x142D JUMP JUMPDEST PUSH1 0x40 DUP1 MLOAD PUSH1 0x20 DUP2 ADD DUP9 DUP2 MSTORE SWAP2 DUP2 ADD DUP7 SWAP1 MSTORE ADDRESS PUSH1 0x60 SWAP1 DUP2 SHL PUSH1 0x1 PUSH1 0x1 PUSH1 0x60 SHL SUB NOT AND SWAP1 DUP3 ADD MSTORE PUSH1 0x74 DUP2 ADD DUP4 SWAP1 MSTORE PUSH1 0x1 SWAP3 SWAP2 PUSH2 0x1572 SWAP2 DUP7 SWAP2 SWAP1 PUSH2 0x14B3 DUP2 PUSH1 0x94 DUP2 ADD PUSH2 0x14A5 JUMP JUMPDEST PUSH2 0x157C DUP2 DUP6 PUSH2 0x130C JUMP JUMPDEST MLOAD SWAP1 PUSH2 0x1593 PUSH2 0x158B DUP5 DUP8 PUSH2 0x130C JUMP JUMPDEST MLOAD SWAP2 DUP7 PUSH2 0x130C JUMP JUMPDEST MSTORE PUSH2 0x159E DUP3 DUP6 PUSH2 0x130C JUMP JUMPDEST MSTORE ADD PUSH2 0x1422 JUMP JUMPDEST ADDRESS PUSH1 0x60 SHL PUSH1 0x1 PUSH1 0x1 PUSH1 0x60 SHL SUB NOT AND SWAP2 SWAP1 PUSH32 0x0 SWAP1 PUSH1 0x0 JUMPDEST PUSH1 0x10 SLOAD DUP2 LT ISZERO PUSH2 0x166D JUMPI PUSH1 0x10 PUSH1 0x0 MSTORE PUSH1 0x0 DUP1 MLOAD PUSH1 0x20 PUSH2 0x204A DUP4 CODECOPY DUP2 MLOAD SWAP2 MSTORE DUP2 ADD SLOAD PUSH1 0x40 DUP1 MLOAD PUSH1 0x20 DUP2 ADD DUP6 DUP2 MSTORE SWAP2 DUP2 ADD DUP7 SWAP1 MSTORE PUSH1 0x60 DUP1 DUP3 ADD DUP10 SWAP1 MSTORE DUP4 SWAP1 SHL PUSH1 0x1 PUSH1 0x1 PUSH1 0x60 SHL SUB NOT AND PUSH1 0x74 DUP3 ADD MSTORE PUSH1 0x68 DUP2 MSTORE PUSH1 0x1 SWAP4 SWAP3 PUSH1 0x1 PUSH1 0x1 PUSH1 0xA0 SHL SUB AND SWAP2 PUSH2 0x1666 SWAP2 PUSH2 0x1647 PUSH1 0x88 DUP3 PUSH2 0x1C7 JUMP JUMPDEST MLOAD SWAP1 KECCAK256 PUSH1 0x1 PUSH1 0x1 PUSH1 0xA0 SHL SUB SWAP1 SWAP3 AND PUSH1 0x0 SWAP1 DUP2 MSTORE PUSH1 0x13 PUSH1 0x20 MSTORE PUSH1 0x40 SWAP1 KECCAK256 SWAP1 JUMP JUMPDEST SSTORE ADD PUSH2 0x15DA JUMP JUMPDEST POP POP POP SWAP1 POP JUMP JUMPDEST PUSH1 0x1 DUP1 PUSH1 0xA0 SHL SUB AND SWAP1 DUP2 PUSH1 0x0 MSTORE PUSH1 0x11 PUSH1 0x20 MSTORE PUSH2 0x1697 DUP2 PUSH1 0x3 PUSH1 0x40 PUSH1 0x0 KECCAK256 ADD PUSH2 0x1053 JUMP JUMPDEST SWAP1 SLOAD SWAP1 PUSH1 0x3 SHL SHR SWAP1 PUSH1 0x2 DUP3 LT ISZERO PUSH2 0x16AD JUMPI POP POP POP JUMP JUMPDEST PUSH2 0x16CC PUSH1 0x1 SWAP2 PUSH2 0xDA6 SWAP5 PUSH1 0x0 MSTORE PUSH1 0x11 PUSH1 0x20 MSTORE PUSH1 0x3 PUSH1 0x40 PUSH1 0x0 KECCAK256 ADD PUSH2 0x1053 JUMP JUMPDEST SWAP2 SWAP1 SWAP3 AND SWAP1 DUP3 SLOAD SWAP1 PUSH1 0x3 SHL SWAP2 DUP3 SHL SWAP2 PUSH1 0x0 NOT SWAP1 SHL NOT AND OR SWAP1 SSTORE JUMP JUMPDEST PUSH1 0x10 SLOAD DUP1 ISZERO PUSH2 0x170D JUMPI PUSH1 0x12 SLOAD SWAP1 PUSH1 0x1 DUP3 ADD DUP1 SWAP3 GT PUSH2 0xE9E JUMPI PUSH2 0x1708 SWAP2 PUSH2 0xEB0 JUMP JUMPDEST PUSH1 0x12 SSTORE JUMP JUMPDEST POP JUMP JUMPDEST PUSH1 0x10 SLOAD PUSH1 0x0 JUMPDEST DUP2 DUP2 LT PUSH2 0x1724 JUMPI POP POP PUSH1 0x1 SWAP1 JUMP JUMPDEST PUSH2 0x1730 PUSH2 0x757 DUP3 PUSH2 0xCDF JUMP JUMPDEST PUSH1 0x0 JUMPDEST PUSH1 0xA PUSH1 0xFF DUP3 AND LT PUSH2 0x1748 JUMPI POP POP PUSH1 0x1 ADD PUSH2 0x1716 JUMP JUMPDEST PUSH2 0x176D PUSH2 0x8ED DUP3 PUSH1 0x3 PUSH2 0x8E7 DUP7 PUSH1 0x1 DUP1 PUSH1 0xA0 SHL SUB AND PUSH1 0x0 MSTORE PUSH1 0x11 PUSH1 0x20 MSTORE PUSH1 0x40 PUSH1 0x0 KECCAK256 SWAP1 JUMP JUMPDEST PUSH2 0x177C JUMPI PUSH1 0x1 ADD PUSH1 0xFF AND PUSH2 0x1733 JUMP JUMPDEST POP POP POP POP PUSH1 0x0 SWAP1 JUMP JUMPDEST SWAP1 PUSH2 0x178F DUP3 PUSH2 0x1EE JUMP JUMPDEST PUSH2 0x179C PUSH1 0x40 MLOAD SWAP2 DUP3 PUSH2 0x1C7 JUMP JUMPDEST DUP3 DUP2 MSTORE DUP1 SWAP3 PUSH2 0x17AD PUSH1 0x1F NOT SWAP2 PUSH2 0x1EE JUMP JUMPDEST ADD SWAP1 PUSH1 0x20 CALLDATASIZE SWAP2 ADD CALLDATACOPY JUMP JUMPDEST ISZERO PUSH2 0x17BE JUMPI JUMP JUMPDEST PUSH1 0x40 MLOAD PUSH3 0x461BCD PUSH1 0xE5 SHL DUP2 MSTORE PUSH1 0x20 PUSH1 0x4 DUP3 ADD MSTORE PUSH1 0x8 PUSH1 0x24 DUP3 ADD MSTORE PUSH8 0x2177696E6E657273 PUSH1 0xC0 SHL PUSH1 0x44 DUP3 ADD MSTORE PUSH1 0x64 SWAP1 REVERT JUMPDEST SWAP2 PUSH2 0x180B SWAP1 PUSH2 0x570 SWAP5 SWAP3 DUP5 MSTORE PUSH1 0x60 PUSH1 0x20 DUP6 ADD MSTORE PUSH1 0x60 DUP5 ADD SWAP1 PUSH2 0x522 JUMP JUMPDEST SWAP2 PUSH1 0x40 DUP2 DUP5 SUB SWAP2 ADD MSTORE PUSH2 0x522 JUMP JUMPDEST SWAP1 SWAP2 PUSH2 0x1830 PUSH2 0x570 SWAP4 PUSH1 0x40 DUP5 MSTORE PUSH1 0x40 DUP5 ADD SWAP1 PUSH2 0x522 JUMP JUMPDEST SWAP2 PUSH1 0x20 DUP2 DUP5 SUB SWAP2 ADD MSTORE PUSH2 0x522 JUMP JUMPDEST PUSH2 0x1850 PUSH1 0x3 PUSH1 0xFF NOT PUSH1 0xF SLOAD AND OR PUSH1 0xF SSTORE JUMP JUMPDEST PUSH1 0x10 SLOAD PUSH2 0x185C DUP2 PUSH2 0x1785 JUMP JUMPDEST SWAP1 PUSH2 0x1866 DUP2 PUSH2 0x1785 JUMP JUMPDEST SWAP1 PUSH1 0x0 DUP1 SWAP2 PUSH1 0x0 JUMPDEST DUP2 DUP2 LT PUSH2 0x1A5F JUMPI POP POP DUP4 MSTORE DUP1 DUP3 MSTORE PUSH2 0x1887 SWAP1 ISZERO ISZERO PUSH2 0x17B7 JUMP JUMPDEST SELFBALANCE PUSH2 0x1961 JUMPI JUMPDEST PUSH32 0x0 SWAP2 PUSH32 0x0 PUSH1 0x1 PUSH1 0x1 PUSH1 0xA0 SHL SUB AND SWAP2 SWAP1 DUP3 EXTCODESIZE ISZERO PUSH2 0x172 JUMPI PUSH1 0x0 PUSH1 0x40 MLOAD DUP1 SWAP5 PUSH4 0x39511141 PUSH1 0xE1 SHL DUP3 MSTORE DUP2 DUP4 DUP2 PUSH2 0x1905 DUP8 DUP10 DUP13 PUSH1 0x4 DUP6 ADD PUSH2 0x17EE JUMP JUMPDEST SUB SWAP3 GAS CALL SWAP3 DUP4 ISZERO PUSH2 0xBAC JUMPI PUSH32 0xEC9076D3D1E4910861E8852EF3E8820904B6868D2E5C85563E5C82F45C776D1F SWAP4 PUSH2 0x194C JUMPI JUMPDEST POP PUSH2 0x1947 PUSH1 0x40 MLOAD SWAP3 DUP4 SWAP3 DUP4 PUSH2 0x1819 JUMP JUMPDEST SUB SWAP1 LOG2 JUMP JUMPDEST DUP1 PUSH2 0xBA0 PUSH1 0x0 PUSH2 0x195B SWAP4 PUSH2 0x1C7 JUMP JUMPDEST CODESIZE PUSH2 0x1937 JUMP JUMPDEST SWAP2 SWAP1 PUSH1 0x0 JUMPDEST PUSH1 0x10 SLOAD DUP2 LT ISZERO PUSH2 0x1A57 JUMPI PUSH2 0x197C PUSH2 0x757 DUP3 PUSH2 0xCDF JUMP JUMPDEST SWAP1 PUSH1 0x1 PUSH2 0x199B DUP4 PUSH1 0x1 DUP1 PUSH1 0xA0 SHL SUB AND PUSH1 0x0 MSTORE PUSH1 0x11 PUSH1 0x20 MSTORE PUSH1 0x40 PUSH1 0x0 KECCAK256 SWAP1 JUMP JUMPDEST ADD SLOAD SWAP2 DUP3 PUSH2 0x19AF JUMPI JUMPDEST POP PUSH1 0x1 SWAP2 POP ADD PUSH2 0x1966 JUMP JUMPDEST PUSH32 0x0 PUSH1 0x1 PUSH1 0x1 PUSH1 0xA0 SHL SUB AND SWAP1 DUP2 EXTCODESIZE ISZERO PUSH2 0x172 JUMPI PUSH1 0x40 MLOAD PUSH4 0x28BA35D9 PUSH1 0xE1 SHL DUP2 MSTORE PUSH32 0x0 PUSH1 0x4 DUP3 ADD MSTORE PUSH1 0x1 PUSH1 0x1 PUSH1 0xA0 SHL SUB SWAP2 SWAP1 SWAP2 AND PUSH1 0x24 DUP3 ADD MSTORE SWAP3 PUSH1 0x0 SWAP2 DUP5 SWAP2 PUSH1 0x44 SWAP2 DUP4 SWAP2 SWAP1 GAS CALL SWAP2 DUP3 ISZERO PUSH2 0xBAC JUMPI PUSH1 0x1 SWAP3 ISZERO PUSH2 0x19A4 JUMPI DUP1 PUSH2 0xBA0 PUSH1 0x0 PUSH2 0x1A51 SWAP4 PUSH2 0x1C7 JUMP JUMPDEST CODESIZE PUSH2 0x19A4 JUMP JUMPDEST POP SWAP1 SWAP2 PUSH2 0x188D JUMP JUMPDEST DUP1 PUSH2 0x1A6E PUSH2 0x757 PUSH1 0x1 SWAP4 PUSH2 0xCDF JUMP JUMPDEST PUSH1 0x1 PUSH1 0x1 PUSH1 0xA0 SHL SUB DUP2 AND PUSH1 0x0 SWAP1 DUP2 MSTORE PUSH1 0x11 PUSH1 0x20 MSTORE PUSH1 0x40 SWAP1 KECCAK256 PUSH1 0xD ADD SLOAD ISZERO PUSH2 0x1ABB JUMPI PUSH2 0x1AB5 SWAP1 PUSH2 0x1AA6 PUSH2 0x1A9F DUP8 PUSH2 0x10A6 JUMP JUMPDEST SWAP7 DUP11 PUSH2 0x130C JUMP JUMPDEST PUSH1 0x1 PUSH1 0x1 PUSH1 0xA0 SHL SUB SWAP1 SWAP2 AND SWAP1 MSTORE JUMP JUMPDEST ADD PUSH2 0x186E JUMP JUMPDEST PUSH2 0x1AD2 SWAP1 PUSH2 0x1AA6 PUSH2 0x1ACB DUP9 PUSH2 0x10A6 JUMP JUMPDEST SWAP8 DUP10 PUSH2 0x130C JUMP JUMPDEST PUSH2 0x1AB5 JUMP JUMPDEST ISZERO PUSH2 0x1ADE JUMPI JUMP JUMPDEST PUSH1 0x40 MLOAD PUSH3 0x461BCD PUSH1 0xE5 SHL DUP2 MSTORE PUSH1 0x20 PUSH1 0x4 DUP3 ADD MSTORE PUSH1 0x7 PUSH1 0x24 DUP3 ADD MSTORE PUSH7 0x42CADCDEEACED PUSH1 0xCB SHL PUSH1 0x44 DUP3 ADD MSTORE PUSH1 0x64 SWAP1 REVERT JUMPDEST SWAP1 DUP2 PUSH1 0x20 SWAP2 SUB SLT PUSH2 0x172 JUMPI MLOAD SWAP1 JUMP JUMPDEST PUSH2 0x1B2C PUSH1 0x10 SLOAD PUSH1 0x0 SLOAD GT ISZERO PUSH2 0x1AD7 JUMP JUMPDEST PUSH32 0x0 PUSH1 0x1 PUSH1 0x1 PUSH1 0xA0 SHL SUB AND DUP1 ISZERO PUSH2 0x1CD1 JUMPI PUSH2 0x1B6E PUSH1 0x1 PUSH1 0xFF NOT PUSH1 0xF SLOAD AND OR PUSH1 0xF SSTORE JUMP JUMPDEST PUSH1 0x40 MLOAD PUSH4 0x5D3B1D3 PUSH1 0xE4 SHL DUP2 MSTORE PUSH32 0x0 PUSH1 0x4 DUP3 ADD MSTORE PUSH32 0x0 PUSH8 0xFFFFFFFFFFFFFFFF AND PUSH1 0x24 DUP3 ADD MSTORE PUSH32 0x0 PUSH2 0xFFFF AND PUSH1 0x44 DUP3 ADD MSTORE PUSH32 0x0 PUSH4 0xFFFFFFFF AND PUSH1 0x64 DUP3 ADD MSTORE PUSH1 0x1 PUSH1 0x84 DUP3 ADD MSTORE SWAP1 PUSH1 0x20 SWAP1 DUP3 SWAP1 PUSH1 0xA4 SWAP1 DUP3 SWAP1 PUSH1 0x0 SWAP1 GAS CALL SWAP1 DUP2 ISZERO PUSH2 0xBAC JUMPI PUSH1 0x0 SWAP2 PUSH2 0x1CA2 JUMPI JUMPDEST POP PUSH1 0x40 MLOAD SWAP1 DUP2 MSTORE PUSH32 0x0 SWAP1 PUSH32 0xEBD9E8FB61FD5A6473B57D787D7EA3595BA98407BD8C0D74D9B0A5D666AA8D8A SWAP1 DUP1 PUSH1 0x20 DUP2 ADD PUSH2 0x1947 JUMP JUMPDEST PUSH2 0x1CC4 SWAP2 POP PUSH1 0x20 RETURNDATASIZE PUSH1 0x20 GT PUSH2 0x1CCA JUMPI JUMPDEST PUSH2 0x1CBC DUP2 DUP4 PUSH2 0x1C7 JUMP JUMPDEST DUP2 ADD SWAP1 PUSH2 0x1B0D JUMP JUMPDEST CODESIZE PUSH2 0x1C4D JUMP JUMPDEST POP RETURNDATASIZE PUSH2 0x1CB2 JUMP JUMPDEST POP PUSH32 0x0 PUSH1 0x1 PUSH1 0x1 PUSH1 0xA0 SHL SUB AND ISZERO PUSH2 0x1D8A JUMPI PUSH2 0x1D13 PUSH1 0x1 PUSH1 0xFF NOT PUSH1 0xF SLOAD AND OR PUSH1 0xF SSTORE JUMP JUMPDEST PUSH1 0x40 DUP1 MLOAD PUSH32 0x0 PUSH1 0x20 DUP3 ADD DUP2 DUP2 MSTORE ADDRESS SWAP4 DUP4 ADD SWAP4 SWAP1 SWAP4 MSTORE SWAP2 SWAP1 PUSH2 0x1D56 DUP2 PUSH1 0x60 DUP2 ADD PUSH2 0x14A5 JUMP JUMPDEST MLOAD SWAP1 KECCAK256 PUSH1 0x40 MLOAD SWAP1 DUP2 MSTORE ADDRESS SWAP2 SWAP1 PUSH32 0x95C8B02C7934A4BB418D4B844CA008175046665E9DDFB7903DDA0CE4DD450CF0 SWAP1 PUSH1 0x20 SWAP1 LOG3 JUMP JUMPDEST PUSH2 0x1D9C PUSH1 0x2 PUSH1 0xFF NOT PUSH1 0xF SLOAD AND OR PUSH1 0xF SSTORE JUMP JUMPDEST PUSH1 0x40 DUP1 MLOAD TIMESTAMP PUSH1 0x20 DUP3 ADD SWAP1 DUP2 MSTORE PUSH32 0x0 SWAP3 DUP3 ADD DUP4 SWAP1 MSTORE ADDRESS PUSH1 0x60 SWAP1 DUP2 SHL PUSH1 0x1 PUSH1 0x1 PUSH1 0x60 SHL SUB NOT AND SWAP1 DUP4 ADD MSTORE PUSH2 0x1DFF SWAP2 PUSH2 0x1DF4 DUP2 PUSH1 0x74 DUP2 ADD PUSH2 0x14A5 JUMP JUMPDEST MLOAD SWAP1 KECCAK256 PUSH2 0x372 PUSH2 0x1EB9 JUMP JUMPDEST PUSH32 0x50AD08F58A27F2851D7E3A1B3A6A46B290F2CE677E99642D30FF639721E77790 PUSH1 0x0 DUP1 LOG2 JUMP JUMPDEST PUSH1 0x0 DUP1 JUMPDEST PUSH1 0xA DUP3 LT PUSH2 0x1E99 JUMPI PUSH2 0x1E3C SWAP2 POP PUSH2 0x1785 JUMP JUMPDEST PUSH1 0x0 SWAP2 PUSH1 0x0 JUMPDEST PUSH1 0xFF DUP2 AND PUSH1 0xA DUP2 LT ISZERO PUSH2 0x1E92 JUMPI PUSH2 0x1E5B PUSH2 0x8ED DUP4 PUSH2 0x1041 JUMP JUMPDEST SWAP1 PUSH1 0x0 JUMPDEST DUP3 DUP2 LT PUSH2 0x1E74 JUMPI POP POP POP PUSH1 0x1 ADD PUSH1 0xFF AND PUSH2 0x1E42 JUMP JUMPDEST PUSH1 0x1 SWAP1 DUP3 PUSH2 0x1E8B PUSH2 0x1E84 DUP11 PUSH2 0x10A6 JUMP JUMPDEST SWAP10 DUP10 PUSH2 0x130C JUMP JUMPDEST MSTORE ADD PUSH2 0x1E5F JUMP JUMPDEST POP POP SWAP2 POP SWAP1 JUMP JUMPDEST PUSH2 0x1EB1 PUSH1 0x1 SWAP2 PUSH2 0x1EAB PUSH2 0x8ED DUP6 PUSH2 0x1041 JUMP JUMPDEST SWAP1 PUSH2 0xEA3 JUMP JUMPDEST SWAP2 ADD SWAP1 PUSH2 0x1E2A JUMP JUMPDEST PUSH1 0x10 SLOAD SWAP1 PUSH2 0x1EC5 PUSH2 0x1F58 JUMP JUMPDEST SWAP2 PUSH1 0x0 JUMPDEST DUP4 MLOAD DUP2 LT ISZERO PUSH2 0x1EFB JUMPI DUP1 PUSH2 0x1EF5 PUSH2 0x1EE8 PUSH2 0x757 PUSH2 0x14BB DUP7 PUSH1 0x1 SWAP7 PUSH2 0xEB0 JUMP JUMPDEST PUSH2 0x14FD PUSH2 0x14F6 DUP5 DUP10 PUSH2 0x130C JUMP JUMPDEST ADD PUSH2 0x1EC9 JUMP JUMPDEST POP PUSH1 0x4 SLOAD SWAP2 SWAP3 POP PUSH1 0x0 JUMPDEST DUP3 DUP2 LT PUSH2 0x1F11 JUMPI POP POP POP JUMP JUMPDEST PUSH1 0x1 SWAP1 PUSH1 0xD PUSH2 0x1F45 PUSH2 0x7F9 PUSH2 0x757 PUSH2 0x14BB DUP8 PUSH1 0x40 MLOAD PUSH1 0x20 DUP2 ADD SWAP1 PUSH2 0x14B3 DUP2 PUSH2 0x14A5 DUP12 TIMESTAMP DUP7 SWAP1 SWAP2 PUSH1 0x40 SWAP3 DUP3 MSTORE PUSH1 0x20 DUP3 ADD MSTORE ADD SWAP1 JUMP JUMPDEST ADD PUSH2 0x1F50 DUP2 SLOAD PUSH2 0xE90 JUMP JUMPDEST SWAP1 SSTORE ADD PUSH2 0x1F05 JUMP JUMPDEST PUSH1 0x0 DUP1 JUMPDEST PUSH1 0xA DUP3 LT PUSH2 0x202F JUMPI PUSH2 0x1F6E SWAP2 POP PUSH2 0x1785 JUMP JUMPDEST PUSH1 0x0 SWAP2 PUSH1 0x0 JUMPDEST PUSH1 0xFF DUP2 AND PUSH1 0xA DUP2 LT ISZERO PUSH2 0x1FBD JUMPI PUSH2 0x1F8D PUSH2 0x8ED DUP4 PUSH2 0x1041 JUMP JUMPDEST SWAP1 PUSH1 0x0 JUMPDEST DUP3 DUP2 LT PUSH2 0x1FA6 JUMPI POP POP POP PUSH1 0x1 ADD PUSH1 0xFF AND PUSH2 0x1F74 JUMP JUMPDEST PUSH1 0x1 SWAP1 DUP3 PUSH2 0x1FB6 PUSH2 0x1E84 DUP11 PUSH2 0x10A6 JUMP JUMPDEST MSTORE ADD PUSH2 0x1F91 JUMP JUMPDEST POP POP SWAP2 POP PUSH1 0x0 JUMPDEST DUP2 MLOAD DUP2 LT ISZERO PUSH2 0x202B JUMPI PUSH1 0x1 SWAP1 PUSH2 0x2000 PUSH1 0x40 MLOAD PUSH1 0x20 DUP2 ADD SWAP1 PUSH2 0x1FF5 DUP2 PUSH2 0x14A5 DUP7 TIMESTAMP DUP7 SWAP1 SWAP2 PUSH1 0x40 SWAP3 DUP3 MSTORE PUSH1 0x20 DUP3 ADD MSTORE ADD SWAP1 JUMP JUMPDEST MLOAD SWAP1 KECCAK256 DUP5 MLOAD SWAP1 PUSH2 0xEB0 JUMP JUMPDEST PUSH2 0x200A DUP2 DUP6 PUSH2 0x130C JUMP JUMPDEST MLOAD SWAP1 PUSH2 0x2019 PUSH2 0x158B DUP5 DUP8 PUSH2 0x130C JUMP JUMPDEST MSTORE PUSH2 0x2024 DUP3 DUP6 PUSH2 0x130C JUMP JUMPDEST MSTORE ADD PUSH2 0x1FC4 JUMP JUMPDEST POP SWAP1 JUMP JUMPDEST PUSH2 0x2041 PUSH1 0x1 SWAP2 PUSH2 0x1EAB PUSH2 0x8ED DUP6 PUSH2 0x1041 JUMP JUMPDEST SWAP2 ADD SWAP1 PUSH2 0x1F5C JUMP INVALID SHL PUSH9 0x47DC741A1B0CD08D27 DUP9 GASLIMIT 0xF9 0xD8 NOT 0xD8 PUSH28 0x734759AFB55FE2DE5CB82A9AE672A26469706673582212204AEBE1C4 0xDB 0xD3 DUP1 0x27 PUSH14 0x780E083960AB76D30AD044A77C9 PUSH32 0x70626F95F6A25C1B64736F6C634300081A0033A2646970667358221220B348D3 DUP3 0x29 DUP8 GASPRICE LT BALANCE XOR 0xDE 0xAC SLT PUSH26 0xB0E82B67564C7CE0E0167B14EF62108E14B064736F6C63430008 BYTE STOP CALLER "},"methodIdentifiers":{"createGameRoom(uint256,uint256,uint256,uint256,uint256,uint256[10],address,uint64,bytes32,uint32,uint16,address)":"652b765e","gameConfigs(uint256)":"2b333a47","gameIdCounter()":"1bb412d6","gameRooms(uint256)":"426c4641","getGameRoom(uint256)":"bcdafed1","stakingVault()":"24e7964a"}}}}}