{"contracts/ecvrf/ECVRFRelay.sol":{"ECVRFRelay":{"abi":[{"inputs":[{"internalType":"address","name":"_relayer","type":"address"},{"internalType":"address","name":"_verifier","type":"address"}],"stateMutability":"nonpayable","type":"constructor"},{"anonymous":false,"inputs":[{"indexed":true,"internalType":"address","name":"room","type":"address"},{"indexed":true,"internalType":"uint256","name":"gameId","type":"uint256"},{"indexed":false,"internalType":"uint256","name":"randomWord","type":"uint256"}],"name":"RandomnessSubmitted","type":"event"},{"inputs":[],"name":"relayer","outputs":[{"internalType":"address","name":"","type":"address"}],"stateMutability":"view","type":"function"},{"inputs":[{"internalType":"address","name":"room","type":"address"},{"internalType":"bytes","name":"alpha","type":"bytes"},{"internalType":"bytes","name":"proof","type":"bytes"},{"internalType":"uint256","name":"randomWord","type":"uint256"}],"name":"submitRandomWord","outputs":[],"stateMutability":"nonpayable","type":"function"},{"inputs":[],"name":"verifier","outputs":[{"internalType":"contract IECVRFVerifier","name":"","type":"address"}],"stateMutability":"view","type":"function"}],"evm":{"bytecode":{"linkReferences":{},"object":"60c0346100ce57601f61062138819003918201601f19168301916001600160401b038311848410176100d35780849260409485528339810103126100ce57610052602061004b836100e9565b92016100e9565b906001600160a01b0381161561009e576080526001600160a01b031660a05260405161052390816100fe823960805181818160e601526103ef015260a05181818160b201526104320152f35b60405162461bcd60e51b815260206004820152600860248201526710b932b630bcb2b960c11b6044820152606490fd5b600080fd5b634e487b7160e01b600052604160045260246000fd5b51906001600160a01b03821682036100ce5756fe608080604052600436101561001357600080fd5b600090813560e01c9081632b7ac3f31461041e575080638406c079146103d95763b328bfa51461004257600080fd5b346103d65760803660031901126103d6576004356001600160a01b038116908190036103d25760243567ffffffffffffffff811161027b57610088903690600401610461565b60449291923567ffffffffffffffff81116103ce576100ab903690600401610461565b60643592917f00000000000000000000000000000000000000000000000000000000000000006001600160a01b0316919082610306575050507f00000000000000000000000000000000000000000000000000000000000000006001600160a01b031633036102d6575b60405163d7c81b5560e01b815293602085600481875afa9485156102cb578695610293575b5067ffffffffffffffff821161027f5785604051916101636020601f19601f8701160184610494565b8383526020830193368183011161027b57806020928637830101525190206040516020810190858252846040820152604081526101a1606082610494565b5190200361024d57813b15610249576040516331db047b60e01b815260048101829052848160248183875af1801561023e57610207575b5060207f81b67df6b22a6a37606edc54f9d868482373eae7d6b5e038609843deeb983c9591604051908152a380f35b846102367f81b67df6b22a6a37606edc54f9d868482373eae7d6b5e038609843deeb983c959396602093610494565b9491506101d8565b6040513d87823e3d90fd5b8380fd5b60405162461bcd60e51b815260206004820152600660248201526521616c70686160d01b6044820152606490fd5b8280fd5b634e487b7160e01b86526041600452602486fd5b9094506020813d6020116102c3575b816102af60209383610494565b810103126102bf5751933861013a565b8580fd5b3d91506102a2565b6040513d88823e3d90fd5b60405162461bcd60e51b815260206004820152600860248201526710b932b630bcb2b960c11b6044820152606490fd5b6040516326fc850560e11b8152606060048201529260209284928391829161034891610336606485018b8f6104cc565b848103600319016024860152916104cc565b88604483015203915afa9081156102cb578691610393575b506101155760405162461bcd60e51b815260206004820152600660248201526510b2b1bb393360d11b6044820152606490fd5b90506020813d6020116103c6575b816103ae60209383610494565b810103126102bf575180151581036102bf5738610360565b3d91506103a1565b8480fd5b5080fd5b80fd5b50346103d657806003193601126103d6576040517f00000000000000000000000000000000000000000000000000000000000000006001600160a01b03168152602090f35b9050346103d257816003193601126103d2577f00000000000000000000000000000000000000000000000000000000000000006001600160a01b03168152602090f35b9181601f8401121561048f5782359167ffffffffffffffff831161048f576020838186019501011161048f57565b600080fd5b90601f8019910116810190811067ffffffffffffffff8211176104b657604052565b634e487b7160e01b600052604160045260246000fd5b908060209392818452848401376000828201840152601f01601f191601019056fea2646970667358221220dda8b9fd056e8bcfab5dc4f7baa30239b5dc93ed47b5979a65483edf656f61fe64736f6c634300081a0033","opcodes":"PUSH1 0xC0 CALLVALUE PUSH2 0xCE JUMPI PUSH1 0x1F PUSH2 0x621 CODESIZE DUP2 SWAP1 SUB SWAP2 DUP3 ADD PUSH1 0x1F NOT AND DUP4 ADD SWAP2 PUSH1 0x1 PUSH1 0x1 PUSH1 0x40 SHL SUB DUP4 GT DUP5 DUP5 LT OR PUSH2 0xD3 JUMPI DUP1 DUP5 SWAP3 PUSH1 0x40 SWAP5 DUP6 MSTORE DUP4 CODECOPY DUP2 ADD SUB SLT PUSH2 0xCE JUMPI PUSH2 0x52 PUSH1 0x20 PUSH2 0x4B DUP4 PUSH2 0xE9 JUMP JUMPDEST SWAP3 ADD PUSH2 0xE9 JUMP JUMPDEST SWAP1 PUSH1 0x1 PUSH1 0x1 PUSH1 0xA0 SHL SUB DUP2 AND ISZERO PUSH2 0x9E JUMPI PUSH1 0x80 MSTORE PUSH1 0x1 PUSH1 0x1 PUSH1 0xA0 SHL SUB AND PUSH1 0xA0 MSTORE PUSH1 0x40 MLOAD PUSH2 0x523 SWAP1 DUP2 PUSH2 0xFE DUP3 CODECOPY PUSH1 0x80 MLOAD DUP2 DUP2 DUP2 PUSH1 0xE6 ADD MSTORE PUSH2 0x3EF ADD MSTORE PUSH1 0xA0 MLOAD DUP2 DUP2 DUP2 PUSH1 0xB2 ADD MSTORE PUSH2 0x432 ADD MSTORE RETURN JUMPDEST PUSH1 0x40 MLOAD PUSH3 0x461BCD PUSH1 0xE5 SHL DUP2 MSTORE PUSH1 0x20 PUSH1 0x4 DUP3 ADD MSTORE PUSH1 0x8 PUSH1 0x24 DUP3 ADD MSTORE PUSH8 0x10B932B630BCB2B9 PUSH1 0xC1 SHL PUSH1 0x44 DUP3 ADD MSTORE PUSH1 0x64 SWAP1 REVERT JUMPDEST PUSH1 0x0 DUP1 REVERT JUMPDEST PUSH4 0x4E487B71 PUSH1 0xE0 SHL PUSH1 0x0 MSTORE PUSH1 0x41 PUSH1 0x4 MSTORE PUSH1 0x24 PUSH1 0x0 REVERT JUMPDEST MLOAD SWAP1 PUSH1 0x1 PUSH1 0x1 PUSH1 0xA0 SHL SUB DUP3 AND DUP3 SUB PUSH2 0xCE JUMPI JUMP INVALID PUSH1 0x80 DUP1 PUSH1 0x40 MSTORE PUSH1 0x4 CALLDATASIZE LT ISZERO PUSH2 0x13 JUMPI PUSH1 0x0 DUP1 REVERT JUMPDEST PUSH1 0x0 SWAP1 DUP2 CALLDATALOAD PUSH1 0xE0 SHR SWAP1 DUP2 PUSH4 0x2B7AC3F3 EQ PUSH2 0x41E JUMPI POP DUP1 PUSH4 0x8406C079 EQ PUSH2 0x3D9 JUMPI PUSH4 0xB328BFA5 EQ PUSH2 0x42 JUMPI PUSH1 0x0 DUP1 REVERT JUMPDEST CALLVALUE PUSH2 0x3D6 JUMPI PUSH1 0x80 CALLDATASIZE PUSH1 0x3 NOT ADD SLT PUSH2 0x3D6 JUMPI PUSH1 0x4 CALLDATALOAD PUSH1 0x1 PUSH1 0x1 PUSH1 0xA0 SHL SUB DUP2 AND SWAP1 DUP2 SWAP1 SUB PUSH2 0x3D2 JUMPI PUSH1 0x24 CALLDATALOAD PUSH8 0xFFFFFFFFFFFFFFFF DUP2 GT PUSH2 0x27B JUMPI PUSH2 0x88 SWAP1 CALLDATASIZE SWAP1 PUSH1 0x4 ADD PUSH2 0x461 JUMP JUMPDEST PUSH1 0x44 SWAP3 SWAP2 SWAP3 CALLDATALOAD PUSH8 0xFFFFFFFFFFFFFFFF DUP2 GT PUSH2 0x3CE JUMPI PUSH2 0xAB SWAP1 CALLDATASIZE SWAP1 PUSH1 0x4 ADD PUSH2 0x461 JUMP JUMPDEST PUSH1 0x64 CALLDATALOAD SWAP3 SWAP2 PUSH32 0x0 PUSH1 0x1 PUSH1 0x1 PUSH1 0xA0 SHL SUB AND SWAP2 SWAP1 DUP3 PUSH2 0x306 JUMPI POP POP POP PUSH32 0x0 PUSH1 0x1 PUSH1 0x1 PUSH1 0xA0 SHL SUB AND CALLER SUB PUSH2 0x2D6 JUMPI JUMPDEST PUSH1 0x40 MLOAD PUSH4 0xD7C81B55 PUSH1 0xE0 SHL DUP2 MSTORE SWAP4 PUSH1 0x20 DUP6 PUSH1 0x4 DUP2 DUP8 GAS STATICCALL SWAP5 DUP6 ISZERO PUSH2 0x2CB JUMPI DUP7 SWAP6 PUSH2 0x293 JUMPI JUMPDEST POP PUSH8 0xFFFFFFFFFFFFFFFF DUP3 GT PUSH2 0x27F JUMPI DUP6 PUSH1 0x40 MLOAD SWAP2 PUSH2 0x163 PUSH1 0x20 PUSH1 0x1F NOT PUSH1 0x1F DUP8 ADD AND ADD DUP5 PUSH2 0x494 JUMP JUMPDEST DUP4 DUP4 MSTORE PUSH1 0x20 DUP4 ADD SWAP4 CALLDATASIZE DUP2 DUP4 ADD GT PUSH2 0x27B JUMPI DUP1 PUSH1 0x20 SWAP3 DUP7 CALLDATACOPY DUP4 ADD ADD MSTORE MLOAD SWAP1 KECCAK256 PUSH1 0x40 MLOAD PUSH1 0x20 DUP2 ADD SWAP1 DUP6 DUP3 MSTORE DUP5 PUSH1 0x40 DUP3 ADD MSTORE PUSH1 0x40 DUP2 MSTORE PUSH2 0x1A1 PUSH1 0x60 DUP3 PUSH2 0x494 JUMP JUMPDEST MLOAD SWAP1 KECCAK256 SUB PUSH2 0x24D JUMPI DUP2 EXTCODESIZE ISZERO PUSH2 0x249 JUMPI PUSH1 0x40 MLOAD PUSH4 0x31DB047B PUSH1 0xE0 SHL DUP2 MSTORE PUSH1 0x4 DUP2 ADD DUP3 SWAP1 MSTORE DUP5 DUP2 PUSH1 0x24 DUP2 DUP4 DUP8 GAS CALL DUP1 ISZERO PUSH2 0x23E JUMPI PUSH2 0x207 JUMPI JUMPDEST POP PUSH1 0x20 PUSH32 0x81B67DF6B22A6A37606EDC54F9D868482373EAE7D6B5E038609843DEEB983C95 SWAP2 PUSH1 0x40 MLOAD SWAP1 DUP2 MSTORE LOG3 DUP1 RETURN JUMPDEST DUP5 PUSH2 0x236 PUSH32 0x81B67DF6B22A6A37606EDC54F9D868482373EAE7D6B5E038609843DEEB983C95 SWAP4 SWAP7 PUSH1 0x20 SWAP4 PUSH2 0x494 JUMP JUMPDEST SWAP5 SWAP2 POP PUSH2 0x1D8 JUMP JUMPDEST PUSH1 0x40 MLOAD RETURNDATASIZE DUP8 DUP3 RETURNDATACOPY RETURNDATASIZE SWAP1 REVERT JUMPDEST DUP4 DUP1 REVERT JUMPDEST PUSH1 0x40 MLOAD PUSH3 0x461BCD PUSH1 0xE5 SHL DUP2 MSTORE PUSH1 0x20 PUSH1 0x4 DUP3 ADD MSTORE PUSH1 0x6 PUSH1 0x24 DUP3 ADD MSTORE PUSH6 0x21616C706861 PUSH1 0xD0 SHL PUSH1 0x44 DUP3 ADD MSTORE PUSH1 0x64 SWAP1 REVERT JUMPDEST DUP3 DUP1 REVERT JUMPDEST PUSH4 0x4E487B71 PUSH1 0xE0 SHL DUP7 MSTORE PUSH1 0x41 PUSH1 0x4 MSTORE PUSH1 0x24 DUP7 REVERT JUMPDEST SWAP1 SWAP5 POP PUSH1 0x20 DUP2 RETURNDATASIZE PUSH1 0x20 GT PUSH2 0x2C3 JUMPI JUMPDEST DUP2 PUSH2 0x2AF PUSH1 0x20 SWAP4 DUP4 PUSH2 0x494 JUMP JUMPDEST DUP2 ADD SUB SLT PUSH2 0x2BF JUMPI MLOAD SWAP4 CODESIZE PUSH2 0x13A JUMP JUMPDEST DUP6 DUP1 REVERT JUMPDEST RETURNDATASIZE SWAP2 POP PUSH2 0x2A2 JUMP JUMPDEST PUSH1 0x40 MLOAD RETURNDATASIZE DUP9 DUP3 RETURNDATACOPY RETURNDATASIZE SWAP1 REVERT JUMPDEST PUSH1 0x40 MLOAD PUSH3 0x461BCD PUSH1 0xE5 SHL DUP2 MSTORE PUSH1 0x20 PUSH1 0x4 DUP3 ADD MSTORE PUSH1 0x8 PUSH1 0x24 DUP3 ADD MSTORE PUSH8 0x10B932B630BCB2B9 PUSH1 0xC1 SHL PUSH1 0x44 DUP3 ADD MSTORE PUSH1 0x64 SWAP1 REVERT JUMPDEST PUSH1 0x40 MLOAD PUSH4 0x26FC8505 PUSH1 0xE1 SHL DUP2 MSTORE PUSH1 0x60 PUSH1 0x4 DUP3 ADD MSTORE SWAP3 PUSH1 0x20 SWAP3 DUP5 SWAP3 DUP4 SWAP2 DUP3 SWAP2 PUSH2 0x348 SWAP2 PUSH2 0x336 PUSH1 0x64 DUP6 ADD DUP12 DUP16 PUSH2 0x4CC JUMP JUMPDEST DUP5 DUP2 SUB PUSH1 0x3 NOT ADD PUSH1 0x24 DUP7 ADD MSTORE SWAP2 PUSH2 0x4CC JUMP JUMPDEST DUP9 PUSH1 0x44 DUP4 ADD MSTORE SUB SWAP2 GAS STATICCALL SWAP1 DUP2 ISZERO PUSH2 0x2CB JUMPI DUP7 SWAP2 PUSH2 0x393 JUMPI JUMPDEST POP PUSH2 0x115 JUMPI PUSH1 0x40 MLOAD PUSH3 0x461BCD PUSH1 0xE5 SHL DUP2 MSTORE PUSH1 0x20 PUSH1 0x4 DUP3 ADD MSTORE PUSH1 0x6 PUSH1 0x24 DUP3 ADD MSTORE PUSH6 0x10B2B1BB3933 PUSH1 0xD1 SHL PUSH1 0x44 DUP3 ADD MSTORE PUSH1 0x64 SWAP1 REVERT JUMPDEST SWAP1 POP PUSH1 0x20 DUP2 RETURNDATASIZE PUSH1 0x20 GT PUSH2 0x3C6 JUMPI JUMPDEST DUP2 PUSH2 0x3AE PUSH1 0x20 SWAP4 DUP4 PUSH2 0x494 JUMP JUMPDEST DUP2 ADD SUB SLT PUSH2 0x2BF JUMPI MLOAD DUP1 ISZERO ISZERO DUP2 SUB PUSH2 0x2BF JUMPI CODESIZE PUSH2 0x360 JUMP JUMPDEST RETURNDATASIZE SWAP2 POP PUSH2 0x3A1 JUMP JUMPDEST DUP5 DUP1 REVERT JUMPDEST POP DUP1 REVERT JUMPDEST DUP1 REVERT JUMPDEST POP CALLVALUE PUSH2 0x3D6 JUMPI DUP1 PUSH1 0x3 NOT CALLDATASIZE ADD SLT PUSH2 0x3D6 JUMPI PUSH1 0x40 MLOAD PUSH32 0x0 PUSH1 0x1 PUSH1 0x1 PUSH1 0xA0 SHL SUB AND DUP2 MSTORE PUSH1 0x20 SWAP1 RETURN JUMPDEST SWAP1 POP CALLVALUE PUSH2 0x3D2 JUMPI DUP2 PUSH1 0x3 NOT CALLDATASIZE ADD SLT PUSH2 0x3D2 JUMPI PUSH32 0x0 PUSH1 0x1 PUSH1 0x1 PUSH1 0xA0 SHL SUB AND DUP2 MSTORE PUSH1 0x20 SWAP1 RETURN JUMPDEST SWAP2 DUP2 PUSH1 0x1F DUP5 ADD SLT ISZERO PUSH2 0x48F JUMPI DUP3 CALLDATALOAD SWAP2 PUSH8 0xFFFFFFFFFFFFFFFF DUP4 GT PUSH2 0x48F JUMPI PUSH1 0x20 DUP4 DUP2 DUP7 ADD SWAP6 ADD ADD GT PUSH2 0x48F JUMPI JUMP JUMPDEST PUSH1 0x0 DUP1 REVERT JUMPDEST SWAP1 PUSH1 0x1F DUP1 NOT SWAP2 ADD AND DUP2 ADD SWAP1 DUP2 LT PUSH8 0xFFFFFFFFFFFFFFFF DUP3 GT OR PUSH2 0x4B6 JUMPI PUSH1 0x40 MSTORE JUMP JUMPDEST PUSH4 0x4E487B71 PUSH1 0xE0 SHL PUSH1 0x0 MSTORE PUSH1 0x41 PUSH1 0x4 MSTORE PUSH1 0x24 PUSH1 0x0 REVERT JUMPDEST SWAP1 DUP1 PUSH1 0x20 SWAP4 SWAP3 DUP2 DUP5 MSTORE DUP5 DUP5 ADD CALLDATACOPY PUSH1 0x0 DUP3 DUP3 ADD DUP5 ADD MSTORE PUSH1 0x1F ADD PUSH1 0x1F NOT AND ADD ADD SWAP1 JUMP INVALID LOG2 PUSH5 0x6970667358 0x22 SLT KECCAK256 0xDD 0xA8 0xB9 REVERT SDIV PUSH15 0x8BCFAB5DC4F7BAA30239B5DC93ED47 0xB5 SWAP8 SWAP11 PUSH6 0x483EDF656F61 INVALID PUSH5 0x736F6C6343 STOP ADDMOD BYTE STOP CALLER "},"methodIdentifiers":{"relayer()":"8406c079","submitRandomWord(address,bytes,bytes,uint256)":"b328bfa5","verifier()":"2b7ac3f3"}}}}}