{"contracts/mocks/MockGameRoomEcvrf.sol":{"MockGameRoomEcvrf":{"abi":[{"inputs":[{"internalType":"uint256","name":"_gameId","type":"uint256"},{"internalType":"address","name":"_relay","type":"address"}],"stateMutability":"nonpayable","type":"constructor"},{"inputs":[{"internalType":"uint256","name":"randomWord","type":"uint256"}],"name":"applyECVRFSeed","outputs":[],"stateMutability":"nonpayable","type":"function"},{"inputs":[],"name":"dealing","outputs":[{"internalType":"bool","name":"","type":"bool"}],"stateMutability":"view","type":"function"},{"inputs":[],"name":"ecvrfRelay","outputs":[{"internalType":"address","name":"","type":"address"}],"stateMutability":"view","type":"function"},{"inputs":[],"name":"gameId","outputs":[{"internalType":"uint256","name":"","type":"uint256"}],"stateMutability":"view","type":"function"},{"inputs":[],"name":"lastSeed","outputs":[{"internalType":"uint256","name":"","type":"uint256"}],"stateMutability":"view","type":"function"}],"evm":{"bytecode":{"linkReferences":{},"object":"60c034608a57601f6102e538819003918201601f19168301916001600160401b03831184841017608f578084926040948552833981010312608a578051602090910151906001600160a01b0382168203608a5760805260a052600160ff198154161760015560405161023f90816100a6823960805181606e015260a05181818160ed01526101330152f35b600080fd5b634e487b7160e01b600052604160045260246000fdfe608080604052600436101561001357600080fd5b60003560e01c90816331db047b1461011c57508063733d5038146100d757806376c63a89146100b4578063d070b0fa146100965763d7c81b551461005657600080fd5b346100915760003660031901126100915760206040517f00000000000000000000000000000000000000000000000000000000000000008152f35b600080fd5b34610091576000366003190112610091576020600054604051908152f35b3461009157600036600319011261009157602060ff600154166040519015158152f35b34610091576000366003190112610091576040517f00000000000000000000000000000000000000000000000000000000000000006001600160a01b03168152602090f35b3461009157602036600319011261009157600435907f00000000000000000000000000000000000000000000000000000000000000006001600160a01b031633036101de57506001549060ff8216156101ae5780156101815760005560ff1916600155005b60405162461bcd60e51b8152602060048201526005602482015264217a65726f60d81b6044820152606490fd5b60405162461bcd60e51b8152602060048201526008602482015267216465616c696e6760c01b6044820152606490fd5b62461bcd60e51b81526020600482015260066024820152652172656c617960d01b6044820152606490fdfea26469706673582212203bbde3b527b7ce99ddd12f5fa3ca30b455bfd4908926896c97493380b1ea823164736f6c634300081a0033","opcodes":"PUSH1 0xC0 CALLVALUE PUSH1 0x8A JUMPI PUSH1 0x1F PUSH2 0x2E5 CODESIZE DUP2 SWAP1 SUB SWAP2 DUP3 ADD PUSH1 0x1F NOT AND DUP4 ADD SWAP2 PUSH1 0x1 PUSH1 0x1 PUSH1 0x40 SHL SUB DUP4 GT DUP5 DUP5 LT OR PUSH1 0x8F JUMPI DUP1 DUP5 SWAP3 PUSH1 0x40 SWAP5 DUP6 MSTORE DUP4 CODECOPY DUP2 ADD SUB SLT PUSH1 0x8A JUMPI DUP1 MLOAD PUSH1 0x20 SWAP1 SWAP2 ADD MLOAD SWAP1 PUSH1 0x1 PUSH1 0x1 PUSH1 0xA0 SHL SUB DUP3 AND DUP3 SUB PUSH1 0x8A JUMPI PUSH1 0x80 MSTORE PUSH1 0xA0 MSTORE PUSH1 0x1 PUSH1 0xFF NOT DUP2 SLOAD AND OR PUSH1 0x1 SSTORE PUSH1 0x40 MLOAD PUSH2 0x23F SWAP1 DUP2 PUSH2 0xA6 DUP3 CODECOPY PUSH1 0x80 MLOAD DUP2 PUSH1 0x6E ADD MSTORE PUSH1 0xA0 MLOAD DUP2 DUP2 DUP2 PUSH1 0xED ADD MSTORE PUSH2 0x133 ADD MSTORE RETURN JUMPDEST PUSH1 0x0 DUP1 REVERT JUMPDEST PUSH4 0x4E487B71 PUSH1 0xE0 SHL PUSH1 0x0 MSTORE PUSH1 0x41 PUSH1 0x4 MSTORE PUSH1 0x24 PUSH1 0x0 REVERT INVALID PUSH1 0x80 DUP1 PUSH1 0x40 MSTORE PUSH1 0x4 CALLDATASIZE LT ISZERO PUSH2 0x13 JUMPI PUSH1 0x0 DUP1 REVERT JUMPDEST PUSH1 0x0 CALLDATALOAD PUSH1 0xE0 SHR SWAP1 DUP2 PUSH4 0x31DB047B EQ PUSH2 0x11C JUMPI POP DUP1 PUSH4 0x733D5038 EQ PUSH2 0xD7 JUMPI DUP1 PUSH4 0x76C63A89 EQ PUSH2 0xB4 JUMPI DUP1 PUSH4 0xD070B0FA EQ PUSH2 0x96 JUMPI PUSH4 0xD7C81B55 EQ PUSH2 0x56 JUMPI PUSH1 0x0 DUP1 REVERT JUMPDEST CALLVALUE PUSH2 0x91 JUMPI PUSH1 0x0 CALLDATASIZE PUSH1 0x3 NOT ADD SLT PUSH2 0x91 JUMPI PUSH1 0x20 PUSH1 0x40 MLOAD PUSH32 0x0 DUP2 MSTORE RETURN JUMPDEST PUSH1 0x0 DUP1 REVERT JUMPDEST CALLVALUE PUSH2 0x91 JUMPI PUSH1 0x0 CALLDATASIZE PUSH1 0x3 NOT ADD SLT PUSH2 0x91 JUMPI PUSH1 0x20 PUSH1 0x0 SLOAD PUSH1 0x40 MLOAD SWAP1 DUP2 MSTORE RETURN JUMPDEST CALLVALUE PUSH2 0x91 JUMPI PUSH1 0x0 CALLDATASIZE PUSH1 0x3 NOT ADD SLT PUSH2 0x91 JUMPI PUSH1 0x20 PUSH1 0xFF PUSH1 0x1 SLOAD AND PUSH1 0x40 MLOAD SWAP1 ISZERO ISZERO DUP2 MSTORE RETURN JUMPDEST CALLVALUE PUSH2 0x91 JUMPI PUSH1 0x0 CALLDATASIZE PUSH1 0x3 NOT ADD SLT PUSH2 0x91 JUMPI PUSH1 0x40 MLOAD PUSH32 0x0 PUSH1 0x1 PUSH1 0x1 PUSH1 0xA0 SHL SUB AND DUP2 MSTORE PUSH1 0x20 SWAP1 RETURN JUMPDEST CALLVALUE PUSH2 0x91 JUMPI PUSH1 0x20 CALLDATASIZE PUSH1 0x3 NOT ADD SLT PUSH2 0x91 JUMPI PUSH1 0x4 CALLDATALOAD SWAP1 PUSH32 0x0 PUSH1 0x1 PUSH1 0x1 PUSH1 0xA0 SHL SUB AND CALLER SUB PUSH2 0x1DE JUMPI POP PUSH1 0x1 SLOAD SWAP1 PUSH1 0xFF DUP3 AND ISZERO PUSH2 0x1AE JUMPI DUP1 ISZERO PUSH2 0x181 JUMPI PUSH1 0x0 SSTORE PUSH1 0xFF NOT AND PUSH1 0x1 SSTORE STOP JUMPDEST PUSH1 0x40 MLOAD PUSH3 0x461BCD PUSH1 0xE5 SHL DUP2 MSTORE PUSH1 0x20 PUSH1 0x4 DUP3 ADD MSTORE PUSH1 0x5 PUSH1 0x24 DUP3 ADD MSTORE PUSH5 0x217A65726F PUSH1 0xD8 SHL PUSH1 0x44 DUP3 ADD MSTORE PUSH1 0x64 SWAP1 REVERT JUMPDEST PUSH1 0x40 MLOAD PUSH3 0x461BCD PUSH1 0xE5 SHL DUP2 MSTORE PUSH1 0x20 PUSH1 0x4 DUP3 ADD MSTORE PUSH1 0x8 PUSH1 0x24 DUP3 ADD MSTORE PUSH8 0x216465616C696E67 PUSH1 0xC0 SHL PUSH1 0x44 DUP3 ADD MSTORE PUSH1 0x64 SWAP1 REVERT JUMPDEST PUSH3 0x461BCD PUSH1 0xE5 SHL DUP2 MSTORE PUSH1 0x20 PUSH1 0x4 DUP3 ADD MSTORE PUSH1 0x6 PUSH1 0x24 DUP3 ADD MSTORE PUSH6 0x2172656C6179 PUSH1 0xD0 SHL PUSH1 0x44 DUP3 ADD MSTORE PUSH1 0x64 SWAP1 REVERT INVALID LOG2 PUSH5 0x6970667358 0x22 SLT KECCAK256 EXTCODESIZE 0xBD 0xE3 0xB5 0x27 0xB7 0xCE SWAP10 0xDD 0xD1 0x2F PUSH0 LOG3 0xCA ADDRESS 0xB4 SSTORE 0xBF 0xD4 SWAP1 DUP10 0x26 DUP10 PUSH13 0x97493380B1EA823164736F6C63 NUMBER STOP ADDMOD BYTE STOP CALLER "},"methodIdentifiers":{"applyECVRFSeed(uint256)":"31db047b","dealing()":"76c63a89","ecvrfRelay()":"733d5038","gameId()":"d7c81b55","lastSeed()":"d070b0fa"}}}}}