{"contracts/StakingVault.sol":{"StakingVault":{"abi":[{"inputs":[],"stateMutability":"nonpayable","type":"constructor"},{"anonymous":false,"inputs":[{"indexed":true,"internalType":"uint256","name":"gameId","type":"uint256"},{"indexed":true,"internalType":"address","name":"room","type":"address"}],"name":"GameRoomRegistered","type":"event"},{"anonymous":false,"inputs":[{"indexed":true,"internalType":"uint256","name":"gameId","type":"uint256"},{"indexed":false,"internalType":"uint256","name":"totalRewards","type":"uint256"},{"indexed":false,"internalType":"uint256","name":"fee","type":"uint256"}],"name":"RewardsDistributed","type":"event"},{"anonymous":false,"inputs":[{"indexed":true,"internalType":"uint256","name":"gameId","type":"uint256"},{"indexed":true,"internalType":"address","name":"player","type":"address"},{"indexed":false,"internalType":"uint256","name":"amount","type":"uint256"}],"name":"Staked","type":"event"},{"inputs":[],"name":"FEE_RATE","outputs":[{"internalType":"uint256","name":"","type":"uint256"}],"stateMutability":"view","type":"function"},{"inputs":[{"internalType":"uint256","name":"gameId","type":"uint256"},{"internalType":"address[]","name":"winners","type":"address[]"},{"internalType":"address[]","name":"losers","type":"address[]"}],"name":"distributeRewards","outputs":[],"stateMutability":"nonpayable","type":"function"},{"inputs":[{"internalType":"uint256","name":"amount","type":"uint256"}],"name":"emergencyWithdraw","outputs":[],"stateMutability":"nonpayable","type":"function"},{"inputs":[],"name":"factory","outputs":[{"internalType":"address","name":"","type":"address"}],"stateMutability":"view","type":"function"},{"inputs":[],"name":"feeReceiver","outputs":[{"internalType":"address","name":"","type":"address"}],"stateMutability":"view","type":"function"},{"inputs":[{"internalType":"uint256","name":"","type":"uint256"}],"name":"gamePools","outputs":[{"internalType":"uint256","name":"","type":"uint256"}],"stateMutability":"view","type":"function"},{"inputs":[{"internalType":"uint256","name":"","type":"uint256"}],"name":"gameRooms","outputs":[{"internalType":"address","name":"","type":"address"}],"stateMutability":"view","type":"function"},{"inputs":[{"internalType":"uint256","name":"","type":"uint256"},{"internalType":"address","name":"","type":"address"}],"name":"gameStakes","outputs":[{"internalType":"uint256","name":"","type":"uint256"}],"stateMutability":"view","type":"function"},{"inputs":[{"internalType":"uint256","name":"gameId","type":"uint256"},{"internalType":"address","name":"player","type":"address"}],"name":"getPlayerStake","outputs":[{"internalType":"uint256","name":"","type":"uint256"}],"stateMutability":"view","type":"function"},{"inputs":[{"internalType":"uint256","name":"gameId","type":"uint256"},{"internalType":"address","name":"room","type":"address"}],"name":"registerGameRoom","outputs":[],"stateMutability":"nonpayable","type":"function"},{"inputs":[{"internalType":"address","name":"_factory","type":"address"}],"name":"setFactory","outputs":[],"stateMutability":"nonpayable","type":"function"},{"inputs":[{"internalType":"uint256","name":"gameId","type":"uint256"}],"name":"stake","outputs":[],"stateMutability":"payable","type":"function"},{"inputs":[{"internalType":"uint256","name":"gameId","type":"uint256"},{"internalType":"address","name":"player","type":"address"}],"name":"stakeFor","outputs":[],"stateMutability":"payable","type":"function"},{"stateMutability":"payable","type":"receive"}],"evm":{"bytecode":{"linkReferences":{},"object":"60a08060405234604c57336080819052600380546001600160a01b0319169091179055610d5590816100528239608051818181610145015281816106b70152818161082f01526108db0152f35b600080fdfe608080604052600436101561001d575b50361561001b57600080fd5b005b60003560e01c9081632d11c58a14610b3357508063426c464114610aff5780634d0ed9da14610ad357806351746bb2146109d35780635312ea8e146108c557806355f2ad7f146100e75780635bb478081461080357806372a222821461039b5780639e0395921461022e578063a694fc3a14610174578063b3f006741461012f578063b44f4a55146100e75763c45a0155146100b9573861000f565b346100e25760003660031901126100e2576003546040516001600160a01b039091168152602090f35b600080fd5b346100e25760403660031901126100e257610100610b4d565b600435600052600060205260406000209060018060a01b03166000526020526020604060002054604051908152f35b346100e25760003660031901126100e2576040517f00000000000000000000000000000000000000000000000000000000000000006001600160a01b03168152602090f35b60203660031901126100e25760043561018e341515610b94565b8060005260016020526101be6101a934604060002054610bdf565b82600052600160205260406000205410610bec565b600081815260208181526040808320338452909152902080546101e2903490610bdf565b905580600052600160205260406000206101fd348254610bdf565b9055604051903482527f18dcd430020e4d4899772fd94a8b40451dc5044dfb70bc46b532eeae431c864f60203393a3005b346100e25760403660031901126100e25760043561024a610b4d565b6003546001600160a01b03163303610356576001600160a01b0316908115610311576000818152600260205260409020546001600160a01b03166102cc57600081815260026020526040812080546001600160a01b031916841790557f0d8568db0ba21bc2f3df2ca3fd47edf810160b7d44b1f4f1acaa0424efe994249080a3005b60405162461bcd60e51b815260206004820152601960248201527f5374616b696e675661756c743a20726f6f6d20657869737473000000000000006044820152606490fd5b60405162461bcd60e51b815260206004820152601a60248201527f5374616b696e675661756c743a20726f6f6d206973207a65726f0000000000006044820152606490fd5b60405162461bcd60e51b815260206004820152601a60248201527f5374616b696e675661756c743a206f6e6c7920666163746f72790000000000006044820152606490fd5b346100e25760603660031901126100e25760043560243567ffffffffffffffff81116100e2576103cf903690600401610b63565b60443567ffffffffffffffff81116100e2576103ef903690600401610b63565b6000858152600260205260409020549091906001600160a01b031633036107be5784600052600160205260406000205493841561077957831561073457600a8502858104600a036105fb576103e89004938486039586116105fb57846106af575b6000805b82811061066c57508015918261061b5760005b8181106104fc57505050505060005b8281106104bf57857f6ae8ee960d83517f7fa993ad7a0e16e33d9655a23ff41eefc62bdb289c7a8e5f6040878784600052600160205260008381205582519182526020820152a2005b600190866000526000602052600060408082206104e56104e0858989610ce5565b610d0b565b908391868060a01b03168252602052205501610476565b61050a6104e0828488610ce5565b908a600052600060205260408060002060009060018060a01b038516825260205220548015610611578a81029081048b036105fb576000866105e7575084900480610579575b50600060406001938d8352826020528183208391868060a01b0316825260205220555b01610467565b600080808093865af161058a610c7d565b5015610596578b610550565b60405162461bcd60e51b8152602060048201526024808201527f5374616b696e675661756c743a20726577617264207472616e736665722066616044820152631a5b195960e21b6064820152608490fd5b634e487b7160e01b81526012600452602490fd5b634e487b7160e01b600052601160045260246000fd5b5060019150610573565b60405162461bcd60e51b815260206004820152602360248201527f5374616b696e675661756c743a2077696e6e657273207374616b65206973207a60448201526265726f60e81b6064820152608490fd5b906106a86001918a60005260006020526040806000206106906104e087898b610ce5565b90600091868060a01b03168252602052205490610bdf565b9101610454565b6000808080887f00000000000000000000000000000000000000000000000000000000000000005af16106e0610c7d565b506104505760405162461bcd60e51b815260206004820152602160248201527f5374616b696e675661756c743a20666565207472616e73666572206661696c656044820152601960fa1b6064820152608490fd5b60405162461bcd60e51b815260206004820152601860248201527f5374616b696e675661756c743a206e6f2077696e6e65727300000000000000006044820152606490fd5b60405162461bcd60e51b815260206004820152601e60248201527f5374616b696e675661756c743a206e6f20706f6f6c20666f722067616d6500006044820152606490fd5b60405162461bcd60e51b815260206004820152601c60248201527f5374616b696e675661756c743a206f6e6c792067616d6520726f6f6d000000006044820152606490fd5b346100e25760203660031901126100e2576004356001600160a01b038116908190036100e25761085d337f00000000000000000000000000000000000000000000000000000000000000006001600160a01b031614610c31565b8015610880576bffffffffffffffffffffffff60a01b6003541617600355600080f35b60405162461bcd60e51b815260206004820152601d60248201527f5374616b696e675661756c743a20666163746f7279206973207a65726f0000006044820152606490fd5b346100e25760203660031901126100e2576004357f000000000000000000000000000000000000000000000000000000000000000061090e336001600160a01b03831614610c31565b81471061098357600080809381935af1610926610c7d565b501561092e57005b60405162461bcd60e51b815260206004820152602760248201527f5374616b696e675661756c743a20656d657267656e6379207472616e736665726044820152660819985a5b195960ca1b6064820152608490fd5b60405162461bcd60e51b815260206004820152602260248201527f5374616b696e675661756c743a20696e73756666696369656e742062616c616e604482015261636560f01b6064820152608490fd5b60403660031901126100e2576004356001600160a01b036109f2610b4d565b16908115610a8e57610a05341515610b94565b806000526001602052610a206101a934604060002054610bdf565b8060005260006020526040600020826000526020526040600020610a45348254610bdf565b90558060005260016020526040600020610a60348254610bdf565b90557f18dcd430020e4d4899772fd94a8b40451dc5044dfb70bc46b532eeae431c864f6020604051348152a3005b60405162461bcd60e51b815260206004820152601c60248201527f5374616b696e675661756c743a20706c61796572206973207a65726f000000006044820152606490fd5b346100e25760203660031901126100e25760043560005260016020526020604060002054604051908152f35b346100e25760203660031901126100e2576004356000526002602052602060018060a01b0360406000205416604051908152f35b346100e25760003660031901126100e25780600a60209252f35b602435906001600160a01b03821682036100e257565b9181601f840112156100e25782359167ffffffffffffffff83116100e2576020808501948460051b0101116100e257565b15610b9b57565b606460405162461bcd60e51b815260206004820152602060248201527f5374616b696e675661756c743a20616d6f756e74206d757374206265203e20306044820152fd5b919082018092116105fb57565b15610bf357565b60405162461bcd60e51b81526020600482015260166024820152755374616b696e675661756c743a206f766572666c6f7760501b6044820152606490fd5b15610c3857565b60405162461bcd60e51b815260206004820152601f60248201527f5374616b696e675661756c743a206f6e6c7920666565207265636569766572006044820152606490fd5b3d15610ce0573d9067ffffffffffffffff8211610cca5760405191601f8101601f19908116603f0116830167ffffffffffffffff811184821017610cca5760405282523d6000602084013e565b634e487b7160e01b600052604160045260246000fd5b606090565b9190811015610cf55760051b0190565b634e487b7160e01b600052603260045260246000fd5b356001600160a01b03811681036100e2579056fea264697066735822122079c96e8a72f227cd90403102057129b985c13f0f6a35508e3a74f39966c6d11b64736f6c634300081a0033","opcodes":"PUSH1 0xA0 DUP1 PUSH1 0x40 MSTORE CALLVALUE PUSH1 0x4C JUMPI CALLER PUSH1 0x80 DUP2 SWAP1 MSTORE PUSH1 0x3 DUP1 SLOAD PUSH1 0x1 PUSH1 0x1 PUSH1 0xA0 SHL SUB NOT AND SWAP1 SWAP2 OR SWAP1 SSTORE PUSH2 0xD55 SWAP1 DUP2 PUSH2 0x52 DUP3 CODECOPY PUSH1 0x80 MLOAD DUP2 DUP2 DUP2 PUSH2 0x145 ADD MSTORE DUP2 DUP2 PUSH2 0x6B7 ADD MSTORE DUP2 DUP2 PUSH2 0x82F ADD MSTORE PUSH2 0x8DB ADD MSTORE RETURN JUMPDEST PUSH1 0x0 DUP1 REVERT INVALID PUSH1 0x80 DUP1 PUSH1 0x40 MSTORE PUSH1 0x4 CALLDATASIZE LT ISZERO PUSH2 0x1D JUMPI JUMPDEST POP CALLDATASIZE ISZERO PUSH2 0x1B JUMPI PUSH1 0x0 DUP1 REVERT JUMPDEST STOP JUMPDEST PUSH1 0x0 CALLDATALOAD PUSH1 0xE0 SHR SWAP1 DUP2 PUSH4 0x2D11C58A EQ PUSH2 0xB33 JUMPI POP DUP1 PUSH4 0x426C4641 EQ PUSH2 0xAFF JUMPI DUP1 PUSH4 0x4D0ED9DA EQ PUSH2 0xAD3 JUMPI DUP1 PUSH4 0x51746BB2 EQ PUSH2 0x9D3 JUMPI DUP1 PUSH4 0x5312EA8E EQ PUSH2 0x8C5 JUMPI DUP1 PUSH4 0x55F2AD7F EQ PUSH2 0xE7 JUMPI DUP1 PUSH4 0x5BB47808 EQ PUSH2 0x803 JUMPI DUP1 PUSH4 0x72A22282 EQ PUSH2 0x39B JUMPI DUP1 PUSH4 0x9E039592 EQ PUSH2 0x22E JUMPI DUP1 PUSH4 0xA694FC3A EQ PUSH2 0x174 JUMPI DUP1 PUSH4 0xB3F00674 EQ PUSH2 0x12F JUMPI DUP1 PUSH4 0xB44F4A55 EQ PUSH2 0xE7 JUMPI PUSH4 0xC45A0155 EQ PUSH2 0xB9 JUMPI CODESIZE PUSH2 0xF JUMP JUMPDEST CALLVALUE PUSH2 0xE2 JUMPI PUSH1 0x0 CALLDATASIZE PUSH1 0x3 NOT ADD SLT PUSH2 0xE2 JUMPI PUSH1 0x3 SLOAD PUSH1 0x40 MLOAD PUSH1 0x1 PUSH1 0x1 PUSH1 0xA0 SHL SUB SWAP1 SWAP2 AND DUP2 MSTORE PUSH1 0x20 SWAP1 RETURN JUMPDEST PUSH1 0x0 DUP1 REVERT JUMPDEST CALLVALUE PUSH2 0xE2 JUMPI PUSH1 0x40 CALLDATASIZE PUSH1 0x3 NOT ADD SLT PUSH2 0xE2 JUMPI PUSH2 0x100 PUSH2 0xB4D JUMP JUMPDEST PUSH1 0x4 CALLDATALOAD PUSH1 0x0 MSTORE PUSH1 0x0 PUSH1 0x20 MSTORE PUSH1 0x40 PUSH1 0x0 KECCAK256 SWAP1 PUSH1 0x1 DUP1 PUSH1 0xA0 SHL SUB AND PUSH1 0x0 MSTORE PUSH1 0x20 MSTORE PUSH1 0x20 PUSH1 0x40 PUSH1 0x0 KECCAK256 SLOAD PUSH1 0x40 MLOAD SWAP1 DUP2 MSTORE RETURN JUMPDEST CALLVALUE PUSH2 0xE2 JUMPI PUSH1 0x0 CALLDATASIZE PUSH1 0x3 NOT ADD SLT PUSH2 0xE2 JUMPI PUSH1 0x40 MLOAD PUSH32 0x0 PUSH1 0x1 PUSH1 0x1 PUSH1 0xA0 SHL SUB AND DUP2 MSTORE PUSH1 0x20 SWAP1 RETURN JUMPDEST PUSH1 0x20 CALLDATASIZE PUSH1 0x3 NOT ADD SLT PUSH2 0xE2 JUMPI PUSH1 0x4 CALLDATALOAD PUSH2 0x18E CALLVALUE ISZERO ISZERO PUSH2 0xB94 JUMP JUMPDEST DUP1 PUSH1 0x0 MSTORE PUSH1 0x1 PUSH1 0x20 MSTORE PUSH2 0x1BE PUSH2 0x1A9 CALLVALUE PUSH1 0x40 PUSH1 0x0 KECCAK256 SLOAD PUSH2 0xBDF JUMP JUMPDEST DUP3 PUSH1 0x0 MSTORE PUSH1 0x1 PUSH1 0x20 MSTORE PUSH1 0x40 PUSH1 0x0 KECCAK256 SLOAD LT PUSH2 0xBEC JUMP JUMPDEST PUSH1 0x0 DUP2 DUP2 MSTORE PUSH1 0x20 DUP2 DUP2 MSTORE PUSH1 0x40 DUP1 DUP4 KECCAK256 CALLER DUP5 MSTORE SWAP1 SWAP2 MSTORE SWAP1 KECCAK256 DUP1 SLOAD PUSH2 0x1E2 SWAP1 CALLVALUE SWAP1 PUSH2 0xBDF JUMP JUMPDEST SWAP1 SSTORE DUP1 PUSH1 0x0 MSTORE PUSH1 0x1 PUSH1 0x20 MSTORE PUSH1 0x40 PUSH1 0x0 KECCAK256 PUSH2 0x1FD CALLVALUE DUP3 SLOAD PUSH2 0xBDF JUMP JUMPDEST SWAP1 SSTORE PUSH1 0x40 MLOAD SWAP1 CALLVALUE DUP3 MSTORE PUSH32 0x18DCD430020E4D4899772FD94A8B40451DC5044DFB70BC46B532EEAE431C864F PUSH1 0x20 CALLER SWAP4 LOG3 STOP JUMPDEST CALLVALUE PUSH2 0xE2 JUMPI PUSH1 0x40 CALLDATASIZE PUSH1 0x3 NOT ADD SLT PUSH2 0xE2 JUMPI PUSH1 0x4 CALLDATALOAD PUSH2 0x24A PUSH2 0xB4D JUMP JUMPDEST PUSH1 0x3 SLOAD PUSH1 0x1 PUSH1 0x1 PUSH1 0xA0 SHL SUB AND CALLER SUB PUSH2 0x356 JUMPI PUSH1 0x1 PUSH1 0x1 PUSH1 0xA0 SHL SUB AND SWAP1 DUP2 ISZERO PUSH2 0x311 JUMPI PUSH1 0x0 DUP2 DUP2 MSTORE PUSH1 0x2 PUSH1 0x20 MSTORE PUSH1 0x40 SWAP1 KECCAK256 SLOAD PUSH1 0x1 PUSH1 0x1 PUSH1 0xA0 SHL SUB AND PUSH2 0x2CC JUMPI PUSH1 0x0 DUP2 DUP2 MSTORE PUSH1 0x2 PUSH1 0x20 MSTORE PUSH1 0x40 DUP2 KECCAK256 DUP1 SLOAD PUSH1 0x1 PUSH1 0x1 PUSH1 0xA0 SHL SUB NOT AND DUP5 OR SWAP1 SSTORE PUSH32 0xD8568DB0BA21BC2F3DF2CA3FD47EDF810160B7D44B1F4F1ACAA0424EFE99424 SWAP1 DUP1 LOG3 STOP JUMPDEST PUSH1 0x40 MLOAD PUSH3 0x461BCD PUSH1 0xE5 SHL DUP2 MSTORE PUSH1 0x20 PUSH1 0x4 DUP3 ADD MSTORE PUSH1 0x19 PUSH1 0x24 DUP3 ADD MSTORE PUSH32 0x5374616B696E675661756C743A20726F6F6D2065786973747300000000000000 PUSH1 0x44 DUP3 ADD MSTORE PUSH1 0x64 SWAP1 REVERT JUMPDEST PUSH1 0x40 MLOAD PUSH3 0x461BCD PUSH1 0xE5 SHL DUP2 MSTORE PUSH1 0x20 PUSH1 0x4 DUP3 ADD MSTORE PUSH1 0x1A PUSH1 0x24 DUP3 ADD MSTORE PUSH32 0x5374616B696E675661756C743A20726F6F6D206973207A65726F000000000000 PUSH1 0x44 DUP3 ADD MSTORE PUSH1 0x64 SWAP1 REVERT JUMPDEST PUSH1 0x40 MLOAD PUSH3 0x461BCD PUSH1 0xE5 SHL DUP2 MSTORE PUSH1 0x20 PUSH1 0x4 DUP3 ADD MSTORE PUSH1 0x1A PUSH1 0x24 DUP3 ADD MSTORE PUSH32 0x5374616B696E675661756C743A206F6E6C7920666163746F7279000000000000 PUSH1 0x44 DUP3 ADD MSTORE PUSH1 0x64 SWAP1 REVERT JUMPDEST CALLVALUE PUSH2 0xE2 JUMPI PUSH1 0x60 CALLDATASIZE PUSH1 0x3 NOT ADD SLT PUSH2 0xE2 JUMPI PUSH1 0x4 CALLDATALOAD PUSH1 0x24 CALLDATALOAD PUSH8 0xFFFFFFFFFFFFFFFF DUP2 GT PUSH2 0xE2 JUMPI PUSH2 0x3CF SWAP1 CALLDATASIZE SWAP1 PUSH1 0x4 ADD PUSH2 0xB63 JUMP JUMPDEST PUSH1 0x44 CALLDATALOAD PUSH8 0xFFFFFFFFFFFFFFFF DUP2 GT PUSH2 0xE2 JUMPI PUSH2 0x3EF SWAP1 CALLDATASIZE SWAP1 PUSH1 0x4 ADD PUSH2 0xB63 JUMP JUMPDEST PUSH1 0x0 DUP6 DUP2 MSTORE PUSH1 0x2 PUSH1 0x20 MSTORE PUSH1 0x40 SWAP1 KECCAK256 SLOAD SWAP1 SWAP2 SWAP1 PUSH1 0x1 PUSH1 0x1 PUSH1 0xA0 SHL SUB AND CALLER SUB PUSH2 0x7BE JUMPI DUP5 PUSH1 0x0 MSTORE PUSH1 0x1 PUSH1 0x20 MSTORE PUSH1 0x40 PUSH1 0x0 KECCAK256 SLOAD SWAP4 DUP5 ISZERO PUSH2 0x779 JUMPI DUP4 ISZERO PUSH2 0x734 JUMPI PUSH1 0xA DUP6 MUL DUP6 DUP2 DIV PUSH1 0xA SUB PUSH2 0x5FB JUMPI PUSH2 0x3E8 SWAP1 DIV SWAP4 DUP5 DUP7 SUB SWAP6 DUP7 GT PUSH2 0x5FB JUMPI DUP5 PUSH2 0x6AF JUMPI JUMPDEST PUSH1 0x0 DUP1 JUMPDEST DUP3 DUP2 LT PUSH2 0x66C JUMPI POP DUP1 ISZERO SWAP2 DUP3 PUSH2 0x61B JUMPI PUSH1 0x0 JUMPDEST DUP2 DUP2 LT PUSH2 0x4FC JUMPI POP POP POP POP POP PUSH1 0x0 JUMPDEST DUP3 DUP2 LT PUSH2 0x4BF JUMPI DUP6 PUSH32 0x6AE8EE960D83517F7FA993AD7A0E16E33D9655A23FF41EEFC62BDB289C7A8E5F PUSH1 0x40 DUP8 DUP8 DUP5 PUSH1 0x0 MSTORE PUSH1 0x1 PUSH1 0x20 MSTORE PUSH1 0x0 DUP4 DUP2 KECCAK256 SSTORE DUP3 MLOAD SWAP2 DUP3 MSTORE PUSH1 0x20 DUP3 ADD MSTORE LOG2 STOP JUMPDEST PUSH1 0x1 SWAP1 DUP7 PUSH1 0x0 MSTORE PUSH1 0x0 PUSH1 0x20 MSTORE PUSH1 0x0 PUSH1 0x40 DUP1 DUP3 KECCAK256 PUSH2 0x4E5 PUSH2 0x4E0 DUP6 DUP10 DUP10 PUSH2 0xCE5 JUMP JUMPDEST PUSH2 0xD0B JUMP JUMPDEST SWAP1 DUP4 SWAP2 DUP7 DUP1 PUSH1 0xA0 SHL SUB AND DUP3 MSTORE PUSH1 0x20 MSTORE KECCAK256 SSTORE ADD PUSH2 0x476 JUMP JUMPDEST PUSH2 0x50A PUSH2 0x4E0 DUP3 DUP5 DUP9 PUSH2 0xCE5 JUMP JUMPDEST SWAP1 DUP11 PUSH1 0x0 MSTORE PUSH1 0x0 PUSH1 0x20 MSTORE PUSH1 0x40 DUP1 PUSH1 0x0 KECCAK256 PUSH1 0x0 SWAP1 PUSH1 0x1 DUP1 PUSH1 0xA0 SHL SUB DUP6 AND DUP3 MSTORE PUSH1 0x20 MSTORE KECCAK256 SLOAD DUP1 ISZERO PUSH2 0x611 JUMPI DUP11 DUP2 MUL SWAP1 DUP2 DIV DUP12 SUB PUSH2 0x5FB JUMPI PUSH1 0x0 DUP7 PUSH2 0x5E7 JUMPI POP DUP5 SWAP1 DIV DUP1 PUSH2 0x579 JUMPI JUMPDEST POP PUSH1 0x0 PUSH1 0x40 PUSH1 0x1 SWAP4 DUP14 DUP4 MSTORE DUP3 PUSH1 0x20 MSTORE DUP2 DUP4 KECCAK256 DUP4 SWAP2 DUP7 DUP1 PUSH1 0xA0 SHL SUB AND DUP3 MSTORE PUSH1 0x20 MSTORE KECCAK256 SSTORE JUMPDEST ADD PUSH2 0x467 JUMP JUMPDEST PUSH1 0x0 DUP1 DUP1 DUP1 SWAP4 DUP7 GAS CALL PUSH2 0x58A PUSH2 0xC7D JUMP JUMPDEST POP ISZERO PUSH2 0x596 JUMPI DUP12 PUSH2 0x550 JUMP JUMPDEST PUSH1 0x40 MLOAD PUSH3 0x461BCD PUSH1 0xE5 SHL DUP2 MSTORE PUSH1 0x20 PUSH1 0x4 DUP3 ADD MSTORE PUSH1 0x24 DUP1 DUP3 ADD MSTORE PUSH32 0x5374616B696E675661756C743A20726577617264207472616E73666572206661 PUSH1 0x44 DUP3 ADD MSTORE PUSH4 0x1A5B1959 PUSH1 0xE2 SHL PUSH1 0x64 DUP3 ADD MSTORE PUSH1 0x84 SWAP1 REVERT JUMPDEST PUSH4 0x4E487B71 PUSH1 0xE0 SHL DUP2 MSTORE PUSH1 0x12 PUSH1 0x4 MSTORE PUSH1 0x24 SWAP1 REVERT JUMPDEST PUSH4 0x4E487B71 PUSH1 0xE0 SHL PUSH1 0x0 MSTORE PUSH1 0x11 PUSH1 0x4 MSTORE PUSH1 0x24 PUSH1 0x0 REVERT JUMPDEST POP PUSH1 0x1 SWAP2 POP PUSH2 0x573 JUMP JUMPDEST PUSH1 0x40 MLOAD PUSH3 0x461BCD PUSH1 0xE5 SHL DUP2 MSTORE PUSH1 0x20 PUSH1 0x4 DUP3 ADD MSTORE PUSH1 0x23 PUSH1 0x24 DUP3 ADD MSTORE PUSH32 0x5374616B696E675661756C743A2077696E6E657273207374616B65206973207A PUSH1 0x44 DUP3 ADD MSTORE PUSH3 0x65726F PUSH1 0xE8 SHL PUSH1 0x64 DUP3 ADD MSTORE PUSH1 0x84 SWAP1 REVERT JUMPDEST SWAP1 PUSH2 0x6A8 PUSH1 0x1 SWAP2 DUP11 PUSH1 0x0 MSTORE PUSH1 0x0 PUSH1 0x20 MSTORE PUSH1 0x40 DUP1 PUSH1 0x0 KECCAK256 PUSH2 0x690 PUSH2 0x4E0 DUP8 DUP10 DUP12 PUSH2 0xCE5 JUMP JUMPDEST SWAP1 PUSH1 0x0 SWAP2 DUP7 DUP1 PUSH1 0xA0 SHL SUB AND DUP3 MSTORE PUSH1 0x20 MSTORE KECCAK256 SLOAD SWAP1 PUSH2 0xBDF JUMP JUMPDEST SWAP2 ADD PUSH2 0x454 JUMP JUMPDEST PUSH1 0x0 DUP1 DUP1 DUP1 DUP9 PUSH32 0x0 GAS CALL PUSH2 0x6E0 PUSH2 0xC7D JUMP JUMPDEST POP PUSH2 0x450 JUMPI PUSH1 0x40 MLOAD PUSH3 0x461BCD PUSH1 0xE5 SHL DUP2 MSTORE PUSH1 0x20 PUSH1 0x4 DUP3 ADD MSTORE PUSH1 0x21 PUSH1 0x24 DUP3 ADD MSTORE PUSH32 0x5374616B696E675661756C743A20666565207472616E73666572206661696C65 PUSH1 0x44 DUP3 ADD MSTORE PUSH1 0x19 PUSH1 0xFA SHL PUSH1 0x64 DUP3 ADD MSTORE PUSH1 0x84 SWAP1 REVERT JUMPDEST PUSH1 0x40 MLOAD PUSH3 0x461BCD PUSH1 0xE5 SHL DUP2 MSTORE PUSH1 0x20 PUSH1 0x4 DUP3 ADD MSTORE PUSH1 0x18 PUSH1 0x24 DUP3 ADD MSTORE PUSH32 0x5374616B696E675661756C743A206E6F2077696E6E6572730000000000000000 PUSH1 0x44 DUP3 ADD MSTORE PUSH1 0x64 SWAP1 REVERT JUMPDEST PUSH1 0x40 MLOAD PUSH3 0x461BCD PUSH1 0xE5 SHL DUP2 MSTORE PUSH1 0x20 PUSH1 0x4 DUP3 ADD MSTORE PUSH1 0x1E PUSH1 0x24 DUP3 ADD MSTORE PUSH32 0x5374616B696E675661756C743A206E6F20706F6F6C20666F722067616D650000 PUSH1 0x44 DUP3 ADD MSTORE PUSH1 0x64 SWAP1 REVERT JUMPDEST PUSH1 0x40 MLOAD PUSH3 0x461BCD PUSH1 0xE5 SHL DUP2 MSTORE PUSH1 0x20 PUSH1 0x4 DUP3 ADD MSTORE PUSH1 0x1C PUSH1 0x24 DUP3 ADD MSTORE PUSH32 0x5374616B696E675661756C743A206F6E6C792067616D6520726F6F6D00000000 PUSH1 0x44 DUP3 ADD MSTORE PUSH1 0x64 SWAP1 REVERT JUMPDEST CALLVALUE PUSH2 0xE2 JUMPI PUSH1 0x20 CALLDATASIZE PUSH1 0x3 NOT ADD SLT PUSH2 0xE2 JUMPI PUSH1 0x4 CALLDATALOAD PUSH1 0x1 PUSH1 0x1 PUSH1 0xA0 SHL SUB DUP2 AND SWAP1 DUP2 SWAP1 SUB PUSH2 0xE2 JUMPI PUSH2 0x85D CALLER PUSH32 0x0 PUSH1 0x1 PUSH1 0x1 PUSH1 0xA0 SHL SUB AND EQ PUSH2 0xC31 JUMP JUMPDEST DUP1 ISZERO PUSH2 0x880 JUMPI PUSH12 0xFFFFFFFFFFFFFFFFFFFFFFFF PUSH1 0xA0 SHL PUSH1 0x3 SLOAD AND OR PUSH1 0x3 SSTORE PUSH1 0x0 DUP1 RETURN JUMPDEST PUSH1 0x40 MLOAD PUSH3 0x461BCD PUSH1 0xE5 SHL DUP2 MSTORE PUSH1 0x20 PUSH1 0x4 DUP3 ADD MSTORE PUSH1 0x1D PUSH1 0x24 DUP3 ADD MSTORE PUSH32 0x5374616B696E675661756C743A20666163746F7279206973207A65726F000000 PUSH1 0x44 DUP3 ADD MSTORE PUSH1 0x64 SWAP1 REVERT JUMPDEST CALLVALUE PUSH2 0xE2 JUMPI PUSH1 0x20 CALLDATASIZE PUSH1 0x3 NOT ADD SLT PUSH2 0xE2 JUMPI PUSH1 0x4 CALLDATALOAD PUSH32 0x0 PUSH2 0x90E CALLER PUSH1 0x1 PUSH1 0x1 PUSH1 0xA0 SHL SUB DUP4 AND EQ PUSH2 0xC31 JUMP JUMPDEST DUP2 SELFBALANCE LT PUSH2 0x983 JUMPI PUSH1 0x0 DUP1 DUP1 SWAP4 DUP2 SWAP4 GAS CALL PUSH2 0x926 PUSH2 0xC7D JUMP JUMPDEST POP ISZERO PUSH2 0x92E JUMPI STOP JUMPDEST PUSH1 0x40 MLOAD PUSH3 0x461BCD PUSH1 0xE5 SHL DUP2 MSTORE PUSH1 0x20 PUSH1 0x4 DUP3 ADD MSTORE PUSH1 0x27 PUSH1 0x24 DUP3 ADD MSTORE PUSH32 0x5374616B696E675661756C743A20656D657267656E6379207472616E73666572 PUSH1 0x44 DUP3 ADD MSTORE PUSH7 0x819985A5B1959 PUSH1 0xCA SHL PUSH1 0x64 DUP3 ADD MSTORE PUSH1 0x84 SWAP1 REVERT JUMPDEST PUSH1 0x40 MLOAD PUSH3 0x461BCD PUSH1 0xE5 SHL DUP2 MSTORE PUSH1 0x20 PUSH1 0x4 DUP3 ADD MSTORE PUSH1 0x22 PUSH1 0x24 DUP3 ADD MSTORE PUSH32 0x5374616B696E675661756C743A20696E73756666696369656E742062616C616E PUSH1 0x44 DUP3 ADD MSTORE PUSH2 0x6365 PUSH1 0xF0 SHL PUSH1 0x64 DUP3 ADD MSTORE PUSH1 0x84 SWAP1 REVERT JUMPDEST PUSH1 0x40 CALLDATASIZE PUSH1 0x3 NOT ADD SLT PUSH2 0xE2 JUMPI PUSH1 0x4 CALLDATALOAD PUSH1 0x1 PUSH1 0x1 PUSH1 0xA0 SHL SUB PUSH2 0x9F2 PUSH2 0xB4D JUMP JUMPDEST AND SWAP1 DUP2 ISZERO PUSH2 0xA8E JUMPI PUSH2 0xA05 CALLVALUE ISZERO ISZERO PUSH2 0xB94 JUMP JUMPDEST DUP1 PUSH1 0x0 MSTORE PUSH1 0x1 PUSH1 0x20 MSTORE PUSH2 0xA20 PUSH2 0x1A9 CALLVALUE PUSH1 0x40 PUSH1 0x0 KECCAK256 SLOAD PUSH2 0xBDF JUMP JUMPDEST DUP1 PUSH1 0x0 MSTORE PUSH1 0x0 PUSH1 0x20 MSTORE PUSH1 0x40 PUSH1 0x0 KECCAK256 DUP3 PUSH1 0x0 MSTORE PUSH1 0x20 MSTORE PUSH1 0x40 PUSH1 0x0 KECCAK256 PUSH2 0xA45 CALLVALUE DUP3 SLOAD PUSH2 0xBDF JUMP JUMPDEST SWAP1 SSTORE DUP1 PUSH1 0x0 MSTORE PUSH1 0x1 PUSH1 0x20 MSTORE PUSH1 0x40 PUSH1 0x0 KECCAK256 PUSH2 0xA60 CALLVALUE DUP3 SLOAD PUSH2 0xBDF JUMP JUMPDEST SWAP1 SSTORE PUSH32 0x18DCD430020E4D4899772FD94A8B40451DC5044DFB70BC46B532EEAE431C864F PUSH1 0x20 PUSH1 0x40 MLOAD CALLVALUE DUP2 MSTORE LOG3 STOP JUMPDEST PUSH1 0x40 MLOAD PUSH3 0x461BCD PUSH1 0xE5 SHL DUP2 MSTORE PUSH1 0x20 PUSH1 0x4 DUP3 ADD MSTORE PUSH1 0x1C PUSH1 0x24 DUP3 ADD MSTORE PUSH32 0x5374616B696E675661756C743A20706C61796572206973207A65726F00000000 PUSH1 0x44 DUP3 ADD MSTORE PUSH1 0x64 SWAP1 REVERT JUMPDEST CALLVALUE PUSH2 0xE2 JUMPI PUSH1 0x20 CALLDATASIZE PUSH1 0x3 NOT ADD SLT PUSH2 0xE2 JUMPI PUSH1 0x4 CALLDATALOAD PUSH1 0x0 MSTORE PUSH1 0x1 PUSH1 0x20 MSTORE PUSH1 0x20 PUSH1 0x40 PUSH1 0x0 KECCAK256 SLOAD PUSH1 0x40 MLOAD SWAP1 DUP2 MSTORE RETURN JUMPDEST CALLVALUE PUSH2 0xE2 JUMPI PUSH1 0x20 CALLDATASIZE PUSH1 0x3 NOT ADD SLT PUSH2 0xE2 JUMPI PUSH1 0x4 CALLDATALOAD PUSH1 0x0 MSTORE PUSH1 0x2 PUSH1 0x20 MSTORE PUSH1 0x20 PUSH1 0x1 DUP1 PUSH1 0xA0 SHL SUB PUSH1 0x40 PUSH1 0x0 KECCAK256 SLOAD AND PUSH1 0x40 MLOAD SWAP1 DUP2 MSTORE RETURN JUMPDEST CALLVALUE PUSH2 0xE2 JUMPI PUSH1 0x0 CALLDATASIZE PUSH1 0x3 NOT ADD SLT PUSH2 0xE2 JUMPI DUP1 PUSH1 0xA PUSH1 0x20 SWAP3 MSTORE RETURN JUMPDEST PUSH1 0x24 CALLDATALOAD SWAP1 PUSH1 0x1 PUSH1 0x1 PUSH1 0xA0 SHL SUB DUP3 AND DUP3 SUB PUSH2 0xE2 JUMPI JUMP JUMPDEST SWAP2 DUP2 PUSH1 0x1F DUP5 ADD SLT ISZERO PUSH2 0xE2 JUMPI DUP3 CALLDATALOAD SWAP2 PUSH8 0xFFFFFFFFFFFFFFFF DUP4 GT PUSH2 0xE2 JUMPI PUSH1 0x20 DUP1 DUP6 ADD SWAP5 DUP5 PUSH1 0x5 SHL ADD ADD GT PUSH2 0xE2 JUMPI JUMP JUMPDEST ISZERO PUSH2 0xB9B JUMPI JUMP JUMPDEST PUSH1 0x64 PUSH1 0x40 MLOAD PUSH3 0x461BCD PUSH1 0xE5 SHL DUP2 MSTORE PUSH1 0x20 PUSH1 0x4 DUP3 ADD MSTORE PUSH1 0x20 PUSH1 0x24 DUP3 ADD MSTORE PUSH32 0x5374616B696E675661756C743A20616D6F756E74206D757374206265203E2030 PUSH1 0x44 DUP3 ADD MSTORE REVERT JUMPDEST SWAP2 SWAP1 DUP3 ADD DUP1 SWAP3 GT PUSH2 0x5FB JUMPI JUMP JUMPDEST ISZERO PUSH2 0xBF3 JUMPI JUMP JUMPDEST PUSH1 0x40 MLOAD PUSH3 0x461BCD PUSH1 0xE5 SHL DUP2 MSTORE PUSH1 0x20 PUSH1 0x4 DUP3 ADD MSTORE PUSH1 0x16 PUSH1 0x24 DUP3 ADD MSTORE PUSH22 0x5374616B696E675661756C743A206F766572666C6F77 PUSH1 0x50 SHL PUSH1 0x44 DUP3 ADD MSTORE PUSH1 0x64 SWAP1 REVERT JUMPDEST ISZERO PUSH2 0xC38 JUMPI JUMP JUMPDEST PUSH1 0x40 MLOAD PUSH3 0x461BCD PUSH1 0xE5 SHL DUP2 MSTORE PUSH1 0x20 PUSH1 0x4 DUP3 ADD MSTORE PUSH1 0x1F PUSH1 0x24 DUP3 ADD MSTORE PUSH32 0x5374616B696E675661756C743A206F6E6C792066656520726563656976657200 PUSH1 0x44 DUP3 ADD MSTORE PUSH1 0x64 SWAP1 REVERT JUMPDEST RETURNDATASIZE ISZERO PUSH2 0xCE0 JUMPI RETURNDATASIZE SWAP1 PUSH8 0xFFFFFFFFFFFFFFFF DUP3 GT PUSH2 0xCCA JUMPI PUSH1 0x40 MLOAD SWAP2 PUSH1 0x1F DUP2 ADD PUSH1 0x1F NOT SWAP1 DUP2 AND PUSH1 0x3F ADD AND DUP4 ADD PUSH8 0xFFFFFFFFFFFFFFFF DUP2 GT DUP5 DUP3 LT OR PUSH2 0xCCA JUMPI PUSH1 0x40 MSTORE DUP3 MSTORE RETURNDATASIZE PUSH1 0x0 PUSH1 0x20 DUP5 ADD RETURNDATACOPY JUMP JUMPDEST PUSH4 0x4E487B71 PUSH1 0xE0 SHL PUSH1 0x0 MSTORE PUSH1 0x41 PUSH1 0x4 MSTORE PUSH1 0x24 PUSH1 0x0 REVERT JUMPDEST PUSH1 0x60 SWAP1 JUMP JUMPDEST SWAP2 SWAP1 DUP2 LT ISZERO PUSH2 0xCF5 JUMPI PUSH1 0x5 SHL ADD SWAP1 JUMP JUMPDEST PUSH4 0x4E487B71 PUSH1 0xE0 SHL PUSH1 0x0 MSTORE PUSH1 0x32 PUSH1 0x4 MSTORE PUSH1 0x24 PUSH1 0x0 REVERT JUMPDEST CALLDATALOAD PUSH1 0x1 PUSH1 0x1 PUSH1 0xA0 SHL SUB DUP2 AND DUP2 SUB PUSH2 0xE2 JUMPI SWAP1 JUMP INVALID LOG2 PUSH5 0x6970667358 0x22 SLT KECCAK256 PUSH26 0xC96E8A72F227CD90403102057129B985C13F0F6A35508E3A74F3 SWAP10 PUSH7 0xC6D11B64736F6C PUSH4 0x4300081A STOP CALLER "},"methodIdentifiers":{"FEE_RATE()":"2d11c58a","distributeRewards(uint256,address[],address[])":"72a22282","emergencyWithdraw(uint256)":"5312ea8e","factory()":"c45a0155","feeReceiver()":"b3f00674","gamePools(uint256)":"4d0ed9da","gameRooms(uint256)":"426c4641","gameStakes(uint256,address)":"55f2ad7f","getPlayerStake(uint256,address)":"b44f4a55","registerGameRoom(uint256,address)":"9e039592","setFactory(address)":"5bb47808","stake(uint256)":"a694fc3a","stakeFor(uint256,address)":"51746bb2"}}}}}