{"contracts/ecvrf/NaiveECVRFVerifier.sol":{"NaiveECVRFVerifier":{"abi":[{"inputs":[{"internalType":"bytes","name":"","type":"bytes"},{"internalType":"bytes","name":"proof","type":"bytes"},{"internalType":"uint256","name":"randomWord","type":"uint256"}],"name":"verify","outputs":[{"internalType":"bool","name":"","type":"bool"}],"stateMutability":"pure","type":"function"}],"evm":{"bytecode":{"linkReferences":{},"object":"6080806040523460145760f4908161001a8239f35b600080fdfe6080806040526004361015601257600080fd5b60003560e01c634df90a0a14602657600080fd5b34608e576060366003190112608e5760043567ffffffffffffffff8111608e5760529036906004016093565b50506024359067ffffffffffffffff8211608e576051607660209336906004016093565b905014806084575b15158152f35b506044351515607e565b600080fd5b9181601f84011215608e5782359167ffffffffffffffff8311608e5760208381860195010111608e5756fea2646970667358221220782066006e13358feadc366929848c06b266d83a200a7533fbfdfd9b5124919364736f6c634300081a0033","opcodes":"PUSH1 0x80 DUP1 PUSH1 0x40 MSTORE CALLVALUE PUSH1 0x14 JUMPI PUSH1 0xF4 SWAP1 DUP2 PUSH2 0x1A DUP3 CODECOPY RETURN JUMPDEST PUSH1 0x0 DUP1 REVERT INVALID PUSH1 0x80 DUP1 PUSH1 0x40 MSTORE PUSH1 0x4 CALLDATASIZE LT ISZERO PUSH1 0x12 JUMPI PUSH1 0x0 DUP1 REVERT JUMPDEST PUSH1 0x0 CALLDATALOAD PUSH1 0xE0 SHR PUSH4 0x4DF90A0A EQ PUSH1 0x26 JUMPI PUSH1 0x0 DUP1 REVERT JUMPDEST CALLVALUE PUSH1 0x8E JUMPI PUSH1 0x60 CALLDATASIZE PUSH1 0x3 NOT ADD SLT PUSH1 0x8E JUMPI PUSH1 0x4 CALLDATALOAD PUSH8 0xFFFFFFFFFFFFFFFF DUP2 GT PUSH1 0x8E JUMPI PUSH1 0x52 SWAP1 CALLDATASIZE SWAP1 PUSH1 0x4 ADD PUSH1 0x93 JUMP JUMPDEST POP POP PUSH1 0x24 CALLDATALOAD SWAP1 PUSH8 0xFFFFFFFFFFFFFFFF DUP3 GT PUSH1 0x8E JUMPI PUSH1 0x51 PUSH1 0x76 PUSH1 0x20 SWAP4 CALLDATASIZE SWAP1 PUSH1 0x4 ADD PUSH1 0x93 JUMP JUMPDEST SWAP1 POP EQ DUP1 PUSH1 0x84 JUMPI JUMPDEST ISZERO ISZERO DUP2 MSTORE RETURN JUMPDEST POP PUSH1 0x44 CALLDATALOAD ISZERO ISZERO PUSH1 0x7E JUMP JUMPDEST PUSH1 0x0 DUP1 REVERT JUMPDEST SWAP2 DUP2 PUSH1 0x1F DUP5 ADD SLT ISZERO PUSH1 0x8E JUMPI DUP3 CALLDATALOAD SWAP2 PUSH8 0xFFFFFFFFFFFFFFFF DUP4 GT PUSH1 0x8E JUMPI PUSH1 0x20 DUP4 DUP2 DUP7 ADD SWAP6 ADD ADD GT PUSH1 0x8E JUMPI JUMP INVALID LOG2 PUSH5 0x6970667358 0x22 SLT KECCAK256 PUSH25 0x2066006E13358FEADC366929848C06B266D83A200A7533FBFD REVERT SWAP12 MLOAD 0x24 SWAP2 SWAP4 PUSH5 0x736F6C6343 STOP ADDMOD BYTE STOP CALLER "},"methodIdentifiers":{"verify(bytes,bytes,uint256)":"4df90a0a"}}}}}