{"contracts/ecvrf/Secp256k1Sha256TaiECVRFVerifier.sol":{"Secp256k1Sha256TaiECVRFVerifier":{"abi":[{"inputs":[{"internalType":"uint256","name":"_publicKeyX","type":"uint256"},{"internalType":"uint256","name":"_publicKeyY","type":"uint256"}],"stateMutability":"nonpayable","type":"constructor"},{"inputs":[],"name":"publicKeyX","outputs":[{"internalType":"uint256","name":"","type":"uint256"}],"stateMutability":"view","type":"function"},{"inputs":[],"name":"publicKeyY","outputs":[{"internalType":"uint256","name":"","type":"uint256"}],"stateMutability":"view","type":"function"},{"inputs":[{"internalType":"bytes","name":"alpha","type":"bytes"},{"internalType":"bytes","name":"proof","type":"bytes"},{"internalType":"uint256","name":"randomWord","type":"uint256"}],"name":"verify","outputs":[{"internalType":"bool","name":"","type":"bool"}],"stateMutability":"view","type":"function"}],"evm":{"bytecode":{"linkReferences":{},"object":"60c034607657601f61122438819003918201601f19168301916001600160401b03831184841017607b578084926040948552833981010312607657602081519101519060805260a0526040516111929081610092823960805181818161013a0152610225015260a05181818160ff01526102480152f35b600080fd5b634e487b7160e01b600052604160045260246000fdfe6080604052600436101561001257600080fd5b60003560e01c80634df90a0a14610047578063d7a6f6e8146100425763fa6df55d1461003d57600080fd5b610122565b6100e7565b346100b45760603660031901126100b45760043567ffffffffffffffff81116100b4576100789036906004016100b9565b906024359067ffffffffffffffff82116100b4576020926100a06100aa9336906004016100b9565b916044359361020d565b6040519015158152f35b600080fd5b9181601f840112156100b45782359167ffffffffffffffff83116100b457602083818601950101116100b457565b346100b45760003660031901126100b45760206040517f00000000000000000000000000000000000000000000000000000000000000008152f35b346100b45760003660031901126100b45760206040517f00000000000000000000000000000000000000000000000000000000000000008152f35b634e487b7160e01b600052604160045260246000fd5b6040810190811067ffffffffffffffff82111761018f57604052565b61015d565b90601f8019910116810190811067ffffffffffffffff82111761018f57604052565b906101c46040519283610194565b565b92919267ffffffffffffffff821161018f57604051916101f0601f8201601f191660200184610194565b8294818452818301116100b4578281602093846000960137010152565b9161027361027b92936040519461022386610173565b7f000000000000000000000000000000000000000000000000000000000000000086527f0000000000000000000000000000000000000000000000000000000000000000602087015236916101c6565b9336916101c6565b9060806040519361028c8286610194565b8136863760518451036103245784610301936102fd93866102e46102cb6102c56102b760519b610374565b516001600160f81b03191690565b60f81c90565b926021830151998a916041850151901c930151936105af565b9784526020840197885260408401526060830152610397565b1590565b61031c57821561031c5761031891519051906104e4565b1490565b505050600090565b60405162461bcd60e51b815260206004820152601360248201527226b0b63337b936b2b2102b292310383937b7b360691b6044820152606490fd5b60405190608061036f8184610194565b368337565b8051156103815760200190565b634e487b7160e01b600052603260045260246000fd5b916103a29083610635565b91909260608201519261041a61040c60408501519561041261040c7f483ada7726a3c4655da4fbfc0e1108a8fd17b448a68554199c47d08ffb10d4b87f79be667ef9dcbbac55a06295ce870b07029bfcdb2dce28d959f2815b16f817986020895199015194610b37565b91610bbd565b959097610b37565b6401000003d094919419036401000003d01981116104a8576fffffffffffffffffffffffffffffffff956104a09561049a9561045f936401000003d019900692610a32565b906060830151976104708460400190565b9861048e8a519186516104838860200190565b938986865194610708565b96909551915192610754565b60801c90565b915191161490565b6107e6565b9081519160005b8381106104c5575050016000815290565b80602080928401015181850152016104b4565b6040513d6000823e3d90fd5b61053861051e61052c6104fb6020956000956107fc565b604051607f60f91b87820152600360f81b602182015292839160228301906104ad565b03601f198101835282610194565b604051918280926104ad565b039060025afa156105495760005190565b6104d8565b61058e9061055c6001610833565b63400000f4600160fe1b03906401000003d01990816007816000840908906401000003d019908181800990090861098a565b600281018082116104a8576001166105a35790565b6105ac906108a8565b90565b60ff6105cb9116916002831480156105df575b61055c90610833565b9081018082116104a8576001166105a35790565b50600383146105c2565b607f60f91b8152600160f81b60018201526105ac929161060c91600201906104ad565b906104ad565b61061f90600193926104ad565b60f89190911b6001600160f81b03191681520190565b61064f6106619161064881519160200190565b51906107fc565b61051e604051938492602084016105e9565b60005b61010081106106b25760405162461bcd60e51b815260206004820152601860248201527f4e6f2076616c696420706f696e742077617320666f756e6400000000000000006044820152606490fd5b602060006106d060405161052c8161051e60ff881689888401610612565b039060025afa15610549576000516106e78161054e565b906106f282826108cd565b610700575050600101610664565b939092509050565b61040c61040c936107279596979361071f93610b37565b959094610b37565b6401000003d01903926401000003d01984116104a857610750936401000003d019900692610a32565b9091565b9361060c60009761060c61079460209b61078e6107ba9b61078861052c9b61078261051e9b61060c9f6107fc565b9b6107fc565b976107fc565b936107fc565b604051607f60f91b8d820152600160f91b602182015298899791959160228901906104ad565b039060025afa1561054957600051806040515290565b634e487b7160e01b600052601260045260246000fd5b634e487b7160e01b600052601160045260246000fd5b9060011660020190816002116104a8576040519160ff60f81b9060f81b1660208301526021820152602181526105ac604182610194565b1561083a57565b60405162461bcd60e51b815260206004820152603160248201527f456c6c697074696343757276653a20696e76616c696420636f6d7072657373656044820152700c8408a8640e0ded2dce840e0e4caccd2f607b1b6064820152608490fd5b81156108a3570490565b6107d0565b6401000003d01903906401000003d01982116104a857565b919082039182116104a857565b8015801561092e575b8015610926575b8015610916575b61090f576401000003d01990818180090960076401000003d0199108906401000003d0199080091490565b5050600090565b506401000003d0198210156108e4565b5081156108dd565b506401000003d0198110156108d6565b1561094557565b60405162461bcd60e51b815260206004820152601e60248201527f456c6c697074696343757276653a206d6f64756c7573206973207a65726f00006044820152606490fd5b610994600161093e565b801561090f578115610a2b57600191600160ff1b9190825b6109b65750505090565b9091926401000003d019908483161515840a906401000003d019908009096401000003d01990600185901c83161515840a9082908009096401000003d01990600285901c83161515840a9082908009096401000003d01990600385901c83161515840a9082908009099260041c9190826109ac565b5050600190565b90929091808303610b1a57506401000003d01990830815610b10576401000003d019828009916401000003d01980848409600409916401000003d0199060009082908190800960030908926401000003d0198380086401000003d019036401000003d01981116104a8576401000003d019908186800908926401000003d0198481039081116104a857610750956401000003d01993610ae0908590819080096008096401000003d0196108c0565b926401000003d01992839108900908906401000003d01990819060019009600209905b6401000003d01992610cbd565b5050600090600090565b90610b319291610750946401000003d01993610d9a565b90610b03565b929091928015610bb457600090600094600194826001935b610b5c5750505050929190565b60018116610b88575b906000610b7f9260011c9485946401000003d019936110c4565b92909293610b4f565b93610ba59084848460009a610b7f969c6401000003d01995610f30565b90989097509094909150610b65565b50909190600190565b90929192600084151580610cad575b80610ca5575b15610c6f5760009490856401000003d0196001845b610c165750505050506401000003d01984800991826401000003d0199109936401000003d01992839109900990565b610c2485839a95969a610899565b9181936108a357610c60610c4b610c66936401000003d0199086096401000003d0196108c0565b87966401000003d019919008949a8094611149565b906108c0565b93929184610be7565b60405162461bcd60e51b815260206004820152600e60248201526d24b73b30b634b210373ab6b132b960911b6044820152606490fd5b506001610bd2565b506401000003d019851415610bcc565b9392919384151580610d44575b80610d3b575b15610c6f5760009483159081856001835b610cfe57505050506108a357829081808780098092099509900990565b610d0b84839b959b610899565b9181936108a357610c6089610d2681610d33958709826108c0565b60009708949b8094611149565b929183610ce1565b50821515610cd0565b5082851415610cca565b15610d5557565b60405162461bcd60e51b815260206004820152601e60248201527f557365206a6163446f75626c652066756e6374696f6e20696e737465616400006044820152606490fd5b9391909492841580610f28575b610f1c57811580610f14575b610f0957610dbf61035f565b9583156108a3578380938160018009808a529882808b6001099460208301958652604083018c81529a82808e6001099160608601928352610e0060806101b6565b9d5190098c5251900960208a0152519009604087015251900960608401528251936040840194855114801590610ef7575b610e3a90610d4e565b81610e4361035f565b9551610e508651836108c0565b90088552816060850151610eec8288818060208b0195610e718751836108c0565b900899602083019a8b5281808c8180808089518a5190099360408a01948552610ea18286518c5190099a60600190565b998a52518009610eb28951836108c0565b9008610ec88280885186519009600209836108c0565b90089d51935190519009610edc8d836108c0565b90089009935190519009836108c0565b900894510991929190565b50602084015160608501511415610e31565b505050909190600190565b508015610db3565b90945092506001919050565b508515610da7565b96949695939091958015806110bc575b6110b0578315806110a8575b61109d57610f5861035f565b9285156108a35788948694858093818c800983528183518d0995602084019687528280604086019b81818009808e5290099160608601928352610f9b60806101b6565b9b5190098a5251900960208801525190096040850152519009606082015281815195610fc78360400190565b9687511480159061108b575b610fdc90610d4e565b81610fe561035f565b9751610ff28551836108c0565b9008875281606084015161107e828a818060208a01956110138751836108c0565b90089860208301998a5281808b8180808089518a5190099360408a019485526110438286518c5190099a60600190565b998a525180096110548951836108c0565b900861106a8280885186519009600209836108c0565b90089c51935190519009610edc8c836108c0565b9008965192969509900990565b50602083015160608401511415610fd3565b935050945050929190565b508115610f4c565b50959450509050929190565b508215610f40565b90939194929480156111415782156108a357828086800992818080808680099a8180808a88096004099c8009900992800960030908918387800884038481116104a8578490818580090890818503908582116104a85785809180096008098503908582116104a85785948580949281939b08900908940960020990565b909450919050565b818102929181159184041417156104a85756fea26469706673582212206d79ccdf06ca1e98a23bc6e22b9adc684624e92fb17eebd83fd73988720e593e64736f6c634300081a0033","opcodes":"PUSH1 0xC0 CALLVALUE PUSH1 0x76 JUMPI PUSH1 0x1F PUSH2 0x1224 CODESIZE DUP2 SWAP1 SUB SWAP2 DUP3 ADD PUSH1 0x1F NOT AND DUP4 ADD SWAP2 PUSH1 0x1 PUSH1 0x1 PUSH1 0x40 SHL SUB DUP4 GT DUP5 DUP5 LT OR PUSH1 0x7B JUMPI DUP1 DUP5 SWAP3 PUSH1 0x40 SWAP5 DUP6 MSTORE DUP4 CODECOPY DUP2 ADD SUB SLT PUSH1 0x76 JUMPI PUSH1 0x20 DUP2 MLOAD SWAP2 ADD MLOAD SWAP1 PUSH1 0x80 MSTORE PUSH1 0xA0 MSTORE PUSH1 0x40 MLOAD PUSH2 0x1192 SWAP1 DUP2 PUSH2 0x92 DUP3 CODECOPY PUSH1 0x80 MLOAD DUP2 DUP2 DUP2 PUSH2 0x13A ADD MSTORE PUSH2 0x225 ADD MSTORE PUSH1 0xA0 MLOAD DUP2 DUP2 DUP2 PUSH1 0xFF ADD MSTORE PUSH2 0x248 ADD MSTORE RETURN JUMPDEST PUSH1 0x0 DUP1 REVERT JUMPDEST PUSH4 0x4E487B71 PUSH1 0xE0 SHL PUSH1 0x0 MSTORE PUSH1 0x41 PUSH1 0x4 MSTORE PUSH1 0x24 PUSH1 0x0 REVERT INVALID PUSH1 0x80 PUSH1 0x40 MSTORE PUSH1 0x4 CALLDATASIZE LT ISZERO PUSH2 0x12 JUMPI PUSH1 0x0 DUP1 REVERT JUMPDEST PUSH1 0x0 CALLDATALOAD PUSH1 0xE0 SHR DUP1 PUSH4 0x4DF90A0A EQ PUSH2 0x47 JUMPI DUP1 PUSH4 0xD7A6F6E8 EQ PUSH2 0x42 JUMPI PUSH4 0xFA6DF55D EQ PUSH2 0x3D JUMPI PUSH1 0x0 DUP1 REVERT JUMPDEST PUSH2 0x122 JUMP JUMPDEST PUSH2 0xE7 JUMP JUMPDEST CALLVALUE PUSH2 0xB4 JUMPI PUSH1 0x60 CALLDATASIZE PUSH1 0x3 NOT ADD SLT PUSH2 0xB4 JUMPI PUSH1 0x4 CALLDATALOAD PUSH8 0xFFFFFFFFFFFFFFFF DUP2 GT PUSH2 0xB4 JUMPI PUSH2 0x78 SWAP1 CALLDATASIZE SWAP1 PUSH1 0x4 ADD PUSH2 0xB9 JUMP JUMPDEST SWAP1 PUSH1 0x24 CALLDATALOAD SWAP1 PUSH8 0xFFFFFFFFFFFFFFFF DUP3 GT PUSH2 0xB4 JUMPI PUSH1 0x20 SWAP3 PUSH2 0xA0 PUSH2 0xAA SWAP4 CALLDATASIZE SWAP1 PUSH1 0x4 ADD PUSH2 0xB9 JUMP JUMPDEST SWAP2 PUSH1 0x44 CALLDATALOAD SWAP4 PUSH2 0x20D JUMP JUMPDEST PUSH1 0x40 MLOAD SWAP1 ISZERO ISZERO DUP2 MSTORE RETURN JUMPDEST PUSH1 0x0 DUP1 REVERT JUMPDEST SWAP2 DUP2 PUSH1 0x1F DUP5 ADD SLT ISZERO PUSH2 0xB4 JUMPI DUP3 CALLDATALOAD SWAP2 PUSH8 0xFFFFFFFFFFFFFFFF DUP4 GT PUSH2 0xB4 JUMPI PUSH1 0x20 DUP4 DUP2 DUP7 ADD SWAP6 ADD ADD GT PUSH2 0xB4 JUMPI JUMP JUMPDEST CALLVALUE PUSH2 0xB4 JUMPI PUSH1 0x0 CALLDATASIZE PUSH1 0x3 NOT ADD SLT PUSH2 0xB4 JUMPI PUSH1 0x20 PUSH1 0x40 MLOAD PUSH32 0x0 DUP2 MSTORE RETURN JUMPDEST CALLVALUE PUSH2 0xB4 JUMPI PUSH1 0x0 CALLDATASIZE PUSH1 0x3 NOT ADD SLT PUSH2 0xB4 JUMPI PUSH1 0x20 PUSH1 0x40 MLOAD PUSH32 0x0 DUP2 MSTORE RETURN JUMPDEST PUSH4 0x4E487B71 PUSH1 0xE0 SHL PUSH1 0x0 MSTORE PUSH1 0x41 PUSH1 0x4 MSTORE PUSH1 0x24 PUSH1 0x0 REVERT JUMPDEST PUSH1 0x40 DUP2 ADD SWAP1 DUP2 LT PUSH8 0xFFFFFFFFFFFFFFFF DUP3 GT OR PUSH2 0x18F JUMPI PUSH1 0x40 MSTORE JUMP JUMPDEST PUSH2 0x15D JUMP JUMPDEST SWAP1 PUSH1 0x1F DUP1 NOT SWAP2 ADD AND DUP2 ADD SWAP1 DUP2 LT PUSH8 0xFFFFFFFFFFFFFFFF DUP3 GT OR PUSH2 0x18F JUMPI PUSH1 0x40 MSTORE JUMP JUMPDEST SWAP1 PUSH2 0x1C4 PUSH1 0x40 MLOAD SWAP3 DUP4 PUSH2 0x194 JUMP JUMPDEST JUMP JUMPDEST SWAP3 SWAP2 SWAP3 PUSH8 0xFFFFFFFFFFFFFFFF DUP3 GT PUSH2 0x18F JUMPI PUSH1 0x40 MLOAD SWAP2 PUSH2 0x1F0 PUSH1 0x1F DUP3 ADD PUSH1 0x1F NOT AND PUSH1 0x20 ADD DUP5 PUSH2 0x194 JUMP JUMPDEST DUP3 SWAP5 DUP2 DUP5 MSTORE DUP2 DUP4 ADD GT PUSH2 0xB4 JUMPI DUP3 DUP2 PUSH1 0x20 SWAP4 DUP5 PUSH1 0x0 SWAP7 ADD CALLDATACOPY ADD ADD MSTORE JUMP JUMPDEST SWAP2 PUSH2 0x273 PUSH2 0x27B SWAP3 SWAP4 PUSH1 0x40 MLOAD SWAP5 PUSH2 0x223 DUP7 PUSH2 0x173 JUMP JUMPDEST PUSH32 0x0 DUP7 MSTORE PUSH32 0x0 PUSH1 0x20 DUP8 ADD MSTORE CALLDATASIZE SWAP2 PUSH2 0x1C6 JUMP JUMPDEST SWAP4 CALLDATASIZE SWAP2 PUSH2 0x1C6 JUMP JUMPDEST SWAP1 PUSH1 0x80 PUSH1 0x40 MLOAD SWAP4 PUSH2 0x28C DUP3 DUP7 PUSH2 0x194 JUMP JUMPDEST DUP2 CALLDATASIZE DUP7 CALLDATACOPY PUSH1 0x51 DUP5 MLOAD SUB PUSH2 0x324 JUMPI DUP5 PUSH2 0x301 SWAP4 PUSH2 0x2FD SWAP4 DUP7 PUSH2 0x2E4 PUSH2 0x2CB PUSH2 0x2C5 PUSH2 0x2B7 PUSH1 0x51 SWAP12 PUSH2 0x374 JUMP JUMPDEST MLOAD PUSH1 0x1 PUSH1 0x1 PUSH1 0xF8 SHL SUB NOT AND SWAP1 JUMP JUMPDEST PUSH1 0xF8 SHR SWAP1 JUMP JUMPDEST SWAP3 PUSH1 0x21 DUP4 ADD MLOAD SWAP10 DUP11 SWAP2 PUSH1 0x41 DUP6 ADD MLOAD SWAP1 SHR SWAP4 ADD MLOAD SWAP4 PUSH2 0x5AF JUMP JUMPDEST SWAP8 DUP5 MSTORE PUSH1 0x20 DUP5 ADD SWAP8 DUP9 MSTORE PUSH1 0x40 DUP5 ADD MSTORE PUSH1 0x60 DUP4 ADD MSTORE PUSH2 0x397 JUMP JUMPDEST ISZERO SWAP1 JUMP JUMPDEST PUSH2 0x31C JUMPI DUP3 ISZERO PUSH2 0x31C JUMPI PUSH2 0x318 SWAP2 MLOAD SWAP1 MLOAD SWAP1 PUSH2 0x4E4 JUMP JUMPDEST EQ SWAP1 JUMP JUMPDEST POP POP POP PUSH1 0x0 SWAP1 JUMP JUMPDEST PUSH1 0x40 MLOAD PUSH3 0x461BCD PUSH1 0xE5 SHL DUP2 MSTORE PUSH1 0x20 PUSH1 0x4 DUP3 ADD MSTORE PUSH1 0x13 PUSH1 0x24 DUP3 ADD MSTORE PUSH19 0x26B0B63337B936B2B2102B292310383937B7B3 PUSH1 0x69 SHL PUSH1 0x44 DUP3 ADD MSTORE PUSH1 0x64 SWAP1 REVERT JUMPDEST PUSH1 0x40 MLOAD SWAP1 PUSH1 0x80 PUSH2 0x36F DUP2 DUP5 PUSH2 0x194 JUMP JUMPDEST CALLDATASIZE DUP4 CALLDATACOPY JUMP JUMPDEST DUP1 MLOAD ISZERO PUSH2 0x381 JUMPI PUSH1 0x20 ADD SWAP1 JUMP JUMPDEST PUSH4 0x4E487B71 PUSH1 0xE0 SHL PUSH1 0x0 MSTORE PUSH1 0x32 PUSH1 0x4 MSTORE PUSH1 0x24 PUSH1 0x0 REVERT JUMPDEST SWAP2 PUSH2 0x3A2 SWAP1 DUP4 PUSH2 0x635 JUMP JUMPDEST SWAP2 SWAP1 SWAP3 PUSH1 0x60 DUP3 ADD MLOAD SWAP3 PUSH2 0x41A PUSH2 0x40C PUSH1 0x40 DUP6 ADD MLOAD SWAP6 PUSH2 0x412 PUSH2 0x40C PUSH32 0x483ADA7726A3C4655DA4FBFC0E1108A8FD17B448A68554199C47D08FFB10D4B8 PUSH32 0x79BE667EF9DCBBAC55A06295CE870B07029BFCDB2DCE28D959F2815B16F81798 PUSH1 0x20 DUP10 MLOAD SWAP10 ADD MLOAD SWAP5 PUSH2 0xB37 JUMP JUMPDEST SWAP2 PUSH2 0xBBD JUMP JUMPDEST SWAP6 SWAP1 SWAP8 PUSH2 0xB37 JUMP JUMPDEST PUSH5 0x1000003D0 SWAP5 SWAP2 SWAP5 NOT SUB PUSH5 0x1000003D0 NOT DUP2 GT PUSH2 0x4A8 JUMPI PUSH16 0xFFFFFFFFFFFFFFFFFFFFFFFFFFFFFFFF SWAP6 PUSH2 0x4A0 SWAP6 PUSH2 0x49A SWAP6 PUSH2 0x45F SWAP4 PUSH5 0x1000003D0 NOT SWAP1 MOD SWAP3 PUSH2 0xA32 JUMP JUMPDEST SWAP1 PUSH1 0x60 DUP4 ADD MLOAD SWAP8 PUSH2 0x470 DUP5 PUSH1 0x40 ADD SWAP1 JUMP JUMPDEST SWAP9 PUSH2 0x48E DUP11 MLOAD SWAP2 DUP7 MLOAD PUSH2 0x483 DUP9 PUSH1 0x20 ADD SWAP1 JUMP JUMPDEST SWAP4 DUP10 DUP7 DUP7 MLOAD SWAP5 PUSH2 0x708 JUMP JUMPDEST SWAP7 SWAP1 SWAP6 MLOAD SWAP2 MLOAD SWAP3 PUSH2 0x754 JUMP JUMPDEST PUSH1 0x80 SHR SWAP1 JUMP JUMPDEST SWAP2 MLOAD SWAP2 AND EQ SWAP1 JUMP JUMPDEST PUSH2 0x7E6 JUMP JUMPDEST SWAP1 DUP2 MLOAD SWAP2 PUSH1 0x0 JUMPDEST DUP4 DUP2 LT PUSH2 0x4C5 JUMPI POP POP ADD PUSH1 0x0 DUP2 MSTORE SWAP1 JUMP JUMPDEST DUP1 PUSH1 0x20 DUP1 SWAP3 DUP5 ADD ADD MLOAD DUP2 DUP6 ADD MSTORE ADD PUSH2 0x4B4 JUMP JUMPDEST PUSH1 0x40 MLOAD RETURNDATASIZE PUSH1 0x0 DUP3 RETURNDATACOPY RETURNDATASIZE SWAP1 REVERT JUMPDEST PUSH2 0x538 PUSH2 0x51E PUSH2 0x52C PUSH2 0x4FB PUSH1 0x20 SWAP6 PUSH1 0x0 SWAP6 PUSH2 0x7FC JUMP JUMPDEST PUSH1 0x40 MLOAD PUSH1 0x7F PUSH1 0xF9 SHL DUP8 DUP3 ADD MSTORE PUSH1 0x3 PUSH1 0xF8 SHL PUSH1 0x21 DUP3 ADD MSTORE SWAP3 DUP4 SWAP2 PUSH1 0x22 DUP4 ADD SWAP1 PUSH2 0x4AD JUMP JUMPDEST SUB PUSH1 0x1F NOT DUP2 ADD DUP4 MSTORE DUP3 PUSH2 0x194 JUMP JUMPDEST PUSH1 0x40 MLOAD SWAP2 DUP3 DUP1 SWAP3 PUSH2 0x4AD JUMP JUMPDEST SUB SWAP1 PUSH1 0x2 GAS STATICCALL ISZERO PUSH2 0x549 JUMPI PUSH1 0x0 MLOAD SWAP1 JUMP JUMPDEST PUSH2 0x4D8 JUMP JUMPDEST PUSH2 0x58E SWAP1 PUSH2 0x55C PUSH1 0x1 PUSH2 0x833 JUMP JUMPDEST PUSH4 0x400000F4 PUSH1 0x1 PUSH1 0xFE SHL SUB SWAP1 PUSH5 0x1000003D0 NOT SWAP1 DUP2 PUSH1 0x7 DUP2 PUSH1 0x0 DUP5 MULMOD ADDMOD SWAP1 PUSH5 0x1000003D0 NOT SWAP1 DUP2 DUP2 DUP1 MULMOD SWAP1 MULMOD ADDMOD PUSH2 0x98A JUMP JUMPDEST PUSH1 0x2 DUP2 ADD DUP1 DUP3 GT PUSH2 0x4A8 JUMPI PUSH1 0x1 AND PUSH2 0x5A3 JUMPI SWAP1 JUMP JUMPDEST PUSH2 0x5AC SWAP1 PUSH2 0x8A8 JUMP JUMPDEST SWAP1 JUMP JUMPDEST PUSH1 0xFF PUSH2 0x5CB SWAP2 AND SWAP2 PUSH1 0x2 DUP4 EQ DUP1 ISZERO PUSH2 0x5DF JUMPI JUMPDEST PUSH2 0x55C SWAP1 PUSH2 0x833 JUMP JUMPDEST SWAP1 DUP2 ADD DUP1 DUP3 GT PUSH2 0x4A8 JUMPI PUSH1 0x1 AND PUSH2 0x5A3 JUMPI SWAP1 JUMP JUMPDEST POP PUSH1 0x3 DUP4 EQ PUSH2 0x5C2 JUMP JUMPDEST PUSH1 0x7F PUSH1 0xF9 SHL DUP2 MSTORE PUSH1 0x1 PUSH1 0xF8 SHL PUSH1 0x1 DUP3 ADD MSTORE PUSH2 0x5AC SWAP3 SWAP2 PUSH2 0x60C SWAP2 PUSH1 0x2 ADD SWAP1 PUSH2 0x4AD JUMP JUMPDEST SWAP1 PUSH2 0x4AD JUMP JUMPDEST PUSH2 0x61F SWAP1 PUSH1 0x1 SWAP4 SWAP3 PUSH2 0x4AD JUMP JUMPDEST PUSH1 0xF8 SWAP2 SWAP1 SWAP2 SHL PUSH1 0x1 PUSH1 0x1 PUSH1 0xF8 SHL SUB NOT AND DUP2 MSTORE ADD SWAP1 JUMP JUMPDEST PUSH2 0x64F PUSH2 0x661 SWAP2 PUSH2 0x648 DUP2 MLOAD SWAP2 PUSH1 0x20 ADD SWAP1 JUMP JUMPDEST MLOAD SWAP1 PUSH2 0x7FC JUMP JUMPDEST PUSH2 0x51E PUSH1 0x40 MLOAD SWAP4 DUP5 SWAP3 PUSH1 0x20 DUP5 ADD PUSH2 0x5E9 JUMP JUMPDEST PUSH1 0x0 JUMPDEST PUSH2 0x100 DUP2 LT PUSH2 0x6B2 JUMPI PUSH1 0x40 MLOAD PUSH3 0x461BCD PUSH1 0xE5 SHL DUP2 MSTORE PUSH1 0x20 PUSH1 0x4 DUP3 ADD MSTORE PUSH1 0x18 PUSH1 0x24 DUP3 ADD MSTORE PUSH32 0x4E6F2076616C696420706F696E742077617320666F756E640000000000000000 PUSH1 0x44 DUP3 ADD MSTORE PUSH1 0x64 SWAP1 REVERT JUMPDEST PUSH1 0x20 PUSH1 0x0 PUSH2 0x6D0 PUSH1 0x40 MLOAD PUSH2 0x52C DUP2 PUSH2 0x51E PUSH1 0xFF DUP9 AND DUP10 DUP9 DUP5 ADD PUSH2 0x612 JUMP JUMPDEST SUB SWAP1 PUSH1 0x2 GAS STATICCALL ISZERO PUSH2 0x549 JUMPI PUSH1 0x0 MLOAD PUSH2 0x6E7 DUP2 PUSH2 0x54E JUMP JUMPDEST SWAP1 PUSH2 0x6F2 DUP3 DUP3 PUSH2 0x8CD JUMP JUMPDEST PUSH2 0x700 JUMPI POP POP PUSH1 0x1 ADD PUSH2 0x664 JUMP JUMPDEST SWAP4 SWAP1 SWAP3 POP SWAP1 POP JUMP JUMPDEST PUSH2 0x40C PUSH2 0x40C SWAP4 PUSH2 0x727 SWAP6 SWAP7 SWAP8 SWAP4 PUSH2 0x71F SWAP4 PUSH2 0xB37 JUMP JUMPDEST SWAP6 SWAP1 SWAP5 PUSH2 0xB37 JUMP JUMPDEST PUSH5 0x1000003D0 NOT SUB SWAP3 PUSH5 0x1000003D0 NOT DUP5 GT PUSH2 0x4A8 JUMPI PUSH2 0x750 SWAP4 PUSH5 0x1000003D0 NOT SWAP1 MOD SWAP3 PUSH2 0xA32 JUMP JUMPDEST SWAP1 SWAP2 JUMP JUMPDEST SWAP4 PUSH2 0x60C PUSH1 0x0 SWAP8 PUSH2 0x60C PUSH2 0x794 PUSH1 0x20 SWAP12 PUSH2 0x78E PUSH2 0x7BA SWAP12 PUSH2 0x788 PUSH2 0x52C SWAP12 PUSH2 0x782 PUSH2 0x51E SWAP12 PUSH2 0x60C SWAP16 PUSH2 0x7FC JUMP JUMPDEST SWAP12 PUSH2 0x7FC JUMP JUMPDEST SWAP8 PUSH2 0x7FC JUMP JUMPDEST SWAP4 PUSH2 0x7FC JUMP JUMPDEST PUSH1 0x40 MLOAD PUSH1 0x7F PUSH1 0xF9 SHL DUP14 DUP3 ADD MSTORE PUSH1 0x1 PUSH1 0xF9 SHL PUSH1 0x21 DUP3 ADD MSTORE SWAP9 DUP10 SWAP8 SWAP2 SWAP6 SWAP2 PUSH1 0x22 DUP10 ADD SWAP1 PUSH2 0x4AD JUMP JUMPDEST SUB SWAP1 PUSH1 0x2 GAS STATICCALL ISZERO PUSH2 0x549 JUMPI PUSH1 0x0 MLOAD DUP1 PUSH1 0x40 MLOAD MSTORE SWAP1 JUMP JUMPDEST PUSH4 0x4E487B71 PUSH1 0xE0 SHL PUSH1 0x0 MSTORE PUSH1 0x12 PUSH1 0x4 MSTORE PUSH1 0x24 PUSH1 0x0 REVERT JUMPDEST PUSH4 0x4E487B71 PUSH1 0xE0 SHL PUSH1 0x0 MSTORE PUSH1 0x11 PUSH1 0x4 MSTORE PUSH1 0x24 PUSH1 0x0 REVERT JUMPDEST SWAP1 PUSH1 0x1 AND PUSH1 0x2 ADD SWAP1 DUP2 PUSH1 0x2 GT PUSH2 0x4A8 JUMPI PUSH1 0x40 MLOAD SWAP2 PUSH1 0xFF PUSH1 0xF8 SHL SWAP1 PUSH1 0xF8 SHL AND PUSH1 0x20 DUP4 ADD MSTORE PUSH1 0x21 DUP3 ADD MSTORE PUSH1 0x21 DUP2 MSTORE PUSH2 0x5AC PUSH1 0x41 DUP3 PUSH2 0x194 JUMP JUMPDEST ISZERO PUSH2 0x83A JUMPI JUMP JUMPDEST PUSH1 0x40 MLOAD PUSH3 0x461BCD PUSH1 0xE5 SHL DUP2 MSTORE PUSH1 0x20 PUSH1 0x4 DUP3 ADD MSTORE PUSH1 0x31 PUSH1 0x24 DUP3 ADD MSTORE PUSH32 0x456C6C697074696343757276653A20696E76616C696420636F6D707265737365 PUSH1 0x44 DUP3 ADD MSTORE PUSH17 0xC8408A8640E0DED2DCE840E0E4CACCD2F PUSH1 0x7B SHL PUSH1 0x64 DUP3 ADD MSTORE PUSH1 0x84 SWAP1 REVERT JUMPDEST DUP2 ISZERO PUSH2 0x8A3 JUMPI DIV SWAP1 JUMP JUMPDEST PUSH2 0x7D0 JUMP JUMPDEST PUSH5 0x1000003D0 NOT SUB SWAP1 PUSH5 0x1000003D0 NOT DUP3 GT PUSH2 0x4A8 JUMPI JUMP JUMPDEST SWAP2 SWAP1 DUP3 SUB SWAP2 DUP3 GT PUSH2 0x4A8 JUMPI JUMP JUMPDEST DUP1 ISZERO DUP1 ISZERO PUSH2 0x92E JUMPI JUMPDEST DUP1 ISZERO PUSH2 0x926 JUMPI JUMPDEST DUP1 ISZERO PUSH2 0x916 JUMPI JUMPDEST PUSH2 0x90F JUMPI PUSH5 0x1000003D0 NOT SWAP1 DUP2 DUP2 DUP1 MULMOD MULMOD PUSH1 0x7 PUSH5 0x1000003D0 NOT SWAP2 ADDMOD SWAP1 PUSH5 0x1000003D0 NOT SWAP1 DUP1 MULMOD EQ SWAP1 JUMP JUMPDEST POP POP PUSH1 0x0 SWAP1 JUMP JUMPDEST POP PUSH5 0x1000003D0 NOT DUP3 LT ISZERO PUSH2 0x8E4 JUMP JUMPDEST POP DUP2 ISZERO PUSH2 0x8DD JUMP JUMPDEST POP PUSH5 0x1000003D0 NOT DUP2 LT ISZERO PUSH2 0x8D6 JUMP JUMPDEST ISZERO PUSH2 0x945 JUMPI JUMP JUMPDEST PUSH1 0x40 MLOAD PUSH3 0x461BCD PUSH1 0xE5 SHL DUP2 MSTORE PUSH1 0x20 PUSH1 0x4 DUP3 ADD MSTORE PUSH1 0x1E PUSH1 0x24 DUP3 ADD MSTORE PUSH32 0x456C6C697074696343757276653A206D6F64756C7573206973207A65726F0000 PUSH1 0x44 DUP3 ADD MSTORE PUSH1 0x64 SWAP1 REVERT JUMPDEST PUSH2 0x994 PUSH1 0x1 PUSH2 0x93E JUMP JUMPDEST DUP1 ISZERO PUSH2 0x90F JUMPI DUP2 ISZERO PUSH2 0xA2B JUMPI PUSH1 0x1 SWAP2 PUSH1 0x1 PUSH1 0xFF SHL SWAP2 SWAP1 DUP3 JUMPDEST PUSH2 0x9B6 JUMPI POP POP POP SWAP1 JUMP JUMPDEST SWAP1 SWAP2 SWAP3 PUSH5 0x1000003D0 NOT SWAP1 DUP5 DUP4 AND ISZERO ISZERO DUP5 EXP SWAP1 PUSH5 0x1000003D0 NOT SWAP1 DUP1 MULMOD MULMOD PUSH5 0x1000003D0 NOT SWAP1 PUSH1 0x1 DUP6 SWAP1 SHR DUP4 AND ISZERO ISZERO DUP5 EXP SWAP1 DUP3 SWAP1 DUP1 MULMOD MULMOD PUSH5 0x1000003D0 NOT SWAP1 PUSH1 0x2 DUP6 SWAP1 SHR DUP4 AND ISZERO ISZERO DUP5 EXP SWAP1 DUP3 SWAP1 DUP1 MULMOD MULMOD PUSH5 0x1000003D0 NOT SWAP1 PUSH1 0x3 DUP6 SWAP1 SHR DUP4 AND ISZERO ISZERO DUP5 EXP SWAP1 DUP3 SWAP1 DUP1 MULMOD MULMOD SWAP3 PUSH1 0x4 SHR SWAP2 SWAP1 DUP3 PUSH2 0x9AC JUMP JUMPDEST POP POP PUSH1 0x1 SWAP1 JUMP JUMPDEST SWAP1 SWAP3 SWAP1 SWAP2 DUP1 DUP4 SUB PUSH2 0xB1A JUMPI POP PUSH5 0x1000003D0 NOT SWAP1 DUP4 ADDMOD ISZERO PUSH2 0xB10 JUMPI PUSH5 0x1000003D0 NOT DUP3 DUP1 MULMOD SWAP2 PUSH5 0x1000003D0 NOT DUP1 DUP5 DUP5 MULMOD PUSH1 0x4 MULMOD SWAP2 PUSH5 0x1000003D0 NOT SWAP1 PUSH1 0x0 SWAP1 DUP3 SWAP1 DUP2 SWAP1 DUP1 MULMOD PUSH1 0x3 MULMOD ADDMOD SWAP3 PUSH5 0x1000003D0 NOT DUP4 DUP1 ADDMOD PUSH5 0x1000003D0 NOT SUB PUSH5 0x1000003D0 NOT DUP2 GT PUSH2 0x4A8 JUMPI PUSH5 0x1000003D0 NOT SWAP1 DUP2 DUP7 DUP1 MULMOD ADDMOD SWAP3 PUSH5 0x1000003D0 NOT DUP5 DUP2 SUB SWAP1 DUP2 GT PUSH2 0x4A8 JUMPI PUSH2 0x750 SWAP6 PUSH5 0x1000003D0 NOT SWAP4 PUSH2 0xAE0 SWAP1 DUP6 SWAP1 DUP2 SWAP1 DUP1 MULMOD PUSH1 0x8 MULMOD PUSH5 0x1000003D0 NOT PUSH2 0x8C0 JUMP JUMPDEST SWAP3 PUSH5 0x1000003D0 NOT SWAP3 DUP4 SWAP2 ADDMOD SWAP1 MULMOD ADDMOD SWAP1 PUSH5 0x1000003D0 NOT SWAP1 DUP2 SWAP1 PUSH1 0x1 SWAP1 MULMOD PUSH1 0x2 MULMOD SWAP1 JUMPDEST PUSH5 0x1000003D0 NOT SWAP3 PUSH2 0xCBD JUMP JUMPDEST POP POP PUSH1 0x0 SWAP1 PUSH1 0x0 SWAP1 JUMP JUMPDEST SWAP1 PUSH2 0xB31 SWAP3 SWAP2 PUSH2 0x750 SWAP5 PUSH5 0x1000003D0 NOT SWAP4 PUSH2 0xD9A JUMP JUMPDEST SWAP1 PUSH2 0xB03 JUMP JUMPDEST SWAP3 SWAP1 SWAP2 SWAP3 DUP1 ISZERO PUSH2 0xBB4 JUMPI PUSH1 0x0 SWAP1 PUSH1 0x0 SWAP5 PUSH1 0x1 SWAP5 DUP3 PUSH1 0x1 SWAP4 JUMPDEST PUSH2 0xB5C JUMPI POP POP POP POP SWAP3 SWAP2 SWAP1 JUMP JUMPDEST PUSH1 0x1 DUP2 AND PUSH2 0xB88 JUMPI JUMPDEST SWAP1 PUSH1 0x0 PUSH2 0xB7F SWAP3 PUSH1 0x1 SHR SWAP5 DUP6 SWAP5 PUSH5 0x1000003D0 NOT SWAP4 PUSH2 0x10C4 JUMP JUMPDEST SWAP3 SWAP1 SWAP3 SWAP4 PUSH2 0xB4F JUMP JUMPDEST SWAP4 PUSH2 0xBA5 SWAP1 DUP5 DUP5 DUP5 PUSH1 0x0 SWAP11 PUSH2 0xB7F SWAP7 SWAP13 PUSH5 0x1000003D0 NOT SWAP6 PUSH2 0xF30 JUMP JUMPDEST SWAP1 SWAP9 SWAP1 SWAP8 POP SWAP1 SWAP5 SWAP1 SWAP2 POP PUSH2 0xB65 JUMP JUMPDEST POP SWAP1 SWAP2 SWAP1 PUSH1 0x1 SWAP1 JUMP JUMPDEST SWAP1 SWAP3 SWAP2 SWAP3 PUSH1 0x0 DUP5 ISZERO ISZERO DUP1 PUSH2 0xCAD JUMPI JUMPDEST DUP1 PUSH2 0xCA5 JUMPI JUMPDEST ISZERO PUSH2 0xC6F JUMPI PUSH1 0x0 SWAP5 SWAP1 DUP6 PUSH5 0x1000003D0 NOT PUSH1 0x1 DUP5 JUMPDEST PUSH2 0xC16 JUMPI POP POP POP POP POP PUSH5 0x1000003D0 NOT DUP5 DUP1 MULMOD SWAP2 DUP3 PUSH5 0x1000003D0 NOT SWAP2 MULMOD SWAP4 PUSH5 0x1000003D0 NOT SWAP3 DUP4 SWAP2 MULMOD SWAP1 MULMOD SWAP1 JUMP JUMPDEST PUSH2 0xC24 DUP6 DUP4 SWAP11 SWAP6 SWAP7 SWAP11 PUSH2 0x899 JUMP JUMPDEST SWAP2 DUP2 SWAP4 PUSH2 0x8A3 JUMPI PUSH2 0xC60 PUSH2 0xC4B PUSH2 0xC66 SWAP4 PUSH5 0x1000003D0 NOT SWAP1 DUP7 MULMOD PUSH5 0x1000003D0 NOT PUSH2 0x8C0 JUMP JUMPDEST DUP8 SWAP7 PUSH5 0x1000003D0 NOT SWAP2 SWAP1 ADDMOD SWAP5 SWAP11 DUP1 SWAP5 PUSH2 0x1149 JUMP JUMPDEST SWAP1 PUSH2 0x8C0 JUMP JUMPDEST SWAP4 SWAP3 SWAP2 DUP5 PUSH2 0xBE7 JUMP JUMPDEST PUSH1 0x40 MLOAD PUSH3 0x461BCD PUSH1 0xE5 SHL DUP2 MSTORE PUSH1 0x20 PUSH1 0x4 DUP3 ADD MSTORE PUSH1 0xE PUSH1 0x24 DUP3 ADD MSTORE PUSH14 0x24B73B30B634B210373AB6B132B9 PUSH1 0x91 SHL PUSH1 0x44 DUP3 ADD MSTORE PUSH1 0x64 SWAP1 REVERT JUMPDEST POP PUSH1 0x1 PUSH2 0xBD2 JUMP JUMPDEST POP PUSH5 0x1000003D0 NOT DUP6 EQ ISZERO PUSH2 0xBCC JUMP JUMPDEST SWAP4 SWAP3 SWAP2 SWAP4 DUP5 ISZERO ISZERO DUP1 PUSH2 0xD44 JUMPI JUMPDEST DUP1 PUSH2 0xD3B JUMPI JUMPDEST ISZERO PUSH2 0xC6F JUMPI PUSH1 0x0 SWAP5 DUP4 ISZERO SWAP1 DUP2 DUP6 PUSH1 0x1 DUP4 JUMPDEST PUSH2 0xCFE JUMPI POP POP POP POP PUSH2 0x8A3 JUMPI DUP3 SWAP1 DUP2 DUP1 DUP8 DUP1 MULMOD DUP1 SWAP3 MULMOD SWAP6 MULMOD SWAP1 MULMOD SWAP1 JUMP JUMPDEST PUSH2 0xD0B DUP5 DUP4 SWAP12 SWAP6 SWAP12 PUSH2 0x899 JUMP JUMPDEST SWAP2 DUP2 SWAP4 PUSH2 0x8A3 JUMPI PUSH2 0xC60 DUP10 PUSH2 0xD26 DUP2 PUSH2 0xD33 SWAP6 DUP8 MULMOD DUP3 PUSH2 0x8C0 JUMP JUMPDEST PUSH1 0x0 SWAP8 ADDMOD SWAP5 SWAP12 DUP1 SWAP5 PUSH2 0x1149 JUMP JUMPDEST SWAP3 SWAP2 DUP4 PUSH2 0xCE1 JUMP JUMPDEST POP DUP3 ISZERO ISZERO PUSH2 0xCD0 JUMP JUMPDEST POP DUP3 DUP6 EQ ISZERO PUSH2 0xCCA JUMP JUMPDEST ISZERO PUSH2 0xD55 JUMPI JUMP JUMPDEST PUSH1 0x40 MLOAD PUSH3 0x461BCD PUSH1 0xE5 SHL DUP2 MSTORE PUSH1 0x20 PUSH1 0x4 DUP3 ADD MSTORE PUSH1 0x1E PUSH1 0x24 DUP3 ADD MSTORE PUSH32 0x557365206A6163446F75626C652066756E6374696F6E20696E73746561640000 PUSH1 0x44 DUP3 ADD MSTORE PUSH1 0x64 SWAP1 REVERT JUMPDEST SWAP4 SWAP2 SWAP1 SWAP5 SWAP3 DUP5 ISZERO DUP1 PUSH2 0xF28 JUMPI JUMPDEST PUSH2 0xF1C JUMPI DUP2 ISZERO DUP1 PUSH2 0xF14 JUMPI JUMPDEST PUSH2 0xF09 JUMPI PUSH2 0xDBF PUSH2 0x35F JUMP JUMPDEST SWAP6 DUP4 ISZERO PUSH2 0x8A3 JUMPI DUP4 DUP1 SWAP4 DUP2 PUSH1 0x1 DUP1 MULMOD DUP1 DUP11 MSTORE SWAP9 DUP3 DUP1 DUP12 PUSH1 0x1 MULMOD SWAP5 PUSH1 0x20 DUP4 ADD SWAP6 DUP7 MSTORE PUSH1 0x40 DUP4 ADD DUP13 DUP2 MSTORE SWAP11 DUP3 DUP1 DUP15 PUSH1 0x1 MULMOD SWAP2 PUSH1 0x60 DUP7 ADD SWAP3 DUP4 MSTORE PUSH2 0xE00 PUSH1 0x80 PUSH2 0x1B6 JUMP JUMPDEST SWAP14 MLOAD SWAP1 MULMOD DUP13 MSTORE MLOAD SWAP1 MULMOD PUSH1 0x20 DUP11 ADD MSTORE MLOAD SWAP1 MULMOD PUSH1 0x40 DUP8 ADD MSTORE MLOAD SWAP1 MULMOD PUSH1 0x60 DUP5 ADD MSTORE DUP3 MLOAD SWAP4 PUSH1 0x40 DUP5 ADD SWAP5 DUP6 MLOAD EQ DUP1 ISZERO SWAP1 PUSH2 0xEF7 JUMPI JUMPDEST PUSH2 0xE3A SWAP1 PUSH2 0xD4E JUMP JUMPDEST DUP2 PUSH2 0xE43 PUSH2 0x35F JUMP JUMPDEST SWAP6 MLOAD PUSH2 0xE50 DUP7 MLOAD DUP4 PUSH2 0x8C0 JUMP JUMPDEST SWAP1 ADDMOD DUP6 MSTORE DUP2 PUSH1 0x60 DUP6 ADD MLOAD PUSH2 0xEEC DUP3 DUP9 DUP2 DUP1 PUSH1 0x20 DUP12 ADD SWAP6 PUSH2 0xE71 DUP8 MLOAD DUP4 PUSH2 0x8C0 JUMP JUMPDEST SWAP1 ADDMOD SWAP10 PUSH1 0x20 DUP4 ADD SWAP11 DUP12 MSTORE DUP2 DUP1 DUP13 DUP2 DUP1 DUP1 DUP1 DUP10 MLOAD DUP11 MLOAD SWAP1 MULMOD SWAP4 PUSH1 0x40 DUP11 ADD SWAP5 DUP6 MSTORE PUSH2 0xEA1 DUP3 DUP7 MLOAD DUP13 MLOAD SWAP1 MULMOD SWAP11 PUSH1 0x60 ADD SWAP1 JUMP JUMPDEST SWAP10 DUP11 MSTORE MLOAD DUP1 MULMOD PUSH2 0xEB2 DUP10 MLOAD DUP4 PUSH2 0x8C0 JUMP JUMPDEST SWAP1 ADDMOD PUSH2 0xEC8 DUP3 DUP1 DUP9 MLOAD DUP7 MLOAD SWAP1 MULMOD PUSH1 0x2 MULMOD DUP4 PUSH2 0x8C0 JUMP JUMPDEST SWAP1 ADDMOD SWAP14 MLOAD SWAP4 MLOAD SWAP1 MLOAD SWAP1 MULMOD PUSH2 0xEDC DUP14 DUP4 PUSH2 0x8C0 JUMP JUMPDEST SWAP1 ADDMOD SWAP1 MULMOD SWAP4 MLOAD SWAP1 MLOAD SWAP1 MULMOD DUP4 PUSH2 0x8C0 JUMP JUMPDEST SWAP1 ADDMOD SWAP5 MLOAD MULMOD SWAP2 SWAP3 SWAP2 SWAP1 JUMP JUMPDEST POP PUSH1 0x20 DUP5 ADD MLOAD PUSH1 0x60 DUP6 ADD MLOAD EQ ISZERO PUSH2 0xE31 JUMP JUMPDEST POP POP POP SWAP1 SWAP2 SWAP1 PUSH1 0x1 SWAP1 JUMP JUMPDEST POP DUP1 ISZERO PUSH2 0xDB3 JUMP JUMPDEST SWAP1 SWAP5 POP SWAP3 POP PUSH1 0x1 SWAP2 SWAP1 POP JUMP JUMPDEST POP DUP6 ISZERO PUSH2 0xDA7 JUMP JUMPDEST SWAP7 SWAP5 SWAP7 SWAP6 SWAP4 SWAP1 SWAP2 SWAP6 DUP1 ISZERO DUP1 PUSH2 0x10BC JUMPI JUMPDEST PUSH2 0x10B0 JUMPI DUP4 ISZERO DUP1 PUSH2 0x10A8 JUMPI JUMPDEST PUSH2 0x109D JUMPI PUSH2 0xF58 PUSH2 0x35F JUMP JUMPDEST SWAP3 DUP6 ISZERO PUSH2 0x8A3 JUMPI DUP9 SWAP5 DUP7 SWAP5 DUP6 DUP1 SWAP4 DUP2 DUP13 DUP1 MULMOD DUP4 MSTORE DUP2 DUP4 MLOAD DUP14 MULMOD SWAP6 PUSH1 0x20 DUP5 ADD SWAP7 DUP8 MSTORE DUP3 DUP1 PUSH1 0x40 DUP7 ADD SWAP12 DUP2 DUP2 DUP1 MULMOD DUP1 DUP15 MSTORE SWAP1 MULMOD SWAP2 PUSH1 0x60 DUP7 ADD SWAP3 DUP4 MSTORE PUSH2 0xF9B PUSH1 0x80 PUSH2 0x1B6 JUMP JUMPDEST SWAP12 MLOAD SWAP1 MULMOD DUP11 MSTORE MLOAD SWAP1 MULMOD PUSH1 0x20 DUP9 ADD MSTORE MLOAD SWAP1 MULMOD PUSH1 0x40 DUP6 ADD MSTORE MLOAD SWAP1 MULMOD PUSH1 0x60 DUP3 ADD MSTORE DUP2 DUP2 MLOAD SWAP6 PUSH2 0xFC7 DUP4 PUSH1 0x40 ADD SWAP1 JUMP JUMPDEST SWAP7 DUP8 MLOAD EQ DUP1 ISZERO SWAP1 PUSH2 0x108B JUMPI JUMPDEST PUSH2 0xFDC SWAP1 PUSH2 0xD4E JUMP JUMPDEST DUP2 PUSH2 0xFE5 PUSH2 0x35F JUMP JUMPDEST SWAP8 MLOAD PUSH2 0xFF2 DUP6 MLOAD DUP4 PUSH2 0x8C0 JUMP JUMPDEST SWAP1 ADDMOD DUP8 MSTORE DUP2 PUSH1 0x60 DUP5 ADD MLOAD PUSH2 0x107E DUP3 DUP11 DUP2 DUP1 PUSH1 0x20 DUP11 ADD SWAP6 PUSH2 0x1013 DUP8 MLOAD DUP4 PUSH2 0x8C0 JUMP JUMPDEST SWAP1 ADDMOD SWAP9 PUSH1 0x20 DUP4 ADD SWAP10 DUP11 MSTORE DUP2 DUP1 DUP12 DUP2 DUP1 DUP1 DUP1 DUP10 MLOAD DUP11 MLOAD SWAP1 MULMOD SWAP4 PUSH1 0x40 DUP11 ADD SWAP5 DUP6 MSTORE PUSH2 0x1043 DUP3 DUP7 MLOAD DUP13 MLOAD SWAP1 MULMOD SWAP11 PUSH1 0x60 ADD SWAP1 JUMP JUMPDEST SWAP10 DUP11 MSTORE MLOAD DUP1 MULMOD PUSH2 0x1054 DUP10 MLOAD DUP4 PUSH2 0x8C0 JUMP JUMPDEST SWAP1 ADDMOD PUSH2 0x106A DUP3 DUP1 DUP9 MLOAD DUP7 MLOAD SWAP1 MULMOD PUSH1 0x2 MULMOD DUP4 PUSH2 0x8C0 JUMP JUMPDEST SWAP1 ADDMOD SWAP13 MLOAD SWAP4 MLOAD SWAP1 MLOAD SWAP1 MULMOD PUSH2 0xEDC DUP13 DUP4 PUSH2 0x8C0 JUMP JUMPDEST SWAP1 ADDMOD SWAP7 MLOAD SWAP3 SWAP7 SWAP6 MULMOD SWAP1 MULMOD SWAP1 JUMP JUMPDEST POP PUSH1 0x20 DUP4 ADD MLOAD PUSH1 0x60 DUP5 ADD MLOAD EQ ISZERO PUSH2 0xFD3 JUMP JUMPDEST SWAP4 POP POP SWAP5 POP POP SWAP3 SWAP2 SWAP1 JUMP JUMPDEST POP DUP2 ISZERO PUSH2 0xF4C JUMP JUMPDEST POP SWAP6 SWAP5 POP POP SWAP1 POP SWAP3 SWAP2 SWAP1 JUMP JUMPDEST POP DUP3 ISZERO PUSH2 0xF40 JUMP JUMPDEST SWAP1 SWAP4 SWAP2 SWAP5 SWAP3 SWAP5 DUP1 ISZERO PUSH2 0x1141 JUMPI DUP3 ISZERO PUSH2 0x8A3 JUMPI DUP3 DUP1 DUP7 DUP1 MULMOD SWAP3 DUP2 DUP1 DUP1 DUP1 DUP7 DUP1 MULMOD SWAP11 DUP2 DUP1 DUP1 DUP11 DUP9 MULMOD PUSH1 0x4 MULMOD SWAP13 DUP1 MULMOD SWAP1 MULMOD SWAP3 DUP1 MULMOD PUSH1 0x3 MULMOD ADDMOD SWAP2 DUP4 DUP8 DUP1 ADDMOD DUP5 SUB DUP5 DUP2 GT PUSH2 0x4A8 JUMPI DUP5 SWAP1 DUP2 DUP6 DUP1 MULMOD ADDMOD SWAP1 DUP2 DUP6 SUB SWAP1 DUP6 DUP3 GT PUSH2 0x4A8 JUMPI DUP6 DUP1 SWAP2 DUP1 MULMOD PUSH1 0x8 MULMOD DUP6 SUB SWAP1 DUP6 DUP3 GT PUSH2 0x4A8 JUMPI DUP6 SWAP5 DUP6 DUP1 SWAP5 SWAP3 DUP2 SWAP4 SWAP12 ADDMOD SWAP1 MULMOD ADDMOD SWAP5 MULMOD PUSH1 0x2 MULMOD SWAP1 JUMP JUMPDEST SWAP1 SWAP5 POP SWAP2 SWAP1 POP JUMP JUMPDEST DUP2 DUP2 MUL SWAP3 SWAP2 DUP2 ISZERO SWAP2 DUP5 DIV EQ OR ISZERO PUSH2 0x4A8 JUMPI JUMP INVALID LOG2 PUSH5 0x6970667358 0x22 SLT KECCAK256 PUSH14 0x79CCDF06CA1E98A23BC6E22B9ADC PUSH9 0x4624E92FB17EEBD83F 0xD7 CODECOPY DUP9 PUSH19 0xE593E64736F6C634300081A00330000000000 "},"methodIdentifiers":{"publicKeyX()":"fa6df55d","publicKeyY()":"d7a6f6e8","verify(bytes,bytes,uint256)":"4df90a0a"}}}}}