{
	"contracts/StakingVault.sol": {
		"StakingVault": {
			"abi": [
				{
					"inputs": [],
					"stateMutability": "nonpayable",
					"type": "constructor"
				},
				{
					"anonymous": false,
					"inputs": [
						{
							"indexed": true,
							"internalType": "uint256",
							"name": "gameId",
							"type": "uint256"
						},
						{
							"indexed": true,
							"internalType": "address",
							"name": "room",
							"type": "address"
						}
					],
					"name": "GameRoomRegistered",
					"type": "event"
				},
				{
					"anonymous": false,
					"inputs": [
						{
							"indexed": true,
							"internalType": "uint256",
							"name": "gameId",
							"type": "uint256"
						},
						{
							"indexed": false,
							"internalType": "uint256",
							"name": "totalRewards",
							"type": "uint256"
						},
						{
							"indexed": false,
							"internalType": "uint256",
							"name": "fee",
							"type": "uint256"
						}
					],
					"name": "RewardsDistributed",
					"type": "event"
				},
				{
					"anonymous": false,
					"inputs": [
						{
							"indexed": true,
							"internalType": "uint256",
							"name": "gameId",
							"type": "uint256"
						},
						{
							"indexed": true,
							"internalType": "address",
							"name": "player",
							"type": "address"
						},
						{
							"indexed": false,
							"internalType": "uint256",
							"name": "amount",
							"type": "uint256"
						}
					],
					"name": "Staked",
					"type": "event"
				},
				{
					"inputs": [],
					"name": "FEE_RATE",
					"outputs": [
						{
							"internalType": "uint256",
							"name": "",
							"type": "uint256"
						}
					],
					"stateMutability": "view",
					"type": "function"
				},
				{
					"inputs": [
						{
							"internalType": "uint256",
							"name": "gameId",
							"type": "uint256"
						},
						{
							"internalType": "address[]",
							"name": "winners",
							"type": "address[]"
						},
						{
							"internalType": "address[]",
							"name": "losers",
							"type": "address[]"
						}
					],
					"name": "distributeRewards",
					"outputs": [],
					"stateMutability": "nonpayable",
					"type": "function"
				},
				{
					"inputs": [
						{
							"internalType": "uint256",
							"name": "amount",
							"type": "uint256"
						}
					],
					"name": "emergencyWithdraw",
					"outputs": [],
					"stateMutability": "nonpayable",
					"type": "function"
				},
				{
					"inputs": [],
					"name": "factory",
					"outputs": [
						{
							"internalType": "address",
							"name": "",
							"type": "address"
						}
					],
					"stateMutability": "view",
					"type": "function"
				},
				{
					"inputs": [],
					"name": "feeReceiver",
					"outputs": [
						{
							"internalType": "address",
							"name": "",
							"type": "address"
						}
					],
					"stateMutability": "view",
					"type": "function"
				},
				{
					"inputs": [
						{
							"internalType": "uint256",
							"name": "",
							"type": "uint256"
						}
					],
					"name": "gamePools",
					"outputs": [
						{
							"internalType": "uint256",
							"name": "",
							"type": "uint256"
						}
					],
					"stateMutability": "view",
					"type": "function"
				},
				{
					"inputs": [
						{
							"internalType": "uint256",
							"name": "",
							"type": "uint256"
						}
					],
					"name": "gameRooms",
					"outputs": [
						{
							"internalType": "address",
							"name": "",
							"type": "address"
						}
					],
					"stateMutability": "view",
					"type": "function"
				},
				{
					"inputs": [
						{
							"internalType": "uint256",
							"name": "",
							"type": "uint256"
						},
						{
							"internalType": "address",
							"name": "",
							"type": "address"
						}
					],
					"name": "gameStakes",
					"outputs": [
						{
							"internalType": "uint256",
							"name": "",
							"type": "uint256"
						}
					],
					"stateMutability": "view",
					"type": "function"
				},
				{
					"inputs": [
						{
							"internalType": "uint256",
							"name": "gameId",
							"type": "uint256"
						},
						{
							"internalType": "address",
							"name": "player",
							"type": "address"
						}
					],
					"name": "getPlayerStake",
					"outputs": [
						{
							"internalType": "uint256",
							"name": "",
							"type": "uint256"
						}
					],
					"stateMutability": "view",
					"type": "function"
				},
				{
					"inputs": [
						{
							"internalType": "uint256",
							"name": "gameId",
							"type": "uint256"
						},
						{
							"internalType": "address",
							"name": "room",
							"type": "address"
						}
					],
					"name": "registerGameRoom",
					"outputs": [],
					"stateMutability": "nonpayable",
					"type": "function"
				},
				{
					"inputs": [
						{
							"internalType": "address",
							"name": "_factory",
							"type": "address"
						}
					],
					"name": "setFactory",
					"outputs": [],
					"stateMutability": "nonpayable",
					"type": "function"
				},
				{
					"inputs": [
						{
							"internalType": "uint256",
							"name": "gameId",
							"type": "uint256"
						}
					],
					"name": "stake",
					"outputs": [],
					"stateMutability": "payable",
					"type": "function"
				},
				{
					"inputs": [
						{
							"internalType": "uint256",
							"name": "gameId",
							"type": "uint256"
						},
						{
							"internalType": "address",
							"name": "player",
							"type": "address"
						}
					],
					"name": "stakeFor",
					"outputs": [],
					"stateMutability": "payable",
					"type": "function"
				},
				{
					"stateMutability": "payable",
					"type": "receive"
				}
			],
			"devdoc": {
				"details": "处理BrokerChain原生BKC质押、锁定和收益分配 无需ERC20授权，直接接收原生BKC",
				"kind": "dev",
				"methods": {
					"constructor": {
						"details": "构造函数：初始化手续费接收地址"
					},
					"distributeRewards(uint256,address[],address[])": {
						"details": "分配游戏奖励（仅游戏房间合约可调用）",
						"params": {
							"gameId": "游戏ID",
							"losers": "失败者列表",
							"winners": "获胜者列表"
						}
					},
					"emergencyWithdraw(uint256)": {
						"details": "紧急提取合约中多余的BKC（仅部署者可用）"
					},
					"getPlayerStake(uint256,address)": {
						"details": "查询玩家在指定游戏的质押额",
						"params": {
							"gameId": "游戏ID",
							"player": "玩家地址"
						},
						"returns": {
							"_0": "质押金额"
						}
					},
					"stake(uint256)": {
						"details": "玩家质押原生BKC到指定游戏",
						"params": {
							"gameId": "游戏ID 注意：质押金额通过交易的value参数传入，而非函数参数"
						}
					},
					"stakeFor(uint256,address)": {
						"details": "由房间代玩家质押（用于GameRoom.joinGame时透传玩家地址）"
					}
				},
				"title": "StakingVault",
				"version": 1
			},
			"evm": {
				"assembly": "    /* \"contracts/StakingVault.sol\":207:6280  contract StakingVault {... */\n  0xa0\n  dup1\n  0x40\n  mstore\n  jumpi(tag_1, callvalue)\n    /* \"contracts/StakingVault.sol\":1159:1169  msg.sender */\n  caller\n    /* \"contracts/StakingVault.sol\":1145:1169  feeReceiver = msg.sender */\n  0x80\n  dup2\n  swap1\n  mstore\n    /* \"contracts/StakingVault.sol\":1180:1200  factory = msg.sender */\n  0x03\n    /* \"contracts/StakingVault.sol\":207:6280  contract StakingVault {... */\n  dup1\n  sload\n  not(sub(shl(0xa0, 0x01), 0x01))\n  and\n  swap1\n  swap2\n  or\n  swap1\n  sstore\n  dataSize(sub_0)\n  swap1\n  dup2\n  dataOffset(sub_0)\n  dup3\n  codecopy\n    /* \"contracts/StakingVault.sol\":1145:1169  feeReceiver = msg.sender */\n  0x80\n    /* \"contracts/StakingVault.sol\":207:6280  contract StakingVault {... */\n  mload\n  dup2\n  assignImmutable(\"0xf4c2b5de886427473655d4c904c743576dc2d53249b7535d96c06cc97ae7216b\")\n  return\ntag_1:\n  0x00\n  dup1\n  revert\nstop\n\nsub_0: assembly {\n        /* \"contracts/StakingVault.sol\":207:6280  contract StakingVault {... */\n      0x80\n      dup1\n      0x40\n      mstore\n      jumpi(tag_10, iszero(lt(calldatasize, 0x04)))\n    tag_11:\n      pop\n      jumpi(tag_12, iszero(calldatasize))\n      0x00\n      dup1\n      revert\n    tag_12:\n      stop\n    tag_10:\n      shr(0xe0, calldataload(0x00))\n      swap1\n      dup2\n      0x2d11c58a\n      eq\n      tag_14\n      jumpi\n      pop\n      dup1\n      0x426c4641\n      eq\n      tag_16\n      jumpi\n      dup1\n      0x4d0ed9da\n      eq\n      tag_18\n      jumpi\n      dup1\n      0x51746bb2\n      eq\n      tag_20\n      jumpi\n      dup1\n      0x5312ea8e\n      eq\n      tag_22\n      jumpi\n      dup1\n      0x55f2ad7f\n      eq\n      tag_36\n      jumpi\n      dup1\n      0x5bb47808\n      eq\n      tag_26\n      jumpi\n      dup1\n      0x72a22282\n      eq\n      tag_28\n      jumpi\n      dup1\n      0x9e039592\n      eq\n      tag_30\n      jumpi\n      dup1\n      0xa694fc3a\n      eq\n      tag_32\n      jumpi\n      dup1\n      0xb3f00674\n      eq\n      tag_34\n      jumpi\n      dup1\n      0xb44f4a55\n      eq\n      tag_36\n      jumpi\n      0xc45a0155\n      eq\n      tag_38\n      jumpi\n      0x00\n      jump(tag_11)\n    tag_38:\n      jumpi(tag_42, callvalue)\n      jumpi(tag_42, slt(add(not(0x03), calldatasize), 0x00))\n        /* \"contracts/StakingVault.sol\":739:761  address public factory */\n      0x03\n        /* \"contracts/StakingVault.sol\":207:6280  contract StakingVault {... */\n      sload\n      mload(0x40)\n      sub(shl(0xa0, 0x01), 0x01)\n      swap1\n      swap2\n      and\n      dup2\n      mstore\n      0x20\n      swap1\n      return\n    tag_42:\n      0x00\n      dup1\n      revert\n    tag_36:\n      jumpi(tag_42, callvalue)\n      jumpi(tag_42, slt(add(not(0x03), calldatasize), 0x40))\n      tag_48\n      tag_1\n      jump\t// in\n    tag_48:\n      mstore(0x00, calldataload(0x04))\n      mstore(0x20, 0x00)\n      keccak256(0x00, 0x40)\n        /* \"contracts/StakingVault.sol\":5782:5808  gameStakes[gameId][player] */\n      swap1\n        /* \"contracts/StakingVault.sol\":207:6280  contract StakingVault {... */\n      0x01\n      dup1\n      0xa0\n      shl\n      sub\n      and\n      0x00\n      mstore\n      0x20\n      mstore\n      0x20\n      sload(keccak256(0x00, 0x40))\n      mload(0x40)\n      swap1\n      dup2\n      mstore\n      return\n    tag_34:\n      jumpi(tag_42, callvalue)\n      jumpi(tag_42, slt(add(not(0x03), calldatasize), 0x00))\n      mload(0x40)\n        /* \"contracts/StakingVault.sol\":696:732  address public immutable feeReceiver */\n      immutable(\"0xf4c2b5de886427473655d4c904c743576dc2d53249b7535d96c06cc97ae7216b\")\n      sub(shl(0xa0, 0x01), 0x01)\n        /* \"contracts/StakingVault.sol\":207:6280  contract StakingVault {... */\n      and\n      dup2\n      mstore\n      0x20\n      swap1\n      return\n    tag_32:\n      jumpi(tag_42, slt(add(not(0x03), calldatasize), 0x20))\n      calldataload(0x04)\n        /* \"contracts/StakingVault.sol\":1954:2009  require(amount > 0, \"StakingVault: amount must be > 0\") */\n      tag_55\n        /* \"contracts/StakingVault.sol\":1868:1877  msg.value */\n      callvalue\n        /* \"contracts/StakingVault.sol\":1962:1972  amount > 0 */\n      iszero\n      iszero\n        /* \"contracts/StakingVault.sol\":1954:2009  require(amount > 0, \"StakingVault: amount must be > 0\") */\n      tag_3\n      jump\t// in\n    tag_55:\n        /* \"contracts/StakingVault.sol\":207:6280  contract StakingVault {... */\n      dup1\n      0x00\n      mstore\n      mstore(0x20, 0x01)\n        /* \"contracts/StakingVault.sol\":2020:2101  require(gamePools[gameId] + amount > gamePools[gameId], \"StakingVault: overflow\") */\n      tag_56\n        /* \"contracts/StakingVault.sol\":2028:2054  gamePools[gameId] + amount */\n      tag_57\n        /* \"contracts/StakingVault.sol\":1868:1877  msg.value */\n      callvalue\n        /* \"contracts/StakingVault.sol\":207:6280  contract StakingVault {... */\n      sload(keccak256(0x00, 0x40))\n        /* \"contracts/StakingVault.sol\":2028:2054  gamePools[gameId] + amount */\n      tag_4\n      jump\t// in\n    tag_57:\n        /* \"contracts/StakingVault.sol\":207:6280  contract StakingVault {... */\n      dup3\n      0x00\n      mstore\n      mstore(0x20, 0x01)\n      sload(keccak256(0x00, 0x40))\n      lt\n        /* \"contracts/StakingVault.sol\":2020:2101  require(gamePools[gameId] + amount > gamePools[gameId], \"StakingVault: overflow\") */\n      tag_5\n      jump\t// in\n    tag_56:\n        /* \"contracts/StakingVault.sol\":207:6280  contract StakingVault {... */\n      0x00\n      dup2\n      dup2\n      mstore\n      0x20\n      dup2\n      dup2\n      mstore\n      0x40\n      dup1\n      dup4\n      keccak256\n        /* \"contracts/StakingVault.sol\":2227:2237  msg.sender */\n      caller\n        /* \"contracts/StakingVault.sol\":207:6280  contract StakingVault {... */\n      dup5\n      mstore\n      swap1\n      swap2\n      mstore\n      swap1\n      keccak256\n      dup1\n      sload\n        /* \"contracts/StakingVault.sol\":2208:2248  gameStakes[gameId][msg.sender] += amount */\n      tag_58\n      swap1\n        /* \"contracts/StakingVault.sol\":1868:1877  msg.value */\n      callvalue\n      swap1\n        /* \"contracts/StakingVault.sol\":2208:2248  gameStakes[gameId][msg.sender] += amount */\n      tag_4\n      jump\t// in\n    tag_58:\n        /* \"contracts/StakingVault.sol\":207:6280  contract StakingVault {... */\n      swap1\n      sstore\n      dup1\n      0x00\n      mstore\n      mstore(0x20, 0x01)\n      keccak256(0x00, 0x40)\n        /* \"contracts/StakingVault.sol\":2259:2286  gamePools[gameId] += amount */\n      tag_59\n        /* \"contracts/StakingVault.sol\":1868:1877  msg.value */\n      callvalue\n        /* \"contracts/StakingVault.sol\":207:6280  contract StakingVault {... */\n      dup3\n      sload\n        /* \"contracts/StakingVault.sol\":2259:2286  gamePools[gameId] += amount */\n      tag_4\n      jump\t// in\n    tag_59:\n        /* \"contracts/StakingVault.sol\":207:6280  contract StakingVault {... */\n      swap1\n      sstore\n      mload(0x40)\n        /* \"contracts/StakingVault.sol\":1868:1877  msg.value */\n      swap1\n      callvalue\n        /* \"contracts/StakingVault.sol\":207:6280  contract StakingVault {... */\n      dup3\n      mstore\n        /* \"contracts/StakingVault.sol\":2304:2338  Staked(gameId, msg.sender, amount) */\n      0x18dcd430020e4d4899772fd94a8b40451dc5044dfb70bc46b532eeae431c864f\n        /* \"contracts/StakingVault.sol\":207:6280  contract StakingVault {... */\n      0x20\n        /* \"contracts/StakingVault.sol\":2227:2237  msg.sender */\n      caller\n        /* \"contracts/StakingVault.sol\":2304:2338  Staked(gameId, msg.sender, amount) */\n      swap4\n      log3\n        /* \"contracts/StakingVault.sol\":207:6280  contract StakingVault {... */\n      stop\n    tag_30:\n      jumpi(tag_42, callvalue)\n      jumpi(tag_42, slt(add(not(0x03), calldatasize), 0x40))\n      calldataload(0x04)\n      tag_64\n      tag_1\n      jump\t// in\n    tag_64:\n        /* \"contracts/StakingVault.sol\":3043:3050  factory */\n      0x03\n        /* \"contracts/StakingVault.sol\":207:6280  contract StakingVault {... */\n      sload\n      sub(shl(0xa0, 0x01), 0x01)\n      and\n        /* \"contracts/StakingVault.sol\":3029:3039  msg.sender */\n      caller\n        /* \"contracts/StakingVault.sol\":3029:3050  msg.sender == factory */\n      sub\n        /* \"contracts/StakingVault.sol\":207:6280  contract StakingVault {... */\n      tag_65\n      jumpi\n      sub(shl(0xa0, 0x01), 0x01)\n      and\n      swap1\n        /* \"contracts/StakingVault.sol\":3100:3118  room != address(0) */\n      dup2\n      iszero\n        /* \"contracts/StakingVault.sol\":207:6280  contract StakingVault {... */\n      tag_67\n      jumpi\n      0x00\n      dup2\n      dup2\n      mstore\n        /* \"contracts/StakingVault.sol\":3168:3177  gameRooms */\n      0x02\n        /* \"contracts/StakingVault.sol\":207:6280  contract StakingVault {... */\n      0x20\n      mstore\n      0x40\n      swap1\n      keccak256\n      sload\n      sub(shl(0xa0, 0x01), 0x01)\n      and\n      tag_69\n      jumpi\n      0x00\n      dup2\n      dup2\n      mstore\n        /* \"contracts/StakingVault.sol\":3168:3177  gameRooms */\n      0x02\n        /* \"contracts/StakingVault.sol\":207:6280  contract StakingVault {... */\n      0x20\n      mstore\n      0x40\n      dup2\n      keccak256\n      dup1\n      sload\n      not(sub(shl(0xa0, 0x01), 0x01))\n      and\n      dup5\n      or\n      swap1\n      sstore\n        /* \"contracts/StakingVault.sol\":3280:3312  GameRoomRegistered(gameId, room) */\n      0x0d8568db0ba21bc2f3df2ca3fd47edf810160b7d44b1f4f1acaa0424efe99424\n      swap1\n        /* \"contracts/StakingVault.sol\":207:6280  contract StakingVault {... */\n      dup1\n        /* \"contracts/StakingVault.sol\":3280:3312  GameRoomRegistered(gameId, room) */\n      log3\n        /* \"contracts/StakingVault.sol\":207:6280  contract StakingVault {... */\n      stop\n    tag_69:\n      mload(0x40)\n      shl(0xe5, 0x461bcd)\n      dup2\n      mstore\n      0x20\n      0x04\n      dup3\n      add\n      mstore\n      0x19\n      0x24\n      dup3\n      add\n      mstore\n      0x5374616b696e675661756c743a20726f6f6d2065786973747300000000000000\n      0x44\n      dup3\n      add\n      mstore\n      0x64\n      swap1\n      revert\n    tag_67:\n      mload(0x40)\n      shl(0xe5, 0x461bcd)\n      dup2\n      mstore\n      0x20\n      0x04\n      dup3\n      add\n      mstore\n      0x1a\n      0x24\n      dup3\n      add\n      mstore\n      0x5374616b696e675661756c743a20726f6f6d206973207a65726f000000000000\n      0x44\n      dup3\n      add\n      mstore\n      0x64\n      swap1\n      revert\n    tag_65:\n      mload(0x40)\n      shl(0xe5, 0x461bcd)\n      dup2\n      mstore\n      0x20\n      0x04\n      dup3\n      add\n      mstore\n      0x1a\n      0x24\n      dup3\n      add\n      mstore\n      0x5374616b696e675661756c743a206f6e6c7920666163746f7279000000000000\n      0x44\n      dup3\n      add\n      mstore\n      0x64\n      swap1\n      revert\n    tag_28:\n      jumpi(tag_42, callvalue)\n      jumpi(tag_42, slt(add(not(0x03), calldatasize), 0x60))\n      calldataload(0x04)\n      calldataload(0x24)\n      0xffffffffffffffff\n      dup2\n      gt\n      tag_42\n      jumpi\n      tag_77\n      swap1\n      calldatasize\n      swap1\n      0x04\n      add\n      tag_2\n      jump\t// in\n    tag_77:\n      calldataload(0x44)\n      0xffffffffffffffff\n      dup2\n      gt\n      tag_42\n      jumpi\n      tag_80\n      swap1\n      calldatasize\n      swap1\n      0x04\n      add\n      tag_2\n      jump\t// in\n    tag_80:\n      0x00\n      dup6\n      dup2\n      mstore\n        /* \"contracts/StakingVault.sol\":3696:3705  gameRooms */\n      0x02\n        /* \"contracts/StakingVault.sol\":207:6280  contract StakingVault {... */\n      0x20\n      mstore\n      0x40\n      swap1\n      keccak256\n      sload\n      swap1\n      swap2\n      swap1\n      sub(shl(0xa0, 0x01), 0x01)\n      and\n        /* \"contracts/StakingVault.sol\":3682:3692  msg.sender */\n      caller\n        /* \"contracts/StakingVault.sol\":3682:3713  msg.sender == gameRooms[gameId] */\n      sub\n        /* \"contracts/StakingVault.sol\":207:6280  contract StakingVault {... */\n      tag_81\n      jumpi\n      dup5\n      0x00\n      mstore\n      mstore(0x20, 0x01)\n      sload(keccak256(0x00, 0x40))\n        /* \"contracts/StakingVault.sol\":3813:3826  totalPool > 0 */\n      swap4\n      dup5\n      iszero\n        /* \"contracts/StakingVault.sol\":207:6280  contract StakingVault {... */\n      tag_83\n      jumpi\n        /* \"contracts/StakingVault.sol\":3880:3898  winners.length > 0 */\n      dup4\n      iszero\n        /* \"contracts/StakingVault.sol\":207:6280  contract StakingVault {... */\n      tag_85\n      jumpi\n        /* \"contracts/StakingVault.sol\":642:644  10 */\n      0x0a\n        /* \"contracts/StakingVault.sol\":207:6280  contract StakingVault {... */\n      dup6\n      mul\n      dup6\n      dup2\n      div\n        /* \"contracts/StakingVault.sol\":642:644  10 */\n      0x0a\n        /* \"contracts/StakingVault.sol\":207:6280  contract StakingVault {... */\n      sub\n      tag_110\n      jumpi\n        /* \"contracts/StakingVault.sol\":4025:4029  1000 */\n      0x03e8\n        /* \"contracts/StakingVault.sol\":207:6280  contract StakingVault {... */\n      swap1\n      div\n      swap4\n      dup5\n      dup7\n      sub\n      swap6\n      dup7\n      gt\n      tag_110\n      jumpi\n        /* \"contracts/StakingVault.sol\":4142:4149  fee > 0 */\n      dup5\n        /* \"contracts/StakingVault.sol\":4138:4303  if (fee > 0) {... */\n      tag_91\n      jumpi\n        /* \"contracts/StakingVault.sol\":207:6280  contract StakingVault {... */\n    tag_92:\n      0x00\n      dup1\n        /* \"contracts/StakingVault.sol\":4436:4454  i < winners.length */\n    tag_93:\n      dup3\n      dup2\n      lt\n      tag_94\n      jumpi\n        /* \"contracts/StakingVault.sol\":4557:4578  winnersStakeTotal > 0 */\n      pop\n      dup1\n      iszero\n        /* \"contracts/StakingVault.sol\":207:6280  contract StakingVault {... */\n      swap2\n      dup3\n      tag_96\n      jumpi\n      0x00\n        /* \"contracts/StakingVault.sol\":4651:4669  i < winners.length */\n    tag_98:\n      dup2\n      dup2\n      lt\n      tag_99\n      jumpi\n        /* \"contracts/StakingVault.sol\":5270:5283  uint256 i = 0 */\n      pop\n      pop\n      pop\n      pop\n      pop\n        /* \"contracts/StakingVault.sol\":207:6280  contract StakingVault {... */\n      0x00\n        /* \"contracts/StakingVault.sol\":5285:5302  i < losers.length */\n    tag_101:\n      dup3\n      dup2\n      lt\n      tag_102\n      jumpi\n        /* \"contracts/StakingVault.sol\":207:6280  contract StakingVault {... */\n      dup6\n        /* \"contracts/StakingVault.sol\":5451:5494  RewardsDistributed(gameId, rewardPool, fee) */\n      0x6ae8ee960d83517f7fa993ad7a0e16e33d9655a23ff41eefc62bdb289c7a8e5f\n        /* \"contracts/StakingVault.sol\":207:6280  contract StakingVault {... */\n      0x40\n      dup8\n      dup8\n      dup5\n      0x00\n      mstore\n      mstore(0x20, 0x01)\n      0x00\n      dup4\n      dup2\n      keccak256\n      sstore\n      dup3\n      mload\n      swap2\n      dup3\n      mstore\n      0x20\n      dup3\n      add\n      mstore\n        /* \"contracts/StakingVault.sol\":5451:5494  RewardsDistributed(gameId, rewardPool, fee) */\n      log2\n        /* \"contracts/StakingVault.sol\":207:6280  contract StakingVault {... */\n      stop\n        /* \"contracts/StakingVault.sol\":5304:5307  i++ */\n    tag_102:\n        /* \"contracts/StakingVault.sol\":207:6280  contract StakingVault {... */\n      0x01\n      swap1\n      dup7\n      0x00\n      mstore\n      mstore(0x20, 0x00)\n      keccak256(0x00, 0x40)\n        /* \"contracts/StakingVault.sol\":5350:5359  losers[i] */\n      tag_104\n      tag_105\n      dup4\n      dup8\n      dup8\n      tag_8\n      jump\t// in\n    tag_105:\n      tag_9\n      jump\t// in\n    tag_104:\n        /* \"contracts/StakingVault.sol\":207:6280  contract StakingVault {... */\n      dup4\n      dup1\n      0xa0\n      shl\n      sub\n      and\n      0x00\n      mstore\n      0x20\n      mstore\n      0x00\n      0x40\n      dup2\n      keccak256\n      sstore\n      add\n        /* \"contracts/StakingVault.sol\":5270:5283  uint256 i = 0 */\n      jump(tag_101)\n        /* \"contracts/StakingVault.sol\":4671:4674  i++ */\n    tag_99:\n        /* \"contracts/StakingVault.sol\":4708:4718  winners[i] */\n      tag_106\n      tag_105\n      dup3\n      dup5\n      dup9\n      tag_8\n      jump\t// in\n    tag_106:\n        /* \"contracts/StakingVault.sol\":207:6280  contract StakingVault {... */\n      swap1\n      dup11\n      0x00\n      mstore\n      mstore(0x20, 0x00)\n      keccak256(0x00, 0x40)\n      0x01\n      dup1\n      0xa0\n      shl\n      sub\n      dup4\n      and\n      0x00\n      mstore\n      0x20\n      mstore\n      sload(keccak256(0x00, 0x40))\n        /* \"contracts/StakingVault.sol\":4800:4816  winnerStake == 0 */\n      dup1\n      iszero\n        /* \"contracts/StakingVault.sol\":4796:4826  if (winnerStake == 0) continue */\n      tag_108\n      jumpi\n        /* \"contracts/StakingVault.sol\":207:6280  contract StakingVault {... */\n      dup11\n      dup2\n      mul\n      swap1\n      dup2\n      div\n      dup12\n      sub\n      tag_110\n      jumpi\n        /* \"contracts/StakingVault.sol\":4860:4906  (winnerStake * rewardPool) / winnersStakeTotal */\n      dup6\n        /* \"contracts/StakingVault.sol\":207:6280  contract StakingVault {... */\n      tag_112\n      jumpi\n      dup5\n      swap1\n      div\n        /* \"contracts/StakingVault.sol\":4925:4935  reward > 0 */\n      dup1\n        /* \"contracts/StakingVault.sol\":4921:5108  if (reward > 0) {... */\n      tag_114\n      jumpi\n        /* \"contracts/StakingVault.sol\":4671:4674  i++ */\n    tag_115:\n        /* \"contracts/StakingVault.sol\":207:6280  contract StakingVault {... */\n      pop\n      0x01\n      swap2\n      dup12\n      0x00\n      mstore\n      mstore(0x20, 0x00)\n      keccak256(0x00, 0x40)\n        /* \"contracts/StakingVault.sol\":5175:5201  gameStakes[gameId][winner] */\n      swap1\n        /* \"contracts/StakingVault.sol\":207:6280  contract StakingVault {... */\n      dup4\n      dup1\n      0xa0\n      shl\n      sub\n      and\n      0x00\n      mstore\n      0x20\n      mstore\n      0x00\n      0x40\n      dup2\n      keccak256\n      sstore\n        /* \"contracts/StakingVault.sol\":4636:4649  uint256 i = 0 */\n    tag_116:\n        /* \"contracts/StakingVault.sol\":207:6280  contract StakingVault {... */\n      add\n        /* \"contracts/StakingVault.sol\":4636:4649  uint256 i = 0 */\n      jump(tag_98)\n        /* \"contracts/StakingVault.sol\":4921:5108  if (reward > 0) {... */\n    tag_114:\n        /* \"contracts/StakingVault.sol\":207:6280  contract StakingVault {... */\n      0x00\n        /* \"contracts/StakingVault.sol\":4981:5011  winner.call{value: reward}(\"\") */\n      dup1\n      dup1\n      dup1\n      swap4\n      dup7\n      gas\n      call\n      tag_117\n      tag_7\n      jump\t// in\n    tag_117:\n      pop\n        /* \"contracts/StakingVault.sol\":207:6280  contract StakingVault {... */\n      iszero\n      tag_118\n      jumpi\n        /* \"contracts/StakingVault.sol\":4921:5108  if (reward > 0) {... */\n      dup12\n      jump(tag_115)\n        /* \"contracts/StakingVault.sol\":207:6280  contract StakingVault {... */\n    tag_118:\n      mload(0x40)\n      shl(0xe5, 0x461bcd)\n      dup2\n      mstore\n      0x20\n      0x04\n      dup3\n      add\n      mstore\n      0x24\n      dup1\n      dup3\n      add\n      mstore\n      0x5374616b696e675661756c743a20726577617264207472616e73666572206661\n      0x44\n      dup3\n      add\n      mstore\n      shl(0xe2, 0x1a5b1959)\n      0x64\n      dup3\n      add\n      mstore\n      0x84\n      swap1\n      revert\n    tag_112:\n      mstore(0x00, shl(0xe0, 0x4e487b71))\n      mstore(0x04, 0x12)\n      revert(0x00, 0x24)\n    tag_110:\n      mstore(0x00, shl(0xe0, 0x4e487b71))\n      mstore(0x04, 0x11)\n      revert(0x00, 0x24)\n        /* \"contracts/StakingVault.sol\":4796:4826  if (winnerStake == 0) continue */\n    tag_108:\n        /* \"contracts/StakingVault.sol\":4818:4826  continue */\n      pop\n        /* \"contracts/StakingVault.sol\":207:6280  contract StakingVault {... */\n      0x01\n        /* \"contracts/StakingVault.sol\":4818:4826  continue */\n      swap2\n      pop\n      jump(tag_116)\n        /* \"contracts/StakingVault.sol\":207:6280  contract StakingVault {... */\n    tag_96:\n      mload(0x40)\n      shl(0xe5, 0x461bcd)\n      dup2\n      mstore\n      0x20\n      0x04\n      dup3\n      add\n      mstore\n      0x23\n      0x24\n      dup3\n      add\n      mstore\n      0x5374616b696e675661756c743a2077696e6e657273207374616b65206973207a\n      0x44\n      dup3\n      add\n      mstore\n      shl(0xe8, 0x65726f)\n      0x64\n      dup3\n      add\n      mstore\n      0x84\n      swap1\n      revert\n        /* \"contracts/StakingVault.sol\":4456:4459  i++ */\n    tag_94:\n        /* \"contracts/StakingVault.sol\":207:6280  contract StakingVault {... */\n      swap1\n        /* \"contracts/StakingVault.sol\":4476:4527  winnersStakeTotal += gameStakes[gameId][winners[i]] */\n      tag_120\n        /* \"contracts/StakingVault.sol\":207:6280  contract StakingVault {... */\n      0x01\n      swap2\n      dup11\n      0x00\n      mstore\n      mstore(0x20, 0x00)\n      keccak256(0x00, 0x40)\n        /* \"contracts/StakingVault.sol\":4516:4526  winners[i] */\n      tag_121\n      tag_105\n      dup7\n      dup9\n      dup11\n      tag_8\n      jump\t// in\n    tag_121:\n        /* \"contracts/StakingVault.sol\":207:6280  contract StakingVault {... */\n      dup5\n      dup1\n      0xa0\n      shl\n      sub\n      and\n      0x00\n      mstore\n      0x20\n      mstore\n      sload(keccak256(0x00, 0x40))\n        /* \"contracts/StakingVault.sol\":4476:4527  winnersStakeTotal += gameStakes[gameId][winners[i]] */\n      swap1\n      tag_4\n      jump\t// in\n    tag_120:\n        /* \"contracts/StakingVault.sol\":4456:4459  i++ */\n      swap2\n        /* \"contracts/StakingVault.sol\":207:6280  contract StakingVault {... */\n      add\n        /* \"contracts/StakingVault.sol\":4421:4434  uint256 i = 0 */\n      jump(tag_93)\n        /* \"contracts/StakingVault.sol\":4138:4303  if (fee > 0) {... */\n    tag_91:\n        /* \"contracts/StakingVault.sol\":207:6280  contract StakingVault {... */\n      0x00\n        /* \"contracts/StakingVault.sol\":4188:4199  feeReceiver */\n      dup1\n      dup1\n      dup1\n      dup9\n      immutable(\"0xf4c2b5de886427473655d4c904c743576dc2d53249b7535d96c06cc97ae7216b\")\n        /* \"contracts/StakingVault.sol\":4188:4220  feeReceiver.call{value: fee}(\"\") */\n      gas\n      call\n      tag_123\n      tag_7\n      jump\t// in\n    tag_123:\n      pop\n        /* \"contracts/StakingVault.sol\":4138:4303  if (fee > 0) {... */\n      tag_92\n        /* \"contracts/StakingVault.sol\":207:6280  contract StakingVault {... */\n      jumpi\n      mload(0x40)\n      shl(0xe5, 0x461bcd)\n      dup2\n      mstore\n      0x20\n      0x04\n      dup3\n      add\n      mstore\n      0x21\n      0x24\n      dup3\n      add\n      mstore\n      0x5374616b696e675661756c743a20666565207472616e73666572206661696c65\n      0x44\n      dup3\n      add\n      mstore\n      shl(0xfa, 0x19)\n      0x64\n      dup3\n      add\n      mstore\n      0x84\n      swap1\n      revert\n    tag_85:\n      mload(0x40)\n      shl(0xe5, 0x461bcd)\n      dup2\n      mstore\n      0x20\n      0x04\n      dup3\n      add\n      mstore\n      0x18\n      0x24\n      dup3\n      add\n      mstore\n      0x5374616b696e675661756c743a206e6f2077696e6e6572730000000000000000\n      0x44\n      dup3\n      add\n      mstore\n      0x64\n      swap1\n      revert\n    tag_83:\n      mload(0x40)\n      shl(0xe5, 0x461bcd)\n      dup2\n      mstore\n      0x20\n      0x04\n      dup3\n      add\n      mstore\n      0x1e\n      0x24\n      dup3\n      add\n      mstore\n      0x5374616b696e675661756c743a206e6f20706f6f6c20666f722067616d650000\n      0x44\n      dup3\n      add\n      mstore\n      0x64\n      swap1\n      revert\n    tag_81:\n      mload(0x40)\n      shl(0xe5, 0x461bcd)\n      dup2\n      mstore\n      0x20\n      0x04\n      dup3\n      add\n      mstore\n      0x1c\n      0x24\n      dup3\n      add\n      mstore\n      0x5374616b696e675661756c743a206f6e6c792067616d6520726f6f6d00000000\n      0x44\n      dup3\n      add\n      mstore\n      0x64\n      swap1\n      revert\n    tag_26:\n      jumpi(tag_42, callvalue)\n      jumpi(tag_42, slt(add(not(0x03), calldatasize), 0x20))\n      calldataload(0x04)\n      sub(shl(0xa0, 0x01), 0x01)\n      dup2\n      and\n      swap1\n      dup2\n      swap1\n      sub\n      tag_42\n      jumpi\n        /* \"contracts/StakingVault.sol\":1274:1343  require(msg.sender == feeReceiver, \"StakingVault: only fee receiver\") */\n      tag_132\n        /* \"contracts/StakingVault.sol\":1282:1292  msg.sender */\n      caller\n        /* \"contracts/StakingVault.sol\":1296:1307  feeReceiver */\n      immutable(\"0xf4c2b5de886427473655d4c904c743576dc2d53249b7535d96c06cc97ae7216b\")\n      sub(shl(0xa0, 0x01), 0x01)\n        /* \"contracts/StakingVault.sol\":207:6280  contract StakingVault {... */\n      and\n        /* \"contracts/StakingVault.sol\":1282:1307  msg.sender == feeReceiver */\n      eq\n        /* \"contracts/StakingVault.sol\":1274:1343  require(msg.sender == feeReceiver, \"StakingVault: only fee receiver\") */\n      tag_6\n      jump\t// in\n    tag_132:\n        /* \"contracts/StakingVault.sol\":1362:1384  _factory != address(0) */\n      dup1\n      iszero\n        /* \"contracts/StakingVault.sol\":207:6280  contract StakingVault {... */\n      tag_133\n      jumpi\n      shl(0xa0, 0xffffffffffffffffffffffff)\n        /* \"contracts/StakingVault.sol\":1429:1447  factory = _factory */\n      0x03\n        /* \"contracts/StakingVault.sol\":207:6280  contract StakingVault {... */\n      sload\n      and\n      or\n        /* \"contracts/StakingVault.sol\":1429:1447  factory = _factory */\n      0x03\n        /* \"contracts/StakingVault.sol\":207:6280  contract StakingVault {... */\n      sstore\n      0x00\n      dup1\n      return\n    tag_133:\n      mload(0x40)\n      shl(0xe5, 0x461bcd)\n      dup2\n      mstore\n      0x20\n      0x04\n      dup3\n      add\n      mstore\n      0x1d\n      0x24\n      dup3\n      add\n      mstore\n      0x5374616b696e675661756c743a20666163746f7279206973207a65726f000000\n      0x44\n      dup3\n      add\n      mstore\n      0x64\n      swap1\n      revert\n    tag_22:\n      jumpi(tag_42, callvalue)\n      jumpi(tag_42, slt(add(not(0x03), calldatasize), 0x20))\n      calldataload(0x04)\n        /* \"contracts/StakingVault.sol\":5998:6009  feeReceiver */\n      immutable(\"0xf4c2b5de886427473655d4c904c743576dc2d53249b7535d96c06cc97ae7216b\")\n        /* \"contracts/StakingVault.sol\":5976:6045  require(msg.sender == feeReceiver, \"StakingVault: only fee receiver\") */\n      tag_144\n        /* \"contracts/StakingVault.sol\":5984:5994  msg.sender */\n      caller\n      sub(shl(0xa0, 0x01), 0x01)\n        /* \"contracts/StakingVault.sol\":207:6280  contract StakingVault {... */\n      dup4\n      and\n        /* \"contracts/StakingVault.sol\":5984:6009  msg.sender == feeReceiver */\n      eq\n        /* \"contracts/StakingVault.sol\":5976:6045  require(msg.sender == feeReceiver, \"StakingVault: only fee receiver\") */\n      tag_6\n      jump\t// in\n    tag_144:\n        /* \"contracts/StakingVault.sol\":6064:6085  address(this).balance */\n      dup2\n      selfbalance\n        /* \"contracts/StakingVault.sol\":6064:6095  address(this).balance >= amount */\n      lt\n        /* \"contracts/StakingVault.sol\":207:6280  contract StakingVault {... */\n      tag_145\n      jumpi\n      0x00\n        /* \"contracts/StakingVault.sol\":6164:6199  feeReceiver.call{value: amount}(\"\") */\n      dup1\n      dup1\n      swap4\n      dup2\n      swap4\n      gas\n      call\n      tag_147\n      tag_7\n      jump\t// in\n    tag_147:\n      pop\n        /* \"contracts/StakingVault.sol\":207:6280  contract StakingVault {... */\n      iszero\n      tag_148\n      jumpi\n      stop\n    tag_148:\n      mload(0x40)\n      shl(0xe5, 0x461bcd)\n      dup2\n      mstore\n      0x20\n      0x04\n      dup3\n      add\n      mstore\n      0x27\n      0x24\n      dup3\n      add\n      mstore\n      0x5374616b696e675661756c743a20656d657267656e6379207472616e73666572\n      0x44\n      dup3\n      add\n      mstore\n      shl(0xca, 0x0819985a5b1959)\n      0x64\n      dup3\n      add\n      mstore\n      0x84\n      swap1\n      revert\n    tag_145:\n      mload(0x40)\n      shl(0xe5, 0x461bcd)\n      dup2\n      mstore\n      0x20\n      0x04\n      dup3\n      add\n      mstore\n      0x22\n      0x24\n      dup3\n      add\n      mstore\n      0x5374616b696e675661756c743a20696e73756666696369656e742062616c616e\n      0x44\n      dup3\n      add\n      mstore\n      shl(0xf0, 0x6365)\n      0x64\n      dup3\n      add\n      mstore\n      0x84\n      swap1\n      revert\n    tag_20:\n      jumpi(tag_42, slt(add(not(0x03), calldatasize), 0x40))\n      calldataload(0x04)\n      sub(shl(0xa0, 0x01), 0x01)\n      tag_152\n      tag_1\n      jump\t// in\n    tag_152:\n      and\n        /* \"contracts/StakingVault.sol\":2583:2603  player != address(0) */\n      swap1\n      dup2\n      iszero\n        /* \"contracts/StakingVault.sol\":207:6280  contract StakingVault {... */\n      tag_153\n      jumpi\n        /* \"contracts/StakingVault.sol\":2647:2702  require(amount > 0, \"StakingVault: amount must be > 0\") */\n      tag_155\n        /* \"contracts/StakingVault.sol\":2555:2564  msg.value */\n      callvalue\n        /* \"contracts/StakingVault.sol\":2655:2665  amount > 0 */\n      iszero\n      iszero\n        /* \"contracts/StakingVault.sol\":2647:2702  require(amount > 0, \"StakingVault: amount must be > 0\") */\n      tag_3\n      jump\t// in\n    tag_155:\n        /* \"contracts/StakingVault.sol\":207:6280  contract StakingVault {... */\n      dup1\n      0x00\n      mstore\n      mstore(0x20, 0x01)\n        /* \"contracts/StakingVault.sol\":2713:2794  require(gamePools[gameId] + amount > gamePools[gameId], \"StakingVault: overflow\") */\n      tag_156\n        /* \"contracts/StakingVault.sol\":2721:2747  gamePools[gameId] + amount */\n      tag_57\n        /* \"contracts/StakingVault.sol\":2555:2564  msg.value */\n      callvalue\n        /* \"contracts/StakingVault.sol\":207:6280  contract StakingVault {... */\n      sload(keccak256(0x00, 0x40))\n        /* \"contracts/StakingVault.sol\":2721:2747  gamePools[gameId] + amount */\n      tag_4\n      jump\t// in\n        /* \"contracts/StakingVault.sol\":2713:2794  require(gamePools[gameId] + amount > gamePools[gameId], \"StakingVault: overflow\") */\n    tag_156:\n        /* \"contracts/StakingVault.sol\":207:6280  contract StakingVault {... */\n      dup1\n      0x00\n      mstore\n      mstore(0x20, 0x00)\n      keccak256(0x00, 0x40)\n      dup3\n      0x00\n      mstore\n      0x20\n      mstore\n      keccak256(0x00, 0x40)\n        /* \"contracts/StakingVault.sol\":2807:2843  gameStakes[gameId][player] += amount */\n      tag_158\n        /* \"contracts/StakingVault.sol\":2555:2564  msg.value */\n      callvalue\n        /* \"contracts/StakingVault.sol\":207:6280  contract StakingVault {... */\n      dup3\n      sload\n        /* \"contracts/StakingVault.sol\":2807:2843  gameStakes[gameId][player] += amount */\n      tag_4\n      jump\t// in\n    tag_158:\n        /* \"contracts/StakingVault.sol\":207:6280  contract StakingVault {... */\n      swap1\n      sstore\n      dup1\n      0x00\n      mstore\n      mstore(0x20, 0x01)\n      keccak256(0x00, 0x40)\n        /* \"contracts/StakingVault.sol\":2854:2881  gamePools[gameId] += amount */\n      tag_159\n        /* \"contracts/StakingVault.sol\":2555:2564  msg.value */\n      callvalue\n        /* \"contracts/StakingVault.sol\":207:6280  contract StakingVault {... */\n      dup3\n      sload\n        /* \"contracts/StakingVault.sol\":2854:2881  gamePools[gameId] += amount */\n      tag_4\n      jump\t// in\n    tag_159:\n        /* \"contracts/StakingVault.sol\":207:6280  contract StakingVault {... */\n      swap1\n      sstore\n        /* \"contracts/StakingVault.sol\":2899:2929  Staked(gameId, player, amount) */\n      0x18dcd430020e4d4899772fd94a8b40451dc5044dfb70bc46b532eeae431c864f\n        /* \"contracts/StakingVault.sol\":207:6280  contract StakingVault {... */\n      0x20\n      mload(0x40)\n        /* \"contracts/StakingVault.sol\":2555:2564  msg.value */\n      callvalue\n        /* \"contracts/StakingVault.sol\":207:6280  contract StakingVault {... */\n      dup2\n      mstore\n        /* \"contracts/StakingVault.sol\":2899:2929  Staked(gameId, player, amount) */\n      log3\n        /* \"contracts/StakingVault.sol\":207:6280  contract StakingVault {... */\n      stop\n    tag_153:\n      mload(0x40)\n      shl(0xe5, 0x461bcd)\n      dup2\n      mstore\n      0x20\n      0x04\n      dup3\n      add\n      mstore\n      0x1c\n      0x24\n      dup3\n      add\n      mstore\n      0x5374616b696e675661756c743a20706c61796572206973207a65726f00000000\n      0x44\n      dup3\n      add\n      mstore\n      0x64\n      swap1\n      revert\n    tag_18:\n      jumpi(tag_42, callvalue)\n      jumpi(tag_42, slt(add(not(0x03), calldatasize), 0x20))\n      mstore(0x00, calldataload(0x04))\n      mstore(0x20, 0x01)\n      0x20\n      sload(keccak256(0x00, 0x40))\n      mload(0x40)\n      swap1\n      dup2\n      mstore\n      return\n    tag_16:\n      jumpi(tag_42, callvalue)\n      jumpi(tag_42, slt(add(not(0x03), calldatasize), 0x20))\n      mstore(0x00, calldataload(0x04))\n        /* \"contracts/StakingVault.sol\":511:555  mapping(uint256 => address) public gameRooms */\n      0x02\n        /* \"contracts/StakingVault.sol\":207:6280  contract StakingVault {... */\n      0x20\n      mstore\n      0x20\n      0x01\n      dup1\n      0xa0\n      shl\n      sub\n      sload(keccak256(0x00, 0x40))\n      and\n      mload(0x40)\n      swap1\n      dup2\n      mstore\n      return\n    tag_14:\n      jumpi(tag_42, callvalue)\n      jumpi(tag_42, slt(add(not(0x03), calldatasize), 0x00))\n      dup1\n        /* \"contracts/StakingVault.sol\":642:644  10 */\n      0x0a\n        /* \"contracts/StakingVault.sol\":207:6280  contract StakingVault {... */\n      0x20\n      swap3\n      mstore\n      return\n    tag_1:\n      calldataload(0x24)\n      swap1\n      sub(shl(0xa0, 0x01), 0x01)\n      dup3\n      and\n      dup3\n      sub\n      tag_42\n      jumpi\n      jump\t// out\n    tag_2:\n      swap2\n      dup2\n      0x1f\n      dup5\n      add\n      slt\n      iszero\n      tag_42\n      jumpi\n      dup3\n      calldataload\n      swap2\n      0xffffffffffffffff\n      dup4\n      gt\n      tag_42\n      jumpi\n      0x20\n      dup1\n      dup6\n      add\n      swap5\n      dup5\n      0x05\n      shl\n      add\n      add\n      gt\n      tag_42\n      jumpi\n      jump\t// out\n    tag_3:\n      iszero\n      tag_180\n      jumpi\n      jump\t// out\n    tag_180:\n      0x64\n      mload(0x40)\n      shl(0xe5, 0x461bcd)\n      dup2\n      mstore\n      0x20\n      0x04\n      dup3\n      add\n      mstore\n      0x20\n      0x24\n      dup3\n      add\n      mstore\n      0x5374616b696e675661756c743a20616d6f756e74206d757374206265203e2030\n      0x44\n      dup3\n      add\n      mstore\n      revert\n    tag_4:\n      swap2\n      swap1\n      dup3\n      add\n      dup1\n      swap3\n      gt\n      tag_110\n      jumpi\n      jump\t// out\n    tag_5:\n      iszero\n      tag_184\n      jumpi\n      jump\t// out\n    tag_184:\n      mload(0x40)\n      shl(0xe5, 0x461bcd)\n      dup2\n      mstore\n      0x20\n      0x04\n      dup3\n      add\n      mstore\n      0x16\n      0x24\n      dup3\n      add\n      mstore\n      shl(0x50, 0x5374616b696e675661756c743a206f766572666c6f77)\n      0x44\n      dup3\n      add\n      mstore\n      0x64\n      swap1\n      revert\n    tag_6:\n      iszero\n      tag_186\n      jumpi\n      jump\t// out\n    tag_186:\n      mload(0x40)\n      shl(0xe5, 0x461bcd)\n      dup2\n      mstore\n      0x20\n      0x04\n      dup3\n      add\n      mstore\n      0x1f\n      0x24\n      dup3\n      add\n      mstore\n      0x5374616b696e675661756c743a206f6e6c792066656520726563656976657200\n      0x44\n      dup3\n      add\n      mstore\n      0x64\n      swap1\n      revert\n    tag_7:\n      jumpi(tag_188, iszero(returndatasize))\n      returndatasize\n      swap1\n      0xffffffffffffffff\n      dup3\n      gt\n      tag_192\n      jumpi\n      mload(0x40)\n      swap2\n      0x1f\n      dup2\n      add\n      not(0x1f)\n      swap1\n      dup2\n      and\n      0x3f\n      add\n      and\n      dup4\n      add\n      0xffffffffffffffff\n      dup2\n      gt\n      dup5\n      dup3\n      lt\n      or\n      tag_192\n      jumpi\n      0x40\n      mstore\n      dup3\n      mstore\n      returndatasize\n      0x00\n      0x20\n      dup5\n      add\n      returndatacopy\n      jump\t// out\n    tag_192:\n      mstore(0x00, shl(0xe0, 0x4e487b71))\n      mstore(0x04, 0x41)\n      revert(0x00, 0x24)\n    tag_188:\n      0x60\n      swap1\n      jump\t// out\n    tag_8:\n      swap2\n      swap1\n      dup2\n      lt\n      iszero\n      tag_195\n      jumpi\n      0x05\n      shl\n      add\n      swap1\n      jump\t// out\n    tag_195:\n      mstore(0x00, shl(0xe0, 0x4e487b71))\n      mstore(0x04, 0x32)\n      revert(0x00, 0x24)\n    tag_9:\n      calldataload\n      sub(shl(0xa0, 0x01), 0x01)\n      dup2\n      and\n      dup2\n      sub\n      tag_42\n      jumpi\n      swap1\n      jump\t// out\n\n    auxdata: 0xa26469706673582212203201a4b5345b58ea2c923a8231af50788f05e853e9e144677f6797ef4e84e4a164736f6c634300081a0033\n}\n",
				"bytecode": {
					"linkReferences": {},
					"object": "60a08060405234604c57336080819052600380546001600160a01b0319169091179055610d119081610051823960805181818161013b015281816106880152818161080001526108ab0152f35b5f80fdfe608080604052600436101561001c575b50361561001a575f80fd5b005b5f3560e01c9081632d11c58a14610af557508063426c464114610ac35780634d0ed9da14610a9957806351746bb2146109a25780635312ea8e1461089557806355f2ad7f146100e35780635bb47808146107d457806372a22282146103885780639e0395921461021d578063a694fc3a1461016a578063b3f0067414610126578063b44f4a55146100e35763c45a0155146100b7575f61000f565b346100df575f3660031901126100df576003546040516001600160a01b039091168152602090f35b5f80fd5b346100df5760403660031901126100df576100fc610b0e565b6004355f525f60205260405f209060018060a01b03165f52602052602060405f2054604051908152f35b346100df575f3660031901126100df576040517f00000000000000000000000000000000000000000000000000000000000000006001600160a01b03168152602090f35b60203660031901126100df57600435610184341515610b55565b805f5260016020526101b061019d3460405f2054610ba0565b825f52600160205260405f205410610bad565b5f81815260208181526040808320338452909152902080546101d3903490610ba0565b9055805f52600160205260405f206101ec348254610ba0565b9055604051903482527f18dcd430020e4d4899772fd94a8b40451dc5044dfb70bc46b532eeae431c864f60203393a3005b346100df5760403660031901126100df57600435610239610b0e565b6003546001600160a01b03163303610343576001600160a01b03169081156102fe575f818152600260205260409020546001600160a01b03166102b9575f81815260026020526040812080546001600160a01b031916841790557f0d8568db0ba21bc2f3df2ca3fd47edf810160b7d44b1f4f1acaa0424efe994249080a3005b60405162461bcd60e51b815260206004820152601960248201527f5374616b696e675661756c743a20726f6f6d20657869737473000000000000006044820152606490fd5b60405162461bcd60e51b815260206004820152601a60248201527f5374616b696e675661756c743a20726f6f6d206973207a65726f0000000000006044820152606490fd5b60405162461bcd60e51b815260206004820152601a60248201527f5374616b696e675661756c743a206f6e6c7920666163746f72790000000000006044820152606490fd5b346100df5760603660031901126100df5760043560243567ffffffffffffffff81116100df576103bc903690600401610b24565b60443567ffffffffffffffff81116100df576103dc903690600401610b24565b5f858152600260205260409020549091906001600160a01b0316330361078f57845f52600160205260405f205493841561074a57831561070557600a8502858104600a036105d4576103e89004938486039586116105d45784610681575b5f805b8281106106435750801591826105f2575f5b8181106104dd5750505050505f5b8281106104a457857f6ae8ee960d83517f7fa993ad7a0e16e33d9655a23ff41eefc62bdb289c7a8e5f60408787845f5260016020525f8381205582519182526020820152a2005b600190865f525f60205260405f206104c56104c0838787610ca3565b610cc7565b838060a01b03165f526020525f60408120550161045d565b6104eb6104c0828488610ca3565b908a5f525f60205260405f2060018060a01b0383165f5260205260405f205480156105e8578a81029081048b036105d457856105c05784900480610553575b506001918b5f525f60205260405f2090838060a01b03165f526020525f60408120555b0161044f565b5f80808093865af1610563610c3e565b501561056f578b61052a565b60405162461bcd60e51b8152602060048201526024808201527f5374616b696e675661756c743a20726577617264207472616e736665722066616044820152631a5b195960e21b6064820152608490fd5b634e487b7160e01b5f52601260045260245ffd5b634e487b7160e01b5f52601160045260245ffd5b506001915061054d565b60405162461bcd60e51b815260206004820152602360248201527f5374616b696e675661756c743a2077696e6e657273207374616b65206973207a60448201526265726f60e81b6064820152608490fd5b9061067a6001918a5f525f60205260405f206106636104c086888a610ca3565b848060a01b03165f5260205260405f205490610ba0565b910161043d565b5f808080887f00000000000000000000000000000000000000000000000000000000000000005af16106b1610c3e565b5061043a5760405162461bcd60e51b815260206004820152602160248201527f5374616b696e675661756c743a20666565207472616e73666572206661696c656044820152601960fa1b6064820152608490fd5b60405162461bcd60e51b815260206004820152601860248201527f5374616b696e675661756c743a206e6f2077696e6e65727300000000000000006044820152606490fd5b60405162461bcd60e51b815260206004820152601e60248201527f5374616b696e675661756c743a206e6f20706f6f6c20666f722067616d6500006044820152606490fd5b60405162461bcd60e51b815260206004820152601c60248201527f5374616b696e675661756c743a206f6e6c792067616d6520726f6f6d000000006044820152606490fd5b346100df5760203660031901126100df576004356001600160a01b038116908190036100df5761082e337f00000000000000000000000000000000000000000000000000000000000000006001600160a01b031614610bf2565b8015610850576bffffffffffffffffffffffff60a01b60035416176003555f80f35b60405162461bcd60e51b815260206004820152601d60248201527f5374616b696e675661756c743a20666163746f7279206973207a65726f0000006044820152606490fd5b346100df5760203660031901126100df576004357f00000000000000000000000000000000000000000000000000000000000000006108de336001600160a01b03831614610bf2565b814710610952575f80809381935af16108f5610c3e565b50156108fd57005b60405162461bcd60e51b815260206004820152602760248201527f5374616b696e675661756c743a20656d657267656e6379207472616e736665726044820152660819985a5b195960ca1b6064820152608490fd5b60405162461bcd60e51b815260206004820152602260248201527f5374616b696e675661756c743a20696e73756666696369656e742062616c616e604482015261636560f01b6064820152608490fd5b60403660031901126100df576004356001600160a01b036109c1610b0e565b16908115610a54576109d4341515610b55565b805f5260016020526109ed61019d3460405f2054610ba0565b805f525f60205260405f20825f5260205260405f20610a0d348254610ba0565b9055805f52600160205260405f20610a26348254610ba0565b90557f18dcd430020e4d4899772fd94a8b40451dc5044dfb70bc46b532eeae431c864f6020604051348152a3005b60405162461bcd60e51b815260206004820152601c60248201527f5374616b696e675661756c743a20706c61796572206973207a65726f000000006044820152606490fd5b346100df5760203660031901126100df576004355f526001602052602060405f2054604051908152f35b346100df5760203660031901126100df576004355f526002602052602060018060a01b0360405f205416604051908152f35b346100df575f3660031901126100df5780600a60209252f35b602435906001600160a01b03821682036100df57565b9181601f840112156100df5782359167ffffffffffffffff83116100df576020808501948460051b0101116100df57565b15610b5c57565b606460405162461bcd60e51b815260206004820152602060248201527f5374616b696e675661756c743a20616d6f756e74206d757374206265203e20306044820152fd5b919082018092116105d457565b15610bb457565b60405162461bcd60e51b81526020600482015260166024820152755374616b696e675661756c743a206f766572666c6f7760501b6044820152606490fd5b15610bf957565b60405162461bcd60e51b815260206004820152601f60248201527f5374616b696e675661756c743a206f6e6c7920666565207265636569766572006044820152606490fd5b3d15610c9e573d9067ffffffffffffffff8211610c8a5760405191601f8101601f19908116603f0116830167ffffffffffffffff811184821017610c8a5760405282523d5f602084013e565b634e487b7160e01b5f52604160045260245ffd5b606090565b9190811015610cb35760051b0190565b634e487b7160e01b5f52603260045260245ffd5b356001600160a01b03811681036100df579056fea26469706673582212203201a4b5345b58ea2c923a8231af50788f05e853e9e144677f6797ef4e84e4a164736f6c634300081a0033",
					"opcodes": "PUSH1 0xA0 DUP1 PUSH1 0x40 MSTORE CALLVALUE PUSH1 0x4C JUMPI CALLER PUSH1 0x80 DUP2 SWAP1 MSTORE PUSH1 0x3 DUP1 SLOAD PUSH1 0x1 PUSH1 0x1 PUSH1 0xA0 SHL SUB NOT AND SWAP1 SWAP2 OR SWAP1 SSTORE PUSH2 0xD11 SWAP1 DUP2 PUSH2 0x51 DUP3 CODECOPY PUSH1 0x80 MLOAD DUP2 DUP2 DUP2 PUSH2 0x13B ADD MSTORE DUP2 DUP2 PUSH2 0x688 ADD MSTORE DUP2 DUP2 PUSH2 0x800 ADD MSTORE PUSH2 0x8AB ADD MSTORE RETURN JUMPDEST PUSH0 DUP1 REVERT INVALID PUSH1 0x80 DUP1 PUSH1 0x40 MSTORE PUSH1 0x4 CALLDATASIZE LT ISZERO PUSH2 0x1C JUMPI JUMPDEST POP CALLDATASIZE ISZERO PUSH2 0x1A JUMPI PUSH0 DUP1 REVERT JUMPDEST STOP JUMPDEST PUSH0 CALLDATALOAD PUSH1 0xE0 SHR SWAP1 DUP2 PUSH4 0x2D11C58A EQ PUSH2 0xAF5 JUMPI POP DUP1 PUSH4 0x426C4641 EQ PUSH2 0xAC3 JUMPI DUP1 PUSH4 0x4D0ED9DA EQ PUSH2 0xA99 JUMPI DUP1 PUSH4 0x51746BB2 EQ PUSH2 0x9A2 JUMPI DUP1 PUSH4 0x5312EA8E EQ PUSH2 0x895 JUMPI DUP1 PUSH4 0x55F2AD7F EQ PUSH2 0xE3 JUMPI DUP1 PUSH4 0x5BB47808 EQ PUSH2 0x7D4 JUMPI DUP1 PUSH4 0x72A22282 EQ PUSH2 0x388 JUMPI DUP1 PUSH4 0x9E039592 EQ PUSH2 0x21D JUMPI DUP1 PUSH4 0xA694FC3A EQ PUSH2 0x16A JUMPI DUP1 PUSH4 0xB3F00674 EQ PUSH2 0x126 JUMPI DUP1 PUSH4 0xB44F4A55 EQ PUSH2 0xE3 JUMPI PUSH4 0xC45A0155 EQ PUSH2 0xB7 JUMPI PUSH0 PUSH2 0xF JUMP JUMPDEST CALLVALUE PUSH2 0xDF JUMPI PUSH0 CALLDATASIZE PUSH1 0x3 NOT ADD SLT PUSH2 0xDF JUMPI PUSH1 0x3 SLOAD PUSH1 0x40 MLOAD PUSH1 0x1 PUSH1 0x1 PUSH1 0xA0 SHL SUB SWAP1 SWAP2 AND DUP2 MSTORE PUSH1 0x20 SWAP1 RETURN JUMPDEST PUSH0 DUP1 REVERT JUMPDEST CALLVALUE PUSH2 0xDF JUMPI PUSH1 0x40 CALLDATASIZE PUSH1 0x3 NOT ADD SLT PUSH2 0xDF JUMPI PUSH2 0xFC PUSH2 0xB0E JUMP JUMPDEST PUSH1 0x4 CALLDATALOAD PUSH0 MSTORE PUSH0 PUSH1 0x20 MSTORE PUSH1 0x40 PUSH0 KECCAK256 SWAP1 PUSH1 0x1 DUP1 PUSH1 0xA0 SHL SUB AND PUSH0 MSTORE PUSH1 0x20 MSTORE PUSH1 0x20 PUSH1 0x40 PUSH0 KECCAK256 SLOAD PUSH1 0x40 MLOAD SWAP1 DUP2 MSTORE RETURN JUMPDEST CALLVALUE PUSH2 0xDF JUMPI PUSH0 CALLDATASIZE PUSH1 0x3 NOT ADD SLT PUSH2 0xDF JUMPI PUSH1 0x40 MLOAD PUSH32 0x0 PUSH1 0x1 PUSH1 0x1 PUSH1 0xA0 SHL SUB AND DUP2 MSTORE PUSH1 0x20 SWAP1 RETURN JUMPDEST PUSH1 0x20 CALLDATASIZE PUSH1 0x3 NOT ADD SLT PUSH2 0xDF JUMPI PUSH1 0x4 CALLDATALOAD PUSH2 0x184 CALLVALUE ISZERO ISZERO PUSH2 0xB55 JUMP JUMPDEST DUP1 PUSH0 MSTORE PUSH1 0x1 PUSH1 0x20 MSTORE PUSH2 0x1B0 PUSH2 0x19D CALLVALUE PUSH1 0x40 PUSH0 KECCAK256 SLOAD PUSH2 0xBA0 JUMP JUMPDEST DUP3 PUSH0 MSTORE PUSH1 0x1 PUSH1 0x20 MSTORE PUSH1 0x40 PUSH0 KECCAK256 SLOAD LT PUSH2 0xBAD JUMP JUMPDEST PUSH0 DUP2 DUP2 MSTORE PUSH1 0x20 DUP2 DUP2 MSTORE PUSH1 0x40 DUP1 DUP4 KECCAK256 CALLER DUP5 MSTORE SWAP1 SWAP2 MSTORE SWAP1 KECCAK256 DUP1 SLOAD PUSH2 0x1D3 SWAP1 CALLVALUE SWAP1 PUSH2 0xBA0 JUMP JUMPDEST SWAP1 SSTORE DUP1 PUSH0 MSTORE PUSH1 0x1 PUSH1 0x20 MSTORE PUSH1 0x40 PUSH0 KECCAK256 PUSH2 0x1EC CALLVALUE DUP3 SLOAD PUSH2 0xBA0 JUMP JUMPDEST SWAP1 SSTORE PUSH1 0x40 MLOAD SWAP1 CALLVALUE DUP3 MSTORE PUSH32 0x18DCD430020E4D4899772FD94A8B40451DC5044DFB70BC46B532EEAE431C864F PUSH1 0x20 CALLER SWAP4 LOG3 STOP JUMPDEST CALLVALUE PUSH2 0xDF JUMPI PUSH1 0x40 CALLDATASIZE PUSH1 0x3 NOT ADD SLT PUSH2 0xDF JUMPI PUSH1 0x4 CALLDATALOAD PUSH2 0x239 PUSH2 0xB0E JUMP JUMPDEST PUSH1 0x3 SLOAD PUSH1 0x1 PUSH1 0x1 PUSH1 0xA0 SHL SUB AND CALLER SUB PUSH2 0x343 JUMPI PUSH1 0x1 PUSH1 0x1 PUSH1 0xA0 SHL SUB AND SWAP1 DUP2 ISZERO PUSH2 0x2FE JUMPI PUSH0 DUP2 DUP2 MSTORE PUSH1 0x2 PUSH1 0x20 MSTORE PUSH1 0x40 SWAP1 KECCAK256 SLOAD PUSH1 0x1 PUSH1 0x1 PUSH1 0xA0 SHL SUB AND PUSH2 0x2B9 JUMPI PUSH0 DUP2 DUP2 MSTORE PUSH1 0x2 PUSH1 0x20 MSTORE PUSH1 0x40 DUP2 KECCAK256 DUP1 SLOAD PUSH1 0x1 PUSH1 0x1 PUSH1 0xA0 SHL SUB NOT AND DUP5 OR SWAP1 SSTORE PUSH32 0xD8568DB0BA21BC2F3DF2CA3FD47EDF810160B7D44B1F4F1ACAA0424EFE99424 SWAP1 DUP1 LOG3 STOP JUMPDEST PUSH1 0x40 MLOAD PUSH3 0x461BCD PUSH1 0xE5 SHL DUP2 MSTORE PUSH1 0x20 PUSH1 0x4 DUP3 ADD MSTORE PUSH1 0x19 PUSH1 0x24 DUP3 ADD MSTORE PUSH32 0x5374616B696E675661756C743A20726F6F6D2065786973747300000000000000 PUSH1 0x44 DUP3 ADD MSTORE PUSH1 0x64 SWAP1 REVERT JUMPDEST PUSH1 0x40 MLOAD PUSH3 0x461BCD PUSH1 0xE5 SHL DUP2 MSTORE PUSH1 0x20 PUSH1 0x4 DUP3 ADD MSTORE PUSH1 0x1A PUSH1 0x24 DUP3 ADD MSTORE PUSH32 0x5374616B696E675661756C743A20726F6F6D206973207A65726F000000000000 PUSH1 0x44 DUP3 ADD MSTORE PUSH1 0x64 SWAP1 REVERT JUMPDEST PUSH1 0x40 MLOAD PUSH3 0x461BCD PUSH1 0xE5 SHL DUP2 MSTORE PUSH1 0x20 PUSH1 0x4 DUP3 ADD MSTORE PUSH1 0x1A PUSH1 0x24 DUP3 ADD MSTORE PUSH32 0x5374616B696E675661756C743A206F6E6C7920666163746F7279000000000000 PUSH1 0x44 DUP3 ADD MSTORE PUSH1 0x64 SWAP1 REVERT JUMPDEST CALLVALUE PUSH2 0xDF JUMPI PUSH1 0x60 CALLDATASIZE PUSH1 0x3 NOT ADD SLT PUSH2 0xDF JUMPI PUSH1 0x4 CALLDATALOAD PUSH1 0x24 CALLDATALOAD PUSH8 0xFFFFFFFFFFFFFFFF DUP2 GT PUSH2 0xDF JUMPI PUSH2 0x3BC SWAP1 CALLDATASIZE SWAP1 PUSH1 0x4 ADD PUSH2 0xB24 JUMP JUMPDEST PUSH1 0x44 CALLDATALOAD PUSH8 0xFFFFFFFFFFFFFFFF DUP2 GT PUSH2 0xDF JUMPI PUSH2 0x3DC SWAP1 CALLDATASIZE SWAP1 PUSH1 0x4 ADD PUSH2 0xB24 JUMP JUMPDEST PUSH0 DUP6 DUP2 MSTORE PUSH1 0x2 PUSH1 0x20 MSTORE PUSH1 0x40 SWAP1 KECCAK256 SLOAD SWAP1 SWAP2 SWAP1 PUSH1 0x1 PUSH1 0x1 PUSH1 0xA0 SHL SUB AND CALLER SUB PUSH2 0x78F JUMPI DUP5 PUSH0 MSTORE PUSH1 0x1 PUSH1 0x20 MSTORE PUSH1 0x40 PUSH0 KECCAK256 SLOAD SWAP4 DUP5 ISZERO PUSH2 0x74A JUMPI DUP4 ISZERO PUSH2 0x705 JUMPI PUSH1 0xA DUP6 MUL DUP6 DUP2 DIV PUSH1 0xA SUB PUSH2 0x5D4 JUMPI PUSH2 0x3E8 SWAP1 DIV SWAP4 DUP5 DUP7 SUB SWAP6 DUP7 GT PUSH2 0x5D4 JUMPI DUP5 PUSH2 0x681 JUMPI JUMPDEST PUSH0 DUP1 JUMPDEST DUP3 DUP2 LT PUSH2 0x643 JUMPI POP DUP1 ISZERO SWAP2 DUP3 PUSH2 0x5F2 JUMPI PUSH0 JUMPDEST DUP2 DUP2 LT PUSH2 0x4DD JUMPI POP POP POP POP POP PUSH0 JUMPDEST DUP3 DUP2 LT PUSH2 0x4A4 JUMPI DUP6 PUSH32 0x6AE8EE960D83517F7FA993AD7A0E16E33D9655A23FF41EEFC62BDB289C7A8E5F PUSH1 0x40 DUP8 DUP8 DUP5 PUSH0 MSTORE PUSH1 0x1 PUSH1 0x20 MSTORE PUSH0 DUP4 DUP2 KECCAK256 SSTORE DUP3 MLOAD SWAP2 DUP3 MSTORE PUSH1 0x20 DUP3 ADD MSTORE LOG2 STOP JUMPDEST PUSH1 0x1 SWAP1 DUP7 PUSH0 MSTORE PUSH0 PUSH1 0x20 MSTORE PUSH1 0x40 PUSH0 KECCAK256 PUSH2 0x4C5 PUSH2 0x4C0 DUP4 DUP8 DUP8 PUSH2 0xCA3 JUMP JUMPDEST PUSH2 0xCC7 JUMP JUMPDEST DUP4 DUP1 PUSH1 0xA0 SHL SUB AND PUSH0 MSTORE PUSH1 0x20 MSTORE PUSH0 PUSH1 0x40 DUP2 KECCAK256 SSTORE ADD PUSH2 0x45D JUMP JUMPDEST PUSH2 0x4EB PUSH2 0x4C0 DUP3 DUP5 DUP9 PUSH2 0xCA3 JUMP JUMPDEST SWAP1 DUP11 PUSH0 MSTORE PUSH0 PUSH1 0x20 MSTORE PUSH1 0x40 PUSH0 KECCAK256 PUSH1 0x1 DUP1 PUSH1 0xA0 SHL SUB DUP4 AND PUSH0 MSTORE PUSH1 0x20 MSTORE PUSH1 0x40 PUSH0 KECCAK256 SLOAD DUP1 ISZERO PUSH2 0x5E8 JUMPI DUP11 DUP2 MUL SWAP1 DUP2 DIV DUP12 SUB PUSH2 0x5D4 JUMPI DUP6 PUSH2 0x5C0 JUMPI DUP5 SWAP1 DIV DUP1 PUSH2 0x553 JUMPI JUMPDEST POP PUSH1 0x1 SWAP2 DUP12 PUSH0 MSTORE PUSH0 PUSH1 0x20 MSTORE PUSH1 0x40 PUSH0 KECCAK256 SWAP1 DUP4 DUP1 PUSH1 0xA0 SHL SUB AND PUSH0 MSTORE PUSH1 0x20 MSTORE PUSH0 PUSH1 0x40 DUP2 KECCAK256 SSTORE JUMPDEST ADD PUSH2 0x44F JUMP JUMPDEST PUSH0 DUP1 DUP1 DUP1 SWAP4 DUP7 GAS CALL PUSH2 0x563 PUSH2 0xC3E JUMP JUMPDEST POP ISZERO PUSH2 0x56F JUMPI DUP12 PUSH2 0x52A JUMP JUMPDEST PUSH1 0x40 MLOAD PUSH3 0x461BCD PUSH1 0xE5 SHL DUP2 MSTORE PUSH1 0x20 PUSH1 0x4 DUP3 ADD MSTORE PUSH1 0x24 DUP1 DUP3 ADD MSTORE PUSH32 0x5374616B696E675661756C743A20726577617264207472616E73666572206661 PUSH1 0x44 DUP3 ADD MSTORE PUSH4 0x1A5B1959 PUSH1 0xE2 SHL PUSH1 0x64 DUP3 ADD MSTORE PUSH1 0x84 SWAP1 REVERT JUMPDEST PUSH4 0x4E487B71 PUSH1 0xE0 SHL PUSH0 MSTORE PUSH1 0x12 PUSH1 0x4 MSTORE PUSH1 0x24 PUSH0 REVERT JUMPDEST PUSH4 0x4E487B71 PUSH1 0xE0 SHL PUSH0 MSTORE PUSH1 0x11 PUSH1 0x4 MSTORE PUSH1 0x24 PUSH0 REVERT JUMPDEST POP PUSH1 0x1 SWAP2 POP PUSH2 0x54D JUMP JUMPDEST PUSH1 0x40 MLOAD PUSH3 0x461BCD PUSH1 0xE5 SHL DUP2 MSTORE PUSH1 0x20 PUSH1 0x4 DUP3 ADD MSTORE PUSH1 0x23 PUSH1 0x24 DUP3 ADD MSTORE PUSH32 0x5374616B696E675661756C743A2077696E6E657273207374616B65206973207A PUSH1 0x44 DUP3 ADD MSTORE PUSH3 0x65726F PUSH1 0xE8 SHL PUSH1 0x64 DUP3 ADD MSTORE PUSH1 0x84 SWAP1 REVERT JUMPDEST SWAP1 PUSH2 0x67A PUSH1 0x1 SWAP2 DUP11 PUSH0 MSTORE PUSH0 PUSH1 0x20 MSTORE PUSH1 0x40 PUSH0 KECCAK256 PUSH2 0x663 PUSH2 0x4C0 DUP7 DUP9 DUP11 PUSH2 0xCA3 JUMP JUMPDEST DUP5 DUP1 PUSH1 0xA0 SHL SUB AND PUSH0 MSTORE PUSH1 0x20 MSTORE PUSH1 0x40 PUSH0 KECCAK256 SLOAD SWAP1 PUSH2 0xBA0 JUMP JUMPDEST SWAP2 ADD PUSH2 0x43D JUMP JUMPDEST PUSH0 DUP1 DUP1 DUP1 DUP9 PUSH32 0x0 GAS CALL PUSH2 0x6B1 PUSH2 0xC3E JUMP JUMPDEST POP PUSH2 0x43A JUMPI PUSH1 0x40 MLOAD PUSH3 0x461BCD PUSH1 0xE5 SHL DUP2 MSTORE PUSH1 0x20 PUSH1 0x4 DUP3 ADD MSTORE PUSH1 0x21 PUSH1 0x24 DUP3 ADD MSTORE PUSH32 0x5374616B696E675661756C743A20666565207472616E73666572206661696C65 PUSH1 0x44 DUP3 ADD MSTORE PUSH1 0x19 PUSH1 0xFA SHL PUSH1 0x64 DUP3 ADD MSTORE PUSH1 0x84 SWAP1 REVERT JUMPDEST PUSH1 0x40 MLOAD PUSH3 0x461BCD PUSH1 0xE5 SHL DUP2 MSTORE PUSH1 0x20 PUSH1 0x4 DUP3 ADD MSTORE PUSH1 0x18 PUSH1 0x24 DUP3 ADD MSTORE PUSH32 0x5374616B696E675661756C743A206E6F2077696E6E6572730000000000000000 PUSH1 0x44 DUP3 ADD MSTORE PUSH1 0x64 SWAP1 REVERT JUMPDEST PUSH1 0x40 MLOAD PUSH3 0x461BCD PUSH1 0xE5 SHL DUP2 MSTORE PUSH1 0x20 PUSH1 0x4 DUP3 ADD MSTORE PUSH1 0x1E PUSH1 0x24 DUP3 ADD MSTORE PUSH32 0x5374616B696E675661756C743A206E6F20706F6F6C20666F722067616D650000 PUSH1 0x44 DUP3 ADD MSTORE PUSH1 0x64 SWAP1 REVERT JUMPDEST PUSH1 0x40 MLOAD PUSH3 0x461BCD PUSH1 0xE5 SHL DUP2 MSTORE PUSH1 0x20 PUSH1 0x4 DUP3 ADD MSTORE PUSH1 0x1C PUSH1 0x24 DUP3 ADD MSTORE PUSH32 0x5374616B696E675661756C743A206F6E6C792067616D6520726F6F6D00000000 PUSH1 0x44 DUP3 ADD MSTORE PUSH1 0x64 SWAP1 REVERT JUMPDEST CALLVALUE PUSH2 0xDF JUMPI PUSH1 0x20 CALLDATASIZE PUSH1 0x3 NOT ADD SLT PUSH2 0xDF JUMPI PUSH1 0x4 CALLDATALOAD PUSH1 0x1 PUSH1 0x1 PUSH1 0xA0 SHL SUB DUP2 AND SWAP1 DUP2 SWAP1 SUB PUSH2 0xDF JUMPI PUSH2 0x82E CALLER PUSH32 0x0 PUSH1 0x1 PUSH1 0x1 PUSH1 0xA0 SHL SUB AND EQ PUSH2 0xBF2 JUMP JUMPDEST DUP1 ISZERO PUSH2 0x850 JUMPI PUSH12 0xFFFFFFFFFFFFFFFFFFFFFFFF PUSH1 0xA0 SHL PUSH1 0x3 SLOAD AND OR PUSH1 0x3 SSTORE PUSH0 DUP1 RETURN JUMPDEST PUSH1 0x40 MLOAD PUSH3 0x461BCD PUSH1 0xE5 SHL DUP2 MSTORE PUSH1 0x20 PUSH1 0x4 DUP3 ADD MSTORE PUSH1 0x1D PUSH1 0x24 DUP3 ADD MSTORE PUSH32 0x5374616B696E675661756C743A20666163746F7279206973207A65726F000000 PUSH1 0x44 DUP3 ADD MSTORE PUSH1 0x64 SWAP1 REVERT JUMPDEST CALLVALUE PUSH2 0xDF JUMPI PUSH1 0x20 CALLDATASIZE PUSH1 0x3 NOT ADD SLT PUSH2 0xDF JUMPI PUSH1 0x4 CALLDATALOAD PUSH32 0x0 PUSH2 0x8DE CALLER PUSH1 0x1 PUSH1 0x1 PUSH1 0xA0 SHL SUB DUP4 AND EQ PUSH2 0xBF2 JUMP JUMPDEST DUP2 SELFBALANCE LT PUSH2 0x952 JUMPI PUSH0 DUP1 DUP1 SWAP4 DUP2 SWAP4 GAS CALL PUSH2 0x8F5 PUSH2 0xC3E JUMP JUMPDEST POP ISZERO PUSH2 0x8FD JUMPI STOP JUMPDEST PUSH1 0x40 MLOAD PUSH3 0x461BCD PUSH1 0xE5 SHL DUP2 MSTORE PUSH1 0x20 PUSH1 0x4 DUP3 ADD MSTORE PUSH1 0x27 PUSH1 0x24 DUP3 ADD MSTORE PUSH32 0x5374616B696E675661756C743A20656D657267656E6379207472616E73666572 PUSH1 0x44 DUP3 ADD MSTORE PUSH7 0x819985A5B1959 PUSH1 0xCA SHL PUSH1 0x64 DUP3 ADD MSTORE PUSH1 0x84 SWAP1 REVERT JUMPDEST PUSH1 0x40 MLOAD PUSH3 0x461BCD PUSH1 0xE5 SHL DUP2 MSTORE PUSH1 0x20 PUSH1 0x4 DUP3 ADD MSTORE PUSH1 0x22 PUSH1 0x24 DUP3 ADD MSTORE PUSH32 0x5374616B696E675661756C743A20696E73756666696369656E742062616C616E PUSH1 0x44 DUP3 ADD MSTORE PUSH2 0x6365 PUSH1 0xF0 SHL PUSH1 0x64 DUP3 ADD MSTORE PUSH1 0x84 SWAP1 REVERT JUMPDEST PUSH1 0x40 CALLDATASIZE PUSH1 0x3 NOT ADD SLT PUSH2 0xDF JUMPI PUSH1 0x4 CALLDATALOAD PUSH1 0x1 PUSH1 0x1 PUSH1 0xA0 SHL SUB PUSH2 0x9C1 PUSH2 0xB0E JUMP JUMPDEST AND SWAP1 DUP2 ISZERO PUSH2 0xA54 JUMPI PUSH2 0x9D4 CALLVALUE ISZERO ISZERO PUSH2 0xB55 JUMP JUMPDEST DUP1 PUSH0 MSTORE PUSH1 0x1 PUSH1 0x20 MSTORE PUSH2 0x9ED PUSH2 0x19D CALLVALUE PUSH1 0x40 PUSH0 KECCAK256 SLOAD PUSH2 0xBA0 JUMP JUMPDEST DUP1 PUSH0 MSTORE PUSH0 PUSH1 0x20 MSTORE PUSH1 0x40 PUSH0 KECCAK256 DUP3 PUSH0 MSTORE PUSH1 0x20 MSTORE PUSH1 0x40 PUSH0 KECCAK256 PUSH2 0xA0D CALLVALUE DUP3 SLOAD PUSH2 0xBA0 JUMP JUMPDEST SWAP1 SSTORE DUP1 PUSH0 MSTORE PUSH1 0x1 PUSH1 0x20 MSTORE PUSH1 0x40 PUSH0 KECCAK256 PUSH2 0xA26 CALLVALUE DUP3 SLOAD PUSH2 0xBA0 JUMP JUMPDEST SWAP1 SSTORE PUSH32 0x18DCD430020E4D4899772FD94A8B40451DC5044DFB70BC46B532EEAE431C864F PUSH1 0x20 PUSH1 0x40 MLOAD CALLVALUE DUP2 MSTORE LOG3 STOP JUMPDEST PUSH1 0x40 MLOAD PUSH3 0x461BCD PUSH1 0xE5 SHL DUP2 MSTORE PUSH1 0x20 PUSH1 0x4 DUP3 ADD MSTORE PUSH1 0x1C PUSH1 0x24 DUP3 ADD MSTORE PUSH32 0x5374616B696E675661756C743A20706C61796572206973207A65726F00000000 PUSH1 0x44 DUP3 ADD MSTORE PUSH1 0x64 SWAP1 REVERT JUMPDEST CALLVALUE PUSH2 0xDF JUMPI PUSH1 0x20 CALLDATASIZE PUSH1 0x3 NOT ADD SLT PUSH2 0xDF JUMPI PUSH1 0x4 CALLDATALOAD PUSH0 MSTORE PUSH1 0x1 PUSH1 0x20 MSTORE PUSH1 0x20 PUSH1 0x40 PUSH0 KECCAK256 SLOAD PUSH1 0x40 MLOAD SWAP1 DUP2 MSTORE RETURN JUMPDEST CALLVALUE PUSH2 0xDF JUMPI PUSH1 0x20 CALLDATASIZE PUSH1 0x3 NOT ADD SLT PUSH2 0xDF JUMPI PUSH1 0x4 CALLDATALOAD PUSH0 MSTORE PUSH1 0x2 PUSH1 0x20 MSTORE PUSH1 0x20 PUSH1 0x1 DUP1 PUSH1 0xA0 SHL SUB PUSH1 0x40 PUSH0 KECCAK256 SLOAD AND PUSH1 0x40 MLOAD SWAP1 DUP2 MSTORE RETURN JUMPDEST CALLVALUE PUSH2 0xDF JUMPI PUSH0 CALLDATASIZE PUSH1 0x3 NOT ADD SLT PUSH2 0xDF JUMPI DUP1 PUSH1 0xA PUSH1 0x20 SWAP3 MSTORE RETURN JUMPDEST PUSH1 0x24 CALLDATALOAD SWAP1 PUSH1 0x1 PUSH1 0x1 PUSH1 0xA0 SHL SUB DUP3 AND DUP3 SUB PUSH2 0xDF JUMPI JUMP JUMPDEST SWAP2 DUP2 PUSH1 0x1F DUP5 ADD SLT ISZERO PUSH2 0xDF JUMPI DUP3 CALLDATALOAD SWAP2 PUSH8 0xFFFFFFFFFFFFFFFF DUP4 GT PUSH2 0xDF JUMPI PUSH1 0x20 DUP1 DUP6 ADD SWAP5 DUP5 PUSH1 0x5 SHL ADD ADD GT PUSH2 0xDF JUMPI JUMP JUMPDEST ISZERO PUSH2 0xB5C JUMPI JUMP JUMPDEST PUSH1 0x64 PUSH1 0x40 MLOAD PUSH3 0x461BCD PUSH1 0xE5 SHL DUP2 MSTORE PUSH1 0x20 PUSH1 0x4 DUP3 ADD MSTORE PUSH1 0x20 PUSH1 0x24 DUP3 ADD MSTORE PUSH32 0x5374616B696E675661756C743A20616D6F756E74206D757374206265203E2030 PUSH1 0x44 DUP3 ADD MSTORE REVERT JUMPDEST SWAP2 SWAP1 DUP3 ADD DUP1 SWAP3 GT PUSH2 0x5D4 JUMPI JUMP JUMPDEST ISZERO PUSH2 0xBB4 JUMPI JUMP JUMPDEST PUSH1 0x40 MLOAD PUSH3 0x461BCD PUSH1 0xE5 SHL DUP2 MSTORE PUSH1 0x20 PUSH1 0x4 DUP3 ADD MSTORE PUSH1 0x16 PUSH1 0x24 DUP3 ADD MSTORE PUSH22 0x5374616B696E675661756C743A206F766572666C6F77 PUSH1 0x50 SHL PUSH1 0x44 DUP3 ADD MSTORE PUSH1 0x64 SWAP1 REVERT JUMPDEST ISZERO PUSH2 0xBF9 JUMPI JUMP JUMPDEST PUSH1 0x40 MLOAD PUSH3 0x461BCD PUSH1 0xE5 SHL DUP2 MSTORE PUSH1 0x20 PUSH1 0x4 DUP3 ADD MSTORE PUSH1 0x1F PUSH1 0x24 DUP3 ADD MSTORE PUSH32 0x5374616B696E675661756C743A206F6E6C792066656520726563656976657200 PUSH1 0x44 DUP3 ADD MSTORE PUSH1 0x64 SWAP1 REVERT JUMPDEST RETURNDATASIZE ISZERO PUSH2 0xC9E JUMPI RETURNDATASIZE SWAP1 PUSH8 0xFFFFFFFFFFFFFFFF DUP3 GT PUSH2 0xC8A JUMPI PUSH1 0x40 MLOAD SWAP2 PUSH1 0x1F DUP2 ADD PUSH1 0x1F NOT SWAP1 DUP2 AND PUSH1 0x3F ADD AND DUP4 ADD PUSH8 0xFFFFFFFFFFFFFFFF DUP2 GT DUP5 DUP3 LT OR PUSH2 0xC8A JUMPI PUSH1 0x40 MSTORE DUP3 MSTORE RETURNDATASIZE PUSH0 PUSH1 0x20 DUP5 ADD RETURNDATACOPY JUMP JUMPDEST PUSH4 0x4E487B71 PUSH1 0xE0 SHL PUSH0 MSTORE PUSH1 0x41 PUSH1 0x4 MSTORE PUSH1 0x24 PUSH0 REVERT JUMPDEST PUSH1 0x60 SWAP1 JUMP JUMPDEST SWAP2 SWAP1 DUP2 LT ISZERO PUSH2 0xCB3 JUMPI PUSH1 0x5 SHL ADD SWAP1 JUMP JUMPDEST PUSH4 0x4E487B71 PUSH1 0xE0 SHL PUSH0 MSTORE PUSH1 0x32 PUSH1 0x4 MSTORE PUSH1 0x24 PUSH0 REVERT JUMPDEST CALLDATALOAD PUSH1 0x1 PUSH1 0x1 PUSH1 0xA0 SHL SUB DUP2 AND DUP2 SUB PUSH2 0xDF JUMPI SWAP1 JUMP INVALID LOG2 PUSH5 0x6970667358 0x22 SLT KECCAK256 ORIGIN ADD LOG4 0xB5 CALLVALUE JUMPDEST PC 0xEA 0x2C SWAP3 GASPRICE DUP3 BALANCE 0xAF POP PUSH25 0x8F05E853E9E144677F6797EF4E84E4A164736F6C634300081A STOP CALLER "
				},
				"gasEstimates": {
					"creation": {
						"codeDepositCost": "669000",
						"executionCost": "infinite",
						"totalCost": "infinite"
					},
					"external": {
						"FEE_RATE()": "148",
						"distributeRewards(uint256,address[],address[])": "infinite",
						"emergencyWithdraw(uint256)": "infinite",
						"factory()": "2541",
						"feeReceiver()": "infinite",
						"gamePools(uint256)": "2365",
						"gameRooms(uint256)": "2361",
						"gameStakes(uint256,address)": "2582",
						"getPlayerStake(uint256,address)": "2714",
						"registerGameRoom(uint256,address)": "30573",
						"setFactory(address)": "infinite",
						"stake(uint256)": "infinite",
						"stakeFor(uint256,address)": "infinite"
					}
				},
				"methodIdentifiers": {
					"FEE_RATE()": "2d11c58a",
					"distributeRewards(uint256,address[],address[])": "72a22282",
					"emergencyWithdraw(uint256)": "5312ea8e",
					"factory()": "c45a0155",
					"feeReceiver()": "b3f00674",
					"gamePools(uint256)": "4d0ed9da",
					"gameRooms(uint256)": "426c4641",
					"gameStakes(uint256,address)": "55f2ad7f",
					"getPlayerStake(uint256,address)": "b44f4a55",
					"registerGameRoom(uint256,address)": "9e039592",
					"setFactory(address)": "5bb47808",
					"stake(uint256)": "a694fc3a",
					"stakeFor(uint256,address)": "51746bb2"
				}
			},
			"storageLayout": {
				"storage": [
					{
						"astId": 8,
						"contract": "contracts/StakingVault.sol:StakingVault",
						"label": "gameStakes",
						"offset": 0,
						"slot": "0",
						"type": "t_mapping(t_uint256,t_mapping(t_address,t_uint256))"
					},
					{
						"astId": 12,
						"contract": "contracts/StakingVault.sol:StakingVault",
						"label": "gamePools",
						"offset": 0,
						"slot": "1",
						"type": "t_mapping(t_uint256,t_uint256)"
					},
					{
						"astId": 16,
						"contract": "contracts/StakingVault.sol:StakingVault",
						"label": "gameRooms",
						"offset": 0,
						"slot": "2",
						"type": "t_mapping(t_uint256,t_address)"
					},
					{
						"astId": 23,
						"contract": "contracts/StakingVault.sol:StakingVault",
						"label": "factory",
						"offset": 0,
						"slot": "3",
						"type": "t_address"
					}
				],
				"types": {
					"t_address": {
						"encoding": "inplace",
						"label": "address",
						"numberOfBytes": "20"
					},
					"t_mapping(t_address,t_uint256)": {
						"encoding": "mapping",
						"key": "t_address",
						"label": "mapping(address => uint256)",
						"numberOfBytes": "32",
						"value": "t_uint256"
					},
					"t_mapping(t_uint256,t_address)": {
						"encoding": "mapping",
						"key": "t_uint256",
						"label": "mapping(uint256 => address)",
						"numberOfBytes": "32",
						"value": "t_address"
					},
					"t_mapping(t_uint256,t_mapping(t_address,t_uint256))": {
						"encoding": "mapping",
						"key": "t_uint256",
						"label": "mapping(uint256 => mapping(address => uint256))",
						"numberOfBytes": "32",
						"value": "t_mapping(t_address,t_uint256)"
					},
					"t_mapping(t_uint256,t_uint256)": {
						"encoding": "mapping",
						"key": "t_uint256",
						"label": "mapping(uint256 => uint256)",
						"numberOfBytes": "32",
						"value": "t_uint256"
					},
					"t_uint256": {
						"encoding": "inplace",
						"label": "uint256",
						"numberOfBytes": "32"
					}
				}
			},
			"userdoc": {
				"kind": "user",
				"methods": {},
				"version": 1
			}
		}
	}
}