{
  "_format": "hh-sol-artifact-1",
  "contractName": "GameRoom",
  "sourceName": "contracts/GameRoom.sol",
  "abi": [
    {
      "inputs": [
        {
          "internalType": "uint256",
          "name": "_gameId",
          "type": "uint256"
        },
        {
          "internalType": "address payable",
          "name": "_stakingVault",
          "type": "address"
        },
        {
          "internalType": "address",
          "name": "_roomOwner",
          "type": "address"
        },
        {
          "components": [
            {
              "internalType": "uint256",
              "name": "minPlayers",
              "type": "uint256"
            },
            {
              "internalType": "uint256",
              "name": "maxPlayers",
              "type": "uint256"
            },
            {
              "internalType": "uint256",
              "name": "minStake",
              "type": "uint256"
            },
            {
              "internalType": "uint256",
              "name": "maxStake",
              "type": "uint256"
            },
            {
              "internalType": "uint256",
              "name": "jokerCount",
              "type": "uint256"
            },
            {
              "internalType": "uint256[10]",
              "name": "cardCounts",
              "type": "uint256[10]"
            }
          ],
          "internalType": "struct GameRoom.GameConfig",
          "name": "_config",
          "type": "tuple"
        },
        {
          "internalType": "address",
          "name": "_ecvrfRelay",
          "type": "address"
        }
      ],
      "stateMutability": "nonpayable",
      "type": "constructor"
    },
    {
      "anonymous": false,
      "inputs": [
        {
          "indexed": true,
          "internalType": "address",
          "name": "from",
          "type": "address"
        },
        {
          "indexed": true,
          "internalType": "address",
          "name": "to",
          "type": "address"
        },
        {
          "indexed": false,
          "internalType": "uint8",
          "name": "cardNumber",
          "type": "uint8"
        }
      ],
      "name": "CardTaken",
      "type": "event"
    },
    {
      "anonymous": false,
      "inputs": [
        {
          "indexed": true,
          "internalType": "uint256",
          "name": "gameId",
          "type": "uint256"
        },
        {
          "indexed": true,
          "internalType": "address",
          "name": "room",
          "type": "address"
        },
        {
          "indexed": false,
          "internalType": "bytes32",
          "name": "alphaCommitment",
          "type": "bytes32"
        }
      ],
      "name": "ECVRFRandomRequested",
      "type": "event"
    },
    {
      "anonymous": false,
      "inputs": [
        {
          "indexed": true,
          "internalType": "uint256",
          "name": "gameId",
          "type": "uint256"
        },
        {
          "indexed": false,
          "internalType": "address[]",
          "name": "losers",
          "type": "address[]"
        },
        {
          "indexed": false,
          "internalType": "address[]",
          "name": "winners",
          "type": "address[]"
        }
      ],
      "name": "GameEnded",
      "type": "event"
    },
    {
      "anonymous": false,
      "inputs": [
        {
          "indexed": true,
          "internalType": "uint256",
          "name": "gameId",
          "type": "uint256"
        }
      ],
      "name": "GameStarted",
      "type": "event"
    },
    {
      "anonymous": false,
      "inputs": [
        {
          "indexed": true,
          "internalType": "uint256",
          "name": "gameId",
          "type": "uint256"
        },
        {
          "indexed": true,
          "internalType": "address",
          "name": "player",
          "type": "address"
        },
        {
          "indexed": false,
          "internalType": "uint256",
          "name": "stakeAmount",
          "type": "uint256"
        }
      ],
      "name": "PlayerJoined",
      "type": "event"
    },
    {
      "anonymous": false,
      "inputs": [
        {
          "indexed": true,
          "internalType": "address",
          "name": "player",
          "type": "address"
        }
      ],
      "name": "PlayerOut",
      "type": "event"
    },
    {
      "inputs": [
        {
          "internalType": "uint256",
          "name": "randomWord",
          "type": "uint256"
        }
      ],
      "name": "applyECVRFSeed",
      "outputs": [],
      "stateMutability": "nonpayable",
      "type": "function"
    },
    {
      "inputs": [],
      "name": "config",
      "outputs": [
        {
          "internalType": "uint256",
          "name": "minPlayers",
          "type": "uint256"
        },
        {
          "internalType": "uint256",
          "name": "maxPlayers",
          "type": "uint256"
        },
        {
          "internalType": "uint256",
          "name": "minStake",
          "type": "uint256"
        },
        {
          "internalType": "uint256",
          "name": "maxStake",
          "type": "uint256"
        },
        {
          "internalType": "uint256",
          "name": "jokerCount",
          "type": "uint256"
        }
      ],
      "stateMutability": "view",
      "type": "function"
    },
    {
      "inputs": [],
      "name": "currentPlayerIndex",
      "outputs": [
        {
          "internalType": "uint256",
          "name": "",
          "type": "uint256"
        }
      ],
      "stateMutability": "view",
      "type": "function"
    },
    {
      "inputs": [],
      "name": "ecvrfRelay",
      "outputs": [
        {
          "internalType": "address",
          "name": "",
          "type": "address"
        }
      ],
      "stateMutability": "view",
      "type": "function"
    },
    {
      "inputs": [],
      "name": "gameId",
      "outputs": [
        {
          "internalType": "uint256",
          "name": "",
          "type": "uint256"
        }
      ],
      "stateMutability": "view",
      "type": "function"
    },
    {
      "inputs": [],
      "name": "gameState",
      "outputs": [
        {
          "internalType": "enum GameRoom.GameState",
          "name": "",
          "type": "uint8"
        }
      ],
      "stateMutability": "view",
      "type": "function"
    },
    {
      "inputs": [],
      "name": "getCurrentTurnPlayer",
      "outputs": [
        {
          "internalType": "address",
          "name": "",
          "type": "address"
        }
      ],
      "stateMutability": "view",
      "type": "function"
    },
    {
      "inputs": [
        {
          "internalType": "address",
          "name": "p",
          "type": "address"
        }
      ],
      "name": "getPlayerCards",
      "outputs": [
        {
          "internalType": "uint256[10]",
          "name": "",
          "type": "uint256[10]"
        },
        {
          "internalType": "uint256",
          "name": "",
          "type": "uint256"
        }
      ],
      "stateMutability": "view",
      "type": "function"
    },
    {
      "inputs": [],
      "name": "getPlayerCount",
      "outputs": [
        {
          "internalType": "uint256",
          "name": "",
          "type": "uint256"
        }
      ],
      "stateMutability": "view",
      "type": "function"
    },
    {
      "inputs": [],
      "name": "getPlayers",
      "outputs": [
        {
          "internalType": "address[]",
          "name": "",
          "type": "address[]"
        }
      ],
      "stateMutability": "view",
      "type": "function"
    },
    {
      "inputs": [],
      "name": "getTakeTarget",
      "outputs": [
        {
          "internalType": "address",
          "name": "",
          "type": "address"
        }
      ],
      "stateMutability": "view",
      "type": "function"
    },
    {
      "inputs": [
        {
          "internalType": "address",
          "name": "",
          "type": "address"
        }
      ],
      "name": "handDisplaySeed",
      "outputs": [
        {
          "internalType": "uint256",
          "name": "",
          "type": "uint256"
        }
      ],
      "stateMutability": "view",
      "type": "function"
    },
    {
      "inputs": [],
      "name": "joinGame",
      "outputs": [],
      "stateMutability": "payable",
      "type": "function"
    },
    {
      "inputs": [
        {
          "internalType": "address",
          "name": "",
          "type": "address"
        }
      ],
      "name": "playerData",
      "outputs": [
        {
          "internalType": "address",
          "name": "addr",
          "type": "address"
        },
        {
          "internalType": "uint256",
          "name": "stakeAmount",
          "type": "uint256"
        },
        {
          "internalType": "bool",
          "name": "isActive",
          "type": "bool"
        },
        {
          "internalType": "bool",
          "name": "isOut",
          "type": "bool"
        },
        {
          "internalType": "uint256",
          "name": "jokerCount",
          "type": "uint256"
        }
      ],
      "stateMutability": "view",
      "type": "function"
    },
    {
      "inputs": [
        {
          "internalType": "uint256",
          "name": "",
          "type": "uint256"
        }
      ],
      "name": "players",
      "outputs": [
        {
          "internalType": "address",
          "name": "",
          "type": "address"
        }
      ],
      "stateMutability": "view",
      "type": "function"
    },
    {
      "inputs": [],
      "name": "roomOwner",
      "outputs": [
        {
          "internalType": "address",
          "name": "",
          "type": "address"
        }
      ],
      "stateMutability": "view",
      "type": "function"
    },
    {
      "inputs": [],
      "name": "stakingVault",
      "outputs": [
        {
          "internalType": "contract StakingVault",
          "name": "",
          "type": "address"
        }
      ],
      "stateMutability": "view",
      "type": "function"
    },
    {
      "inputs": [],
      "name": "startGame",
      "outputs": [],
      "stateMutability": "nonpayable",
      "type": "function"
    },
    {
      "inputs": [
        {
          "internalType": "address",
          "name": "target",
          "type": "address"
        },
        {
          "internalType": "uint8",
          "name": "cardNumber",
          "type": "uint8"
        }
      ],
      "name": "takeCard",
      "outputs": [],
      "stateMutability": "nonpayable",
      "type": "function"
    }
  ],
  "bytecode": "0x6101006040523461028f576040516121743881900390601f8201601f19168301906001600160401b03821184831017610294578291604052833981019080820390610260821261028f57805160208201519093906001600160a01b0381169081900361028f576101e0610074604085016102aa565b94605f19011261028f5760405160c081016001600160401b03811182821017610294576040526060840151815260808401516020820190815260a0850151916040810192835260c0860151936060820194855260e087015195608083019687528061011f8901121561028f576040519761014089016001600160401b0381118a821017610294576040528890610240810192831161028f5761010001905b82821061027f57505061012b9060a084019889526102aa565b988115610251576001600160a01b038916156102235760805260a05251600055516001555160025551600355516004555160005b600a811061020e57505060ff19600f5416600f5560c05260e052604051611eb590816102bf823960805181818161029201528181610aa501528181610c68015281816112d2015281816114a40152818161185a015281816119bb01528181611b2f0152611bc0015260a0518181816101c201528181610ac60152818161187c015261197c015260c0518181816105200152610bc8015260e051818181610213015281816103cc0152611aea0152f35b6001906020835193019281600501550161015f565b60405162461bcd60e51b815260206004820152600660248201526510b7bbb732b960d11b6044820152606490fd5b60405162461bcd60e51b8152602060048201526006602482015265085d985d5b1d60d21b6044820152606490fd5b8151815260209182019101610112565b600080fd5b634e487b7160e01b600052604160045260246000fd5b51906001600160a01b038216820361028f5756fe6080604052600436101561001257600080fd5b60003560e01c80630496561d1461014757806324e7964a1461014257806331db047b1461013d5780633588fd8014610138578063424aeded14610133578063733d50381461012e57806379502c55146101295780638b5b9ccc14610124578063999dacb91461011f578063ad5c21d91461011a578063b0652a8814610115578063c2e5220614610110578063d1f9c24d1461010b578063d4f77b1c14610106578063d65ab5f214610101578063d7c81b55146100fc578063e6ec2982146100f7578063f71d96cb146100f25763fb9bdab4146100ed57600080fd5b610d1f565b610cdc565b610c8b565b610c50565b610bb5565b6109f1565b6109c7565b610989565b610616565b610583565b61050a565b61048c565b6103fb565b6103b6565b610333565b610306565b610203565b6101ac565b610167565b600435906001600160a01b038216820361016257565b600080fd5b34610162576020366003190112610162576001600160a01b0361018861014c565b1660005260136020526020604060002054604051908152f35b600091031261016257565b34610162576000366003190112610162576040517f00000000000000000000000000000000000000000000000000000000000000006001600160a01b03168152602090f35b60209060031901126101625760043590565b3461016257610211366101f1565b7f00000000000000000000000000000000000000000000000000000000000000006001600160a01b031633036102d857610290906102656001610256600f5460ff1690565b61025f816109a7565b14610d3d565b610270811515610d74565b610282600260ff19600f541617600f55565b61028b816112c3565b611492565b7f00000000000000000000000000000000000000000000000000000000000000007f50ad08f58a27f2851d7e3a1b3a6a46b290f2ce677e99642d30ff639721e77790600080a2005b60405162461bcd60e51b81526020600482015260066024820152652172656c617960d01b6044820152606490fd5b34610162576000366003190112610162576020610321610dfe565b6040516001600160a01b039091168152f35b34610162576020366003190112610162576001600160a01b0361035461014c565b166000526011602052604060002060018060a01b03815416600182015490600d600284015493015460ff60405194859460a086019460018060a01b0316865260208601528181161515604086015260081c161515606084015260808301520390f35b34610162576000366003190112610162576040517f00000000000000000000000000000000000000000000000000000000000000006001600160a01b03168152602090f35b346101625760003660031901126101625760a060005460015460025460035490600454926040519485526020850152604084015260608301526080820152f35b906020808351928381520192019060005b8181106104595750505090565b82516001600160a01b031684526020938401939092019160010161044c565b90602061048992818152019061043b565b90565b34610162576000366003190112610162576040518060206010549182815201906010600052600080516020611e608339815191529060005b8181106104eb576104e7856104db81870382610ea9565b60405191829182610478565b0390f35b82546001600160a01b03168452602090930192600192830192016104c4565b34610162576000366003190112610162576040517f00000000000000000000000000000000000000000000000000000000000000006001600160a01b03168152602090f35b61016081019392916000825b600a821061056d575050506101400152565b602080600192855181520193019101909161055b565b346101625760203660031901126101625761059c61014c565b61014090816040516105ae8282610ea9565b3690376001600160a01b0316600090815260116020526040808220600d810154915191939192600390910190835b600a8210610600575050506105f19082610ea9565b6104e76040519283928361054f565b60016020819285548152019301910190916105dc565b346101625760403660031901126101625761062f61014c565b6024359060ff8216918281036101625761065f6002610650600f5460ff1690565b610659816109a7565b14610ed0565b610695610685610670601254610cbc565b905460039190911b1c6001600160a01b031690565b6001600160a01b03163314610f07565b6001600160a01b038216926106ab841515610f3b565b6106bc6106b733611561565b610f71565b806108535750506001600160a01b03811660009081526011602052604090206106ea90600d01541515611065565b6001600160a01b0381166000908152601160205260409020600d0161070f8154611049565b9055336000908152601160205260409020600d0161072d8154611056565b9055604051827f345ab5394e10f7b605071092c87ea512b2b9f3a616f8c85b996c2aa8a418c69c33928061076681906000602083019252565b0390a35b61077a61077682611561565b1590565b610804575b505061078d61077633611561565b6107b2575b61079a61164b565b6107a26116c3565b6107a857005b6107b0611809565b005b3360009081526011602052604090206107d9906002905b01805461ff001916610100179055565b337fe6dd6074e48f46e9dd6d19c1a3fc9866c5663e7b916849845c35059410b37b28600080a2610792565b6001600160a01b03166000908152601160205260409020610827906002906107c9565b7fe6dd6074e48f46e9dd6d19c1a3fc9866c5663e7b916849845c35059410b37b28600080a2388061077f565b806001610869921015908161097d575b50610fa6565b61094361087582610fde565b6108b46108ad6108a383600361089d8960018060a01b03166000526011602052604060002090565b01611003565b90549060031b1c90565b1515611013565b6109066108d982600361089d8860018060a01b03166000526011602052604060002090565b6108ef6108ea8284549060031b1c90565b611049565b825460001960039390931b92831b1916911b179055565b33600090815260116020526040902061093d9061092790839060039061089d565b6108ef6109388284549060031b1c90565b611056565b336115d6565b60405160ff919091168152339083907f345ab5394e10f7b605071092c87ea512b2b9f3a616f8c85b996c2aa8a418c69c90602090a361076a565b600a9150111538610863565b34610162576000366003190112610162576020601054604051908152f35b600411156109b157565b634e487b7160e01b600052602160045260246000fd5b346101625760003660031901126101625760ff600f541660405160048210156109b1576020918152f35b600036600319011261016257610a1b610a0c600f5460ff1690565b610a15816109a7565b1561109c565b33600090815260116020526040902060020154610a3b9060ff16156110d3565b610a4a60105460015411611108565b60035480610b8e5750610a60600254341461116e565b336000908152601160205260409020610a9a9060029080546001600160a01b0319163317815534600182015501600160ff19825416179055565b610aa3336111a8565b7f00000000000000000000000000000000000000000000000000000000000000007f00000000000000000000000000000000000000000000000000000000000000006001600160a01b0316803b15610162576040516328ba35d960e11b815260048101839052336024820152906000908290604490829034905af18015610b8957610b6e575b506040513481523391907f03dfbe1fcb4e2d61f3b4a0c93d8f814c92250618b3387f396cc9fc9fafe2c20390602090a360105460015414610b6657005b6107b0611ad8565b80610b7d6000610b8393610ea9565b806101a1565b38610b29565b611202565b610ba5906002543410159081610baa575b5061113a565b610a60565b905034111538610b9f565b34610162576000366003190112610162577f00000000000000000000000000000000000000000000000000000000000000006001600160a01b03163303610c2257610c05610a0c600f5460ff1690565b610b66601054610c1960005482101561120e565b60015411611240565b60405162461bcd60e51b815260206004820152600660248201526510b7bbb732b960d11b6044820152606490fd5b346101625760003660031901126101625760206040517f00000000000000000000000000000000000000000000000000000000000000008152f35b34610162576000366003190112610162576020610321611279565b634e487b7160e01b600052603260045260246000fd5b601054811015610cd757601060005260206000200190600090565b610ca6565b3461016257610cea366101f1565b601054811015610162576010600052600080516020611e6083398151915201546040516001600160a01b039091168152602090f35b34610162576000366003190112610162576020601254604051908152f35b15610d4457565b60405162461bcd60e51b8152602060048201526008602482015267216465616c696e6760c01b6044820152606490fd5b15610d7b57565b60405162461bcd60e51b8152602060048201526005602482015264217a65726f60d81b6044820152606490fd5b634e487b7160e01b600052601160045260246000fd5b9060018201809211610dcc57565b610da8565b91908201809211610dcc57565b8115610de8570690565b634e487b7160e01b600052601260045260246000fd5b60105460028110610e8d5760125460018101809111610dcc5781610e2191610dde565b6000905b828210610e3457505050600090565b82811015610cd7576010600052600080516020611e608339815191528101546001600160a01b0316610e6581611561565b610e865750610e7e83610e79600193610dbe565b610dde565b910190610e25565b9250505090565b50600090565b634e487b7160e01b600052604160045260246000fd5b90601f8019910116810190811067ffffffffffffffff821117610ecb57604052565b610e93565b15610ed757565b60405162461bcd60e51b815260206004820152600860248201526721706c6179696e6760c01b6044820152606490fd5b15610f0e57565b60405162461bcd60e51b815260206004820152600560248201526410ba3ab93760d91b6044820152606490fd5b15610f4257565b60405162461bcd60e51b8152602060048201526007602482015266085d185c99d95d60ca1b6044820152606490fd5b15610f7857565b60405162461bcd60e51b815260206004820152600660248201526521656d70747960d01b6044820152606490fd5b15610fad57565b60405162461bcd60e51b815260206004820152600960248201526806361726420312d31360bc1b6044820152606490fd5b60ff6000199116019060ff8211610dcc57565b600a811015610cd75760050190600090565b600a821015610cd7570190600090565b1561101a57565b60405162461bcd60e51b81526020600482015260076024820152661b9bc818d85c9960ca1b6044820152606490fd5b8015610dcc576000190190565b6000198114610dcc5760010190565b1561106c57565b60405162461bcd60e51b81526020600482015260086024820152673737903537b5b2b960c11b6044820152606490fd5b156110a357565b60405162461bcd60e51b81526020600482015260086024820152672170656e64696e6760c01b6044820152606490fd5b156110da57565b60405162461bcd60e51b81526020600482015260066024820152651a9bda5b995960d21b6044820152606490fd5b1561110f57565b606460405162461bcd60e51b8152602060048201526004602482015263199d5b1b60e21b6044820152fd5b1561114157565b60405162461bcd60e51b815260206004820152600560248201526472616e676560d81b6044820152606490fd5b1561117557565b60405162461bcd60e51b815260206004820152600b60248201526a6669786564207374616b6560a81b6044820152606490fd5b60105468010000000000000000811015610ecb57600181016010556000601054821015610cd75760109052600080516020611e608339815191520180546001600160a01b0319166001600160a01b03909216919091179055565b6040513d6000823e3d90fd5b1561121557565b606460405162461bcd60e51b815260206004820152600460248201526310b6b4b760e11b6044820152fd5b1561124757565b60405162461bcd60e51b815260206004820152600a6024820152692166756c6c206175746f60b01b6044820152606490fd5b6010548015610e8d5760125490811015610cd7576010600052600080516020611e6083398151915201546001600160a01b031690565b8051821015610cd75760209160051b010190565b6010546112ce611c3c565b80517f00000000000000000000000000000000000000000000000000000000000000009160005b82811061141b575060005b8281106113c0575050506004549260005b84811061131f575050505050565b604080516020810184815291810185905230606090811b6001600160601b0319169082015260748101839052600160f81b609482015260019291600d916113ad91611393916106709161138e918b919061138681609581015b03601f198101835282610ea9565b519020610dde565b610cbc565b6001600160a01b0316600090815260116020526040902090565b016113b88154610dbe565b905501611311565b806114156113d661067061138e89600196610dde565b6113ea6113e384876112af565b5160ff1690565b9061141061092783600361089d8560018060a01b03166000526011602052604060002090565b6115d6565b01611300565b604080516020810188815291810186905230606090811b6001600160601b03191690820152607481018390526001929161145f918691906113868160948101611378565b61146981856112af565b519061148061147884876112af565b5191866112af565b5261148b82856112af565b52016112f5565b3060601b6001600160601b03191691907f00000000000000000000000000000000000000000000000000000000000000009060005b60105481101561155a576010600052600080516020611e608339815191528101546040805160208101858152918101869052606080820189905283901b6001600160601b031916607482015260688152600193926001600160a01b03169161155391611534608882610ea9565b5190206001600160a01b03909216600090815260136020526040902090565b55016114c7565b5050509050565b9060018060a01b0382166000526011602052600d604060002001546115d05760005b600a60ff821610611595575060009150565b6115ba6108a382600361089d8760018060a01b03166000526011602052604060002090565b6115c95760010160ff16611583565b5060019150565b60019150565b60018060a01b0316908160005260116020526115f9816003604060002001611003565b90549060031b1c90600282101561160f57505050565b61162e6001916116499460005260116020526003604060002001611003565b919092169082549060031b91821b91600019901b1916179055565b565b60105480156116c05760005b818110611662575050565b60125460018101809111610dcc578261167a91610dde565b80601255601054811015610cd7576010600052600080516020611e6083398151915201546116b0906001600160a01b0316611561565b6116bc57600101611657565b5050565b50565b60105460005b8181106116d7575050600190565b6116e361067082610cbc565b60005b600a60ff8216106116fb5750506001016116c9565b6117206108a382600361089d8660018060a01b03166000526011602052604060002090565b61172f5760010160ff166116e6565b50505050600090565b67ffffffffffffffff8111610ecb5760051b60200190565b9061175a82611738565b6117676040519182610ea9565b8281528092611778601f1991611738565b0190602036910137565b1561178957565b60405162461bcd60e51b81526020600482015260086024820152672177696e6e65727360c01b6044820152606490fd5b916117d6906104899492845260606020850152606084019061043b565b91604081840391015261043b565b90916117fb6104899360408452604084019061043b565b91602081840391015261043b565b61181b600360ff19600f541617600f55565b60105461182781611750565b9061183181611750565b906000809160005b818110611a2a5750508352808252611852901515611782565b4761192c575b7f0000000000000000000000000000000000000000000000000000000000000000917f00000000000000000000000000000000000000000000000000000000000000006001600160a01b03169190823b156101625760006040518094633951114160e11b82528183816118d087898c600485016117b9565b03925af1928315610b89577fec9076d3d1e4910861e8852ef3e8820904b6868d2e5c85563e5c82f45c776d1f93611917575b50611912604051928392836117e4565b0390a2565b80610b7d600061192693610ea9565b38611902565b919060005b601054811015611a225761194761067082610cbc565b9060016119668360018060a01b03166000526011602052604060002090565b0154918261197a575b506001915001611931565b7f00000000000000000000000000000000000000000000000000000000000000006001600160a01b031690813b15610162576040516328ba35d960e11b81527f000000000000000000000000000000000000000000000000000000000000000060048201526001600160a01b039190911660248201529260009184916044918391905af1918215610b89576001921561196f5780610b7d6000611a1c93610ea9565b3861196f565b509091611858565b80611a39610670600193610cbc565b6001600160a01b0381166000908152601160205260409020600d015415611a8657611a8090611a71611a6a87611056565b968a6112af565b6001600160a01b039091169052565b01611839565b611a9d90611a71611a9688611056565b97896112af565b611a80565b15611aa957565b60405162461bcd60e51b8152602060048201526007602482015266042cadcdeeaced60cb1b6044820152606490fd5b611ae86010546000541115611aa2565b7f00000000000000000000000000000000000000000000000000000000000000006001600160a01b031615611ba057611b29600160ff19600f541617600f55565b604080517f00000000000000000000000000000000000000000000000000000000000000006020820181815230938301939093529190611b6c8160608101611378565b5190206040519081523091907f95c8b02c7934a4bb418d4b844ca008175046665e9ddfb7903dda0ce4dd450cf090602090a3565b611bb2600260ff19600f541617600f55565b6040805142602082019081527f000000000000000000000000000000000000000000000000000000000000000092820183905230606090811b6001600160601b03191690830152611c1591611c0a8160748101611378565b51902061028b611ccf565b7f50ad08f58a27f2851d7e3a1b3a6a46b290f2ce677e99642d30ff639721e77790600080a2565b6000805b600a8210611caf57611c529150611750565b60009160005b60ff8116600a811015611ca857611c716108a383610ff1565b9060005b828110611c8a5750505060010160ff16611c58565b60019082611ca1611c9a8a611056565b99896112af565b5201611c75565b5050915090565b611cc7600191611cc16108a385610ff1565b90610dd1565b910190611c40565b60105490611cdb611d6e565b9160005b8351811015611d115780611d0b611cfe61067061138e86600196610dde565b6113ea6113e384896112af565b01611cdf565b5060045491925060005b828110611d2757505050565b600190600d611d5b61139361067061138e876040516020810190611386816113788b42869091604092825260208201520190565b01611d668154610dbe565b905501611d1b565b6000805b600a8210611e4557611d849150611750565b60009160005b60ff8116600a811015611dd357611da36108a383610ff1565b9060005b828110611dbc5750505060010160ff16611d8a565b60019082611dcc611c9a8a611056565b5201611da7565b5050915060005b8151811015611e4157600190611e166040516020810190611e0b816113788642869091604092825260208201520190565b519020845190610dde565b611e2081856112af565b5190611e2f61147884876112af565b52611e3a82856112af565b5201611dda565b5090565b611e57600191611cc16108a385610ff1565b910190611d7256fe1b6847dc741a1b0cd08d278845f9d819d87b734759afb55fe2de5cb82a9ae672a2646970667358221220a789b8da0df3e62b02e1fbd5adb7ca5ad7a638a8f8180691f10ad2857a5cc69364736f6c634300081a0033",
  "linkReferences": {},
  "deployedLinkReferences": {}
}