{
  "_format": "hh-sol-artifact-1",
  "contractName": "GameRoom",
  "sourceName": "contracts/GameRoom.sol",
  "abi": [
    {
      "inputs": [
        {
          "internalType": "uint256",
          "name": "_gameId",
          "type": "uint256"
        },
        {
          "internalType": "address payable",
          "name": "_stakingVault",
          "type": "address"
        },
        {
          "internalType": "address",
          "name": "_roomOwner",
          "type": "address"
        },
        {
          "components": [
            {
              "internalType": "uint256",
              "name": "minPlayers",
              "type": "uint256"
            },
            {
              "internalType": "uint256",
              "name": "maxPlayers",
              "type": "uint256"
            },
            {
              "internalType": "uint256",
              "name": "minStake",
              "type": "uint256"
            },
            {
              "internalType": "uint256",
              "name": "maxStake",
              "type": "uint256"
            },
            {
              "internalType": "uint256",
              "name": "jokerCount",
              "type": "uint256"
            },
            {
              "internalType": "uint256[10]",
              "name": "cardCounts",
              "type": "uint256[10]"
            }
          ],
          "internalType": "struct GameRoom.GameConfig",
          "name": "_config",
          "type": "tuple"
        },
        {
          "internalType": "address",
          "name": "_vrfCoordinator",
          "type": "address"
        },
        {
          "internalType": "uint64",
          "name": "_vrfSubId",
          "type": "uint64"
        },
        {
          "internalType": "bytes32",
          "name": "_vrfKeyHash",
          "type": "bytes32"
        },
        {
          "internalType": "uint32",
          "name": "_vrfCallbackGasLimit",
          "type": "uint32"
        },
        {
          "internalType": "uint16",
          "name": "_vrfRequestConfirmations",
          "type": "uint16"
        },
        {
          "internalType": "address",
          "name": "_ecvrfRelay",
          "type": "address"
        }
      ],
      "stateMutability": "nonpayable",
      "type": "constructor"
    },
    {
      "anonymous": false,
      "inputs": [
        {
          "indexed": true,
          "internalType": "address",
          "name": "from",
          "type": "address"
        },
        {
          "indexed": true,
          "internalType": "address",
          "name": "to",
          "type": "address"
        },
        {
          "indexed": false,
          "internalType": "uint8",
          "name": "cardNumber",
          "type": "uint8"
        }
      ],
      "name": "CardTaken",
      "type": "event"
    },
    {
      "anonymous": false,
      "inputs": [
        {
          "indexed": true,
          "internalType": "uint256",
          "name": "gameId",
          "type": "uint256"
        },
        {
          "indexed": true,
          "internalType": "address",
          "name": "room",
          "type": "address"
        },
        {
          "indexed": false,
          "internalType": "bytes32",
          "name": "alphaCommitment",
          "type": "bytes32"
        }
      ],
      "name": "ECVRFRandomRequested",
      "type": "event"
    },
    {
      "anonymous": false,
      "inputs": [
        {
          "indexed": true,
          "internalType": "uint256",
          "name": "gameId",
          "type": "uint256"
        },
        {
          "indexed": false,
          "internalType": "address[]",
          "name": "losers",
          "type": "address[]"
        },
        {
          "indexed": false,
          "internalType": "address[]",
          "name": "winners",
          "type": "address[]"
        }
      ],
      "name": "GameEnded",
      "type": "event"
    },
    {
      "anonymous": false,
      "inputs": [
        {
          "indexed": true,
          "internalType": "uint256",
          "name": "gameId",
          "type": "uint256"
        }
      ],
      "name": "GameStarted",
      "type": "event"
    },
    {
      "anonymous": false,
      "inputs": [
        {
          "indexed": true,
          "internalType": "uint256",
          "name": "gameId",
          "type": "uint256"
        },
        {
          "indexed": true,
          "internalType": "address",
          "name": "player",
          "type": "address"
        },
        {
          "indexed": false,
          "internalType": "uint256",
          "name": "stakeAmount",
          "type": "uint256"
        }
      ],
      "name": "PlayerJoined",
      "type": "event"
    },
    {
      "anonymous": false,
      "inputs": [
        {
          "indexed": true,
          "internalType": "address",
          "name": "player",
          "type": "address"
        }
      ],
      "name": "PlayerOut",
      "type": "event"
    },
    {
      "anonymous": false,
      "inputs": [
        {
          "indexed": true,
          "internalType": "uint256",
          "name": "gameId",
          "type": "uint256"
        },
        {
          "indexed": false,
          "internalType": "uint256",
          "name": "requestId",
          "type": "uint256"
        }
      ],
      "name": "VrfRandomRequested",
      "type": "event"
    },
    {
      "inputs": [
        {
          "internalType": "uint256",
          "name": "randomWord",
          "type": "uint256"
        }
      ],
      "name": "applyECVRFSeed",
      "outputs": [],
      "stateMutability": "nonpayable",
      "type": "function"
    },
    {
      "inputs": [],
      "name": "config",
      "outputs": [
        {
          "internalType": "uint256",
          "name": "minPlayers",
          "type": "uint256"
        },
        {
          "internalType": "uint256",
          "name": "maxPlayers",
          "type": "uint256"
        },
        {
          "internalType": "uint256",
          "name": "minStake",
          "type": "uint256"
        },
        {
          "internalType": "uint256",
          "name": "maxStake",
          "type": "uint256"
        },
        {
          "internalType": "uint256",
          "name": "jokerCount",
          "type": "uint256"
        }
      ],
      "stateMutability": "view",
      "type": "function"
    },
    {
      "inputs": [],
      "name": "currentPlayerIndex",
      "outputs": [
        {
          "internalType": "uint256",
          "name": "",
          "type": "uint256"
        }
      ],
      "stateMutability": "view",
      "type": "function"
    },
    {
      "inputs": [],
      "name": "ecvrfRelay",
      "outputs": [
        {
          "internalType": "address",
          "name": "",
          "type": "address"
        }
      ],
      "stateMutability": "view",
      "type": "function"
    },
    {
      "inputs": [],
      "name": "gameId",
      "outputs": [
        {
          "internalType": "uint256",
          "name": "",
          "type": "uint256"
        }
      ],
      "stateMutability": "view",
      "type": "function"
    },
    {
      "inputs": [],
      "name": "gameState",
      "outputs": [
        {
          "internalType": "enum GameRoom.GameState",
          "name": "",
          "type": "uint8"
        }
      ],
      "stateMutability": "view",
      "type": "function"
    },
    {
      "inputs": [],
      "name": "getCurrentTurnPlayer",
      "outputs": [
        {
          "internalType": "address",
          "name": "",
          "type": "address"
        }
      ],
      "stateMutability": "view",
      "type": "function"
    },
    {
      "inputs": [
        {
          "internalType": "address",
          "name": "p",
          "type": "address"
        }
      ],
      "name": "getPlayerCards",
      "outputs": [
        {
          "internalType": "uint256[10]",
          "name": "",
          "type": "uint256[10]"
        },
        {
          "internalType": "uint256",
          "name": "",
          "type": "uint256"
        }
      ],
      "stateMutability": "view",
      "type": "function"
    },
    {
      "inputs": [],
      "name": "getPlayerCount",
      "outputs": [
        {
          "internalType": "uint256",
          "name": "",
          "type": "uint256"
        }
      ],
      "stateMutability": "view",
      "type": "function"
    },
    {
      "inputs": [],
      "name": "getPlayers",
      "outputs": [
        {
          "internalType": "address[]",
          "name": "",
          "type": "address[]"
        }
      ],
      "stateMutability": "view",
      "type": "function"
    },
    {
      "inputs": [],
      "name": "getTakeTarget",
      "outputs": [
        {
          "internalType": "address",
          "name": "",
          "type": "address"
        }
      ],
      "stateMutability": "view",
      "type": "function"
    },
    {
      "inputs": [
        {
          "internalType": "address",
          "name": "",
          "type": "address"
        }
      ],
      "name": "handDisplaySeed",
      "outputs": [
        {
          "internalType": "uint256",
          "name": "",
          "type": "uint256"
        }
      ],
      "stateMutability": "view",
      "type": "function"
    },
    {
      "inputs": [],
      "name": "joinGame",
      "outputs": [],
      "stateMutability": "payable",
      "type": "function"
    },
    {
      "inputs": [
        {
          "internalType": "address",
          "name": "",
          "type": "address"
        }
      ],
      "name": "playerData",
      "outputs": [
        {
          "internalType": "address",
          "name": "addr",
          "type": "address"
        },
        {
          "internalType": "uint256",
          "name": "stakeAmount",
          "type": "uint256"
        },
        {
          "internalType": "bool",
          "name": "isActive",
          "type": "bool"
        },
        {
          "internalType": "bool",
          "name": "isOut",
          "type": "bool"
        },
        {
          "internalType": "uint256",
          "name": "jokerCount",
          "type": "uint256"
        }
      ],
      "stateMutability": "view",
      "type": "function"
    },
    {
      "inputs": [
        {
          "internalType": "uint256",
          "name": "",
          "type": "uint256"
        }
      ],
      "name": "players",
      "outputs": [
        {
          "internalType": "address",
          "name": "",
          "type": "address"
        }
      ],
      "stateMutability": "view",
      "type": "function"
    },
    {
      "inputs": [
        {
          "internalType": "uint256",
          "name": "requestId",
          "type": "uint256"
        },
        {
          "internalType": "uint256[]",
          "name": "randomWords",
          "type": "uint256[]"
        }
      ],
      "name": "rawFulfillRandomWords",
      "outputs": [],
      "stateMutability": "nonpayable",
      "type": "function"
    },
    {
      "inputs": [],
      "name": "roomOwner",
      "outputs": [
        {
          "internalType": "address",
          "name": "",
          "type": "address"
        }
      ],
      "stateMutability": "view",
      "type": "function"
    },
    {
      "inputs": [],
      "name": "stakingVault",
      "outputs": [
        {
          "internalType": "contract StakingVault",
          "name": "",
          "type": "address"
        }
      ],
      "stateMutability": "view",
      "type": "function"
    },
    {
      "inputs": [],
      "name": "startGame",
      "outputs": [],
      "stateMutability": "nonpayable",
      "type": "function"
    },
    {
      "inputs": [
        {
          "internalType": "address",
          "name": "target",
          "type": "address"
        },
        {
          "internalType": "uint8",
          "name": "cardNumber",
          "type": "uint8"
        }
      ],
      "name": "takeCard",
      "outputs": [],
      "stateMutability": "nonpayable",
      "type": "function"
    }
  ],
  "bytecode": "0x6101a060405234610385576040516124643881900390601f8201601f19168301906001600160401b0382118483101761039a5782916040528339810181810390610300821261038557825160208401516001600160a01b03811690819003610385576101e0610070604087016103b0565b94605f1901126103855760405160c081016001600160401b0381118282101761039a576040526060860151815260808601516020820190815260a0870151916040810192835260c0880151936060820194855260e089015195608083019687528761011f8b011215610385576040519761014089016001600160401b0381118a82101761039a57604052886102408c01918211610385576101008c01905b82821061038a5750506101279060a08501998a526103b0565b6102608b01519a6001600160401b038c168c03610385576102808101516102a08201519063ffffffff82168203610385576102c08301519261ffff84168403610385576102e061017791016103b0565b9d8460805260a05260c05260e052610100528215610357576001600160a01b038a1615610329576001600160a01b0316151580610317575b6102e057610120526101405251600055516001555160025551600355516004555160005b600a81106102cb57505060ff19600f5416600f55610160526101805260405161209f90816103c58239608051818181610d690152611b2e015260a05181611ba3015260c05181611b7d015260e05181611bfd01526101005181611bd301526101205181818161037901528181610ac801528181610c8b0152818161137c015281816113ff015281816115b70152818161188f015281816119f001528181611c5601528181611d190152611daa0152610140518181816102b501528181610ae9015281816118b101526119b10152610160518181816106070152610beb0152610180518181816102fa015281816104b30152611cd40152f35b600190602083519301928160050155016101d3565b60405162461bcd60e51b815260206004820152600f60248201526e2174776f2072616e646f6d6e65737360881b6044820152606490fd5b506001600160a01b038a1615156101af565b60405162461bcd60e51b815260206004820152600660248201526510b7bbb732b960d11b6044820152606490fd5b60405162461bcd60e51b8152602060048201526006602482015265085d985d5b1d60d21b6044820152606490fd5b600080fd5b815181526020918201910161010e565b634e487b7160e01b600052604160045260246000fd5b51906001600160a01b03821682036103855756fe6080604052600436101561001257600080fd5b60003560e01c80630496561d146101575780631fe543e31461015257806324e7964a1461014d57806331db047b146101485780633588fd8014610143578063424aeded1461013e578063733d50381461013957806379502c55146101345780638b5b9ccc1461012f578063999dacb91461012a578063ad5c21d914610125578063b0652a8814610120578063c2e522061461011b578063d1f9c24d14610116578063d4f77b1c14610111578063d65ab5f21461010c578063d7c81b5514610107578063e6ec298214610102578063f71d96cb146100fd5763fb9bdab4146100f857600080fd5b610d48565b610cff565b610cae565b610c73565b610bd8565b610a14565b6109ea565b6109ac565b6106fd565b61066a565b6105f1565b610573565b6104e2565b61049d565b61041a565b6103ed565b6102e4565b61029f565b610206565b610177565b600435906001600160a01b038216820361017257565b600080fd5b34610172576020366003190112610172576001600160a01b0361019861015c565b1660005260136020526020604060002054604051908152f35b634e487b7160e01b600052604160045260246000fd5b90601f8019910116810190811067ffffffffffffffff8211176101e957604052565b6101b1565b67ffffffffffffffff81116101e95760051b60200190565b346101725760403660031901126101725760043560243567ffffffffffffffff8111610172573660238201121561017257806004013591610246836101ee565b9161025460405193846101c7565b8383526024602084019460051b8201019036821161017257602401935b818510610284576102828484610d66565b005b8435815260209485019401610271565b600091031261017257565b34610172576000366003190112610172576040517f00000000000000000000000000000000000000000000000000000000000000006001600160a01b03168152602090f35b34610172576020366003190112610172576004357f00000000000000000000000000000000000000000000000000000000000000006001600160a01b031633036103bf576103779061034c600161033d600f5460ff1690565b610346816109ca565b14610e0f565b610357811515610e46565b610369600260ff19600f541617600f55565b610372816113f0565b6115a5565b7f00000000000000000000000000000000000000000000000000000000000000007f50ad08f58a27f2851d7e3a1b3a6a46b290f2ce677e99642d30ff639721e77790600080a2005b60405162461bcd60e51b81526020600482015260066024820152652172656c617960d01b6044820152606490fd5b34610172576000366003190112610172576020610408610ed0565b6040516001600160a01b039091168152f35b34610172576020366003190112610172576001600160a01b0361043b61015c565b166000526011602052604060002060018060a01b03815416600182015490600d600284015493015460ff60405194859460a086019460018060a01b0316865260208601528181161515604086015260081c161515606084015260808301520390f35b34610172576000366003190112610172576040517f00000000000000000000000000000000000000000000000000000000000000006001600160a01b03168152602090f35b346101725760003660031901126101725760a060005460015460025460035490600454926040519485526020850152604084015260608301526080820152f35b906020808351928381520192019060005b8181106105405750505090565b82516001600160a01b0316845260209384019390920191600101610533565b906020610570928181520190610522565b90565b3461017257600036600319011261017257604051806020601054918281520190601060005260008051602061204a8339815191529060005b8181106105d2576105ce856105c2818703826101c7565b6040519182918261055f565b0390f35b82546001600160a01b03168452602090930192600192830192016105ab565b34610172576000366003190112610172576040517f00000000000000000000000000000000000000000000000000000000000000006001600160a01b03168152602090f35b61016081019392916000825b600a8210610654575050506101400152565b6020806001928551815201930191019091610642565b346101725760203660031901126101725761068361015c565b610140908160405161069582826101c7565b3690376001600160a01b0316600090815260116020526040808220600d810154915191939192600390910190835b600a82106106e7575050506106d890826101c7565b6105ce60405192839283610636565b60016020819285548152019301910190916106c3565b346101725760403660031901126101725761071661015c565b6024359060ff821691828103610172576107466002610737600f5460ff1690565b610740816109ca565b14610f23565b61077c61076c610757601254610cdf565b905460039190911b1c6001600160a01b031690565b6001600160a01b03163314610f5a565b3360009081526011602052604090206107ad906107a8906107a4906002015460081c60ff1690565b1590565b610f8e565b6001600160a01b038216926107c3841515610fc0565b8061088d575050610813816107f9600d6107f0819560018060a01b03166000526011602052604060002090565b015415156110b5565b6001600160a01b0316600090815260116020526040902090565b0161081e8154611099565b9055336000908152601160205260409020600d0161083c81546110a6565b9055604051600081523391907f345ab5394e10f7b605071092c87ea512b2b9f3a616f8c85b996c2aa8a418c69c90602090a35b6108776116e7565b61087f611710565b61088557005b61028261183e565b61092b6108fe6109689395946108b28460016108e796101590816109a0575b50610ff6565b60036108bd8861102e565b94826107f96108f76108ed89866108e7829960018060a01b03166000526011602052604060002090565b01611053565b90549060031b1c90565b1515611063565b61091461090f8284549060031b1c90565b611099565b825460001960039390931b92831b1916911b179055565b3360009081526011602052604090206109629061094c9083906003906108e7565b61091461095d8284549060031b1c90565b6110a6565b33611674565b60405160ff92909216825233917f345ab5394e10f7b605071092c87ea512b2b9f3a616f8c85b996c2aa8a418c69c90602090a361086f565b600a91501115386108ac565b34610172576000366003190112610172576020601054604051908152f35b600411156109d457565b634e487b7160e01b600052602160045260246000fd5b346101725760003660031901126101725760ff600f541660405160048210156109d4576020918152f35b600036600319011261017257610a3e610a2f600f5460ff1690565b610a38816109ca565b156110ec565b33600090815260116020526040902060020154610a5e9060ff1615611123565b610a6d60105460015411611158565b60035480610bb15750610a8360025434146111be565b336000908152601160205260409020610abd9060029080546001600160a01b0319163317815534600182015501600160ff19825416179055565b610ac6336111f8565b7f00000000000000000000000000000000000000000000000000000000000000007f00000000000000000000000000000000000000000000000000000000000000006001600160a01b0316803b15610172576040516328ba35d960e11b815260048101839052336024820152906000908290604490829034905af18015610bac57610b91575b506040513481523391907f03dfbe1fcb4e2d61f3b4a0c93d8f814c92250618b3387f396cc9fc9fafe2c20390602090a360105460015414610b8957005b610282611b1c565b80610ba06000610ba6936101c7565b80610294565b38610b4c565b611252565b610bc8906002543410159081610bcd575b5061118a565b610a83565b905034111538610bc2565b34610172576000366003190112610172577f00000000000000000000000000000000000000000000000000000000000000006001600160a01b03163303610c4557610c28610a2f600f5460ff1690565b610b89601054610c3c60005482101561125e565b60015411611290565b60405162461bcd60e51b815260206004820152600660248201526510b7bbb732b960d11b6044820152606490fd5b346101725760003660031901126101725760206040517f00000000000000000000000000000000000000000000000000000000000000008152f35b346101725760003660031901126101725760206104086112c9565b634e487b7160e01b600052603260045260246000fd5b601054811015610cfa57601060005260206000200190600090565b610cc9565b346101725760203660031901126101725760043560105481101561017257601060005260008051602061204a83398151915201546040516001600160a01b039091168152602090f35b34610172576000366003190112610172576020601254604051908152f35b507f00000000000000000000000000000000000000000000000000000000000000006001600160a01b03168015610de0573303610da857610da690611320565b565b60405162461bcd60e51b815260206004820152601060248201526f37b7363c9031b7b7b93234b730ba37b960811b6044820152606490fd5b60405162461bcd60e51b81526020600482015260076024820152663b39331037b33360c91b6044820152606490fd5b15610e1657565b60405162461bcd60e51b8152602060048201526008602482015267216465616c696e6760c01b6044820152606490fd5b15610e4d57565b60405162461bcd60e51b8152602060048201526005602482015264217a65726f60d81b6044820152606490fd5b634e487b7160e01b600052601160045260246000fd5b9060018201809211610e9e57565b610e7a565b91908201809211610e9e57565b8115610eba570690565b634e487b7160e01b600052601260045260246000fd5b60105460028110610f1d5760125460018101809111610e9e5781610ef391610eb0565b90811015610cfa57601060005260008051602061204a83398151915201546001600160a01b031690565b50600090565b15610f2a57565b60405162461bcd60e51b815260206004820152600860248201526721706c6179696e6760c01b6044820152606490fd5b15610f6157565b60405162461bcd60e51b815260206004820152600560248201526410ba3ab93760d91b6044820152606490fd5b15610f9557565b60405162461bcd60e51b81526020600482015260036024820152621bdd5d60ea1b6044820152606490fd5b15610fc757565b60405162461bcd60e51b8152602060048201526007602482015266085d185c99d95d60ca1b6044820152606490fd5b15610ffd57565b60405162461bcd60e51b815260206004820152600960248201526806361726420312d31360bc1b6044820152606490fd5b60ff6000199116019060ff8211610e9e57565b600a811015610cfa5760050190600090565b600a821015610cfa570190600090565b1561106a57565b60405162461bcd60e51b81526020600482015260076024820152661b9bc818d85c9960ca1b6044820152606490fd5b8015610e9e576000190190565b6000198114610e9e5760010190565b156110bc57565b60405162461bcd60e51b81526020600482015260086024820152673737903537b5b2b960c11b6044820152606490fd5b156110f357565b60405162461bcd60e51b81526020600482015260086024820152672170656e64696e6760c01b6044820152606490fd5b1561112a57565b60405162461bcd60e51b81526020600482015260066024820152651a9bda5b995960d21b6044820152606490fd5b1561115f57565b606460405162461bcd60e51b8152602060048201526004602482015263199d5b1b60e21b6044820152fd5b1561119157565b60405162461bcd60e51b815260206004820152600560248201526472616e676560d81b6044820152606490fd5b156111c557565b60405162461bcd60e51b815260206004820152600b60248201526a6669786564207374616b6560a81b6044820152606490fd5b601054680100000000000000008110156101e957600181016010556000601054821015610cfa576010905260008051602061204a8339815191520180546001600160a01b0319166001600160a01b03909216919091179055565b6040513d6000823e3d90fd5b1561126557565b606460405162461bcd60e51b815260206004820152600460248201526310b6b4b760e11b6044820152fd5b1561129757565b60405162461bcd60e51b815260206004820152600a6024820152692166756c6c206175746f60b01b6044820152606490fd5b6010548015610f1d5760125490811015610cfa57601060005260008051602061204a83398151915201546001600160a01b031690565b805115610cfa5760200190565b8051821015610cfa5760209160051b010190565b60ff600f541660048110156109d457600161133b9114610e0f565b60018151106113c25761137461137a9161135d600260ff19600f541617600f55565b61136f611369826112ff565b516113f0565b6112ff565b516115a5565b7f00000000000000000000000000000000000000000000000000000000000000007f50ad08f58a27f2851d7e3a1b3a6a46b290f2ce677e99642d30ff639721e77790600080a2565b60405162461bcd60e51b815260206004820152600660248201526521776f72647360d01b6044820152606490fd5b6010546113fb611e26565b80517f00000000000000000000000000000000000000000000000000000000000000009160005b82811061152e575060005b8281106114d3575050506004549260005b84811061144c575050505050565b604080516020810184815291810185905230606090811b6001600160601b0319169082015260748101839052600160f81b609482015260019291600d916114c0916107f991610757916114bb918b91906114b381609581015b03601f1981018352826101c7565b519020610eb0565b610cdf565b016114cb8154610e90565b90550161143e565b806115286114e96107576114bb89600196610eb0565b6114fd6114f6848761130c565b5160ff1690565b9061152361094c8360036108e78560018060a01b03166000526011602052604060002090565b611674565b0161142d565b604080516020810188815291810186905230606090811b6001600160601b031916908201526074810183905260019291611572918691906114b381609481016114a5565b61157c818561130c565b519061159361158b848761130c565b51918661130c565b5261159e828561130c565b5201611422565b3060601b6001600160601b03191691907f00000000000000000000000000000000000000000000000000000000000000009060005b60105481101561166d57601060005260008051602061204a8339815191528101546040805160208101858152918101869052606080820189905283901b6001600160601b031916607482015260688152600193926001600160a01b031691611666916116476088826101c7565b5190206001600160a01b03909216600090815260136020526040902090565b55016115da565b5050509050565b60018060a01b031690816000526011602052611697816003604060002001611053565b90549060031b1c9060028210156116ad57505050565b6116cc600191610da69460005260116020526003604060002001611053565b919092169082549060031b91821b91600019901b1916179055565b601054801561170d576012549060018201809211610e9e5761170891610eb0565b601255565b50565b60105460005b818110611724575050600190565b61173061075782610cdf565b60005b600a60ff821610611748575050600101611716565b61176d6108ed8260036108e78660018060a01b03166000526011602052604060002090565b61177c5760010160ff16611733565b50505050600090565b9061178f826101ee565b61179c60405191826101c7565b82815280926117ad601f19916101ee565b0190602036910137565b156117be57565b60405162461bcd60e51b81526020600482015260086024820152672177696e6e65727360c01b6044820152606490fd5b9161180b9061057094928452606060208501526060840190610522565b916040818403910152610522565b909161183061057093604084526040840190610522565b916020818403910152610522565b611850600360ff19600f541617600f55565b60105461185c81611785565b9061186681611785565b906000809160005b818110611a5f57505083528082526118879015156117b7565b47611961575b7f0000000000000000000000000000000000000000000000000000000000000000917f00000000000000000000000000000000000000000000000000000000000000006001600160a01b03169190823b156101725760006040518094633951114160e11b825281838161190587898c600485016117ee565b03925af1928315610bac577fec9076d3d1e4910861e8852ef3e8820904b6868d2e5c85563e5c82f45c776d1f9361194c575b5061194760405192839283611819565b0390a2565b80610ba0600061195b936101c7565b38611937565b919060005b601054811015611a575761197c61075782610cdf565b90600161199b8360018060a01b03166000526011602052604060002090565b015491826119af575b506001915001611966565b7f00000000000000000000000000000000000000000000000000000000000000006001600160a01b031690813b15610172576040516328ba35d960e11b81527f000000000000000000000000000000000000000000000000000000000000000060048201526001600160a01b039190911660248201529260009184916044918391905af1918215610bac57600192156119a45780610ba06000611a51936101c7565b386119a4565b50909161188d565b80611a6e610757600193610cdf565b6001600160a01b0381166000908152601160205260409020600d015415611abb57611ab590611aa6611a9f876110a6565b968a61130c565b6001600160a01b039091169052565b0161186e565b611ad290611aa6611acb886110a6565b978961130c565b611ab5565b15611ade57565b60405162461bcd60e51b8152602060048201526007602482015266042cadcdeeaced60cb1b6044820152606490fd5b90816020910312610172575190565b611b2c6010546000541115611ad7565b7f00000000000000000000000000000000000000000000000000000000000000006001600160a01b03168015611cd157611b6e600160ff19600f541617600f55565b6040516305d3b1d360e41b81527f000000000000000000000000000000000000000000000000000000000000000060048201527f000000000000000000000000000000000000000000000000000000000000000067ffffffffffffffff1660248201527f000000000000000000000000000000000000000000000000000000000000000061ffff1660448201527f000000000000000000000000000000000000000000000000000000000000000063ffffffff1660648201526001608482015290602090829060a49082906000905af1908115610bac57600091611ca2575b506040519081527f0000000000000000000000000000000000000000000000000000000000000000907febd9e8fb61fd5a6473b57d787d7ea3595ba98407bd8c0d74d9b0a5d666aa8d8a908060208101611947565b611cc4915060203d602011611cca575b611cbc81836101c7565b810190611b0d565b38611c4d565b503d611cb2565b507f00000000000000000000000000000000000000000000000000000000000000006001600160a01b031615611d8a57611d13600160ff19600f541617600f55565b604080517f00000000000000000000000000000000000000000000000000000000000000006020820181815230938301939093529190611d5681606081016114a5565b5190206040519081523091907f95c8b02c7934a4bb418d4b844ca008175046665e9ddfb7903dda0ce4dd450cf090602090a3565b611d9c600260ff19600f541617600f55565b6040805142602082019081527f000000000000000000000000000000000000000000000000000000000000000092820183905230606090811b6001600160601b03191690830152611dff91611df481607481016114a5565b519020610372611eb9565b7f50ad08f58a27f2851d7e3a1b3a6a46b290f2ce677e99642d30ff639721e77790600080a2565b6000805b600a8210611e9957611e3c9150611785565b60009160005b60ff8116600a811015611e9257611e5b6108ed83611041565b9060005b828110611e745750505060010160ff16611e42565b60019082611e8b611e848a6110a6565b998961130c565b5201611e5f565b5050915090565b611eb1600191611eab6108ed85611041565b90610ea3565b910190611e2a565b60105490611ec5611f58565b9160005b8351811015611efb5780611ef5611ee86107576114bb86600196610eb0565b6114fd6114f6848961130c565b01611ec9565b5060045491925060005b828110611f1157505050565b600190600d611f456107f96107576114bb8760405160208101906114b3816114a58b42869091604092825260208201520190565b01611f508154610e90565b905501611f05565b6000805b600a821061202f57611f6e9150611785565b60009160005b60ff8116600a811015611fbd57611f8d6108ed83611041565b9060005b828110611fa65750505060010160ff16611f74565b60019082611fb6611e848a6110a6565b5201611f91565b5050915060005b815181101561202b576001906120006040516020810190611ff5816114a58642869091604092825260208201520190565b519020845190610eb0565b61200a818561130c565b519061201961158b848761130c565b52612024828561130c565b5201611fc4565b5090565b612041600191611eab6108ed85611041565b910190611f5c56fe1b6847dc741a1b0cd08d278845f9d819d87b734759afb55fe2de5cb82a9ae672a26469706673582212204aebe1c4dbd380276d0780e083960ab76d30ad044a77c97f70626f95f6a25c1b64736f6c634300081a0033",
  "linkReferences": {},
  "deployedLinkReferences": {}
}