{
  "_format": "hh-sol-artifact-1",
  "contractName": "MockGameRoomEcvrf",
  "sourceName": "contracts/mocks/MockGameRoomEcvrf.sol",
  "abi": [
    {
      "inputs": [
        {
          "internalType": "uint256",
          "name": "_gameId",
          "type": "uint256"
        },
        {
          "internalType": "address",
          "name": "_relay",
          "type": "address"
        }
      ],
      "stateMutability": "nonpayable",
      "type": "constructor"
    },
    {
      "inputs": [
        {
          "internalType": "uint256",
          "name": "randomWord",
          "type": "uint256"
        }
      ],
      "name": "applyECVRFSeed",
      "outputs": [],
      "stateMutability": "nonpayable",
      "type": "function"
    },
    {
      "inputs": [],
      "name": "dealing",
      "outputs": [
        {
          "internalType": "bool",
          "name": "",
          "type": "bool"
        }
      ],
      "stateMutability": "view",
      "type": "function"
    },
    {
      "inputs": [],
      "name": "ecvrfRelay",
      "outputs": [
        {
          "internalType": "address",
          "name": "",
          "type": "address"
        }
      ],
      "stateMutability": "view",
      "type": "function"
    },
    {
      "inputs": [],
      "name": "gameId",
      "outputs": [
        {
          "internalType": "uint256",
          "name": "",
          "type": "uint256"
        }
      ],
      "stateMutability": "view",
      "type": "function"
    },
    {
      "inputs": [],
      "name": "lastSeed",
      "outputs": [
        {
          "internalType": "uint256",
          "name": "",
          "type": "uint256"
        }
      ],
      "stateMutability": "view",
      "type": "function"
    }
  ],
  "bytecode": "0x60c034608a57601f6102e538819003918201601f19168301916001600160401b03831184841017608f578084926040948552833981010312608a578051602090910151906001600160a01b0382168203608a5760805260a052600160ff198154161760015560405161023f90816100a6823960805181606e015260a05181818160ed01526101330152f35b600080fd5b634e487b7160e01b600052604160045260246000fdfe608080604052600436101561001357600080fd5b60003560e01c90816331db047b1461011c57508063733d5038146100d757806376c63a89146100b4578063d070b0fa146100965763d7c81b551461005657600080fd5b346100915760003660031901126100915760206040517f00000000000000000000000000000000000000000000000000000000000000008152f35b600080fd5b34610091576000366003190112610091576020600054604051908152f35b3461009157600036600319011261009157602060ff600154166040519015158152f35b34610091576000366003190112610091576040517f00000000000000000000000000000000000000000000000000000000000000006001600160a01b03168152602090f35b3461009157602036600319011261009157600435907f00000000000000000000000000000000000000000000000000000000000000006001600160a01b031633036101de57506001549060ff8216156101ae5780156101815760005560ff1916600155005b60405162461bcd60e51b8152602060048201526005602482015264217a65726f60d81b6044820152606490fd5b60405162461bcd60e51b8152602060048201526008602482015267216465616c696e6760c01b6044820152606490fd5b62461bcd60e51b81526020600482015260066024820152652172656c617960d01b6044820152606490fdfea26469706673582212205cfcb9f8678e357d88a68293804980093c2f52229d35e51483a219f83e9e9a6c64736f6c634300081a0033",
  "linkReferences": {},
  "deployedLinkReferences": {}
}