{
  "_format": "hh-sol-artifact-1",
  "contractName": "StakingVault",
  "sourceName": "contracts/StakingVault.sol",
  "abi": [
    {
      "inputs": [],
      "stateMutability": "nonpayable",
      "type": "constructor"
    },
    {
      "anonymous": false,
      "inputs": [
        {
          "indexed": true,
          "internalType": "uint256",
          "name": "gameId",
          "type": "uint256"
        },
        {
          "indexed": true,
          "internalType": "address",
          "name": "room",
          "type": "address"
        }
      ],
      "name": "GameRoomRegistered",
      "type": "event"
    },
    {
      "anonymous": false,
      "inputs": [
        {
          "indexed": true,
          "internalType": "uint256",
          "name": "gameId",
          "type": "uint256"
        },
        {
          "indexed": false,
          "internalType": "uint256",
          "name": "totalRewards",
          "type": "uint256"
        },
        {
          "indexed": false,
          "internalType": "uint256",
          "name": "fee",
          "type": "uint256"
        }
      ],
      "name": "RewardsDistributed",
      "type": "event"
    },
    {
      "anonymous": false,
      "inputs": [
        {
          "indexed": true,
          "internalType": "uint256",
          "name": "gameId",
          "type": "uint256"
        },
        {
          "indexed": true,
          "internalType": "address",
          "name": "player",
          "type": "address"
        },
        {
          "indexed": false,
          "internalType": "uint256",
          "name": "amount",
          "type": "uint256"
        }
      ],
      "name": "Staked",
      "type": "event"
    },
    {
      "inputs": [],
      "name": "FEE_RATE",
      "outputs": [
        {
          "internalType": "uint256",
          "name": "",
          "type": "uint256"
        }
      ],
      "stateMutability": "view",
      "type": "function"
    },
    {
      "inputs": [
        {
          "internalType": "uint256",
          "name": "gameId",
          "type": "uint256"
        },
        {
          "internalType": "address[]",
          "name": "winners",
          "type": "address[]"
        },
        {
          "internalType": "address[]",
          "name": "losers",
          "type": "address[]"
        }
      ],
      "name": "distributeRewards",
      "outputs": [],
      "stateMutability": "nonpayable",
      "type": "function"
    },
    {
      "inputs": [
        {
          "internalType": "uint256",
          "name": "amount",
          "type": "uint256"
        }
      ],
      "name": "emergencyWithdraw",
      "outputs": [],
      "stateMutability": "nonpayable",
      "type": "function"
    },
    {
      "inputs": [],
      "name": "factory",
      "outputs": [
        {
          "internalType": "address",
          "name": "",
          "type": "address"
        }
      ],
      "stateMutability": "view",
      "type": "function"
    },
    {
      "inputs": [],
      "name": "feeReceiver",
      "outputs": [
        {
          "internalType": "address",
          "name": "",
          "type": "address"
        }
      ],
      "stateMutability": "view",
      "type": "function"
    },
    {
      "inputs": [
        {
          "internalType": "uint256",
          "name": "",
          "type": "uint256"
        }
      ],
      "name": "gamePools",
      "outputs": [
        {
          "internalType": "uint256",
          "name": "",
          "type": "uint256"
        }
      ],
      "stateMutability": "view",
      "type": "function"
    },
    {
      "inputs": [
        {
          "internalType": "uint256",
          "name": "",
          "type": "uint256"
        }
      ],
      "name": "gameRooms",
      "outputs": [
        {
          "internalType": "address",
          "name": "",
          "type": "address"
        }
      ],
      "stateMutability": "view",
      "type": "function"
    },
    {
      "inputs": [
        {
          "internalType": "uint256",
          "name": "",
          "type": "uint256"
        },
        {
          "internalType": "address",
          "name": "",
          "type": "address"
        }
      ],
      "name": "gameStakes",
      "outputs": [
        {
          "internalType": "uint256",
          "name": "",
          "type": "uint256"
        }
      ],
      "stateMutability": "view",
      "type": "function"
    },
    {
      "inputs": [
        {
          "internalType": "uint256",
          "name": "gameId",
          "type": "uint256"
        },
        {
          "internalType": "address",
          "name": "player",
          "type": "address"
        }
      ],
      "name": "getPlayerStake",
      "outputs": [
        {
          "internalType": "uint256",
          "name": "",
          "type": "uint256"
        }
      ],
      "stateMutability": "view",
      "type": "function"
    },
    {
      "inputs": [
        {
          "internalType": "uint256",
          "name": "gameId",
          "type": "uint256"
        },
        {
          "internalType": "address",
          "name": "room",
          "type": "address"
        }
      ],
      "name": "registerGameRoom",
      "outputs": [],
      "stateMutability": "nonpayable",
      "type": "function"
    },
    {
      "inputs": [
        {
          "internalType": "address",
          "name": "_factory",
          "type": "address"
        }
      ],
      "name": "setFactory",
      "outputs": [],
      "stateMutability": "nonpayable",
      "type": "function"
    },
    {
      "inputs": [
        {
          "internalType": "uint256",
          "name": "gameId",
          "type": "uint256"
        }
      ],
      "name": "stake",
      "outputs": [],
      "stateMutability": "payable",
      "type": "function"
    },
    {
      "inputs": [
        {
          "internalType": "uint256",
          "name": "gameId",
          "type": "uint256"
        },
        {
          "internalType": "address",
          "name": "player",
          "type": "address"
        }
      ],
      "name": "stakeFor",
      "outputs": [],
      "stateMutability": "payable",
      "type": "function"
    },
    {
      "stateMutability": "payable",
      "type": "receive"
    }
  ],
  "bytecode": "0x60a08060405234604c57336080819052600380546001600160a01b0319169091179055610d5590816100528239608051818181610145015281816106b70152818161082f01526108db0152f35b600080fdfe608080604052600436101561001d575b50361561001b57600080fd5b005b60003560e01c9081632d11c58a14610b3357508063426c464114610aff5780634d0ed9da14610ad357806351746bb2146109d35780635312ea8e146108c557806355f2ad7f146100e75780635bb478081461080357806372a222821461039b5780639e0395921461022e578063a694fc3a14610174578063b3f006741461012f578063b44f4a55146100e75763c45a0155146100b9573861000f565b346100e25760003660031901126100e2576003546040516001600160a01b039091168152602090f35b600080fd5b346100e25760403660031901126100e257610100610b4d565b600435600052600060205260406000209060018060a01b03166000526020526020604060002054604051908152f35b346100e25760003660031901126100e2576040517f00000000000000000000000000000000000000000000000000000000000000006001600160a01b03168152602090f35b60203660031901126100e25760043561018e341515610b94565b8060005260016020526101be6101a934604060002054610bdf565b82600052600160205260406000205410610bec565b600081815260208181526040808320338452909152902080546101e2903490610bdf565b905580600052600160205260406000206101fd348254610bdf565b9055604051903482527f18dcd430020e4d4899772fd94a8b40451dc5044dfb70bc46b532eeae431c864f60203393a3005b346100e25760403660031901126100e25760043561024a610b4d565b6003546001600160a01b03163303610356576001600160a01b0316908115610311576000818152600260205260409020546001600160a01b03166102cc57600081815260026020526040812080546001600160a01b031916841790557f0d8568db0ba21bc2f3df2ca3fd47edf810160b7d44b1f4f1acaa0424efe994249080a3005b60405162461bcd60e51b815260206004820152601960248201527f5374616b696e675661756c743a20726f6f6d20657869737473000000000000006044820152606490fd5b60405162461bcd60e51b815260206004820152601a60248201527f5374616b696e675661756c743a20726f6f6d206973207a65726f0000000000006044820152606490fd5b60405162461bcd60e51b815260206004820152601a60248201527f5374616b696e675661756c743a206f6e6c7920666163746f72790000000000006044820152606490fd5b346100e25760603660031901126100e25760043560243567ffffffffffffffff81116100e2576103cf903690600401610b63565b60443567ffffffffffffffff81116100e2576103ef903690600401610b63565b6000858152600260205260409020549091906001600160a01b031633036107be5784600052600160205260406000205493841561077957831561073457600a8502858104600a036105fb576103e89004938486039586116105fb57846106af575b6000805b82811061066c57508015918261061b5760005b8181106104fc57505050505060005b8281106104bf57857f6ae8ee960d83517f7fa993ad7a0e16e33d9655a23ff41eefc62bdb289c7a8e5f6040878784600052600160205260008381205582519182526020820152a2005b600190866000526000602052600060408082206104e56104e0858989610ce5565b610d0b565b908391868060a01b03168252602052205501610476565b61050a6104e0828488610ce5565b908a600052600060205260408060002060009060018060a01b038516825260205220548015610611578a81029081048b036105fb576000866105e7575084900480610579575b50600060406001938d8352826020528183208391868060a01b0316825260205220555b01610467565b600080808093865af161058a610c7d565b5015610596578b610550565b60405162461bcd60e51b8152602060048201526024808201527f5374616b696e675661756c743a20726577617264207472616e736665722066616044820152631a5b195960e21b6064820152608490fd5b634e487b7160e01b81526012600452602490fd5b634e487b7160e01b600052601160045260246000fd5b5060019150610573565b60405162461bcd60e51b815260206004820152602360248201527f5374616b696e675661756c743a2077696e6e657273207374616b65206973207a60448201526265726f60e81b6064820152608490fd5b906106a86001918a60005260006020526040806000206106906104e087898b610ce5565b90600091868060a01b03168252602052205490610bdf565b9101610454565b6000808080887f00000000000000000000000000000000000000000000000000000000000000005af16106e0610c7d565b506104505760405162461bcd60e51b815260206004820152602160248201527f5374616b696e675661756c743a20666565207472616e73666572206661696c656044820152601960fa1b6064820152608490fd5b60405162461bcd60e51b815260206004820152601860248201527f5374616b696e675661756c743a206e6f2077696e6e65727300000000000000006044820152606490fd5b60405162461bcd60e51b815260206004820152601e60248201527f5374616b696e675661756c743a206e6f20706f6f6c20666f722067616d6500006044820152606490fd5b60405162461bcd60e51b815260206004820152601c60248201527f5374616b696e675661756c743a206f6e6c792067616d6520726f6f6d000000006044820152606490fd5b346100e25760203660031901126100e2576004356001600160a01b038116908190036100e25761085d337f00000000000000000000000000000000000000000000000000000000000000006001600160a01b031614610c31565b8015610880576bffffffffffffffffffffffff60a01b6003541617600355600080f35b60405162461bcd60e51b815260206004820152601d60248201527f5374616b696e675661756c743a20666163746f7279206973207a65726f0000006044820152606490fd5b346100e25760203660031901126100e2576004357f000000000000000000000000000000000000000000000000000000000000000061090e336001600160a01b03831614610c31565b81471061098357600080809381935af1610926610c7d565b501561092e57005b60405162461bcd60e51b815260206004820152602760248201527f5374616b696e675661756c743a20656d657267656e6379207472616e736665726044820152660819985a5b195960ca1b6064820152608490fd5b60405162461bcd60e51b815260206004820152602260248201527f5374616b696e675661756c743a20696e73756666696369656e742062616c616e604482015261636560f01b6064820152608490fd5b60403660031901126100e2576004356001600160a01b036109f2610b4d565b16908115610a8e57610a05341515610b94565b806000526001602052610a206101a934604060002054610bdf565b8060005260006020526040600020826000526020526040600020610a45348254610bdf565b90558060005260016020526040600020610a60348254610bdf565b90557f18dcd430020e4d4899772fd94a8b40451dc5044dfb70bc46b532eeae431c864f6020604051348152a3005b60405162461bcd60e51b815260206004820152601c60248201527f5374616b696e675661756c743a20706c61796572206973207a65726f000000006044820152606490fd5b346100e25760203660031901126100e25760043560005260016020526020604060002054604051908152f35b346100e25760203660031901126100e2576004356000526002602052602060018060a01b0360406000205416604051908152f35b346100e25760003660031901126100e25780600a60209252f35b602435906001600160a01b03821682036100e257565b9181601f840112156100e25782359167ffffffffffffffff83116100e2576020808501948460051b0101116100e257565b15610b9b57565b606460405162461bcd60e51b815260206004820152602060248201527f5374616b696e675661756c743a20616d6f756e74206d757374206265203e20306044820152fd5b919082018092116105fb57565b15610bf357565b60405162461bcd60e51b81526020600482015260166024820152755374616b696e675661756c743a206f766572666c6f7760501b6044820152606490fd5b15610c3857565b60405162461bcd60e51b815260206004820152601f60248201527f5374616b696e675661756c743a206f6e6c7920666565207265636569766572006044820152606490fd5b3d15610ce0573d9067ffffffffffffffff8211610cca5760405191601f8101601f19908116603f0116830167ffffffffffffffff811184821017610cca5760405282523d6000602084013e565b634e487b7160e01b600052604160045260246000fd5b606090565b9190811015610cf55760051b0190565b634e487b7160e01b600052603260045260246000fd5b356001600160a01b03811681036100e2579056fea264697066735822122079c96e8a72f227cd90403102057129b985c13f0f6a35508e3a74f39966c6d11b64736f6c634300081a0033",
  "linkReferences": {},
  "deployedLinkReferences": {}
}