{
  "_format": "hh-sol-artifact-1",
  "contractName": "ECVRFRelay",
  "sourceName": "contracts/ecvrf/ECVRFRelay.sol",
  "abi": [
    {
      "inputs": [
        {
          "internalType": "address",
          "name": "_relayer",
          "type": "address"
        },
        {
          "internalType": "address",
          "name": "_verifier",
          "type": "address"
        }
      ],
      "stateMutability": "nonpayable",
      "type": "constructor"
    },
    {
      "anonymous": false,
      "inputs": [
        {
          "indexed": true,
          "internalType": "address",
          "name": "room",
          "type": "address"
        },
        {
          "indexed": true,
          "internalType": "uint256",
          "name": "gameId",
          "type": "uint256"
        },
        {
          "indexed": false,
          "internalType": "uint256",
          "name": "randomWord",
          "type": "uint256"
        }
      ],
      "name": "RandomnessSubmitted",
      "type": "event"
    },
    {
      "inputs": [],
      "name": "relayer",
      "outputs": [
        {
          "internalType": "address",
          "name": "",
          "type": "address"
        }
      ],
      "stateMutability": "view",
      "type": "function"
    },
    {
      "inputs": [
        {
          "internalType": "address",
          "name": "room",
          "type": "address"
        },
        {
          "internalType": "bytes",
          "name": "alpha",
          "type": "bytes"
        },
        {
          "internalType": "bytes",
          "name": "proof",
          "type": "bytes"
        },
        {
          "internalType": "uint256",
          "name": "randomWord",
          "type": "uint256"
        }
      ],
      "name": "submitRandomWord",
      "outputs": [],
      "stateMutability": "nonpayable",
      "type": "function"
    },
    {
      "inputs": [],
      "name": "verifier",
      "outputs": [
        {
          "internalType": "contract IECVRFVerifier",
          "name": "",
          "type": "address"
        }
      ],
      "stateMutability": "view",
      "type": "function"
    }
  ],
  "bytecode": "0x60c0346100ce57601f61062138819003918201601f19168301916001600160401b038311848410176100d35780849260409485528339810103126100ce57610052602061004b836100e9565b92016100e9565b906001600160a01b0381161561009e576080526001600160a01b031660a05260405161052390816100fe823960805181818160e601526103ef015260a05181818160b201526104320152f35b60405162461bcd60e51b815260206004820152600860248201526710b932b630bcb2b960c11b6044820152606490fd5b600080fd5b634e487b7160e01b600052604160045260246000fd5b51906001600160a01b03821682036100ce5756fe608080604052600436101561001357600080fd5b600090813560e01c9081632b7ac3f31461041e575080638406c079146103d95763b328bfa51461004257600080fd5b346103d65760803660031901126103d6576004356001600160a01b038116908190036103d25760243567ffffffffffffffff811161027b57610088903690600401610461565b60449291923567ffffffffffffffff81116103ce576100ab903690600401610461565b60643592917f00000000000000000000000000000000000000000000000000000000000000006001600160a01b0316919082610306575050507f00000000000000000000000000000000000000000000000000000000000000006001600160a01b031633036102d6575b60405163d7c81b5560e01b815293602085600481875afa9485156102cb578695610293575b5067ffffffffffffffff821161027f5785604051916101636020601f19601f8701160184610494565b8383526020830193368183011161027b57806020928637830101525190206040516020810190858252846040820152604081526101a1606082610494565b5190200361024d57813b15610249576040516331db047b60e01b815260048101829052848160248183875af1801561023e57610207575b5060207f81b67df6b22a6a37606edc54f9d868482373eae7d6b5e038609843deeb983c9591604051908152a380f35b846102367f81b67df6b22a6a37606edc54f9d868482373eae7d6b5e038609843deeb983c959396602093610494565b9491506101d8565b6040513d87823e3d90fd5b8380fd5b60405162461bcd60e51b815260206004820152600660248201526521616c70686160d01b6044820152606490fd5b8280fd5b634e487b7160e01b86526041600452602486fd5b9094506020813d6020116102c3575b816102af60209383610494565b810103126102bf5751933861013a565b8580fd5b3d91506102a2565b6040513d88823e3d90fd5b60405162461bcd60e51b815260206004820152600860248201526710b932b630bcb2b960c11b6044820152606490fd5b6040516326fc850560e11b8152606060048201529260209284928391829161034891610336606485018b8f6104cc565b848103600319016024860152916104cc565b88604483015203915afa9081156102cb578691610393575b506101155760405162461bcd60e51b815260206004820152600660248201526510b2b1bb393360d11b6044820152606490fd5b90506020813d6020116103c6575b816103ae60209383610494565b810103126102bf575180151581036102bf5738610360565b3d91506103a1565b8480fd5b5080fd5b80fd5b50346103d657806003193601126103d6576040517f00000000000000000000000000000000000000000000000000000000000000006001600160a01b03168152602090f35b9050346103d257816003193601126103d2577f00000000000000000000000000000000000000000000000000000000000000006001600160a01b03168152602090f35b9181601f8401121561048f5782359167ffffffffffffffff831161048f576020838186019501011161048f57565b600080fd5b90601f8019910116810190811067ffffffffffffffff8211176104b657604052565b634e487b7160e01b600052604160045260246000fd5b908060209392818452848401376000828201840152601f01601f191601019056fea2646970667358221220dda8b9fd056e8bcfab5dc4f7baa30239b5dc93ed47b5979a65483edf656f61fe64736f6c634300081a0033",
  "linkReferences": {},
  "deployedLinkReferences": {}
}