{
  "_format": "hh-sol-artifact-1",
  "contractName": "Secp256k1Sha256TaiECVRFVerifier",
  "sourceName": "contracts/ecvrf/Secp256k1Sha256TaiECVRFVerifier.sol",
  "abi": [
    {
      "inputs": [
        {
          "internalType": "uint256",
          "name": "_publicKeyX",
          "type": "uint256"
        },
        {
          "internalType": "uint256",
          "name": "_publicKeyY",
          "type": "uint256"
        }
      ],
      "stateMutability": "nonpayable",
      "type": "constructor"
    },
    {
      "inputs": [],
      "name": "publicKeyX",
      "outputs": [
        {
          "internalType": "uint256",
          "name": "",
          "type": "uint256"
        }
      ],
      "stateMutability": "view",
      "type": "function"
    },
    {
      "inputs": [],
      "name": "publicKeyY",
      "outputs": [
        {
          "internalType": "uint256",
          "name": "",
          "type": "uint256"
        }
      ],
      "stateMutability": "view",
      "type": "function"
    },
    {
      "inputs": [
        {
          "internalType": "bytes",
          "name": "alpha",
          "type": "bytes"
        },
        {
          "internalType": "bytes",
          "name": "proof",
          "type": "bytes"
        },
        {
          "internalType": "uint256",
          "name": "randomWord",
          "type": "uint256"
        }
      ],
      "name": "verify",
      "outputs": [
        {
          "internalType": "bool",
          "name": "",
          "type": "bool"
        }
      ],
      "stateMutability": "view",
      "type": "function"
    }
  ],
  "bytecode": "0x60c034607657601f61122438819003918201601f19168301916001600160401b03831184841017607b578084926040948552833981010312607657602081519101519060805260a0526040516111929081610092823960805181818161013a0152610225015260a05181818160ff01526102480152f35b600080fd5b634e487b7160e01b600052604160045260246000fdfe6080604052600436101561001257600080fd5b60003560e01c80634df90a0a14610047578063d7a6f6e8146100425763fa6df55d1461003d57600080fd5b610122565b6100e7565b346100b45760603660031901126100b45760043567ffffffffffffffff81116100b4576100789036906004016100b9565b906024359067ffffffffffffffff82116100b4576020926100a06100aa9336906004016100b9565b916044359361020d565b6040519015158152f35b600080fd5b9181601f840112156100b45782359167ffffffffffffffff83116100b457602083818601950101116100b457565b346100b45760003660031901126100b45760206040517f00000000000000000000000000000000000000000000000000000000000000008152f35b346100b45760003660031901126100b45760206040517f00000000000000000000000000000000000000000000000000000000000000008152f35b634e487b7160e01b600052604160045260246000fd5b6040810190811067ffffffffffffffff82111761018f57604052565b61015d565b90601f8019910116810190811067ffffffffffffffff82111761018f57604052565b906101c46040519283610194565b565b92919267ffffffffffffffff821161018f57604051916101f0601f8201601f191660200184610194565b8294818452818301116100b4578281602093846000960137010152565b9161027361027b92936040519461022386610173565b7f000000000000000000000000000000000000000000000000000000000000000086527f0000000000000000000000000000000000000000000000000000000000000000602087015236916101c6565b9336916101c6565b9060806040519361028c8286610194565b8136863760518451036103245784610301936102fd93866102e46102cb6102c56102b760519b610374565b516001600160f81b03191690565b60f81c90565b926021830151998a916041850151901c930151936105af565b9784526020840197885260408401526060830152610397565b1590565b61031c57821561031c5761031891519051906104e4565b1490565b505050600090565b60405162461bcd60e51b815260206004820152601360248201527226b0b63337b936b2b2102b292310383937b7b360691b6044820152606490fd5b60405190608061036f8184610194565b368337565b8051156103815760200190565b634e487b7160e01b600052603260045260246000fd5b916103a29083610635565b91909260608201519261041a61040c60408501519561041261040c7f483ada7726a3c4655da4fbfc0e1108a8fd17b448a68554199c47d08ffb10d4b87f79be667ef9dcbbac55a06295ce870b07029bfcdb2dce28d959f2815b16f817986020895199015194610b37565b91610bbd565b959097610b37565b6401000003d094919419036401000003d01981116104a8576fffffffffffffffffffffffffffffffff956104a09561049a9561045f936401000003d019900692610a32565b906060830151976104708460400190565b9861048e8a519186516104838860200190565b938986865194610708565b96909551915192610754565b60801c90565b915191161490565b6107e6565b9081519160005b8381106104c5575050016000815290565b80602080928401015181850152016104b4565b6040513d6000823e3d90fd5b61053861051e61052c6104fb6020956000956107fc565b604051607f60f91b87820152600360f81b602182015292839160228301906104ad565b03601f198101835282610194565b604051918280926104ad565b039060025afa156105495760005190565b6104d8565b61058e9061055c6001610833565b63400000f4600160fe1b03906401000003d01990816007816000840908906401000003d019908181800990090861098a565b600281018082116104a8576001166105a35790565b6105ac906108a8565b90565b60ff6105cb9116916002831480156105df575b61055c90610833565b9081018082116104a8576001166105a35790565b50600383146105c2565b607f60f91b8152600160f81b60018201526105ac929161060c91600201906104ad565b906104ad565b61061f90600193926104ad565b60f89190911b6001600160f81b03191681520190565b61064f6106619161064881519160200190565b51906107fc565b61051e604051938492602084016105e9565b60005b61010081106106b25760405162461bcd60e51b815260206004820152601860248201527f4e6f2076616c696420706f696e742077617320666f756e6400000000000000006044820152606490fd5b602060006106d060405161052c8161051e60ff881689888401610612565b039060025afa15610549576000516106e78161054e565b906106f282826108cd565b610700575050600101610664565b939092509050565b61040c61040c936107279596979361071f93610b37565b959094610b37565b6401000003d01903926401000003d01984116104a857610750936401000003d019900692610a32565b9091565b9361060c60009761060c61079460209b61078e6107ba9b61078861052c9b61078261051e9b61060c9f6107fc565b9b6107fc565b976107fc565b936107fc565b604051607f60f91b8d820152600160f91b602182015298899791959160228901906104ad565b039060025afa1561054957600051806040515290565b634e487b7160e01b600052601260045260246000fd5b634e487b7160e01b600052601160045260246000fd5b9060011660020190816002116104a8576040519160ff60f81b9060f81b1660208301526021820152602181526105ac604182610194565b1561083a57565b60405162461bcd60e51b815260206004820152603160248201527f456c6c697074696343757276653a20696e76616c696420636f6d7072657373656044820152700c8408a8640e0ded2dce840e0e4caccd2f607b1b6064820152608490fd5b81156108a3570490565b6107d0565b6401000003d01903906401000003d01982116104a857565b919082039182116104a857565b8015801561092e575b8015610926575b8015610916575b61090f576401000003d01990818180090960076401000003d0199108906401000003d0199080091490565b5050600090565b506401000003d0198210156108e4565b5081156108dd565b506401000003d0198110156108d6565b1561094557565b60405162461bcd60e51b815260206004820152601e60248201527f456c6c697074696343757276653a206d6f64756c7573206973207a65726f00006044820152606490fd5b610994600161093e565b801561090f578115610a2b57600191600160ff1b9190825b6109b65750505090565b9091926401000003d019908483161515840a906401000003d019908009096401000003d01990600185901c83161515840a9082908009096401000003d01990600285901c83161515840a9082908009096401000003d01990600385901c83161515840a9082908009099260041c9190826109ac565b5050600190565b90929091808303610b1a57506401000003d01990830815610b10576401000003d019828009916401000003d01980848409600409916401000003d0199060009082908190800960030908926401000003d0198380086401000003d019036401000003d01981116104a8576401000003d019908186800908926401000003d0198481039081116104a857610750956401000003d01993610ae0908590819080096008096401000003d0196108c0565b926401000003d01992839108900908906401000003d01990819060019009600209905b6401000003d01992610cbd565b5050600090600090565b90610b319291610750946401000003d01993610d9a565b90610b03565b929091928015610bb457600090600094600194826001935b610b5c5750505050929190565b60018116610b88575b906000610b7f9260011c9485946401000003d019936110c4565b92909293610b4f565b93610ba59084848460009a610b7f969c6401000003d01995610f30565b90989097509094909150610b65565b50909190600190565b90929192600084151580610cad575b80610ca5575b15610c6f5760009490856401000003d0196001845b610c165750505050506401000003d01984800991826401000003d0199109936401000003d01992839109900990565b610c2485839a95969a610899565b9181936108a357610c60610c4b610c66936401000003d0199086096401000003d0196108c0565b87966401000003d019919008949a8094611149565b906108c0565b93929184610be7565b60405162461bcd60e51b815260206004820152600e60248201526d24b73b30b634b210373ab6b132b960911b6044820152606490fd5b506001610bd2565b506401000003d019851415610bcc565b9392919384151580610d44575b80610d3b575b15610c6f5760009483159081856001835b610cfe57505050506108a357829081808780098092099509900990565b610d0b84839b959b610899565b9181936108a357610c6089610d2681610d33958709826108c0565b60009708949b8094611149565b929183610ce1565b50821515610cd0565b5082851415610cca565b15610d5557565b60405162461bcd60e51b815260206004820152601e60248201527f557365206a6163446f75626c652066756e6374696f6e20696e737465616400006044820152606490fd5b9391909492841580610f28575b610f1c57811580610f14575b610f0957610dbf61035f565b9583156108a3578380938160018009808a529882808b6001099460208301958652604083018c81529a82808e6001099160608601928352610e0060806101b6565b9d5190098c5251900960208a0152519009604087015251900960608401528251936040840194855114801590610ef7575b610e3a90610d4e565b81610e4361035f565b9551610e508651836108c0565b90088552816060850151610eec8288818060208b0195610e718751836108c0565b900899602083019a8b5281808c8180808089518a5190099360408a01948552610ea18286518c5190099a60600190565b998a52518009610eb28951836108c0565b9008610ec88280885186519009600209836108c0565b90089d51935190519009610edc8d836108c0565b90089009935190519009836108c0565b900894510991929190565b50602084015160608501511415610e31565b505050909190600190565b508015610db3565b90945092506001919050565b508515610da7565b96949695939091958015806110bc575b6110b0578315806110a8575b61109d57610f5861035f565b9285156108a35788948694858093818c800983528183518d0995602084019687528280604086019b81818009808e5290099160608601928352610f9b60806101b6565b9b5190098a5251900960208801525190096040850152519009606082015281815195610fc78360400190565b9687511480159061108b575b610fdc90610d4e565b81610fe561035f565b9751610ff28551836108c0565b9008875281606084015161107e828a818060208a01956110138751836108c0565b90089860208301998a5281808b8180808089518a5190099360408a019485526110438286518c5190099a60600190565b998a525180096110548951836108c0565b900861106a8280885186519009600209836108c0565b90089c51935190519009610edc8c836108c0565b9008965192969509900990565b50602083015160608401511415610fd3565b935050945050929190565b508115610f4c565b50959450509050929190565b508215610f40565b90939194929480156111415782156108a357828086800992818080808680099a8180808a88096004099c8009900992800960030908918387800884038481116104a8578490818580090890818503908582116104a85785809180096008098503908582116104a85785948580949281939b08900908940960020990565b909450919050565b818102929181159184041417156104a85756fea2646970667358221220e5bd0fccab588dda4b2f4c05e89240e17f2ad8cf7f7efb0d475089850702fb6e64736f6c634300081a0033",
  "linkReferences": {},
  "deployedLinkReferences": {}
}