{
	"data": {
		"bytecode": {
			"linkReferences": {},
			"object": "6101a06040523461036e576040516122c03881900390601f8201601f19168301906001600160401b038211848310176103825782916040528339810181810390610300821261036e57825160208401516001600160a01b0381169081900361036e576101e061007060408701610396565b94605f19011261036e5760405160c081016001600160401b03811182821017610382576040526060860151815260808601516020820190815260a0870151916040810192835260c0880151936060820194855260e089015195608083019687528761011f8b01121561036e576040519761014089016001600160401b0381118a82101761038257604052886102408c0191821161036e576101008c01905b8282106103725750506101279060a08501998a52610396565b6102608b01519a6001600160401b038c168c0361036e576102808101516102a08201519063ffffffff8216820361036e576102c08301519261ffff8416840361036e576102e06101779101610396565b9d8460805260a05260c05260e052610100528215610340576001600160a01b038a1615610312576001600160a01b0316151580610300575b6102c9576101205261014052515f5551600155516002555160035551600455515f5b600a81106102b457505060ff19600f5416600f556101605261018052604051611f1590816103ab8239608051818181610cad01526119b2015260a05181611a27015260c05181611a01015260e05181611a8101526101005181611a5701526101205181818161036f01528181610aa601528181610bd801528181610d46015281816112fb015281816114ad0152818161183601528181611ad801528181611b9b0152611c2c0152610140518181816102ab01526117f20152610160518181816105f00152610b3a0152610180518181816102f0015281816104a40152611b560152f35b600190602083519301928160050155016101d1565b60405162461bcd60e51b815260206004820152600f60248201526e2174776f2072616e646f6d6e65737360881b6044820152606490fd5b506001600160a01b038a1615156101af565b60405162461bcd60e51b815260206004820152600660248201526510b7bbb732b960d11b6044820152606490fd5b60405162461bcd60e51b8152602060048201526006602482015265085d985d5b1d60d21b6044820152606490fd5b5f80fd5b815181526020918201910161010e565b634e487b7160e01b5f52604160045260245ffd5b51906001600160a01b038216820361036e5756fe60806040526004361015610011575f80fd5b5f3560e01c80630496561d146101545780631fe543e31461014f57806324e7964a1461014a57806331db047b146101455780633588fd8014610140578063424aeded1461013b578063733d50381461013657806379502c55146101315780638b5b9ccc1461012c578063999dacb914610127578063ad5c21d914610122578063b0652a881461011d578063c2e5220614610118578063d1f9c24d14610113578063d4f77b1c1461010e578063d65ab5f214610109578063d7c81b5514610104578063e6ec2982146100ff578063f71d96cb146100fa5763fb9bdab4146100f5575f80fd5b610c8d565b610c46565b610bfb565b610bc1565b610b28565b6109ed565b6109c4565b610989565b6106e4565b610652565b6105db565b610561565b6104d3565b61048f565b61040e565b6103e2565b6102da565b610296565b6101fe565b610173565b600435906001600160a01b038216820361016f57565b5f80fd5b3461016f57602036600319011261016f576001600160a01b03610194610159565b165f526013602052602060405f2054604051908152f35b634e487b7160e01b5f52604160045260245ffd5b90601f8019910116810190811067ffffffffffffffff8211176101e157604052565b6101ab565b67ffffffffffffffff81116101e15760051b60200190565b3461016f57604036600319011261016f5760043560243567ffffffffffffffff811161016f573660238201121561016f5780600401359161023e836101e6565b9161024c60405193846101bf565b8383526024602084019460051b8201019036821161016f57602401935b81851061027c5761027a8484610caa565b005b8435815260209485019401610269565b5f91031261016f57565b3461016f575f36600319011261016f576040517f00000000000000000000000000000000000000000000000000000000000000006001600160a01b03168152602090f35b3461016f57602036600319011261016f576004357f00000000000000000000000000000000000000000000000000000000000000006001600160a01b031633036103b45761036d906103426001610333600f5460ff1690565b61033c816109a6565b14610dc3565b61034d811515610dfa565b61035f600260ff19600f541617600f55565b610368816112ec565b61149c565b7f00000000000000000000000000000000000000000000000000000000000000007f50ad08f58a27f2851d7e3a1b3a6a46b290f2ce677e99642d30ff639721e777905f80a2005b60405162461bcd60e51b81526020600482015260066024820152652172656c617960d01b6044820152606490fd5b3461016f575f36600319011261016f5760206103fc610e80565b6040516001600160a01b039091168152f35b3461016f57602036600319011261016f576001600160a01b0361042f610159565b165f52601160205260405f2060018060a01b03815416600182015490600d600284015493015460ff60405194859460a086019460018060a01b0316865260208601528181161515604086015260081c161515606084015260808301520390f35b3461016f575f36600319011261016f576040517f00000000000000000000000000000000000000000000000000000000000000006001600160a01b03168152602090f35b3461016f575f36600319011261016f5760a05f5460015460025460035490600454926040519485526020850152604084015260608301526080820152f35b90602080835192838152019201905f5b81811061052e5750505090565b82516001600160a01b0316845260209384019390920191600101610521565b90602061055e928181520190610511565b90565b3461016f575f36600319011261016f5760405180602060105491828152019060105f525f80516020611ec0833981519152905f5b8181106105bc576105b8856105ac818703826101bf565b6040519182918261054d565b0390f35b82546001600160a01b0316845260209093019260019283019201610595565b3461016f575f36600319011261016f576040517f00000000000000000000000000000000000000000000000000000000000000006001600160a01b03168152602090f35b61016081019392915f825b600a821061063c575050506101400152565b602080600192855181520193019101909161062a565b3461016f57602036600319011261016f5761066b610159565b610140908160405161067d82826101bf565b3690376001600160a01b03165f90815260116020526040808220600d810154915191939192600390910190835b600a82106106ce575050506106bf90826101bf565b6105b86040519283928361061f565b60016020819285548152019301910190916106aa565b3461016f57604036600319011261016f576106fd610159565b6024359060ff82169182810361016f5761072d600261071e600f5460ff1690565b610727816109a6565b14610ed0565b61076361075361073e601254610c29565b905460039190911b1c6001600160a01b031690565b6001600160a01b03163314610f07565b335f9081526011602052604090206107939061078e9061078a906002015460081c60ff1690565b1590565b610f3b565b6001600160a01b038216926107a9841515610f6d565b8061086e5750506107f6816107dd600d6107d4819560018060a01b03165f52601160205260405f2090565b0154151561105d565b6001600160a01b03165f90815260116020526040902090565b016108018154611043565b9055335f908152601160205260409020600d0161081e815461104f565b90556040515f81523391907f345ab5394e10f7b605071092c87ea512b2b9f3a616f8c85b996c2aa8a418c69c90602090a35b6108586115d5565b6108606115fe565b61086657005b61027a6117a9565b6109096108dd6109459395946108938460016108c6961015908161097d575b50610fa3565b600361089e88610fdb565b94826107dd6108d66108cc89866108c6829960018060a01b03165f52601160205260405f2090565b01610ffe565b90549060031b1c90565b151561100d565b6108f36108ee8284549060031b1c90565b611043565b82545f1960039390931b92831b1916911b179055565b335f90815260116020526040902061093f906109299083906003906108c6565b6108f361093a8284549060031b1c90565b61104f565b33611565565b60405160ff92909216825233917f345ab5394e10f7b605071092c87ea512b2b9f3a616f8c85b996c2aa8a418c69c90602090a3610850565b600a915011155f61088d565b3461016f575f36600319011261016f576020601054604051908152f35b600411156109b057565b634e487b7160e01b5f52602160045260245ffd5b3461016f575f36600319011261016f5760ff600f541660405160048210156109b0576020918152f35b5f36600319011261016f57610a16610a07600f5460ff1690565b610a10816109a6565b15611094565b335f90815260116020526040902060020154610a359060ff16156110cb565b610a4460105460015411611100565b60035480610b015750610a5a6002543414611166565b335f908152601160205260409020610a939060029080546001600160a01b0319163317815534600182015501600160ff19825416179055565b610a9c336111a0565b60405134815233907f0000000000000000000000000000000000000000000000000000000000000000907f03dfbe1fcb4e2d61f3b4a0c93d8f814c92250618b3387f396cc9fc9fafe2c20390602090a360105460015414610af957005b61027a6119a1565b610b18906002543410159081610b1d575b50611132565b610a5a565b90503411155f610b12565b3461016f575f36600319011261016f577f00000000000000000000000000000000000000000000000000000000000000006001600160a01b03163303610b9357610b77610a07600f5460ff1690565b610af9601054610b8a5f548210156111f7565b60015411611229565b60405162461bcd60e51b815260206004820152600660248201526510b7bbb732b960d11b6044820152606490fd5b3461016f575f36600319011261016f5760206040517f00000000000000000000000000000000000000000000000000000000000000008152f35b3461016f575f36600319011261016f5760206103fc611262565b634e487b7160e01b5f52603260045260245ffd5b601054811015610c415760105f5260205f2001905f90565b610c15565b3461016f57602036600319011261016f5760043560105481101561016f5760105f525f80516020611ec083398151915201546040516001600160a01b039091168152602090f35b3461016f575f36600319011261016f576020601254604051908152f35b507f00000000000000000000000000000000000000000000000000000000000000006001600160a01b03168015159081610db9575b5015610d8b5760ff600f541660048110156109b057610d4491610d076001610d3e9314610dc3565b610d15600182511015611296565b610d27600260ff19600f541617600f55565b610d39610d33826112cb565b516112ec565b6112cb565b5161149c565b7f00000000000000000000000000000000000000000000000000000000000000007f50ad08f58a27f2851d7e3a1b3a6a46b290f2ce677e99642d30ff639721e777905f80a2565b60405162461bcd60e51b81526020600482015260066024820152650858dbdbdc9960d21b6044820152606490fd5b905033145f610cdf565b15610dca57565b60405162461bcd60e51b8152602060048201526008602482015267216465616c696e6760c01b6044820152606490fd5b15610e0157565b60405162461bcd60e51b8152602060048201526005602482015264217a65726f60d81b6044820152606490fd5b634e487b7160e01b5f52601160045260245ffd5b9060018201809211610e5057565b610e2e565b91908201809211610e5057565b8115610e6c570690565b634e487b7160e01b5f52601260045260245ffd5b60105460028110610ecb5760125460018101809111610e505781610ea391610e62565b90811015610c415760105f525f80516020611ec083398151915201546001600160a01b031690565b505f90565b15610ed757565b60405162461bcd60e51b815260206004820152600860248201526721706c6179696e6760c01b6044820152606490fd5b15610f0e57565b60405162461bcd60e51b815260206004820152600560248201526410ba3ab93760d91b6044820152606490fd5b15610f4257565b60405162461bcd60e51b81526020600482015260036024820152621bdd5d60ea1b6044820152606490fd5b15610f7457565b60405162461bcd60e51b8152602060048201526007602482015266085d185c99d95d60ca1b6044820152606490fd5b15610faa57565b60405162461bcd60e51b815260206004820152600960248201526806361726420312d31360bc1b6044820152606490fd5b60ff5f199116019060ff8211610e5057565b600a811015610c4157600501905f90565b600a821015610c415701905f90565b1561101457565b60405162461bcd60e51b81526020600482015260076024820152661b9bc818d85c9960ca1b6044820152606490fd5b8015610e50575f190190565b5f198114610e505760010190565b1561106457565b60405162461bcd60e51b81526020600482015260086024820152673737903537b5b2b960c11b6044820152606490fd5b1561109b57565b60405162461bcd60e51b81526020600482015260086024820152672170656e64696e6760c01b6044820152606490fd5b156110d257565b60405162461bcd60e51b81526020600482015260066024820152651a9bda5b995960d21b6044820152606490fd5b1561110757565b606460405162461bcd60e51b8152602060048201526004602482015263199d5b1b60e21b6044820152fd5b1561113957565b60405162461bcd60e51b815260206004820152600560248201526472616e676560d81b6044820152606490fd5b1561116d57565b60405162461bcd60e51b815260206004820152600b60248201526a6669786564207374616b6560a81b6044820152606490fd5b601054680100000000000000008110156101e15760018101601055601054811015610c415760105f525f80516020611ec08339815191520180546001600160a01b0319166001600160a01b03909216919091179055565b156111fe57565b606460405162461bcd60e51b815260206004820152600460248201526310b6b4b760e11b6044820152fd5b1561123057565b60405162461bcd60e51b815260206004820152600a6024820152692166756c6c206175746f60b01b6044820152606490fd5b6010548015610ecb5760125490811015610c415760105f525f80516020611ec083398151915201546001600160a01b031690565b1561129d57565b60405162461bcd60e51b815260206004820152600660248201526521776f72647360d01b6044820152606490fd5b805115610c415760200190565b8051821015610c415760209160051b010190565b6010546112f7611ca7565b80517f0000000000000000000000000000000000000000000000000000000000000000915f5b82811061142557505f5b8281106113cc57505050600454925f5b848110611345575050505050565b604080516020810184815291810185905230606090811b6001600160601b0319169082015260748101839052600160f81b609482015260019291600d916113b9916107dd9161073e916113b4918b91906113ac81609581015b03601f1981018352826101bf565b519020610e62565b610c29565b016113c48154610e42565b905501611337565b8061141f6113e261073e6113b489600196610e62565b6113f66113ef84876112d8565b5160ff1690565b9061141a6109298360036108c68560018060a01b03165f52601160205260405f2090565b611565565b01611327565b604080516020810188815291810186905230606090811b6001600160601b031916908201526074810183905260019291611469918691906113ac816094810161139e565b61147381856112d8565b519061148a61148284876112d8565b5191866112d8565b5261149582856112d8565b520161131d565b903060601b6001600160601b0319167f00000000000000000000000000000000000000000000000000000000000000005f5b60105481101561155e5760105f525f80516020611ec08339815191528101546040805160208101888152918101859052606080820187905283901b6001600160601b031916607482015260688152600193926001600160a01b031691611557916115396088826101bf565b5190206001600160a01b039092165f90815260136020526040902090565b55016114ce565b5050509050565b60018060a01b031690815f52601160205261158681600360405f2001610ffe565b90549060031b1c90600282101561159c57505050565b6115b96001916115d3945f526011602052600360405f2001610ffe565b919092169082549060031b91821b915f19901b1916179055565b565b60105480156115fb576012549060018201809211610e50576115f691610e62565b601255565b50565b6010545f5b818110611611575050600190565b61161d61073e82610c29565b5f5b600a60ff821610611634575050600101611603565b6116576108cc8260036108c68660018060a01b03165f52601160205260405f2090565b6116665760010160ff1661161f565b505050505f90565b90611678826101e6565b61168560405191826101bf565b8281528092611696601f19916101e6565b0190602036910137565b156116a757565b60405162461bcd60e51b81526020600482015260086024820152672177696e6e65727360c01b6044820152606490fd5b3d15611711573d9067ffffffffffffffff82116101e15760405191611706601f8201601f1916602001846101bf565b82523d5f602084013e565b606090565b1561171d57565b60405162461bcd60e51b815260206004820152600960248201526810ba3930b739b332b960b91b6044820152606490fd5b9161176b9061055e94928452606060208501526060840190610511565b916040818403910152610511565b6040513d5f823e3d90fd5b909161179b61055e93604084526040840190610511565b916020818403910152610511565b6117bb600360ff19600f541617600f55565b6010546117c78161166e565b906117d18161166e565b905f80915f5b8181106118e557505083528082526117f09015156116a0565b7f00000000000000000000000000000000000000000000000000000000000000006001600160a01b0316906118345f80808047875af161182e6116d7565b50611716565b7f000000000000000000000000000000000000000000000000000000000000000092823b1561016f575f6040518094633951114160e11b825281838161187f87898c6004850161174e565b03925af19283156118e0577fec9076d3d1e4910861e8852ef3e8820904b6868d2e5c85563e5c82f45c776d1f936118c6575b506118c160405192839283611784565b0390a2565b806118d45f6118da936101bf565b8061028c565b5f6118b1565b611779565b806118f461073e600193610c29565b6001600160a01b0381165f908152601160205260409020600d0154156119405761193a9061192b6119248761104f565b968a6112d8565b6001600160a01b039091169052565b016117d7565b6119579061192b6119508861104f565b97896112d8565b61193a565b1561196357565b60405162461bcd60e51b8152602060048201526007602482015266042cadcdeeaced60cb1b6044820152606490fd5b9081602091031261016f575190565b6119b06010545f54111561195c565b7f00000000000000000000000000000000000000000000000000000000000000006001600160a01b03168015611b53576119f2600160ff19600f541617600f55565b6040516305d3b1d360e41b81527f000000000000000000000000000000000000000000000000000000000000000060048201527f000000000000000000000000000000000000000000000000000000000000000067ffffffffffffffff1660248201527f000000000000000000000000000000000000000000000000000000000000000061ffff1660448201527f000000000000000000000000000000000000000000000000000000000000000063ffffffff1660648201526001608482015290602090829060a49082905f905af19081156118e0575f91611b24575b506040519081527f0000000000000000000000000000000000000000000000000000000000000000907febd9e8fb61fd5a6473b57d787d7ea3595ba98407bd8c0d74d9b0a5d666aa8d8a9080602081016118c1565b611b46915060203d602011611b4c575b611b3e81836101bf565b810190611992565b5f611acf565b503d611b34565b507f00000000000000000000000000000000000000000000000000000000000000006001600160a01b031615611c0c57611b95600160ff19600f541617600f55565b604080517f00000000000000000000000000000000000000000000000000000000000000006020820181815230938301939093529190611bd8816060810161139e565b5190206040519081523091907f95c8b02c7934a4bb418d4b844ca008175046665e9ddfb7903dda0ce4dd450cf090602090a3565b611c1e600260ff19600f541617600f55565b6040805142602082019081527f000000000000000000000000000000000000000000000000000000000000000092820183905230606090811b6001600160601b03191690830152611c8191611c76816074810161139e565b519020610368611d36565b7f50ad08f58a27f2851d7e3a1b3a6a46b290f2ce677e99642d30ff639721e777905f80a2565b5f805b600a8210611d1657611cbc915061166e565b5f915f5b60ff8116600a811015611d0f57611cd96108cc83610fed565b905f5b828110611cf15750505060010160ff16611cc0565b60019082611d08611d018a61104f565b99896112d8565b5201611cdc565b5050915090565b611d2e600191611d286108cc85610fed565b90610e55565b910190611caa565b60105490611d42611dd3565b915f5b8351811015611d775780611d71611d6461073e6113b486600196610e62565b6113f66113ef84896112d8565b01611d45565b506004549192505f5b828110611d8c57505050565b600190600d611dc06107dd61073e6113b48760405160208101906113ac8161139e8b42869091604092825260208201520190565b01611dcb8154610e42565b905501611d80565b5f805b600a8210611ea557611de8915061166e565b5f915f5b60ff8116600a811015611e3457611e056108cc83610fed565b905f5b828110611e1d5750505060010160ff16611dec565b60019082611e2d611d018a61104f565b5201611e08565b505091505f5b8151811015611ea157600190611e766040516020810190611e6b8161139e8642869091604092825260208201520190565b519020845190610e62565b611e8081856112d8565b5190611e8f61148284876112d8565b52611e9a82856112d8565b5201611e3a565b5090565b611eb7600191611d286108cc85610fed565b910190611dd656fe1b6847dc741a1b0cd08d278845f9d819d87b734759afb55fe2de5cb82a9ae672a264697066735822122025cb79cd837462dcaf862d04e799aeae0d8cc2940819618eee8dd797af60a0c164736f6c634300081a0033",
			"opcodes": "PUSH2 0x1A0 PUSH1 0x40 MSTORE CALLVALUE PUSH2 0x36E JUMPI PUSH1 0x40 MLOAD PUSH2 0x22C0 CODESIZE DUP2 SWAP1 SUB SWAP1 PUSH1 0x1F DUP3 ADD PUSH1 0x1F NOT AND DUP4 ADD SWAP1 PUSH1 0x1 PUSH1 0x1 PUSH1 0x40 SHL SUB DUP3 GT DUP5 DUP4 LT OR PUSH2 0x382 JUMPI DUP3 SWAP2 PUSH1 0x40 MSTORE DUP4 CODECOPY DUP2 ADD DUP2 DUP2 SUB SWAP1 PUSH2 0x300 DUP3 SLT PUSH2 0x36E JUMPI DUP3 MLOAD PUSH1 0x20 DUP5 ADD MLOAD PUSH1 0x1 PUSH1 0x1 PUSH1 0xA0 SHL SUB DUP2 AND SWAP1 DUP2 SWAP1 SUB PUSH2 0x36E JUMPI PUSH2 0x1E0 PUSH2 0x70 PUSH1 0x40 DUP8 ADD PUSH2 0x396 JUMP JUMPDEST SWAP5 PUSH1 0x5F NOT ADD SLT PUSH2 0x36E JUMPI PUSH1 0x40 MLOAD PUSH1 0xC0 DUP2 ADD PUSH1 0x1 PUSH1 0x1 PUSH1 0x40 SHL SUB DUP2 GT DUP3 DUP3 LT OR PUSH2 0x382 JUMPI PUSH1 0x40 MSTORE PUSH1 0x60 DUP7 ADD MLOAD DUP2 MSTORE PUSH1 0x80 DUP7 ADD MLOAD PUSH1 0x20 DUP3 ADD SWAP1 DUP2 MSTORE PUSH1 0xA0 DUP8 ADD MLOAD SWAP2 PUSH1 0x40 DUP2 ADD SWAP3 DUP4 MSTORE PUSH1 0xC0 DUP9 ADD MLOAD SWAP4 PUSH1 0x60 DUP3 ADD SWAP5 DUP6 MSTORE PUSH1 0xE0 DUP10 ADD MLOAD SWAP6 PUSH1 0x80 DUP4 ADD SWAP7 DUP8 MSTORE DUP8 PUSH2 0x11F DUP12 ADD SLT ISZERO PUSH2 0x36E JUMPI PUSH1 0x40 MLOAD SWAP8 PUSH2 0x140 DUP10 ADD PUSH1 0x1 PUSH1 0x1 PUSH1 0x40 SHL SUB DUP2 GT DUP11 DUP3 LT OR PUSH2 0x382 JUMPI PUSH1 0x40 MSTORE DUP9 PUSH2 0x240 DUP13 ADD SWAP2 DUP3 GT PUSH2 0x36E JUMPI PUSH2 0x100 DUP13 ADD SWAP1 JUMPDEST DUP3 DUP3 LT PUSH2 0x372 JUMPI POP POP PUSH2 0x127 SWAP1 PUSH1 0xA0 DUP6 ADD SWAP10 DUP11 MSTORE PUSH2 0x396 JUMP JUMPDEST PUSH2 0x260 DUP12 ADD MLOAD SWAP11 PUSH1 0x1 PUSH1 0x1 PUSH1 0x40 SHL SUB DUP13 AND DUP13 SUB PUSH2 0x36E JUMPI PUSH2 0x280 DUP2 ADD MLOAD PUSH2 0x2A0 DUP3 ADD MLOAD SWAP1 PUSH4 0xFFFFFFFF DUP3 AND DUP3 SUB PUSH2 0x36E JUMPI PUSH2 0x2C0 DUP4 ADD MLOAD SWAP3 PUSH2 0xFFFF DUP5 AND DUP5 SUB PUSH2 0x36E JUMPI PUSH2 0x2E0 PUSH2 0x177 SWAP2 ADD PUSH2 0x396 JUMP JUMPDEST SWAP14 DUP5 PUSH1 0x80 MSTORE PUSH1 0xA0 MSTORE PUSH1 0xC0 MSTORE PUSH1 0xE0 MSTORE PUSH2 0x100 MSTORE DUP3 ISZERO PUSH2 0x340 JUMPI PUSH1 0x1 PUSH1 0x1 PUSH1 0xA0 SHL SUB DUP11 AND ISZERO PUSH2 0x312 JUMPI PUSH1 0x1 PUSH1 0x1 PUSH1 0xA0 SHL SUB AND ISZERO ISZERO DUP1 PUSH2 0x300 JUMPI JUMPDEST PUSH2 0x2C9 JUMPI PUSH2 0x120 MSTORE PUSH2 0x140 MSTORE MLOAD PUSH0 SSTORE MLOAD PUSH1 0x1 SSTORE MLOAD PUSH1 0x2 SSTORE MLOAD PUSH1 0x3 SSTORE MLOAD PUSH1 0x4 SSTORE MLOAD PUSH0 JUMPDEST PUSH1 0xA DUP2 LT PUSH2 0x2B4 JUMPI POP POP PUSH1 0xFF NOT PUSH1 0xF SLOAD AND PUSH1 0xF SSTORE PUSH2 0x160 MSTORE PUSH2 0x180 MSTORE PUSH1 0x40 MLOAD PUSH2 0x1F15 SWAP1 DUP2 PUSH2 0x3AB DUP3 CODECOPY PUSH1 0x80 MLOAD DUP2 DUP2 DUP2 PUSH2 0xCAD ADD MSTORE PUSH2 0x19B2 ADD MSTORE PUSH1 0xA0 MLOAD DUP2 PUSH2 0x1A27 ADD MSTORE PUSH1 0xC0 MLOAD DUP2 PUSH2 0x1A01 ADD MSTORE PUSH1 0xE0 MLOAD DUP2 PUSH2 0x1A81 ADD MSTORE PUSH2 0x100 MLOAD DUP2 PUSH2 0x1A57 ADD MSTORE PUSH2 0x120 MLOAD DUP2 DUP2 DUP2 PUSH2 0x36F ADD MSTORE DUP2 DUP2 PUSH2 0xAA6 ADD MSTORE DUP2 DUP2 PUSH2 0xBD8 ADD MSTORE DUP2 DUP2 PUSH2 0xD46 ADD MSTORE DUP2 DUP2 PUSH2 0x12FB ADD MSTORE DUP2 DUP2 PUSH2 0x14AD ADD MSTORE DUP2 DUP2 PUSH2 0x1836 ADD MSTORE DUP2 DUP2 PUSH2 0x1AD8 ADD MSTORE DUP2 DUP2 PUSH2 0x1B9B ADD MSTORE PUSH2 0x1C2C ADD MSTORE PUSH2 0x140 MLOAD DUP2 DUP2 DUP2 PUSH2 0x2AB ADD MSTORE PUSH2 0x17F2 ADD MSTORE PUSH2 0x160 MLOAD DUP2 DUP2 DUP2 PUSH2 0x5F0 ADD MSTORE PUSH2 0xB3A ADD MSTORE PUSH2 0x180 MLOAD DUP2 DUP2 DUP2 PUSH2 0x2F0 ADD MSTORE DUP2 DUP2 PUSH2 0x4A4 ADD MSTORE PUSH2 0x1B56 ADD MSTORE RETURN JUMPDEST PUSH1 0x1 SWAP1 PUSH1 0x20 DUP4 MLOAD SWAP4 ADD SWAP3 DUP2 PUSH1 0x5 ADD SSTORE ADD PUSH2 0x1D1 JUMP JUMPDEST PUSH1 0x40 MLOAD PUSH3 0x461BCD PUSH1 0xE5 SHL DUP2 MSTORE PUSH1 0x20 PUSH1 0x4 DUP3 ADD MSTORE PUSH1 0xF PUSH1 0x24 DUP3 ADD MSTORE PUSH15 0x2174776F2072616E646F6D6E657373 PUSH1 0x88 SHL PUSH1 0x44 DUP3 ADD MSTORE PUSH1 0x64 SWAP1 REVERT JUMPDEST POP PUSH1 0x1 PUSH1 0x1 PUSH1 0xA0 SHL SUB DUP11 AND ISZERO ISZERO PUSH2 0x1AF JUMP JUMPDEST PUSH1 0x40 MLOAD PUSH3 0x461BCD PUSH1 0xE5 SHL DUP2 MSTORE PUSH1 0x20 PUSH1 0x4 DUP3 ADD MSTORE PUSH1 0x6 PUSH1 0x24 DUP3 ADD MSTORE PUSH6 0x10B7BBB732B9 PUSH1 0xD1 SHL PUSH1 0x44 DUP3 ADD MSTORE PUSH1 0x64 SWAP1 REVERT JUMPDEST PUSH1 0x40 MLOAD PUSH3 0x461BCD PUSH1 0xE5 SHL DUP2 MSTORE PUSH1 0x20 PUSH1 0x4 DUP3 ADD MSTORE PUSH1 0x6 PUSH1 0x24 DUP3 ADD MSTORE PUSH6 0x85D985D5B1D PUSH1 0xD2 SHL PUSH1 0x44 DUP3 ADD MSTORE PUSH1 0x64 SWAP1 REVERT JUMPDEST PUSH0 DUP1 REVERT JUMPDEST DUP2 MLOAD DUP2 MSTORE PUSH1 0x20 SWAP2 DUP3 ADD SWAP2 ADD PUSH2 0x10E JUMP JUMPDEST PUSH4 0x4E487B71 PUSH1 0xE0 SHL PUSH0 MSTORE PUSH1 0x41 PUSH1 0x4 MSTORE PUSH1 0x24 PUSH0 REVERT JUMPDEST MLOAD SWAP1 PUSH1 0x1 PUSH1 0x1 PUSH1 0xA0 SHL SUB DUP3 AND DUP3 SUB PUSH2 0x36E JUMPI JUMP INVALID PUSH1 0x80 PUSH1 0x40 MSTORE PUSH1 0x4 CALLDATASIZE LT ISZERO PUSH2 0x11 JUMPI PUSH0 DUP1 REVERT JUMPDEST PUSH0 CALLDATALOAD PUSH1 0xE0 SHR DUP1 PUSH4 0x496561D EQ PUSH2 0x154 JUMPI DUP1 PUSH4 0x1FE543E3 EQ PUSH2 0x14F JUMPI DUP1 PUSH4 0x24E7964A EQ PUSH2 0x14A JUMPI DUP1 PUSH4 0x31DB047B EQ PUSH2 0x145 JUMPI DUP1 PUSH4 0x3588FD80 EQ PUSH2 0x140 JUMPI DUP1 PUSH4 0x424AEDED EQ PUSH2 0x13B JUMPI DUP1 PUSH4 0x733D5038 EQ PUSH2 0x136 JUMPI DUP1 PUSH4 0x79502C55 EQ PUSH2 0x131 JUMPI DUP1 PUSH4 0x8B5B9CCC EQ PUSH2 0x12C JUMPI DUP1 PUSH4 0x999DACB9 EQ PUSH2 0x127 JUMPI DUP1 PUSH4 0xAD5C21D9 EQ PUSH2 0x122 JUMPI DUP1 PUSH4 0xB0652A88 EQ PUSH2 0x11D JUMPI DUP1 PUSH4 0xC2E52206 EQ PUSH2 0x118 JUMPI DUP1 PUSH4 0xD1F9C24D EQ PUSH2 0x113 JUMPI DUP1 PUSH4 0xD4F77B1C EQ PUSH2 0x10E JUMPI DUP1 PUSH4 0xD65AB5F2 EQ PUSH2 0x109 JUMPI DUP1 PUSH4 0xD7C81B55 EQ PUSH2 0x104 JUMPI DUP1 PUSH4 0xE6EC2982 EQ PUSH2 0xFF JUMPI DUP1 PUSH4 0xF71D96CB EQ PUSH2 0xFA JUMPI PUSH4 0xFB9BDAB4 EQ PUSH2 0xF5 JUMPI PUSH0 DUP1 REVERT JUMPDEST PUSH2 0xC8D JUMP JUMPDEST PUSH2 0xC46 JUMP JUMPDEST PUSH2 0xBFB JUMP JUMPDEST PUSH2 0xBC1 JUMP JUMPDEST PUSH2 0xB28 JUMP JUMPDEST PUSH2 0x9ED JUMP JUMPDEST PUSH2 0x9C4 JUMP JUMPDEST PUSH2 0x989 JUMP JUMPDEST PUSH2 0x6E4 JUMP JUMPDEST PUSH2 0x652 JUMP JUMPDEST PUSH2 0x5DB JUMP JUMPDEST PUSH2 0x561 JUMP JUMPDEST PUSH2 0x4D3 JUMP JUMPDEST PUSH2 0x48F JUMP JUMPDEST PUSH2 0x40E JUMP JUMPDEST PUSH2 0x3E2 JUMP JUMPDEST PUSH2 0x2DA JUMP JUMPDEST PUSH2 0x296 JUMP JUMPDEST PUSH2 0x1FE JUMP JUMPDEST PUSH2 0x173 JUMP JUMPDEST PUSH1 0x4 CALLDATALOAD SWAP1 PUSH1 0x1 PUSH1 0x1 PUSH1 0xA0 SHL SUB DUP3 AND DUP3 SUB PUSH2 0x16F JUMPI JUMP JUMPDEST PUSH0 DUP1 REVERT JUMPDEST CALLVALUE PUSH2 0x16F JUMPI PUSH1 0x20 CALLDATASIZE PUSH1 0x3 NOT ADD SLT PUSH2 0x16F JUMPI PUSH1 0x1 PUSH1 0x1 PUSH1 0xA0 SHL SUB PUSH2 0x194 PUSH2 0x159 JUMP JUMPDEST AND PUSH0 MSTORE PUSH1 0x13 PUSH1 0x20 MSTORE PUSH1 0x20 PUSH1 0x40 PUSH0 KECCAK256 SLOAD PUSH1 0x40 MLOAD SWAP1 DUP2 MSTORE RETURN JUMPDEST PUSH4 0x4E487B71 PUSH1 0xE0 SHL PUSH0 MSTORE PUSH1 0x41 PUSH1 0x4 MSTORE PUSH1 0x24 PUSH0 REVERT JUMPDEST SWAP1 PUSH1 0x1F DUP1 NOT SWAP2 ADD AND DUP2 ADD SWAP1 DUP2 LT PUSH8 0xFFFFFFFFFFFFFFFF DUP3 GT OR PUSH2 0x1E1 JUMPI PUSH1 0x40 MSTORE JUMP JUMPDEST PUSH2 0x1AB JUMP JUMPDEST PUSH8 0xFFFFFFFFFFFFFFFF DUP2 GT PUSH2 0x1E1 JUMPI PUSH1 0x5 SHL PUSH1 0x20 ADD SWAP1 JUMP JUMPDEST CALLVALUE PUSH2 0x16F JUMPI PUSH1 0x40 CALLDATASIZE PUSH1 0x3 NOT ADD SLT PUSH2 0x16F JUMPI PUSH1 0x4 CALLDATALOAD PUSH1 0x24 CALLDATALOAD PUSH8 0xFFFFFFFFFFFFFFFF DUP2 GT PUSH2 0x16F JUMPI CALLDATASIZE PUSH1 0x23 DUP3 ADD SLT ISZERO PUSH2 0x16F JUMPI DUP1 PUSH1 0x4 ADD CALLDATALOAD SWAP2 PUSH2 0x23E DUP4 PUSH2 0x1E6 JUMP JUMPDEST SWAP2 PUSH2 0x24C PUSH1 0x40 MLOAD SWAP4 DUP5 PUSH2 0x1BF JUMP JUMPDEST DUP4 DUP4 MSTORE PUSH1 0x24 PUSH1 0x20 DUP5 ADD SWAP5 PUSH1 0x5 SHL DUP3 ADD ADD SWAP1 CALLDATASIZE DUP3 GT PUSH2 0x16F JUMPI PUSH1 0x24 ADD SWAP4 JUMPDEST DUP2 DUP6 LT PUSH2 0x27C JUMPI PUSH2 0x27A DUP5 DUP5 PUSH2 0xCAA JUMP JUMPDEST STOP JUMPDEST DUP5 CALLDATALOAD DUP2 MSTORE PUSH1 0x20 SWAP5 DUP6 ADD SWAP5 ADD PUSH2 0x269 JUMP JUMPDEST PUSH0 SWAP2 SUB SLT PUSH2 0x16F JUMPI JUMP JUMPDEST CALLVALUE PUSH2 0x16F JUMPI PUSH0 CALLDATASIZE PUSH1 0x3 NOT ADD SLT PUSH2 0x16F JUMPI PUSH1 0x40 MLOAD PUSH32 0x0 PUSH1 0x1 PUSH1 0x1 PUSH1 0xA0 SHL SUB AND DUP2 MSTORE PUSH1 0x20 SWAP1 RETURN JUMPDEST CALLVALUE PUSH2 0x16F JUMPI PUSH1 0x20 CALLDATASIZE PUSH1 0x3 NOT ADD SLT PUSH2 0x16F JUMPI PUSH1 0x4 CALLDATALOAD PUSH32 0x0 PUSH1 0x1 PUSH1 0x1 PUSH1 0xA0 SHL SUB AND CALLER SUB PUSH2 0x3B4 JUMPI PUSH2 0x36D SWAP1 PUSH2 0x342 PUSH1 0x1 PUSH2 0x333 PUSH1 0xF SLOAD PUSH1 0xFF AND SWAP1 JUMP JUMPDEST PUSH2 0x33C DUP2 PUSH2 0x9A6 JUMP JUMPDEST EQ PUSH2 0xDC3 JUMP JUMPDEST PUSH2 0x34D DUP2 ISZERO ISZERO PUSH2 0xDFA JUMP JUMPDEST PUSH2 0x35F PUSH1 0x2 PUSH1 0xFF NOT PUSH1 0xF SLOAD AND OR PUSH1 0xF SSTORE JUMP JUMPDEST PUSH2 0x368 DUP2 PUSH2 0x12EC JUMP JUMPDEST PUSH2 0x149C JUMP JUMPDEST PUSH32 0x0 PUSH32 0x50AD08F58A27F2851D7E3A1B3A6A46B290F2CE677E99642D30FF639721E77790 PUSH0 DUP1 LOG2 STOP JUMPDEST PUSH1 0x40 MLOAD PUSH3 0x461BCD PUSH1 0xE5 SHL DUP2 MSTORE PUSH1 0x20 PUSH1 0x4 DUP3 ADD MSTORE PUSH1 0x6 PUSH1 0x24 DUP3 ADD MSTORE PUSH6 0x2172656C6179 PUSH1 0xD0 SHL PUSH1 0x44 DUP3 ADD MSTORE PUSH1 0x64 SWAP1 REVERT JUMPDEST CALLVALUE PUSH2 0x16F JUMPI PUSH0 CALLDATASIZE PUSH1 0x3 NOT ADD SLT PUSH2 0x16F JUMPI PUSH1 0x20 PUSH2 0x3FC PUSH2 0xE80 JUMP JUMPDEST PUSH1 0x40 MLOAD PUSH1 0x1 PUSH1 0x1 PUSH1 0xA0 SHL SUB SWAP1 SWAP2 AND DUP2 MSTORE RETURN JUMPDEST CALLVALUE PUSH2 0x16F JUMPI PUSH1 0x20 CALLDATASIZE PUSH1 0x3 NOT ADD SLT PUSH2 0x16F JUMPI PUSH1 0x1 PUSH1 0x1 PUSH1 0xA0 SHL SUB PUSH2 0x42F PUSH2 0x159 JUMP JUMPDEST AND PUSH0 MSTORE PUSH1 0x11 PUSH1 0x20 MSTORE PUSH1 0x40 PUSH0 KECCAK256 PUSH1 0x1 DUP1 PUSH1 0xA0 SHL SUB DUP2 SLOAD AND PUSH1 0x1 DUP3 ADD SLOAD SWAP1 PUSH1 0xD PUSH1 0x2 DUP5 ADD SLOAD SWAP4 ADD SLOAD PUSH1 0xFF PUSH1 0x40 MLOAD SWAP5 DUP6 SWAP5 PUSH1 0xA0 DUP7 ADD SWAP5 PUSH1 0x1 DUP1 PUSH1 0xA0 SHL SUB AND DUP7 MSTORE PUSH1 0x20 DUP7 ADD MSTORE DUP2 DUP2 AND ISZERO ISZERO PUSH1 0x40 DUP7 ADD MSTORE PUSH1 0x8 SHR AND ISZERO ISZERO PUSH1 0x60 DUP5 ADD MSTORE PUSH1 0x80 DUP4 ADD MSTORE SUB SWAP1 RETURN JUMPDEST CALLVALUE PUSH2 0x16F JUMPI PUSH0 CALLDATASIZE PUSH1 0x3 NOT ADD SLT PUSH2 0x16F JUMPI PUSH1 0x40 MLOAD PUSH32 0x0 PUSH1 0x1 PUSH1 0x1 PUSH1 0xA0 SHL SUB AND DUP2 MSTORE PUSH1 0x20 SWAP1 RETURN JUMPDEST CALLVALUE PUSH2 0x16F JUMPI PUSH0 CALLDATASIZE PUSH1 0x3 NOT ADD SLT PUSH2 0x16F JUMPI PUSH1 0xA0 PUSH0 SLOAD PUSH1 0x1 SLOAD PUSH1 0x2 SLOAD PUSH1 0x3 SLOAD SWAP1 PUSH1 0x4 SLOAD SWAP3 PUSH1 0x40 MLOAD SWAP5 DUP6 MSTORE PUSH1 0x20 DUP6 ADD MSTORE PUSH1 0x40 DUP5 ADD MSTORE PUSH1 0x60 DUP4 ADD MSTORE PUSH1 0x80 DUP3 ADD MSTORE RETURN JUMPDEST SWAP1 PUSH1 0x20 DUP1 DUP4 MLOAD SWAP3 DUP4 DUP2 MSTORE ADD SWAP3 ADD SWAP1 PUSH0 JUMPDEST DUP2 DUP2 LT PUSH2 0x52E JUMPI POP POP POP SWAP1 JUMP JUMPDEST DUP3 MLOAD PUSH1 0x1 PUSH1 0x1 PUSH1 0xA0 SHL SUB AND DUP5 MSTORE PUSH1 0x20 SWAP4 DUP5 ADD SWAP4 SWAP1 SWAP3 ADD SWAP2 PUSH1 0x1 ADD PUSH2 0x521 JUMP JUMPDEST SWAP1 PUSH1 0x20 PUSH2 0x55E SWAP3 DUP2 DUP2 MSTORE ADD SWAP1 PUSH2 0x511 JUMP JUMPDEST SWAP1 JUMP JUMPDEST CALLVALUE PUSH2 0x16F JUMPI PUSH0 CALLDATASIZE PUSH1 0x3 NOT ADD SLT PUSH2 0x16F JUMPI PUSH1 0x40 MLOAD DUP1 PUSH1 0x20 PUSH1 0x10 SLOAD SWAP2 DUP3 DUP2 MSTORE ADD SWAP1 PUSH1 0x10 PUSH0 MSTORE PUSH0 DUP1 MLOAD PUSH1 0x20 PUSH2 0x1EC0 DUP4 CODECOPY DUP2 MLOAD SWAP2 MSTORE SWAP1 PUSH0 JUMPDEST DUP2 DUP2 LT PUSH2 0x5BC JUMPI PUSH2 0x5B8 DUP6 PUSH2 0x5AC DUP2 DUP8 SUB DUP3 PUSH2 0x1BF JUMP JUMPDEST PUSH1 0x40 MLOAD SWAP2 DUP3 SWAP2 DUP3 PUSH2 0x54D JUMP JUMPDEST SUB SWAP1 RETURN JUMPDEST DUP3 SLOAD PUSH1 0x1 PUSH1 0x1 PUSH1 0xA0 SHL SUB AND DUP5 MSTORE PUSH1 0x20 SWAP1 SWAP4 ADD SWAP3 PUSH1 0x1 SWAP3 DUP4 ADD SWAP3 ADD PUSH2 0x595 JUMP JUMPDEST CALLVALUE PUSH2 0x16F JUMPI PUSH0 CALLDATASIZE PUSH1 0x3 NOT ADD SLT PUSH2 0x16F JUMPI PUSH1 0x40 MLOAD PUSH32 0x0 PUSH1 0x1 PUSH1 0x1 PUSH1 0xA0 SHL SUB AND DUP2 MSTORE PUSH1 0x20 SWAP1 RETURN JUMPDEST PUSH2 0x160 DUP2 ADD SWAP4 SWAP3 SWAP2 PUSH0 DUP3 JUMPDEST PUSH1 0xA DUP3 LT PUSH2 0x63C JUMPI POP POP POP PUSH2 0x140 ADD MSTORE JUMP JUMPDEST PUSH1 0x20 DUP1 PUSH1 0x1 SWAP3 DUP6 MLOAD DUP2 MSTORE ADD SWAP4 ADD SWAP2 ADD SWAP1 SWAP2 PUSH2 0x62A JUMP JUMPDEST CALLVALUE PUSH2 0x16F JUMPI PUSH1 0x20 CALLDATASIZE PUSH1 0x3 NOT ADD SLT PUSH2 0x16F JUMPI PUSH2 0x66B PUSH2 0x159 JUMP JUMPDEST PUSH2 0x140 SWAP1 DUP2 PUSH1 0x40 MLOAD PUSH2 0x67D DUP3 DUP3 PUSH2 0x1BF JUMP JUMPDEST CALLDATASIZE SWAP1 CALLDATACOPY PUSH1 0x1 PUSH1 0x1 PUSH1 0xA0 SHL SUB AND PUSH0 SWAP1 DUP2 MSTORE PUSH1 0x11 PUSH1 0x20 MSTORE PUSH1 0x40 DUP1 DUP3 KECCAK256 PUSH1 0xD DUP2 ADD SLOAD SWAP2 MLOAD SWAP2 SWAP4 SWAP2 SWAP3 PUSH1 0x3 SWAP1 SWAP2 ADD SWAP1 DUP4 JUMPDEST PUSH1 0xA DUP3 LT PUSH2 0x6CE JUMPI POP POP POP PUSH2 0x6BF SWAP1 DUP3 PUSH2 0x1BF JUMP JUMPDEST PUSH2 0x5B8 PUSH1 0x40 MLOAD SWAP3 DUP4 SWAP3 DUP4 PUSH2 0x61F JUMP JUMPDEST PUSH1 0x1 PUSH1 0x20 DUP2 SWAP3 DUP6 SLOAD DUP2 MSTORE ADD SWAP4 ADD SWAP2 ADD SWAP1 SWAP2 PUSH2 0x6AA JUMP JUMPDEST CALLVALUE PUSH2 0x16F JUMPI PUSH1 0x40 CALLDATASIZE PUSH1 0x3 NOT ADD SLT PUSH2 0x16F JUMPI PUSH2 0x6FD PUSH2 0x159 JUMP JUMPDEST PUSH1 0x24 CALLDATALOAD SWAP1 PUSH1 0xFF DUP3 AND SWAP2 DUP3 DUP2 SUB PUSH2 0x16F JUMPI PUSH2 0x72D PUSH1 0x2 PUSH2 0x71E PUSH1 0xF SLOAD PUSH1 0xFF AND SWAP1 JUMP JUMPDEST PUSH2 0x727 DUP2 PUSH2 0x9A6 JUMP JUMPDEST EQ PUSH2 0xED0 JUMP JUMPDEST PUSH2 0x763 PUSH2 0x753 PUSH2 0x73E PUSH1 0x12 SLOAD PUSH2 0xC29 JUMP JUMPDEST SWAP1 SLOAD PUSH1 0x3 SWAP2 SWAP1 SWAP2 SHL SHR PUSH1 0x1 PUSH1 0x1 PUSH1 0xA0 SHL SUB AND SWAP1 JUMP JUMPDEST PUSH1 0x1 PUSH1 0x1 PUSH1 0xA0 SHL SUB AND CALLER EQ PUSH2 0xF07 JUMP JUMPDEST CALLER PUSH0 SWAP1 DUP2 MSTORE PUSH1 0x11 PUSH1 0x20 MSTORE PUSH1 0x40 SWAP1 KECCAK256 PUSH2 0x793 SWAP1 PUSH2 0x78E SWAP1 PUSH2 0x78A SWAP1 PUSH1 0x2 ADD SLOAD PUSH1 0x8 SHR PUSH1 0xFF AND SWAP1 JUMP JUMPDEST ISZERO SWAP1 JUMP JUMPDEST PUSH2 0xF3B JUMP JUMPDEST PUSH1 0x1 PUSH1 0x1 PUSH1 0xA0 SHL SUB DUP3 AND SWAP3 PUSH2 0x7A9 DUP5 ISZERO ISZERO PUSH2 0xF6D JUMP JUMPDEST DUP1 PUSH2 0x86E JUMPI POP POP PUSH2 0x7F6 DUP2 PUSH2 0x7DD PUSH1 0xD PUSH2 0x7D4 DUP2 SWAP6 PUSH1 0x1 DUP1 PUSH1 0xA0 SHL SUB AND PUSH0 MSTORE PUSH1 0x11 PUSH1 0x20 MSTORE PUSH1 0x40 PUSH0 KECCAK256 SWAP1 JUMP JUMPDEST ADD SLOAD ISZERO ISZERO PUSH2 0x105D JUMP JUMPDEST PUSH1 0x1 PUSH1 0x1 PUSH1 0xA0 SHL SUB AND PUSH0 SWAP1 DUP2 MSTORE PUSH1 0x11 PUSH1 0x20 MSTORE PUSH1 0x40 SWAP1 KECCAK256 SWAP1 JUMP JUMPDEST ADD PUSH2 0x801 DUP2 SLOAD PUSH2 0x1043 JUMP JUMPDEST SWAP1 SSTORE CALLER PUSH0 SWAP1 DUP2 MSTORE PUSH1 0x11 PUSH1 0x20 MSTORE PUSH1 0x40 SWAP1 KECCAK256 PUSH1 0xD ADD PUSH2 0x81E DUP2 SLOAD PUSH2 0x104F JUMP JUMPDEST SWAP1 SSTORE PUSH1 0x40 MLOAD PUSH0 DUP2 MSTORE CALLER SWAP2 SWAP1 PUSH32 0x345AB5394E10F7B605071092C87EA512B2B9F3A616F8C85B996C2AA8A418C69C SWAP1 PUSH1 0x20 SWAP1 LOG3 JUMPDEST PUSH2 0x858 PUSH2 0x15D5 JUMP JUMPDEST PUSH2 0x860 PUSH2 0x15FE JUMP JUMPDEST PUSH2 0x866 JUMPI STOP JUMPDEST PUSH2 0x27A PUSH2 0x17A9 JUMP JUMPDEST PUSH2 0x909 PUSH2 0x8DD PUSH2 0x945 SWAP4 SWAP6 SWAP5 PUSH2 0x893 DUP5 PUSH1 0x1 PUSH2 0x8C6 SWAP7 LT ISZERO SWAP1 DUP2 PUSH2 0x97D JUMPI JUMPDEST POP PUSH2 0xFA3 JUMP JUMPDEST PUSH1 0x3 PUSH2 0x89E DUP9 PUSH2 0xFDB JUMP JUMPDEST SWAP5 DUP3 PUSH2 0x7DD PUSH2 0x8D6 PUSH2 0x8CC DUP10 DUP7 PUSH2 0x8C6 DUP3 SWAP10 PUSH1 0x1 DUP1 PUSH1 0xA0 SHL SUB AND PUSH0 MSTORE PUSH1 0x11 PUSH1 0x20 MSTORE PUSH1 0x40 PUSH0 KECCAK256 SWAP1 JUMP JUMPDEST ADD PUSH2 0xFFE JUMP JUMPDEST SWAP1 SLOAD SWAP1 PUSH1 0x3 SHL SHR SWAP1 JUMP JUMPDEST ISZERO ISZERO PUSH2 0x100D JUMP JUMPDEST PUSH2 0x8F3 PUSH2 0x8EE DUP3 DUP5 SLOAD SWAP1 PUSH1 0x3 SHL SHR SWAP1 JUMP JUMPDEST PUSH2 0x1043 JUMP JUMPDEST DUP3 SLOAD PUSH0 NOT PUSH1 0x3 SWAP4 SWAP1 SWAP4 SHL SWAP3 DUP4 SHL NOT AND SWAP2 SHL OR SWAP1 SSTORE JUMP JUMPDEST CALLER PUSH0 SWAP1 DUP2 MSTORE PUSH1 0x11 PUSH1 0x20 MSTORE PUSH1 0x40 SWAP1 KECCAK256 PUSH2 0x93F SWAP1 PUSH2 0x929 SWAP1 DUP4 SWAP1 PUSH1 0x3 SWAP1 PUSH2 0x8C6 JUMP JUMPDEST PUSH2 0x8F3 PUSH2 0x93A DUP3 DUP5 SLOAD SWAP1 PUSH1 0x3 SHL SHR SWAP1 JUMP JUMPDEST PUSH2 0x104F JUMP JUMPDEST CALLER PUSH2 0x1565 JUMP JUMPDEST PUSH1 0x40 MLOAD PUSH1 0xFF SWAP3 SWAP1 SWAP3 AND DUP3 MSTORE CALLER SWAP2 PUSH32 0x345AB5394E10F7B605071092C87EA512B2B9F3A616F8C85B996C2AA8A418C69C SWAP1 PUSH1 0x20 SWAP1 LOG3 PUSH2 0x850 JUMP JUMPDEST PUSH1 0xA SWAP2 POP GT ISZERO PUSH0 PUSH2 0x88D JUMP JUMPDEST CALLVALUE PUSH2 0x16F JUMPI PUSH0 CALLDATASIZE PUSH1 0x3 NOT ADD SLT PUSH2 0x16F JUMPI PUSH1 0x20 PUSH1 0x10 SLOAD PUSH1 0x40 MLOAD SWAP1 DUP2 MSTORE RETURN JUMPDEST PUSH1 0x4 GT ISZERO PUSH2 0x9B0 JUMPI JUMP JUMPDEST PUSH4 0x4E487B71 PUSH1 0xE0 SHL PUSH0 MSTORE PUSH1 0x21 PUSH1 0x4 MSTORE PUSH1 0x24 PUSH0 REVERT JUMPDEST CALLVALUE PUSH2 0x16F JUMPI PUSH0 CALLDATASIZE PUSH1 0x3 NOT ADD SLT PUSH2 0x16F JUMPI PUSH1 0xFF PUSH1 0xF SLOAD AND PUSH1 0x40 MLOAD PUSH1 0x4 DUP3 LT ISZERO PUSH2 0x9B0 JUMPI PUSH1 0x20 SWAP2 DUP2 MSTORE RETURN JUMPDEST PUSH0 CALLDATASIZE PUSH1 0x3 NOT ADD SLT PUSH2 0x16F JUMPI PUSH2 0xA16 PUSH2 0xA07 PUSH1 0xF SLOAD PUSH1 0xFF AND SWAP1 JUMP JUMPDEST PUSH2 0xA10 DUP2 PUSH2 0x9A6 JUMP JUMPDEST ISZERO PUSH2 0x1094 JUMP JUMPDEST CALLER PUSH0 SWAP1 DUP2 MSTORE PUSH1 0x11 PUSH1 0x20 MSTORE PUSH1 0x40 SWAP1 KECCAK256 PUSH1 0x2 ADD SLOAD PUSH2 0xA35 SWAP1 PUSH1 0xFF AND ISZERO PUSH2 0x10CB JUMP JUMPDEST PUSH2 0xA44 PUSH1 0x10 SLOAD PUSH1 0x1 SLOAD GT PUSH2 0x1100 JUMP JUMPDEST PUSH1 0x3 SLOAD DUP1 PUSH2 0xB01 JUMPI POP PUSH2 0xA5A PUSH1 0x2 SLOAD CALLVALUE EQ PUSH2 0x1166 JUMP JUMPDEST CALLER PUSH0 SWAP1 DUP2 MSTORE PUSH1 0x11 PUSH1 0x20 MSTORE PUSH1 0x40 SWAP1 KECCAK256 PUSH2 0xA93 SWAP1 PUSH1 0x2 SWAP1 DUP1 SLOAD PUSH1 0x1 PUSH1 0x1 PUSH1 0xA0 SHL SUB NOT AND CALLER OR DUP2 SSTORE CALLVALUE PUSH1 0x1 DUP3 ADD SSTORE ADD PUSH1 0x1 PUSH1 0xFF NOT DUP3 SLOAD AND OR SWAP1 SSTORE JUMP JUMPDEST PUSH2 0xA9C CALLER PUSH2 0x11A0 JUMP JUMPDEST PUSH1 0x40 MLOAD CALLVALUE DUP2 MSTORE CALLER SWAP1 PUSH32 0x0 SWAP1 PUSH32 0x3DFBE1FCB4E2D61F3B4A0C93D8F814C92250618B3387F396CC9FC9FAFE2C203 SWAP1 PUSH1 0x20 SWAP1 LOG3 PUSH1 0x10 SLOAD PUSH1 0x1 SLOAD EQ PUSH2 0xAF9 JUMPI STOP JUMPDEST PUSH2 0x27A PUSH2 0x19A1 JUMP JUMPDEST PUSH2 0xB18 SWAP1 PUSH1 0x2 SLOAD CALLVALUE LT ISZERO SWAP1 DUP2 PUSH2 0xB1D JUMPI JUMPDEST POP PUSH2 0x1132 JUMP JUMPDEST PUSH2 0xA5A JUMP JUMPDEST SWAP1 POP CALLVALUE GT ISZERO PUSH0 PUSH2 0xB12 JUMP JUMPDEST CALLVALUE PUSH2 0x16F JUMPI PUSH0 CALLDATASIZE PUSH1 0x3 NOT ADD SLT PUSH2 0x16F JUMPI PUSH32 0x0 PUSH1 0x1 PUSH1 0x1 PUSH1 0xA0 SHL SUB AND CALLER SUB PUSH2 0xB93 JUMPI PUSH2 0xB77 PUSH2 0xA07 PUSH1 0xF SLOAD PUSH1 0xFF AND SWAP1 JUMP JUMPDEST PUSH2 0xAF9 PUSH1 0x10 SLOAD PUSH2 0xB8A PUSH0 SLOAD DUP3 LT ISZERO PUSH2 0x11F7 JUMP JUMPDEST PUSH1 0x1 SLOAD GT PUSH2 0x1229 JUMP JUMPDEST PUSH1 0x40 MLOAD PUSH3 0x461BCD PUSH1 0xE5 SHL DUP2 MSTORE PUSH1 0x20 PUSH1 0x4 DUP3 ADD MSTORE PUSH1 0x6 PUSH1 0x24 DUP3 ADD MSTORE PUSH6 0x10B7BBB732B9 PUSH1 0xD1 SHL PUSH1 0x44 DUP3 ADD MSTORE PUSH1 0x64 SWAP1 REVERT JUMPDEST CALLVALUE PUSH2 0x16F JUMPI PUSH0 CALLDATASIZE PUSH1 0x3 NOT ADD SLT PUSH2 0x16F JUMPI PUSH1 0x20 PUSH1 0x40 MLOAD PUSH32 0x0 DUP2 MSTORE RETURN JUMPDEST CALLVALUE PUSH2 0x16F JUMPI PUSH0 CALLDATASIZE PUSH1 0x3 NOT ADD SLT PUSH2 0x16F JUMPI PUSH1 0x20 PUSH2 0x3FC PUSH2 0x1262 JUMP JUMPDEST PUSH4 0x4E487B71 PUSH1 0xE0 SHL PUSH0 MSTORE PUSH1 0x32 PUSH1 0x4 MSTORE PUSH1 0x24 PUSH0 REVERT JUMPDEST PUSH1 0x10 SLOAD DUP2 LT ISZERO PUSH2 0xC41 JUMPI PUSH1 0x10 PUSH0 MSTORE PUSH1 0x20 PUSH0 KECCAK256 ADD SWAP1 PUSH0 SWAP1 JUMP JUMPDEST PUSH2 0xC15 JUMP JUMPDEST CALLVALUE PUSH2 0x16F JUMPI PUSH1 0x20 CALLDATASIZE PUSH1 0x3 NOT ADD SLT PUSH2 0x16F JUMPI PUSH1 0x4 CALLDATALOAD PUSH1 0x10 SLOAD DUP2 LT ISZERO PUSH2 0x16F JUMPI PUSH1 0x10 PUSH0 MSTORE PUSH0 DUP1 MLOAD PUSH1 0x20 PUSH2 0x1EC0 DUP4 CODECOPY DUP2 MLOAD SWAP2 MSTORE ADD SLOAD PUSH1 0x40 MLOAD PUSH1 0x1 PUSH1 0x1 PUSH1 0xA0 SHL SUB SWAP1 SWAP2 AND DUP2 MSTORE PUSH1 0x20 SWAP1 RETURN JUMPDEST CALLVALUE PUSH2 0x16F JUMPI PUSH0 CALLDATASIZE PUSH1 0x3 NOT ADD SLT PUSH2 0x16F JUMPI PUSH1 0x20 PUSH1 0x12 SLOAD PUSH1 0x40 MLOAD SWAP1 DUP2 MSTORE RETURN JUMPDEST POP PUSH32 0x0 PUSH1 0x1 PUSH1 0x1 PUSH1 0xA0 SHL SUB AND DUP1 ISZERO ISZERO SWAP1 DUP2 PUSH2 0xDB9 JUMPI JUMPDEST POP ISZERO PUSH2 0xD8B JUMPI PUSH1 0xFF PUSH1 0xF SLOAD AND PUSH1 0x4 DUP2 LT ISZERO PUSH2 0x9B0 JUMPI PUSH2 0xD44 SWAP2 PUSH2 0xD07 PUSH1 0x1 PUSH2 0xD3E SWAP4 EQ PUSH2 0xDC3 JUMP JUMPDEST PUSH2 0xD15 PUSH1 0x1 DUP3 MLOAD LT ISZERO PUSH2 0x1296 JUMP JUMPDEST PUSH2 0xD27 PUSH1 0x2 PUSH1 0xFF NOT PUSH1 0xF SLOAD AND OR PUSH1 0xF SSTORE JUMP JUMPDEST PUSH2 0xD39 PUSH2 0xD33 DUP3 PUSH2 0x12CB JUMP JUMPDEST MLOAD PUSH2 0x12EC JUMP JUMPDEST PUSH2 0x12CB JUMP JUMPDEST MLOAD PUSH2 0x149C JUMP JUMPDEST PUSH32 0x0 PUSH32 0x50AD08F58A27F2851D7E3A1B3A6A46B290F2CE677E99642D30FF639721E77790 PUSH0 DUP1 LOG2 JUMP JUMPDEST PUSH1 0x40 MLOAD PUSH3 0x461BCD PUSH1 0xE5 SHL DUP2 MSTORE PUSH1 0x20 PUSH1 0x4 DUP3 ADD MSTORE PUSH1 0x6 PUSH1 0x24 DUP3 ADD MSTORE PUSH6 0x858DBDBDC99 PUSH1 0xD2 SHL PUSH1 0x44 DUP3 ADD MSTORE PUSH1 0x64 SWAP1 REVERT JUMPDEST SWAP1 POP CALLER EQ PUSH0 PUSH2 0xCDF JUMP JUMPDEST ISZERO PUSH2 0xDCA JUMPI JUMP JUMPDEST PUSH1 0x40 MLOAD PUSH3 0x461BCD PUSH1 0xE5 SHL DUP2 MSTORE PUSH1 0x20 PUSH1 0x4 DUP3 ADD MSTORE PUSH1 0x8 PUSH1 0x24 DUP3 ADD MSTORE PUSH8 0x216465616C696E67 PUSH1 0xC0 SHL PUSH1 0x44 DUP3 ADD MSTORE PUSH1 0x64 SWAP1 REVERT JUMPDEST ISZERO PUSH2 0xE01 JUMPI JUMP JUMPDEST PUSH1 0x40 MLOAD PUSH3 0x461BCD PUSH1 0xE5 SHL DUP2 MSTORE PUSH1 0x20 PUSH1 0x4 DUP3 ADD MSTORE PUSH1 0x5 PUSH1 0x24 DUP3 ADD MSTORE PUSH5 0x217A65726F PUSH1 0xD8 SHL PUSH1 0x44 DUP3 ADD MSTORE PUSH1 0x64 SWAP1 REVERT JUMPDEST PUSH4 0x4E487B71 PUSH1 0xE0 SHL PUSH0 MSTORE PUSH1 0x11 PUSH1 0x4 MSTORE PUSH1 0x24 PUSH0 REVERT JUMPDEST SWAP1 PUSH1 0x1 DUP3 ADD DUP1 SWAP3 GT PUSH2 0xE50 JUMPI JUMP JUMPDEST PUSH2 0xE2E JUMP JUMPDEST SWAP2 SWAP1 DUP3 ADD DUP1 SWAP3 GT PUSH2 0xE50 JUMPI JUMP JUMPDEST DUP2 ISZERO PUSH2 0xE6C JUMPI MOD SWAP1 JUMP JUMPDEST PUSH4 0x4E487B71 PUSH1 0xE0 SHL PUSH0 MSTORE PUSH1 0x12 PUSH1 0x4 MSTORE PUSH1 0x24 PUSH0 REVERT JUMPDEST PUSH1 0x10 SLOAD PUSH1 0x2 DUP2 LT PUSH2 0xECB JUMPI PUSH1 0x12 SLOAD PUSH1 0x1 DUP2 ADD DUP1 SWAP2 GT PUSH2 0xE50 JUMPI DUP2 PUSH2 0xEA3 SWAP2 PUSH2 0xE62 JUMP JUMPDEST SWAP1 DUP2 LT ISZERO PUSH2 0xC41 JUMPI PUSH1 0x10 PUSH0 MSTORE PUSH0 DUP1 MLOAD PUSH1 0x20 PUSH2 0x1EC0 DUP4 CODECOPY DUP2 MLOAD SWAP2 MSTORE ADD SLOAD PUSH1 0x1 PUSH1 0x1 PUSH1 0xA0 SHL SUB AND SWAP1 JUMP JUMPDEST POP PUSH0 SWAP1 JUMP JUMPDEST ISZERO PUSH2 0xED7 JUMPI JUMP JUMPDEST PUSH1 0x40 MLOAD PUSH3 0x461BCD PUSH1 0xE5 SHL DUP2 MSTORE PUSH1 0x20 PUSH1 0x4 DUP3 ADD MSTORE PUSH1 0x8 PUSH1 0x24 DUP3 ADD MSTORE PUSH8 0x21706C6179696E67 PUSH1 0xC0 SHL PUSH1 0x44 DUP3 ADD MSTORE PUSH1 0x64 SWAP1 REVERT JUMPDEST ISZERO PUSH2 0xF0E JUMPI JUMP JUMPDEST PUSH1 0x40 MLOAD PUSH3 0x461BCD PUSH1 0xE5 SHL DUP2 MSTORE PUSH1 0x20 PUSH1 0x4 DUP3 ADD MSTORE PUSH1 0x5 PUSH1 0x24 DUP3 ADD MSTORE PUSH5 0x10BA3AB937 PUSH1 0xD9 SHL PUSH1 0x44 DUP3 ADD MSTORE PUSH1 0x64 SWAP1 REVERT JUMPDEST ISZERO PUSH2 0xF42 JUMPI JUMP JUMPDEST PUSH1 0x40 MLOAD PUSH3 0x461BCD PUSH1 0xE5 SHL DUP2 MSTORE PUSH1 0x20 PUSH1 0x4 DUP3 ADD MSTORE PUSH1 0x3 PUSH1 0x24 DUP3 ADD MSTORE PUSH3 0x1BDD5D PUSH1 0xEA SHL PUSH1 0x44 DUP3 ADD MSTORE PUSH1 0x64 SWAP1 REVERT JUMPDEST ISZERO PUSH2 0xF74 JUMPI JUMP JUMPDEST PUSH1 0x40 MLOAD PUSH3 0x461BCD PUSH1 0xE5 SHL DUP2 MSTORE PUSH1 0x20 PUSH1 0x4 DUP3 ADD MSTORE PUSH1 0x7 PUSH1 0x24 DUP3 ADD MSTORE PUSH7 0x85D185C99D95D PUSH1 0xCA SHL PUSH1 0x44 DUP3 ADD MSTORE PUSH1 0x64 SWAP1 REVERT JUMPDEST ISZERO PUSH2 0xFAA JUMPI JUMP JUMPDEST PUSH1 0x40 MLOAD PUSH3 0x461BCD PUSH1 0xE5 SHL DUP2 MSTORE PUSH1 0x20 PUSH1 0x4 DUP3 ADD MSTORE PUSH1 0x9 PUSH1 0x24 DUP3 ADD MSTORE PUSH9 0x6361726420312D313 PUSH1 0xBC SHL PUSH1 0x44 DUP3 ADD MSTORE PUSH1 0x64 SWAP1 REVERT JUMPDEST PUSH1 0xFF PUSH0 NOT SWAP2 AND ADD SWAP1 PUSH1 0xFF DUP3 GT PUSH2 0xE50 JUMPI JUMP JUMPDEST PUSH1 0xA DUP2 LT ISZERO PUSH2 0xC41 JUMPI PUSH1 0x5 ADD SWAP1 PUSH0 SWAP1 JUMP JUMPDEST PUSH1 0xA DUP3 LT ISZERO PUSH2 0xC41 JUMPI ADD SWAP1 PUSH0 SWAP1 JUMP JUMPDEST ISZERO PUSH2 0x1014 JUMPI JUMP JUMPDEST PUSH1 0x40 MLOAD PUSH3 0x461BCD PUSH1 0xE5 SHL DUP2 MSTORE PUSH1 0x20 PUSH1 0x4 DUP3 ADD MSTORE PUSH1 0x7 PUSH1 0x24 DUP3 ADD MSTORE PUSH7 0x1B9BC818D85C99 PUSH1 0xCA SHL PUSH1 0x44 DUP3 ADD MSTORE PUSH1 0x64 SWAP1 REVERT JUMPDEST DUP1 ISZERO PUSH2 0xE50 JUMPI PUSH0 NOT ADD SWAP1 JUMP JUMPDEST PUSH0 NOT DUP2 EQ PUSH2 0xE50 JUMPI PUSH1 0x1 ADD SWAP1 JUMP JUMPDEST ISZERO PUSH2 0x1064 JUMPI JUMP JUMPDEST PUSH1 0x40 MLOAD PUSH3 0x461BCD PUSH1 0xE5 SHL DUP2 MSTORE PUSH1 0x20 PUSH1 0x4 DUP3 ADD MSTORE PUSH1 0x8 PUSH1 0x24 DUP3 ADD MSTORE PUSH8 0x3737903537B5B2B9 PUSH1 0xC1 SHL PUSH1 0x44 DUP3 ADD MSTORE PUSH1 0x64 SWAP1 REVERT JUMPDEST ISZERO PUSH2 0x109B JUMPI JUMP JUMPDEST PUSH1 0x40 MLOAD PUSH3 0x461BCD PUSH1 0xE5 SHL DUP2 MSTORE PUSH1 0x20 PUSH1 0x4 DUP3 ADD MSTORE PUSH1 0x8 PUSH1 0x24 DUP3 ADD MSTORE PUSH8 0x2170656E64696E67 PUSH1 0xC0 SHL PUSH1 0x44 DUP3 ADD MSTORE PUSH1 0x64 SWAP1 REVERT JUMPDEST ISZERO PUSH2 0x10D2 JUMPI JUMP JUMPDEST PUSH1 0x40 MLOAD PUSH3 0x461BCD PUSH1 0xE5 SHL DUP2 MSTORE PUSH1 0x20 PUSH1 0x4 DUP3 ADD MSTORE PUSH1 0x6 PUSH1 0x24 DUP3 ADD MSTORE PUSH6 0x1A9BDA5B9959 PUSH1 0xD2 SHL PUSH1 0x44 DUP3 ADD MSTORE PUSH1 0x64 SWAP1 REVERT JUMPDEST ISZERO PUSH2 0x1107 JUMPI JUMP JUMPDEST PUSH1 0x64 PUSH1 0x40 MLOAD PUSH3 0x461BCD PUSH1 0xE5 SHL DUP2 MSTORE PUSH1 0x20 PUSH1 0x4 DUP3 ADD MSTORE PUSH1 0x4 PUSH1 0x24 DUP3 ADD MSTORE PUSH4 0x199D5B1B PUSH1 0xE2 SHL PUSH1 0x44 DUP3 ADD MSTORE REVERT JUMPDEST ISZERO PUSH2 0x1139 JUMPI JUMP JUMPDEST PUSH1 0x40 MLOAD PUSH3 0x461BCD PUSH1 0xE5 SHL DUP2 MSTORE PUSH1 0x20 PUSH1 0x4 DUP3 ADD MSTORE PUSH1 0x5 PUSH1 0x24 DUP3 ADD MSTORE PUSH5 0x72616E6765 PUSH1 0xD8 SHL PUSH1 0x44 DUP3 ADD MSTORE PUSH1 0x64 SWAP1 REVERT JUMPDEST ISZERO PUSH2 0x116D JUMPI JUMP JUMPDEST PUSH1 0x40 MLOAD PUSH3 0x461BCD PUSH1 0xE5 SHL DUP2 MSTORE PUSH1 0x20 PUSH1 0x4 DUP3 ADD MSTORE PUSH1 0xB PUSH1 0x24 DUP3 ADD MSTORE PUSH11 0x6669786564207374616B65 PUSH1 0xA8 SHL PUSH1 0x44 DUP3 ADD MSTORE PUSH1 0x64 SWAP1 REVERT JUMPDEST PUSH1 0x10 SLOAD PUSH9 0x10000000000000000 DUP2 LT ISZERO PUSH2 0x1E1 JUMPI PUSH1 0x1 DUP2 ADD PUSH1 0x10 SSTORE PUSH1 0x10 SLOAD DUP2 LT ISZERO PUSH2 0xC41 JUMPI PUSH1 0x10 PUSH0 MSTORE PUSH0 DUP1 MLOAD PUSH1 0x20 PUSH2 0x1EC0 DUP4 CODECOPY DUP2 MLOAD SWAP2 MSTORE ADD DUP1 SLOAD PUSH1 0x1 PUSH1 0x1 PUSH1 0xA0 SHL SUB NOT AND PUSH1 0x1 PUSH1 0x1 PUSH1 0xA0 SHL SUB SWAP1 SWAP3 AND SWAP2 SWAP1 SWAP2 OR SWAP1 SSTORE JUMP JUMPDEST ISZERO PUSH2 0x11FE JUMPI JUMP JUMPDEST PUSH1 0x64 PUSH1 0x40 MLOAD PUSH3 0x461BCD PUSH1 0xE5 SHL DUP2 MSTORE PUSH1 0x20 PUSH1 0x4 DUP3 ADD MSTORE PUSH1 0x4 PUSH1 0x24 DUP3 ADD MSTORE PUSH4 0x10B6B4B7 PUSH1 0xE1 SHL PUSH1 0x44 DUP3 ADD MSTORE REVERT JUMPDEST ISZERO PUSH2 0x1230 JUMPI JUMP JUMPDEST PUSH1 0x40 MLOAD PUSH3 0x461BCD PUSH1 0xE5 SHL DUP2 MSTORE PUSH1 0x20 PUSH1 0x4 DUP3 ADD MSTORE PUSH1 0xA PUSH1 0x24 DUP3 ADD MSTORE PUSH10 0x2166756C6C206175746F PUSH1 0xB0 SHL PUSH1 0x44 DUP3 ADD MSTORE PUSH1 0x64 SWAP1 REVERT JUMPDEST PUSH1 0x10 SLOAD DUP1 ISZERO PUSH2 0xECB JUMPI PUSH1 0x12 SLOAD SWAP1 DUP2 LT ISZERO PUSH2 0xC41 JUMPI PUSH1 0x10 PUSH0 MSTORE PUSH0 DUP1 MLOAD PUSH1 0x20 PUSH2 0x1EC0 DUP4 CODECOPY DUP2 MLOAD SWAP2 MSTORE ADD SLOAD PUSH1 0x1 PUSH1 0x1 PUSH1 0xA0 SHL SUB AND SWAP1 JUMP JUMPDEST ISZERO PUSH2 0x129D JUMPI JUMP JUMPDEST PUSH1 0x40 MLOAD PUSH3 0x461BCD PUSH1 0xE5 SHL DUP2 MSTORE PUSH1 0x20 PUSH1 0x4 DUP3 ADD MSTORE PUSH1 0x6 PUSH1 0x24 DUP3 ADD MSTORE PUSH6 0x21776F726473 PUSH1 0xD0 SHL PUSH1 0x44 DUP3 ADD MSTORE PUSH1 0x64 SWAP1 REVERT JUMPDEST DUP1 MLOAD ISZERO PUSH2 0xC41 JUMPI PUSH1 0x20 ADD SWAP1 JUMP JUMPDEST DUP1 MLOAD DUP3 LT ISZERO PUSH2 0xC41 JUMPI PUSH1 0x20 SWAP2 PUSH1 0x5 SHL ADD ADD SWAP1 JUMP JUMPDEST PUSH1 0x10 SLOAD PUSH2 0x12F7 PUSH2 0x1CA7 JUMP JUMPDEST DUP1 MLOAD PUSH32 0x0 SWAP2 PUSH0 JUMPDEST DUP3 DUP2 LT PUSH2 0x1425 JUMPI POP PUSH0 JUMPDEST DUP3 DUP2 LT PUSH2 0x13CC JUMPI POP POP POP PUSH1 0x4 SLOAD SWAP3 PUSH0 JUMPDEST DUP5 DUP2 LT PUSH2 0x1345 JUMPI POP POP POP POP POP JUMP JUMPDEST PUSH1 0x40 DUP1 MLOAD PUSH1 0x20 DUP2 ADD DUP5 DUP2 MSTORE SWAP2 DUP2 ADD DUP6 SWAP1 MSTORE ADDRESS PUSH1 0x60 SWAP1 DUP2 SHL PUSH1 0x1 PUSH1 0x1 PUSH1 0x60 SHL SUB NOT AND SWAP1 DUP3 ADD MSTORE PUSH1 0x74 DUP2 ADD DUP4 SWAP1 MSTORE PUSH1 0x1 PUSH1 0xF8 SHL PUSH1 0x94 DUP3 ADD MSTORE PUSH1 0x1 SWAP3 SWAP2 PUSH1 0xD SWAP2 PUSH2 0x13B9 SWAP2 PUSH2 0x7DD SWAP2 PUSH2 0x73E SWAP2 PUSH2 0x13B4 SWAP2 DUP12 SWAP2 SWAP1 PUSH2 0x13AC DUP2 PUSH1 0x95 DUP2 ADD JUMPDEST SUB PUSH1 0x1F NOT DUP2 ADD DUP4 MSTORE DUP3 PUSH2 0x1BF JUMP JUMPDEST MLOAD SWAP1 KECCAK256 PUSH2 0xE62 JUMP JUMPDEST PUSH2 0xC29 JUMP JUMPDEST ADD PUSH2 0x13C4 DUP2 SLOAD PUSH2 0xE42 JUMP JUMPDEST SWAP1 SSTORE ADD PUSH2 0x1337 JUMP JUMPDEST DUP1 PUSH2 0x141F PUSH2 0x13E2 PUSH2 0x73E PUSH2 0x13B4 DUP10 PUSH1 0x1 SWAP7 PUSH2 0xE62 JUMP JUMPDEST PUSH2 0x13F6 PUSH2 0x13EF DUP5 DUP8 PUSH2 0x12D8 JUMP JUMPDEST MLOAD PUSH1 0xFF AND SWAP1 JUMP JUMPDEST SWAP1 PUSH2 0x141A PUSH2 0x929 DUP4 PUSH1 0x3 PUSH2 0x8C6 DUP6 PUSH1 0x1 DUP1 PUSH1 0xA0 SHL SUB AND PUSH0 MSTORE PUSH1 0x11 PUSH1 0x20 MSTORE PUSH1 0x40 PUSH0 KECCAK256 SWAP1 JUMP JUMPDEST PUSH2 0x1565 JUMP JUMPDEST ADD PUSH2 0x1327 JUMP JUMPDEST PUSH1 0x40 DUP1 MLOAD PUSH1 0x20 DUP2 ADD DUP9 DUP2 MSTORE SWAP2 DUP2 ADD DUP7 SWAP1 MSTORE ADDRESS PUSH1 0x60 SWAP1 DUP2 SHL PUSH1 0x1 PUSH1 0x1 PUSH1 0x60 SHL SUB NOT AND SWAP1 DUP3 ADD MSTORE PUSH1 0x74 DUP2 ADD DUP4 SWAP1 MSTORE PUSH1 0x1 SWAP3 SWAP2 PUSH2 0x1469 SWAP2 DUP7 SWAP2 SWAP1 PUSH2 0x13AC DUP2 PUSH1 0x94 DUP2 ADD PUSH2 0x139E JUMP JUMPDEST PUSH2 0x1473 DUP2 DUP6 PUSH2 0x12D8 JUMP JUMPDEST MLOAD SWAP1 PUSH2 0x148A PUSH2 0x1482 DUP5 DUP8 PUSH2 0x12D8 JUMP JUMPDEST MLOAD SWAP2 DUP7 PUSH2 0x12D8 JUMP JUMPDEST MSTORE PUSH2 0x1495 DUP3 DUP6 PUSH2 0x12D8 JUMP JUMPDEST MSTORE ADD PUSH2 0x131D JUMP JUMPDEST SWAP1 ADDRESS PUSH1 0x60 SHL PUSH1 0x1 PUSH1 0x1 PUSH1 0x60 SHL SUB NOT AND PUSH32 0x0 PUSH0 JUMPDEST PUSH1 0x10 SLOAD DUP2 LT ISZERO PUSH2 0x155E JUMPI PUSH1 0x10 PUSH0 MSTORE PUSH0 DUP1 MLOAD PUSH1 0x20 PUSH2 0x1EC0 DUP4 CODECOPY DUP2 MLOAD SWAP2 MSTORE DUP2 ADD SLOAD PUSH1 0x40 DUP1 MLOAD PUSH1 0x20 DUP2 ADD DUP9 DUP2 MSTORE SWAP2 DUP2 ADD DUP6 SWAP1 MSTORE PUSH1 0x60 DUP1 DUP3 ADD DUP8 SWAP1 MSTORE DUP4 SWAP1 SHL PUSH1 0x1 PUSH1 0x1 PUSH1 0x60 SHL SUB NOT AND PUSH1 0x74 DUP3 ADD MSTORE PUSH1 0x68 DUP2 MSTORE PUSH1 0x1 SWAP4 SWAP3 PUSH1 0x1 PUSH1 0x1 PUSH1 0xA0 SHL SUB AND SWAP2 PUSH2 0x1557 SWAP2 PUSH2 0x1539 PUSH1 0x88 DUP3 PUSH2 0x1BF JUMP JUMPDEST MLOAD SWAP1 KECCAK256 PUSH1 0x1 PUSH1 0x1 PUSH1 0xA0 SHL SUB SWAP1 SWAP3 AND PUSH0 SWAP1 DUP2 MSTORE PUSH1 0x13 PUSH1 0x20 MSTORE PUSH1 0x40 SWAP1 KECCAK256 SWAP1 JUMP JUMPDEST SSTORE ADD PUSH2 0x14CE JUMP JUMPDEST POP POP POP SWAP1 POP JUMP JUMPDEST PUSH1 0x1 DUP1 PUSH1 0xA0 SHL SUB AND SWAP1 DUP2 PUSH0 MSTORE PUSH1 0x11 PUSH1 0x20 MSTORE PUSH2 0x1586 DUP2 PUSH1 0x3 PUSH1 0x40 PUSH0 KECCAK256 ADD PUSH2 0xFFE JUMP JUMPDEST SWAP1 SLOAD SWAP1 PUSH1 0x3 SHL SHR SWAP1 PUSH1 0x2 DUP3 LT ISZERO PUSH2 0x159C JUMPI POP POP POP JUMP JUMPDEST PUSH2 0x15B9 PUSH1 0x1 SWAP2 PUSH2 0x15D3 SWAP5 PUSH0 MSTORE PUSH1 0x11 PUSH1 0x20 MSTORE PUSH1 0x3 PUSH1 0x40 PUSH0 KECCAK256 ADD PUSH2 0xFFE JUMP JUMPDEST SWAP2 SWAP1 SWAP3 AND SWAP1 DUP3 SLOAD SWAP1 PUSH1 0x3 SHL SWAP2 DUP3 SHL SWAP2 PUSH0 NOT SWAP1 SHL NOT AND OR SWAP1 SSTORE JUMP JUMPDEST JUMP JUMPDEST PUSH1 0x10 SLOAD DUP1 ISZERO PUSH2 0x15FB JUMPI PUSH1 0x12 SLOAD SWAP1 PUSH1 0x1 DUP3 ADD DUP1 SWAP3 GT PUSH2 0xE50 JUMPI PUSH2 0x15F6 SWAP2 PUSH2 0xE62 JUMP JUMPDEST PUSH1 0x12 SSTORE JUMP JUMPDEST POP JUMP JUMPDEST PUSH1 0x10 SLOAD PUSH0 JUMPDEST DUP2 DUP2 LT PUSH2 0x1611 JUMPI POP POP PUSH1 0x1 SWAP1 JUMP JUMPDEST PUSH2 0x161D PUSH2 0x73E DUP3 PUSH2 0xC29 JUMP JUMPDEST PUSH0 JUMPDEST PUSH1 0xA PUSH1 0xFF DUP3 AND LT PUSH2 0x1634 JUMPI POP POP PUSH1 0x1 ADD PUSH2 0x1603 JUMP JUMPDEST PUSH2 0x1657 PUSH2 0x8CC DUP3 PUSH1 0x3 PUSH2 0x8C6 DUP7 PUSH1 0x1 DUP1 PUSH1 0xA0 SHL SUB AND PUSH0 MSTORE PUSH1 0x11 PUSH1 0x20 MSTORE PUSH1 0x40 PUSH0 KECCAK256 SWAP1 JUMP JUMPDEST PUSH2 0x1666 JUMPI PUSH1 0x1 ADD PUSH1 0xFF AND PUSH2 0x161F JUMP JUMPDEST POP POP POP POP PUSH0 SWAP1 JUMP JUMPDEST SWAP1 PUSH2 0x1678 DUP3 PUSH2 0x1E6 JUMP JUMPDEST PUSH2 0x1685 PUSH1 0x40 MLOAD SWAP2 DUP3 PUSH2 0x1BF JUMP JUMPDEST DUP3 DUP2 MSTORE DUP1 SWAP3 PUSH2 0x1696 PUSH1 0x1F NOT SWAP2 PUSH2 0x1E6 JUMP JUMPDEST ADD SWAP1 PUSH1 0x20 CALLDATASIZE SWAP2 ADD CALLDATACOPY JUMP JUMPDEST ISZERO PUSH2 0x16A7 JUMPI JUMP JUMPDEST PUSH1 0x40 MLOAD PUSH3 0x461BCD PUSH1 0xE5 SHL DUP2 MSTORE PUSH1 0x20 PUSH1 0x4 DUP3 ADD MSTORE PUSH1 0x8 PUSH1 0x24 DUP3 ADD MSTORE PUSH8 0x2177696E6E657273 PUSH1 0xC0 SHL PUSH1 0x44 DUP3 ADD MSTORE PUSH1 0x64 SWAP1 REVERT JUMPDEST RETURNDATASIZE ISZERO PUSH2 0x1711 JUMPI RETURNDATASIZE SWAP1 PUSH8 0xFFFFFFFFFFFFFFFF DUP3 GT PUSH2 0x1E1 JUMPI PUSH1 0x40 MLOAD SWAP2 PUSH2 0x1706 PUSH1 0x1F DUP3 ADD PUSH1 0x1F NOT AND PUSH1 0x20 ADD DUP5 PUSH2 0x1BF JUMP JUMPDEST DUP3 MSTORE RETURNDATASIZE PUSH0 PUSH1 0x20 DUP5 ADD RETURNDATACOPY JUMP JUMPDEST PUSH1 0x60 SWAP1 JUMP JUMPDEST ISZERO PUSH2 0x171D JUMPI JUMP JUMPDEST PUSH1 0x40 MLOAD PUSH3 0x461BCD PUSH1 0xE5 SHL DUP2 MSTORE PUSH1 0x20 PUSH1 0x4 DUP3 ADD MSTORE PUSH1 0x9 PUSH1 0x24 DUP3 ADD MSTORE PUSH9 0x10BA3930B739B332B9 PUSH1 0xB9 SHL PUSH1 0x44 DUP3 ADD MSTORE PUSH1 0x64 SWAP1 REVERT JUMPDEST SWAP2 PUSH2 0x176B SWAP1 PUSH2 0x55E SWAP5 SWAP3 DUP5 MSTORE PUSH1 0x60 PUSH1 0x20 DUP6 ADD MSTORE PUSH1 0x60 DUP5 ADD SWAP1 PUSH2 0x511 JUMP JUMPDEST SWAP2 PUSH1 0x40 DUP2 DUP5 SUB SWAP2 ADD MSTORE PUSH2 0x511 JUMP JUMPDEST PUSH1 0x40 MLOAD RETURNDATASIZE PUSH0 DUP3 RETURNDATACOPY RETURNDATASIZE SWAP1 REVERT JUMPDEST SWAP1 SWAP2 PUSH2 0x179B PUSH2 0x55E SWAP4 PUSH1 0x40 DUP5 MSTORE PUSH1 0x40 DUP5 ADD SWAP1 PUSH2 0x511 JUMP JUMPDEST SWAP2 PUSH1 0x20 DUP2 DUP5 SUB SWAP2 ADD MSTORE PUSH2 0x511 JUMP JUMPDEST PUSH2 0x17BB PUSH1 0x3 PUSH1 0xFF NOT PUSH1 0xF SLOAD AND OR PUSH1 0xF SSTORE JUMP JUMPDEST PUSH1 0x10 SLOAD PUSH2 0x17C7 DUP2 PUSH2 0x166E JUMP JUMPDEST SWAP1 PUSH2 0x17D1 DUP2 PUSH2 0x166E JUMP JUMPDEST SWAP1 PUSH0 DUP1 SWAP2 PUSH0 JUMPDEST DUP2 DUP2 LT PUSH2 0x18E5 JUMPI POP POP DUP4 MSTORE DUP1 DUP3 MSTORE PUSH2 0x17F0 SWAP1 ISZERO ISZERO PUSH2 0x16A0 JUMP JUMPDEST PUSH32 0x0 PUSH1 0x1 PUSH1 0x1 PUSH1 0xA0 SHL SUB AND SWAP1 PUSH2 0x1834 PUSH0 DUP1 DUP1 DUP1 SELFBALANCE DUP8 GAS CALL PUSH2 0x182E PUSH2 0x16D7 JUMP JUMPDEST POP PUSH2 0x1716 JUMP JUMPDEST PUSH32 0x0 SWAP3 DUP3 EXTCODESIZE ISZERO PUSH2 0x16F JUMPI PUSH0 PUSH1 0x40 MLOAD DUP1 SWAP5 PUSH4 0x39511141 PUSH1 0xE1 SHL DUP3 MSTORE DUP2 DUP4 DUP2 PUSH2 0x187F DUP8 DUP10 DUP13 PUSH1 0x4 DUP6 ADD PUSH2 0x174E JUMP JUMPDEST SUB SWAP3 GAS CALL SWAP3 DUP4 ISZERO PUSH2 0x18E0 JUMPI PUSH32 0xEC9076D3D1E4910861E8852EF3E8820904B6868D2E5C85563E5C82F45C776D1F SWAP4 PUSH2 0x18C6 JUMPI JUMPDEST POP PUSH2 0x18C1 PUSH1 0x40 MLOAD SWAP3 DUP4 SWAP3 DUP4 PUSH2 0x1784 JUMP JUMPDEST SUB SWAP1 LOG2 JUMP JUMPDEST DUP1 PUSH2 0x18D4 PUSH0 PUSH2 0x18DA SWAP4 PUSH2 0x1BF JUMP JUMPDEST DUP1 PUSH2 0x28C JUMP JUMPDEST PUSH0 PUSH2 0x18B1 JUMP JUMPDEST PUSH2 0x1779 JUMP JUMPDEST DUP1 PUSH2 0x18F4 PUSH2 0x73E PUSH1 0x1 SWAP4 PUSH2 0xC29 JUMP JUMPDEST PUSH1 0x1 PUSH1 0x1 PUSH1 0xA0 SHL SUB DUP2 AND PUSH0 SWAP1 DUP2 MSTORE PUSH1 0x11 PUSH1 0x20 MSTORE PUSH1 0x40 SWAP1 KECCAK256 PUSH1 0xD ADD SLOAD ISZERO PUSH2 0x1940 JUMPI PUSH2 0x193A SWAP1 PUSH2 0x192B PUSH2 0x1924 DUP8 PUSH2 0x104F JUMP JUMPDEST SWAP7 DUP11 PUSH2 0x12D8 JUMP JUMPDEST PUSH1 0x1 PUSH1 0x1 PUSH1 0xA0 SHL SUB SWAP1 SWAP2 AND SWAP1 MSTORE JUMP JUMPDEST ADD PUSH2 0x17D7 JUMP JUMPDEST PUSH2 0x1957 SWAP1 PUSH2 0x192B PUSH2 0x1950 DUP9 PUSH2 0x104F JUMP JUMPDEST SWAP8 DUP10 PUSH2 0x12D8 JUMP JUMPDEST PUSH2 0x193A JUMP JUMPDEST ISZERO PUSH2 0x1963 JUMPI JUMP JUMPDEST PUSH1 0x40 MLOAD PUSH3 0x461BCD PUSH1 0xE5 SHL DUP2 MSTORE PUSH1 0x20 PUSH1 0x4 DUP3 ADD MSTORE PUSH1 0x7 PUSH1 0x24 DUP3 ADD MSTORE PUSH7 0x42CADCDEEACED PUSH1 0xCB SHL PUSH1 0x44 DUP3 ADD MSTORE PUSH1 0x64 SWAP1 REVERT JUMPDEST SWAP1 DUP2 PUSH1 0x20 SWAP2 SUB SLT PUSH2 0x16F JUMPI MLOAD SWAP1 JUMP JUMPDEST PUSH2 0x19B0 PUSH1 0x10 SLOAD PUSH0 SLOAD GT ISZERO PUSH2 0x195C JUMP JUMPDEST PUSH32 0x0 PUSH1 0x1 PUSH1 0x1 PUSH1 0xA0 SHL SUB AND DUP1 ISZERO PUSH2 0x1B53 JUMPI PUSH2 0x19F2 PUSH1 0x1 PUSH1 0xFF NOT PUSH1 0xF SLOAD AND OR PUSH1 0xF SSTORE JUMP JUMPDEST PUSH1 0x40 MLOAD PUSH4 0x5D3B1D3 PUSH1 0xE4 SHL DUP2 MSTORE PUSH32 0x0 PUSH1 0x4 DUP3 ADD MSTORE PUSH32 0x0 PUSH8 0xFFFFFFFFFFFFFFFF AND PUSH1 0x24 DUP3 ADD MSTORE PUSH32 0x0 PUSH2 0xFFFF AND PUSH1 0x44 DUP3 ADD MSTORE PUSH32 0x0 PUSH4 0xFFFFFFFF AND PUSH1 0x64 DUP3 ADD MSTORE PUSH1 0x1 PUSH1 0x84 DUP3 ADD MSTORE SWAP1 PUSH1 0x20 SWAP1 DUP3 SWAP1 PUSH1 0xA4 SWAP1 DUP3 SWAP1 PUSH0 SWAP1 GAS CALL SWAP1 DUP2 ISZERO PUSH2 0x18E0 JUMPI PUSH0 SWAP2 PUSH2 0x1B24 JUMPI JUMPDEST POP PUSH1 0x40 MLOAD SWAP1 DUP2 MSTORE PUSH32 0x0 SWAP1 PUSH32 0xEBD9E8FB61FD5A6473B57D787D7EA3595BA98407BD8C0D74D9B0A5D666AA8D8A SWAP1 DUP1 PUSH1 0x20 DUP2 ADD PUSH2 0x18C1 JUMP JUMPDEST PUSH2 0x1B46 SWAP2 POP PUSH1 0x20 RETURNDATASIZE PUSH1 0x20 GT PUSH2 0x1B4C JUMPI JUMPDEST PUSH2 0x1B3E DUP2 DUP4 PUSH2 0x1BF JUMP JUMPDEST DUP2 ADD SWAP1 PUSH2 0x1992 JUMP JUMPDEST PUSH0 PUSH2 0x1ACF JUMP JUMPDEST POP RETURNDATASIZE PUSH2 0x1B34 JUMP JUMPDEST POP PUSH32 0x0 PUSH1 0x1 PUSH1 0x1 PUSH1 0xA0 SHL SUB AND ISZERO PUSH2 0x1C0C JUMPI PUSH2 0x1B95 PUSH1 0x1 PUSH1 0xFF NOT PUSH1 0xF SLOAD AND OR PUSH1 0xF SSTORE JUMP JUMPDEST PUSH1 0x40 DUP1 MLOAD PUSH32 0x0 PUSH1 0x20 DUP3 ADD DUP2 DUP2 MSTORE ADDRESS SWAP4 DUP4 ADD SWAP4 SWAP1 SWAP4 MSTORE SWAP2 SWAP1 PUSH2 0x1BD8 DUP2 PUSH1 0x60 DUP2 ADD PUSH2 0x139E JUMP JUMPDEST MLOAD SWAP1 KECCAK256 PUSH1 0x40 MLOAD SWAP1 DUP2 MSTORE ADDRESS SWAP2 SWAP1 PUSH32 0x95C8B02C7934A4BB418D4B844CA008175046665E9DDFB7903DDA0CE4DD450CF0 SWAP1 PUSH1 0x20 SWAP1 LOG3 JUMP JUMPDEST PUSH2 0x1C1E PUSH1 0x2 PUSH1 0xFF NOT PUSH1 0xF SLOAD AND OR PUSH1 0xF SSTORE JUMP JUMPDEST PUSH1 0x40 DUP1 MLOAD TIMESTAMP PUSH1 0x20 DUP3 ADD SWAP1 DUP2 MSTORE PUSH32 0x0 SWAP3 DUP3 ADD DUP4 SWAP1 MSTORE ADDRESS PUSH1 0x60 SWAP1 DUP2 SHL PUSH1 0x1 PUSH1 0x1 PUSH1 0x60 SHL SUB NOT AND SWAP1 DUP4 ADD MSTORE PUSH2 0x1C81 SWAP2 PUSH2 0x1C76 DUP2 PUSH1 0x74 DUP2 ADD PUSH2 0x139E JUMP JUMPDEST MLOAD SWAP1 KECCAK256 PUSH2 0x368 PUSH2 0x1D36 JUMP JUMPDEST PUSH32 0x50AD08F58A27F2851D7E3A1B3A6A46B290F2CE677E99642D30FF639721E77790 PUSH0 DUP1 LOG2 JUMP JUMPDEST PUSH0 DUP1 JUMPDEST PUSH1 0xA DUP3 LT PUSH2 0x1D16 JUMPI PUSH2 0x1CBC SWAP2 POP PUSH2 0x166E JUMP JUMPDEST PUSH0 SWAP2 PUSH0 JUMPDEST PUSH1 0xFF DUP2 AND PUSH1 0xA DUP2 LT ISZERO PUSH2 0x1D0F JUMPI PUSH2 0x1CD9 PUSH2 0x8CC DUP4 PUSH2 0xFED JUMP JUMPDEST SWAP1 PUSH0 JUMPDEST DUP3 DUP2 LT PUSH2 0x1CF1 JUMPI POP POP POP PUSH1 0x1 ADD PUSH1 0xFF AND PUSH2 0x1CC0 JUMP JUMPDEST PUSH1 0x1 SWAP1 DUP3 PUSH2 0x1D08 PUSH2 0x1D01 DUP11 PUSH2 0x104F JUMP JUMPDEST SWAP10 DUP10 PUSH2 0x12D8 JUMP JUMPDEST MSTORE ADD PUSH2 0x1CDC JUMP JUMPDEST POP POP SWAP2 POP SWAP1 JUMP JUMPDEST PUSH2 0x1D2E PUSH1 0x1 SWAP2 PUSH2 0x1D28 PUSH2 0x8CC DUP6 PUSH2 0xFED JUMP JUMPDEST SWAP1 PUSH2 0xE55 JUMP JUMPDEST SWAP2 ADD SWAP1 PUSH2 0x1CAA JUMP JUMPDEST PUSH1 0x10 SLOAD SWAP1 PUSH2 0x1D42 PUSH2 0x1DD3 JUMP JUMPDEST SWAP2 PUSH0 JUMPDEST DUP4 MLOAD DUP2 LT ISZERO PUSH2 0x1D77 JUMPI DUP1 PUSH2 0x1D71 PUSH2 0x1D64 PUSH2 0x73E PUSH2 0x13B4 DUP7 PUSH1 0x1 SWAP7 PUSH2 0xE62 JUMP JUMPDEST PUSH2 0x13F6 PUSH2 0x13EF DUP5 DUP10 PUSH2 0x12D8 JUMP JUMPDEST ADD PUSH2 0x1D45 JUMP JUMPDEST POP PUSH1 0x4 SLOAD SWAP2 SWAP3 POP PUSH0 JUMPDEST DUP3 DUP2 LT PUSH2 0x1D8C JUMPI POP POP POP JUMP JUMPDEST PUSH1 0x1 SWAP1 PUSH1 0xD PUSH2 0x1DC0 PUSH2 0x7DD PUSH2 0x73E PUSH2 0x13B4 DUP8 PUSH1 0x40 MLOAD PUSH1 0x20 DUP2 ADD SWAP1 PUSH2 0x13AC DUP2 PUSH2 0x139E DUP12 TIMESTAMP DUP7 SWAP1 SWAP2 PUSH1 0x40 SWAP3 DUP3 MSTORE PUSH1 0x20 DUP3 ADD MSTORE ADD SWAP1 JUMP JUMPDEST ADD PUSH2 0x1DCB DUP2 SLOAD PUSH2 0xE42 JUMP JUMPDEST SWAP1 SSTORE ADD PUSH2 0x1D80 JUMP JUMPDEST PUSH0 DUP1 JUMPDEST PUSH1 0xA DUP3 LT PUSH2 0x1EA5 JUMPI PUSH2 0x1DE8 SWAP2 POP PUSH2 0x166E JUMP JUMPDEST PUSH0 SWAP2 PUSH0 JUMPDEST PUSH1 0xFF DUP2 AND PUSH1 0xA DUP2 LT ISZERO PUSH2 0x1E34 JUMPI PUSH2 0x1E05 PUSH2 0x8CC DUP4 PUSH2 0xFED JUMP JUMPDEST SWAP1 PUSH0 JUMPDEST DUP3 DUP2 LT PUSH2 0x1E1D JUMPI POP POP POP PUSH1 0x1 ADD PUSH1 0xFF AND PUSH2 0x1DEC JUMP JUMPDEST PUSH1 0x1 SWAP1 DUP3 PUSH2 0x1E2D PUSH2 0x1D01 DUP11 PUSH2 0x104F JUMP JUMPDEST MSTORE ADD PUSH2 0x1E08 JUMP JUMPDEST POP POP SWAP2 POP PUSH0 JUMPDEST DUP2 MLOAD DUP2 LT ISZERO PUSH2 0x1EA1 JUMPI PUSH1 0x1 SWAP1 PUSH2 0x1E76 PUSH1 0x40 MLOAD PUSH1 0x20 DUP2 ADD SWAP1 PUSH2 0x1E6B DUP2 PUSH2 0x139E DUP7 TIMESTAMP DUP7 SWAP1 SWAP2 PUSH1 0x40 SWAP3 DUP3 MSTORE PUSH1 0x20 DUP3 ADD MSTORE ADD SWAP1 JUMP JUMPDEST MLOAD SWAP1 KECCAK256 DUP5 MLOAD SWAP1 PUSH2 0xE62 JUMP JUMPDEST PUSH2 0x1E80 DUP2 DUP6 PUSH2 0x12D8 JUMP JUMPDEST MLOAD SWAP1 PUSH2 0x1E8F PUSH2 0x1482 DUP5 DUP8 PUSH2 0x12D8 JUMP JUMPDEST MSTORE PUSH2 0x1E9A DUP3 DUP6 PUSH2 0x12D8 JUMP JUMPDEST MSTORE ADD PUSH2 0x1E3A JUMP JUMPDEST POP SWAP1 JUMP JUMPDEST PUSH2 0x1EB7 PUSH1 0x1 SWAP2 PUSH2 0x1D28 PUSH2 0x8CC DUP6 PUSH2 0xFED JUMP JUMPDEST SWAP2 ADD SWAP1 PUSH2 0x1DD6 JUMP INVALID SHL PUSH9 0x47DC741A1B0CD08D27 DUP9 GASLIMIT 0xF9 0xD8 NOT 0xD8 PUSH28 0x734759AFB55FE2DE5CB82A9AE672A264697066735822122025CB79CD DUP4 PUSH21 0x62DCAF862D04E799AEAE0D8CC2940819618EEE8DD7 SWAP8 0xAF PUSH1 0xA0 0xC1 PUSH5 0x736F6C6343 STOP ADDMOD BYTE STOP CALLER "
		},
		"gasEstimates": {
			"creation": {
				"codeDepositCost": "1591400",
				"executionCost": "infinite",
				"totalCost": "infinite"
			},
			"external": {
				"applyECVRFSeed(uint256)": "infinite",
				"config()": "10891",
				"currentPlayerIndex()": "2675",
				"ecvrfRelay()": "infinite",
				"gameId()": "infinite",
				"gameState()": "2588",
				"getCurrentTurnPlayer()": "infinite",
				"getPlayerCards(address)": "infinite",
				"getPlayerCount()": "2524",
				"getPlayers()": "infinite",
				"getTakeTarget()": "infinite",
				"handDisplaySeed(address)": "2410",
				"joinGame()": "infinite",
				"playerData(address)": "9003",
				"players(uint256)": "infinite",
				"rawFulfillRandomWords(uint256,uint256[])": "infinite",
				"roomOwner()": "infinite",
				"stakingVault()": "infinite",
				"startGame()": "infinite",
				"takeCard(address,uint8)": "infinite"
			},
			"internal": {
				"_allPlayersNoNumberCards()": "infinite",
				"_autoEliminate(address,uint8)": "infinite",
				"_beginStartSequence()": "infinite",
				"_buildDeckOrdered()": "infinite",
				"_endGame()": "infinite",
				"_generateFullDeckLegacy()": "infinite",
				"_nextTurn()": "26425",
				"_setHandDisplaySeeds(uint256)": "infinite",
				"_shuffleAndDealAllCardsLegacy()": "infinite",
				"_shuffleAndDealFromVrfSeed(uint256)": "infinite",
				"fulfillRandomWords(uint256,uint256[] memory)": "infinite"
			}
		},
		"methodIdentifiers": {
			"applyECVRFSeed(uint256)": "31db047b",
			"config()": "79502c55",
			"currentPlayerIndex()": "fb9bdab4",
			"ecvrfRelay()": "733d5038",
			"gameId()": "d7c81b55",
			"gameState()": "d1f9c24d",
			"getCurrentTurnPlayer()": "e6ec2982",
			"getPlayerCards(address)": "ad5c21d9",
			"getPlayerCount()": "c2e52206",
			"getPlayers()": "8b5b9ccc",
			"getTakeTarget()": "3588fd80",
			"handDisplaySeed(address)": "0496561d",
			"joinGame()": "d4f77b1c",
			"playerData(address)": "424aeded",
			"players(uint256)": "f71d96cb",
			"rawFulfillRandomWords(uint256,uint256[])": "1fe543e3",
			"roomOwner()": "999dacb9",
			"stakingVault()": "24e7964a",
			"startGame()": "d65ab5f2",
			"takeCard(address,uint8)": "b0652a88"
		}
	},
	"abi": [
		{
			"inputs": [
				{
					"internalType": "uint256",
					"name": "_gameId",
					"type": "uint256"
				},
				{
					"internalType": "address payable",
					"name": "_stakingVault",
					"type": "address"
				},
				{
					"internalType": "address",
					"name": "_roomOwner",
					"type": "address"
				},
				{
					"components": [
						{
							"internalType": "uint256",
							"name": "minPlayers",
							"type": "uint256"
						},
						{
							"internalType": "uint256",
							"name": "maxPlayers",
							"type": "uint256"
						},
						{
							"internalType": "uint256",
							"name": "minStake",
							"type": "uint256"
						},
						{
							"internalType": "uint256",
							"name": "maxStake",
							"type": "uint256"
						},
						{
							"internalType": "uint256",
							"name": "jokerCount",
							"type": "uint256"
						},
						{
							"internalType": "uint256[10]",
							"name": "cardCounts",
							"type": "uint256[10]"
						}
					],
					"internalType": "struct GameRoom.GameConfig",
					"name": "_config",
					"type": "tuple"
				},
				{
					"internalType": "address",
					"name": "_vrfCoordinator",
					"type": "address"
				},
				{
					"internalType": "uint64",
					"name": "_vrfSubId",
					"type": "uint64"
				},
				{
					"internalType": "bytes32",
					"name": "_vrfKeyHash",
					"type": "bytes32"
				},
				{
					"internalType": "uint32",
					"name": "_vrfCallbackGasLimit",
					"type": "uint32"
				},
				{
					"internalType": "uint16",
					"name": "_vrfRequestConfirmations",
					"type": "uint16"
				},
				{
					"internalType": "address",
					"name": "_ecvrfRelay",
					"type": "address"
				}
			],
			"stateMutability": "nonpayable",
			"type": "constructor"
		},
		{
			"anonymous": false,
			"inputs": [
				{
					"indexed": true,
					"internalType": "address",
					"name": "from",
					"type": "address"
				},
				{
					"indexed": true,
					"internalType": "address",
					"name": "to",
					"type": "address"
				},
				{
					"indexed": false,
					"internalType": "uint8",
					"name": "cardNumber",
					"type": "uint8"
				}
			],
			"name": "CardTaken",
			"type": "event"
		},
		{
			"anonymous": false,
			"inputs": [
				{
					"indexed": true,
					"internalType": "uint256",
					"name": "gameId",
					"type": "uint256"
				},
				{
					"indexed": true,
					"internalType": "address",
					"name": "room",
					"type": "address"
				},
				{
					"indexed": false,
					"internalType": "bytes32",
					"name": "alphaCommitment",
					"type": "bytes32"
				}
			],
			"name": "ECVRFRandomRequested",
			"type": "event"
		},
		{
			"anonymous": false,
			"inputs": [
				{
					"indexed": true,
					"internalType": "uint256",
					"name": "gameId",
					"type": "uint256"
				},
				{
					"indexed": false,
					"internalType": "address[]",
					"name": "losers",
					"type": "address[]"
				},
				{
					"indexed": false,
					"internalType": "address[]",
					"name": "winners",
					"type": "address[]"
				}
			],
			"name": "GameEnded",
			"type": "event"
		},
		{
			"anonymous": false,
			"inputs": [
				{
					"indexed": true,
					"internalType": "uint256",
					"name": "gameId",
					"type": "uint256"
				}
			],
			"name": "GameStarted",
			"type": "event"
		},
		{
			"anonymous": false,
			"inputs": [
				{
					"indexed": true,
					"internalType": "uint256",
					"name": "gameId",
					"type": "uint256"
				},
				{
					"indexed": true,
					"internalType": "address",
					"name": "player",
					"type": "address"
				},
				{
					"indexed": false,
					"internalType": "uint256",
					"name": "stakeAmount",
					"type": "uint256"
				}
			],
			"name": "PlayerJoined",
			"type": "event"
		},
		{
			"anonymous": false,
			"inputs": [
				{
					"indexed": true,
					"internalType": "address",
					"name": "player",
					"type": "address"
				}
			],
			"name": "PlayerOut",
			"type": "event"
		},
		{
			"anonymous": false,
			"inputs": [
				{
					"indexed": true,
					"internalType": "uint256",
					"name": "gameId",
					"type": "uint256"
				},
				{
					"indexed": false,
					"internalType": "uint256",
					"name": "requestId",
					"type": "uint256"
				}
			],
			"name": "VrfRandomRequested",
			"type": "event"
		},
		{
			"inputs": [
				{
					"internalType": "uint256",
					"name": "randomWord",
					"type": "uint256"
				}
			],
			"name": "applyECVRFSeed",
			"outputs": [],
			"stateMutability": "nonpayable",
			"type": "function"
		},
		{
			"inputs": [],
			"name": "config",
			"outputs": [
				{
					"internalType": "uint256",
					"name": "minPlayers",
					"type": "uint256"
				},
				{
					"internalType": "uint256",
					"name": "maxPlayers",
					"type": "uint256"
				},
				{
					"internalType": "uint256",
					"name": "minStake",
					"type": "uint256"
				},
				{
					"internalType": "uint256",
					"name": "maxStake",
					"type": "uint256"
				},
				{
					"internalType": "uint256",
					"name": "jokerCount",
					"type": "uint256"
				}
			],
			"stateMutability": "view",
			"type": "function"
		},
		{
			"inputs": [],
			"name": "currentPlayerIndex",
			"outputs": [
				{
					"internalType": "uint256",
					"name": "",
					"type": "uint256"
				}
			],
			"stateMutability": "view",
			"type": "function"
		},
		{
			"inputs": [],
			"name": "ecvrfRelay",
			"outputs": [
				{
					"internalType": "address",
					"name": "",
					"type": "address"
				}
			],
			"stateMutability": "view",
			"type": "function"
		},
		{
			"inputs": [],
			"name": "gameId",
			"outputs": [
				{
					"internalType": "uint256",
					"name": "",
					"type": "uint256"
				}
			],
			"stateMutability": "view",
			"type": "function"
		},
		{
			"inputs": [],
			"name": "gameState",
			"outputs": [
				{
					"internalType": "enum GameRoom.GameState",
					"name": "",
					"type": "uint8"
				}
			],
			"stateMutability": "view",
			"type": "function"
		},
		{
			"inputs": [],
			"name": "getCurrentTurnPlayer",
			"outputs": [
				{
					"internalType": "address",
					"name": "",
					"type": "address"
				}
			],
			"stateMutability": "view",
			"type": "function"
		},
		{
			"inputs": [
				{
					"internalType": "address",
					"name": "p",
					"type": "address"
				}
			],
			"name": "getPlayerCards",
			"outputs": [
				{
					"internalType": "uint256[10]",
					"name": "",
					"type": "uint256[10]"
				},
				{
					"internalType": "uint256",
					"name": "",
					"type": "uint256"
				}
			],
			"stateMutability": "view",
			"type": "function"
		},
		{
			"inputs": [],
			"name": "getPlayerCount",
			"outputs": [
				{
					"internalType": "uint256",
					"name": "",
					"type": "uint256"
				}
			],
			"stateMutability": "view",
			"type": "function"
		},
		{
			"inputs": [],
			"name": "getPlayers",
			"outputs": [
				{
					"internalType": "address[]",
					"name": "",
					"type": "address[]"
				}
			],
			"stateMutability": "view",
			"type": "function"
		},
		{
			"inputs": [],
			"name": "getTakeTarget",
			"outputs": [
				{
					"internalType": "address",
					"name": "",
					"type": "address"
				}
			],
			"stateMutability": "view",
			"type": "function"
		},
		{
			"inputs": [
				{
					"internalType": "address",
					"name": "",
					"type": "address"
				}
			],
			"name": "handDisplaySeed",
			"outputs": [
				{
					"internalType": "uint256",
					"name": "",
					"type": "uint256"
				}
			],
			"stateMutability": "view",
			"type": "function"
		},
		{
			"inputs": [],
			"name": "joinGame",
			"outputs": [],
			"stateMutability": "payable",
			"type": "function"
		},
		{
			"inputs": [
				{
					"internalType": "address",
					"name": "",
					"type": "address"
				}
			],
			"name": "playerData",
			"outputs": [
				{
					"internalType": "address",
					"name": "addr",
					"type": "address"
				},
				{
					"internalType": "uint256",
					"name": "stakeAmount",
					"type": "uint256"
				},
				{
					"internalType": "bool",
					"name": "isActive",
					"type": "bool"
				},
				{
					"internalType": "bool",
					"name": "isOut",
					"type": "bool"
				},
				{
					"internalType": "uint256",
					"name": "jokerCount",
					"type": "uint256"
				}
			],
			"stateMutability": "view",
			"type": "function"
		},
		{
			"inputs": [
				{
					"internalType": "uint256",
					"name": "",
					"type": "uint256"
				}
			],
			"name": "players",
			"outputs": [
				{
					"internalType": "address",
					"name": "",
					"type": "address"
				}
			],
			"stateMutability": "view",
			"type": "function"
		},
		{
			"inputs": [
				{
					"internalType": "uint256",
					"name": "requestId",
					"type": "uint256"
				},
				{
					"internalType": "uint256[]",
					"name": "randomWords",
					"type": "uint256[]"
				}
			],
			"name": "rawFulfillRandomWords",
			"outputs": [],
			"stateMutability": "nonpayable",
			"type": "function"
		},
		{
			"inputs": [],
			"name": "roomOwner",
			"outputs": [
				{
					"internalType": "address",
					"name": "",
					"type": "address"
				}
			],
			"stateMutability": "view",
			"type": "function"
		},
		{
			"inputs": [],
			"name": "stakingVault",
			"outputs": [
				{
					"internalType": "contract StakingVault",
					"name": "",
					"type": "address"
				}
			],
			"stateMutability": "view",
			"type": "function"
		},
		{
			"inputs": [],
			"name": "startGame",
			"outputs": [],
			"stateMutability": "nonpayable",
			"type": "function"
		},
		{
			"inputs": [
				{
					"internalType": "address",
					"name": "target",
					"type": "address"
				},
				{
					"internalType": "uint8",
					"name": "cardNumber",
					"type": "uint8"
				}
			],
			"name": "takeCard",
			"outputs": [],
			"stateMutability": "nonpayable",
			"type": "function"
		}
	]
}