{
	"data": {
		"bytecode": {
			"linkReferences": {},
			"object": "6080806040523460145760f190816100198239f35b5f80fdfe60808060405260043610156011575f80fd5b5f3560e01c634df90a0a146023575f80fd5b34608c576060366003190112608c5760043567ffffffffffffffff8111608c57604f9036906004016090565b50506024359067ffffffffffffffff8211608c576050607360209336906004016090565b90501015806082575b15158152f35b506044351515607c565b5f80fd5b9181601f84011215608c5782359167ffffffffffffffff8311608c5760208381860195010111608c5756fea2646970667358221220e6ff6739021e9a6ff435d65c5fc6993afe22a249ab9c5ec6ff194a405e04a47a64736f6c634300081a0033",
			"opcodes": "PUSH1 0x80 DUP1 PUSH1 0x40 MSTORE CALLVALUE PUSH1 0x14 JUMPI PUSH1 0xF1 SWAP1 DUP2 PUSH2 0x19 DUP3 CODECOPY RETURN JUMPDEST PUSH0 DUP1 REVERT INVALID PUSH1 0x80 DUP1 PUSH1 0x40 MSTORE PUSH1 0x4 CALLDATASIZE LT ISZERO PUSH1 0x11 JUMPI PUSH0 DUP1 REVERT JUMPDEST PUSH0 CALLDATALOAD PUSH1 0xE0 SHR PUSH4 0x4DF90A0A EQ PUSH1 0x23 JUMPI PUSH0 DUP1 REVERT JUMPDEST CALLVALUE PUSH1 0x8C JUMPI PUSH1 0x60 CALLDATASIZE PUSH1 0x3 NOT ADD SLT PUSH1 0x8C JUMPI PUSH1 0x4 CALLDATALOAD PUSH8 0xFFFFFFFFFFFFFFFF DUP2 GT PUSH1 0x8C JUMPI PUSH1 0x4F SWAP1 CALLDATASIZE SWAP1 PUSH1 0x4 ADD PUSH1 0x90 JUMP JUMPDEST POP POP PUSH1 0x24 CALLDATALOAD SWAP1 PUSH8 0xFFFFFFFFFFFFFFFF DUP3 GT PUSH1 0x8C JUMPI PUSH1 0x50 PUSH1 0x73 PUSH1 0x20 SWAP4 CALLDATASIZE SWAP1 PUSH1 0x4 ADD PUSH1 0x90 JUMP JUMPDEST SWAP1 POP LT ISZERO DUP1 PUSH1 0x82 JUMPI JUMPDEST ISZERO ISZERO DUP2 MSTORE RETURN JUMPDEST POP PUSH1 0x44 CALLDATALOAD ISZERO ISZERO PUSH1 0x7C JUMP JUMPDEST PUSH0 DUP1 REVERT JUMPDEST SWAP2 DUP2 PUSH1 0x1F DUP5 ADD SLT ISZERO PUSH1 0x8C JUMPI DUP3 CALLDATALOAD SWAP2 PUSH8 0xFFFFFFFFFFFFFFFF DUP4 GT PUSH1 0x8C JUMPI PUSH1 0x20 DUP4 DUP2 DUP7 ADD SWAP6 ADD ADD GT PUSH1 0x8C JUMPI JUMP INVALID LOG2 PUSH5 0x6970667358 0x22 SLT KECCAK256 0xE6 SELFDESTRUCT PUSH8 0x39021E9A6FF435D6 TLOAD PUSH0 0xC6 SWAP10 GASPRICE INVALID 0x22 LOG2 BLOBHASH 0xAB SWAP13 MCOPY 0xC6 SELFDESTRUCT NOT BLOBBASEFEE BLOCKHASH MCOPY DIV LOG4 PUSH27 0x64736F6C634300081A003300000000000000000000000000000000 "
		},
		"gasEstimates": {
			"creation": {
				"codeDepositCost": "48200",
				"executionCost": "105",
				"totalCost": "48305"
			},
			"external": {
				"verify(bytes,bytes,uint256)": "infinite"
			}
		},
		"methodIdentifiers": {
			"verify(bytes,bytes,uint256)": "4df90a0a"
		}
	},
	"abi": [
		{
			"inputs": [
				{
					"internalType": "bytes",
					"name": "",
					"type": "bytes"
				},
				{
					"internalType": "bytes",
					"name": "proof",
					"type": "bytes"
				},
				{
					"internalType": "uint256",
					"name": "randomWord",
					"type": "uint256"
				}
			],
			"name": "verify",
			"outputs": [
				{
					"internalType": "bool",
					"name": "",
					"type": "bool"
				}
			],
			"stateMutability": "pure",
			"type": "function"
		}
	]
}