{
	"data": {
		"bytecode": {
			"linkReferences": {},
			"object": "60c034607657601f6111de38819003918201601f19168301916001600160401b03831184841017607a578084926040948552833981010312607657602081519101519060805260a05260405161114f908161008f8239608051818181610134015261021d015260a05181818160fa01526102400152f35b5f80fd5b634e487b7160e01b5f52604160045260245ffdfe60806040526004361015610011575f80fd5b5f3560e01c80634df90a0a14610044578063d7a6f6e81461003f5763fa6df55d1461003a575f80fd5b61011d565b6100e3565b346100b15760603660031901126100b15760043567ffffffffffffffff81116100b1576100759036906004016100b5565b906024359067ffffffffffffffff82116100b15760209261009d6100a79336906004016100b5565b9160443593610204565b6040519015158152f35b5f80fd5b9181601f840112156100b15782359167ffffffffffffffff83116100b157602083818601950101116100b157565b346100b1575f3660031901126100b15760206040517f00000000000000000000000000000000000000000000000000000000000000008152f35b346100b1575f3660031901126100b15760206040517f00000000000000000000000000000000000000000000000000000000000000008152f35b634e487b7160e01b5f52604160045260245ffd5b6040810190811067ffffffffffffffff82111761018757604052565b610157565b90601f8019910116810190811067ffffffffffffffff82111761018757604052565b906101bc604051928361018c565b565b92919267ffffffffffffffff821161018757604051916101e8601f8201601f19166020018461018c565b8294818452818301116100b1578281602093845f960137010152565b9161026b6102739294936040519561021b8761016b565b7f000000000000000000000000000000000000000000000000000000000000000087527f0000000000000000000000000000000000000000000000000000000000000000602088015236916101be565b9236916101be565b906040519261028360808561018c565b60803685376051835103610319576102f791846102f3926102bd6102b76102a98861036a565b516001600160f81b03191690565b60f81c90565b6021870151966102da886051604184015160801c93015193610586565b978452602084019788526040840152606083015261038b565b1590565b6103125782156103125761030e91519051906104be565b1490565b5050505f90565b60405162461bcd60e51b815260206004820152601360248201527226b0b63337b936b2b2102b292310383937b7b360691b6044820152606490fd5b6040519061036360808361018c565b6080368337565b8051156103775760200190565b634e487b7160e01b5f52603260045260245ffd5b91610396908361060c565b91909260608201519261040e6104006040850151956104066104007f483ada7726a3c4655da4fbfc0e1108a8fd17b448a68554199c47d08ffb10d4b87f79be667ef9dcbbac55a06295ce870b07029bfcdb2dce28d959f2815b16f817986020895199015194610b01565b91610b83565b959097610b01565b6401000003d094919419036401000003d019811161049c576fffffffffffffffffffffffffffffffff956104949561048e95610453936401000003d0199006926109ff565b906060830151976104648460400190565b986104828a519186516104778860200190565b9389868651946106dc565b96909551915192610728565b60801c90565b915191161490565b6107b6565b805191908290602001825e015f815290565b6040513d5f823e3d90fd5b6105116104f76105056104d46020955f956107ca565b604051607f60f91b87820152600360f81b602182015292839160228301906104a1565b03601f19810183528261018c565b604051918280926104a1565b039060025afa15610521575f5190565b6104b3565b610565906105346001610801565b63400000f4600160fe1b03906401000003d01990816007815f840908906401000003d0199081818009900908610957565b6002810180821161049c5760011661057a5790565b61058390610876565b90565b60ff6105a29116916002831480156105b6575b61053490610801565b90810180821161049c5760011661057a5790565b5060038314610599565b607f60f91b8152600160f81b600182015261058392916105e391600201906104a1565b906104a1565b6105f690600193926104a1565b60f89190911b6001600160f81b03191681520190565b6106266106389161061f81519160200190565b51906107ca565b6104f7604051938492602084016105c0565b5f5b61010081106106885760405162461bcd60e51b815260206004820152601860248201527f4e6f2076616c696420706f696e742077617320666f756e6400000000000000006044820152606490fd5b60205f6106a5604051610505816104f760ff8816898884016105e9565b039060025afa15610521575f516106bb81610526565b906106c6828261089b565b6106d457505060010161063a565b939092509050565b610400610400936106fb959697936106f393610b01565b959094610b01565b6401000003d01903926401000003d019841161049c57610724936401000003d0199006926109ff565b9091565b936105e35f976105e361076760209b61076161078d9b61075b6105059b6107556104f79b6105e39f6107ca565b9b6107ca565b976107ca565b936107ca565b604051607f60f91b8d820152600160f91b602182015298899791959160228901906104a1565b039060025afa15610521575f51806040515290565b634e487b7160e01b5f52601260045260245ffd5b634e487b7160e01b5f52601160045260245ffd5b90600116600201908160021161049c576040519160ff60f81b9060f81b16602083015260218201526021815261058360418261018c565b1561080857565b60405162461bcd60e51b815260206004820152603160248201527f456c6c697074696343757276653a20696e76616c696420636f6d7072657373656044820152700c8408a8640e0ded2dce840e0e4caccd2f607b1b6064820152608490fd5b8115610871570490565b6107a2565b6401000003d01903906401000003d019821161049c57565b9190820391821161049c57565b801580156108fb575b80156108f3575b80156108e3575b6108dd576401000003d01990818180090960076401000003d0199108906401000003d0199080091490565b50505f90565b506401000003d0198210156108b2565b5081156108ab565b506401000003d0198110156108a4565b1561091257565b60405162461bcd60e51b815260206004820152601e60248201527f456c6c697074696343757276653a206d6f64756c7573206973207a65726f00006044820152606490fd5b610961600161090b565b80156108dd5781156109f857600191600160ff1b9190825b6109835750505090565b9091926401000003d019908483161515840a906401000003d019908009096401000003d01990600185901c83161515840a9082908009096401000003d01990600285901c83161515840a9082908009096401000003d01990600385901c83161515840a9082908009099260041c919082610979565b5050600190565b90929091808303610ae457506401000003d01990830815610adc576401000003d019828009916401000003d01980848409600409916401000003d019905f9082908190800960030908926401000003d0198380086401000003d019036401000003d019811161049c576401000003d019908186800908926401000003d01984810390811161049c57610724956401000003d01993610aac908590819080096008096401000003d01961088e565b926401000003d01992839108900908906401000003d01990819060019009600209905b6401000003d01992610c7c565b50505f905f90565b90610afb9291610724946401000003d01993610d57565b90610acf565b929091928015610b7a575f905f94600194826001935b610b245750505050929190565b60018116610b4f575b905f610b469260011c9485946401000003d01993611081565b92909293610b17565b93610b6b908484845f9a610b46969c6401000003d01995610eed565b90989097509094909150610b2d565b50909190600190565b9092919283151580610c6c575b80610c64575b15610c2e575f936401000003d019856001835b610bd757505050506401000003d01984800991826401000003d0199109936401000003d01992839109900990565b610be48484999599610867565b92819261087157610c20610c0b610c26936401000003d0199087096401000003d01961088e565b5f966401000003d01991900893998095611106565b9061088e565b929083610ba9565b60405162461bcd60e51b815260206004820152600e60248201526d24b73b30b634b210373ab6b132b960911b6044820152606490fd5b506001610b96565b506401000003d019841415610b90565b9392919384151580610d01575b80610cf8575b15610c2e575f9483159081856001835b610cbc575050505061087157829081808780098092099509900990565b610cc984839b959b610867565b91819361087157610c2089610ce481610cf09587098261088e565b5f9708949b8094611106565b929183610c9f565b50821515610c8f565b5082851415610c89565b15610d1257565b60405162461bcd60e51b815260206004820152601e60248201527f557365206a6163446f75626c652066756e6374696f6e20696e737465616400006044820152606490fd5b9391909492841580610ee5575b610ed957811580610ed1575b610ec657610d7c610354565b958315610871578380938160018009808a529882808b6001099460208301958652604083018c81529a82808e6001099160608601928352610dbd60806101ae565b9d5190098c5251900960208a0152519009604087015251900960608401528251936040840194855114801590610eb4575b610df790610d0b565b81610e00610354565b9551610e0d86518361088e565b90088552816060850151610ea98288818060208b0195610e2e87518361088e565b900899602083019a8b5281808c8180808089518a5190099360408a01948552610e5e8286518c5190099a60600190565b998a52518009610e6f89518361088e565b9008610e8582808851865190096002098361088e565b90089d51935190519009610e998d8361088e565b900890099351905190098361088e565b900894510991929190565b50602084015160608501511415610dee565b505050909190600190565b508015610d70565b90945092506001919050565b508515610d64565b9694969593909195801580611079575b61106d57831580611065575b61105a57610f15610354565b9285156108715788948694858093818c800983528183518d0995602084019687528280604086019b81818009808e5290099160608601928352610f5860806101ae565b9b5190098a5251900960208801525190096040850152519009606082015281815195610f848360400190565b96875114801590611048575b610f9990610d0b565b81610fa2610354565b9751610faf85518361088e565b9008875281606084015161103b828a818060208a0195610fd087518361088e565b90089860208301998a5281808b8180808089518a5190099360408a019485526110008286518c5190099a60600190565b998a5251800961101189518361088e565b900861102782808851865190096002098361088e565b90089c51935190519009610e998c8361088e565b9008965192969509900990565b50602083015160608401511415610f90565b935050945050929190565b508115610f09565b50959450509050929190565b508215610efd565b90939194929480156110fe57821561087157828086800992818080808680099a8180808a88096004099c80099009928009600309089183878008840384811161049c5784908185800908908185039085821161049c57858091800960080985039085821161049c5785948580949281939b08900908940960020990565b909450919050565b8181029291811591840414171561049c5756fea264697066735822122079c92eed7fa7477bccd7241e1fcd4f5d274c74774007dc6fa30063c2bd3edcc264736f6c634300081a0033",
			"opcodes": "PUSH1 0xC0 CALLVALUE PUSH1 0x76 JUMPI PUSH1 0x1F PUSH2 0x11DE CODESIZE DUP2 SWAP1 SUB SWAP2 DUP3 ADD PUSH1 0x1F NOT AND DUP4 ADD SWAP2 PUSH1 0x1 PUSH1 0x1 PUSH1 0x40 SHL SUB DUP4 GT DUP5 DUP5 LT OR PUSH1 0x7A JUMPI DUP1 DUP5 SWAP3 PUSH1 0x40 SWAP5 DUP6 MSTORE DUP4 CODECOPY DUP2 ADD SUB SLT PUSH1 0x76 JUMPI PUSH1 0x20 DUP2 MLOAD SWAP2 ADD MLOAD SWAP1 PUSH1 0x80 MSTORE PUSH1 0xA0 MSTORE PUSH1 0x40 MLOAD PUSH2 0x114F SWAP1 DUP2 PUSH2 0x8F DUP3 CODECOPY PUSH1 0x80 MLOAD DUP2 DUP2 DUP2 PUSH2 0x134 ADD MSTORE PUSH2 0x21D ADD MSTORE PUSH1 0xA0 MLOAD DUP2 DUP2 DUP2 PUSH1 0xFA ADD MSTORE PUSH2 0x240 ADD MSTORE RETURN JUMPDEST PUSH0 DUP1 REVERT JUMPDEST PUSH4 0x4E487B71 PUSH1 0xE0 SHL PUSH0 MSTORE PUSH1 0x41 PUSH1 0x4 MSTORE PUSH1 0x24 PUSH0 REVERT INVALID PUSH1 0x80 PUSH1 0x40 MSTORE PUSH1 0x4 CALLDATASIZE LT ISZERO PUSH2 0x11 JUMPI PUSH0 DUP1 REVERT JUMPDEST PUSH0 CALLDATALOAD PUSH1 0xE0 SHR DUP1 PUSH4 0x4DF90A0A EQ PUSH2 0x44 JUMPI DUP1 PUSH4 0xD7A6F6E8 EQ PUSH2 0x3F JUMPI PUSH4 0xFA6DF55D EQ PUSH2 0x3A JUMPI PUSH0 DUP1 REVERT JUMPDEST PUSH2 0x11D JUMP JUMPDEST PUSH2 0xE3 JUMP JUMPDEST CALLVALUE PUSH2 0xB1 JUMPI PUSH1 0x60 CALLDATASIZE PUSH1 0x3 NOT ADD SLT PUSH2 0xB1 JUMPI PUSH1 0x4 CALLDATALOAD PUSH8 0xFFFFFFFFFFFFFFFF DUP2 GT PUSH2 0xB1 JUMPI PUSH2 0x75 SWAP1 CALLDATASIZE SWAP1 PUSH1 0x4 ADD PUSH2 0xB5 JUMP JUMPDEST SWAP1 PUSH1 0x24 CALLDATALOAD SWAP1 PUSH8 0xFFFFFFFFFFFFFFFF DUP3 GT PUSH2 0xB1 JUMPI PUSH1 0x20 SWAP3 PUSH2 0x9D PUSH2 0xA7 SWAP4 CALLDATASIZE SWAP1 PUSH1 0x4 ADD PUSH2 0xB5 JUMP JUMPDEST SWAP2 PUSH1 0x44 CALLDATALOAD SWAP4 PUSH2 0x204 JUMP JUMPDEST PUSH1 0x40 MLOAD SWAP1 ISZERO ISZERO DUP2 MSTORE RETURN JUMPDEST PUSH0 DUP1 REVERT JUMPDEST SWAP2 DUP2 PUSH1 0x1F DUP5 ADD SLT ISZERO PUSH2 0xB1 JUMPI DUP3 CALLDATALOAD SWAP2 PUSH8 0xFFFFFFFFFFFFFFFF DUP4 GT PUSH2 0xB1 JUMPI PUSH1 0x20 DUP4 DUP2 DUP7 ADD SWAP6 ADD ADD GT PUSH2 0xB1 JUMPI JUMP JUMPDEST CALLVALUE PUSH2 0xB1 JUMPI PUSH0 CALLDATASIZE PUSH1 0x3 NOT ADD SLT PUSH2 0xB1 JUMPI PUSH1 0x20 PUSH1 0x40 MLOAD PUSH32 0x0 DUP2 MSTORE RETURN JUMPDEST CALLVALUE PUSH2 0xB1 JUMPI PUSH0 CALLDATASIZE PUSH1 0x3 NOT ADD SLT PUSH2 0xB1 JUMPI PUSH1 0x20 PUSH1 0x40 MLOAD PUSH32 0x0 DUP2 MSTORE RETURN JUMPDEST PUSH4 0x4E487B71 PUSH1 0xE0 SHL PUSH0 MSTORE PUSH1 0x41 PUSH1 0x4 MSTORE PUSH1 0x24 PUSH0 REVERT JUMPDEST PUSH1 0x40 DUP2 ADD SWAP1 DUP2 LT PUSH8 0xFFFFFFFFFFFFFFFF DUP3 GT OR PUSH2 0x187 JUMPI PUSH1 0x40 MSTORE JUMP JUMPDEST PUSH2 0x157 JUMP JUMPDEST SWAP1 PUSH1 0x1F DUP1 NOT SWAP2 ADD AND DUP2 ADD SWAP1 DUP2 LT PUSH8 0xFFFFFFFFFFFFFFFF DUP3 GT OR PUSH2 0x187 JUMPI PUSH1 0x40 MSTORE JUMP JUMPDEST SWAP1 PUSH2 0x1BC PUSH1 0x40 MLOAD SWAP3 DUP4 PUSH2 0x18C JUMP JUMPDEST JUMP JUMPDEST SWAP3 SWAP2 SWAP3 PUSH8 0xFFFFFFFFFFFFFFFF DUP3 GT PUSH2 0x187 JUMPI PUSH1 0x40 MLOAD SWAP2 PUSH2 0x1E8 PUSH1 0x1F DUP3 ADD PUSH1 0x1F NOT AND PUSH1 0x20 ADD DUP5 PUSH2 0x18C JUMP JUMPDEST DUP3 SWAP5 DUP2 DUP5 MSTORE DUP2 DUP4 ADD GT PUSH2 0xB1 JUMPI DUP3 DUP2 PUSH1 0x20 SWAP4 DUP5 PUSH0 SWAP7 ADD CALLDATACOPY ADD ADD MSTORE JUMP JUMPDEST SWAP2 PUSH2 0x26B PUSH2 0x273 SWAP3 SWAP5 SWAP4 PUSH1 0x40 MLOAD SWAP6 PUSH2 0x21B DUP8 PUSH2 0x16B JUMP JUMPDEST PUSH32 0x0 DUP8 MSTORE PUSH32 0x0 PUSH1 0x20 DUP9 ADD MSTORE CALLDATASIZE SWAP2 PUSH2 0x1BE JUMP JUMPDEST SWAP3 CALLDATASIZE SWAP2 PUSH2 0x1BE JUMP JUMPDEST SWAP1 PUSH1 0x40 MLOAD SWAP3 PUSH2 0x283 PUSH1 0x80 DUP6 PUSH2 0x18C JUMP JUMPDEST PUSH1 0x80 CALLDATASIZE DUP6 CALLDATACOPY PUSH1 0x51 DUP4 MLOAD SUB PUSH2 0x319 JUMPI PUSH2 0x2F7 SWAP2 DUP5 PUSH2 0x2F3 SWAP3 PUSH2 0x2BD PUSH2 0x2B7 PUSH2 0x2A9 DUP9 PUSH2 0x36A JUMP JUMPDEST MLOAD PUSH1 0x1 PUSH1 0x1 PUSH1 0xF8 SHL SUB NOT AND SWAP1 JUMP JUMPDEST PUSH1 0xF8 SHR SWAP1 JUMP JUMPDEST PUSH1 0x21 DUP8 ADD MLOAD SWAP7 PUSH2 0x2DA DUP9 PUSH1 0x51 PUSH1 0x41 DUP5 ADD MLOAD PUSH1 0x80 SHR SWAP4 ADD MLOAD SWAP4 PUSH2 0x586 JUMP JUMPDEST SWAP8 DUP5 MSTORE PUSH1 0x20 DUP5 ADD SWAP8 DUP9 MSTORE PUSH1 0x40 DUP5 ADD MSTORE PUSH1 0x60 DUP4 ADD MSTORE PUSH2 0x38B JUMP JUMPDEST ISZERO SWAP1 JUMP JUMPDEST PUSH2 0x312 JUMPI DUP3 ISZERO PUSH2 0x312 JUMPI PUSH2 0x30E SWAP2 MLOAD SWAP1 MLOAD SWAP1 PUSH2 0x4BE JUMP JUMPDEST EQ SWAP1 JUMP JUMPDEST POP POP POP PUSH0 SWAP1 JUMP JUMPDEST PUSH1 0x40 MLOAD PUSH3 0x461BCD PUSH1 0xE5 SHL DUP2 MSTORE PUSH1 0x20 PUSH1 0x4 DUP3 ADD MSTORE PUSH1 0x13 PUSH1 0x24 DUP3 ADD MSTORE PUSH19 0x26B0B63337B936B2B2102B292310383937B7B3 PUSH1 0x69 SHL PUSH1 0x44 DUP3 ADD MSTORE PUSH1 0x64 SWAP1 REVERT JUMPDEST PUSH1 0x40 MLOAD SWAP1 PUSH2 0x363 PUSH1 0x80 DUP4 PUSH2 0x18C JUMP JUMPDEST PUSH1 0x80 CALLDATASIZE DUP4 CALLDATACOPY JUMP JUMPDEST DUP1 MLOAD ISZERO PUSH2 0x377 JUMPI PUSH1 0x20 ADD SWAP1 JUMP JUMPDEST PUSH4 0x4E487B71 PUSH1 0xE0 SHL PUSH0 MSTORE PUSH1 0x32 PUSH1 0x4 MSTORE PUSH1 0x24 PUSH0 REVERT JUMPDEST SWAP2 PUSH2 0x396 SWAP1 DUP4 PUSH2 0x60C JUMP JUMPDEST SWAP2 SWAP1 SWAP3 PUSH1 0x60 DUP3 ADD MLOAD SWAP3 PUSH2 0x40E PUSH2 0x400 PUSH1 0x40 DUP6 ADD MLOAD SWAP6 PUSH2 0x406 PUSH2 0x400 PUSH32 0x483ADA7726A3C4655DA4FBFC0E1108A8FD17B448A68554199C47D08FFB10D4B8 PUSH32 0x79BE667EF9DCBBAC55A06295CE870B07029BFCDB2DCE28D959F2815B16F81798 PUSH1 0x20 DUP10 MLOAD SWAP10 ADD MLOAD SWAP5 PUSH2 0xB01 JUMP JUMPDEST SWAP2 PUSH2 0xB83 JUMP JUMPDEST SWAP6 SWAP1 SWAP8 PUSH2 0xB01 JUMP JUMPDEST PUSH5 0x1000003D0 SWAP5 SWAP2 SWAP5 NOT SUB PUSH5 0x1000003D0 NOT DUP2 GT PUSH2 0x49C JUMPI PUSH16 0xFFFFFFFFFFFFFFFFFFFFFFFFFFFFFFFF SWAP6 PUSH2 0x494 SWAP6 PUSH2 0x48E SWAP6 PUSH2 0x453 SWAP4 PUSH5 0x1000003D0 NOT SWAP1 MOD SWAP3 PUSH2 0x9FF JUMP JUMPDEST SWAP1 PUSH1 0x60 DUP4 ADD MLOAD SWAP8 PUSH2 0x464 DUP5 PUSH1 0x40 ADD SWAP1 JUMP JUMPDEST SWAP9 PUSH2 0x482 DUP11 MLOAD SWAP2 DUP7 MLOAD PUSH2 0x477 DUP9 PUSH1 0x20 ADD SWAP1 JUMP JUMPDEST SWAP4 DUP10 DUP7 DUP7 MLOAD SWAP5 PUSH2 0x6DC JUMP JUMPDEST SWAP7 SWAP1 SWAP6 MLOAD SWAP2 MLOAD SWAP3 PUSH2 0x728 JUMP JUMPDEST PUSH1 0x80 SHR SWAP1 JUMP JUMPDEST SWAP2 MLOAD SWAP2 AND EQ SWAP1 JUMP JUMPDEST PUSH2 0x7B6 JUMP JUMPDEST DUP1 MLOAD SWAP2 SWAP1 DUP3 SWAP1 PUSH1 0x20 ADD DUP3 MCOPY ADD PUSH0 DUP2 MSTORE SWAP1 JUMP JUMPDEST PUSH1 0x40 MLOAD RETURNDATASIZE PUSH0 DUP3 RETURNDATACOPY RETURNDATASIZE SWAP1 REVERT JUMPDEST PUSH2 0x511 PUSH2 0x4F7 PUSH2 0x505 PUSH2 0x4D4 PUSH1 0x20 SWAP6 PUSH0 SWAP6 PUSH2 0x7CA JUMP JUMPDEST PUSH1 0x40 MLOAD PUSH1 0x7F PUSH1 0xF9 SHL DUP8 DUP3 ADD MSTORE PUSH1 0x3 PUSH1 0xF8 SHL PUSH1 0x21 DUP3 ADD MSTORE SWAP3 DUP4 SWAP2 PUSH1 0x22 DUP4 ADD SWAP1 PUSH2 0x4A1 JUMP JUMPDEST SUB PUSH1 0x1F NOT DUP2 ADD DUP4 MSTORE DUP3 PUSH2 0x18C JUMP JUMPDEST PUSH1 0x40 MLOAD SWAP2 DUP3 DUP1 SWAP3 PUSH2 0x4A1 JUMP JUMPDEST SUB SWAP1 PUSH1 0x2 GAS STATICCALL ISZERO PUSH2 0x521 JUMPI PUSH0 MLOAD SWAP1 JUMP JUMPDEST PUSH2 0x4B3 JUMP JUMPDEST PUSH2 0x565 SWAP1 PUSH2 0x534 PUSH1 0x1 PUSH2 0x801 JUMP JUMPDEST PUSH4 0x400000F4 PUSH1 0x1 PUSH1 0xFE SHL SUB SWAP1 PUSH5 0x1000003D0 NOT SWAP1 DUP2 PUSH1 0x7 DUP2 PUSH0 DUP5 MULMOD ADDMOD SWAP1 PUSH5 0x1000003D0 NOT SWAP1 DUP2 DUP2 DUP1 MULMOD SWAP1 MULMOD ADDMOD PUSH2 0x957 JUMP JUMPDEST PUSH1 0x2 DUP2 ADD DUP1 DUP3 GT PUSH2 0x49C JUMPI PUSH1 0x1 AND PUSH2 0x57A JUMPI SWAP1 JUMP JUMPDEST PUSH2 0x583 SWAP1 PUSH2 0x876 JUMP JUMPDEST SWAP1 JUMP JUMPDEST PUSH1 0xFF PUSH2 0x5A2 SWAP2 AND SWAP2 PUSH1 0x2 DUP4 EQ DUP1 ISZERO PUSH2 0x5B6 JUMPI JUMPDEST PUSH2 0x534 SWAP1 PUSH2 0x801 JUMP JUMPDEST SWAP1 DUP2 ADD DUP1 DUP3 GT PUSH2 0x49C JUMPI PUSH1 0x1 AND PUSH2 0x57A JUMPI SWAP1 JUMP JUMPDEST POP PUSH1 0x3 DUP4 EQ PUSH2 0x599 JUMP JUMPDEST PUSH1 0x7F PUSH1 0xF9 SHL DUP2 MSTORE PUSH1 0x1 PUSH1 0xF8 SHL PUSH1 0x1 DUP3 ADD MSTORE PUSH2 0x583 SWAP3 SWAP2 PUSH2 0x5E3 SWAP2 PUSH1 0x2 ADD SWAP1 PUSH2 0x4A1 JUMP JUMPDEST SWAP1 PUSH2 0x4A1 JUMP JUMPDEST PUSH2 0x5F6 SWAP1 PUSH1 0x1 SWAP4 SWAP3 PUSH2 0x4A1 JUMP JUMPDEST PUSH1 0xF8 SWAP2 SWAP1 SWAP2 SHL PUSH1 0x1 PUSH1 0x1 PUSH1 0xF8 SHL SUB NOT AND DUP2 MSTORE ADD SWAP1 JUMP JUMPDEST PUSH2 0x626 PUSH2 0x638 SWAP2 PUSH2 0x61F DUP2 MLOAD SWAP2 PUSH1 0x20 ADD SWAP1 JUMP JUMPDEST MLOAD SWAP1 PUSH2 0x7CA JUMP JUMPDEST PUSH2 0x4F7 PUSH1 0x40 MLOAD SWAP4 DUP5 SWAP3 PUSH1 0x20 DUP5 ADD PUSH2 0x5C0 JUMP JUMPDEST PUSH0 JUMPDEST PUSH2 0x100 DUP2 LT PUSH2 0x688 JUMPI PUSH1 0x40 MLOAD PUSH3 0x461BCD PUSH1 0xE5 SHL DUP2 MSTORE PUSH1 0x20 PUSH1 0x4 DUP3 ADD MSTORE PUSH1 0x18 PUSH1 0x24 DUP3 ADD MSTORE PUSH32 0x4E6F2076616C696420706F696E742077617320666F756E640000000000000000 PUSH1 0x44 DUP3 ADD MSTORE PUSH1 0x64 SWAP1 REVERT JUMPDEST PUSH1 0x20 PUSH0 PUSH2 0x6A5 PUSH1 0x40 MLOAD PUSH2 0x505 DUP2 PUSH2 0x4F7 PUSH1 0xFF DUP9 AND DUP10 DUP9 DUP5 ADD PUSH2 0x5E9 JUMP JUMPDEST SUB SWAP1 PUSH1 0x2 GAS STATICCALL ISZERO PUSH2 0x521 JUMPI PUSH0 MLOAD PUSH2 0x6BB DUP2 PUSH2 0x526 JUMP JUMPDEST SWAP1 PUSH2 0x6C6 DUP3 DUP3 PUSH2 0x89B JUMP JUMPDEST PUSH2 0x6D4 JUMPI POP POP PUSH1 0x1 ADD PUSH2 0x63A JUMP JUMPDEST SWAP4 SWAP1 SWAP3 POP SWAP1 POP JUMP JUMPDEST PUSH2 0x400 PUSH2 0x400 SWAP4 PUSH2 0x6FB SWAP6 SWAP7 SWAP8 SWAP4 PUSH2 0x6F3 SWAP4 PUSH2 0xB01 JUMP JUMPDEST SWAP6 SWAP1 SWAP5 PUSH2 0xB01 JUMP JUMPDEST PUSH5 0x1000003D0 NOT SUB SWAP3 PUSH5 0x1000003D0 NOT DUP5 GT PUSH2 0x49C JUMPI PUSH2 0x724 SWAP4 PUSH5 0x1000003D0 NOT SWAP1 MOD SWAP3 PUSH2 0x9FF JUMP JUMPDEST SWAP1 SWAP2 JUMP JUMPDEST SWAP4 PUSH2 0x5E3 PUSH0 SWAP8 PUSH2 0x5E3 PUSH2 0x767 PUSH1 0x20 SWAP12 PUSH2 0x761 PUSH2 0x78D SWAP12 PUSH2 0x75B PUSH2 0x505 SWAP12 PUSH2 0x755 PUSH2 0x4F7 SWAP12 PUSH2 0x5E3 SWAP16 PUSH2 0x7CA JUMP JUMPDEST SWAP12 PUSH2 0x7CA JUMP JUMPDEST SWAP8 PUSH2 0x7CA JUMP JUMPDEST SWAP4 PUSH2 0x7CA JUMP JUMPDEST PUSH1 0x40 MLOAD PUSH1 0x7F PUSH1 0xF9 SHL DUP14 DUP3 ADD MSTORE PUSH1 0x1 PUSH1 0xF9 SHL PUSH1 0x21 DUP3 ADD MSTORE SWAP9 DUP10 SWAP8 SWAP2 SWAP6 SWAP2 PUSH1 0x22 DUP10 ADD SWAP1 PUSH2 0x4A1 JUMP JUMPDEST SUB SWAP1 PUSH1 0x2 GAS STATICCALL ISZERO PUSH2 0x521 JUMPI PUSH0 MLOAD DUP1 PUSH1 0x40 MLOAD MSTORE SWAP1 JUMP JUMPDEST PUSH4 0x4E487B71 PUSH1 0xE0 SHL PUSH0 MSTORE PUSH1 0x12 PUSH1 0x4 MSTORE PUSH1 0x24 PUSH0 REVERT JUMPDEST PUSH4 0x4E487B71 PUSH1 0xE0 SHL PUSH0 MSTORE PUSH1 0x11 PUSH1 0x4 MSTORE PUSH1 0x24 PUSH0 REVERT JUMPDEST SWAP1 PUSH1 0x1 AND PUSH1 0x2 ADD SWAP1 DUP2 PUSH1 0x2 GT PUSH2 0x49C JUMPI PUSH1 0x40 MLOAD SWAP2 PUSH1 0xFF PUSH1 0xF8 SHL SWAP1 PUSH1 0xF8 SHL AND PUSH1 0x20 DUP4 ADD MSTORE PUSH1 0x21 DUP3 ADD MSTORE PUSH1 0x21 DUP2 MSTORE PUSH2 0x583 PUSH1 0x41 DUP3 PUSH2 0x18C JUMP JUMPDEST ISZERO PUSH2 0x808 JUMPI JUMP JUMPDEST PUSH1 0x40 MLOAD PUSH3 0x461BCD PUSH1 0xE5 SHL DUP2 MSTORE PUSH1 0x20 PUSH1 0x4 DUP3 ADD MSTORE PUSH1 0x31 PUSH1 0x24 DUP3 ADD MSTORE PUSH32 0x456C6C697074696343757276653A20696E76616C696420636F6D707265737365 PUSH1 0x44 DUP3 ADD MSTORE PUSH17 0xC8408A8640E0DED2DCE840E0E4CACCD2F PUSH1 0x7B SHL PUSH1 0x64 DUP3 ADD MSTORE PUSH1 0x84 SWAP1 REVERT JUMPDEST DUP2 ISZERO PUSH2 0x871 JUMPI DIV SWAP1 JUMP JUMPDEST PUSH2 0x7A2 JUMP JUMPDEST PUSH5 0x1000003D0 NOT SUB SWAP1 PUSH5 0x1000003D0 NOT DUP3 GT PUSH2 0x49C JUMPI JUMP JUMPDEST SWAP2 SWAP1 DUP3 SUB SWAP2 DUP3 GT PUSH2 0x49C JUMPI JUMP JUMPDEST DUP1 ISZERO DUP1 ISZERO PUSH2 0x8FB JUMPI JUMPDEST DUP1 ISZERO PUSH2 0x8F3 JUMPI JUMPDEST DUP1 ISZERO PUSH2 0x8E3 JUMPI JUMPDEST PUSH2 0x8DD JUMPI PUSH5 0x1000003D0 NOT SWAP1 DUP2 DUP2 DUP1 MULMOD MULMOD PUSH1 0x7 PUSH5 0x1000003D0 NOT SWAP2 ADDMOD SWAP1 PUSH5 0x1000003D0 NOT SWAP1 DUP1 MULMOD EQ SWAP1 JUMP JUMPDEST POP POP PUSH0 SWAP1 JUMP JUMPDEST POP PUSH5 0x1000003D0 NOT DUP3 LT ISZERO PUSH2 0x8B2 JUMP JUMPDEST POP DUP2 ISZERO PUSH2 0x8AB JUMP JUMPDEST POP PUSH5 0x1000003D0 NOT DUP2 LT ISZERO PUSH2 0x8A4 JUMP JUMPDEST ISZERO PUSH2 0x912 JUMPI JUMP JUMPDEST PUSH1 0x40 MLOAD PUSH3 0x461BCD PUSH1 0xE5 SHL DUP2 MSTORE PUSH1 0x20 PUSH1 0x4 DUP3 ADD MSTORE PUSH1 0x1E PUSH1 0x24 DUP3 ADD MSTORE PUSH32 0x456C6C697074696343757276653A206D6F64756C7573206973207A65726F0000 PUSH1 0x44 DUP3 ADD MSTORE PUSH1 0x64 SWAP1 REVERT JUMPDEST PUSH2 0x961 PUSH1 0x1 PUSH2 0x90B JUMP JUMPDEST DUP1 ISZERO PUSH2 0x8DD JUMPI DUP2 ISZERO PUSH2 0x9F8 JUMPI PUSH1 0x1 SWAP2 PUSH1 0x1 PUSH1 0xFF SHL SWAP2 SWAP1 DUP3 JUMPDEST PUSH2 0x983 JUMPI POP POP POP SWAP1 JUMP JUMPDEST SWAP1 SWAP2 SWAP3 PUSH5 0x1000003D0 NOT SWAP1 DUP5 DUP4 AND ISZERO ISZERO DUP5 EXP SWAP1 PUSH5 0x1000003D0 NOT SWAP1 DUP1 MULMOD MULMOD PUSH5 0x1000003D0 NOT SWAP1 PUSH1 0x1 DUP6 SWAP1 SHR DUP4 AND ISZERO ISZERO DUP5 EXP SWAP1 DUP3 SWAP1 DUP1 MULMOD MULMOD PUSH5 0x1000003D0 NOT SWAP1 PUSH1 0x2 DUP6 SWAP1 SHR DUP4 AND ISZERO ISZERO DUP5 EXP SWAP1 DUP3 SWAP1 DUP1 MULMOD MULMOD PUSH5 0x1000003D0 NOT SWAP1 PUSH1 0x3 DUP6 SWAP1 SHR DUP4 AND ISZERO ISZERO DUP5 EXP SWAP1 DUP3 SWAP1 DUP1 MULMOD MULMOD SWAP3 PUSH1 0x4 SHR SWAP2 SWAP1 DUP3 PUSH2 0x979 JUMP JUMPDEST POP POP PUSH1 0x1 SWAP1 JUMP JUMPDEST SWAP1 SWAP3 SWAP1 SWAP2 DUP1 DUP4 SUB PUSH2 0xAE4 JUMPI POP PUSH5 0x1000003D0 NOT SWAP1 DUP4 ADDMOD ISZERO PUSH2 0xADC JUMPI PUSH5 0x1000003D0 NOT DUP3 DUP1 MULMOD SWAP2 PUSH5 0x1000003D0 NOT DUP1 DUP5 DUP5 MULMOD PUSH1 0x4 MULMOD SWAP2 PUSH5 0x1000003D0 NOT SWAP1 PUSH0 SWAP1 DUP3 SWAP1 DUP2 SWAP1 DUP1 MULMOD PUSH1 0x3 MULMOD ADDMOD SWAP3 PUSH5 0x1000003D0 NOT DUP4 DUP1 ADDMOD PUSH5 0x1000003D0 NOT SUB PUSH5 0x1000003D0 NOT DUP2 GT PUSH2 0x49C JUMPI PUSH5 0x1000003D0 NOT SWAP1 DUP2 DUP7 DUP1 MULMOD ADDMOD SWAP3 PUSH5 0x1000003D0 NOT DUP5 DUP2 SUB SWAP1 DUP2 GT PUSH2 0x49C JUMPI PUSH2 0x724 SWAP6 PUSH5 0x1000003D0 NOT SWAP4 PUSH2 0xAAC SWAP1 DUP6 SWAP1 DUP2 SWAP1 DUP1 MULMOD PUSH1 0x8 MULMOD PUSH5 0x1000003D0 NOT PUSH2 0x88E JUMP JUMPDEST SWAP3 PUSH5 0x1000003D0 NOT SWAP3 DUP4 SWAP2 ADDMOD SWAP1 MULMOD ADDMOD SWAP1 PUSH5 0x1000003D0 NOT SWAP1 DUP2 SWAP1 PUSH1 0x1 SWAP1 MULMOD PUSH1 0x2 MULMOD SWAP1 JUMPDEST PUSH5 0x1000003D0 NOT SWAP3 PUSH2 0xC7C JUMP JUMPDEST POP POP PUSH0 SWAP1 PUSH0 SWAP1 JUMP JUMPDEST SWAP1 PUSH2 0xAFB SWAP3 SWAP2 PUSH2 0x724 SWAP5 PUSH5 0x1000003D0 NOT SWAP4 PUSH2 0xD57 JUMP JUMPDEST SWAP1 PUSH2 0xACF JUMP JUMPDEST SWAP3 SWAP1 SWAP2 SWAP3 DUP1 ISZERO PUSH2 0xB7A JUMPI PUSH0 SWAP1 PUSH0 SWAP5 PUSH1 0x1 SWAP5 DUP3 PUSH1 0x1 SWAP4 JUMPDEST PUSH2 0xB24 JUMPI POP POP POP POP SWAP3 SWAP2 SWAP1 JUMP JUMPDEST PUSH1 0x1 DUP2 AND PUSH2 0xB4F JUMPI JUMPDEST SWAP1 PUSH0 PUSH2 0xB46 SWAP3 PUSH1 0x1 SHR SWAP5 DUP6 SWAP5 PUSH5 0x1000003D0 NOT SWAP4 PUSH2 0x1081 JUMP JUMPDEST SWAP3 SWAP1 SWAP3 SWAP4 PUSH2 0xB17 JUMP JUMPDEST SWAP4 PUSH2 0xB6B SWAP1 DUP5 DUP5 DUP5 PUSH0 SWAP11 PUSH2 0xB46 SWAP7 SWAP13 PUSH5 0x1000003D0 NOT SWAP6 PUSH2 0xEED JUMP JUMPDEST SWAP1 SWAP9 SWAP1 SWAP8 POP SWAP1 SWAP5 SWAP1 SWAP2 POP PUSH2 0xB2D JUMP JUMPDEST POP SWAP1 SWAP2 SWAP1 PUSH1 0x1 SWAP1 JUMP JUMPDEST SWAP1 SWAP3 SWAP2 SWAP3 DUP4 ISZERO ISZERO DUP1 PUSH2 0xC6C JUMPI JUMPDEST DUP1 PUSH2 0xC64 JUMPI JUMPDEST ISZERO PUSH2 0xC2E JUMPI PUSH0 SWAP4 PUSH5 0x1000003D0 NOT DUP6 PUSH1 0x1 DUP4 JUMPDEST PUSH2 0xBD7 JUMPI POP POP POP POP PUSH5 0x1000003D0 NOT DUP5 DUP1 MULMOD SWAP2 DUP3 PUSH5 0x1000003D0 NOT SWAP2 MULMOD SWAP4 PUSH5 0x1000003D0 NOT SWAP3 DUP4 SWAP2 MULMOD SWAP1 MULMOD SWAP1 JUMP JUMPDEST PUSH2 0xBE4 DUP5 DUP5 SWAP10 SWAP6 SWAP10 PUSH2 0x867 JUMP JUMPDEST SWAP3 DUP2 SWAP3 PUSH2 0x871 JUMPI PUSH2 0xC20 PUSH2 0xC0B PUSH2 0xC26 SWAP4 PUSH5 0x1000003D0 NOT SWAP1 DUP8 MULMOD PUSH5 0x1000003D0 NOT PUSH2 0x88E JUMP JUMPDEST PUSH0 SWAP7 PUSH5 0x1000003D0 NOT SWAP2 SWAP1 ADDMOD SWAP4 SWAP10 DUP1 SWAP6 PUSH2 0x1106 JUMP JUMPDEST SWAP1 PUSH2 0x88E JUMP JUMPDEST SWAP3 SWAP1 DUP4 PUSH2 0xBA9 JUMP JUMPDEST PUSH1 0x40 MLOAD PUSH3 0x461BCD PUSH1 0xE5 SHL DUP2 MSTORE PUSH1 0x20 PUSH1 0x4 DUP3 ADD MSTORE PUSH1 0xE PUSH1 0x24 DUP3 ADD MSTORE PUSH14 0x24B73B30B634B210373AB6B132B9 PUSH1 0x91 SHL PUSH1 0x44 DUP3 ADD MSTORE PUSH1 0x64 SWAP1 REVERT JUMPDEST POP PUSH1 0x1 PUSH2 0xB96 JUMP JUMPDEST POP PUSH5 0x1000003D0 NOT DUP5 EQ ISZERO PUSH2 0xB90 JUMP JUMPDEST SWAP4 SWAP3 SWAP2 SWAP4 DUP5 ISZERO ISZERO DUP1 PUSH2 0xD01 JUMPI JUMPDEST DUP1 PUSH2 0xCF8 JUMPI JUMPDEST ISZERO PUSH2 0xC2E JUMPI PUSH0 SWAP5 DUP4 ISZERO SWAP1 DUP2 DUP6 PUSH1 0x1 DUP4 JUMPDEST PUSH2 0xCBC JUMPI POP POP POP POP PUSH2 0x871 JUMPI DUP3 SWAP1 DUP2 DUP1 DUP8 DUP1 MULMOD DUP1 SWAP3 MULMOD SWAP6 MULMOD SWAP1 MULMOD SWAP1 JUMP JUMPDEST PUSH2 0xCC9 DUP5 DUP4 SWAP12 SWAP6 SWAP12 PUSH2 0x867 JUMP JUMPDEST SWAP2 DUP2 SWAP4 PUSH2 0x871 JUMPI PUSH2 0xC20 DUP10 PUSH2 0xCE4 DUP2 PUSH2 0xCF0 SWAP6 DUP8 MULMOD DUP3 PUSH2 0x88E JUMP JUMPDEST PUSH0 SWAP8 ADDMOD SWAP5 SWAP12 DUP1 SWAP5 PUSH2 0x1106 JUMP JUMPDEST SWAP3 SWAP2 DUP4 PUSH2 0xC9F JUMP JUMPDEST POP DUP3 ISZERO ISZERO PUSH2 0xC8F JUMP JUMPDEST POP DUP3 DUP6 EQ ISZERO PUSH2 0xC89 JUMP JUMPDEST ISZERO PUSH2 0xD12 JUMPI JUMP JUMPDEST PUSH1 0x40 MLOAD PUSH3 0x461BCD PUSH1 0xE5 SHL DUP2 MSTORE PUSH1 0x20 PUSH1 0x4 DUP3 ADD MSTORE PUSH1 0x1E PUSH1 0x24 DUP3 ADD MSTORE PUSH32 0x557365206A6163446F75626C652066756E6374696F6E20696E73746561640000 PUSH1 0x44 DUP3 ADD MSTORE PUSH1 0x64 SWAP1 REVERT JUMPDEST SWAP4 SWAP2 SWAP1 SWAP5 SWAP3 DUP5 ISZERO DUP1 PUSH2 0xEE5 JUMPI JUMPDEST PUSH2 0xED9 JUMPI DUP2 ISZERO DUP1 PUSH2 0xED1 JUMPI JUMPDEST PUSH2 0xEC6 JUMPI PUSH2 0xD7C PUSH2 0x354 JUMP JUMPDEST SWAP6 DUP4 ISZERO PUSH2 0x871 JUMPI DUP4 DUP1 SWAP4 DUP2 PUSH1 0x1 DUP1 MULMOD DUP1 DUP11 MSTORE SWAP9 DUP3 DUP1 DUP12 PUSH1 0x1 MULMOD SWAP5 PUSH1 0x20 DUP4 ADD SWAP6 DUP7 MSTORE PUSH1 0x40 DUP4 ADD DUP13 DUP2 MSTORE SWAP11 DUP3 DUP1 DUP15 PUSH1 0x1 MULMOD SWAP2 PUSH1 0x60 DUP7 ADD SWAP3 DUP4 MSTORE PUSH2 0xDBD PUSH1 0x80 PUSH2 0x1AE JUMP JUMPDEST SWAP14 MLOAD SWAP1 MULMOD DUP13 MSTORE MLOAD SWAP1 MULMOD PUSH1 0x20 DUP11 ADD MSTORE MLOAD SWAP1 MULMOD PUSH1 0x40 DUP8 ADD MSTORE MLOAD SWAP1 MULMOD PUSH1 0x60 DUP5 ADD MSTORE DUP3 MLOAD SWAP4 PUSH1 0x40 DUP5 ADD SWAP5 DUP6 MLOAD EQ DUP1 ISZERO SWAP1 PUSH2 0xEB4 JUMPI JUMPDEST PUSH2 0xDF7 SWAP1 PUSH2 0xD0B JUMP JUMPDEST DUP2 PUSH2 0xE00 PUSH2 0x354 JUMP JUMPDEST SWAP6 MLOAD PUSH2 0xE0D DUP7 MLOAD DUP4 PUSH2 0x88E JUMP JUMPDEST SWAP1 ADDMOD DUP6 MSTORE DUP2 PUSH1 0x60 DUP6 ADD MLOAD PUSH2 0xEA9 DUP3 DUP9 DUP2 DUP1 PUSH1 0x20 DUP12 ADD SWAP6 PUSH2 0xE2E DUP8 MLOAD DUP4 PUSH2 0x88E JUMP JUMPDEST SWAP1 ADDMOD SWAP10 PUSH1 0x20 DUP4 ADD SWAP11 DUP12 MSTORE DUP2 DUP1 DUP13 DUP2 DUP1 DUP1 DUP1 DUP10 MLOAD DUP11 MLOAD SWAP1 MULMOD SWAP4 PUSH1 0x40 DUP11 ADD SWAP5 DUP6 MSTORE PUSH2 0xE5E DUP3 DUP7 MLOAD DUP13 MLOAD SWAP1 MULMOD SWAP11 PUSH1 0x60 ADD SWAP1 JUMP JUMPDEST SWAP10 DUP11 MSTORE MLOAD DUP1 MULMOD PUSH2 0xE6F DUP10 MLOAD DUP4 PUSH2 0x88E JUMP JUMPDEST SWAP1 ADDMOD PUSH2 0xE85 DUP3 DUP1 DUP9 MLOAD DUP7 MLOAD SWAP1 MULMOD PUSH1 0x2 MULMOD DUP4 PUSH2 0x88E JUMP JUMPDEST SWAP1 ADDMOD SWAP14 MLOAD SWAP4 MLOAD SWAP1 MLOAD SWAP1 MULMOD PUSH2 0xE99 DUP14 DUP4 PUSH2 0x88E JUMP JUMPDEST SWAP1 ADDMOD SWAP1 MULMOD SWAP4 MLOAD SWAP1 MLOAD SWAP1 MULMOD DUP4 PUSH2 0x88E JUMP JUMPDEST SWAP1 ADDMOD SWAP5 MLOAD MULMOD SWAP2 SWAP3 SWAP2 SWAP1 JUMP JUMPDEST POP PUSH1 0x20 DUP5 ADD MLOAD PUSH1 0x60 DUP6 ADD MLOAD EQ ISZERO PUSH2 0xDEE JUMP JUMPDEST POP POP POP SWAP1 SWAP2 SWAP1 PUSH1 0x1 SWAP1 JUMP JUMPDEST POP DUP1 ISZERO PUSH2 0xD70 JUMP JUMPDEST SWAP1 SWAP5 POP SWAP3 POP PUSH1 0x1 SWAP2 SWAP1 POP JUMP JUMPDEST POP DUP6 ISZERO PUSH2 0xD64 JUMP JUMPDEST SWAP7 SWAP5 SWAP7 SWAP6 SWAP4 SWAP1 SWAP2 SWAP6 DUP1 ISZERO DUP1 PUSH2 0x1079 JUMPI JUMPDEST PUSH2 0x106D JUMPI DUP4 ISZERO DUP1 PUSH2 0x1065 JUMPI JUMPDEST PUSH2 0x105A JUMPI PUSH2 0xF15 PUSH2 0x354 JUMP JUMPDEST SWAP3 DUP6 ISZERO PUSH2 0x871 JUMPI DUP9 SWAP5 DUP7 SWAP5 DUP6 DUP1 SWAP4 DUP2 DUP13 DUP1 MULMOD DUP4 MSTORE DUP2 DUP4 MLOAD DUP14 MULMOD SWAP6 PUSH1 0x20 DUP5 ADD SWAP7 DUP8 MSTORE DUP3 DUP1 PUSH1 0x40 DUP7 ADD SWAP12 DUP2 DUP2 DUP1 MULMOD DUP1 DUP15 MSTORE SWAP1 MULMOD SWAP2 PUSH1 0x60 DUP7 ADD SWAP3 DUP4 MSTORE PUSH2 0xF58 PUSH1 0x80 PUSH2 0x1AE JUMP JUMPDEST SWAP12 MLOAD SWAP1 MULMOD DUP11 MSTORE MLOAD SWAP1 MULMOD PUSH1 0x20 DUP9 ADD MSTORE MLOAD SWAP1 MULMOD PUSH1 0x40 DUP6 ADD MSTORE MLOAD SWAP1 MULMOD PUSH1 0x60 DUP3 ADD MSTORE DUP2 DUP2 MLOAD SWAP6 PUSH2 0xF84 DUP4 PUSH1 0x40 ADD SWAP1 JUMP JUMPDEST SWAP7 DUP8 MLOAD EQ DUP1 ISZERO SWAP1 PUSH2 0x1048 JUMPI JUMPDEST PUSH2 0xF99 SWAP1 PUSH2 0xD0B JUMP JUMPDEST DUP2 PUSH2 0xFA2 PUSH2 0x354 JUMP JUMPDEST SWAP8 MLOAD PUSH2 0xFAF DUP6 MLOAD DUP4 PUSH2 0x88E JUMP JUMPDEST SWAP1 ADDMOD DUP8 MSTORE DUP2 PUSH1 0x60 DUP5 ADD MLOAD PUSH2 0x103B DUP3 DUP11 DUP2 DUP1 PUSH1 0x20 DUP11 ADD SWAP6 PUSH2 0xFD0 DUP8 MLOAD DUP4 PUSH2 0x88E JUMP JUMPDEST SWAP1 ADDMOD SWAP9 PUSH1 0x20 DUP4 ADD SWAP10 DUP11 MSTORE DUP2 DUP1 DUP12 DUP2 DUP1 DUP1 DUP1 DUP10 MLOAD DUP11 MLOAD SWAP1 MULMOD SWAP4 PUSH1 0x40 DUP11 ADD SWAP5 DUP6 MSTORE PUSH2 0x1000 DUP3 DUP7 MLOAD DUP13 MLOAD SWAP1 MULMOD SWAP11 PUSH1 0x60 ADD SWAP1 JUMP JUMPDEST SWAP10 DUP11 MSTORE MLOAD DUP1 MULMOD PUSH2 0x1011 DUP10 MLOAD DUP4 PUSH2 0x88E JUMP JUMPDEST SWAP1 ADDMOD PUSH2 0x1027 DUP3 DUP1 DUP9 MLOAD DUP7 MLOAD SWAP1 MULMOD PUSH1 0x2 MULMOD DUP4 PUSH2 0x88E JUMP JUMPDEST SWAP1 ADDMOD SWAP13 MLOAD SWAP4 MLOAD SWAP1 MLOAD SWAP1 MULMOD PUSH2 0xE99 DUP13 DUP4 PUSH2 0x88E JUMP JUMPDEST SWAP1 ADDMOD SWAP7 MLOAD SWAP3 SWAP7 SWAP6 MULMOD SWAP1 MULMOD SWAP1 JUMP JUMPDEST POP PUSH1 0x20 DUP4 ADD MLOAD PUSH1 0x60 DUP5 ADD MLOAD EQ ISZERO PUSH2 0xF90 JUMP JUMPDEST SWAP4 POP POP SWAP5 POP POP SWAP3 SWAP2 SWAP1 JUMP JUMPDEST POP DUP2 ISZERO PUSH2 0xF09 JUMP JUMPDEST POP SWAP6 SWAP5 POP POP SWAP1 POP SWAP3 SWAP2 SWAP1 JUMP JUMPDEST POP DUP3 ISZERO PUSH2 0xEFD JUMP JUMPDEST SWAP1 SWAP4 SWAP2 SWAP5 SWAP3 SWAP5 DUP1 ISZERO PUSH2 0x10FE JUMPI DUP3 ISZERO PUSH2 0x871 JUMPI DUP3 DUP1 DUP7 DUP1 MULMOD SWAP3 DUP2 DUP1 DUP1 DUP1 DUP7 DUP1 MULMOD SWAP11 DUP2 DUP1 DUP1 DUP11 DUP9 MULMOD PUSH1 0x4 MULMOD SWAP13 DUP1 MULMOD SWAP1 MULMOD SWAP3 DUP1 MULMOD PUSH1 0x3 MULMOD ADDMOD SWAP2 DUP4 DUP8 DUP1 ADDMOD DUP5 SUB DUP5 DUP2 GT PUSH2 0x49C JUMPI DUP5 SWAP1 DUP2 DUP6 DUP1 MULMOD ADDMOD SWAP1 DUP2 DUP6 SUB SWAP1 DUP6 DUP3 GT PUSH2 0x49C JUMPI DUP6 DUP1 SWAP2 DUP1 MULMOD PUSH1 0x8 MULMOD DUP6 SUB SWAP1 DUP6 DUP3 GT PUSH2 0x49C JUMPI DUP6 SWAP5 DUP6 DUP1 SWAP5 SWAP3 DUP2 SWAP4 SWAP12 ADDMOD SWAP1 MULMOD ADDMOD SWAP5 MULMOD PUSH1 0x2 MULMOD SWAP1 JUMP JUMPDEST SWAP1 SWAP5 POP SWAP2 SWAP1 POP JUMP JUMPDEST DUP2 DUP2 MUL SWAP3 SWAP2 DUP2 ISZERO SWAP2 DUP5 DIV EQ OR ISZERO PUSH2 0x49C JUMPI JUMP INVALID LOG2 PUSH5 0x6970667358 0x22 SLT KECCAK256 PUSH26 0xC92EED7FA7477BCCD7241E1FCD4F5D274C74774007DC6FA30063 0xC2 0xBD RETURNDATACOPY 0xDC 0xC2 PUSH5 0x736F6C6343 STOP ADDMOD BYTE STOP CALLER "
		},
		"gasEstimates": {
			"creation": {
				"codeDepositCost": "886200",
				"executionCost": "infinite",
				"totalCost": "infinite"
			},
			"external": {
				"publicKeyX()": "infinite",
				"publicKeyY()": "infinite",
				"verify(bytes,bytes,uint256)": "infinite"
			}
		},
		"methodIdentifiers": {
			"publicKeyX()": "fa6df55d",
			"publicKeyY()": "d7a6f6e8",
			"verify(bytes,bytes,uint256)": "4df90a0a"
		}
	},
	"abi": [
		{
			"inputs": [
				{
					"internalType": "uint256",
					"name": "_publicKeyX",
					"type": "uint256"
				},
				{
					"internalType": "uint256",
					"name": "_publicKeyY",
					"type": "uint256"
				}
			],
			"stateMutability": "nonpayable",
			"type": "constructor"
		},
		{
			"inputs": [],
			"name": "publicKeyX",
			"outputs": [
				{
					"internalType": "uint256",
					"name": "",
					"type": "uint256"
				}
			],
			"stateMutability": "view",
			"type": "function"
		},
		{
			"inputs": [],
			"name": "publicKeyY",
			"outputs": [
				{
					"internalType": "uint256",
					"name": "",
					"type": "uint256"
				}
			],
			"stateMutability": "view",
			"type": "function"
		},
		{
			"inputs": [
				{
					"internalType": "bytes",
					"name": "alpha",
					"type": "bytes"
				},
				{
					"internalType": "bytes",
					"name": "proof",
					"type": "bytes"
				},
				{
					"internalType": "uint256",
					"name": "randomWord",
					"type": "uint256"
				}
			],
			"name": "verify",
			"outputs": [
				{
					"internalType": "bool",
					"name": "",
					"type": "bool"
				}
			],
			"stateMutability": "view",
			"type": "function"
		}
	]
}